:1000000009C1000035C1000033C1000031C100004A
:100010002FC100002DC100002BC1000029C100002C
:1000200027C1000025C1000023C1000021C100003C
:100030001FC100001DC100001BC1000019C100004C
:1000400017C1000015C1000013C1000011C100005C
:100050000FC100000DC100000BC100004DC3000026
:1000600007C10000EFC1000023C2000001C1000071
:10007000FFC00000FDC00000FBC00000F9C0000090
:10008000F7C00000F5C00000F3C00000F1C00000A0
:10009000EFC00000EDC00000EBC00000E9C00000B0
:1000A000E7C00000E5C00000E3C00000E1C00000C0
:1000B000DFC00000DDC00000DBC00000D9C00000D0
:1000C000D7C00000D5C00000D3C00000D1C00000E0
:1000D000CFC00000CDC00000CBC00000C9C00000F0
:1000E000C7C0000079017C016B016F017501B3018C
:1000F000800184018A018E01920198019C01A00176
:10010000B301A601AA01AE0100000A0B02090C0D01
:100110000E080703040100000000000000000000BA
:1001200000000000000000000000000000000000CF
:10013000000000001211100000000000000000008C
:1001400000000000000000000000000000000102AC
:1001500010202008081020401020408002010201D9
:100160000804020101020408102040808040201091
:1001700008040201800402018040201008040201EA
:100180000804020101020408102040800102040852
:10019000102040800505050507050808080802022B
:1001A00002020A0A08080404040401010101010111
:1001B00001010303030303030303040707070C0CF4
:1001C0000C0C0C0C0C0C02020202060606060606BB
:1001D00006060B0B0B0B0B0B0B0B00002200250074
:1001E00028002B002E003100340002010000050120
:1001F00008010B0100002100240027002A002D0027
:100200003000330001010000040107010A0151011F
:100210008A025B0111241FBECFEFD1E2DEBFCDBF4A
:1002200000E00CBF12E0A0E0B2E0E6EFFEE000E08C
:100230000BBF02C007900D92A831B107D9F722E099
:10024000A8E1B2E001C01D92AE3CB207E1F712E0B6
:10025000C2E1D2E000E005C022970109FE010BBF18
:100260000CD4CE30D10780E00807B1F73BD232C6BC
:10027000C7CECF93DF9361E080E376D0C0E0D0E0DB
:1002800060E0CE0119D62196CC3C8CE0D807C1F7AE
:1002900061E080E3A2D061E08DE2DF91CF9164C0A4
:1002A000089567E072E08EE192E006D267E072E0C6
:1002B00088E192E001C288E192E097D18EE192E07C
:1002C00094C190E0FC013197E231F10508F04BC098
:1002D000EE58FF4FCCC3809180008F7703C0809190
:1002E00080008F7D80938000089580918000877FBB
:1002F000F9CF84B58F7702C084B58F7D84BD089512
:100300008091B0008F7703C08091B0008F7D809383
:10031000B0000895809190008F7707C08091900081
:100320008F7D03C080919000877F80939000089517
:100330008091A0008F7707C08091A0008F7D03C0BF
:100340008091A000877F8093A00008958091200174
:100350008F7707C0809120018F7D03C0809120019D
:10036000877F809320010895CF93DF9390E0FC0175
:10037000E25BFE4F2491FC01EC56FE4F84918823F2
:1003800049F190E0880F991FFC01EC50FE4FA591B8
:10039000B49186529E4FFC01C591D4919FB76111D3
:1003A00008C0F8948C91209582238C9388818223B5
:1003B0000AC0623051F4F8948C91322F3095832327
:1003C0008C938881822B888304C0F8948C91822B33
:1003D0008C939FBFDF91CF9108950F931F93CF937D
:1003E000DF931F92CDB7DEB7282F30E0F901E85F29
:1003F000FE4F8491F901E25BFE4F1491F901EC5636
:10040000FE4F04910023C1F0882319F0698359DF5E
:100410006981E02FF0E0EE0FFF1FE652FE4FA5913D
:10042000B4919FB7F8948C91611103C0109581230A
:1004300001C0812B8C939FBF0F90DF91CF911F91B3
:100440000F9108951F920F920FB60F9211240BB6C1
:100450000F922F938F939F93EF93FF93E09134022A
:10046000F09135028081E0913A02F0913B0282FDE9
:1004700012C0908180913D028F5F8F7320913E0268
:10048000821751F0E0913D02F0E0EC5DFD4F958F59
:1004900080933D0201C08081FF91EF919F918F91E8
:1004A0002F910F900BBE0F900FBE0F901F901895BD
:1004B0001F920F920FB60F9211240BB60F922F932B
:1004C0003F934F935F936F937F938F939F93AF93DC
:1004D000BF93EF93FF9384E292E023D2FF91EF91D9
:1004E000BF91AF919F918F917F916F915F914F914C
:1004F0003F912F910F900BBE0F900FBE0F901F904A
:10050000189584E292E0A4D121E0892B09F420E03F
:10051000822F0895109227021092260288EE93E00F
:10052000A0E0B0E08093280290932902A0932A02D1
:10053000B0932B028CE092E09093250280932402EA
:1005400085EC90E0909331028093300284EC90E04F
:10055000909333028093320280EC90E090933502C6
:100560008093340281EC90E09093370280933602BE
:1005700082EC90E0909339028093380286EC90E010
:1005800090933B0280933A0210923D0210923E02F9
:1005900010923F02109240020895CF92DF92EF92A4
:1005A000FF920F931F93CF93DF937C016A01EB01BE
:1005B00000E010E00C151D0571F06991D701ED9177
:1005C000FC910190F081E02DC7011995892B19F05C
:1005D0000F5F1F4FEFCFC801DF91CF911F910F9198
:1005E000FF90EF90DF90CF900895FC018081918182
:1005F000E0C2CF93DF93EC0188819981009709F0E5
:10060000D8D2198218821D821C821B821A82DF9125
:10061000CF9108950F931F93CF93DF93EC018B013C
:100620006F5F7F4F8881998153D3009731F0998311
:1006300088831B830A8381E001C080E0DF91CF9132
:100640001F910F910895CF93DF93EC0188819981D9
:10065000892B29F08A819B818617970758F4CE0150
:10066000D9DF882341F08C819D81892B19F4E881A1
:10067000F981108281E0DF91CF910895EF92FF928E
:100680000F931F93CF93DF93EC017B018A01BA0193
:10069000DADF811103C0CE01ACDF06C01D830C83FD
:1006A000B7018881998101D4CE01DF91CF911F914B
:1006B0000F91FF90EF900895FC0111821082138238
:1006C0001282158214826115710551F0FB010190AF
:1006D0000020E9F7AF0141505109461B570BCECF1F
:1006E0000895089553D0FDDFC4DDC5E5D4E0D8DD1D
:1006F0002097E9F3DAD0FBCF1F920F920FB60F923B
:1007000011242F933F938F939F93AF93BF93809127
:10071000C2029091C302A091C402B091C50230916F
:10072000C10223E0230F2D3720F40196A11DB11D36
:1007300005C026E8230F0296A11DB11D2093C1021A
:100740008093C2029093C302A093C402B093C502E7
:100750008091C6029091C702A091C802B091C902CF
:100760000196A11DB11D8093C6029093C702A0936C
:10077000C802B093C902BF91AF919F918F913F91F1
:100780002F910F900FBE0F901F901895789484B5FD
:10079000826084BD84B5816084BD85B5826085BD7D
:1007A00085B5816085BDEEE6F0E080818160808363
:1007B000E1E8F0E010828081826080838081816046
:1007C0008083E0E8F0E0808181608083E1EBF0E00D
:1007D000808184608083E0EBF0E0808181608083B1
:1007E000E1E9F0E0808182608083808181608083A4
:1007F000E0E9F0E0808181608083E1EAF0E08081DF
:1008000082608083808181608083E0EAF0E0808183
:1008100081608083E1E2F1E0808182608083808179
:1008200081608083E0E2F1E0808181608083EAE79B
:10083000F0E0808184608083808182608083808119
:10084000816080838081806880831092C1000895D8
:10085000FC01818D228D90E0805C9F4F821B91096D
:100860008F7399270895FC01918D828D981731F02F
:10087000828DE80FF11D858D90E008958FEF9FEF39
:100880000895FC01918D828D981761F0828DDF01B2
:10089000A80FB11D5D968C91928D9F5F9F73928F73
:1008A00090E008958FEF9FEF089581E892E0892B03
:1008B00039F080E090E0892B19F023DE811125C00A
:1008C00080E090E0892B41F080E090E0892B21F0DE
:1008D0000E94000081111CC080E090E0892B41F053
:1008E00080E090E0892B21F00E940000811113C06C
:1008F00080E090E0892BA1F080E090E0892B81F0EE
:100900000E94000081110AC008950E940000D8CF03
:100910000E940000E1CF0E940000EACF0C9400008A
:100920000895FC01848DDF01A80FB11DA35ABF4FAC
:100930002C91848D90E001968F739927848FA689DE
:10094000B7892C93A089B1898C9180648C93938D05
:10095000848D981306C00288F389E02D80818F7DF5
:1009600080830895CF93DF93EC01888D8823C1F0B5
:10097000EA89FB89808185FD05C0A889B9898C91A8
:1009800086FD0EC00FB607FCF5CF808185FFF2CF44
:10099000A889B9898C9185FFEDCFCE01C2DFE8CF60
:1009A000DF91CF910895CF92DF92FF920F931F9323
:1009B000CF93DF931F92CDB7DEB76C0181E0D601F4
:1009C00058968C9358975B969C915B975C968C910C
:1009D0005C97981307C05096ED91FC9151978081D8
:1009E00085FD2DC0F601038D10E00F5F1F4F0F73C3
:1009F0001127F02EF601848DF81210C00FB607FCF7
:100A0000F9CFD6015096ED91FC915197808185FFE9
:100A1000F1CFC601698385DF6981ECCF838DE80F53
:100A2000F11DE35AFF4F6083D6015B960C935B97F1
:100A30005296ED91FC915397808180620CC0D60153
:100A40005696ED91FC91579760835096ED91FC91ED
:100A5000519780818064808381E090E00F90DF91E6
:100A6000CF911F910F91FF90DF90CF900895EE0FDF
:100A7000FF1F0590F491E02D19940790F691E02D59
:100A80001994CF93DF938230910510F482E090E0C7
:100A9000E091CC02F091CD0220E030E0A0E0B0E0A7
:100AA000309739F14081518148175907B8F04817FC
:100AB000590771F482819381109729F013969C93C2
:100AC0008E9312972CC09093CD028093CC0227C0B6
:100AD0002115310531F04217530718F0A901DB0148
:100AE00001C0EF019A01BD01DF010280F381E02D19
:100AF000D7CF21153105F9F0281B390B24303105EA
:100B000080F48A819B816115710521F0FB0193833B
:100B1000828304C09093CD028093CC02FE01329672
:100B200044C0FE01E20FF31F8193919322503109DB
:100B3000398328833AC02091CA023091CB02232BFB
:100B400041F420910202309103023093CB022093B2
:100B5000CA0220910002309101022115310541F4B1
:100B60002DB73EB74091040250910502241B350B6E
:100B7000E091CA02F091CB02E217F307A0F42E1B1A
:100B80003F0B2817390778F0AC014E5F5F4F2417F1
:100B9000350748F04E0F5F1F5093CB024093CA02B7
:100BA0008193919302C0E0E0F0E0CF01DF91CF911B
:100BB0000895CF93DF93009709F487C0FC01329723
:100BC00013821282C091CC02D091CD02209781F481
:100BD00020813181280F391F8091CA029091CB0268
:100BE0008217930779F5F093CB02E093CA026DC0A8
:100BF000DE0120E030E0AE17BF0750F412964D91B1
:100C00005C9113979D014115510509F1DA01F3CF6C
:100C1000B383A28340815181840F951F8A179B075C
:100C200071F48D919C911197840F951F0296918379
:100C3000808312968D919C911397938382832115C3
:100C4000310529F4F093CD02E093CC023EC0D901E6
:100C50001396FC93EE9312974D915D91A40FB51FDF
:100C6000EA17FB0779F480819181840F951F029622
:100C7000D90111969C938E938281938113969C93B4
:100C80008E931297E0E0F0E08A819B81009719F043
:100C9000FE01EC01F9CFCE01029628813981820F45
:100CA000931F2091CA023091CB022817390769F4AB
:100CB000309729F41092CD021092CC0202C0138218
:100CC0001282D093CB02C093CA02DF91CF910895D4
:100CD0006F927F928F929F92AF92BF92CF92DF924C
:100CE000EF92FF920F931F93CF93DF93EC01CB0111
:100CF000209779F4DF91CF911F910F91FF90EF90A2
:100D0000DF90CF90BF90AF909F908F907F906F902B
:100D1000B8CEFE01E60FF71F9E0122503109E217FF
:100D2000F30708F4A8C0D9010D911C91119706177B
:100D30001707B0F00530110508F49BC0A801445016
:100D400051094617570708F494C002501109061BB1
:100D5000170B019311936D937C93CF012ADF89C008
:100D60005B01A01AB10A4E01800E911EA091CC0227
:100D7000B091CD02612C712C60E070E0109709F405
:100D800049C0A815B905C9F5ED90FC901197670108
:100D900042E0C40ED11CCA14DB0478F147018A1862
:100DA0009B08640142E0C40ED11C1296BC901297BD
:100DB0001396AC91B5E0CB16D10440F0B282A38378
:100DC00091828082D9018D939C9309C00E5F1F4F41
:100DD0000E0D1F1DF90111830083EB2DFA2F6115F4
:100DE000710531F0DB011396FC93EE93129741C02D
:100DF000F093CD02E093CC023CC06D917C911197B1
:100E00006616770608F43B01BD0112960D90BC9161
:100E1000A02DB4CF6091CA027091CB0268157905FC
:100E2000E9F468167906D0F440910002509101026D
:100E30004115510541F44DB75EB7609104027091C0
:100E40000502461B570BE417F507A8F4F093CB02F5
:100E5000E093CA02F901918380830BC012DE7C010A
:100E6000009749F0A801BE0117D0CE01A2DEC7014C
:100E700004C0CE0102C080E090E0DF91CF911F91CD
:100E80000F91FF90EF90DF90CF90BF90AF909F9029
:100E90008F907F906F900895FB01DC0102C001905C
:100EA0000D9241505040D8F70895FB01DC010190AC
:100EB0000D920020E1F70895262FF999FECF1FBA71
:100EC00092BD81BD20BD0FB6F894FA9AF99A0FBE73
:100ED0000196089512E0C2E1D2E000E005C0229739
:100EE0000109FE010BBFC9DDC431D10780E008074D
:060EF000B1F7F894FFCFFA
:100EF6000000CE0280002C0000000000D304CD02CA
:080F0600280441043304B20485
:00000001FF
