:100000002EC100000C942E120C9459120C948412E0
:100010000C94AF120C94DA120C9405130C94301358
:100020000C945B134DC100004BC1000049C100009E
:1000300047C1000045C1000043C1000041C10000AC
:100040003FC100003DC100003BC1000039C10000BC
:1000500037C1000035C1000033C100000C94861385
:100060002FC100000C94D4160C940A1729C100006B
:1000700027C1000025C1000023C1000021C10000EC
:100080001FC100001DC100001BC1000019C10000FC
:1000900017C1000015C1000013C1000011C100000C
:1000A0000FC100000DC100000BC1000009C100001C
:1000B00007C1000005C1000003C1000001C100002C
:1000C000FFC00000FDC00000FBC00000F9C0000040
:1000D000F7C00000F5C00000F3C00000F1C0000050
:1000E000EFC000000812D211DA11E611F311141258
:1000F0002112BC14BF14AE14B214B814F614C314F5
:10010000C714CD14D114D514DB14DF14E314F61482
:10011000E914ED14F11400000A0B02090C0D0E088D
:1001200007030401000000000000000000000000C0
:1001300000000000000000000000000000000000BF
:10014000000012111000000000000000000000007C
:10015000000000000000000000000000010210206C
:1001600020080810204010204080020102010804ED
:100170000201010204081020408080402010080481
:1001800002018004020180402010080402010804DA
:10019000020101020408102040800102040810201E
:1001A0004080050505050705080808080202020247
:1001B0000A0A080804040404010101010101010103
:1001C0000303030303030303040707070C0C0C0CCE
:1001D0000C0C0C0C020202020606060606060606B7
:1001E0000B0B0B0B0B0B0B0B000022002500280048
:1001F0002B002E003100340002010000050108012F
:100200000B0100002100240027002A002D003000EF
:10021000330001010000040107010A014E414E496B
:100220004E495459494E46CDCCCC3D0AD7233C17B4
:10023000B7D13877CC2B329595E6241FB14F0A0001
:100240000020410000C84200401C4620BCBE4CCAF1
:100250001B0E5AAEC59D7400A1073C17B3071124AD
:100260001FBECFEFD1E2DEBFCDBF00E00CBF15E077
:10027000A0E0B2E0E8E8F2E400E00BBF02C00790C3
:100280000D92AA3AB107D9F727E0AAEAB5E001C072
:100290001D92AA31B207E1F712E0CCE5D2E000E00E
:1002A00006C022970109FE010BBF0E94C51CC8357C
:1002B000D10780E00807A9F70E94511B0C94332155
:1002C0009FCE8091BC059091BD05A091BE05B091D7
:1002D000BF050196A11DB11D8093BC059093BD057E
:1002E000A093BE05B093BF0508958091B805909185
:1002F000B905A091BA05B091BB050196A11DB11D2C
:100300008093B8059093B905A093BA05B093BB0547
:1003100008958AEA95E00E94FA1881EC95E00E941F
:10032000FA1887EC95E00C94FA180C94921F8EBD85
:1003300000000DB407FEFDCF8EB5089560E08CE19E
:100340000C94301561E08CE10C943015CF93DF9361
:100350001F921F92CDB7DEB76A838983EFDF898151
:100360008068E5DF6A81862FE2DF0F900F90DF91D2
:10037000CF91E8CF1F93CF93DF931F921F92CDB7FA
:10038000DEB7182F6A837983D9DF82E390E00E9479
:100390003614812F8068CBDF82E390E00E94361410
:1003A0007981872FC4DF82E390E00E9436146A814E
:1003B000862FBDDF82E390E00E9436140F900F90ED
:1003C000DF91CF911F91BECF1F93CF93DF9300D0CA
:1003D000CDB7DEB7182F4B835A836983AFDF82E333
:1003E00090E00E943614812F8068A1DF82E390E0C4
:1003F0000E9436146981862F9ADF82E390E00E9482
:1004000036145A81852F93DF82E390E00E943614E0
:100410004B81842F8CDF82E390E00E9436140F9092
:100420000F900F90DF91CF911F918CCFCF93DF93DF
:10043000C82F84DF82E390E00E9436148C2F77DF90
:1004400082E390E00E94361480E071DFC82F82E3DF
:1004500090E00E94361480E06ADFD82F82E390E0BB
:100460000E9436146FDF8D2F90E09C2BDF91CF918F
:1004700008950F931F93CF93182F60DF82E390E0CE
:100480000E943614812F53DF82E390E00E943614DD
:1004900080E04DDF182F82E390E00E94361480E068
:1004A00046DF082F82E390E00E94361480E03FDFB1
:1004B000C82F82E390E00E94361444DF6C2F70E076
:1004C00080E090E0812B10E0102F002720E030E04A
:1004D000602B712B822B932BCF911F910F9108953D
:1004E0000F931F93F8948091C005882309F410C1DD
:1004F0008AE1BFDF8091CD05813071F58AE0B9DFF7
:100500000091E3051091E4052091E5053091E605A1
:10051000600F711F821F931F6093E3057093E405C2
:100520008093E5059093E6058BE0A3DF0091DF055E
:100530001091E0052091E1053091E205600F711FF7
:10054000821F931F6093DF057093E0058093E105A0
:100550009093E2058CE032C08091CD05823009F0A5
:100560004CC08DE086DF0091E3051091E4052091F9
:10057000E5053091E605600F711F821F931F6093A0
:10058000E3057093E4058093E5059093E6058EE01E
:1005900070DF0091DF051091E0052091E1053091B9
:1005A000E205600F711F821F931F6093DF05709338
:1005B000E0058093E1059093E2058FE05ADF00911A
:1005C000DB051091DC052091DD053091DE05600F23
:1005D000711F821F931F6093DB057093DC0580936E
:1005E000DD059093DE058091D9059091DA0501969D
:1005F0009093DA058093D9058BC08091CD05833027
:1006000079F48DE036DF672B682B692B09F480C005
:100610008AE02FDF672B682B692B09F070C078C048
:100620008091CD05843079F48DE023DF672B682B32
:10063000692B09F46DC08AE01CDF672B682B692BDE
:1006400009F06AC065C08091CD05853079F48DE0F0
:1006500010DF672B682B692B09F45AC08AE009DF89
:10066000672B682B692B09F061C052C08091CD05C2
:10067000863079F48DE0FDDE672B682B692B09F459
:1006800047C08AE0F6DE672B682B692B09F067C04C
:100690003FC08091CD05873071F48DE0EADE672B95
:1006A000682B692BA9F18AE0E4DE672B682B692BA4
:1006B00009F05FC02DC08091CD05883071F48DE0C8
:1006C000D8DE672B682B692B19F18AE0D2DE672B05
:1006D000682B692B09F057C01BC08091CD0589306C
:1006E000B9F48DE0C6DE672B682B692B89F08AE0B0
:1006F000C0DE672B682B692B09F04FC009C08091C1
:10070000D5058F3F19F08091D5058F5F8093D50572
:1007100078941F910F9108958091CE05811115C095
:100720008091D4058F5F8093D40509C08091CE0558
:1007300081110BC08091D3058F5F8093D3051092F8
:10074000D8051092D7051092C0058091CE058F3F35
:1007500019F08091CE058F5F8093CE05D9CF80911F
:10076000CE058111F2CF8091D2058F5F8093D205A3
:10077000E6CF8091CE058111E8CF8091D1058F5FC2
:100780008093D105DCCF8091CE058111DECF8091A1
:10079000D0058F5F8093D005D2CF8091CE05811197
:1007A000D4CF8091CF058F5F8093CF05C8CF4F9274
:1007B0005F926F927F928F929F92AF92BF92CF92F1
:1007C000DF92EF92FF920F931F93CF93DF9300D0AE
:1007D0001F92CDB7DEB78091AE059091AF05892B02
:1007E000C1F10FEE15E0CE0101965C014E0195E0DE
:1007F000890E911CE12CF12C6801CA18DB08F60166
:10080000EF54F64F6F01F801EE0DFF1D80819181CD
:10081000A281B38189839A83AB83BC83250136018E
:100820006E0C7F1CC201860D971DF20161912F0194
:100830007CDD48145904B1F7F4E0EF0EF11C8CE0B4
:10084000E816F10401F7045F1F4F96E00F34190713
:1008500089F60F900F900F900F90DF91CF911F911D
:100860000F91FF90EF90DF90CF90BF90AF909F904F
:100870008F907F906F905F904F9008954F925F920E
:100880006F927F928F929F92AF92BF92CF92DF92A0
:10089000EF92FF920F931F93CF93DF93CDB7DEB705
:1008A000C254D1090FB6F894DEBF0FBECDBFCE0142
:1008B00001975C01C12CD12C750100E010E0C8014A
:1008C0008C0D9D1D892B41F46CE28AEA95E00E9413
:1008D000D81A9A8389830DC0F701408151814F5FF7
:1008E0005F4F6CE28AEA95E00E94BD1AF70193839C
:1008F00082830F5F1F4FF2E0EF0EF11C03301105F2
:10090000F1F686E0A80EB11C93E0C90ED11CE8E117
:10091000CE16D10489F63FEE832E35E0932ECE011C
:1009200001975C01E12CF12C6501370100E010E03A
:100930002401400E511E6114710429F429813A8169
:1009400040E050E007C0F6012281338140815181AF
:100950004F5F5F4F6AEA75E0CE01CD960E94F91AAB
:10096000CE01CD960E94461BF20160837183828383
:100970009383CE01CD960E94FA18FFEF6F1A7F0A7B
:100980000C5F1F4F82E0C80ED11C0C30110581F6A0
:100990009CE0890E911CE3E0EE0EF11CF6E0AF0E38
:1009A000B11C88E1E816F10409F0BECF00DFCE5B90
:1009B000DF4F0FB6F894DEBF0FBECDBFDF91CF91F2
:1009C0001F910F91FF90EF90DF90CF90BF90AF906D
:1009D0009F908F907F906F905F904F90089561E00F
:1009E0008DE20E94F71461E08BE20E94F71461E04F
:1009F00089E20E94F71461E08CE10E94F7140E94E2
:100A00008A118CB583608CBD8DB58E7F8DBD8CB504
:100A1000837F84608CBD8CB58F7D8CBD26E040E0EB
:100A200052EC61E070E087E796E00E9474166AE09D
:100A300070E080E090E00E94FF1360E082E00E949E
:100A4000F71460E083E00E94F71460E085E10E9403
:100A5000F71461E08DE20E94301561E08BE20E94A4
:100A6000301561E089E20E94301543E050E060E714
:100A700072E081E00E94BD1143E050E061E671E068
:100A800080E00E94BD1143E050E065E771E082E044
:100A90000E94BD110C94DC1360E070E08AE26ADC15
:100AA00088EC90E00E94361460E070E08BE262DC3B
:100AB00088EC90E00E94361460E070E08CE25ADC32
:100AC00088EC90E00E94361460E070E08DE252DC29
:100AD00088EC90E00E94361460E070E08EE24ADC20
:100AE00088EC90E00E94361460E070E08FE242DC17
:100AF00088EC90E00E94361460E070E080E33ADC1D
:100B000088EC90E00E94361460E070E081E332DC13
:100B100088EC90E00E94361460E070E082E32ADC0A
:100B200088EC90E00E9436146CEF84E10FDC88ECD6
:100B300090E00E9436146FE887E108DC88EC90E0D2
:100B40000E9436146091D7057091D8058CE112DCB3
:100B500088EC90E00E9436148AE18BDC88EC90E00F
:100B60000E94361440E050E160E070E088E12CDC47
:100B700088EC90E00E94361481E058DC82E056DC7C
:100B800083E054CC60E070E08AE2F4DB88EC90E033
:100B90000E94361460E070E08BE2ECDB88EC90E0C1
:100BA0000E94361460E070E08CE2E4DB88EC90E0B8
:100BB0000E94361460E070E08DE2DCDB88EC90E0AF
:100BC0000E94361460E070E08EE2D4DB88EC90E0A6
:100BD0000E94361460E070E08FE2CCDB88EC90E09D
:100BE0000E94361460E070E080E3C4DB88EC90E0A3
:100BF0000E94361460E070E081E3BCDB88EC90E09A
:100C00000E94361460E070E082E3B4DB88EC90E090
:100C10000E9436146CEF84E199DB88EC90E00E942E
:100C200036146FE887E192DB88EC90E00E9436147E
:100C30006091D7057091D8058CE19CDB88EC90E041
:100C40000E9436148AE115DC88EC90E00E9436148C
:100C500040E050E160E070E088E1B6DB88EC90E0D5
:100C60000E94361487E0E2DB88E0E0DB89E0DECB3F
:100C700060E070E08AE27EDB88EC90E00E9436144F
:100C800060E070E08BE276DB88EC90E00E94361446
:100C900060E070E08CE26EDB88EC90E00E9436143D
:100CA00060E070E08DE266DB88EC90E00E94361434
:100CB00060E070E08EE25EDB88EC90E00E9436142B
:100CC00060E070E08FE256DB88EC90E00E94361422
:100CD00060E070E080E34EDB88EC90E00E94361428
:100CE00060E070E081E346DB88EC90E00E9436141F
:100CF00060E070E082E33EDB88EC90E00E94361416
:100D00006CEF84E123DB88EC90E00E9436146FE8FE
:100D100087E11CDB88EC90E00E9436146091D705D7
:100D20007091D8058CE126DB88EC90E00E943614A7
:100D30008AE19FDB88EC90E00E94361440E050E1AD
:100D400060E070E088E140DB88EC90E00E943614BF
:100D500084E06CDB85E06ADB86E068DB88EC90E0B1
:100D60000C9436146CE986E1F1DA84EF91E00E948C
:100D700036148AE17EDB84EF91E00E94361440E075
:100D800052E060E070E088E11FDB88EC90E00E94B8
:100D900036146EE170E08CE1EDDA88EC90E00E94B0
:100DA000361460E070E086E3E5DA64E670E080E047
:100DB00090E00E94FF1360E070E087E3DBDA64E616
:100DC00070E080E090E00E94FF1360E070E088E354
:100DD000D1DA64E670E080E090E00E94FF1388ECD6
:100DE00090E00C9436148AE144DB84EF91E00E9499
:100DF000361440E052E060E070E088E1E5DA88EC2B
:100E000090E00E9436146EE170E08CE1B3DA88EC79
:100E100090E00E94361460E070E083E3ABDA64E6B1
:100E200070E080E090E00E94FF1360E070E084E3F7
:100E3000A1DA64E670E080E090E00E94FF1360E0D9
:100E400070E085E397DA64E670E080E090E00E946D
:100E5000FF1388EC90E00C94361460E070E08AE2B6
:100E600089DA88EC90E00E94361460E070E08BE252
:100E700081DA88EC90E00E94361460E070E08CE249
:100E800079DA88EC90E00E94361460E070E08DE240
:100E900071DA88EC90E00E94361460E070E08EE237
:100EA00069DA88EC90E00E94361460E070E08FE22E
:100EB00061DA88EC90E00E94361460E070E080E334
:100EC00059DA88EC90E00E94361460E070E081E32B
:100ED00051DA88EC90E00E94361460E070E082E322
:100EE00049DA88EC90E00E9436146CEF84E12EDA47
:100EF00088EC90E00E9436146FE887E127DA88ECEE
:100F000090E00E94361468EC70E08CE133DA88ECF3
:100F100090E00E9436148AE1ACDA88EC90E00E94FE
:100F2000361440E050E160E070E088E14DDA88EC92
:100F300090E00E94361481E079DA82E077DA83E08B
:100F400075CA6BE975E087EC95E00E9461196BE961
:100F500075E081EC95E00E9461196BE975E08AEA21
:100F600095E00C946119D5C9CF92DF92EF92FF9270
:100F70000F931F93CF93DF93CDB7DEB762970FB672
:100F8000F894DEBF0FBECDBF87E796E00E946515DF
:100F9000892B09F4D1C640E067E776E0CE010196DF
:100FA0000E94D618BE016F5F7F4F87EC95E00E94CC
:100FB000AA19CE0101960E94FA18F89467E773E027
:100FC00087EC95E00E949F1A882359F011E0109356
:100FD000C005C8DE1092D6051093CD056DE773E00D
:100FE00013C063E873E087EC95E00E949F1A8823A2
:100FF00081F081E08093C005F6DE1092D60582E094
:101000008093CD0569E873E081EC95E00E94B51905
:1010100092C66FE873E087EC95E00E949F1A8823E0
:1010200061F081E08093C00518DF1092D50583E060
:101030008093CD0566E973E0E7CF66EA73E087EC5D
:1010400095E00E949F1A8823C1F081E08093C0053B
:1010500084E690E09093D8058093D7056EE973E01D
:1010600081EC95E00E94B51987E08093CD0514DDF1
:101070001092CE051092D1055EC664EA73E087EC4B
:1010800095E00E949F1A8823C1F081E08093C005FB
:1010900084E690E09093D8058093D70563EB73E0E6
:1010A00081EC95E00E94B519E3DD88E08093CD05E1
:1010B0001092CE051092D0053EC668EB73E087EC27
:1010C00095E00E949F1A8823C1F081E08093C005BB
:1010D00084E690E09093D8058093D70567EC73E0A1
:1010E00081EC95E00E94B5194DDD89E08093CD0536
:1010F0001092CE051092CF051EC66BEC73E0CE01A8
:1011000001960E946119BE016F5F7F4F87EC95E0E9
:101110000E94F61A8C01CE0101960E94FA1817FD62
:1011200068C081E08093C0056BEC73E0CE01079648
:101130000E946119BE01695F7F4F87EC95E00E94B4
:10114000F61AAC01485F5F4F6CE287EC95E00E94B5
:10115000BD1A8C016BEC73E0CE010D960E946119F3
:10116000BE01635F7F4F87EC95E00E94F61AAC01E9
:10117000495F5F4F980167EC75E0CE0101960E94D0
:10118000F91ACE0101960E943C1B7093D80560931A
:10119000D705CE0101960E94FA18CE010D960E9445
:1011A000FA18CE0107960E94FA188091D7059091FF
:1011B000D805181619060CF0BEC563ED73E081EC76
:1011C00095E00E94B5196091D7057091D80581EC22
:1011D00095E00E94411A6CE281EC95E00E94041AAD
:1011E0005BDC84E08093CD051092CE051092D4058F
:1011F000A2C565EE73E0CE0101960E946119BE01A1
:101200006F5F7F4F87EC95E00E94F61A8C01CE014C
:1012100001960E94FA1817FD68C081E08093C0050E
:1012200065EE73E0CE0107960E946119BE01695F09
:101230007F4F87EC95E00E94F61AAC01485F5F4F44
:101240006CE287EC95E00E94BD1A8C0165EE73E0BC
:10125000CE010D960E946119BE01635F7F4F87EC3E
:1012600095E00E94F61AAC01495F5F4F980167EC68
:1012700075E0CE0101960E94F91ACE0101960E94F6
:101280003C1B7093D8056093D705CE0101960E9450
:10129000FA18CE010D960E94FA18CE0107960E9408
:1012A000FA188091D7059091D805181619060CF0F8
:1012B00042C56DEE73E081EC95E00E94B519609136
:1012C000D7057091D80581EC95E00E94411A6CE237
:1012D00081EC95E00E94041ACBDC85E08093CD057B
:1012E0001092CE051092D30526C56EEF73E0CE01A5
:1012F00001960E946119BE016F5F7F4F87EC95E0F8
:101300000E94F61A8C01CE0101960E94FA1817FD70
:1013100068C081E08093C0056EEF73E0CE01079650
:101320000E946119BE01695F7F4F87EC95E00E94C2
:10133000F61AAC01445F5F4F6CE287EC95E00E94C7
:10134000BD1A8C016EEF73E0CE010D960E946119FB
:10135000BE01635F7F4F87EC95E00E94F61AAC01F7
:10136000455F5F4F980167EC75E0CE0101960E94E2
:10137000F91ACE0101960E943C1B7093D805609328
:10138000D705CE0101960E94FA18CE010D960E9453
:10139000FA18CE0107960E94FA188091D70590910D
:1013A000D805181619060CF0C6C46AE074E081EC82
:1013B00095E00E94B5196091D7057091D80581EC30
:1013C00095E00E94411A6CE281EC95E00E94041ABB
:1013D000D9DB86E08093CD051092CE051092D20520
:1013E000AAC46AE174E0CE0101960E946119BE01AF
:1013F0006F5F7F4F87EC95E00E94F61A8C01CE015B
:1014000001960E94FA1817FD82C00E94DC136093B7
:10141000B4057093B5058093B6059093B7056CE25B
:1014200087EC95E00E94D81A9093EE058093ED0525
:101430000FE416E04091ED055091EE054F5F5F4FD0
:101440006CE287EC95E00E94BD1A4091ED05509149
:10145000EE054F5F5F4F9C0167EC75E0CE01019692
:101460000E94F91ACE0101960E943C1B7093EC0574
:101470006093EB05CE0101960E94FA188091EB056E
:101480009091EC05F801819391938F014091ED05C6
:101490005091EE054F5F5F4F6CE287EC95E00E9444
:1014A000BD1A9093EE058093ED05F6E005351F0714
:1014B00009F660914F067091500683E30E94BA01CD
:1014C000609151067091520684E30E94BA016091C6
:1014D00053067091540685E30E94BA010E94DC1302
:1014E000C090B405D090B505E090B605F090B70572
:1014F0006C197D098E099F096093B0057093B10541
:101500008093B2059093B30564E274E010C464E381
:1015100074E0CE0101960E946119BE016F5F7F4F9A
:1015200087EC95E00E94F61A8C01CE0101960E948C
:10153000FA1817FD82C00E94DC136093B405709303
:10154000B5058093B6059093B7056CE287EC95E0FE
:101550000E94D81A9093EE058093ED050FE416E0F3
:101560004091ED055091EE054F5F5F4F6CE287ECC7
:1015700095E00E94BD1A4091ED055091EE054F5F38
:101580005F4F9C0167EC75E0CE0101960E94F91A4D
:10159000CE0101960E943C1B7093EC056093EB0515
:1015A000CE0101960E94FA188091EB059091EC050E
:1015B000F801819391938F014091ED055091EE05D3
:1015C0004F5F5F4F6CE287EC95E00E94BD1A9093ED
:1015D000EE058093ED05F6E005351F0709F66091ED
:1015E0004F067091500686E30E94BA016091510641
:1015F0007091520687E30E94BA0160915306709180
:10160000540688E30E94BA010E94DC13C090B4051E
:10161000D090B505E090B605F090B7056C197D093E
:101620008E099F096093B0057093B1058093B20550
:101630009093B3056EE374E07AC36EE474E0CE0178
:1016400001960E946119BE016F5F7F4F87EC95E0A4
:101650000E94F61A8C01CE0101960E94FA1817FD1D
:1016600082C00E94DC136093B4057093B50580932B
:10167000B6059093B7056CE287EC95E00E94D81A06
:101680009093EE058093ED050FE416E04091ED0593
:101690005091EE054F5F5F4F6CE287EC95E00E9442
:1016A000BD1A4091ED055091EE054F5F5F4F9C01D3
:1016B00067EC75E0CE0101960E94F91ACE01019601
:1016C0000E943C1B7093EC056093EB05CE010196E4
:1016D0000E94FA188091EB059091EC05F801819336
:1016E00091938F014091ED055091EE054F5F5F4F53
:1016F0006CE287EC95E00E94BD1A9093EE05809312
:10170000ED05F6E005351F0709F660914F0670916B
:10171000500689E30E94BA01609151067091520609
:101720008AE30E94BA0160915306709154068BE3DC
:101730000E94BA010E94DC13C090B405D090B50598
:10174000E090B605F090B7056C197D098E099F09E8
:101750006093B0057093B1058093B2059093B30583
:1017600069E574E0E4C26AE674E0CE0101960E9485
:101770006119BE016F5F7F4F87EC95E00E94F61AFA
:101780008C01CE0101960E94FA1817FD81C00E94BB
:10179000DC136093B4057093B5058093B605909300
:1017A000B7056CE287EC95E00E94D81A9093EE059D
:1017B0008093ED050FE416E04091ED055091EE05A4
:1017C0004F5F5F4F6CE287EC95E00E94BD1A40913D
:1017D000ED055091EE054F5F5F4F9C0167EC75E0A2
:1017E000CE0101960E94F91ACE0101960E943C1B7F
:1017F0007093EC056093EB05CE0101960E94FA18F8
:101800008091EB059091EC05F801819391938F0104
:101810004091ED055091EE054F5F5F4F6CE287EC14
:1018200095E00E94BD1A9093EE058093ED05F6E0D9
:1018300005351F0709F660914F06709150068CE33D
:101840000E94BA0160915106709152068DE30E9488
:10185000BA0160915306709154068EE30E94BA015A
:10186000ABD7C090B405D090B505E090B605F09028
:10187000B7056C197D098E099F096093B0057093B7
:10188000B1058093B2059093B30565E774E04FC24C
:1018900066E874E0CE0101960E946119BE016F5F97
:1018A0007F4F87EC95E00E94F61A8C01CE010196DD
:1018B0000E94FA1817FD80C07FD76093B40570931B
:1018C000B5058093B6059093B7056CE287EC95E07B
:1018D0000E94D81A9093EE058093ED050FE416E070
:1018E0004091ED055091EE054F5F5F4F6CE287EC44
:1018F00095E00E94BD1A4091ED055091EE054F5FB5
:101900005F4F9C0167EC75E0CE0101960E94F91AC9
:10191000CE0101960E943C1B7093EC056093EB0591
:10192000CE0101960E94FA188091EB059091EC058A
:10193000F801819391938F014091ED055091EE054F
:101940004F5F5F4F6CE287EC95E00E94BD1A909369
:10195000EE058093ED05F6E005351F0709F6609169
:101960004F06709150068FE30E94BA0160915106B4
:101970007091520680E40E94BA0160915306709102
:10198000540681E40E94BA0117D7C090B405D090E4
:10199000B505E090B605F090B7056C197D098E0984
:1019A0009F096093B0057093B1058093B205909341
:1019B000B30561E974E0BBC162EA74E0CE0101964F
:1019C0000E946119BE016F5F7F4F87EC95E00E9416
:1019D000F61A8C01CE0101960E94FA1817FD6FC00D
:1019E000EBD66093B4057093B5058093B6059093DC
:1019F000B7056CE287EC95E00E94D81A9093EE054B
:101A00008093ED050FE416E04091ED055091EE0551
:101A10004F5F5F4F6CE287EC95E00E94BD1A4091EA
:101A2000ED055091EE054F5F5F4F9C0167EC75E04F
:101A3000CE0101960E94F91ACE0101960E943C1B2C
:101A40007093EC056093EB05CE0101960E94FA18A5
:101A50008091EB059091EC05F801819391938F01B2
:101A60004091ED055091EE054F5F5F4F6CE287ECC2
:101A700095E00E94BD1A9093EE058093ED05F6E087
:101A80000D361F0709F65FE4C52E56E0D52E02E895
:101A90001FE0F601E190F1906F016E2DC8010E94E8
:101AA00095016F2DC80101960E9495010E5F1F4F91
:101AB000003AFFE01F0769F760EB74E038C166EC9D
:101AC00074E0CE0101960E946119BE016F5F7F4FE5
:101AD00087EC95E00E94F61A8C01CE0101960E94D7
:101AE000FA1817FD28C06BE975E08AEA95E00E94B4
:101AF000B5196CE287EC95E00E94D81A2091CB05CD
:101B00003091CC05AC014F5F5F4F67EC75E0CE01C3
:101B100001960E94F91ABE016F5F7F4F8AEA95E035
:101B20000E94AA19CE0101960E94FA180E943E0452
:101B300063ED74E0FCC068EE74E0CE0101960E9493
:101B40006119BE016F5F7F4F87EC95E00E94F61A26
:101B50008C01CE0101960E94FA1817FD4EC06CE26E
:101B600087EC95E00E94D81A9093EE058093ED05DE
:101B7000AC014F5F5F4F6CE287EC95E00E94BD1AAD
:101B80004091ED055091EE054F5F5F4F9C0167EC72
:101B900075E0CE0101960E94F91ACE0101960E94CD
:101BA0003C1B6093E7057093E8058093E9059093EB
:101BB000EA05CE0101960E94FA188091E7059091FE
:101BC000E805A091E905B091EA0589839A83AB8382
:101BD000BC83CE0101967C0106E51FE0F70161910F
:101BE0007F01C8010E9495010F5F1F4F0A35FFE07A
:101BF0001F07A1F768EF74E09AC060E175E0CE01BD
:101C000001960E946119BE016F5F7F4F87EC95E0DE
:101C10000E94F61A8C01CE0101960E94FA1817FD57
:101C20000FC000E010E060E0C8010E9495010F5F66
:101C30001F4F0C3C8CE01807B1F764E275E077C0E9
:101C40006AE375E0CE0101960E946119BE016F5FE3
:101C50007F4F87EC95E00E94F61A8C01CE01019629
:101C60000E94FA1817FF38C36EE575E0CE010196A1
:101C70000E946119BE016F5F7F4F87EC95E00E9463
:101C8000F61A8C01CE0101960E94FA1817FD49C080
:101C90006CE287EC95E00E94D81A9093EE05809351
:101CA000ED05AC014F5F5F4F6CE287EC95E00E9461
:101CB000BD1A4091ED055091EE054F5F5F4F9C01BD
:101CC00067EC75E0CE0101960E94F91ACE010196EB
:101CD0000E943C1B6B017C01CE0101960E94FA1808
:101CE000C6010E948A1F182F6EE675E081EC95E010
:101CF0000E94B519B60181EC95E00E94701A68E760
:101D000075E081EC95E00E94F519612F81EC95E07A
:101D10000E94171A61EC75E087E796E00E94D517DC
:101D20000AC01092CD051092C0056CE775E087E7F8
:101D300096E00E94E51778948091D9059091DA0594
:101D4000C29709F082C0F8941092DA051092D90572
:101D50008091D605813009F058C061EC75E087E7C5
:101D600096E00E94BD176091E3057091E4058091B3
:101D7000E5059091E60542E3C42ED12CE12CF12C2F
:101D8000A70196010E94991CBA01A9012AE030E03E
:101D900087E796E00E9452186CE287E796E00E947F
:101DA000CB176091DF057091E0058091E10590917E
:101DB000E205A70196010E94991CBA01A9012AE037
:101DC00030E087E796E00E9452186CE287E796E0E1
:101DD0000E94CB176091DB057091DC058091DD05D9
:101DE0009091DE05A70196010E94991CBA01A901F4
:101DF0002AE030E087E796E00E9452186CE287E71D
:101E000096E00E94F5171092C0051092E30510921B
:101E1000E4051092E5051092E6051092DF05109298
:101E2000E0051092E1051092E2051092DB05109298
:101E3000DC051092DD051092DE058091D6058F3FFE
:101E400019F08F5F8093D60578948091D505813005
:101E5000D1F5F89461EC75E087E796E00E94BD1734
:101E600081E00E9416024AE050E0BC0187E796E05C
:101E70000E94A5186CE287E796E00E94CB1782E0EB
:101E80000E9416024AE050E0BC0187E796E00E94FB
:101E9000A5186CE287E796E00E94CB1783E00E94CA
:101EA00016024AE050E0BC0187E796E00E94A518C0
:101EB0006CE287E796E00E94F51783E08093D505F2
:101EC0001092C00578948091D405813009F03DC00E
:101ED000F8948AE10E94390261EC75E087E796E0A8
:101EE0000E94BD1781E00E9416024AE050E0BC014A
:101EF00087E796E00E94A5186CE287E796E00E94CB
:101F0000CB1782E00E9416024AE050E0BC0187E74E
:101F100096E00E94A5186CE287E796E00E94CB1736
:101F200083E00E9416024AE050E0BC0187E796E099
:101F30000E94A5186CE287E796E00E94F51783E0FF
:101F40008093D4051092C00578948091D10581309A
:101F500009F06CC0F8948AE10E94390281E00E9485
:101F60001602A0E0B0E08093E3059093E405A0930F
:101F7000E505B093E60582E00E941602A0E0B0E01D
:101F80008093DF059093E005A093E105B093E2050F
:101F900083E00E941602A0E0B0E08093DB059093FE
:101FA000DC05A093DD05B093DE0561EC75E087E705
:101FB00096E0E3D74091E3055091E4056091E50593
:101FC0007091E6052AE030E087E796E00E9452181B
:101FD0006CE287E796E0DFD74091DF055091E0059E
:101FE0006091E1057091E2052AE030E087E796E034
:101FF0000E9452186CE287E796E0CDD74091DF054A
:102000005091E0056091E1057091E2052AE030E031
:1020100087E796E00E9452186CE287E796E0E5D7E2
:1020200083E08093D1051092C00578948091D30508
:10203000813009F039C0F8948AE10E94390261ECDC
:1020400075E087E796E099D784E00E9416024AE09F
:1020500050E0BC0187E796E00E94A5186CE287E794
:1020600096E099D785E00E9416024AE050E0BC0154
:1020700087E796E00E94A5186CE287E796E08BD789
:1020800086E00E9416024AE050E0BC0187E796E035
:102090000E94A5186CE287E796E0A7D783E08093BB
:1020A000D3051092C00578948091D005813009F055
:1020B00069C0F8948AE10E94390284E00E94160205
:1020C000A0E0B0E08093E3059093E405A093E505DC
:1020D000B093E60585E00E941602A0E0B0E0809390
:1020E000DF059093E005A093E105B093E20586E05B
:1020F0000E941602A0E0B0E08093DB059093DC051F
:10210000A093DD05B093DE0561EC75E087E796E00E
:1021100034D74091E3055091E4056091E505709155
:10212000E6052AE030E087E796E0BCD76CE287E777
:1021300096E031D74091DF055091E0056091E105CF
:102140007091E2052AE030E087E796E0ABD76CE2D9
:1021500087E796E020D74091DF055091E005609138
:10216000E1057091E2052AE030E087E796E09AD732
:102170006CE287E796E039D783E08093D005109230
:10218000C00578948091D205813009F036C0F8946A
:102190008AE10E94390261EC75E087E796E0EDD6AE
:1021A00087E00E9416024AE050E0BC0187E796E013
:1021B000CCD76CE287E796E0EED688E00E94160264
:1021C0004AE050E0BC0187E796E0BFD76CE287E7C2
:1021D00096E0E1D689E00E9416024AE050E0BC0198
:1021E00087E796E0B2D76CE287E796E0FED683E019
:1021F0008093D2051092C00578948091CF058130EC
:1022000009F079C0F8948AE10E94390287E00E94BF
:102210001602A0E0B0E08093E3059093E405A0935C
:10222000E505B093E60588E00E941602A0E0B0E064
:102230008093DF059093E005A093E105B093E2055C
:1022400089E00E941602A0E0B0E08093DB05909345
:10225000DC05A093DD05B093DE0561EC75E087E752
:1022600096E08BD64091E3055091E4056091E50539
:102270007091E6052AE030E087E796E013D76CE23C
:1022800087E796E088D64091DF055091E0056091A0
:10229000E1057091E2052AE030E087E796E002D799
:1022A0006CE287E796E077D64091DF055091E00534
:1022B0006091E1057091E2052AE030E087E796E061
:1022C000F1D66CE287E796E090D683E08093CF0565
:1022D0001092C00578940FC000E010E060E0C801E3
:1022E0000E9495010F5F1F4F011590E11907B1F78B
:1022F0006BE475E01CCD62960FB6F894DEBF0FBE9E
:10230000CDBFDF91CF911F910F91FF90EF90DF90A4
:10231000CF900895CF93CFB7F89480916D06811137
:1023200023C0E7EDF1E08491E1E9F1E09491E82F39
:10233000F0E0EE0FFF1FEE5FFD4FA591B4918C9181
:10234000892319F461E085E38BD361E085E34FD302
:102350008CB580618CBD8CB580648CBD61E084E3FC
:1023600046D361E083E343D380916D068F5F809312
:102370006D06CFBFCF9108950895883008F06DC0E5
:10238000E82FF0E0EE0FFF1FEA5FFD4F71836083DF
:1023900090E0FC013197E730F10590F5EE58FF4FE2
:1023A0000C94B51C809169008C7F842B809369000C
:1023B000E89A089580916900440F551F440F551FF6
:1023C000837F842B80936900E99A08958091690046
:1023D00074E0440F551F7A95E1F78F7C842B80932E
:1023E0006900EA9A08958091690066E0440F551FDC
:1023F0006A95E1F78F73842B80936900EB9A0895B7
:1024000080916A008C7F842B80936A00EC9A0895F7
:1024100080916A00440F551F440F551F837F842B02
:1024200080936A00ED9A089580916A0024E0440F39
:10243000551F2A95E1F78F7C842B80936A00EE9AD2
:10244000089580916A0096E0440F551F9A95E1F730
:102450008F73842B80936A00EF9A08951F920F92D6
:102460000FB60F9211240BB60F922F933F934F93F9
:102470005F936F937F938F939F93AF93BF93EF93EC
:10248000FF93E0910A02F0910B021995FF91EF91F1
:10249000BF91AF919F918F917F916F915F914F917C
:1024A0003F912F910F900BBE0F900FBE0F901F907A
:1024B00018951F920F920FB60F9211240BB60F9220
:1024C0002F933F934F935F936F937F938F939F933C
:1024D000AF93BF93EF93FF93E0910C02F0910D0245
:1024E0001995FF91EF91BF91AF919F918F917F913E
:1024F0006F915F914F913F912F910F900BBE0F9075
:102500000FBE0F901F9018951F920F920FB60F924B
:1025100011240BB60F922F933F934F935F936F93BA
:102520007F938F939F93AF93BF93EF93FF93E0912C
:102530000E02F0910F021995FF91EF91BF91AF91AB
:102540009F918F917F916F915F914F913F912F91CB
:102550000F900BBE0F900FBE0F901F9018951F92FB
:102560000F920FB60F9211240BB60F922F933F9339
:102570004F935F936F937F938F939F93AF93BF938B
:10258000EF93FF93E0911002F09111021995FF91E2
:10259000EF91BF91AF919F918F917F916F915F91DB
:1025A0004F913F912F910F900BBE0F900FBE0F9048
:1025B0001F9018951F920F920FB60F9211240BB611
:1025C0000F922F933F934F935F936F937F938F93CC
:1025D0009F93AF93BF93EF93FF93E0910602F09127
:1025E00007021995FF91EF91BF91AF919F918F9144
:1025F0007F916F915F914F913F912F910F900BBE03
:102600000F900FBE0F901F9018951F920F920FB64C
:102610000F9211240BB60F922F933F934F935F931A
:102620006F937F938F939F93AF93BF93EF93FF939A
:10263000E0910802F09109021995FF91EF91BF9185
:10264000AF919F918F917F916F915F914F913F914A
:102650002F910F900BBE0F900FBE0F901F901895EB
:102660001F920F920FB60F9211240BB60F922F9359
:102670003F934F935F936F937F938F939F93AF930A
:10268000BF93EF93FF93E0911202F091130219951B
:10269000FF91EF91BF91AF919F918F917F916F913A
:1026A0005F914F913F912F910F900BBE0F900FBEF6
:1026B0000F901F9018951F920F920FB60F92112432
:1026C0000BB60F922F933F934F935F936F937F932C
:1026D0008F939F93AF93BF93EF93FF93E091140277
:1026E000F09115021995FF91EF91BF91AF919F91D4
:1026F0008F917F916F915F914F913F912F910F90AB
:102700000BBE0F900FBE0F901F9018951F920F9247
:102710000FB60F9211242F933F938F939F93AF93F4
:10272000BF9380916F0690917006A0917106B09151
:10273000720630916E0623E0230F2D3720F40196A8
:10274000A11DB11D05C026E8230F0296A11DB11DD4
:1027500020936E0680936F0690937006A093710687
:10276000B09372068091730690917406A0917506DD
:10277000B09176060196A11DB11D809373069093CA
:102780007406A0937506B0937606BF91AF919F91A2
:102790008F913F912F910F900FBE0F901F90189522
:1027A0002FB7F89460916F06709170068091710652
:1027B000909172062FBF08953FB7F89480917306E9
:1027C00090917406A0917506B091760626B5A89BE7
:1027D00005C02F3F19F00196A11DB11D3FBF66270F
:1027E000782F892F9A2F620F711D811D911D42E054
:1027F000660F771F881F991F4A95D1F708958F920A
:102800009F92AF92BF92CF92DF92EF92FF926B01B5
:102810007C01D2DF4B015C01C114D104E104F1045D
:10282000E1F04BD7C9DF681979098A099B09683E2D
:1028300073408105910580F321E0C21AD108E108B7
:10284000F10888EE880E83E0981EA11CB11CC1140B
:10285000D104E104F10431F7DFCFFF90EF90DF9076
:10286000CF90BF90AF909F908F9008958230910548
:1028700038F0880F991F880F991F05970197F1F776
:102880000895789484B5826084BD84B5816084BDE8
:1028900085B5826085BD85B5816085BDEEE6F0E0D9
:1028A000808181608083E1E8F0E010828081826035
:1028B0008083808181608083E0E8F0E080818160B6
:1028C0008083E1EBF0E0808184608083E0EBF0E0E6
:1028D000808181608083E1E9F0E080818260808393
:1028E000808181608083E0E9F0E080818160808385
:1028F000E1EAF0E080818260808380818160808372
:10290000E0EAF0E0808181608083E1E2F1E08081B3
:1029100082608083808181608083E0E2F1E0808159
:1029200081608083EAE7F0E0808184608083808139
:1029300082608083808181608083808180688083E1
:102940001092C100089590E0FC013197E231F10549
:1029500008F04CC0E758FF4F0C94B51C80918000E4
:102960008F7703C0809180008F7D809380000895D1
:1029700080918000877FF9CF84B58F7702C084B5BE
:102980008F7D84BD08958091B0008F7703C08091C2
:10299000B0008F7D8093B0000895809190008F7774
:1029A00007C0809190008F7D03C080919000877F49
:1029B0008093900008958091A0008F7707C0809148
:1029C000A0008F7D03C08091A000877F8093A0002E
:1029D0000895809120018F7707C0809120018F7D1D
:1029E00003C080912001877F809320010895CF93B9
:1029F000DF9390E0FC01E45AFE4F2491FC01EE5578
:102A0000FE4F8491882349F190E0880F991FFC01C3
:102A1000EE5FFD4FA591B49188519E4FFC01C59189
:102A2000D4919FB7611108C0F8948C9120958223AE
:102A30008C93888182230AC0623051F4F8948C917F
:102A4000322F309583238C938881822B888304C016
:102A5000F8948C91822B8C939FBFDF91CF91089536
:102A60000F931F93CF93DF931F92CDB7DEB7282F1D
:102A700030E0F901EA5EFE4F8491F901E45AFE4F1D
:102A80001491F901EE55FE4F04910023C1F0882303
:102A900019F0698358DF6981E02FF0E0EE0FFF1F26
:102AA000E851FE4FA591B4919FB7F8948C916111B4
:102AB00003C01095812301C0812B8C939FBF0F9081
:102AC000DF91CF911F910F910895FC01818D228D8F
:102AD00090E0805C9F4F821B91098F739927089526
:102AE000FC01918D828D981731F0828DE80FF11DD8
:102AF000858D90E008958FEF9FEF0895FC01918DF3
:102B0000828D981761F0828DDF01A80FB11D5D964F
:102B10008C91928D9F5F9F73928F90E008958FEFBD
:102B20009FEF089583E397E1892B39F080E090E0EF
:102B3000892B19F098D1811125C080E090E0892B74
:102B400041F080E090E0892B21F00E94000081118B
:102B50001CC080E090E0892B41F080E090E0892B60
:102B600021F00E940000811113C080E090E0892BC9
:102B7000A1F080E090E0892B81F00E94000081119B
:102B80000AC008950E940000D8CF0E940000E1CF43
:102B90000E940000EACF0C9400000895FC01848D8F
:102BA000DF01A80FB11DA35ABF4F2C91848D90E077
:102BB00001968F739927848FA689B7892C93A08952
:102BC000B1898C9180648C93938D848D981306C009
:102BD0000288F389E02D80818F7D80830895CF93D3
:102BE000DF93EC01888D8823C1F0EA89FB8980811D
:102BF00085FD05C0A889B9898C9186FD0EC00FB6E8
:102C000007FCF5CF808185FFF2CFA889B9898C9127
:102C100085FFEDCFCE01C2DFE8CFDF91CF910895E0
:102C2000CF92DF92FF920F931F93CF93DF931F9268
:102C3000CDB7DEB76C0181E0D60158968C935897DA
:102C40005B969C915B975C968C915C97981307C000
:102C50005096ED91FC915197808185FD2DC0F60134
:102C6000038D10E00F5F1F4F0F731127F02EF60139
:102C7000848DF81210C00FB607FCF9CFD60150961C
:102C8000ED91FC915197808185FFF1CFC601698359
:102C900085DF6981ECCF838DE80FF11DE35AFF4F8B
:102CA0006083D6015B960C935B975296ED91FC91F5
:102CB0005397808180620CC0D6015696ED91FC91AD
:102CC000579760835096ED91FC9151978081806475
:102CD000808381E090E00F90DF91CF911F910F9161
:102CE000FF90DF90CF900895BF92CF92DF92EF9246
:102CF000FF92CF93DF93EC016A017B01B22EE8894A
:102D0000F98982E08083411581EE580761057105DC
:102D100099F060E079E08DE390E0A7019601E7D5B6
:102D20002150310941095109569547953795279505
:102D3000211580E1380790F0E889F989108260E870
:102D400074E88EE190E0A7019601D1D521503109B8
:102D5000410951095695479537952795EC85FD858D
:102D60003083EE85FF852083188EEC89FD89B08243
:102D7000EA89FB89808180618083EA89FB8980817F
:102D800088608083EA89FB89808180688083EA8902
:102D9000FB8980818F7D8083DF91CF91FF90EF90C1
:102DA000DF90CF90BF9008951F920F920FB60F92B1
:102DB00011240BB60F922F938F939F93EF93FF9352
:102DC000E0918706F09188068081E0918D06F09170
:102DD0008E0682FD12C09081809190068F5F8F7366
:102DE00020919106821751F0E0919006F0E0E958A9
:102DF000F94F958F8093900601C08081FF91EF91EC
:102E00009F918F912F910F900BBE0F900FBE0F903F
:102E10001F9018951F920F920FB60F9211240BB6A8
:102E20000F922F933F934F935F936F937F938F9363
:102E30009F93AF93BF93EF93FF9387E796E0AEDE48
:102E4000FF91EF91BF91AF919F918F917F916F9182
:102E50005F914F913F912F910F900BBE0F900FBE3E
:102E60000F901F90189587E796E02FDE21E0892BC1
:102E700009F420E0822F089510927A0610927906C4
:102E800088EE93E0A0E0B0E080937B0690937C0610
:102E9000A0937D06B0937E068DE895E0909378062A
:102EA0008093770685EC90E0909384068093830668
:102EB00084EC90E0909386068093850680EC90E009
:102EC000909388068093870681EC90E090938A0621
:102ED0008093890682EC90E090938C0680938B0619
:102EE00086EC90E090938E0680938D06109290066B
:102EF0001092910610929206109293060895CF9226
:102F0000DF92EF92FF920F931F93CF93DF937C0199
:102F10006A01EB0100E010E00C151D0571F06991EC
:102F2000D701ED91FC910190F081E02DC701199539
:102F3000892B19F00F5F1F4FEFCFC801DF91CF91A1
:102F40001F910F91FF90EF90DF90CF900895611542
:102F5000710581F0DB010D900020E9F7AD014150D2
:102F60005109461B570BDC01ED91FC910280F38166
:102F7000E02D199480E090E00895DC01ED91FC9142
:102F8000DB0114964D915C9115976D917C910280B7
:102F9000F381E02D1994DC01ED91FC910190F08119
:102FA000E02D199469E975E0D2CF0F931F93CF9369
:102FB000DF93EC01E2DF8C01CE01F4DF800F911F83
:102FC000DF91CF911F910F9108950F931F93CF938E
:102FD000DF93EC01BCDF8C01CE01E4DF800F911F99
:102FE000DF91CF911F910F9108950F931F93CF936E
:102FF000DF93EC01D0DF8C01CE01D4DF800F911F75
:10300000DF91CF911F910F9108958F929F92AF9270
:10301000BF92DF92EF92FF920F931F93CF93DF93B4
:10302000CDB7DEB7A1970FB6F894DEBF0FBECDBF08
:103030007C01F42FD52ECB0119A2223008F42AE00E
:103040008E010F5D1F4F822E912CA12CB12C6F2F62
:103050007D2DA50194014BD4F22FD32ECA0101502E
:1030600011096A3014F4E0E301C0E7E3E60FD80188
:10307000EC93232B242B252B51F7B801C70167DFD5
:10308000A1960FB6F894DEBF0FBECDBFDF91CF91F2
:103090001F910F91FF90EF90DF90BF90AF909F90A6
:1030A0008F900895CF92DF92EF92FF920F931F932C
:1030B000CF93DF93EC016A017B012115310579F48F
:1030C000E881F9810190F081E02D642FDF91CF91AB
:1030D0001F910F91FF90EF90DF90CF9019942A30BD
:1030E0003105D9F477FF18C06DE255DF8C01442714
:1030F0005527BA014C195D096E097F092AE0CE01F6
:1031000084DF800F911FDF91CF911F910F91FF906E
:10311000EF90DF90CF9008952AE0B701A601CE018D
:10312000DF91CF911F910F91FF90EF90DF90CF90A3
:103130006CCF2115310541F4DC01ED91FC9101903A
:10314000F081E02D642F199460CF9A01AB0160E00B
:1031500070E0EFCF0F931F93CF93DF93EC0120DB51
:10316000688779878A879B87E881F9810680F7815C
:10317000E02DCE01199597FF14C012DB0885198543
:103180002A853B85601B710B820B930B0C811D8183
:103190002E813F81601771078207930728F38FEF15
:1031A0009FEFDF91CF911F910F910895EF92FF92C2
:1031B0000F931F93CF93DF93EC018B01E42E6BE908
:1031C00075E07FD0C801C6DFFF24E7FCF09497FDCF
:1031D00009C08E159F0531F0682FCE0115D1C801A9
:1031E000B9DFF5CFCE01DF91CF911F910F91FF9005
:1031F000EF900895FC018081918172C4CF93DF9399
:10320000EC0188819981009709F06AD419821882AB
:103210001D821C821B821A82DF91CF9108950F9329
:103220001F93CF93DF93EC018B016F5F7F4F8881FA
:103230009981E5D4009731F0998388831B830A83B1
:1032400081E001C080E0DF91CF911F910F9108953F
:10325000CF93DF93EC0188819981892B29F08A81B2
:103260009B818617970758F4CE01D9DF882341F058
:103270008C819D81892B19F4E881F981108281E08C
:10328000DF91CF910895EF92FF920F931F93CF9309
:10329000DF93EC017B018A01BA01DADF811103C0FF
:1032A000CE01ACDF06C01D830C83B70188819981F4
:1032B000D8D5CE01DF91CF911F910F91FF90EF9064
:1032C0000895FC01118210821382128215821482E9
:1032D0006115710551F0FB0101900020E9F7AF0184
:1032E00041505109461B570BCECF08950F931F93A2
:1032F000CF93DF938C01EB01FC01808191810097DA
:1033000089F0428153812C813D814217530748F057
:1033100068817981A6D58C819D81F801958384830C
:1033200012C0DED388819981F801918380838A81DC
:103330009B81938382838C819D8195838483198271
:1033400018821B821A821D821C82DF91CF911F91ED
:103350000F910895CF93DF93EC018617970709F03B
:10336000C5DFCE01DF91CF910895CF93DF93EC01BC
:103370006115710559F0FB0101900020E9F7AF01DB
:1033800041505109461B570B7EDF01C037DFCE018C
:10339000DF91CF910895EF92FF920F931F93CF93F8
:1033A000DF93EC017B010C811D816115710511F426
:1033B00080E014C04115510581F0040F151FB801BC
:1033C00047DF8823A9F3288139818C819D81B7014A
:1033D000820F931F46D51D830C8381E0DF91CF912F
:1033E0001F910F91FF90EF9008956115710551F0B5
:1033F000FB0101900020E9F7AF0141505109461B44
:10340000570BC9CF80E00895CF93DF931F921F928F
:10341000CDB7DEB769831A8241E050E0BE016F5F2D
:103420007F4FB9DF0F900F90DF91CF910895EF920A
:10343000FF920F931F93CF93DF9300D01F92CDB7CE
:10344000DEB77C01862F4AE08E010F5F1F4FB80167
:1034500090E028D5F80101900020E9F7AF01415034
:103460005109401B510BB801C70195DF0F900F9018
:103470000F900F90DF91CF911F910F91FF90EF90E0
:103480000895EF92FF920F931F93CF93DF93CDB7E1
:10349000DEB728970FB6F894DEBF0FBECDBF7C0114
:1034A000CB014AE08E010F5F1F4FB801FBD4F8013A
:1034B00001900020E9F7AF0141505109401B510B29
:1034C000B801C70168DF28960FB6F894DEBF0FBEBB
:1034D000CDBFDF91CF911F910F91FF90EF90089595
:1034E000EF92FF920F931F93CF93DF93CDB7DEB789
:1034F00027970FB6F894DEBF0FBECDBF7C01CB017E
:103500004AE08E010F5F1F4FB801EBD4F801019024
:103510000020E9F7AF0141505109401B510BB801A0
:10352000C70139DF27960FB6F894DEBF0FBECDBFB7
:10353000DF91CF911F910F91FF90EF900895FC01C3
:1035400024813581232B31F421E06115710599F037
:10355000FB0108C0FC01808191816115710531F486
:1035600021E0FC018081882331F004C071D421E086
:10357000892B09F020E0822F0895CF93DF93FC017F
:10358000848195814817590770F4C081D1817727CC
:1035900067FD7095CE01840F951F4FD4009719F0E9
:1035A0008C1B9D0B02C08FEF9FEFDF91CF91089591
:1035B00040E050E0E2CFCF93DF93FC01848195811E
:1035C0004817590770F4C081D181FB016081718176
:1035D000CE01840F951F4CD4009719F08C1B9D0BC6
:1035E00002C08FEF9FEFDF91CF91089540E050E050
:1035F000E2CFBF92CF92DF92EF92FF920F931F9391
:10360000CF93DF936C017B01EA0189012417350711
:1036100020F48D2FE901042F182F6BE975E0C60106
:1036200050DED70114968D919C911597C817D90734
:10363000C0F48017910708F48C01D701ED91FC913B
:103640001197E00FF11FB08010826D917C916C0F8B
:103650007D1FC6018ADED701ED91FC91E00FF11FBD
:10366000B082C601DF91CF911F910F91FF90EF9033
:10367000DF90CF90BF900895FC01808191810097E9
:1036800009F0A4C360E070E0CB010895FC018081E3
:103690009181009709F097C360E070E0CB01089535
:1036A0000895EFD8FDDF0E94EF04C2E9D5E10E9442
:1036B000B4072097E1F336DAFACF089540D008F442
:1036C00081E00895E89409C097FB3EF490958095B9
:1036D000709561957F4F8F4F9F4F9923A9F0F92FD8
:1036E00096E9BB279395F695879577956795B79556
:1036F000F111F8CFFAF4BB0F11F460FF1BC06F5F3C
:103700007F4F8F4F9F4F16C0882311F096E911C04D
:10371000772321F09EE8872F762F05C0662371F06E
:1037200096E8862F70E060E02AF09A95660F771F82
:10373000881FDAF7880F9695879597F90895990F5E
:103740000008550FAA0BE0E8FEEF16161706E8076B
:10375000F907C0F012161306E407F50798F0621B8C
:10376000730B840B950B39F40A2661F0232B242B61
:10377000252B21F408950A2609F4A140A6958FEF80
:10378000811D811D089597F99F6780E870E060E0D2
:1037900008959FEF80EC089500240A9416161706EA
:1037A00018060906089500240A9412161306140632
:1037B00005060895092E0394000C11F4882352F095
:1037C000BB0F40F4BF2B11F460FF04C06F5F7F4F4D
:1037D0008F4F9F4F089557FD9058440F551F59F034
:1037E0005F3F71F04795880F97FB991F61F09F3FEE
:1037F00079F087950895121613061406551FF2CF17
:103800004695F1DF08C0161617061806991FF1CF66
:1038100086957105610508940895E894BB2766278D
:103820007727CB0197F908950BD0C4CFB5DF28F0E7
:10383000BADF18F0952309F0A6CFABCF1124EECF55
:10384000CADFA0F3959FD1F3950F50E0551F629FFB
:10385000F001729FBB27F00DB11D639FAA27F00DE9
:10386000B11DAA1F649F6627B00DA11D661F829F10
:103870002227B00DA11D621F739FB00DA11D621FF5
:10388000839FA00D611D221F749F3327A00D611D12
:10389000231F849F600D211D822F762F6A2F1124F4
:1038A0009F5750408AF0E1F088234AF0EE0FFF1F47
:1038B000BB1F661F771F881F91505040A9F79E3F7E
:1038C000510570F060CFAACF5F3FECF3983EDCF378
:1038D000869577956795B795F795E7959F5FC1F7BB
:1038E000FE2B880F911D9695879597F90895A1E273
:1038F0001A2EAA1BBB1BFD010DC0AA1FBB1FEE1F6A
:10390000FF1FA217B307E407F50720F0A21BB30BB4
:10391000E40BF50B661F771F881F991F1A9469F730
:1039200060957095809590959B01AC01BD01CF018C
:103930000895052E97FB16F400940FD057FD05D07F
:10394000D6DF07FC02D046F408C05095409530956C
:1039500021953F4F4F4F5F4F0895909580957095FB
:1039600061957F4F8F4F9F4F0895EE0FFF1F05907A
:10397000F491E02D19940DD0A59F900DB49F900D5A
:10398000A49F800D911D112408950790F691E02DBC
:103990001994A29FB001B39FC001A39F700D811D18
:1039A0001124911DB29F700D811D1124911D089548
:1039B000CF93DF938230910510F482E090E0E091A4
:1039C0001607F091170720E030E0A0E0B0E0309754
:1039D00039F14081518148175907B8F04817590704
:1039E00071F482819381109729F013969C938E93A2
:1039F00012972CC0909317078093160727C02115A4
:103A0000310531F04217530718F0A901DB0101C05D
:103A1000EF019A01BD01DF010280F381E02DD7CFD4
:103A200021153105F9F0281B390B2430310580F4BC
:103A30008A819B816115710521F0FB01938382834B
:103A400004C09093170780931607FE01329644C076
:103A5000FE01E20FF31F81939193225031093983C4
:103A600028833AC02091140730911507232B41F485
:103A7000209102023091030230931507209314071E
:103A800020910002309101022115310541F42DB73A
:103A90003EB74091040250910502241B350BE09182
:103AA0001407F0911507E217F307A0F42E1B3F0B44
:103AB0002817390778F0AC014E5F5F4F24173507A0
:103AC00048F04E0F5F1F50931507409314078193E2
:103AD000919302C0E0E0F0E0CF01DF91CF91089533
:103AE000CF93DF93009709F487C0FC0132971382CC
:103AF0001282C0911607D0911707209781F4208178
:103B00003181280F391F8091140790911507821772
:103B1000930779F5F0931507E09314076DC0DE0164
:103B200020E030E0AE17BF0750F412964D915C9143
:103B300013979D014115510509F1DA01F3CFB383C4
:103B4000A28340815181840F951F8A179B0771F4CE
:103B50008D919C911197840F951F0296918380837C
:103B600012968D919C911397938382832115310531
:103B700029F4F0931707E09316073EC0D901139676
:103B8000FC93EE9312974D915D91A40FB51FEA1728
:103B9000FB0779F480819181840F951F0296D901EA
:103BA00011969C938E938281938113969C938E930E
:103BB0001297E0E0F0E08A819B81009719F0FE0106
:103BC000EC01F9CFCE01029628813981820F931F33
:103BD00020911407309115072817390769F4309799
:103BE00029F4109217071092160702C0138212824E
:103BF000D0931507C0931407DF91CF9108956F926A
:103C00007F928F929F92AF92BF92CF92DF92EF926C
:103C1000FF920F931F93CF93DF93EC01CB0120977B
:103C200079F4DF91CF911F910F91FF90EF90DF908A
:103C3000CF90BF90AF909F908F907F906F90B8CEB5
:103C4000FE01E60FF71F9E0122503109E217F3072C
:103C500008F4A8C0D9010D911C91119706171707F8
:103C6000B0F00530110508F49BC0A801445051097B
:103C70004617570708F494C002501109061B170B8A
:103C8000019311936D937C93CF012ADF89C05B016F
:103C9000A01AB10A4E01800E911EA0911607B09194
:103CA0001707612C712C60E070E0109709F449C08F
:103CB000A815B905C9F5ED90FC901197670142E090
:103CC000C40ED11CCA14DB0478F147018A189B0882
:103CD000640142E0C40ED11C1296BC901297139658
:103CE000AC91B5E0CB16D10440F0B282A3839182AF
:103CF0008082D9018D939C9309C00E5F1F4F0E0DDA
:103D00001F1DF90111830083EB2DFA2F6115710539
:103D100031F0DB011396FC93EE93129741C0F093C0
:103D20001707E09316073CC06D917C9111976616BA
:103D3000770608F43B01BD0112960D90BC91A02DB1
:103D4000B4CF609114077091150768157905E9F4EF
:103D500068167906D0F44091000250910102411595
:103D6000510541F44DB75EB76091040270910502B0
:103D7000461B570BE417F507A8F4F0931507E093DB
:103D80001407F901918380830BC012DE7C01009738
:103D900049F0A801BE0148D0CE01A2DEC70104C08F
:103DA000CE0102C080E090E0DF91CF911F910F9192
:103DB000FF90EF90DF90CF90BF90AF909F908F904B
:103DC0007F906F90089566277727BAC01F93FC01F4
:103DD00099278827BC01E89411911032E9F3193032
:103DE00010F01E30C8F31B3249F01D3241F46894C4
:103DF00005C062D0610F711D811D911D119110537D
:103E00001A30B8F33EF490958095709561957F4F88
:103E10008F4F9F4F1F9108959111FAC1803219F071
:103E200089508550D0F70895FB01DC0102C0019054
:103E30000D9241505040D8F70895FC0181918617AA
:103E400021F08823D9F7992708953197CF01089554
:103E5000FB01DC018D91019080190110D9F3990BC0
:103E60000895FB01DC0101900D920020E1F7089517
:103E7000FB0151915523A9F0BF01DC014D9145177C
:103E80004111E1F759F4CD010190002049F04D9125
:103E900040154111C9F3FB014111EFCF81E090E0E2
:103EA00001970895BB274A3031F4992322F4BDE2EB
:103EB000909581959F4F16C0592F482F372F262F49
:103EC000660F771F881F991F660F771F881F991F1E
:103ED000620F731F841F951F660F771F881F991F1E
:103EE0000895BB27FB015527AA27880F991FAA1FF2
:103EF000A41710F0A41B83955051B9F7A05DAA3305
:103F000008F0A95DA193009779F7B111B1931192CF
:103F1000CB0199C1F999FECF92BD81BDF89A99273D
:103F200080B50895262FF999FECF1FBA92BD81BDA5
:103F300020BD0FB6F894FA9AF99A0FBE019608952B
:103F40008F929F92AF92BF92CF92DF92EF92FF92A9
:103F50000F931F93CF93DF938B016115710521F0B0
:103F6000DB018C9311969C93EC015E01BFEFAB1AC1
:103F7000BB0A7501C8808C2D90E04EDF892B11F0B3
:103F8000E501F3CFEDE2CE1208C07E01F2E0EF0EC4
:103F9000F11CC980DD24D39409C02BE2C21205C0F4
:103FA0007E0142E0E40EF11CC980D12CE70121978B
:103FB00043E050E064E272E0CE012DD1892BB9F4E8
:103FC000239645E050E06FE172E0CE0124D1892BC9
:103FD00009F425960115110519F0D801CD93DC934C
:103FE000D11000C160E070E080E89FE704C143E0C9
:103FF00050E06CE172E0CE010ED1892B59F401152D
:10400000110509F4F4C0B2E0EB0EF11CF801F182E5
:10401000E082EDC0F70160E070E0CB01C0E0D0E0ED
:104020007F01A0EDAA2EAC0C29E02A1528F14D2D18
:104030004260B42E2D2D2870D2FE04C0211124C060
:10404000219622C021112197A5E0B0E09B01AC018F
:1040500092DC660F771F881F991F6A0D711D811DE5
:10406000911D6839A9E97A078A07A9E19A0760F0E2
:10407000BD2DB660BB2E08C02EEFA2120AC0D3FC25
:1040800050C04D2D4860B42E3196D701CC90DB2C1A
:10409000C7CF2C2D2F7D253409F043C0A081AD3230
:1040A00041F4BD2DB061DB2E7F0122E0E20EF11C58
:1040B0000CC07F01AB3231F04FEFE41AF40A21E07B
:1040C00030E006C0A2E0EA0EF11CA18122E030E05F
:1040D000A053AA3018F0E21AF30A23C0F70120E037
:1040E00030E02038BCE03B075CF4A901440F551FC9
:1040F000440F551F240F351F220F331F2A0F311D68
:10410000AF014F5F5F4F7A01A081A053AA3010F436
:10411000FA01E7CFD4FE03C0319521953109C20FD2
:10412000D31FD1FE09C00115110531F0E1E0EE1AEF
:10413000F108D801ED92FC92C5DA2D2D23702330C1
:1041400019F04B015C0106C04B015C01B7FAB09459
:10415000B7F8B09420E030E0A901C501B401AEDAAF
:10416000882309F43CC0D7FF06C0D195C195D10979
:104170000BE312E002C003E512E06801B8E1CB1ADC
:10418000D10890E2E92EF12CCE15DF056CF0F80194
:104190002591359145915491C501B40145DB4B0101
:1041A0005C01CE19DF09F0CF04501109F594E794B2
:1041B0000C151D0549F78A2D880F8B2D881F8F3F01
:1041C00041F020E030E0A901C501B40177DA8111A6
:1041D00006C082E290E09093190780931807C5010A
:1041E000B40109C060E070E080E89FEF04C060E0C7
:1041F00070E080EC9FE7DF91CF911F910F91FF90CE
:10420000EF90DF90CF90BF90AF909F908F900895E8
:10421000992788270895FB01DC014150504088F020
:104220008D9181341CF08B350CF4805E6591613486
:104230001CF06B350CF4605E861B611171F3990BF9
:104240000895881BFCCFDC01FC01672F7191772357
:10425000E1F7329704C07C916D9370836291AE1741
:10426000BF07C8F3089512E0CCE5D2E000E005C036
:1042700022970109FE010BBF88DBCE35D10780E014
:084280000807B1F7F894FFCF25
:1042880000001A078000BC11BC11BC11BC11BC1184
:10429800BC11BC11BC1153746172742072656164E5
:1042A800696E6720616C6C20726567732023232315
:1042B80023232323232323232323232323200030DF
:1042C8007831373D00307831383D00307831393D2C
:1042D80000307831413D00307831423D003078314E
:1042E800433D00307831443D00307831453D003061
:1042F8007831463D00307832303D00307832313DFB
:1043080000307832323D00307832333D0030783238
:10431800343D00307832353D00307832363D00305B
:104328007832373D00307832383D00307832393DC8
:1043380000307832413D00307832423D00307832EA
:10434800433D00307832443D00307832453D0030FE
:104358007832463D00307833303D00307833313D97
:1043680000307833323D00307833333D00307833D5
:10437800343D00307833353D00307833363D0030F9
:104388007833373D00307833383D00307833393D65
:1043980000307833413D00307833423D0030783387
:1043A800433D00307833443D00307833453D00309C
:1043B8007833463D00307834303D00307834313D34
:1043C80000307834323D00307834333D0030783472
:1043D800343D00307834353D00307834363D003097
:1043E8007834373D00307834383D00307837453DF3
:1043F80000307837463D00435F43414C0049524DF9
:10440800532C00565F43414C0056524D532C0050DC
:10441800685F43414C005741545448522C0057415F
:1044280054542C0052454143544956455F504F5708
:104438004552005641522C004150504552454E5469
:104448005F504F5745520056412C0041505F434141
:104458004C2C005741545448525F4C696E6543795F
:10446800636C655F0052505F43414C2C00564152CB
:1044780048525F4C696E654379636C655F004150D3
:10448800505F454E455247592C00564148525F4CA3
:10449800696E654379636C655F004F4646534554C2
:1044A8005F562C004F46465345545F5620646F6E46
:1044B80065203A004F46465345545F432C004F460B
:1044C800465345545F4320646F6E65203A004F465B
:1044D800465345545F41502C004F46465345545F60
:1044E800415020646F6E65203A004F46465345544C
:1044F8005F52502C004F46465345545F525020643B
:104508006F6E65203A004F46465345545F50682CFD
:10451800004F46465345545F564320646F6E6520EE
:104528003A004F46465345545F454550524F4D005B
:104538004F46465345545F454550524F4D20757080
:104548006461746564004B504152415F4545505267
:104558004F4D004B504152415F454550524F4D2001
:10456800757064617465640044455649434549441F
:104578005F454550524F4D004445564943454944CF
:104588005F454550524F4D207570646174656400F5
:10459800434C4541525F454550524F4D5F454E454E
:1045A80052475900454550524F4D5F454E45524779
:1045B8005920636C656172656400434C4541525FE4
:1045C800454550524F4D5F414C4C00454550524F68
:1045D8004D5F414C4C20636C6561726564005245C7
:1045E80041445F454550524F4D5F41444400566138
:1045F8006C75652061742000203D20004572726F43
:104608007220696E204D5347000000000010167F8D
:104618001765157E157015EF150D0A006E616E0091
:0A462800696E66006F7666002E00D2
:00000001FF
