:1000000074C00000A1C000009FC000009DC000009F
:100010009BC0000099C0000097C0000095C0000080
:1000200093C0000091C000008FC000008DC0000090
:100030008BC0000089C0000087C0000085C00000A0
:1000400083C0000081C000007FC000007DC00000B0
:100050007BC0000079C0000077C0000039C10000FB
:1000600073C00000A4C30000D8C300006DC000002E
:100070006BC0000069C0000067C0000065C00000E0
:1000800063C0000061C000005FC000005DC00000F0
:100090005BC0000059C0000057C0000055C0000000
:1000A00053C0000051C000004FC000004DC0000010
:1000B0004BC0000049C0000047C0000045C0000020
:1000C00043C0000041C000003FC000003DC0000030
:1000D0003BC0000039C0000037C0000035C0000040
:1000E00033C0000025013F042F0111241FBECFEFB4
:1000F000D1E2DEBFCDBF00E00CBF12E0A0E0B2E075
:10010000E6E6F2E100E00BBF02C007900D92AA36CE
:10011000B107D9F723E0AAE6B2E001C01D92A032F0
:10012000B207E1F710E0C8EED0E000E005C022978A
:100130000109FE010BBF1FD6C43ED10780E00807AE
:10014000B1F7ECD50C9422095BCF26E040E052ECED
:1001500061E070E08FE792E0CAC268EE73E080E091
:1001600090E02FD16EE172E08AE692E035D54091C1
:100170001A0250911B0260911C0270911D028AE6C6
:1001800092E07DD56CE28AE692E066D54091160257
:100190005091170260911802709119028AE692E05C
:1001A0006ED56CE28AE692E057D5409112025091EA
:1001B000130260911402709115028AE692E05FD5F5
:1001C0006CE28AE692E048D56AE672E08FE792E058
:1001D000E8C368EE73E080E090E0F3D067E272E09D
:1001E0008AE692E0F9D440910E0250910F0260919C
:1001F0001002709111028AE692E041D56CE28AE623
:1002000092E02AD540910A0250910B0260910C02B3
:1002100070910D028AE692E032D56CE28AE692E0B5
:100220001BD540910602509107026091080270911F
:1002300009028AE692E023D56CE28AE692E00CD5C8
:100240006AE672E08FE792E0ACC36AE572E080E7AD
:1002500092E06ED46AE572E08AE692E069C48AE6CA
:1002600092E0FFD380E792E0FCC3CF93DF9300D00E
:1002700000D0CDB7DEB78FE792E02AD1892BF9F015
:100280004AE06FE772E0CE010196C7D3BE016F5F0F
:100290007F4F80E792E095D4CE010196E2D360E3F0
:1002A00072E080E792E01BD5882311F056DF07C08B
:1002B0006CE372E080E792E012D581118ADF269626
:1002C0000FB6F894DEBF0FBECDBFDF91CF9108957A
:1002D0001F920F920FB60F9211242F933F938F937B
:1002E0009F93AF93BF938091770290917802A091F2
:1002F0007902B0917A023091760223E0230F2D37F4
:1003000020F40196A11DB11D05C026E8230F029619
:10031000A11DB11D209376028093770290937802FD
:10032000A0937902B0937A0280917B0290917C0233
:10033000A0917D02B0917E020196A11DB11D809316
:100340007B0290937C02A0937D02B0937E02BF91CA
:10035000AF919F918F913F912F910F900FBE0F9072
:100360001F9018952FB7F8946091770270917802DA
:100370008091790290917A022FBF08953FB7F89447
:1003800080917B0290917C02A0917D02B0917E02CF
:1003900026B5A89B05C02F3F19F00196A11DB11DE0
:1003A0003FBF6627782F892F9A2F620F711D811DFD
:1003B000911D42E0660F771F881F991F4A95D1F75C
:1003C0000895CF92DF92EF92FF92CF93DF936B016C
:1003D0007C01D4DFEB01C114D104E104F10479F014
:1003E000A7D4CCDF6C1B7D0B683E7340A0F381E08B
:1003F000C81AD108E108F108C851DC4FECCFDF91F1
:10040000CF91FF90EF90DF90CF900895789484B5CE
:10041000826084BD84B5816084BD85B5826085BD00
:1004200085B5816085BDEEE6F0E0808181608083E6
:10043000E1E8F0E0108280818260808380818160C9
:100440008083E0E8F0E0808181608083E1EBF0E090
:10045000808184608083E0EBF0E080818160808334
:10046000E1E9F0E080818260808380818160808327
:10047000E0E9F0E0808181608083E1EAF0E0808162
:1004800082608083808181608083E0EAF0E0808107
:1004900081608083E1E2F1E08081826080838081FD
:1004A00081608083E0E2F1E0808181608083EAE71F
:1004B000F0E080818460808380818260808380819D
:1004C000816080838081806880831092C10008955C
:1004D000FC01818D228D90E0805C9F4F821B9109F1
:1004E0008F7399270895FC01918D828D981731F0B3
:1004F000828DE80FF11D858D90E008958FEF9FEFBD
:100500000895FC01918D828D981761F0828DDF0135
:10051000A80FB11D5D968C91928D9F5F9F73928FF6
:1005200090E008958FEF9FEF089586E394E0892B84
:1005300039F080E090E0892B19F098D1811125C025
:1005400080E090E0892B41F080E090E0892B21F061
:100550000E94000081111CC080E090E0892B41F0D6
:1005600080E090E0892B21F00E940000811113C0EF
:1005700080E090E0892BA1F080E090E0892B81F071
:100580000E94000081110AC008950E940000D8CF87
:100590000E940000E1CF0E940000EACF0C9400000E
:1005A0000895FC01848DDF01A80FB11DA35ABF4F30
:1005B0002C91848D90E001968F739927848FA68962
:1005C000B7892C93A089B1898C9180648C93938D89
:1005D000848D981306C00288F389E02D80818F7D79
:1005E00080830895CF93DF93EC01888D8823C1F039
:1005F000EA89FB89808185FD05C0A889B9898C912C
:1006000086FD0EC00FB607FCF5CF808185FFF2CFC7
:10061000A889B9898C9185FFEDCFCE01C2DFE8CFE3
:10062000DF91CF910895CF92DF92FF920F931F93A6
:10063000CF93DF931F92CDB7DEB76C0181E0D60177
:1006400058968C9358975B969C915B975C968C918F
:100650005C97981307C05096ED91FC91519780815B
:1006600085FD2DC0F601038D10E00F5F1F4F0F7346
:100670001127F02EF601848DF81210C00FB607FC7A
:10068000F9CFD6015096ED91FC915197808185FF6D
:10069000F1CFC601698385DF6981ECCF838DE80FD7
:1006A000F11DE35AFF4F6083D6015B960C935B9775
:1006B0005296ED91FC915397808180620CC0D601D7
:1006C0005696ED91FC91579760835096ED91FC9171
:1006D000519780818064808381E090E00F90DF916A
:1006E000CF911F910F91FF90DF90CF900895BF920F
:1006F000CF92DF92EF92FF92CF93DF93EC016A01EA
:100700007B01B22EE889F98982E08083411581EE70
:1007100058076105710599F060E079E08DE390E09C
:10072000A701960106D32150310941095109569577
:10073000479537952795211580E1380790F0E8898E
:10074000F989108260E874E88EE190E0A7019601D3
:10075000F0D22150310941095109569547953795F5
:100760002795EC85FD853083EE85FF852083188EE7
:10077000EC89FD89B082EA89FB8980818061808370
:10078000EA89FB89808188608083EA89FB8980818E
:1007900080688083EA89FB8980818F7D8083DF91F7
:1007A000CF91FF90EF90DF90CF90BF9008951F9270
:1007B0000F920FB60F9211240BB60F922F938F93B7
:1007C0009F93EF93FF93E0918F02F09190028081CD
:1007D000E0919502F091960282FD12C09081809185
:1007E00098028F5F8F7320919902821751F0E091E8
:1007F0009802F0E0E158FD4F958F8093980201C078
:100800008081FF91EF919F918F912F910F900BBE5F
:100810000F900FBE0F901F9018951F920F920FB65A
:100820000F9211240BB60F922F933F934F935F9328
:100830006F937F938F939F93AF93BF93EF93FF93A8
:100840008FE792E0AEDEFF91EF91BF91AF919F9164
:100850008F917F916F915F914F913F912F910F9069
:100860000BBE0F900FBE0F901F9018958FE792E070
:100870002FDE21E0892B09F420E0822F08951092C9
:1008800082021092810288EE93E0A0E0B0E08093B3
:10089000830290938402A0938502B09386028CE435
:1008A00092E09093800280937F0285EC90E0909399
:1008B0008C0280938B0284EC90E090938E02809364
:1008C0008D0280EC90E09093900280938F0281ECF7
:1008D00090E0909392028093910282EC90E090934A
:1008E00094028093930286EC90E09093960280931A
:1008F0009502109298021092990210929A02109208
:100900009B020895CF92DF92EF92FF920F931F9375
:10091000CF93DF937C016A01EB0100E010E00C153E
:100920001D0571F06991D701ED91FC910190F08165
:10093000E02DC7011995892B19F00F5F1F4FEFCFDD
:10094000C801DF91CF911F910F91FF90EF90DF9041
:10095000CF9008956115710581F0DB010D900020A5
:10096000E9F7AD0141505109461B570BDC01ED91F0
:10097000FC910280F381E02D199480E090E00895CD
:10098000DC01ED91FC91DB0114964D915C91159782
:100990006D917C910280F381E02D199468E572E0FD
:1009A000D9CF0F931F93CF93DF93EC01E9DF8C0135
:1009B000CE01F4DF800F911FDF91CF911F910F9136
:1009C00008950F931F93CF93DF93EC01CBDC6887DF
:1009D00079878A879B87E881F9810680F781E02DF6
:1009E000CE01199597FF14C0BDDC088519852A85AD
:1009F0003B85601B710B820B930B0C811D812E813B
:100A00003F81601771078207930728F38FEF9FEFED
:100A1000DF91CF911F910F910895EF92FF920F9365
:100A20001F93CF93DF93EC018B01E42E6AE572E014
:100A30007FD0C801C6DFFF24E7FCF09497FD09C012
:100A40008E159F0531F0682FCE0106D1C801B9DFA0
:100A5000F5CFCE01DF91CF911F910F91FF90EF90D5
:100A60000895FC018081918122C2CF93DF93EC0134
:100A700088819981009709F01AD2198218821D8203
:100A80001C821B821A82DF91CF9108950F931F93CE
:100A9000CF93DF93EC018B016F5F7F4F888199814A
:100AA00095D2009731F0998388831B830A8381E074
:100AB00001C080E0DF91CF911F910F910895CF93F6
:100AC000DF93EC0188819981892B29F08A819B81B0
:100AD0008617970758F4CE01D9DF882341F08C811F
:100AE0009D81892B19F4E881F981108281E0DF91E1
:100AF000CF910895EF92FF920F931F93CF93DF93BF
:100B0000EC017B018A01BA01DADF811103C0CE0159
:100B1000ACDF06C01D830C83B701888199814CD35B
:100B2000CE01DF91CF911F910F91FF90EF9008952B
:100B3000FC011182108213821282158214826115C7
:100B4000710551F0FB0101900020E9F7AF01415020
:100B50005109461B570BCECF08950F931F93CF9388
:100B6000DF938C01EB01FC0180819181009789F07A
:100B7000428153812C813D814217530748F068819F
:100B800079811AD38C819D81F8019583848312C069
:100B90008ED188819981F801918380838A819B819C
:100BA000938382838C819D819583848319821882AB
:100BB0001B821A821D821C82DF91CF911F910F919F
:100BC0000895CF93DF93EC018617970709F0C5DFEF
:100BD000CE01DF91CF910895CF93DF93EC016115A2
:100BE000710559F0FB0101900020E9F7AF01415078
:100BF0005109461B570B7EDF01C037DFCE01DF9165
:100C0000CF910895EF92FF920F931F93CF93DF93AD
:100C1000EC017B010C811D816115710511F480E0EF
:100C200014C04115510581F0040F151FB80147DFAD
:100C30008823A9F3288139818C819D81B701820F96
:100C4000931FBAD21D830C8381E0DF91CF911F9156
:100C50000F91FF90EF900895CF93DF931F921F9213
:100C6000CDB7DEB769831A8241E050E0BE016F5F05
:100C70007F4FC8DF0F900F90DF91CF910895EF92D3
:100C8000FF920F931F93CF93DF93CDB7DEB72E97CD
:100C90000FB6F894DEBF0FBECDBF7C01CB01BA0109
:100CA0002AE08E010F5F1F4FA8018DD2F80101903D
:100CB0000020E9F7AF0141505109401B510BB80129
:100CC000C701A0DF2E960FB6F894DEBF0FBECDBFD2
:100CD000DF91CF911F910F91FF90EF900895FC014C
:100CE00024813581232B31F421E06115710599F0C0
:100CF000FB0108C0FC01808191816115710531F40F
:100D000021E0FC018081882331F004C04CD221E035
:100D1000892B09F020E0822F0895089577DBFDDF0D
:100D200014DAC5E9D2E0A1DA2097E9F3FEDBFBCFC4
:100D30000895A1E21A2EAA1BBB1BFD010DC0AA1F1C
:100D4000BB1FEE1FFF1FA217B307E407F50720F034
:100D5000A21BB30BE40BF50B661F771F881F991FAF
:100D60001A9469F760957095809590959B01AC01F8
:100D7000BD01CF0108950790F691E02D1994CF930E
:100D8000DF938230910510F482E090E0E0911E0341
:100D9000F0911F0320E030E0A0E0B0E0309739F19F
:100DA0004081518148175907B8F04817590771F425
:100DB00082819381109729F013969C938E931297BA
:100DC0002CC090931F0380931E0327C0211531056B
:100DD00031F04217530718F0A901DB0101C0EF0100
:100DE0009A01BD01DF010280F381E02DD7CF2115EB
:100DF0003105F9F0281B390B2430310580F48A8144
:100E00009B816115710521F0FB019383828304C0EE
:100E100090931F0380931E03FE01329644C0FE018F
:100E2000E20FF31F81939193225031093983288374
:100E30003AC020911C0330911D03232B41F42091D3
:100E400002023091030230931D0320931C03209172
:100E50000002309101022115310541F42DB73EB752
:100E60004091040250910502241B350BE0911C03B4
:100E7000F0911D03E217F307A0F42E1B3F0B281778
:100E8000390778F0AC014E5F5F4F2417350748F003
:100E90004E0F5F1F50931D0340931C03819391934A
:100EA00002C0E0E0F0E0CF01DF91CF910895CF9351
:100EB000DF93009709F487C0FC01329713821282F6
:100EC000C0911E03D0911F03209781F420813181AE
:100ED000280F391F80911C0390911D0382179307DF
:100EE00079F5F0931D03E0931C036DC0DE0120E053
:100EF00030E0AE17BF0750F412964D915C911397F6
:100F00009D014115510509F1DA01F3CFB383A283A5
:100F100040815181840F951F8A179B0771F48D9131
:100F20009C911197840F951F02969183808312964E
:100F30008D919C911397938382832115310529F418
:100F4000F0931F03E0931E033EC0D9011396FC9358
:100F5000EE9312974D915D91A40FB51FEA17FB0711
:100F600079F480819181840F951F0296D9011196A1
:100F70009C938E938281938113969C938E93129768
:100F8000E0E0F0E08A819B81009719F0FE01EC011E
:100F9000F9CFCE01029628813981820F931F2091CB
:100FA0001C0330911D032817390769F4309729F481
:100FB00010921F0310921E0302C013821282D0935C
:100FC0001D03C0931C03DF91CF9108956F927F9210
:100FD0008F929F92AF92BF92CF92DF92EF92FF9249
:100FE0000F931F93CF93DF93EC01CB01209779F4FC
:100FF000DF91CF911F910F91FF90EF90DF90CF90F5
:10100000BF90AF909F908F907F906F90B8CEFE0171
:10101000E60FF71F9E0122503109E217F30708F48B
:10102000A8C0D9010D911C91119706171707B0F0B0
:101030000530110508F49BC0A8014450510946171A
:10104000570708F494C002501109061B170B0193AF
:1010500011936D937C93CF012ADF89C05B01A01AA5
:10106000B10A4E01800E911EA0911E03B0911F0384
:10107000612C712C60E070E0109709F449C0A8154C
:10108000B905C9F5ED90FC901197670142E0C40ED7
:10109000D11CCA14DB0478F147018A189B0864014B
:1010A00042E0C40ED11C1296BC9012971396AC91DC
:1010B000B5E0CB16D10440F0B282A3839182808246
:1010C000D9018D939C9309C00E5F1F4F0E0D1F1DFC
:1010D000F90111830083EB2DFA2F6115710531F0B1
:1010E000DB011396FC93EE93129741C0F0931F031C
:1010F000E0931E033CC06D917C91119766167706B4
:1011000008F43B01BD0112960D90BC91A02DB4CF07
:1011100060911C0370911D0368157905E9F4681648
:101120007906D0F440910002509101024115510519
:1011300041F44DB75EB76091040270910502461B01
:10114000570BE417F507A8F4F0931D03E0931C0375
:10115000F901918380830BC012DE7C01009749F076
:10116000A801BE0117D0CE01A2DEC70104C0CE0186
:1011700002C080E090E0DF91CF911F910F91FF902E
:10118000EF90DF90CF90BF90AF909F908F907F9027
:101190006F900895FB01DC0102C001900D92415057
:1011A0005040D8F70895FB01DC018D910190801922
:1011B0000110D9F3990B0895FB01DC0101900D9208
:1011C0000020E1F70895BB272A3051F4992342F417
:1011D000BDE290958095709561957F4F8F4F9F4FA1
:1011E00001C0BB27FA01A62F621771058105910581
:1011F000330B30FB66F0AA27660F771F881F991FF5
:10120000AA1FA21710F0A21B63953850A9F7A05D82
:10121000AA3308F0A95DA19336F7B111B1931082FA
:10122000CA0100C0DC01FC01672F71917723E1F74F
:10123000329704C07C916D9370836291AE17BF07A3
:10124000C8F3089510E0C8EED0E000E005C0229792
:101250000109FE010BBF8FDDCA3ED10780E0080700
:06126000B1F7F894FFCF86
:101266000000200380003DDD030006E4030069DC86
:101276000300071A00000F1A0000D919000049528E
:101286004D537265672C0056524D537265672C009C
:1012960043555252454E545F43414C00564F4C54B1
:1012A6004147455F43414C000000000013038204A0
:1012B600680281027302F2020D0A006E616E006915
:0A12C6006E66006F7666002E0000D1
:00000001FF
