:10000000ABC100000C94341F0C945F1F0C948A1F2A
:100010000C94B51F0C94E01F0C940B200C9436200C
:100020000C946120CAC10000C8C10000C6C1000014
:10003000C4C10000C2C10000C0C10000BEC10000B8
:10004000BCC10000BAC10000B8C10000B6C10000C8
:10005000B4C10000B2C10000B0C100000C948C20FB
:10006000ACC100000C94DD230C941324A6C1000045
:10007000A4C10000A2C10000A0C100009EC10000F8
:100080009CC100009AC1000098C100000C94D91DC9
:1000900094C1000092C1000090C100008EC1000018
:1000A0008CC100008AC1000088C1000086C1000028
:1000B00084C1000082C1000080C100007EC1000038
:1000C0007CC100007AC1000078C1000076C1000048
:1000D00074C1000072C1000070C100006EC1000058
:1000E0006CC100000E1FD81EE01EEC1EF91E1A1F68
:1000F000271FC321C621B521B921BF21FD21CA2156
:10010000CE21D421D821DC21E221E621EA21FD21E2
:10011000F021F421F82100000A0B02090C0D0E0851
:1001200007030401000000000000000000000000C0
:1001300000000000000000000000000000000000BF
:10014000000012111000000000000000000000007C
:10015000000000000000000000000000010210206C
:1001600020080810204010204080020102010804ED
:100170000201010204081020408080402010080481
:1001800002018004020180402010080402010804DA
:10019000020101020408102040800102040810201E
:1001A0004080050505050705080808080202020247
:1001B0000A0A080804040404010101010101010103
:1001C0000303030303030303040707070C0C0C0CCE
:1001D0000C0C0C0C020202020606060606060606B7
:1001E0000B0B0B0B0B0B0B0B000022002500280048
:1001F0002B002E003100340002010000050108012F
:100200000B0100002100240027002A002D003000EF
:10021000330001010000040107010A014E414E496B
:100220004E495459494E46CDCCCC3D0AD7233C17B4
:10023000B7D13877CC2B329595E6241FB14F0A0001
:100240000020410000C84200401C4620BCBE4CCAF1
:100250001B0E5AAEC59D7400407A10F35A00A0726E
:100260004E18090010A5D4E80000E87648170000F1
:10027000E40B54020000CA9A3B000000E1F50500BF
:100280000080969800000040420F000000A0860108
:10029000000000102700000000E8030000000064D8
:1002A00000000000000A0000000000010000000043
:1002B000002C76D888DC674F0823DFC1DFAE59E118
:1002C000B1B796E5E3E453C63AE651997696E8E687
:1002D000C28426EB898C9B62ED407C6FFCEFBC9C5A
:1002E0009F40F2BAA56FA5F490055A2AF75C936B6C
:1002F0006CF9676DC11BFCE0E40D47FEF520E6B527
:1003000000D0ED902E0300943577050080841E0800
:100310000000204E0A000000C80C333333330F981E
:100320006E12831141EF8D2114893BE65516CFFEE5
:10033000E6DB18D1844B381BF77C1D901DA4BBE471
:1003400024203284725E228100C9F124ECA1E53DB3
:100350002700B80C4524CA0C11241FBECFEFD1E2F0
:10036000DEBFCDBF00E00CBF14E0A0E0B2E0E8EEDD
:10037000F5E600E00BBF02C007900D92AA38B10766
:10038000D9F726E0AAE8B4E001C01D92A23FB20767
:10039000E1F713E0C6E5D3E000E006C022970109CB
:1003A000FE010BBF0E94002CC235D10780E0080778
:1003B000A9F70E9485290C94E33222CE809176051C
:1003C00090917705A0917805B09179050196A11DCE
:1003D000B11D8093760590937705A0937805B0932F
:1003E000790508958091720590917305A091740527
:1003F000B09175050196A11DB11D80937205909372
:100400007305A0937405B093750508958AE894E088
:100410000E94FE2684E895E00E94FE268AE895E088
:100420000C94FE260C94ED2E8EBD00000DB407FE3C
:10043000FDCF8EB508952CB5982F93702C7F922BFD
:100440009CBD9DB582FB882780F99E7F982B9DBD22
:1004500008958CB5837F84608CBD60E08CE10E9440
:10046000372280E0E8DF82E390E00C943D2161E0F8
:100470008CE10E94372282E390E00E943D218CB5FE
:10048000837F8CBD0895CF93DF931F921F92CDB7CA
:10049000DEB76A838983DDDF89818068C5DF6A8191
:1004A000862FC2DF0F900F90DF91CF91E0CF1F9387
:1004B000CF93DF931F921F92CDB7DEB7182F6A83B9
:1004C0007983C7DF82E390E00E943D21812F80681D
:1004D000ABDF82E390E00E943D217981872FA4DF8A
:1004E00082E390E00E943D216A81862F9DDF82E3B6
:1004F00090E00E943D210F900F90DF91CF911F91CE
:10050000B6CF1F93CF93DF9300D0CDB7DEB7182FB0
:100510004B835A8369839DDF82E390E00E943D21F3
:10052000812F806881DF82E390E00E943D21698114
:10053000862F7ADF82E390E00E943D215A81852F49
:1005400073DF82E390E00E943D214B81842F6CDFBA
:1005500082E390E00E943D210F900F900F90DF9179
:10056000CF911F9184CFCF93DF93C82F72DF82E3A7
:1005700090E00E943D218C2F57DF82E390E00E94A3
:100580003D2180E051DFC82F82E390E00E943D21B1
:1005900080E04ADFD82F82E390E00E943D2167DFB0
:1005A0008D2F90E09C2BDF91CF9108950F931F9397
:1005B000CF93182F4EDF82E390E00E943D21812FE0
:1005C00033DF82E390E00E943D2180E02DDF182F91
:1005D00082E390E00E943D2180E026DF082F82E345
:1005E00090E00E943D2180E01FDFC82F82E390E071
:1005F0000E943D213CDF6C2F70E080E090E0812B79
:1006000010E0102F002720E030E0602B712B822BB0
:10061000932BCF911F910F9108950F931F93F894EF
:1006200080918305882309F41AC18AE1BFDF809194
:100630009005813071F58AE0B9DF0091AA0510912B
:10064000AB052091AC053091AD05600F711F821F85
:10065000931F6093AA057093AB058093AC059093AC
:10066000AD058BE0A3DF0091A6051091A7052091B1
:10067000A8053091A905600F711F821F931F609319
:10068000A6057093A7058093A8059093A9058CE013
:1006900032C080919005823009F056C08DE086DF2F
:1006A0000091AA051091AB052091AC053091AD05E4
:1006B000600F711F821F931F6093AA057093AB0593
:1006C0008093AC059093AD058EE070DF0091A60598
:1006D0001091A7052091A8053091A905600F711F01
:1006E000821F931F6093A6057093A7058093A805AA
:1006F0009093A9058FE05ADF0091A2051091A30500
:100700002091A4053091A505600F711F821F931FD2
:100710006093A2057093A3058093A4059093A5050B
:1007200080919E0590919F05A091A005B091A10593
:100730000196A11DB11D80939E0590939F05A093E6
:10074000A005B093A1058BC080919005833079F40A
:100750008DE02CDF672B682B692B09F480C08AE0C1
:1007600025DF672B682B692B09F070C078C080915A
:100770009005843079F48DE019DF672B682B692BA5
:1007800009F46DC08AE012DF672B682B692B09F032
:100790006AC065C080919005853079F48DE006DFF0
:1007A000672B682B692B09F45AC08AE0FFDE672BA0
:1007B000682B692B09F061C052C08091900586308A
:1007C00079F48DE0F3DE672B682B692B09F447C0C1
:1007D0008AE0ECDE672B682B692B09F067C03FC00D
:1007E00080919005873071F48DE0E0DE672B682BF7
:1007F000692BA9F18AE0DADE672B682B692B09F0F7
:100800005FC02DC080919005883071F48DE0CEDE00
:10081000672B682B692B19F18AE0C8DE672B682BE0
:10082000692B09F061C01BC0809190058930B9F433
:100830008DE0BCDE672B682B692B89F08AE0B6DE81
:10084000672B682B692B09F063C009C0809198055C
:100850008F3F19F0809198058F5F80939805789469
:100860001F910F91089580919105811115C080917C
:1008700097058F5F8093970509C08091910581113D
:100880000BC0809196058F5F8093960510929D0511
:1008900010929C0510928305809191058F3F19F06D
:1008A000809191058F5F80939105D9CF80919105BB
:1008B0008111F2CF809195058F5F80939505E6CFEA
:1008C00080919405811106C081E04DDE82E04BDE0F
:1008D00083E049DE809194058F3F19F08091940563
:1008E0008F5F80939405BBCF80919305811106C0E3
:1008F00084E039DE85E037DE86E035DE80919305E1
:100900008F3F19F0809193058F5F80939305A7CF58
:1009100080919205811106C087E025DE88E023DE04
:1009200089E021DE809192058F3F19F08091920538
:100930008F5F8093920593CF64E083E1A4DD88EC20
:1009400090E00E943D216CEF84E19DDD88EC90E019
:100950000E943D2160E085E196DD88EC90E00E94F8
:100960003D216CE986E18FDD88EC90E00E943D211D
:1009700068E787E188DD88EC90E00E943D2140E057
:1009800050E0BA0188E1BDDD88EC90E00E943D2195
:100990006FEF7FEF8BE18BDD88EC90E00E943D21D3
:1009A0006FEF7FEF8CE183DD88EC90E00E943D21CA
:1009B0006FEF8DE168DD88EC90E00E943D2160E002
:1009C0008EE161DD88EC90E00E943D216FEF8FE1C8
:1009D0005ADD88EC90E00E943D216FEF80E253DD0C
:1009E00088EC90E00E943D2160919A0570919B05F2
:1009F0008AE25DDD88EC90E00E943D2160919A05DD
:100A000070919B058BE253DD88EC90E00E943D21C4
:100A100060919A0570919B058CE249DD88EC90E02D
:100A20000E943D2160919A0570919B0580E33FDD16
:100A300088EC90E00E943D2160919A0570919B05A1
:100A400081E335DD88EC90E00E943D2160919A05BC
:100A500070919B0582E32BDD88EC90E00E943D21A4
:100A600060919A0570919B058DE221DD88EC90E004
:100A70000E943D2160919A0570919B058EE217DDE1
:100A800088EC90E00E943D2160919A0570919B0551
:100A90008FE20DDD88EC90E00E943D21109226054A
:100AA00010922705109228051092290510922A0508
:100AB00010922B0510922C0510922D0510922E05E8
:100AC00010922F05109230051092310510921A05E0
:100AD00010921B0510921C0510921D0510921E0508
:100AE00010921F05109220051092210510922205E8
:100AF00010922305109224051092250510923205BC
:100B00001092330510923405109235051092360577
:100B100010923705109238051092390510923A0557
:100B200010923B0510923C0510923D051092AA05CB
:100B30001092AB051092AC051092AD051092A6056F
:100B40001092A7051092A8051092A9051092A2056F
:100B50001092A3051092A4051092A5051092E60428
:100B60001092E7041092E8041092E9041092E20453
:100B70001092E3041092E4041092E5041092DE0453
:100B80001092DF041092E0041092E1041092DA0453
:100B90001092DB041092DC041092DD041092D60453
:100BA0001092D7041092D8041092D9041092D20453
:100BB0001092D3041092D4041092D5041092CE0453
:100BC0001092CF041092D0041092D1041092CA0453
:100BD0001092CB041092CC041092CD041092C60453
:100BE0001092C7041092C8041092C90481E0BBDCC3
:100BF00082E0B9DC83E0B7DC87E0B5DC88E0B3DC19
:100C000089E0B1DC84E0AFDC85E0ADDC86E0ABCC34
:100C1000CF92DF92EF92FF920F931F93DC01FB01C3
:100C2000C080D180E280F380A701772757FD7095BF
:100C3000672F0D911D912D913C911397F7FE14C0D4
:100C40004F5F5F4F6F4F7F4F400F511F621F731FEA
:100C50004D935D936D937C93139780819181A281D5
:100C6000B381AF6FBF6F0FC0400F511F621F731F63
:100C70004D935D936D937C93139780819181A281B5
:100C8000B381AA27BB2780839183A283B3831F915B
:100C90000F91FF90EF90DF90CF9008954091A004C6
:100CA0005091A104662757FD6095762F8091C2046C
:100CB0009091C304A091C404B091C504840F951F02
:100CC000A61FB71F8093C2049093C304A093C404CB
:100CD000B093C50440919E0450919F04662757FD30
:100CE0006095762F8091BE049091BF04A091C004BE
:100CF000B091C104840F951FA61FB71F8093BE0437
:100D00009093BF04A093C004B093C10440919C048D
:100D100050919D04662757FD6095762F8091BA0407
:100D20009091BB04A091BC04B091BD04840F951FA9
:100D3000A61FB71F8093BA049093BB04A093BC0472
:100D4000B093BD0440919A0450919B04662757FDCF
:100D50006095762F8091B6049091B704A091B80465
:100D6000B091B904840F951FA61FB71F8093B604D6
:100D70009093B704A093B804B093B9044091980439
:100D800050919904662757FD6095762F8091B204A3
:100D90009091B304A091B404B091B504840F951F51
:100DA000A61FB71F8093B2049093B304A093B4041A
:100DB000B093B5044091960450919704662757FD6F
:100DC0006095762F8091AE049091AF04A091B0040D
:100DD000B091B104840F951FA61FB71F8093AE0476
:100DE0009093AF04A093B004B093B10440919404E5
:100DF00050919504662757FD6095762F8091AA043F
:100E00009091AB04A091AC04B091AD04840F951FF8
:100E1000A61FB71F8093AA049093AB04A093AC04C1
:100E2000B093AD044091920450919304662757FD0E
:100E30006095762F8091A6049091A704A091A804B4
:100E4000B091A904840F951FA61FB71F8093A60415
:100E50009093A704A093A804B093A9044091900490
:100E600050919104662757FD6095762F8091A204DA
:100E70009091A304A091A404B091A504840F951FA0
:100E8000A61FB71F8093A2049093A304A093A40469
:100E9000B093A50462EC74E086EE94E0B9DE6EEBEC
:100EA00074E082EE94E0B4DE6AEB74E08EED94E0E0
:100EB000AFDE66EB74E08AED94E0AADE62EB74E0EC
:100EC00086ED94E0A5DE6EEA74E082ED94E0A0DEAB
:100ED0006AEA74E08EEC94E09BDE66EA74E08AECE9
:100EE00094E096DE62EA74E086EC94E091DE609134
:100EF000E6047091E7048091E8049091E9040E946F
:100F0000972A609326057093270580932805909370
:100F100029056091E2047091E3048091E4049091CA
:100F2000E5040E94972A60932A0570932B0580930D
:100F30002C0590932D056091DE047091DF04809163
:100F4000E0049091E1040E94972A60932E0570932B
:100F50002F0580933005909331056091DA047091EC
:100F6000DB048091DC049091DD040E94972A609359
:100F70001A0570931B0580931C0590931D056091C5
:100F8000D6047091D7048091D8049091D9040E941E
:100F9000972A60931E0570931F05809320059093F8
:100FA00021056091D2047091D3048091D404909172
:100FB000D5040E94972A609322057093230580939D
:100FC0002405909325056091CE047091CF04809103
:100FD000D0049091D1040E94972A609332057093B7
:100FE000330580933405909335056091CA04709160
:100FF000CB048091CC049091CD040E94972A6093F9
:1010000036057093370580933805909339056091C4
:10101000C6047091C7048091C8049091C9040E94CD
:10102000972A60933A0570933B0580933C05909313
:101030003D05089581E097DA9093A1048093A00480
:1010400082E091DA90939F0480939E0483E08BDA90
:1010500090939D0480939C0484E085DA90939B0494
:1010600080939A0485E07FDA9093990480939804A2
:1010700086E079DA909397048093960487E073DA98
:10108000909395048093940488E06DDA9093930490
:101090008093920489E067DA90939104809390049E
:1010A000FDCD80917F058111C5CF08954F925F924C
:1010B0006F927F928F929F92AF92BF92CF92DF9268
:1010C000EF92FF920F931F93CF93DF9300D01F9265
:1010D000CDB7DEB780918E0490918F04892BC1F13A
:1010E00002EC15E0CE0101965C014E0195E0890EFF
:1010F000911CE12CF12C6801CA18DB08F601E252C0
:10110000F64F6F01F801EE0DFF1D80819181A281E4
:10111000B38189839A83AB83BC83250136016E0C2E
:101120007F1CC201860D971DF20161912F017AD9B2
:1011300048145904B1F7F4E0EF0EF11C8CE0E81606
:10114000F10401F7045F1F4F96E00232190789F698
:101150000F900F900F900F90DF91CF911F910F91F3
:10116000FF90EF90DF90CF90BF90AF909F908F90C7
:101170007F906F905F904F9008954F925F926F9223
:101180007F928F929F92AF92BF92CF92DF92EF9217
:10119000FF920F931F93CF93DF93CDB7DEB7C25467
:1011A000D1090FB6F894DEBF0FBECDBFCE010197B7
:1011B0005C01C12CD12C750100E010E0C8018C0D40
:1011C0009D1D892B41F46CE28AE894E00E940C2971
:1011D0009A8389830DC0F701408151814F5F5F4F32
:1011E0006CE28AE894E00E94F128F70193838283FD
:1011F0000F5F1F4FF2E0EF0EF11C03301105F1F607
:1012000086E0A80EB11C93E0C90ED11CE8E1CE1611
:10121000D10489F642EC842E45E0942ECE0101974C
:101220005C01E12CF12C6501370100E010E02401A4
:10123000400E511E6114710429F429813A8140E065
:1012400050E007C0F60122813381408151814F5F18
:101250005F4F6AE874E0CE01CD960E942D29CE0141
:10126000CD960E947A29F2016083718382839383F1
:10127000CE01CD960E94FE26FFEF6F1A7F0A0C5F0B
:101280001F4F82E0C80ED11C0C30110581F69CE086
:10129000890E911CE3E0EE0EF11CF6E0AF0EB11CDE
:1012A00088E1E816F10409F0BECF00DFCE5BDF4F26
:1012B0000FB6F894DEBF0FBECDBFDF91CF911F9167
:1012C0000F91FF90EF90DF90CF90BF90AF909F90E5
:1012D0008F907F906F905F904F90089561E08DE2C6
:1012E0000E94FE2161E08BE20E94FE2161E089E222
:1012F0000E94FE2161E08CE10E94FE210E94901E6E
:1013000083E099D88CB5837F84608CBD8CB58F7D4C
:101310008CBD26E040E052EC61E070E08FE496E0A6
:101320000E947B236AE070E080E090E00E9405214B
:1013300060E082E00E94FE2160E083E00E94FE21E6
:1013400060E085E10E94FE2161E08DE20E9437228B
:1013500061E08BE20E94372261E089E20E9437223D
:1013600043E050E06DE073E081E00E94C31E43E083
:1013700050E06EED71E080E00E94C31E43E050E05B
:1013800062EF71E082E00E94C31E40E452E46FE02D
:1013900070E080E496E00E94671E20EA36E841E0B3
:1013A00050E061E578E080E496E00E94761E0E94BD
:1013B000E2200C94D62060919A0570919B058AE2F8
:1013C00076D888EC90E00E943D2160919A0570915A
:1013D0009B058BE26CD888EC90E00E943D216091E7
:1013E0009A0570919B058CE262D888EC90E00E948F
:1013F0003D2160919A0570919B058DE258D888EC4B
:1014000090E00E943D2160919A0570919B058EE2CB
:101410004ED888EC90E00E943D2160919A05709131
:101420009B058FE244D888EC90E00E943D216091BA
:101430009A0570919B0580E33AD888EC90E00E9471
:101440003D2160919A0570919B0581E330D888EC2D
:1014500090E00E943D2160919A0570919B0582E386
:1014600026D888EC90E00E943D216CEF84E10BD8F7
:1014700088EC90E00E943D216FE887E104D888EC79
:1014800090E00E943D2160919C0570919D058CE14A
:101490000ED888EC90E00E943D218AE187D888EC44
:1014A00090E00E943D2140E050E160E070E088E182
:1014B00028D888EC90E00E943D2181E054D882E059
:1014C00052D883E050C860919A0570919B058AE2DA
:1014D0000E94570288EC90E00E943D2160919A059D
:1014E00070919B058BE20E94570288EC90E00E946D
:1014F0003D2160919A0570919B058CE20E945702F4
:1015000088EC90E00E943D2160919A0570919B05C6
:101510008DE20E94570288EC90E00E943D2160918C
:101520009A0570919B058EE20E94570288EC90E02C
:101530000E943D2160919A0570919B058FE20E9467
:10154000570288EC90E00E943D2160919A057091CD
:101550009B0580E30E94570288EC90E00E943D21A9
:1015600060919A0570919B0581E30E94570288EC77
:1015700090E00E943D2160919A0570919B0582E365
:101580000E94570288EC90E00E943D216CEF84E1BC
:101590000E94430288EC90E00E943D216FE887E1C1
:1015A0000E94430288EC90E00E943D2160919C05DE
:1015B00070919D058CE10E94570288EC90E00E949A
:1015C0003D218AE10E94D60288EC90E00E943D21F4
:1015D00040E050E160E070E088E10E94810288EC28
:1015E00090E00E943D2187E00E94B30288E00E94C3
:1015F000B30289E00C94B30260919A0570919B0547
:101600008AE20E94570288EC90E00E943D2160919E
:101610009A0570919B058BE20E94570288EC90E03E
:101620000E943D2160919A0570919B058CE20E9479
:10163000570288EC90E00E943D2160919A057091DC
:101640009B058DE20E94570288EC90E00E943D21AC
:1016500060919A0570919B058EE20E94570288EC7A
:1016600090E00E943D2160919A0570919B058FE268
:101670000E94570288EC90E00E943D2160919A05FB
:1016800070919B0580E30E94570288EC90E00E94D5
:101690003D2160919A0570919B0581E30E9457025C
:1016A00088EC90E00E943D2160919A0570919B0525
:1016B00082E30E94570288EC90E00E943D216CEF8B
:1016C00084E10E94430288EC90E00E943D216FE893
:1016D00087E10E94430288EC90E00E943D216091E6
:1016E0009C0570919D058CE10E94570288EC90E06A
:1016F0000E943D218AE10E94D60288EC90E00E947F
:101700003D2140E050E160E070E088E10E9481020C
:1017100088EC90E00E943D2184E00E94B30285E0C5
:101720000E94B30286E00E94B30288EC90E00C9421
:101730003D216CE986E10E94430284EF91E00E9422
:101740003D218AE10E94D60284EF91E00E943D2172
:1017500040E052E060E070E088E10E94810288ECA5
:1017600090E00E943D216EE170E08CE10E94570202
:1017700088EC90E00E943D2160E070E086E30E94EA
:10178000570264E670E080E090E00E94052160E08E
:1017900070E087E30E94570264E670E080E090E02A
:1017A0000E94052160E070E088E30E94570264E631
:1017B00070E080E090E00E94052188EC90E00C94BD
:1017C0003D218AE10E94D60284EF91E00E943D21F2
:1017D00040E052E060E070E088E10E94810288EC25
:1017E00090E00E943D216EE170E08CE10E94570282
:1017F00088EC90E00E943D2160E070E083E30E946D
:10180000570264E670E080E090E00E94052160E00D
:1018100070E084E30E94570264E670E080E090E0AC
:101820000E94052160E070E085E30E94570264E6B3
:1018300070E080E090E00E94052188EC90E00C943C
:101840003D2160919A0570919B058AE20E945702A2
:1018500088EC90E00E943D2160919A0570919B0573
:101860008BE20E94570288EC90E00E943D2160913B
:101870009A0570919B058CE20E94570288EC90E0DB
:101880000E943D2160919A0570919B058DE20E9416
:10189000570288EC90E00E943D2160919A0570917A
:1018A0009B058EE20E94570288EC90E00E943D2149
:1018B00060919A0570919B058FE20E94570288EC17
:1018C00090E00E943D2160919A0570919B0580E314
:1018D0000E94570288EC90E00E943D2160919A0599
:1018E00070919B0581E30E94570288EC90E00E9472
:1018F0003D2160919A0570919B0582E30E945702F9
:1019000088EC90E00E943D216CEF84E10E9443024C
:1019100088EC90E00E943D216FE887E10E9443023D
:1019200088EC90E00E943D2168EC70E08CE10E9420
:10193000570288EC90E00E943D218AE10E94D60285
:1019400088EC90E00E943D2140E050E160E070E0D2
:1019500088E10E94810288EC90E00E943D2181E0B4
:101960000E94B30282E00E94B30283E00C94B302AF
:101970006BE774E08AE895E00E9465276BE774E006
:1019800084E895E00E9465276BE774E08AE894E0BC
:101990000C9465270C9406024F925F926F927F928F
:1019A0008F929F92AF92BF92CF92DF92EF92FF926F
:1019B0000F931F93CF93DF93CDB7DEB762970FB628
:1019C000F894DEBF0FBECDBF8FE496E00E946C227C
:1019D000892B11F40C940C1540E06FE476E0CE01F5
:1019E00001960E94DA26BE016F5F7F4F8AE895E07C
:1019F0000E94AE27CE0101960E94FE26F89466E171
:101A000072E08AE895E00E94D3288823A9F011E0CB
:101A1000109383058EDE10929905109390050E9415
:101A2000D62060937A0570937B0580937C05909314
:101A30007D056CE172E044C062E272E08AE895E004
:101A40000E94D3288823F9F080E10E94B3028C0120
:101A50004AE050E0BC018FE496E00E94B325B80153
:101A600080E090E00E94952A20E030E040E85DE3CD
:101A70000E944B2BAB01BC0122E030E08FE496E0EA
:101A80000E949E26C8C766E272E08AE895E00E943E
:101A9000D3288823D1F081E08093830592DE1092D1
:101AA000990582E0809390050E94D62060937A0584
:101AB00070937B0580937C0590937D056CE272E0CA
:101AC00084E895E00E94B927A6C762E372E08AE83D
:101AD00095E00E94D328882381F081E080938305DC
:101AE00010929B0510929A05ACDE1092980583E047
:101AF0008093900569E372E0E3CF69E472E08AE8DD
:101B000095E00E94D3288823F1F081E0809383053B
:101B100084E690E090939D0580939C0561E472E0DB
:101B200084E895E00E94B92787E08093900580E0E3
:101B300098E090939B0580939A053DDC1092910567
:101B40001092940568C767E472E08AE895E00E9405
:101B5000D3288823F1F081E08093830584E690E028
:101B600090939D0580939C0566E572E084E895E07E
:101B70000E94B92780E098E090939B0580939A0596
:101B80003BDD88E0809390051092910510929305BB
:101B900042C76BE572E08AE895E00E94D32888236B
:101BA000F1F081E08093830584E690E090939D05B9
:101BB00080939C056AE672E084E895E00E94B9276C
:101BC00080E098E090939B0580939A057CDC89E007
:101BD0008093900510929105109292051CC76EE6B5
:101BE00072E08AE895E00E94D328882311F060E033
:101BF00009C065E772E08AE895E00E94D32888234F
:101C000029F061E08DE20E94372205C76DE772E09E
:101C1000CE0101960E946527BE016F5F7F4F8AE863
:101C200095E00E942A298C01CE0101960E94FE2691
:101C300017FD6CC081E0809383056DE772E0CE01F3
:101C400007960E946527BE01695F7F4F8AE895E08D
:101C50000E942A29AC01485F5F4F6CE28AE895E058
:101C60000E94F1288C016DE772E0CE010D960E9472
:101C70006527BE01635F7F4F8AE895E00E942A29AD
:101C8000AC01495F5F4F98016AE875E0CE010196AB
:101C90000E942D29CE0101960E94702970939D0506
:101CA00060939C05CE0101960E94FE26CE010D9602
:101CB0000E94FE26CE0107960E94FE2680919C057A
:101CC00090919D05181619060CF0A5C665E872E0FE
:101CD00084E895E00E94B92760919C0570919D056C
:101CE00084E895E00E9445286CE284E895E00E9433
:101CF000082810929B0510929A055DDB84E0809382
:101D00009005109291051092970585C667E972E0DB
:101D1000CE0101960E946527BE016F5F7F4F8AE862
:101D200095E00E942A298C01CE0101960E94FE2690
:101D300017FD6CC081E08093830567E972E0CE01F6
:101D400007960E946527BE01695F7F4F8AE895E08C
:101D50000E942A29AC01485F5F4F6CE28AE895E057
:101D60000E94F1288C0167E972E0CE010D960E9475
:101D70006527BE01635F7F4F8AE895E00E942A29AC
:101D8000AC01495F5F4F98016AE875E0CE010196AA
:101D90000E942D29CE0101960E94702970939D0505
:101DA00060939C05CE0101960E94FE26CE010D9601
:101DB0000E94FE26CE0107960E94FE2680919C0579
:101DC00090919D05181619060CF025C66FE972E072
:101DD00084E895E00E94B92760919C0570919D056B
:101DE00084E895E00E9445286CE284E895E00E9432
:101DF000082810929B0510929A05FEDB85E08093DF
:101E00009005109291051092960505C660EB72E060
:101E1000CE0101960E946527BE016F5F7F4F8AE861
:101E200095E00E942A298C01CE0101960E94FE268F
:101E300017FD5DC0FF24F394F092830560EB72E020
:101E4000CE0107960E946527BE01695F7F4F8AE831
:101E500095E00E942A29AC01465F5F4F6CE28AE858
:101E600095E00E94F1288C0160EB72E0CE010D96A6
:101E70000E946527BE01635F7F4F8AE895E00E945C
:101E80002A29AC01475F5F4F98016AE875E0CE01EF
:101E900001960E942D29CE0101960E94702960931F
:101EA0007E05CE0101960E94FE26CE010D960E946F
:101EB000FE26CE0107960E94FE2680917E0588238D
:101EC00009F4A9C580E098E090939B0580939A055A
:101ED0000E949C040E94D62060937A0570937B0533
:101EE00080937C0590937D05F092820570C06AEB2B
:101EF00072E0CE0101960E946527BE016F5F7F4FA1
:101F00008AE895E00E942A298C01CE0101960E9460
:101F1000FE2617FD5FC0FF24F394F09283056AEB61
:101F200072E0CE0107960E946527BE01695F7F4F70
:101F30008AE895E00E942A29AC01465F5F4F6CE277
:101F40008AE895E00E94F1288C016AEB72E0CE01EC
:101F50000D960E946527BE01635F7F4F8AE895E07A
:101F60000E942A29AC01475F5F4F98016AE875E03B
:101F7000CE0101960E942D29CE0101960E94702962
:101F800060937E05CE0101960E94FE26CE010D963D
:101F90000E94FE26CE0107960E94FE2680917E05B5
:101FA000882309F438C580E098E090939B058093DE
:101FB0009A050E949C040E94D62060937A05709333
:101FC0007B0580937C0590937D05F0928105F092CE
:101FD0007F0521C564EC72E0CE0101960E94652761
:101FE000BE016F5F7F4F8AE895E00E942A298C012D
:101FF000CE0101960E94FE2617FD5DC0FF24F394DA
:10200000F092830564EC72E0CE0107960E9465278A
:10201000BE01695F7F4F8AE895E00E942A29AC01E2
:10202000445F5F4F6CE28AE895E00E94F1288C01E2
:1020300064EC72E0CE010D960E946527BE01635FDD
:102040007F4F8AE895E00E942A29AC01455F5F4FE7
:1020500098016AE875E0CE0101960E942D29CE0113
:1020600001960E94702960937E05CE0101960E9420
:10207000FE26CE010D960E94FE26CE0107960E94F6
:10208000FE2680917E05882309F4C5C480E098E08F
:1020900090939B0580939A050E949C040E94D620F1
:1020A00060937A0570937B0580937C0590937D0502
:1020B000F09280058CCF60ED72E0CE0101960E9417
:1020C0006527BE016F5F7F4F8AE895E00E942A294D
:1020D0008C01CE0101960E94FE2617FD82C00E944F
:1020E000E22060936E0570936F0580937005909366
:1020F00071056CE28AE895E00E940C299093C10575
:102100008093C00502E216E04091C0055091C105E0
:102110004F5F5F4F6CE28AE895E00E94F1284091A2
:10212000C0055091C1054F5F5F4F9C016AE875E0A3
:10213000CE0101960E942D29CE0101960E947029A0
:102140007093BF056093BE05CE0101960E94FE26E6
:102150008091BE059091BF05F801819391938F0105
:102160004091C0055091C1054F5F5F4F6CE28AE816
:1021700095E00E94F1289093C1058093C005F6E098
:1021800008321F0709F6609122067091230683E347
:102190000E945702609124067091250684E30E94F4
:1021A0005702609126067091270685E30E94570228
:1021B0000E94E220C0906E05D0906F05E0907005FF
:1021C000F09071056C197D098E099F0960936A056D
:1021D00070936B0580936C0590936D056AED72E0CA
:1021E00016C46AEE72E0CE0101960E946527BE0118
:1021F0006F5F7F4F8AE895E00E942A298C01CE010B
:1022000001960E94FE2617FD82C00E94E220609384
:102210006E0570936F0580937005909371056CE265
:102220008AE895E00E940C299093C1058093C0052F
:1022300002E216E04091C0055091C1054F5F5F4F2B
:102240006CE28AE895E00E94F1284091C005509127
:10225000C1054F5F5F4F9C016AE875E0CE010196B2
:102260000E942D29CE0101960E9470297093BF050E
:102270006093BE05CE0101960E94FE268091BE05A8
:102280009091BF05F801819391938F014091C00512
:102290005091C1054F5F5F4F6CE28AE895E00E9464
:1022A000F1289093C1058093C005F6E008321F071E
:1022B00009F6609122067091230686E30E94570278
:1022C000609124067091250687E30E945702609171
:1022D00026067091270688E30E9457020E94E2209A
:1022E000C0906E05D0906F05E0907005F09071057C
:1022F0006C197D098E099F0960936A0570936B05BF
:1023000080936C0590936D0564EF72E080C364E088
:1023100073E0CE0101960E946527BE016F5F7F4F7B
:102320008AE895E00E942A298C01CE0101960E943C
:10233000FE2617FD82C00E94E22060936E05709316
:102340006F0580937005909371056CE28AE895E0C3
:102350000E940C299093C1058093C00502E216E00B
:102360004091C0055091C1054F5F5F4F6CE28AE814
:1023700095E00E94F1284091C0055091C1054F5F42
:102380005F4F9C016AE875E0CE0101960E942D29FD
:10239000CE0101960E9470297093BF056093BE051F
:1023A000CE0101960E94FE268091BE059091BF0548
:1023B000F801819391938F014091C0055091C1051F
:1023C0004F5F5F4F6CE28AE895E00E94F12890939E
:1023D000C1058093C005F6E008321F0709F6609139
:1023E00022067091230689E30E9457026091240619
:1023F000709125068AE30E9457026091260670912B
:1024000027068BE30E9457020E94E220C0906E05CF
:10241000D0906F05E0907005F09071056C197D0902
:102420008E099F0960936A0570936B0580936C0514
:1024300090936D056FE073E0EAC260E273E0CE0155
:1024400001960E946527BE016F5F7F4F8AE895E085
:102450000E942A298C01CE0101960E94FE2617FDBA
:1024600082C00E94E22060936E0570936F05809396
:102470007005909371056CE28AE895E00E940C2942
:102480009093C1058093C00502E216E04091C0051B
:102490005091C1054F5F5F4F6CE28AE895E00E9462
:1024A000F1284091C0055091C1054F5F5F4F9C01DD
:1024B0006AE875E0CE0101960E942D29CE010196B1
:1024C0000E9470297093BF056093BE05CE010196EE
:1024D0000E94FE268091BE059091BF05F801819370
:1024E00091938F014091C0055091C1054F5F5F4F9F
:1024F0006CE28AE895E00E94F1289093C1058093F0
:10250000C005F6E008321F0709F6609122067091B7
:1025100023068CE30E9457026091240670912506E1
:102520008DE30E94570260912606709127068EE384
:102530000E9457020E94E220C0906E05D0906F0565
:10254000E0907005F09071056C197D098E099F0966
:1025500060936A0570936B0580936C0590936D058D
:102560006BE273E054C26CE373E0CE0101960E940B
:102570006527BE016F5F7F4F8AE895E00E942A2998
:102580008C01CE0101960E94FE2617FD82C00E949A
:10259000E22060936E0570936F05809370059093B1
:1025A00071056CE28AE895E00E940C299093C105C0
:1025B0008093C00502E216E04091C0055091C1052C
:1025C0004F5F5F4F6CE28AE895E00E94F1284091EE
:1025D000C0055091C1054F5F5F4F9C016AE875E0EF
:1025E000CE0101960E942D29CE0101960E947029EC
:1025F0007093BF056093BE05CE0101960E94FE2632
:102600008091BE059091BF05F801819391938F0150
:102610004091C0055091C1054F5F5F4F6CE28AE861
:1026200095E00E94F1289093C1058093C005F6E0E3
:1026300008321F0709F660912206709123068FE386
:102640000E945702609124067091250680E40E9442
:102650005702609126067091270681E40E94570276
:102660000E94E220C0906E05D0906F05E09070054A
:10267000F09071056C197D098E099F0960936A05B8
:1026800070936B0580936C0590936D0567E473E020
:10269000BEC168E573E0CE0101960E946527BE01C8
:1026A0006F5F7F4F8AE895E00E942A298C01CE0156
:1026B00001960E94FE2617FD70C00E94E2206093E2
:1026C0006E0570936F0580937005909371056CE2B1
:1026D0008AE895E00E940C299093C1058093C0057B
:1026E00002E216E04091C0055091C1054F5F5F4F77
:1026F0006CE28AE895E00E94F1284091C005509173
:10270000C1054F5F5F4F9C016AE875E0CE010196FD
:102710000E942D29CE0101960E9470297093BF0559
:102720006093BE05CE0101960E94FE268091BE05F3
:102730009091BF05F801819391938F014091C0055D
:102740005091C1054F5F5F4F6CE28AE895E00E94AF
:10275000F1289093C1058093C005F6E000341F076F
:1027600009F6F2E2CF2EF6E0DF2E02E81FE0F601D6
:10277000E190F1906F016E2DC8010E9412026F2D41
:10278000C80101960E9412020E5F1F4F003AFFE03F
:102790001F0769F766E673E03AC16CE773E0CE01A4
:1027A00001960E946527BE016F5F7F4F8AE895E022
:1027B0000E942A298C01CE0101960E94FE2617FD57
:1027C00028C06BE774E08AE894E00E94B9276CE2C5
:1027D0008AE895E00E940C2920918E0530918F05A2
:1027E000AC014F5F5F4F6AE875E0CE0101960E9431
:1027F0002D29BE016F5F7F4F8AE894E00E94AE27CB
:10280000CE0101960E94FE260E94BD0869E873E091
:10281000FEC06EE973E0CE0101960E946527BE01FD
:102820006F5F7F4F8AE895E00E942A298C01CE01D4
:1028300001960E94FE2617FD4EC06CE28AE895E0E4
:102840000E940C299093C1058093C005AC014F5F95
:102850005F4F6CE28AE895E00E94F1284091C00544
:102860005091C1054F5F5F4F9C016AE875E0CE0152
:1028700001960E942D29CE0101960E947029609335
:10288000BA057093BB058093BC059093BD05CE013E
:1028900001960E94FE268091BA059091BB05A091F9
:1028A000BC05B091BD0589839A83AB83BC83CE01FF
:1028B00001967C0106E51FE0F70161917F01C801E7
:1028C0000E9412020F5F1F4F0A35FFE01F07A1F79A
:1028D0006EEA73E09CC066EC73E0CE0101960E9444
:1028E0006527BE016F5F7F4F8AE895E00E942A2925
:1028F0008C01CE0101960E94FE2617FD0FC000E05C
:1029000010E060E0C8010E9412020F5F1F4F0C3CF4
:102910002CE01207B1F76AED73E079C060EF73E065
:10292000CE0101960E946527BE016F5F7F4F8AE846
:1029300095E00E942A298C01CE0101960E94FE2674
:1029400017FD02C00C94B21D64E174E0CE01019643
:102950000E946527BE016F5F7F4F8AE895E00E9465
:102960002A298C01CE0101960E94FE2617FD49C03E
:102970006CE28AE895E00E940C299093C10580934F
:10298000C005AC014F5F5F4F6CE28AE895E00E94A2
:10299000F1284091C0055091C1054F5F5F4F9C01E8
:1029A0006AE875E0CE0101960E942D29CE010196BC
:1029B0000E9470296B017C01CE0101960E94FE26C7
:1029C000C6010E94E52E182F64E274E084E895E0C9
:1029D0000E94B927B60184E895E00E9474286EE24F
:1029E00074E084E895E00E94F927612F84E895E07F
:1029F0000E941B2864E875E08FE496E00E94DE24C4
:102A00000AC0109290051092830562E374E08FE48F
:102A100096E00E94EE24789480919E0590919F0507
:102A2000A091A005B091A105C297A105B10509F03B
:102A300094C1F89410929E0510929F051092A005E3
:102A40001092A10580919905882309F466C10E941E
:102A5000D620C0907A05D0907B05E0907C05F09060
:102A60007D056C197D098E099F09603A7F408105BB
:102A7000910508F0D7C06091AA057091AB058091CF
:102A8000AC059091AD05E2E3CE2ED12CE12CF12CDA
:102A9000A70196010E94D42B2093AA053093AB0581
:102AA0004093AC055093AD056091A6057091A705C4
:102AB0008091A8059091A905A70196010E94D42BA9
:102AC0002093A6053093A7054093A8055093A90528
:102AD0006091A2057091A3058091A4059091A50530
:102AE000A70196010E94D42B2093A2053093A30541
:102AF0004093A4055093A50580919905813049F52F
:102B00008091AA059091AB05A091AC05B091AD055F
:102B10008093B6059093B705A093B805B093B90517
:102B20008091A6059091A705A091A805B091A9054F
:102B30008093B2059093B305A093B405B093B50507
:102B40008091A2059091A305A091A405B091A5053F
:102B500058C08091AA059091AB05A091AC05B091A9
:102B6000AD054091B6055091B7056091B8057091DB
:102B7000B905840F951FA61FB71FB695A795979502
:102B800087958093B6059093B705A093B805B09349
:102B9000B9058091A6059091A705A091A805B091CF
:102BA000A9054091B2055091B3056091B4057091AB
:102BB000B505840F951FA61FB71FB695A7959795C6
:102BC00087958093B2059093B305A093B405B09315
:102BD000B5058091A2059091A305A091A405B0919F
:102BE000A5054091AE055091AF056091B00570917B
:102BF000B105840F951FA61FB71FB695A79597958A
:102C000087958093AE059093AF05A093B005B093E0
:102C1000B10510929E0510929F051092A00510928A
:102C2000A1057BC064E875E08FE496E00E94C624AD
:102C30004091B6055091B7056091B8057091B905FE
:102C40002AE030E08FE496E00E94A2256CE28FE457
:102C500096E00E94D4244091B2055091B305609152
:102C6000B4057091B5052AE030E08FE496E00E944B
:102C7000A2256CE28FE496E00E94D4244091AE0538
:102C80005091AF056091B0057091B1052AE030E038
:102C90008FE496E00E94A2256CE28FE496E00E9409
:102CA000FE2410929E0510929F051092A00510928E
:102CB000A1051092AA051092AB051092AC051092D6
:102CC000AD051092A6051092A7051092A8051092C6
:102CD000A9051092A2051092A3051092A4051092C6
:102CE000A5051092B6051092B7051092B80510927E
:102CF000B9051092B2051092B3051092B405109266
:102D0000B5051092AE051092AF051092B005109265
:102D1000B10510929905109283051092AA051092A0
:102D2000AB051092AC051092AD051092A60510925D
:102D3000A7051092A8051092A9051092A20510925D
:102D4000A3051092A4051092A505809199058F3FC7
:102D500019F08F5F80939905789480919805813060
:102D6000D1F5F89464E875E08FE496E00E94C624FB
:102D700081E00E94B3024AE050E0BC018FE496E09B
:102D80000E94AE256CE28FE496E00E94D42482E09B
:102D90000E94B3024AE050E0BC018FE496E00E943A
:102DA000AE256CE28FE496E00E94D42483E00E947A
:102DB000B3024AE050E0BC018FE496E00E94AE25E9
:102DC0006CE28FE496E00E94FE2483E080939805F5
:102DD00010928305789480919705813009F070C036
:102DE000F8948AE10E94D60281E00E94B302A0E03A
:102DF000B0E08093AA059093AB05A093AC05B09387
:102E0000AD0582E00E94B302A0E0B0E08093A60589
:102E10009093A705A093A805B093A90583E00E940D
:102E2000B302A0E0B0E08093A2059093A305A09325
:102E3000A405B093A50564E875E08FE496E00E94D0
:102E4000C6244091AA055091AB056091AC057091E4
:102E5000AD052AE030E08FE496E00E945B256CE24D
:102E60008FE496E00E94D4244091A6055091A705D6
:102E70006091A8057091A9052AE030E08FE496E002
:102E80000E945B256CE28FE496E00E94D42440917E
:102E9000A2055091A3056091A4057091A5052AE0B3
:102EA00030E08FE496E00E945B256CE28FE496E0D0
:102EB0000E94FE2483E08093970510928305789406
:102EC00080918205882309F4B8C00E94D620C09062
:102ED0007A05D0907B05E0907C05F0907D051091FF
:102EE0007E056C197D098E099F0920E63AEE40E0C7
:102EF00050E00E94B22B812F90E0A0E0B0E02817B4
:102F000039074A075B0709F098C0F8946091C2043A
:102F10007091C3048091C4049091C5040E94972AC3
:102F200020E03EEF4FEF56E40E94FC292B013C01CC
:102F30006091BE047091BF048091C0049091C1045F
:102F40000E94972A20E030E040E058E30E944B2B9B
:102F50004B015C016091BA047091BB048091BC0488
:102F60009091BD040E94972A20E030E040E058E3B1
:102F70000E944B2B6B017C011092820510927F0501
:102F80006FE374E084E895E00E94B92760917E05C4
:102F900084E895E00E941B286CE284E895E00E949A
:102FA0000828209126053091270540912805509149
:102FB0002905C301B2010E949429AB01BC0184E838
:102FC00095E00E94A3286CE284E895E00E9408281E
:102FD00020912A0530912B0540912C0550912D050B
:102FE000C501B4010E949429AB01BC0184E895E0BD
:102FF0000E94A3286CE284E895E00E9408282091B2
:103000002E0530912F054091300550913105C701B3
:10301000B6010E949429AB01BC0184E895E00E94AE
:10302000A3286CE284E895E00E94082864E875E033
:103030008FE496E00E94DE247894809194058823A2
:1030400009F435C1F8948AE10E94D60281E00E9419
:10305000B302A0E0B0E08093AA059093AB05A093E3
:10306000AC05B093AD0582E00E94B302A0E0B0E0F1
:103070008093A6059093A705A093A805B093A905F2
:1030800083E00E94B302A0E0B0E08093A205909399
:10309000A305A093A405B093A50580919405813064
:1030A00049F58091AA059091AB05A091AC05B0912E
:1030B000AD058093B6059093B705A093B805B0937E
:1030C000B9058091A6059091A705A091A805B0919A
:1030D000A9058093B2059093B305A093B405B0936E
:1030E000B5058091A2059091A305A091A405B0918A
:1030F000A50558C08091AA059091AB05A091AC059B
:10310000B091AD054091B6055091B7056091B805F5
:103110007091B905840F951FA61FB71FB695A79587
:10312000979587958093B6059093B705A093B805BA
:10313000B093B9058091A6059091A705A091A80527
:10314000B091A9054091B2055091B3056091B405C5
:103150007091B505840F951FA61FB71FB695A7954B
:10316000979587958093B2059093B305A093B40586
:10317000B093B5058091A2059091A305A091A405F7
:10318000B091A5054091AE055091AF056091B00595
:103190007091B105840F951FA61FB71FB695A7950F
:1031A000979587958093AE059093AF05A093B00552
:1031B000B093B10580919405853009F077C064E83B
:1031C00075E08FE496E00E94C6244091B6055091C8
:1031D000B7056091B8057091B9052AE030E08FE439
:1031E00096E00E94A2256CE28FE496E00E94D4242F
:1031F0004091B2055091B3056091B4057091B50549
:103200002AE030E08FE496E00E94A2256CE28FE491
:1032100096E00E94D4244091AE055091AF05609194
:10322000B0057091B1052AE030E08FE496E00E948D
:10323000A2256CE28FE496E00E94FE241092940591
:103240001092AA051092AB051092AC051092AD0534
:103250001092A6051092A7051092A8051092A90534
:103260001092A2051092A3051092A4051092A50534
:103270001092B6051092B7051092B8051092B905D4
:103280001092B2051092B3051092B4051092B505D4
:103290001092AE051092AF051092B0051092B105D4
:1032A00010929D0510929C05109283057894809150
:1032B0009605813009F070C0F8948AE10E94D60228
:1032C00084E00E94B302A0E0B0E08093AA0590934E
:1032D000AB05A093AC05B093AD0585E00E94B302A9
:1032E000A0E0B0E08093A6059093A705A093A80561
:1032F000B093A90586E00E94B302A0E0B0E08093FD
:10330000A2059093A305A093A405B093A50564E836
:1033100075E08FE496E00E94C6244091AA05509182
:10332000AB056091AC057091AD052AE030E08FE40B
:1033300096E00E945B256CE28FE496E00E94D42424
:103340004091A6055091A7056091A8057091A90527
:103350002AE030E08FE496E00E945B256CE28FE487
:1033600096E00E94D4244091A2055091A30560915B
:10337000A4057091A5052AE030E08FE496E00E9454
:103380005B256CE28FE496E00E94FE2483E080934C
:10339000960510928305789480918105882309F41D
:1033A000B7C004D7C0907A05D0907B05E0907C052B
:1033B000F0907D0510917E056C197D098E099F099D
:1033C00020E63AEE40E050E00E94B22B812F90E0E0
:1033D000A0E0B0E0281739074A075B0709F098C05A
:1033E000F8946091B6047091B7048091B8049091FC
:1033F000B9040E94972A20E03EEF4FEF56E40E9466
:10340000FC292B013C016091B2047091B3048091BE
:10341000B4049091B5040E94972A20E03EEF4FEF4C
:1034200056E40E94FC294B015C016091AE0470914E
:10343000AF048091B0049091B1040E94972A20E0DB
:103440003EEF4FEF56E40E94FC296B017C01109285
:10345000810510927F056EE474E084E895E00E9497
:10346000B92760917E0584E895E00E941B286CE2F4
:1034700084E895E00E94082820911A0530911B05E8
:1034800040911C0550911D05C301B2010E94942971
:10349000AB01BC0184E895E00E94A3286CE284E8BB
:1034A00095E00E94082820911E0530911F0540914B
:1034B000200550912105C501B4010E949429AB015A
:1034C000BC0184E895E00E94A3286CE284E895E0C2
:1034D0000E9408282091220530912305409124055F
:1034E00050912505C701B6010E949429AB01BC018A
:1034F00084E895E00E94A3286CE284E895E00E94AD
:10350000082864E875E08FE496E00E94DE24789451
:1035100080919305882309F435C1F8948AE10E94CB
:10352000D60284E00E94B302A0E0B0E08093AA0536
:103530009093AB05A093AC05B093AD0585E00E94D8
:10354000B302A0E0B0E08093A6059093A705A093F6
:10355000A805B093A90586E00E94B302A0E0B0E000
:103560008093A2059093A305A093A405B093A5050D
:1035700080919305813049F58091AA059091AB0522
:10358000A091AC05B091AD058093B6059093B705B9
:10359000A093B805B093B9058091A6059091A705B1
:1035A000A091A805B091A9058093B2059093B305A9
:1035B000A093B405B093B5058091A2059091A305A1
:1035C000A091A405B091A50558C08091AA0590913D
:1035D000AB05A091AC05B091AD054091B6055091F9
:1035E000B7056091B8057091B905840F951FA61FA6
:1035F000B71FB695A795979587958093B605909335
:10360000B705A093B805B093B9058091A605909130
:10361000A705A091A805B091A9054091B2055091C8
:10362000B3056091B4057091B505840F951FA61F71
:10363000B71FB695A795979587958093B2059093F8
:10364000B305A093B405B093B5058091A205909100
:10365000A305A091A405B091A5054091AE05509198
:10366000AF056091B0057091B105840F951FA61F3D
:10367000B71FB695A795979587958093AE059093BC
:10368000AF05A093B005B093B10580919305853047
:1036900009F077C064E875E08FE496E00E94C624E4
:1036A0004091B6055091B7056091B8057091B90584
:1036B0002AE030E08FE496E00E94A2256CE28FE4DD
:1036C00096E00E94D4244091B2055091B3056091D8
:1036D000B4057091B5052AE030E08FE496E00E94D1
:1036E000A2256CE28FE496E00E94D4244091AE05BE
:1036F0005091AF056091B0057091B1052AE030E0BE
:103700008FE496E00E94A2256CE28FE496E00E948E
:10371000FE24109293051092AA051092AB05109208
:10372000AC051092AD051092A6051092A705109257
:10373000A8051092A9051092A2051092A305109257
:10374000A4051092A5051092B6051092B705109227
:10375000B8051092B9051092B2051092B3051092F7
:10376000B4051092B5051092AE051092AF051092F7
:10377000B0051092B10510929D0510929C05109213
:103780008305789480918005882309F4B7C00ED50D
:10379000C0907A05D0907B05E0907C05F0907D0587
:1037A00010917E056C197D098E099F0920E63AEE7D
:1037B00040E050E00E94B22B812F90E0A0E0B0E00A
:1037C000281739074A075B0709F098C0F8946091F9
:1037D000AA047091AB048091AC049091AD040E9456
:1037E000972A20E03EEF4FEF56E40E94FC292B0180
:1037F0003C016091A6047091A7048091A804909167
:10380000A9040E94972A20E03EEF4FEF56E40E9461
:10381000FC294B015C016091A2047091A30480918A
:10382000A4049091A5040E94972A20E03EEF4FEF58
:1038300056E40E94FC296B017C01109280051092D5
:103840007F056CE574E084E895E00E94B9276091FB
:103850007E0584E895E00E941B286CE284E895E0F0
:103860000E9408282091320530913305409134059B
:1038700050913505C301B2010E949429AB01BC01EE
:1038800084E895E00E94A3286CE284E895E00E9419
:103890000828209136053091370540913805509120
:1038A0003905C501B4010E949429AB01BC0184E82B
:1038B00095E00E94A3286CE284E895E00E94082825
:1038C00020913A0530913B0540913C0550913D05D2
:1038D000C701B6010E949429AB01BC0184E895E0C0
:1038E0000E94A3286CE284E895E00E94082864E81E
:1038F00075E08FE496E00E94DE2478948091920532
:10390000882309F43FC1F89487E00E94B302A0E045
:10391000B0E08093AA059093AB05A093AC05B0935B
:10392000AD0588E00E94B302A0E0B0E08093A60558
:103930009093A705A093A805B093A90589E00E94DC
:10394000B302A0E0B0E08093A2059093A305A093FA
:10395000A405B093A50580919205813049F5809129
:10396000AA059091AB05A091AC05B091AD058093EF
:10397000B6059093B705A093B805B093B9058091AB
:10398000A6059091A705A091A805B091A9058093DF
:10399000B2059093B305A093B405B093B50580919B
:1039A000A2059091A305A091A405B091A50558C0CA
:1039B0008091AA059091AB05A091AC05B091AD05A1
:1039C0004091B6055091B7056091B8057091B90561
:1039D000840F951FA61FB71FB695A7959795879536
:1039E0008093B6059093B705A093B805B093B90539
:1039F0008091A6059091A705A091A805B091A90571
:103A00004091B2055091B3056091B4057091B50530
:103A1000840F951FA61FB71FB695A79597958795F5
:103A20008093B2059093B305A093B405B093B50508
:103A30008091A2059091A305A091A405B091A50540
:103A40004091AE055091AF056091B0057091B10500
:103A5000840F951FA61FB71FB695A79597958795B5
:103A60008093AE059093AF05A093B005B093B105D8
:103A700080919205853009F073C064E875E08FE4A9
:103A800096E084D74091B6055091B7056091B8058E
:103A90007091B9052AE030E08FE496E00E94A225FB
:103AA0006CE28FE496E080D74091B2055091B30567
:103AB0006091B4057091B5052AE030E08FE496E09E
:103AC0000E94A2256CE28FE496E06ED74091AE058D
:103AD0005091AF056091B0057091B1052AE030E0DA
:103AE0008FE496E00E94A2256CE28FE496E086D7F0
:103AF000109292051092AA051092AB051092AC0597
:103B00001092AD051092A6051092A7051092A80577
:103B10001092A9051092A2051092A3051092A40577
:103B20001092A5051092B6051092B7051092B8052F
:103B30001092B9051092B2051092B3051092B40517
:103B40001092B5051092AE051092AF051092B00517
:103B50001092B10510929D0510929C05109283055C
:103B6000789410C000E010E060E0C8010E941202EA
:103B70000F5F1F4F011580E11807B1F761E074E096
:103B80000C94071562960FB6F894DEBF0FBECDBF3A
:103B9000DF91CF911F910F91FF90EF90DF90CF9029
:103BA000BF90AF909F908F907F906F905F904F905D
:103BB00008951F920F920FB60F9211240BB60F9219
:103BC0002F933F934F935F936F937F938F939F9325
:103BD000AF93BF93EF93FF93E0914306F0914406B8
:103BE0001995FF91EF91BF91AF919F918F917F9127
:103BF0006F915F914F913F912F910F900BBE0F905E
:103C00000FBE0F901F901895FC01A3E0440F551FA5
:103C1000661F771FAA95D1F74115510581E0680706
:103C2000710514F481E00EC033E0759567955795E2
:103C300047953A95D1F74115510581E0680771051F
:103C40001CF482E0828331C023E075956795579517
:103C500047952A95D1F74115510581E0680771050F
:103C600014F483E0EFCF92E07595679557954795EB
:103C70009A95D1F74115510581E06807710514F453
:103C800084E0E0CF82E075956795579547958A95D2
:103C9000D1F785E082834115510581E06807710500
:103CA00024F04FEF5FEF60E070E05183408350936A
:103CB00097004093960080919100887F80939100B7
:103CC000809191009281892B8093910008951092A8
:103CD000900020E12093910097CFE1E9F0E020816E
:103CE000DC0112968C91282B208308950F931F934B
:103CF000CF93DF93EC018B01BA01A90114161506CD
:103D0000160617060CF480DF1C830B8381E080937A
:103D100071007894CE01DF91CF911F910F91DDCF8B
:103D2000CF93CFB7F89480914506811123C0E7ED7A
:103D3000F1E08491E1E9F1E09491E82FF0E0EE0FF9
:103D4000FF1FEE5FFD4FA591B4918C91892319F46B
:103D500061E085E38CD361E085E350D38CB580616D
:103D60008CBD8CB580648CBD61E084E347D361E099
:103D700083E344D3809145068F5F80934506CFBF90
:103D8000CF9108950895883008F06DC0E82FF0E0D5
:103D9000EE0FFF1FEA5FFD4F7183608390E0FC012F
:103DA0003197E730F10590F5EE58FF4F0C94F02B6A
:103DB000809169008C7F842B80936900E89A089534
:103DC00080916900440F551F440F551F837F842B3A
:103DD00080936900E99A08958091690074E0440F26
:103DE000551F7A95E1F78F7C842B80936900EA9ABE
:103DF00008958091690066E0440F551F6A95E1F7C8
:103E00008F73842B80936900EB9A089580916A00E8
:103E10008C7F842B80936A00EC9A089580916A00CD
:103E2000440F551F440F551F837F842B80936A00D6
:103E3000ED9A089580916A0024E0440F551F2A9559
:103E4000E1F78F7C842B80936A00EE9A089580912D
:103E50006A0096E0440F551F9A95E1F78F73842B03
:103E600080936A00EF9A08951F920F920FB60F92F7
:103E700011240BB60F922F933F934F935F936F9341
:103E80007F938F939F93AF93BF93EF93FF93E091B3
:103E90000A02F0910B021995FF91EF91BF91AF913A
:103EA0009F918F917F916F915F914F913F912F9152
:103EB0000F900BBE0F900FBE0F901F9018951F9282
:103EC0000F920FB60F9211240BB60F922F933F93C0
:103ED0004F935F936F937F938F939F93AF93BF9312
:103EE000EF93FF93E0910C02F0910D021995FF9171
:103EF000EF91BF91AF919F918F917F916F915F9162
:103F00004F913F912F910F900BBE0F900FBE0F90CE
:103F10001F9018951F920F920FB60F9211240BB697
:103F20000F922F933F934F935F936F937F938F9352
:103F30009F93AF93BF93EF93FF93E0910E02F091A5
:103F40000F021995FF91EF91BF91AF919F918F91C2
:103F50007F916F915F914F913F912F910F900BBE89
:103F60000F900FBE0F901F9018951F920F920FB6D3
:103F70000F9211240BB60F922F933F934F935F93A1
:103F80006F937F938F939F93AF93BF93EF93FF9321
:103F9000E0911002F09111021995FF91EF91BF91FC
:103FA000AF919F918F917F916F915F914F913F91D1
:103FB0002F910F900BBE0F900FBE0F901F90189572
:103FC0001F920F920FB60F9211240BB60F922F93E0
:103FD0003F934F935F936F937F938F939F93AF9391
:103FE000BF93EF93FF93E0910602F09107021995BA
:103FF000FF91EF91BF91AF919F918F917F916F91C1
:104000005F914F913F912F910F900BBE0F900FBE7C
:104010000F901F9018951F920F920FB60F921124B8
:104020000BB60F922F933F934F935F936F937F93B2
:104030008F939F93AF93BF93EF93FF93E091080209
:10404000F09109021995FF91EF91BF91AF919F9166
:104050008F917F916F915F914F913F912F910F9031
:104060000BBE0F900FBE0F901F9018951F920F92CE
:104070000FB60F9211240BB60F922F933F934F93CD
:104080005F936F937F938F939F93AF93BF93EF93C0
:10409000FF93E0911202F09113021995FF91EF91B5
:1040A000BF91AF919F918F917F916F915F914F9150
:1040B0003F912F910F900BBE0F900FBE0F901F904E
:1040C00018951F920F920FB60F9211240BB60F92F4
:1040D0002F933F934F935F936F937F938F939F9310
:1040E000AF93BF93EF93FF93E0911402F091150209
:1040F0001995FF91EF91BF91AF919F918F917F9112
:104100006F915F914F913F912F910F900BBE0F9048
:104110000FBE0F901F9018951F920F920FB60F921F
:1041200011242F933F938F939F93AF93BF938091CD
:10413000470690914806A0914906B0914A063091F1
:10414000460623E0230F2D3720F40196A11DB11D53
:1041500005C026E8230F0296A11DB11D2093460637
:104160008093470690934806A0934906B0934A0669
:1041700080914B0690914C06A0914D06B0914E0651
:104180000196A11DB11D80934B0690934C06A09300
:104190004D06B0934E06BF91AF919F918F913F9185
:1041A0002F910F900FBE0F901F9018952FB7F89476
:1041B00060914706709148068091490690914A06A1
:1041C0002FBF08953FB7F89480914B0690914C060D
:1041D000A0914D06B0914E0626B5A89B05C02F3F75
:1041E00019F00196A11DB11D3FBF6627782F892FB9
:1041F0009A2F620F711D811D911D42E0660F771F7E
:10420000881F991F4A95D1F708958F929F92AF9278
:10421000BF92CF92DF92EF92FF926B017C01D2DFCF
:104220004B015C01C114D104E104F104E9F00E94E6
:104230009229C8DF681979098A099B09683E734089
:104240008105910578F321E0C21AD108E108F1084F
:1042500088EE880E83E0981EA11CB11CC114D10405
:10426000E104F10431F7DECFFF90EF90DF90CF90C3
:10427000BF90AF909F908F9008958230910538F055
:10428000880F991F880F991F05970197F1F70895D7
:10429000789484B5826084BD84B5816084BD85B521
:1042A000826085BD85B5816085BDEEE6F0E08081E8
:1042B00081608083E1E8F0E0108280818260808309
:1042C000808181608083E0E8F0E08081816080838C
:1042D000E1EBF0E0808184608083E0EBF0E08081BE
:1042E00081608083E1E9F0E0808182608083808169
:1042F00081608083E0E9F0E0808181608083E1EA91
:10430000F0E0808182608083808181608083E0EA48
:10431000F0E0808181608083E1E2F1E08081826071
:104320008083808181608083E0E2F1E08081816030
:104330008083EAE7F0E0808184608083808182600E
:1043400080838081816080838081806880831092F7
:10435000C100089590E0FC013197E231F10508F0C9
:104360004CC0E758FF4F0C94F02B809180008F7762
:1043700003C0809180008F7D80938000089580919C
:104380008000877FF9CF84B58F7702C084B58F7D99
:1043900084BD08958091B0008F7703C08091B000F4
:1043A0008F7D8093B0000895809190008F7707C033
:1043B000809190008F7D03C080919000877F8093D3
:1043C000900008958091A0008F7707C08091A00091
:1043D0008F7D03C08091A000877F8093A000089507
:1043E000809120018F7707C0809120018F7D03C0CD
:1043F00080912001877F809320010895CF93DF93E0
:1044000090E0FC01E45AFE4F2491FC01EE55FE4F72
:104410008491882349F190E0880F991FFC01EE5F99
:10442000FD4FA591B49188519E4FFC01C591D49147
:104430009FB7611108C0F8948C91209582238C93CA
:10444000888182230AC0623051F4F8948C91322F13
:10445000309583238C938881822B888304C0F894C1
:104460008C91822B8C939FBFDF91CF9108950F93F6
:104470001F93CF93DF931F92CDB7DEB7282F30E085
:10448000F901EA5EFE4F8491F901E45AFE4F14915E
:10449000F901EE55FE4F04910023C1F0882319F075
:1044A000698358DF6981E02FF0E0EE0FFF1FE851CC
:1044B000FE4FA591B4919FB7F8948C91611103C000
:1044C0001095812301C0812B8C939FBF0F90DF91AA
:1044D000CF911F910F910895FC01818D228D90E065
:1044E000805C9F4F821B91098F7399270895FC016F
:1044F000918D828D981731F0828DE80FF11D858D99
:1045000090E008958FEF9FEF0895FC01918D828DCB
:10451000981761F0828DDF01A80FB11D5D968C9117
:10452000928D9F5F9F73928F90E008958FEF9FEF22
:1045300008958CE394E2892B39F080E090E0892B98
:1045400019F09AD1811125C080E090E0892B41F0CB
:1045500080E090E0892B21F00E94000081111CC0B6
:1045600080E090E0892B41F080E090E0892B21F001
:104570000E940000811113C080E090E0892BA1F01F
:1045800080E090E0892B81F00E94000081110AC038
:1045900008950E940000D8CF0E940000E1CF0E9441
:1045A0000000EACF0C9400000895FC01848DDF0127
:1045B000A80FB11DA35ABF4F2C91848D90E0019696
:1045C0008F739927848FA689B7892C93A089B18985
:1045D0008C9180648C93938D848D981306C002888F
:1045E000F389E02D80818F7D80830895CF93DF93C1
:1045F000EC01888D8823C1F0EA89FB89808185FDE3
:1046000005C0A889B9898C9186FD0EC00FB607FC3C
:10461000F5CF808185FFF2CFA889B9898C9185FF7C
:10462000EDCFCE01C2DFE8CFDF91CF910895CF92D9
:10463000DF92FF920F931F93CF93DF931F92CDB71B
:10464000DEB76C0181E0D60158968C9358975B9643
:104650009C915B975C968C915C97981307C05096E1
:10466000ED91FC915197808185FD2DC0F601038D60
:1046700010E00F5F1F4F0F731127F02EF601848D8E
:10468000F81210C00FB607FCF9CFD6015096ED9185
:10469000FC915197808185FFF1CFC601698385DF49
:1046A0006981ECCF838DE80FF11DE35AFF4F6083E2
:1046B000D6015B960C935B975296ED91FC915397C4
:1046C000808180620CC0D6015696ED91FC9157977F
:1046D00060835096ED91FC91519780818064808336
:1046E00081E090E00F90DF91CF911F910F91FF90AB
:1046F000DF90CF900895BF92CF92DF92EF92FF921A
:10470000CF93DF93EC016A017B01B22EE889F9892E
:1047100082E08083411581EE580761057105A1F0A3
:1047200060E079E08DE390E0A70196010E94B22B52
:1047300021503109410951095695479537952795DB
:10474000211580E1380798F0E889F989108260E83E
:1047500074E88EE190E0A70196010E94B22B2150EF
:104760003109410951095695479537952795EC85AB
:10477000FD853083EE85FF852083188EEC89FD89C9
:10478000B082EA89FB89808180618083EA89FB8924
:10479000808188608083EA89FB898081806880834A
:1047A000EA89FB8980818F7D8083DF91CF91FF90A3
:1047B000EF90DF90CF90BF9008951F920F920FB6A9
:1047C0000F9211240BB60F922F938F939F93EF9319
:1047D000FF93E0915F06F09160068081E0916506AD
:1047E000F091660682FD12C09081809168068F5F0D
:1047F0008F7320916906821751F0E0916806F0E00E
:10480000E15BF94F958F8093680601C08081FF912D
:10481000EF919F918F912F910F900BBE0F900FBE34
:104820000F901F9018951F920F920FB60F921124A0
:104830000BB60F922F933F934F935F936F937F939A
:104840008F939F93AF93BF93EF93FF938FE496E083
:10485000ACDEFF91EF91BF91AF919F918F917F91CE
:104860006F915F914F913F912F910F900BBE0F90E1
:104870000FBE0F901F9018958FE496E02DDE21E07B
:10488000892B09F420E0822F08951092520610928D
:10489000510688EE93E0A0E0B0E080935306909339
:1048A0005406A0935506B09356068DE694E0909377
:1048B000500680934F0685EC90E090935C068093C1
:1048C0005B0684EC90E090935E0680935D0680EC3E
:1048D00090E09093600680935F0681EC90E0909367
:1048E00062068093610682EC90E090936406809368
:1048F000630686EC90E090936606809365061092BE
:1049000068061092690610926A0610926B06089566
:10491000CF92DF92EF92FF920F931F93CF93DF938B
:104920007C016A01EB0100E010E00C151D0571F03F
:104930006991D701ED91FC910190F081E02DC701C3
:104940001995892B19F00F5F1F4FEFCFC801DF9129
:10495000CF911F910F91FF90EF90DF90CF9008952E
:104960006115710581F0DB010D900020E9F7AD01C3
:1049700041505109461B570BDC01ED91FC9102801F
:10498000F381E02D199480E090E00895DC01ED9131
:10499000FC91DB0114964D915C9115976D917C9182
:1049A0000280F381E02D1994DC01ED91FC910190DE
:1049B000F081E02D199469E774E0D2CF0F931F9333
:1049C000CF93DF93EC01E2DF8C01CE01F4DF800FA7
:1049D000911FDF91CF911F910F9108950F931F9316
:1049E000CF93DF93EC01BCDF8C01CE01E4DF800FBD
:1049F000911FDF91CF911F910F9108950F931F93F6
:104A0000CF93DF93EC01D0DF8C01CE01D4DF800F98
:104A1000911FDF91CF911F910F9108958F929F92D7
:104A2000AF92BF92DF92EF92FF920F931F93CF93BB
:104A3000DF93CDB7DEB7A1970FB6F894DEBF0FBEF8
:104A4000CDBF7C01F42FD52ECB0119A2223008F462
:104A50002AE08E010F5D1F4F822E912CA12CB12CCC
:104A60006F2F7D2DA50194017DD6F22FD32ECA0183
:104A7000015011096A3014F4E0E301C0E7E3E60FE6
:104A8000D801EC93232B242B252B51F7B801C70118
:104A900067DFA1960FB6F894DEBF0FBECDBFDF91E2
:104AA000CF911F910F91FF90EF90DF90BF90AF904B
:104AB0009F908F900895CF92DF92EF92FF920F9385
:104AC0001F93CF93DF93EC016A017B012115310520
:104AD00079F4E881F9810190F081E02D642FDF9174
:104AE000CF911F910F91FF90EF90DF90CF9019948D
:104AF0002A303105D9F477FF18C06DE255DF8C01FB
:104B000044275527BA014C195D096E097F092AE02F
:104B1000CE0184DF800F911FDF91CF911F910F9104
:104B2000FF90EF90DF90CF9008952AE0B701A601A3
:104B3000CE01DF91CF911F910F91FF90EF90DF9009
:104B4000CF906CCF2115310541F4DC01ED91FC9142
:104B50000190F081E02D642F199460CF9A01AB0190
:104B600060E070E0EFCF0F931F93CF93DF93EC01E2
:104B70009A01AB0160E070E0E5DF8C01CE011BDF44
:104B8000800F911FDF91CF911F910F9108954F9248
:104B90005F926F927F928F929F92AF92BF92CF92CD
:104BA000DF92EF92FF920F931F93CF93DF93EC016D
:104BB0006A017B01B22E9A01AB01C701B601CED5C5
:104BC000882319F06CE774E024C026013701E894CB
:104BD00077F82FEF3FEF4FE75FE7C301B201BED594
:104BE00081110CC02FEF3FEF4FE75FE7C301B20128
:104BF000FFD318161CF460E874E00BC02FEF3FEFF2
:104C00004FE75FE4C701B60142D51816A4F464E883
:104C100074E0CE01DF91CF911F910F91FF90EF9043
:104C2000DF90CF90BF90AF909F908F907F906F90CC
:104C30005F904F9095CE2FEF3FEF4FE75FECC701AE
:104C4000B601D6D387FDE3CF20E030E0A901C7014C
:104C5000B601CED387FF09C06DE2CE01A5DE8C017F
:104C6000F7FAF094F7F8F09402C000E010E0A12CFD
:104C700060E070E080E09FE3AB1439F020E030E0CA
:104C800040E251E4B9D3A394F7CF9B01AC01C70133
:104C9000B6014AD36B017C011CD42B013C0145D4E5
:104CA0009B01AC01C701B6013ED36B017C012AE038
:104CB000B301A201CE01B2DE080F191FBB2031F0F3
:104CC00068E874E0CE014CDE080F191F7B2C7720BA
:104CD00019F120E030E040E251E4C701B601DBD435
:104CE0006B017C01F1D34B01AA2497FCA094BA2C50
:104CF0002AE030E0B501A401CE01DDDE080F191F66
:104D0000C501B40114D49B01AC01C701B6010BD39A
:104D10006B017C017A94DBCFC801DF91CF911F91A9
:104D20000F91FF90EF90DF90CF90BF90AF909F904A
:104D30008F907F906F905F904F9008950F931F9387
:104D4000CF93DF93EC0123DF8C01CE0134DE800FA3
:104D5000911FDF91CF911F910F9108950F931F9392
:104D6000CF93DF93EC0122DA688779878A879B8764
:104D7000E881F9810680F781E02DCE01199597FF32
:104D800014C014DA088519852A853B85601B710BD0
:104D9000820B930B0C811D812E813F81601771075F
:104DA0008207930728F38FEF9FEFDF91CF911F9139
:104DB0000F910895EF92FF920F931F93CF93DF937C
:104DC000EC018B01E42E6BE774E07FD0C801C6DFF5
:104DD000FF24E7FCF09497FD09C08E159F0531F084
:104DE000682FCE0115D1C801B9DFF5CFCE01DF9113
:104DF000CF911F910F91FF90EF900895FC0180815A
:104E00009181C9C5CF93DF93EC0188819981009787
:104E100009F0C1D5198218821D821C821B821A8258
:104E2000DF91CF9108950F931F93CF93DF93EC0100
:104E30008B016F5F7F4F888199813CD6009731F05D
:104E4000998388831B830A8381E001C080E0DF911E
:104E5000CF911F910F910895CF93DF93EC0188813B
:104E60009981892B29F08A819B818617970758F4AD
:104E7000CE01D9DF882341F08C819D81892B19F4E3
:104E8000E881F981108281E0DF91CF910895EF925E
:104E9000FF920F931F93CF93DF93EC017B018A0165
:104EA000BA01DADF811103C0CE01ACDF06C01D8379
:104EB0000C83B701888199812FD7CE01DF91CF91E3
:104EC0001F910F91FF90EF900895FC0111821082C5
:104ED00013821282158214826115710551F0FB0153
:104EE00001900020E9F7AF0141505109461B570BD3
:104EF000CECF08950F931F93CF93DF938C01EB01D7
:104F0000FC0180819181009789F0428153812C813D
:104F10003D814217530748F068817981FDD68C8125
:104F20009D81F8019583848312C035D5888199814C
:104F3000F801918380838A819B81938382838C8112
:104F40009D8195838483198218821B821A821D8217
:104F50001C82DF91CF911F910F910895CF93DF9322
:104F6000EC018617970709F0C5DFCE01DF91CF91DD
:104F70000895CF93DF93EC016115710559F0FB01A2
:104F800001900020E9F7AF0141505109461B570B32
:104F90007EDF01C037DFCE01DF91CF910895EF9220
:104FA000FF920F931F93CF93DF93EC017B010C8152
:104FB0001D816115710511F480E014C04115510582
:104FC00081F0040F151FB80147DF8823A9F328815A
:104FD00039818C819D81B701820F931F9DD61D83DE
:104FE0000C8381E0DF91CF911F910F91FF90EF90A3
:104FF00008956115710551F0FB0101900020E9F75A
:10500000AF0141505109461B570BC9CF80E00895AD
:10501000CF93DF931F921F92CDB7DEB769831A82B9
:1050200041E050E0BE016F5F7F4FB9DF0F900F90FE
:10503000DF91CF910895EF92FF920F931F93CF933B
:10504000DF9300D01F92CDB7DEB77C01862F4AE0F8
:105050008E010F5F1F4FB80190E07FD6F8010190DD
:105060000020E9F7AF0141505109401B510BB80135
:10507000C70195DF0F900F900F900F90DF91CF91A8
:105080001F910F91FF90EF900895EF92FF920F9371
:105090001F93CF93DF93CDB7DEB728970FB6F89461
:1050A000DEBF0FBECDBF7C01CB014AE08E010F5F9A
:1050B0001F4FB80152D6F80101900020E9F7AF0167
:1050C00041505109401B510BB801C70168DF2896B8
:1050D0000FB6F894DEBF0FBECDBFDF91CF911F9109
:1050E0000F91FF90EF900895EF92FF920F931F930F
:1050F000CF93DF93CDB7DEB727970FB6F894DEBF17
:105100000FBECDBF7C01CB014AE08E010F5F1F4F68
:10511000B80142D6F80101900020E9F7AF014150F3
:105120005109401B510BB801C70139DF27960FB653
:10513000F894DEBF0FBECDBFDF91CF911F910F91CD
:10514000FF90EF900895EF92FF920F931F93CF93EC
:10515000DF93CDB7DEB764970FB6F894DEBF0FBE0E
:10516000CDBF7C01CB01BA018E010F5F1F4F22E042
:1051700044E059D3FC0101900020E9F7AF01415010
:105180005109481B590BBC01C70109DF64960FB6D2
:10519000F894DEBF0FBECDBFDF91CF911F910F916D
:1051A000FF90EF900895FC0124813581232B31F489
:1051B00021E06115710599F0FB0108C0FC018081B7
:1051C00091816115710531F421E0FC018081882312
:1051D00031F004C098D521E0892B09F020E0822F1E
:1051E0000895CF93DF93FC01848195814817590777
:1051F00070F4C081D181772767FD7095CE01840F4F
:10520000951F76D5009719F08C1B9D0B02C08FEF70
:105210009FEFDF91CF91089540E050E0E2CFCF9330
:10522000DF93FC01848195814817590770F4C08190
:10523000D181FB0160817181CE01840F951F73D5EF
:10524000009719F08C1B9D0B02C08FEF9FEFDF9131
:10525000CF91089540E050E0E2CFBF92CF92DF922D
:10526000EF92FF920F931F93CF93DF936C017B011B
:10527000EA0189012417350720F48D2FE901042F55
:10528000182F6BE774E0C60120DED70114968D91CC
:105290009C911597C817D907C0F48017910708F497
:1052A0008C01D701ED91FC911197E00FF11FB080B7
:1052B00010826D917C916C0F7D1FC6015ADED70163
:1052C000ED91FC91E00FF11FB082C601DF91CF910B
:1052D0001F910F91FF90EF90DF90CF90BF900895B6
:1052E000FC0180819181009709F0CBC460E070E0FF
:1052F000CB010895FC0180819181009709F0BEC423
:1053000060E070E0CB01089508950E944821FCDF21
:105310000E946E09C9E9D2E20E94CC0C2097E1F309
:1053200008D9FACF08955058BB27AA270ED075C1C7
:1053300066D130F06BD120F031F49F3F11F41EF4B0
:105340005BC10EF4E095E7FB51C1E92F77D180F303
:10535000BA17620773078407950718F071F49EF572
:105360008FC10EF4E0950B2EBA2FA02D0B01B901C1
:1053700090010C01CA01A0011124FF27591B99F0CB
:10538000593F50F4503E68F11A16F040A22F232FD7
:10539000342F4427585FF3CF469537952795A79527
:1053A000F0405395C9F77EF41F16BA0B620B730BCE
:1053B000840BBAF09150A1F0FF0FBB1F661F771F3F
:1053C000881FC2F70EC0BA0F621F731F841F48F4F4
:1053D000879577956795B795F7959E3F08F0B3CF7A
:1053E0009395880F08F09927EE0F97958795089564
:1053F000D9D008F481E008950CD00FC107D140F056
:10540000FED030F021F45F3F19F0F0C0511139C1E6
:10541000F3C014D198F39923C9F35523B1F3951B25
:10542000550BBB27AA2762177307840738F09F5FC5
:105430005F4F220F331F441FAA1FA9F333D00E2E34
:105440003AF0E0E830D091505040E695001CCAF7A1
:1054500029D0FE2F27D0660F771F881FBB1F261766
:1054600037074807AB07B0E809F0BB0B802DBF0139
:10547000FF2793585F4F2AF09E3F510568F0B6C052
:1054800000C15F3FECF3983EDCF386957795679516
:10549000B795F7959F5FC9F7880F911D96958795EA
:1054A00097F90895E1E0660F771F881FBB1F621709
:1054B00073078407BA0720F0621B730B840BBA0BC7
:1054C000EE1F88F7E095089504D06894B111D9C013
:1054D0000895BCD088F09F5790F0B92F9927B75105
:1054E000A0F0D1F0660F771F881F991F1AF0BA95A8
:1054F000C9F712C0B13081F0C3D0B1E00895C0C087
:10550000672F782F8827B85F39F0B93FCCF386959D
:1055100077956795B395D9F73EF4909580957095FA
:1055200061957F4F8F4F9F4F0895E89409C097FB77
:105530003EF490958095709561957F4F8F4F9F4F6A
:105540009923A9F0F92F96E9BB279395F6958795AE
:1055500077956795B795F111F8CFFAF4BB0F11F471
:1055600060FF1BC06F5F7F4F8F4F9F4F16C0882318
:1055700011F096E911C0772321F09EE8872F762F4E
:1055800005C0662371F096E8862F70E060E02AF08F
:105590009A95660F771F881FDAF7880F969587957B
:1055A00097F90895990F0008550FAA0BE0E8FEEF50
:1055B00016161706E807F907C0F012161306E407D7
:1055C000F50798F0621B730B840B950B39F40A26D0
:1055D00061F0232B242B252B21F408950A2609F4AE
:1055E000A140A6958FEF811D811D089597F99F67B2
:1055F00080E870E060E008959FEF80EC089500245B
:105600000A941616170618060906089500240A9427
:1056100012161306140605060895092E0394000CAD
:1056200011F4882352F0BB0F40F4BF2B11F460FF3C
:1056300004C06F5F7F4F8F4F9F4F089557FD905865
:10564000440F551F59F05F3F71F04795880F97FB46
:10565000991F61F09F3F79F0879508951216130600
:105660001406551FF2CF4695F1DF08C0161617062F
:105670001806991FF1CF8695710561050894089564
:10568000E894BB2766277727CB0197F908958ADF2F
:1056900008F48FEF08950BD0C0CFB1DF28F0B6DF4C
:1056A00018F0952309F0A2CFA7CF1124EACFC6DFC7
:1056B000A0F3959FD1F3950F50E0551F629FF00125
:1056C000729FBB27F00DB11D639FAA27F00DB11D7E
:1056D000AA1F649F6627B00DA11D661F829F222707
:1056E000B00DA11D621F739FB00DA11D621F839F8E
:1056F000A00D611D221F749F3327A00D611D231F64
:10570000849F600D211D822F762F6A2F11249F57B1
:1057100050408AF0E1F088234AF0EE0FFF1FBB1FD4
:10572000661F771F881F91505040A9F79E3F510573
:1057300070F05CCFA6CF5F3FECF3983EDCF386952C
:1057400077956795B795F795E7959F5FC1F7FE2B1E
:10575000880F911D9695879597F9089523DF880BFB
:10576000990B0895A1E21A2EAA1BBB1BFD010DC0C7
:10577000AA1FBB1FEE1FFF1FA217B307E407F50701
:1057800020F0A21BB30BE40BF50B661F771F881FDD
:10579000991F1A9469F760957095809590959B0173
:1057A000AC01BD01CF010895052E97FB16F40094BE
:1057B0000FD057FD05D0D6DF07FC02D046F408C055
:1057C00050954095309521953F4F4F4F5F4F08952D
:1057D00090958095709561957F4F8F4F9F4F08955D
:1057E000EE0FFF1F0590F491E02D19940DD0A59FA9
:1057F000900DB49F900DA49F800D911D11240895CC
:105800000790F691E02D1994A29FB001B39FC001BB
:10581000A39F700D811D1124911DB29F700D811DDC
:105820001124911D0895EF920F931F93CF93DF934F
:10583000E80147FF02C034E101C034E0E42FFF2754
:10584000E7FDF095F7FF03C0F195E195F109E32E2F
:10585000022F2E2FAE01CFD2CE01DF91CF911F911B
:105860000F91EF900895CF93DF938230910510F45C
:1058700082E090E0E091EE06F091EF0620E030E06B
:10588000A0E0B0E0309739F14081518148175907C5
:10589000B8F04817590771F482819381109729F065
:1058A00013969C938E9312972CC09093EF0680933F
:1058B000EE0627C02115310531F04217530718F0C5
:1058C000A901DB0101C0EF019A01BD01DF010280E6
:1058D000F381E02DD7CF21153105F9F0281B390BC5
:1058E0002430310580F48A819B816115710521F096
:1058F000FB019383828304C09093EF068093EE06AE
:10590000FE01329644C0FE01E20FF31F8193919392
:1059100022503109398328833AC02091EC06309116
:10592000ED06232B41F420910202309103023093C3
:10593000ED062093EC062091000230910102211522
:10594000310541F42DB73EB7409104025091050254
:10595000241B350BE091EC06F091ED06E217F307FE
:10596000A0F42E1B3F0B2817390778F0AC014E5FCF
:105970005F4F2417350748F04E0F5F1F5093ED0619
:105980004093EC068193919302C0E0E0F0E0CF01F8
:10599000DF91CF910895CF93DF93009709F487C0EB
:1059A000FC01329713821282C091EE06D091EF066D
:1059B000209781F420813181280F391F8091EC06D6
:1059C0009091ED068217930779F5F093ED06E09339
:1059D000EC066DC0DE0120E030E0AE17BF0750F4EA
:1059E00012964D915C9113979D014115510509F156
:1059F000DA01F3CFB383A28340815181840F951FD5
:105A00008A179B0771F48D919C911197840F951FB4
:105A100002969183808312968D919C911397938324
:105A200082832115310529F4F093EF06E093EE0609
:105A30003EC0D9011396FC93EE9312974D915D9160
:105A4000A40FB51FEA17FB0779F480819181840FB9
:105A5000951F0296D90111969C938E938281938112
:105A600013969C938E931297E0E0F0E08A819B81DD
:105A7000009719F0FE01EC01F9CFCE0102962881C2
:105A80003981820F931F2091EC063091ED06281783
:105A9000390769F4309729F41092EF061092EE0658
:105AA00002C013821282D093ED06C093EC06DF9100
:105AB000CF9108956F927F928F929F92AF92BF92F3
:105AC000CF92DF92EF92FF920F931F93CF93DF93CA
:105AD000EC01CB01209779F4DF91CF911F910F91C9
