:10000000ABC100000C94A01A0C94CB1A0C94F61AF5
:100010000C94211B0C944C1B0C94771B0C94A21B6E
:100020000C94CD1BCAC10000C8C10000C6C10000AD
:10003000C4C10000C2C10000C0C10000BEC10000B8
:10004000BCC10000BAC10000B8C10000B6C10000C8
:10005000B4C10000B2C10000B0C100000C94F81B94
:10006000ACC100000C94491F0C947F1FA6C1000076
:10007000A4C10000A2C10000A0C100009EC10000F8
:100080009CC100009AC1000098C100000C94451961
:1000900094C1000092C1000090C100008EC1000018
:1000A0008CC100008AC1000088C1000086C1000028
:1000B00084C1000082C1000080C100007EC1000038
:1000C0007CC100007AC1000078C1000076C1000048
:1000D00074C1000072C1000070C100006EC1000058
:1000E0006CC100007A1A441A4C1A581A651A861AFA
:1000F000931A2F1D321D211D251D2B1D691D361D17
:100100003A1D401D441D481D4E1D521D561D691DA2
:100110005C1D601D641D00000A0B02090C0D0E0819
:1001200007030401000000000000000000000000C0
:1001300000000000000000000000000000000000BF
:10014000000012111000000000000000000000007C
:10015000000000000000000000000000010210206C
:1001600020080810204010204080020102010804ED
:100170000201010204081020408080402010080481
:1001800002018004020180402010080402010804DA
:10019000020101020408102040800102040810201E
:1001A0004080050505050705080808080202020247
:1001B0000A0A080804040404010101010101010103
:1001C0000303030303030303040707070C0C0C0CCE
:1001D0000C0C0C0C020202020606060606060606B7
:1001E0000B0B0B0B0B0B0B0B000022002500280048
:1001F0002B002E003100340002010000050108012F
:100200000B0100002100240027002A002D003000EF
:10021000330001010000040107010A014E414E496B
:100220004E495459494E46CDCCCC3D0AD7233C17B4
:10023000B7D13877CC2B329595E6241FB14F0A0001
:100240000020410000C84200401C4620BCBE4CCAF1
:100250001B0E5AAEC59D7400407A10F35A00A0726E
:100260004E18090010A5D4E80000E87648170000F1
:10027000E40B54020000CA9A3B000000E1F50500BF
:100280000080969800000040420F000000A0860108
:10029000000000102700000000E8030000000064D8
:1002A00000000000000A0000000000010000000043
:1002B000002C76D888DC674F0823DFC1DFAE59E118
:1002C000B1B796E5E3E453C63AE651997696E8E687
:1002D000C28426EB898C9B62ED407C6FFCEFBC9C5A
:1002E0009F40F2BAA56FA5F490055A2AF75C936B6C
:1002F0006CF9676DC11BFCE0E40D47FEF520E6B527
:1003000000D0ED902E0300943577050080841E0800
:100310000000204E0A000000C80C333333330F981E
:100320006E12831141EF8D2114893BE65516CFFEE5
:10033000E6DB18D1844B381BF77C1D901DA4BBE471
:1003400024203284725E228100C9F124ECA1E53DB3
:1003500027008C0CB11F9E0C11241FBECFEFD1E2E1
:10036000DEBFCDBF00E00CBF14E0A0E0B2E0E0ECE7
:10037000FCE500E00BBF02C007900D92AA38B10760
:10038000D9F726E0AAE8B4E001C01D92A43EB20766
:10039000E1F713E0C6E5D3E000E006C022970109CB
:1003A000FE010BBF0E946C27C235D10780E0080711
:1003B000A9F70E94F1240C944F2E22CE809176054D
:1003C00090917705A0917805B09179050196A11DCE
:1003D000B11D8093760590937705A0937805B0932F
:1003E000790508958091720590917305A091740527
:1003F000B09175050196A11DB11D80937205909372
:100400007305A0937405B093750508958AE894E088
:100410000E946A2284E895E00E946A228AE895E0B8
:100420000C946A220C94592A8EBD00000DB407FE6C
:10043000FDCF8EB508952CB5982F93702C7F922BFD
:100440009CBD9DB582FB882780F99E7F982B9DBD22
:1004500008958CB5837F84608CBD60E08CE10E9440
:10046000A31D80E0E8DF82E390E00C94A91C61E02A
:100470008CE10E94A31D82E390E00E94A91C8CB530
:10048000837F8CBD0895CF93DF931F921F92CDB7CA
:10049000DEB76A838983DDDF89818068C5DF6A8191
:1004A000862FC2DF0F900F90DF91CF91E0CF1F9387
:1004B000CF93DF931F921F92CDB7DEB7182F6A83B9
:1004C0007983C7DF82E390E00E94A91C812F8068B6
:1004D000ABDF82E390E00E94A91C7981872FA4DF23
:1004E00082E390E00E94A91C6A81862F9DDF82E34F
:1004F00090E00E94A91C0F900F90DF91CF911F9167
:10050000B6CF1F93CF93DF9300D0CDB7DEB7182FB0
:100510004B835A8369839DDF82E390E00E94A91C8C
:10052000812F806881DF82E390E00E94A91C6981AD
:10053000862F7ADF82E390E00E94A91C5A81852FE2
:1005400073DF82E390E00E94A91C4B81842F6CDF53
:1005500082E390E00E94A91C0F900F900F90DF9112
:10056000CF911F9184CFCF93DF93C82F72DF82E3A7
:1005700090E00E94A91C8C2F57DF82E390E00E943C
:10058000A91C80E051DFC82F82E390E00E94A91CE3
:1005900080E04ADFD82F82E390E00E94A91C67DF49
:1005A0008D2F90E09C2BDF91CF9108950F931F9397
:1005B000CF93182F4EDF82E390E00E94A91C812F79
:1005C00033DF82E390E00E94A91C80E02DDF182F2A
:1005D00082E390E00E94A91C80E026DF082F82E3DE
:1005E00090E00E94A91C80E01FDFC82F82E390E00A
:1005F0000E94A91C3CDF6C2F70E080E090E0812B12
:1006000010E0102F002720E030E0602B712B822BB0
:10061000932BCF911F910F9108950F931F93F894EF
:1006200080918305882309F410C18AE1BFDF80919E
:100630009005813071F58AE0B9DF0091A80510912D
:10064000A9052091AA053091AB05600F711F821F8B
:10065000931F6093A8057093A9058093AA059093B2
:10066000AB058BE0A3DF0091A4051091A5052091B7
:10067000A6053091A705600F711F821F931F60931D
:10068000A4057093A5058093A6059093A7058CE01B
:1006900032C080919005823009F04CC08DE086DF39
:1006A0000091A8051091A9052091AA053091AB05EC
:1006B000600F711F821F931F6093A8057093A90597
:1006C0008093AA059093AB058EE070DF0091A4059E
:1006D0001091A5052091A6053091A705600F711F07
:1006E000821F931F6093A4057093A5058093A605B0
:1006F0009093A7058FE05ADF0091A0051091A10506
:100700002091A2053091A305600F711F821F931FD6
:100710006093A0057093A1058093A2059093A30513
:1007200080919E0590919F05019690939F058093DF
:100730009E058BC080919005833079F48DE036DF83
:10074000672B682B692B09F480C08AE02FDF672BA9
:10075000682B692B09F070C078C0809190058430B7
:1007600079F48DE023DF672B682B692B09F46DC0CA
:100770008AE01CDF672B682B692B09F06AC065C013
:1007800080919005853079F48DE010DF672B682B20
:10079000692B09F45AC08AE009DF672B682B692BA3
:1007A00009F061C052C080919005863079F48DE0E7
:1007B000FDDE672B682B692B09F447C08AE0F6DE63
:1007C000672B682B692B09F067C03FC080919005AB
:1007D000873071F48DE0EADE672B682B692BA9F175
:1007E0008AE0E4DE672B682B692B09F05FC02DC01F
:1007F00080919005883071F48DE0D8DE672B682BEE
:10080000692B19F18AE0D2DE672B682B692B09F07E
:1008100057C01BC0809190058930B9F48DE0C6DEC9
:10082000672B682B692B89F08AE0C0DE672B682B69
:10083000692B09F04FC009C0809198058F3F19F0CE
:10084000809198058F5F8093980578941F910F9100
:10085000089580919105811115C0809197058F5F52
:100860008093970509C08091910581110BC08091FB
:1008700096058F5F8093960510929D0510929C05BA
:1008800010928305809191058F3F19F08091910519
:100890008F5F80939105D9CF809191058111F2CF1F
:1008A000809195058F5F80939505E6CF80919105A6
:1008B0008111E8CF809194058F5F80939405DCCF00
:1008C000809191058111DECF809193058F5F809398
:1008D0009305D2CF809191058111D4CF809192055B
:1008E0008F5F80939205C8CF64E083E1CCDD88EC14
:1008F00090E00E94A91C6CEF84E1C5DD88EC90E0DB
:100900000E94A91C60E085E1BEDD88EC90E00E94B9
:10091000A91C6CE986E1B7DD88EC90E00E94A91C77
:1009200068E787E1B0DD88EC90E00E94A91C40E018
:1009300050E0BA0188E1E5DD88EC90E00E94A91C56
:100940006FEF7FEF8BE1B3DD88EC90E00E94A91C94
:100950006FEF7FEF8CE1ABDD88EC90E00E94A91C8B
:100960006FEF8DE190DD88EC90E00E94A91C60E0C3
:100970008EE189DD88EC90E00E94A91C6FEF8FE189
:1009800082DD88EC90E00E94A91C6FEF80E27BDDA5
:1009900088EC90E00E94A91C60919A0570919B05DB
:1009A0008AE285DD88EC90E00E94A91C60919A059E
:1009B00070919B058BE27BDD88EC90E00E94A91C86
:1009C00060919A0570919B058CE271DD88EC90E056
:1009D0000E94A91C60919A0570919B0580E367DDD8
:1009E00088EC90E00E94A91C60919A0570919B058B
:1009F00081E35DDD88EC90E00E94A91C60919A057E
:100A000070919B0582E353DD88EC90E00E94A91C65
:100A100060919A0570919B058DE249DD88EC90E02C
:100A20000E94A91C60919A0570919B058EE23FDDA2
:100A300088EC90E00E94A91C60919A0570919B053A
:100A40008FE235DD88EC90E00E94A91C109226050B
:100A500010922705109228051092290510922A0558
:100A600010922B0510922C0510922D0510922E0538
:100A700010922F05109230051092310510921A0530
:100A800010921B0510921C0510921D0510921E0558
:100A900010921F0510922005109221051092220538
:100AA000109223051092240510922505109232050C
:100AB00010923305109234051092350510923605C8
:100AC00010923705109238051092390510923A05A8
:100AD00010923B0510923C0510923D051092A8051E
:100AE0001092A9051092AA051092AB051092A405C8
:100AF0001092A5051092A6051092A7051092A005C8
:100B00001092A1051092A2051092A3051092E6047E
:100B10001092E7041092E8041092E9041092E204A3
:100B20001092E3041092E4041092E5041092DE04A3
:100B30001092DF041092E0041092E1041092DA04A3
:100B40001092DB041092DC041092DD041092D604A3
:100B50001092D7041092D8041092D9041092D204A3
:100B60001092D3041092D4041092D5041092CE04A3
:100B70001092CF041092D0041092D1041092CA04A3
:100B80001092CB041092CC041092CD041092C604A3
:100B90001092C7041092C8041092C90481E0E3DCEB
:100BA00082E0E1DC83E0DFDC87E0DDDC88E0DBDCC9
:100BB00089E0D9DC84E0D7DC85E0D5DC86E0D3CCE5
:100BC000CF92DF92EF92FF920F931F93DC01FB0114
:100BD000C080D180E280F380A701772757FD709510
:100BE000672F0D911D912D913C911397F7FE14C025
:100BF0004F5F5F4F6F4F7F4F400F511F621F731F3B
:100C00004D935D936D937C93139780819181A28125
:100C1000B381AF6FBF6F0FC0400F511F621F731FB3
:100C20004D935D936D937C93139780819181A28105
:100C3000B381AA27BB2780839183A283B3831F91AB
:100C40000F91FF90EF90DF90CF9008954091A00416
:100C50005091A104662757FD6095762F8091C204BC
:100C60009091C304A091C404B091C504840F951F52
:100C7000A61FB71F8093C2049093C304A093C4041B
:100C8000B093C50440919E0450919F04662757FD80
:100C90006095762F8091BE049091BF04A091C0040E
:100CA000B091C104840F951FA61FB71F8093BE0487
:100CB0009093BF04A093C004B093C10440919C04DE
:100CC00050919D04662757FD6095762F8091BA0458
:100CD0009091BB04A091BC04B091BD04840F951FFA
:100CE000A61FB71F8093BA049093BB04A093BC04C3
:100CF000B093BD0440919A0450919B04662757FD20
:100D00006095762F8091B6049091B704A091B804B5
:100D1000B091B904840F951FA61FB71F8093B60426
:100D20009093B704A093B804B093B9044091980489
:100D300050919904662757FD6095762F8091B204F3
:100D40009091B304A091B404B091B504840F951FA1
:100D5000A61FB71F8093B2049093B304A093B4046A
:100D6000B093B5044091960450919704662757FDBF
:100D70006095762F8091AE049091AF04A091B0045D
:100D8000B091B104840F951FA61FB71F8093AE04C6
:100D90009093AF04A093B004B093B1044091940435
:100DA00050919504662757FD6095762F8091AA048F
:100DB0009091AB04A091AC04B091AD04840F951F49
:100DC000A61FB71F8093AA049093AB04A093AC0412
:100DD000B093AD044091920450919304662757FD5F
:100DE0006095762F8091A6049091A704A091A80405
:100DF000B091A904840F951FA61FB71F8093A60466
:100E00009093A704A093A804B093A90440919004E0
:100E100050919104662757FD6095762F8091A2042A
:100E20009091A304A091A404B091A504840F951FF0
:100E3000A61FB71F8093A2049093A304A093A404B9
:100E4000B093A50462EC74E086EE94E0B9DE6EEB3C
:100E500074E082EE94E0B4DE6AEB74E08EED94E030
:100E6000AFDE66EB74E08AED94E0AADE62EB74E03C
:100E700086ED94E0A5DE6EEA74E082ED94E0A0DEFB
:100E80006AEA74E08EEC94E09BDE66EA74E08AEC39
:100E900094E096DE62EA74E086EC94E091DE609184
:100EA000E6047091E7048091E8049091E9040E94BF
:100EB0000326609326057093270580932805909359
:100EC00029056091E2047091E3048091E40490911B
:100ED000E5040E94032660932A0570932B058093F6
:100EE0002C0590932D056091DE047091DF048091B4
:100EF000E0049091E1040E94032660932E05709314
:100F00002F0580933005909331056091DA0470913C
:100F1000DB048091DC049091DD040E940326609341
:100F20001A0570931B0580931C0590931D05609115
:100F3000D6047091D7048091D8049091D9040E946E
:100F4000032660931E0570931F05809320059093E0
:100F500021056091D2047091D3048091D4049091C2
:100F6000D5040E9403266093220570932305809385
:100F70002405909325056091CE047091CF04809153
:100F8000D0049091D1040E9403266093320570939F
:100F9000330580933405909335056091CA047091B0
:100FA000CB048091CC049091CD040E9403266093E1
:100FB0003605709337058093380590933905609115
:100FC000C6047091C7048091C8049091C9040E941E
:100FD000032660933A0570933B0580933C059093FC
:100FE0003D05089581E0BFDA9093A1048093A004A9
:100FF00082E0B9DA90939F0480939E0483E0B3DA91
:1010000090939D0480939C0484E0ADDA90939B04BC
:1010100080939A0485E0A7DA9093990480939804CA
:1010200086E0A1DA909397048093960487E09BDA98
:10103000909395048093940488E095DA90939304B8
:101040008093920489E08FDA9093910480939004C6
:10105000FDCD80917F058111C5CF08954F925F929C
:101060006F927F928F929F92AF92BF92CF92DF92B8
:10107000EF92FF920F931F93CF93DF9300D01F92B5
:10108000CDB7DEB780918E0490918F04892BC1F18A
:1010900004EB15E0CE0101965C014E0195E0890E4E
:1010A000911CE12CF12C6801CA18DB08F601E4510F
:1010B000F64F6F01F801EE0DFF1D80819181A28135
:1010C000B38189839A83AB83BC83250136016E0C7F
:1010D0007F1CC201860D971DF20161912F01A2D9DB
:1010E00048145904B1F7F4E0EF0EF11C8CE0E81657
:1010F000F10401F7045F1F4F96E00431190789F6E8
:101100000F900F900F900F90DF91CF911F910F9143
:10111000FF90EF90DF90CF90BF90AF909F908F9017
:101120007F906F905F904F9008954F925F926F9273
:101130007F928F929F92AF92BF92CF92DF92EF9267
:10114000FF920F931F93CF93DF93CDB7DEB7C254B7
:10115000D1090FB6F894DEBF0FBECDBFCE01019707
:101160005C01C12CD12C750100E010E0C8018C0D90
:101170009D1D892B41F46CE28AE894E00E9478245A
:101180009A8389830DC0F701408151814F5F5F4F82
:101190006CE28AE894E00E945D24F70193838283E5
:1011A0000F5F1F4FF2E0EF0EF11C03301105F1F657
:1011B00086E0A80EB11C93E0C90ED11CE8E1CE1662
:1011C000D10489F644EB842E45E0942ECE0101979C
:1011D0005C01E12CF12C6501370100E010E02401F5
:1011E000400E511E6114710429F429813A8140E0B6
:1011F00050E007C0F60122813381408151814F5F69
:101200005F4F6AE874E0CE01CD960E949924CE012A
:10121000CD960E94E624F2016083718382839383DA
:10122000CE01CD960E946A22FFEF6F1A7F0A0C5FF3
:101230001F4F82E0C80ED11C0C30110581F69CE0D6
:10124000890E911CE3E0EE0EF11CF6E0AF0EB11C2E
:1012500088E1E816F10409F0BECF00DFCE5BDF4F76
:101260000FB6F894DEBF0FBECDBFDF91CF911F91B7
:101270000F91FF90EF90DF90CF90BF90AF909F9035
:101280008F907F906F905F904F90089561E08DE216
:101290000E946A1D61E08BE20E946A1D61E089E2A2
:1012A0000E946A1D61E08CE10E946A1D0E94FC1987
:1012B00083E0C1D88CB5837F84608CBD8CB58F7D75
:1012C0008CBD26E040E052EC61E070E081E496E005
:1012D0000E94E71E6AE070E080E090E00E94711CCE
:1012E00060E082E00E946A1D60E083E00E946A1D67
:1012F00060E085E10E946A1D61E08DE20E94A31D0D
:1013000061E08BE20E94A31D61E089E20E94A31DBF
:1013100043E050E06DE073E081E00E942F1A43E06B
:1013200050E06EED71E080E00E942F1A43E050E043
:1013300062EF71E082E00E942F1A40E452E46FE015
:1013400070E082E396E00E94D31920EA36E841E09B
:1013500050E069E278E082E396E00E94E2190E94A0
:101360004E1C0C94421C60919A0570919B058AE278
:101370009ED888EC90E00E94A91C60919A0570911B
:101380009B058BE294D888EC90E00E94A91C6091A8
:101390009A0570919B058CE28AD888EC90E00E94B7
:1013A000A91C60919A0570919B058DE280D888EC0C
:1013B00090E00E94A91C60919A0570919B058EE2B5
:1013C00076D888EC90E00E94A91C60919A057091F3
:1013D0009B058FE26CD888EC90E00E94A91C60917C
:1013E0009A0570919B0580E362D888EC90E00E949A
:1013F000A91C60919A0570919B0581E358D888ECEF
:1014000090E00E94A91C60919A0570919B0582E36F
:101410004ED888EC90E00E94A91C6CEF84E133D890
:1014200088EC90E00E94A91C6FE887E12CD888EC3A
:1014300090E00E94A91C60919C0570919D058CE133
:1014400036D888EC90E00E94A91C8AE1AFD888ECDD
:1014500090E00E94A91C40E050E160E070E088E16B
:1014600050D888EC90E00E94A91C81E07CD882E0F2
:101470007AD883E078C860919A0570919B058AE2DA
:1014800016D888EC90E00E94A91C60919A05709192
:101490009B058BE20CD888EC90E00E94A91C60911F
:1014A0009A0570919B058CE202D888EC90E00E942E
:1014B000A91C60919A0570919B058DE20E945702CC
:1014C00088EC90E00E94A91C60919A0570919B05A0
:1014D0008EE20E94570288EC90E00E94A91C609165
:1014E0009A0570919B058FE20E94570288EC90E06C
:1014F0000E94A91C60919A0570919B0580E30E944F
:10150000570288EC90E00E94A91C60919A057091A6
:101510009B0581E30E94570288EC90E00E94A91C81
:1015200060919A0570919B0582E30E94570288ECB6
:1015300090E00E94A91C6CEF84E10E94430288ECB9
:1015400090E00E94A91C6FE887E10E94430288ECAA
:1015500090E00E94A91C60919C0570919D058CE112
:101560000E94570288EC90E00E94A91C8AE11ED8D4
:1015700088EC90E00E94A91C40E050E160E070E03F
:1015800088E10E94810288EC90E00E94A91C87E01B
:101590000E94B30288E00E94B30289E00C94B30277
:1015A00060919A0570919B058AE20E94570288EC2F
:1015B00090E00E94A91C60919A0570919B058BE2B6
:1015C0000E94570288EC90E00E94A91C60919A0545
:1015D00070919B058CE20E94570288EC90E00E947B
:1015E000A91C60919A0570919B058DE20E9457029B
:1015F00088EC90E00E94A91C60919A0570919B056F
:101600008EE20E94570288EC90E00E94A91C609133
:101610009A0570919B058FE20E94570288EC90E03A
:101620000E94A91C60919A0570919B0580E30E941D
:10163000570288EC90E00E94A91C60919A05709175
:101640009B0581E30E94570288EC90E00E94A91C50
:1016500060919A0570919B0582E30E94570288EC85
:1016600090E00E94A91C6CEF84E10E94430288EC88
:1016700090E00E94A91C6FE887E10E94430288EC79
:1016800090E00E94A91C60919C0570919D058CE1E1
:101690000E94570288EC90E00E94A91C8AE10E94F7
:1016A000D60288EC90E00E94A91C40E050E160E086
:1016B00070E088E10E94810288EC90E00E94A91C01
:1016C00084E00E94B30285E00E94B30286E00E949B
:1016D000B30288EC90E00C94A91C6CE986E10E94AE
:1016E000430284EF91E00E94A91C8AE10E94D60285
:1016F00084EF91E00E94A91C40E052E060E070E0BD
:1017000088E10E94810288EC90E00E94A91C6EE1B1
:1017100070E08CE10E94570288EC90E00E94A91CC6
:1017200060E070E086E30E94570264E670E080E0CB
:1017300090E00E94711C60E070E087E30E94570215
:1017400064E670E080E090E00E94711C60E070E070
:1017500088E30E94570264E670E080E090E00E9417
:10176000711C88EC90E00C94A91C8AE10E94D602BE
:1017700084EF91E00E94A91C40E052E060E070E03C
:1017800088E10E94810288EC90E00E94A91C6EE131
:1017900070E08CE10E94570288EC90E00E94A91C46
:1017A00060E070E083E30E94570264E670E080E04E
:1017B00090E00E94711C60E070E084E30E94570298
:1017C00064E670E080E090E00E94711C60E070E0F0
:1017D00085E30E94570264E670E080E090E00E949A
:1017E000711C88EC90E00C94A91C60919A05709192
:1017F0009B058AE20E94570288EC90E00E94A91C97
:1018000060919A0570919B058BE20E94570288ECCB
:1018100090E00E94A91C60919A0570919B058CE252
:101820000E94570288EC90E00E94A91C60919A05E2
:1018300070919B058DE20E94570288EC90E00E9417
:10184000A91C60919A0570919B058EE20E94570237
:1018500088EC90E00E94A91C60919A0570919B050C
:101860008FE20E94570288EC90E00E94A91C6091D0
:101870009A0570919B0580E30E94570288EC90E0E6
:101880000E94A91C60919A0570919B0581E30E94BA
:10189000570288EC90E00E94A91C60919A05709113
:1018A0009B0582E30E94570288EC90E00E94A91CED
:1018B0006CEF84E10E94430288EC90E00E94A91C36
:1018C0006FE887E10E94430288EC90E00E94A91C27
:1018D00068EC70E08CE10E94570288EC90E00E9476
:1018E000A91C8AE10E94D60288EC90E00E94A91C03
:1018F00040E050E160E070E088E10E94810288EC05
:1019000090E00E94A91C81E00E94B30282E00E9444
:10191000B30283E00C94B3026BE774E08AE895E0CD
:101920000E94D1226BE774E084E895E00E94D12206
:101930006BE774E08AE894E00C94D1220C940602E0
:10194000CF92DF92EF92FF920F931F93CF93DF938B
:10195000CDB7DEB762970FB6F894DEBF0FBECDBF2E
:1019600081E496E00E94D81D892B11F40C94C214D6
:1019700040E061E476E0CE0101960E944622BE017D
:101980006F5F7F4F8AE895E00E941A23CE0101968F
:101990000E946A22F89466E172E08AE895E00E946B
:1019A0003F24882359F011E01093830596DE1092AE
:1019B0009905109390056CE172E03AC062E272E022
:1019C0008AE895E00E943F248823F9F080E10E9494
:1019D000B3028C014AE050E0BC0181E496E00E9431
:1019E0001F21B80180E090E00E94012620E030E055
:1019F00040E85DE30E94B726AB01BC0122E030E085
:101A000081E496E00E940A22BCC766E272E08AE89E
:101A100095E00E943F24882381F081E08093830534
:101A2000A4DE1092990582E0809390056CE272E04A
:101A300084E895E00E942523A4C762E372E08AE867
:101A400095E00E943F24882381F081E08093830504
:101A500010929B0510929A05C8DE1092980583E0BB
:101A60008093900569E372E0E3CF69E472E08AE86D
:101A700095E00E943F248823F1F081E08093830564
:101A800084E690E090939D0580939C0561E472E06C
:101A900084E895E00E94252387E08093900580E00C
:101AA00098E090939B0580939A055DDC10929105D8
:101AB0001092940566C767E472E08AE895E00E9498
:101AC0003F248823F1F081E08093830584E690E051
:101AD00090939D0580939C0566E572E084E895E00F
:101AE0000E94252380E098E090939B0580939A05BF
:101AF00057DD88E080939005109291051092930530
:101B000040C76BE572E08AE895E00E943F24882395
:101B1000F1F081E08093830584E690E090939D0549
:101B200080939C056AE672E084E895E00E94252394
:101B300080E098E090939B0580939A059CDC89E077
:101B40008093900510929105109292051AC76EE647
:101B500072E08AE895E00E943F24882311F060E05B
:101B600009C065E772E08AE895E00E943F24882377
:101B700029F061E08DE20E94A31D03C76DE772E0CA
:101B8000CE0101960E94D122BE016F5F7F4F8AE88D
:101B900095E00E9496248C01CE0101960E946A2253
:101BA00017FD6CC081E0809383056DE772E0CE0184
:101BB00007960E94D122BE01695F7F4F8AE895E0B7
:101BC0000E949624AC01485F5F4F6CE28AE895E082
:101BD0000E945D248C016DE772E0CE010D960E949B
:101BE000D122BE01635F7F4F8AE895E00E94962470
:101BF000AC01495F5F4F98016AE875E0CE0101963C
:101C00000E949924CE0101960E94DC2470939D05C8
:101C100060939C05CE0101960E946A22CE010D962A
:101C20000E946A22CE0107960E946A2280919C053A
:101C300090919D05181619060CF0A3C665E872E090
:101C400084E895E00E94252360919C0570919D0594
:101C500084E895E00E94B1236CE284E895E00E945C
:101C6000742310929B0510929A057DDB84E080938B
:101C70009005109291051092970583C667E972E06E
:101C8000CE0101960E94D122BE016F5F7F4F8AE88C
:101C900095E00E9496248C01CE0101960E946A2252
:101CA00017FD6CC081E08093830567E972E0CE0187
:101CB00007960E94D122BE01695F7F4F8AE895E0B6
:101CC0000E949624AC01485F5F4F6CE28AE895E081
:101CD0000E945D248C0167E972E0CE010D960E949E
:101CE000D122BE01635F7F4F8AE895E00E9496246F
:101CF000AC01495F5F4F98016AE875E0CE0101963B
:101D00000E949924CE0101960E94DC2470939D05C7
:101D100060939C05CE0101960E946A22CE010D9629
:101D20000E946A22CE0107960E946A2280919C0539
:101D300090919D05181619060CF023C66FE972E004
:101D400084E895E00E94252360919C0570919D0593
:101D500084E895E00E94B1236CE284E895E00E945B
:101D6000742310929B0510929A051ADC85E08093EB
:101D70009005109291051092960503C660EB72E0F3
:101D8000CE0101960E94D122BE016F5F7F4F8AE88B
:101D900095E00E9496248C01CE0101960E946A2251
:101DA00017FD5DC0FF24F394F092830560EB72E0B1
:101DB000CE0107960E94D122BE01695F7F4F8AE85B
:101DC00095E00E949624AC01465F5F4F6CE28AE882
:101DD00095E00E945D248C0160EB72E0CE010D96CF
:101DE0000E94D122BE01635F7F4F8AE895E00E9486
:101DF0009624AC01475F5F4F98016AE875E0CE0119
:101E000001960E949924CE0101960E94DC246093E1
:101E10007E05CE0101960E946A22CE010D960E9497
:101E20006A22CE0107960E946A2280917E0588234D
:101E300009F4A7C580E098E090939B0580939A05EC
:101E40000E9474040E94421C60937A0570937B0583
:101E500080937C0590937D05F092820570C06AEBBB
:101E600072E0CE0101960E94D122BE016F5F7F4FCA
:101E70008AE895E00E9496248C01CE0101960E948A
:101E80006A2217FD5FC0FF24F394F09283056AEB8A
:101E900072E0CE0107960E94D122BE01695F7F4F9A
:101EA0008AE895E00E949624AC01465F5F4F6CE2A1
:101EB0008AE895E00E945D248C016AEB72E0CE0115
:101EC0000D960E94D122BE01635F7F4F8AE895E0A4
:101ED0000E949624AC01475F5F4F98016AE875E065
:101EE000CE0101960E949924CE0101960E94DC2425
:101EF00060937E05CE0101960E946A22CE010D9666
:101F00000E946A22CE0107960E946A2280917E0575
:101F1000882309F436C580E098E090939B05809370
:101F20009A050E9474040E94421C60937A05709383
:101F30007B0580937C0590937D05F0928105F0925E
:101F40007F051FC564EC72E0CE0101960E94D1228C
:101F5000BE016F5F7F4F8AE895E00E9496248C0156
:101F6000CE0101960E946A2217FD5DC0FF24F39402
:101F7000F092830564EC72E0CE0107960E94D122B4
:101F8000BE01695F7F4F8AE895E00E949624AC010C
:101F9000445F5F4F6CE28AE895E00E945D248C010B
:101FA00064EC72E0CE010D960E94D122BE01635F07
:101FB0007F4F8AE895E00E949624AC01455F5F4F11
:101FC00098016AE875E0CE0101960E949924CE013D
:101FD00001960E94DC2460937E05CE0101960E944A
:101FE0006A22CE010D960E946A22CE0107960E94B7
:101FF0006A2280917E05882309F4C3C480E098E0BA
:1020000090939B0580939A050E9474040E94421C41
:1020100060937A0570937B0580937C0590937D0592
:10202000F09280058CCF60ED72E0CE0101960E94A7
:10203000D122BE016F5F7F4F8AE895E00E9496240F
:102040008C01CE0101960E946A2217FD82C00E9477
:102050004E1C60936E0570936F058093700590938E
:1020600071056CE28AE895E00E9478249093B305AC
:102070008093B20504E116E04091B2055091B3059A
:102080004F5F5F4F6CE28AE895E00E945D244091CB
:10209000B2055091B3054F5F5F4F9C016AE875E050
:1020A000CE0101960E949924CE0101960E94DC2463
:1020B0007093B1056093B005CE0101960E946A222B
:1020C0008091B0059091B105F801819391938F01B2
:1020D0004091B2055091B3054F5F5F4F6CE28AE8C3
:1020E00095E00E945D249093B3058093B205F6E0DD
:1020F0000A311F0709F6609114067091150683E3F3
:102100000E945702609116067091170684E30E94A0
:102110005702609118067091190685E30E945702D4
:102120000E944E1CC0906E05D0906F05E090700527
:10213000F09071056C197D098E099F0960936A05FD
:1021400070936B0580936C0590936D056AED72E05A
:1021500014C46AEE72E0CE0101960E94D122BE0143
:102160006F5F7F4F8AE895E00E9496248C01CE0134
:1021700001960E946A2217FD82C00E944E1C609345
:102180006E0570936F0580937005909371056CE2F6
:102190008AE895E00E9478249093B3058093B20575
:1021A00004E116E04091B2055091B3054F5F5F4FD7
:1021B0006CE28AE895E00E945D244091B20550915E
:1021C000B3054F5F5F4F9C016AE875E0CE01019651
:1021D0000E949924CE0101960E94DC247093B105DF
:1021E0006093B005CE0101960E946A228091B005ED
:1021F0009091B105F801819391938F014091B205BF
:102200005091B3054F5F5F4F6CE28AE895E00E9402
:102210005D249093B3058093B205F6E00A311F0761
:1022200009F6609114067091150686E30E94570224
:10223000609116067091170687E30E94570260911D
:1022400018067091190688E30E9457020E944E1CDE
:10225000C0906E05D0906F05E0907005F09071050C
:102260006C197D098E099F0960936A0570936B054F
:1022700080936C0590936D0564EF72E07EC364E01B
:1022800073E0CE0101960E94D122BE016F5F7F4FA5
:102290008AE895E00E9496248C01CE0101960E9466
:1022A0006A2217FD82C00E944E1C60936E057093D7
:1022B0006F0580937005909371056CE28AE895E054
:1022C0000E9478249093B3058093B20504E116E050
:1022D0004091B2055091B3054F5F5F4F6CE28AE8C1
:1022E00095E00E945D244091B2055091B3054F5F87
:1022F0005F4F9C016AE875E0CE0101960E94992427
:10230000CE0101960E94DC247093B1056093B00564
:10231000CE0101960E946A228091B0059091B1058C
:10232000F801819391938F014091B2055091B305CB
:102330004F5F5F4F6CE28AE895E00E945D249093C6
:10234000B3058093B205F6E00A311F0709F66091E4
:1023500014067091150689E30E94570260911606D3
:10236000709117068AE30E945702609118067091D7
:1023700019068BE30E9457020E944E1CC0906E0506
:10238000D0906F05E0907005F09071056C197D0993
:102390008E099F0960936A0570936B0580936C05A5
:1023A00090936D056FE073E0E8C260E273E0CE01E8
:1023B00001960E94D122BE016F5F7F4F8AE895E0AF
:1023C0000E9496248C01CE0101960E946A2217FD7C
:1023D00082C00E944E1C60936E0570936F058093BF
:1023E0007005909371056CE28AE895E00E9478246C
:1023F0009093B3058093B20504E116E04091B205D5
:102400005091B3054F5F5F4F6CE28AE895E00E9400
:102410005D244091B2055091B3054F5F5F4F9C0121
:102420006AE875E0CE0101960E949924CE010196DA
:102430000E94DC247093B1056093B005CE01019633
:102440000E946A228091B0059091B105F8018193B4
:1024500091938F014091B2055091B3054F5F5F4F4B
:102460006CE28AE895E00E945D249093B305809326
:10247000B205F6E00A311F0709F660911406709163
:1024800015068CE30E94570260911606709117069C
:102490008DE30E94570260911806709119068EE331
:1024A0000E9457020E944E1CC0906E05D0906F058E
:1024B000E0907005F09071056C197D098E099F09F7
:1024C00060936A0570936B0580936C0590936D051E
:1024D0006BE273E052C26CE373E0CE0101960E949E
:1024E000D122BE016F5F7F4F8AE895E00E9496245B
:1024F0008C01CE0101960E946A2217FD82C00E94C3
:102500004E1C60936E0570936F05809370059093D9
:1025100071056CE28AE895E00E9478249093B305F7
:102520008093B20504E116E04091B2055091B305E5
:102530004F5F5F4F6CE28AE895E00E945D24409116
:10254000B2055091B3054F5F5F4F9C016AE875E09B
:10255000CE0101960E949924CE0101960E94DC24AE
:102560007093B1056093B005CE0101960E946A2276
:102570008091B0059091B105F801819391938F01FD
:102580004091B2055091B3054F5F5F4F6CE28AE80E
:1025900095E00E945D249093B3058093B205F6E028
:1025A0000A311F0709F660911406709115068FE332
:1025B0000E945702609116067091170680E40E94EF
:1025C0005702609118067091190681E40E94570223
:1025D0000E944E1CC0906E05D0906F05E090700573
:1025E000F09071056C197D098E099F0960936A0549
:1025F00070936B0580936C0590936D0567E473E0B1
:10260000BCC168E573E0CE0101960E94D122BE01F3
:102610006F5F7F4F8AE895E00E9496248C01CE017F
:1026200001960E946A2217FD70C00E944E1C6093A2
:102630006E0570936F0580937005909371056CE241
:102640008AE895E00E9478249093B3058093B205C0
:1026500004E116E04091B2055091B3054F5F5F4F22
:102660006CE28AE895E00E945D244091B2055091A9
:10267000B3054F5F5F4F9C016AE875E0CE0101969C
:102680000E949924CE0101960E94DC247093B1052A
:102690006093B005CE0101960E946A228091B00538
:1026A0009091B105F801819391938F014091B2050A
:1026B0005091B3054F5F5F4F6CE28AE895E00E944E
:1026C0005D249093B3058093B205F6E002331F07B3
:1026D00009F664E1C62E66E0D62E02E81FE0F60198
:1026E000E190F1906F016E2DC8010E9412026F2DD2
:1026F000C80101960E9412020E5F1F4F003AFFE0D0
:102700001F0769F766E673E038C16CE773E0CE0136
:1027100001960E94D122BE016F5F7F4F8AE895E04B
:102720000E9496248C01CE0101960E946A2217FD18
:1027300028C06BE774E08AE894E00E9425236CE2ED
:102740008AE895E00E94782420918E0530918F05CB
:10275000AC014F5F5F4F6AE875E0CE0101960E94C1
:102760009924BE016F5F7F4F8AE894E00E941A238C
:10277000CE0101960E946A220E94950869E873E0E2
:10278000FCC06EE973E0CE0101960E94D122BE0129
:102790006F5F7F4F8AE895E00E9496248C01CE01FE
:1027A00001960E946A2217FD4EC06CE28AE895E00D
:1027B0000E9478249093B3058093B205AC014F5FDB
:1027C0005F4F6CE28AE895E00E945D244091B2057B
:1027D0005091B3054F5F5F4F9C016AE875E0CE01F1
:1027E00001960E949924CE0101960E94DC246093F8
:1027F000AC057093AD058093AE059093AF05CE0107
:1028000001960E946A228091AC059091AD05A0913D
:10281000AE05B091AF0589839A83AB83BC83CE01AB
:1028200001967C0106E51FE0F70161917F01C80177
:102830000E9412020F5F1F4F0A35FFE01F07A1F72A
:102840006EEA73E09AC066EC73E0CE0101960E94D6
:10285000D122BE016F5F7F4F8AE895E00E949624E7
:102860008C01CE0101960E946A2217FD0FC000E084
:1028700010E060E0C8010E9412020F5F1F4F0C3C85
:102880008CE01807B1F76AED73E077C060EF73E092
:10289000CE0101960E94D122BE016F5F7F4F8AE870
:1028A00095E00E9496248C01CE0101960E946A2236
:1028B00017FFCDC464E174E0CE0101960E94D122DD
:1028C000BE016F5F7F4F8AE895E00E9496248C01DD
:1028D000CE0101960E946A2217FD49C06CE28AE887
:1028E00095E00E9478249093B3058093B205AC01E3
:1028F0004F5F5F4F6CE28AE895E00E945D24409153
:10290000B2055091B3054F5F5F4F9C016AE875E0D7
:10291000CE0101960E949924CE0101960E94DC24EA
:102920006B017C01CE0101960E946A22C6010E94C1
:10293000512A182F64E274E084E895E00E94252370
:10294000B60184E895E00E94E0236EE274E084E83A
:1029500095E00E946523612F84E895E00E9487231B
:1029600064E875E081E496E00E944A200AC0109273
:1029700090051092830562E374E081E496E00E9482
:102980005A20789480919E0590919F05C29709F0F6
:1029900082C0F89410929F0510929E05809199052F
:1029A000813009F058C064E875E081E496E00E9447
:1029B00032206091A8057091A9058091AA05909197
:1029C000AB0552E3C52ED12CE12CF12CA7019601C9
:1029D0000E944027BA01A9012AE030E081E496E094
:1029E0000E94C7206CE281E496E00E944020609142
:1029F000A4057091A5058091A6059091A705A70152
:102A000096010E944027BA01A9012AE030E081E442
:102A100096E00E94C7206CE281E496E00E9440208C
:102A20006091A0057091A1058091A2059091A305E8
:102A3000A70196010E944027BA01A9012AE030E0CF
:102A400081E496E00E94C7206CE281E496E00E9457
:102A50006A20109283051092A8051092A905109281
:102A6000AA051092AB051092A4051092A50510922C
:102A7000A6051092A7051092A0051092A10510922C
:102A8000A2051092A305809199058F3F19F08F5FE1
:102A9000809399057894809198058130D1F5F894C8
:102AA00064E875E081E496E00E94322081E00E94B3
:102AB000B3024AE050E0BC0181E496E00E941A2192
:102AC0006CE281E496E00E94402082E00E94B30222
:102AD0004AE050E0BC0181E496E00E941A216CE2D9
:102AE00081E496E00E94402083E00E94B3024AE025
:102AF00050E0BC0181E496E00E941A216CE281E47E
:102B000096E00E946A2083E08093980510928305E6
:102B1000789480919705813009F070C0F8948AE12B
:102B20000E94D60281E00E94B302A0E0B0E0809350
:102B3000A8059093A905A093AA05B093AB0582E0E0
:102B40000E94B302A0E0B0E08093A4059093A50595
:102B5000A093A605B093A70583E00E94B302A0E06E
:102B6000B0E08093A0059093A105A093A205B09337
:102B7000A30564E875E081E496E00E94322040916C
:102B8000A8055091A9056091AA057091AB052AE0AE
:102B900030E081E496E00E94C7206CE281E496E098
:102BA0000E9440204091A4055091A5056091A60582
:102BB0007091A7052AE030E081E496E00E94C720EA
:102BC0006CE281E496E00E9440204091A005509183
:102BD000A1056091A2057091A3052AE030E081E48F
:102BE00096E00E94C7206CE281E496E00E946A2091
:102BF00083E08093970510928305789480918205F5
:102C0000882309F46FC03ED6C0907A05D0907B052A
:102C1000E0907C05F0907D0510917E056C197D0992
:102C20008E099F0920E63AEE40E050E00E941E2700
:102C3000812F90E0A0E0B0E0281739074A075B0732
:102C400009F050C0F8941092820510927F056FE34E
:102C500074E084E895E00E94252360917E0584E875
:102C600095E00E9487236CE284E895E00E9474233B
:102C700040912605509127056091280570912905FE
:102C800084E895E00E940F246CE284E895E00E94BD
:102C9000742340912A0550912B0560912C05709169
:102CA0002D0584E895E00E940F246CE284E895E00D
:102CB0000E94742340912E0550912F05609130059C
:102CC0007091310584E895E00E940F246CE284E85D
:102CD00095E00E94742364E875E081E496E00E9428
:102CE0004A20789480919405813009F070C0F8945E
:102CF0008AE10E94D60281E00E94B302A0E0B0E027
:102D00008093A8059093A905A093AA05B093AB055D
:102D100082E00E94B302A0E0B0E08093A40590930B
:102D2000A505A093A605B093A70583E00E94B30272
:102D3000A0E0B0E08093A0059093A105A093A20528
:102D4000B093A30564E875E081E496E00E94322028
:102D50004091A8055091A9056091AA057091AB0515
:102D60002AE030E081E496E00E94C7206CE281E432
:102D700096E00E9440204091A4055091A5056091E5
:102D8000A6057091A7052AE030E081E496E00E9454
:102D9000C7206CE281E496E00E9440204091A005AB
:102DA0005091A1056091A2057091A3052AE030E041
:102DB00081E496E00E94C7206CE281E496E00E94E4
:102DC0006A2083E080939405109283057894809123
:102DD0009605813009F070C0F8948AE10E94D6020D
:102DE00084E00E94B302A0E0B0E08093A805909335
:102DF000A905A093AA05B093AB0585E00E94B30294
:102E0000A0E0B0E08093A4059093A505A093A6054B
:102E1000B093A70586E00E94B302A0E0B0E08093E3
:102E2000A0059093A105A093A205B093A30564E823
:102E300075E081E496E00E9432204091A80550910F
:102E4000A9056091AA057091AB052AE030E081E404
:102E500096E00E94C7206CE281E496E00E94402048
:102E60004091A4055091A5056091A6057091A70514
:102E70002AE030E081E496E00E94C7206CE281E421
:102E800096E00E9440204091A0055091A1056091DC
:102E9000A2057091A3052AE030E081E496E00E944B
:102EA000C7206CE281E496E00E946A2083E0809370
:102EB000960510928305789480918105882309F402
:102EC0006FC0E0D4C0907A05D0907B05E0907C057F
:102ED000F0907D0510917E056C197D098E099F0982
:102EE00020E63AEE40E050E00E941E27812F90E05D
:102EF000A0E0B0E0281739074A075B0709F050C087
:102F0000F8941092810510927F056EE474E084E8D5
:102F100095E00E94252360917E0584E895E00E945B
:102F200087236CE284E895E00E94742340911A059F
:102F300050911B0560911C0570911D0584E895E07A
:102F40000E940F246CE284E895E00E947423409173
:102F50001E0550911F05609120057091210584E8A0
:102F600095E00E940F246CE284E895E00E947423AF
:102F7000409122055091230560912405709125050B
:102F800084E895E00E940F246CE284E895E00E94BA
:102F9000742364E875E081E496E00E944A20789406
:102FA00080919305813009F070C0F8948AE10E9405
:102FB000D60284E00E94B302A0E0B0E08093A805AE
:102FC0009093A905A093AA05B093AB0585E00E9454
:102FD000B302A0E0B0E08093A4059093A505A09370
:102FE000A605B093A70586E00E94B302A0E0B0E07A
:102FF0008093A0059093A105A093A205B093A3058B
:1030000064E875E081E496E00E9432204091A805D2
:103010005091A9056091AA057091AB052AE030E0B6
:1030200081E496E00E94C7206CE281E496E00E9471
:1030300040204091A4055091A5056091A60570918E
:10304000A7052AE030E081E496E00E94C7206CE208
:1030500081E496E00E9440204091A0055091A10596
:103060006091A2057091A3052AE030E081E496E02A
:103070000E94C7206CE281E496E00E946A2083E00F
:10308000809393051092830578948091800588231E
:1030900009F46EC0F7D3C0907A05D0907B05E0901C
:1030A0007C05F0907D0510917E056C197D098E09D7
:1030B0009F0920E63AEE40E050E00E941E27812F53
:1030C00090E0A0E0B0E0281739074A075B0709F055
:1030D0004FC0F8941092800510927F056CE574E063
:1030E00084E895E00E94252360917E0584E895E0C0
:1030F0000E9487236CE284E895E00E94742340914B
:10310000320550913305609134057091350584E89E
:1031100095E00E940F246CE284E895E00E947423FD
:103120004091360550913705609138057091390509
:1031300084E895E00E940F246CE284E895E00E9408
:10314000742340913A0550913B0560913C05709184
:103150003D0584E895E00E940F246CE284E895E048
:103160000E94742364E875E081E496E093D7789434
:1031700080919205813009F079C0F8948AE10E942B
:10318000D60287E00E94B302A0E0B0E08093A805D9
:103190009093A905A093AA05B093AB0588E00E947F
:1031A000B302A0E0B0E08093A4059093A505A0939E
:1031B000A605B093A70589E00E94B302A0E0B0E0A5
:1031C0008093A0059093A105A093A205B093A305B9
:1031D00064E875E081E496E045D74091A8055091F8
:1031E000A9056091AA057091AB052AE030E081E461
:1031F00096E0CDD76CE281E496E042D74091A405F9
:103200005091A5056091A6057091A7052AE030E0D0
:1032100081E496E0BCD76CE281E496E031D740913E
:10322000A0055091A1056091A2057091A3052AE027
:1032300030E081E496E0ABD76CE281E496E04AD7D7
:1032400083E0809392051092830578940FC000E08C
:1032500010E060E0C8010E9412020F5F1F4F0115CD
:1032600090E11907B1F761E074E087CB62960FB681
:10327000F894DEBF0FBECDBFDF91CF911F910F91AC
:10328000FF90EF90DF90CF9008951F920F920FB6AE
:103290000F9211240BB60F922F933F934F935F938E
:1032A0006F937F938F939F93AF93BF93EF93FF930E
:1032B000E0913506F09136061995FF91EF91BF9197
:1032C000AF919F918F917F916F915F914F913F91BE
:1032D0002F910F900BBE0F900FBE0F901F9018955F
:1032E000FC01A3E0440F551F661F771FAA95D1F775
:1032F0004115510581E06807710514F481E00EC0A5
:1033000033E075956795579547953A95D1F74115EF
:10331000510581E0680771051CF482E0828331C0A9
:1033200023E075956795579547952A95D1F74115EF
:10333000510581E06807710514F483E0EFCF92E056
:1033400075956795579547959A95D1F7411551050C
:1033500081E06807710514F484E0E0CF82E07595A0
:103360006795579547958A95D1F785E082834115F2
:10337000510581E06807710524F04FEF5FEF60E0D1
:1033800070E0518340835093970040939600809162
:103390009100887F80939100809191009281892B88
:1033A0008093910008951092900020E12093910065
:1033B00097CFE1E9F0E02081DC0112968C91282B77
:1033C000208308950F931F93CF93DF93EC018B011C
:1033D000BA01A90114161506160617060CF480DFAB
:1033E0001C830B8381E0809371007894CE01DF9180
:1033F000CF911F910F91DDCFCF93CFB7F8948091EC
:103400003706811123C0E7EDF1E08491E1E9F1E0B5
:103410009491E82FF0E0EE0FFF1FEE5FFD4FA591B6
:10342000B4918C91892319F461E085E38CD361E038
:1034300085E350D38CB580618CBD8CB580648CBD28
:1034400061E084E347D361E083E344D380913706AE
:103450008F5F80933706CFBFCF910895089588304E
:1034600008F06DC0E82FF0E0EE0FFF1FEA5FFD4FA0
:103470007183608390E0FC013197E730F10590F5AE
:10348000EE58FF4F0C945C27809169008C7F842B51
:1034900080936900E89A089580916900440F551F50
:1034A000440F551F837F842B80936900E99A089508
:1034B0008091690074E0440F551F7A95E1F78F7C85
:1034C000842B80936900EA9A08958091690066E0F0
:1034D000440F551F6A95E1F78F73842B8093690021
:1034E000EB9A089580916A008C7F842B80936A0008
:1034F000EC9A089580916A00440F551F440F551FA0
:10350000837F842B80936A00ED9A089580916A00EE
:1035100024E0440F551F2A95E1F78F7C842B80937C
:103520006A00EE9A089580916A0096E0440F551F54
:103530009A95E1F78F73842B80936A00EF9A089530
:103540001F920F920FB60F9211240BB60F922F936A
:103550003F934F935F936F937F938F939F93AF931B
:10356000BF93EF93FF93E0910A02F0910B0219953C
:10357000FF91EF91BF91AF919F918F917F916F914B
:103580005F914F913F912F910F900BBE0F900FBE07
:103590000F901F9018951F920F920FB60F92112443
:1035A0000BB60F922F933F934F935F936F937F933D
:1035B0008F939F93AF93BF93EF93FF93E0910C0290
:1035C000F0910D021995FF91EF91BF91AF919F91ED
:1035D0008F917F916F915F914F913F912F910F90BC
:1035E0000BBE0F900FBE0F901F9018951F920F9259
:1035F0000FB60F9211240BB60F922F933F934F9358
:103600005F936F937F938F939F93AF93BF93EF934A
:10361000FF93E0910E02F0910F021995FF91EF9147
:10362000BF91AF919F918F917F916F915F914F91DA
:103630003F912F910F900BBE0F900FBE0F901F90D8
:1036400018951F920F920FB60F9211240BB60F927E
:103650002F933F934F935F936F937F938F939F939A
:10366000AF93BF93EF93FF93E0911002F09111029B
:103670001995FF91EF91BF91AF919F918F917F919C
:103680006F915F914F913F912F910F900BBE0F90D3
:103690000FBE0F901F9018951F920F920FB60F92AA
:1036A00011240BB60F922F933F934F935F936F9319
:1036B0007F938F939F93AF93BF93EF93FF93E0918B
:1036C0000602F09107021995FF91EF91BF91AF911A
:1036D0009F918F917F916F915F914F913F912F912A
:1036E0000F900BBE0F900FBE0F901F9018951F925A
:1036F0000F920FB60F9211240BB60F922F933F9398
:103700004F935F936F937F938F939F93AF93BF93E9
:10371000EF93FF93E0910802F09109021995FF9150
:10372000EF91BF91AF919F918F917F916F915F9139
:103730004F913F912F910F900BBE0F900FBE0F90A6
:103740001F9018951F920F920FB60F9211240BB66F
:103750000F922F933F934F935F936F937F938F932A
:103760009F93AF93BF93EF93FF93E0911202F09179
:1037700013021995FF91EF91BF91AF919F918F9196
:103780007F916F915F914F913F912F910F900BBE61
:103790000F900FBE0F901F9018951F920F920FB6AB
:1037A0000F9211240BB60F922F933F934F935F9379
:1037B0006F937F938F939F93AF93BF93EF93FF93F9
:1037C000E0911402F09115021995FF91EF91BF91CC
:1037D000AF919F918F917F916F915F914F913F91A9
:1037E0002F910F900BBE0F900FBE0F901F9018954A
:1037F0001F920F920FB60F9211242F933F938F9326
:103800009F93AF93BF938091390690913A06A09110
:103810003B06B0913C063091380623E0230F2D374C
:1038200020F40196A11DB11D05C026E8230F0296C4
:10383000A11DB11D209338068093390690933A0656
:10384000A0933B06B0933C0680913D0690913E06C6
:10385000A0913F06B09140060196A11DB11D809335
:103860003D0690933E06A0933F06B0934006BF915D
:10387000AF919F918F913F912F910F900FBE0F901D
:103880001F9018952FB7F8946091390670913A06F9
:1038900080913B0690913C062FBF08953FB7F89466
:1038A00080913D0690913E06A0913F06B091400662
:1038B00026B5A89B05C02F3F19F00196A11DB11D8B
:1038C0003FBF6627782F892F9A2F620F711D811DA8
:1038D000911D42E0660F771F881F991F4A95D1F707
:1038E00008958F929F92AF92BF92CF92DF92EF9204
:1038F000FF926B017C01D2DF4B015C01C114D1044A
:10390000E104F104E9F00E94FE24C8DF6819790996
:103910008A099B09683E73408105910578F321E08F
:10392000C21AD108E108F10888EE880E83E0981EDB
:10393000A11CB11CC114D104E104F10431F7DECFA4
:10394000FF90EF90DF90CF90BF90AF909F908F90BF
:1039500008958230910538F0880F991F880F991FBC
:1039600005970197F1F70895789484B5826084BD36
:1039700084B5816084BD85B5826085BD85B5816073
:1039800085BDEEE6F0E0808181608083E1E8F0E0D3
:103990001082808182608083808181608083E0E802
:1039A000F0E0808181608083E1EBF0E080818460E1
:1039B0008083E0EBF0E0808181608083E1E9F0E0EA
:1039C000808182608083808181608083E0E9F0E093
:1039D000808181608083E1EAF0E080818260808381
:1039E000808181608083E0EAF0E080818160808373
:1039F000E1E2F1E080818260808380818160808368
:103A0000E0E2F1E0808181608083EAE7F0E080819C
:103A100084608083808182608083808181608083F4
:103A20008081806880831092C100089590E0FC013D
:103A30003197E231F10508F04CC0E758FF4F0C9484
:103A40005C27809180008F7703C0809180008F7DFC
:103A500080938000089580918000877FF9CF84B59E
:103A60008F7702C084B58F7D84BD08958091B000AA
:103A70008F7703C08091B0008F7D8093B000089550
:103A8000809190008F7707C0809190008F7D03C058
:103A900080919000877F8093900008958091A0008E
:103AA0008F7707C08091A0008F7D03C08091A00018
:103AB000877F8093A0000895809120018F7707C0B1
:103AC000809120018F7D03C080912001877F8093AA
:103AD00020010895CF93DF9390E0FC01E45AFE4F5C
:103AE0002491FC01EE55FE4F8491882349F190E02A
:103AF000880F991FFC01EE5FFD4FA591B49188518D
:103B00009E4FFC01C591D4919FB7611108C0F894F4
:103B10008C91209582238C93888182230AC0623005
:103B200051F4F8948C91322F309583238C938881B3
:103B3000822B888304C0F8948C91822B8C939FBF36
:103B4000DF91CF9108950F931F93CF93DF931F922F
:103B5000CDB7DEB7282F30E0F901EA5EFE4F849141
:103B6000F901E45AFE4F1491F901EE55FE4F04910C
:103B70000023C1F0882319F0698358DF6981E02FA1
:103B8000F0E0EE0FFF1FE851FE4FA591B4919FB7F3
:103B9000F8948C91611103C01095812301C0812B91
:103BA0008C939FBF0F90DF91CF911F910F9108953C
:103BB000FC01818D228D90E0805C9F4F821B9109DA
:103BC0008F7399270895FC01918D828D981731F09C
:103BD000828DE80FF11D858D90E008958FEF9FEFA6
:103BE0000895FC01918D828D981761F0828DDF011F
:103BF000A80FB11D5D968C91928D9F5F9F73928FE0
:103C000090E008958FEF9FEF089588EA9FE1892B58
:103C100039F080E090E0892B19F09AD1811125C00C
:103C200080E090E0892B41F080E090E0892B21F04A
:103C30000E94000081111CC080E090E0892B41F0BF
:103C400080E090E0892B21F00E940000811113C0D8
:103C500080E090E0892BA1F080E090E0892B81F05A
:103C60000E94000081110AC008950E940000D8CF70
:103C70000E940000E1CF0E940000EACF0C940000F7
:103C80000895FC01848DDF01A80FB11DA35ABF4F19
:103C90002C91848D90E001968F739927848FA6894B
:103CA000B7892C93A089B1898C9180648C93938D72
:103CB000848D981306C00288F389E02D80818F7D62
:103CC00080830895CF93DF93EC01888D8823C1F022
:103CD000EA89FB89808185FD05C0A889B9898C9115
:103CE00086FD0EC00FB607FCF5CF808185FFF2CFB1
:103CF000A889B9898C9185FFEDCFCE01C2DFE8CFCD
:103D0000DF91CF910895CF92DF92FF920F931F938F
:103D1000CF93DF931F92CDB7DEB76C0181E0D60160
:103D200058968C9358975B969C915B975C968C9178
:103D30005C97981307C05096ED91FC915197808144
:103D400085FD2DC0F601038D10E00F5F1F4F0F732F
:103D50001127F02EF601848DF81210C00FB607FC63
:103D6000F9CFD6015096ED91FC915197808185FF56
:103D7000F1CFC601698385DF6981ECCF838DE80FC0
:103D8000F11DE35AFF4F6083D6015B960C935B975E
:103D90005296ED91FC915397808180620CC0D601C0
:103DA0005696ED91FC91579760835096ED91FC915A
:103DB000519780818064808381E090E00F90DF9153
:103DC000CF911F910F91FF90DF90CF900895BF92F8
:103DD000CF92DF92EF92FF92CF93DF93EC016A01D3
:103DE0007B01B22EE889F98982E08083411581EE5A
:103DF000580761057105A1F060E079E08DE390E07E
:103E0000A70196010E941E2721503109410951093D
:103E10005695479537952795211580E1380798F0F5
:103E2000E889F989108260E874E88EE190E0A701E2
:103E300096010E941E2721503109410951095695CA
:103E4000479537952795EC85FD853083EE85FF8571
:103E50002083188EEC89FD89B082EA89FB898081F4
:103E600080618083EA89FB89808188608083EA8918
:103E7000FB89808180688083EA89FB8980818F7DCE
:103E80008083DF91CF91FF90EF90DF90CF90BF9034
:103E900008951F920F920FB60F9211240BB60F9236
:103EA0002F938F939F93EF93FF93E0915106F0919F
:103EB00052068081E0915706F091580682FD12C0AB
:103EC000908180915A068F5F8F7320915B068217D5
:103ED00051F0E0915A06F0E0EF5BF94F958F809337
:103EE0005A0601C08081FF91EF919F918F912F9190
:103EF0000F900BBE0F900FBE0F901F9018951F9242
:103F00000F920FB60F9211240BB60F922F933F937F
:103F10004F935F936F937F938F939F93AF93BF93D1
:103F2000EF93FF9381E496E0ACDEFF91EF91BF91B8
:103F3000AF919F918F917F916F915F914F913F9141
:103F40002F910F900BBE0F900FBE0F901F901895E2
:103F500081E496E02DDE21E0892B09F420E0822F18
:103F60000895109244061092430688EE93E0A0E074
:103F7000B0E08093450690934606A0934706B09321
:103F800048068DE694E0909342068093410685ECC6
:103F900090E090934E0680934D0684EC90E09093D1
:103FA000500680934F0680EC90E0909352068093E9
:103FB000510681EC90E0909354068093530682EC76
:103FC00090E0909356068093550686EC90E090938F
:103FD00058068093570610925A0610925B0610926C
:103FE0005C0610925D060895CF92DF92EF92FF92E9
:103FF0000F931F93CF93DF937C016A01EB0100E0E5
:1040000010E00C151D0571F06991D701ED91FC913F
:104010000190F081E02DC7011995892B19F00F5FF0
:104020001F4FEFCFC801DF91CF911F910F91FF90EC
:10403000EF90DF90CF9008956115710581F0DB015D
:104040000D900020E9F7AD0141505109461B570B77
:10405000DC01ED91FC910280F381E02D199480E068
:1040600090E00895DC01ED91FC91DB0114964D91F7
:104070005C9115976D917C910280F381E02D1994EC
:10408000DC01ED91FC910190F081E02D199469E73C
:1040900074E0D2CF0F931F93CF93DF93EC01E2DF55
:1040A0008C01CE01F4DF800F911FDF91CF911F9122
:1040B0000F9108950F931F93CF93DF93EC01BCDF13
:1040C0008C01CE01E4DF800F911FDF91CF911F9112
:1040D0000F9108950F931F93CF93DF93EC01D0DFDF
:1040E0008C01CE01D4DF800F911FDF91CF911F9102
:1040F0000F9108958F929F92AF92BF92DF92EF92AD
:10410000FF920F931F93CF93DF93CDB7DEB7A197A5
:104110000FB6F894DEBF0FBECDBF7C01F42FD52EB5
:10412000CB0119A2223008F42AE08E010F5D1F4F47
:10413000822E912CA12CB12C6F2F7D2DA5019401E5
:104140007DD6F22FD32ECA01015011096A3014F422
:10415000E0E301C0E7E3E60FD801EC93232B242B27
:10416000252B51F7B801C70167DFA1960FB6F89468
:10417000DEBF0FBECDBFDF91CF911F910F91FF909A
:10418000EF90DF90BF90AF909F908F900895CF9267
:10419000DF92EF92FF920F931F93CF93DF93EC0187
:1041A0006A017B012115310579F4E881F9810190DB
:1041B000F081E02D642FDF91CF911F910F91FF903F
:1041C000EF90DF90CF9019942A303105D9F477FF22
:1041D00018C06DE255DF8C0144275527BA014C19F0
:1041E0005D096E097F092AE0CE0184DF800F911FEF
:1041F000DF91CF911F910F91FF90EF90DF90CF90C3
:1042000008952AE0B701A601CE01DF91CF911F9159
:104210000F91FF90EF90DF90CF906CCF211531057B
:1042200041F4DC01ED91FC910190F081E02D642FCF
:10423000199460CF9A01AB0160E070E0EFCF0F936B
:104240001F93CF93DF93EC019A01AB0160E070E024
:10425000E5DF8C01CE011BDF800F911FDF91CF9135
:104260001F910F9108954F925F926F927F928F925C
:104270009F92AF92BF92CF92DF92EF92FF920F93F5
:104280001F93CF93DF93EC016A017B01B22E9A0159
:10429000AB01C701B601CED5882319F06CE774E0F5
:1042A00024C026013701E89477F82FEF3FEF4FE75E
:1042B0005FE7C301B201BED581110CC02FEF3FEF04
:1042C0004FE75FE7C301B201FFD318161CF460E8A3
:1042D00074E00BC02FEF3FEF4FE75FE4C701B6017B
:1042E00042D51816A4F464E874E0CE01DF91CF91B2
:1042F0001F910F91FF90EF90DF90CF90BF90AF9004
:104300009F908F907F906F905F904F9095CE2FEF02
:104310003FEF4FE75FECC701B601D6D387FDE3CF90
:1043200020E030E0A901C701B601CED387FF09C064
:104330006DE2CE01A5DE8C01F7FAF094F7F8F09467
:1043400002C000E010E0A12C60E070E080E09FE39C
:10435000AB1439F020E030E040E251E4B9D3A3944B
:10436000F7CF9B01AC01C701B6014AD36B017C01B9
:104370001CD42B013C0145D49B01AC01C701B60103
:104380003ED36B017C012AE0B301A201CE01B2DE73
:10439000080F191FBB2031F068E874E0CE014CDE35
:1043A000080F191F7B2C772019F120E030E040E244
:1043B00051E4C701B601DBD46B017C01F1D34B01A1
:1043C000AA2497FCA094BA2C2AE030E0B501A401FD
:1043D000CE01DDDE080F191FC501B40114D49B0105
:1043E000AC01C701B6010BD36B017C017A94DBCF22
:1043F000C801DF91CF911F910F91FF90EF90DF9057
:10440000CF90BF90AF909F908F907F906F905F9074
:104410004F9008950F931F93CF93DF93EC0123DF09
:104420008C01CE0134DE800F911FDF91CF911F915F
:104430000F9108950F931F93CF93DF93EC0122DA2E
:10444000688779878A879B87E881F9810680F78169
:10445000E02DCE01199597FF14C014DA088519854F
:104460002A853B85601B710B820B930B0C811D8190
:104470002E813F81601771078207930728F38FEF22
:104480009FEFDF91CF911F910F910895EF92FF92CF
:104490000F931F93CF93DF93EC018B01E42E6BE717
:1044A00074E07FD0C801C6DFFF24E7FCF09497FDDD
:1044B00009C08E159F0531F0682FCE0115D1C801B6
:1044C000B9DFF5CFCE01DF91CF911F910F91FF9012
:1044D000EF900895FC0180819181C9C5CF93DF934E
:1044E000EC0188819981009709F0C1D51982188261
:1044F0001D821C821B821A82DF91CF9108950F9337
:104500001F93CF93DF93EC018B016F5F7F4F888107
:1045100099813CD6009731F0998388831B830A8365
:1045200081E001C080E0DF91CF911F910F9108954C
:10453000CF93DF93EC0188819981892B29F08A81BF
:104540009B818617970758F4CE01D9DF882341F065
:104550008C819D81892B19F4E881F981108281E099
:10456000DF91CF910895EF92FF920F931F93CF9316
:10457000DF93EC017B018A01BA01DADF811103C00C
:10458000CE01ACDF06C01D830C83B7018881998101
:104590002FD7CE01DF91CF911F910F91FF90EF9018
:1045A0000895FC01118210821382128215821482F6
:1045B0006115710551F0FB0101900020E9F7AF0191
:1045C00041505109461B570BCECF08950F931F93AF
:1045D000CF93DF938C01EB01FC01808191810097E7
:1045E00089F0428153812C813D814217530748F065
:1045F00068817981FDD68C819D81F80195838483C2
:1046000012C035D588819981F801918380838A8190
:104610009B81938382838C819D819583848319827E
:1046200018821B821A821D821C82DF91CF911F91FA
:104630000F910895CF93DF93EC018617970709F048
:10464000C5DFCE01DF91CF910895CF93DF93EC01C9
:104650006115710559F0FB0101900020E9F7AF01E8
:1046600041505109461B570B7EDF01C037DFCE0199
:10467000DF91CF910895EF92FF920F931F93CF9305
:10468000DF93EC017B010C811D816115710511F433
:1046900080E014C04115510581F0040F151FB801C9
:1046A00047DF8823A9F3288139818C819D81B70157
:1046B000820F931F9DD61D830C8381E0DF91CF91E4
:1046C0001F910F91FF90EF9008956115710551F0C2
:1046D000FB0101900020E9F7AF0141505109461B51
:1046E000570BC9CF80E00895CF93DF931F921F929D
:1046F000CDB7DEB769831A8241E050E0BE016F5F3B
:104700007F4FB9DF0F900F90DF91CF910895EF9217
:10471000FF920F931F93CF93DF9300D01F92CDB7DB
:10472000DEB77C01862F4AE08E010F5F1F4FB80174
:1047300090E07FD6F80101900020E9F7AF014150E9
:104740005109401B510BB801C70195DF0F900F9025
:104750000F900F90DF91CF911F910F91FF90EF90ED
:104760000895EF92FF920F931F93CF93DF93CDB7EE
:10477000DEB728970FB6F894DEBF0FBECDBF7C0121
:10478000CB014AE08E010F5F1F4FB80152D6F801EE
:1047900001900020E9F7AF0141505109401B510B36
:1047A000B801C70168DF28960FB6F894DEBF0FBEC8
:1047B000CDBFDF91CF911F910F91FF90EF900895A2
:1047C000EF92FF920F931F93CF93DF93CDB7DEB796
:1047D00027970FB6F894DEBF0FBECDBF7C01CB018B
:1047E0004AE08E010F5F1F4FB80142D6F8010190D9
:1047F0000020E9F7AF0141505109401B510BB801AE
:10480000C70139DF27960FB6F894DEBF0FBECDBFC4
:10481000DF91CF911F910F91FF90EF900895EF924C
:10482000FF920F931F93CF93DF93CDB7DEB76497BB
:104830000FB6F894DEBF0FBECDBF7C01CB01BA012D
:104840008E010F5F1F4F22E044E059D3FC0101901D
:104850000020E9F7AF0141505109481B590BBC0139
:10486000C70109DF64960FB6F894DEBF0FBECDBF57
:10487000DF91CF911F910F91FF90EF900895FC0170
:1048800024813581232B31F421E06115710599F0E4
:10489000FB0108C0FC01808191816115710531F433
:1048A00021E0FC018081882331F004C098D521E00B
:1048B000892B09F020E0822F0895CF93DF93FC012C
:1048C000848195814817590770F4C081D181772779
:1048D00067FD7095CE01840F951F76D5009719F06E
:1048E0008C1B9D0B02C08FEF9FEFDF91CF9108953E
:1048F00040E050E0E2CFCF93DF93FC0184819581CB
:104900004817590770F4C081D181FB016081718122
:10491000CE01840F951F73D5009719F08C1B9D0B4A
:1049200002C08FEF9FEFDF91CF91089540E050E0FC
:10493000E2CFBF92CF92DF92EF92FF920F931F933D
:10494000CF93DF936C017B01EA01890124173507BE
:1049500020F48D2FE901042F182F6BE774E0C601B6
:1049600020DED70114968D919C911597C817D90711
:10497000C0F48017910708F48C01D701ED91FC91E8
:104980001197E00FF11FB08010826D917C916C0F38
:104990007D1FC6015ADED701ED91FC91E00FF11F9A
:1049A000B082C601DF91CF911F910F91FF90EF90E0
:1049B000DF90CF90BF900895FC0180819181009796
:1049C00009F0CBC460E070E0CB010895FC01808168
:1049D0009181009709F0BEC460E070E0CB010895BA
:1049E00008950E94B41CFCDF0E944609C5E0DEE188
:1049F0000E94A00C2097E1F308D9FACF08955058EF
:104A0000BB27AA270ED075C166D130F06BD120F03C
:104A100031F49F3F11F41EF45BC10EF4E095E7FB07
:104A200051C1E92F77D180F3BA1762077307840762
:104A3000950718F071F49EF58FC10EF4E0950B2EDA
:104A4000BA2FA02D0B01B90190010C01CA01A001E0
:104A50001124FF27591B99F0593F50F4503E68F13B
:104A60001A16F040A22F232F342F4427585FF3CF7C
:104A7000469537952795A795F0405395C9F77EF44D
:104A80001F16BA0B620B730B840BBAF09150A1F096
:104A9000FF0FBB1F661F771F881FC2F70EC0BA0F1C
:104AA000621F731F841F48F4879577956795B795A4
:104AB000F7959E3F08F0B3CF9395880F08F099279C
:104AC000EE0F979587950895D9D008F481E0089561
:104AD0000CD00FC107D140F0FED030F021F45F3F81
:104AE00019F0F0C0511139C1F3C014D198F39923D2
:104AF000C9F35523B1F3951B550BBB27AA276217A2
:104B00007307840738F09F5F5F4F220F331F441FE6
:104B1000AA1FA9F333D00E2E3AF0E0E830D091501E
:104B20005040E695001CCAF729D0FE2F27D0660F0B
:104B3000771F881FBB1F261737074807AB07B0E84A
:104B400009F0BB0B802DBF01FF2793585F4F2AF060
:104B50009E3F510568F0B6C000C15F3FECF3983E40
:104B6000DCF3869577956795B795F7959F5FC9F7BD
:104B7000880F911D9695879597F90895E1E0660F46
:104B8000771F881FBB1F621773078407BA0720F0BF
:104B9000621B730B840BBA0BEE1F88F7E095089528
:104BA00004D06894B111D9C00895BCD088F09F5743
:104BB00090F0B92F9927B751A0F0D1F0660F771F69
:104BC000881F991F1AF0BA95C9F712C0B13081F049
:104BD000C3D0B1E00895C0C0672F782F8827B85F91
:104BE00039F0B93FCCF3869577956795B395D9F7AA
:104BF0003EF490958095709561957F4F8F4F9F4FB4
:104C00000895E89409C097FB3EF4909580957095BF
:104C100061957F4F8F4F9F4F9923A9F0F92F96E908
:104C2000BB279395F695879577956795B795F1117D
:104C3000F8CFFAF4BB0F11F460FF1BC06F5F7F4F1A
:104C40008F4F9F4F16C0882311F096E911C077232C
:104C500021F09EE8872F762F05C0662371F096E835
:104C6000862F70E060E02AF09A95660F771F881F04
:104C7000DAF7880F9695879597F90895990F0008A8
:104C8000550FAA0BE0E8FEEF16161706E807F9071E
:104C9000C0F012161306E407F50798F0621B730BB9
:104CA000840B950B39F40A2661F0232B242B252B3A
:104CB00021F408950A2609F4A140A6958FEF811DDD
:104CC000811D089597F99F6780E870E060E008957E
:104CD0009FEF80EC089500240A9416161706180614
:104CE0000906089500240A941216130614060506F0
:104CF0000895092E0394000C11F4882352F0BB0F81
:104D000040F4BF2B11F460FF04C06F5F7F4F8F4FE3
:104D10009F4F089557FD9058440F551F59F05F3F1E
:104D200071F04795880F97FB991F61F09F3F79F0CD
:104D300087950895121613061406551FF2CF46954F
:104D4000F1DF08C0161617061806991FF1CF8695D1
:104D50007105610508940895E894BB2766277727B5
:104D6000CB0197F908958ADF08F48FEF08950BD0EF
:104D7000C0CFB1DF28F0B6DF18F0952309F0A2CF3D
:104D8000A7CF1124EACFC6DFA0F3959FD1F3950FEB
:104D900050E0551F629FF001729FBB27F00DB11DBF
:104DA000639FAA27F00DB11DAA1F649F6627B00D4F
:104DB000A11D661F829F2227B00DA11D621F739F38
:104DC000B00DA11D621F839FA00D611D221F749F46
:104DD0003327A00D611D231F849F600D211D822F8D
:104DE000762F6A2F11249F5750408AF0E1F08823D4
:104DF0004AF0EE0FFF1FBB1F661F771F881F9150E1
:104E00005040A9F79E3F510570F05CCFA6CF5F3FA1
:104E1000ECF3983EDCF3869577956795B795F79513
:104E2000E7959F5FC1F7FE2B880F911D969587959B
:104E300097F9089523DF880B990B0895A1E21A2EA4
:104E4000AA1BBB1BFD010DC0AA1FBB1FEE1FFF1F2E
:104E5000A217B307E407F50720F0A21BB30BE40B7E
:104E6000F50B661F771F881F991F1A9469F76095C5
:104E70007095809590959B01AC01BD01CF0108957F
:104E8000052E97FB16F400940FD057FD05D0D6DF02
:104E900007FC02D046F408C0509540953095219506
:104EA0003F4F4F4F5F4F0895909580957095619556
:104EB0007F4F8F4F9F4F0895EE0FFF1F0590F49186
:104EC000E02D19940DD0A59F900DB49F900DA49F37
:104ED000800D911D112408950790F691E02D1994ED
:104EE000A29FB001B39FC001A39F700D811D11242B
:104EF000911DB29F700D811D1124911D0895EF9297
:104F00000F931F93CF93DF93E80147FF02C034E173
:104F100001C034E0E42FFF27E7FDF095F7FF03C061
:104F2000F195E195F109E32E022F2E2FAE01CFD29C
:104F3000CE01DF91CF911F910F91EF900895CF9304
:104F4000DF938230910510F482E090E0E091E0067A
:104F5000F091E10620E030E0A0E0B0E0309739F1D8
:104F60004081518148175907B8F04817590771F423
:104F700082819381109729F013969C938E931297B8
:104F80002CC09093E1068093E00627C021153105DF
:104F900031F04217530718F0A901DB0101C0EF01FE
:104FA0009A01BD01DF010280F381E02DD7CF2115E9
:104FB0003105F9F0281B390B2430310580F48A8142
:104FC0009B816115710521F0FB019383828304C0ED
:104FD0009093E1068093E006FE01329644C0FE0104
:104FE000E20FF31F81939193225031093983288373
:104FF0003AC02091DE063091DF06232B41F4209148
:105000000202309103023093DF062093DE062091E6
:105010000002309101022115310541F42DB73EB750
:105020004091040250910502241B350BE091DE06ED
:10503000F091DF06E217F307A0F42E1B3F0B2817B1
:10504000390778F0AC014E5F5F4F2417350748F001
:105050004E0F5F1F5093DF064093DE0681939193BE
:1050600002C0E0E0F0E0CF01DF91CF910895CF934F
:10507000DF93009709F487C0FC01329713821282F4
:10508000C091E006D091E106209781F42081318122
:10509000280F391F8091DE069091DF068217930753
:1050A00079F5F093DF06E093DE066DC0DE0120E0C7
:1050B00030E0AE17BF0750F412964D915C911397F4
:1050C0009D014115510509F1DA01F3CFB383A283A4
:1050D00040815181840F951F8A179B0771F48D9130
:1050E0009C911197840F951F02969183808312964D
:1050F0008D919C911397938382832115310529F417
:10510000F093E106E093E0063EC0D9011396FC93CC
:10511000EE9312974D915D91A40FB51FEA17FB070F
:1051200079F480819181840F951F0296D90111969F
:105130009C938E938281938113969C938E93129766
:10514000E0E0F0E08A819B81009719F0FE01EC011C
:10515000F9CFCE01029628813981820F931F2091C9
:10516000DE063091DF062817390769F4309729F4F5
:105170001092E1061092E00602C013821282D093D0
:10518000DF06C093DE06DF91CF9108956F927F9284
:105190008F929F92AF92BF92CF92DF92EF92FF9247
:1051A0000F931F93CF93DF93EC01CB01209779F4FA
:1051B000DF91CF911F910F91FF90EF90DF90CF90F3
:1051C000BF90AF909F908F907F906F90B8CEFE0170
:1051D000E60FF71F9E0122503109E217F30708F48A
:1051E000A8C0D9010D911C91119706171707B0F0AF
:1051F0000530110508F49BC0A80144505109461719
:10520000570708F494C002501109061B170B0193AD
:1052100011936D937C93CF012ADF89C05B01A01AA3
:10522000B10A4E01800E911EA091E006B091E106F8
:10523000612C712C60E070E0109709F449C0A8154A
:10524000B905C9F5ED90FC901197670142E0C40ED5
:10525000D11CCA14DB0478F147018A189B08640149
:1052600042E0C40ED11C1296BC9012971396AC91DA
:10527000B5E0CB16D10440F0B282A3839182808244
:10528000D9018D939C9309C00E5F1F4F0E0D1F1DFA
:10529000F90111830083EB2DFA2F6115710531F0AF
:1052A000DB011396FC93EE93129741C0F093E10655
:1052B000E093E0063CC06D917C91119766167706ED
:1052C00008F43B01BD0112960D90BC91A02DB4CF06
:1052D0006091DE067091DF0668157905E9F46816BD
:1052E0007906D0F440910002509101024115510518
:1052F00041F44DB75EB76091040270910502461B00
:10530000570BE417F507A8F4F093DF06E093DE06E9
:10531000F901918380830BC012DE7C01009749F074
:10532000A801BE0148D0CE01A2DEC70104C0CE0153
:1053300002C080E090E0DF91CF911F910F91FF902C
:10534000EF90DF90CF90BF90AF909F908F907F9025
:105350006F9008956627772737C21F93FC0199271E
:105360008827BC01E89411911032E9F3193010F04C
:105370001E30C8F31B3249F01D3241F4689405C059
:1053800062D0610F711D811D911D119110531A3052
:10539000B8F33EF490958095709561957F4F8F4F4F
:1053A0009F4F1F91089591114FC4803219F0895079
:1053B0008550D0F70895FB01DC0102C001900D92E9
:1053C00041505040D8F70895FC018191861721F093
:1053D0008823D9F7992708953197CF010895FB01C4
:1053E000DC018D91019080190110D9F3990B08957A
:1053F000FB01DC0101900D920020E1F70895FB0113
:1054000051915523A9F0BF01DC014D914517411180
:10541000E1F759F4CD010190002049F04D9140157C
:105420004111C9F3FB014111EFCF81E090E00197F9
:105430000895BB274A3031F4992322F4BDE29095B8
:1054400081959F4F16C0592F482F372F262F660F53
:10545000771F881F991F660F771F881F991F620F7C
:10546000731F841F951F660F771F881F991F08954C
:10547000BB27FB015527AA27880F991FAA1FA4172E
:1054800010F0A41B83955051B9F7A05DAA3308F022
:10549000A95DA193009779F7B111B1931192CB0156
:1054A000EEC3F999FECF92BD81BDF89A992780B5D8
:1054B0000895262FF999FECF1FBA92BD81BD20BD58
:1054C0000FB6F894FA9AF99A0FBE019608956F9262
:1054D0007F929F92AF92BF92CF92DF92EF92FF9214
:1054E0000F931F93CF93DF93CDB7DEB729970FB6F6
:1054F000F894DEBF0FBECDBF6A01B22E102F0C3361
:1055000020F4FF24F394F00E02C04CE3F42E0F2D90
:1055100027E0AE014F5F5F4FBFD27981272F2970FF
:10552000213031F0E1FC06C0E0FC06C060E005C0BF
:105530006DE203C06BE201C060E2AE2DA07173FFAB
:1055400036C0662311F084E001C083E08B1510F4AF
:10555000B81A01C0B12CA1110BC0F6018B2D90E23D
:10556000882319F091938150FBCFCB0CD11CB12C27
:10557000662331F0F601608396012F5F3F4F69018A
:10558000C6010396E2FE05C02EE4F601208331E455
:1055900004C02EE6F601208331E631832283FC012C
:1055A0002B2D30E22223F1F131932150FBCF72FFFA
:1055B00040C0662311F084E001C083E08B1510F435
:1055C000B81A01C0B12CA1110BC0F6018B2D90E2CD
:1055D000882319F091938150FBCFCB0CD11CB12CB7
:1055E000662331F0F601608396012F5F3F4F69011A
:1055F000C6010396E2FE07C029E4F60120832EE4EB
:10560000218326E406C029E6F60120832EE62183C5
:1056100026E62283FC012B2D30E2222319F0319360
:105620002150FBCFFC01EB0DF11D10828EEF9FEF9F
:10563000B7C0B1E0611101C0B0E04B2F50E01816C7
:10564000190624F49C012F5F3F4F02C021E030E097
:10565000240F351F112329F0412F50E04F5F5F4F7A
:1056600002C040E050E0420F531F2B2D30E04217A4
:10567000530714F4B41A01C0B12C2E2D287159F41B
:10568000F6012B2D30E2222319F031932150FBCF6C
:10569000CB0CD11CB12CBB2331F0F60160839601F9
:1056A0002F5F3F4F6901A1110BC0F6012B2D30E395
:1056B000222319F031932150FBCFCB0CD11CB12CFC
:1056C000F80E0A81372F3071A32E74FF03C0013307
:1056D00009F4FA941F142CF42F2D293018F028E027
:1056E00001C021E0682F392F97FF02C060E030E051
:1056F000462F532F612C712C3EE2932EBC01621B6E
:1057000071099B01DC01A41BB50BE1E0F0E0EC0F9B
:10571000FD1FAE0FBF1FE12EF12CF194E194F108B3
:105720004F3FFFEF5F0731F4F6019082B6016F5FE4
:105730007F4F6B01841795074CF02417350734F41D
:10574000BD01660D771DFB01118101C010E34150C1
:105750005109FFEF6F1A7F0AB6016F5F7F4F4E1539
:105760005F0524F0F60110836B01DACF4817590763
:1057700039F4063320F4053319F4A11001C011E304
:10578000F6011083FB018B2D90E2882319F0919391
:105790008150FBCFFB01EB0DF11D108280E090E00A
:1057A00029960FB6F894DEBF0FBECDBFDF91CF9123
:1057B0001F910F91FF90EF90DF90CF90BF90AF902F
:1057C0009F907F906F9008958F929F92AF92BF921B
:1057D000CF92DF92EF92FF920F931F93CF93DF93BD
:1057E0008B016115710521F0DB018C9311969C935F
:1057F000EC015E01BFEFAB1ABB0A7501C8808C2DAE
:1058000090E0D1DD892B11F0E501F3CFEDE2CE126E
:1058100008C07E01F2E0EF0EF11CC980DD24D394B4
:1058200009C02BE2C21205C07E0142E0E40EF11C69
:10583000C980D12CE701219743E050E064E272E097
:10584000CE0105D2892BB9F4239645E050E06FE1F3
:1058500072E0CE01FCD1892B09F4259601151105C2
:1058600019F0D801CD93DC93D11000C160E070E055
:1058700080E89FE704C143E050E06CE172E0CE01B4
:10588000E6D1892B59F40115110509F4F4C0B2E0F1
:10589000EB0EF11CF801F182E082EDC0F70160E04F
:1058A00070E0CB01C0E0D0E07F01A0EDAA2EAC0CEF
:1058B00029E02A1528F14D2D4260B42E2D2D287097
:1058C000D2FE04C0211124C0219622C021112197AB
:1058D000A5E0B0E09B01AC01F5DA660F771F881FE9
:1058E000991F6A0D711D811D911D6839A9E97A07FB
:1058F0008A07A9E19A0760F0BD2DB660BB2E08C0EB
:105900002EEFA2120AC0D3FC50C04D2D4860B42E19
:105910003196D701CC90DB2CC7CF2C2D2F7D253491
:1059200009F043C0A081AD3241F4BD2DB061DB2E42
:105930007F0122E0E20EF11C0CC07F01AB3231F09E
:105940004FEFE41AF40A21E030E006C0A2E0EA0ECC
:10595000F11CA18122E030E0A053AA3018F0E21A35
:10596000F30A23C0F70120E030E02038BCE03B0719
:105970005CF4A901440F551F440F551F240F351F18
:10598000220F331F2A0F311DAF014F5F5F4F7A0186
:10599000A081A053AA3010F4FA01E7CFD4FE03C0CF
:1059A000319521953109C20FD31FD1FE09C00115D0
:1059B000110531F0E1E0EE1AF108D801ED92FC9208
:1059C00020D92D2D2370233019F04B015C0106C026
:1059D0004B015C01B7FAB094B7F8B09420E030E026
:1059E000A901C501B40170D8882309F43CC0D7FFD0
:1059F00006C0D195C195D1090BE312E002C003E5C1
:105A000012E06801B8E1CB1AD10890E2E92EF12C3E
:105A1000CE15DF056CF0F801259135914591549133
:105A2000C501B401A4D94B015C01CE19DF09F0CF47
:105A300004501109F594E7940C151D0549F78A2DBA
:105A4000880F8B2D881F8F3F41F020E030E0A901A7
:105A5000C501B40139D8811106C082E290E090936B
:105A6000E3068093E206C501B40109C060E070E07E
:105A700080E89FEF04C060E070E080EC9FE7DF917A
:105A8000CF911F910F91FF90EF90DF90CF90BF903B
:105A9000AF909F908F900895283008F027E033272B
:105AA000DA01990F311D87FD91600096610571053E
:105AB00039F432602E5F3D9330E32A95E1F7089583
:105AC0009F3F30F080387105610509F03C5F3C5F15
:105AD0003D93913008F08068911DDF93CF931F9321
