:1000000010C10000EBC700000C9419080C944408C0
:100010000C946F080C949A080C94C5080C94F00882
:100020000C941B092FC100002DC100002BC1000042
:1000300029C1000027C1000025C1000023C1000024
:1000400021C100001FC100001DC100001BC1000034
:1000500019C1000017C1000015C100000C94460929
:1000600011C100000C94810C0C94B70C0BC1000062
:1000700009C1000007C1000005C1000003C1000064
:1000800001C10000FFC00000FDC00000FBC0000077
:10009000F9C00000F7C00000F5C00000F3C0000088
:1000A000F1C00000EFC00000EDC00000EBC0000098
:1000B000E9C00000E7C00000E5C00000E3C00000A8
:1000C000E1C00000DFC00000DDC00000DBC00000B8
:1000D000D9C00000D7C00000D5C00000D3C00000C8
:1000E000D1C00000C80792079A07A607B307D40734
:1000F000E107690A6C0A5B0A5F0A650AA30A700ACB
:10010000740A7A0A7E0A820A880A8C0A900AA30A6A
:10011000960A9A0A9E0A00000A0B02090C0D0E08A4
:1001200007030401000000000000000000000000C0
:1001300000000000000000000000000000000000BF
:10014000000012111000000000000000000000007C
:10015000000000000000000000000000010210206C
:1001600020080810204010204080020102010804ED
:100170000201010204081020408080402010080481
:1001800002018004020180402010080402010804DA
:10019000020101020408102040800102040810201E
:1001A0004080050505050705080808080202020247
:1001B0000A0A080804040404010101010101010103
:1001C0000303030303030303040707070C0C0C0CCE
:1001D0000C0C0C0C020202020606060606060606B7
:1001E0000B0B0B0B0B0B0B0B000022002500280048
:1001F0002B002E003100340002010000050108012F
:100200000B0100002100240027002A002D003000EF
:10021000330001010000040107010A012D05E90C6A
:10022000390511241FBECFEFD1E2DEBFCDBF00E004
:100230000CBF13E0A0E0B2E0E0E2F7E200E00BBFA9
:1002400002C007900D92A23FB107D9F724E0A2EFB8
:10025000B3E001C01D92A53CB207E1F712E0C0E295
:10026000D2E000E006C022970109FE010BBF0E9408
:10027000C410CC31D10780E00807A9F70E947310A1
:100280000C947F13BDCE8091F6039091F703A0915B
:10029000F803B091F9030196A11DB11D8093F603F7
:1002A0009093F703A093F803B093F9030895809116
:1002B000F2039091F303A091F403B091F50301963A
:1002C000A11DB11D8093F2039093F303A093F40357
:1002D000B093F50308958EBD00000DB407FEFDCF69
:1002E0008EB5089560E08CE10C94DD0A61E08CE14C
:1002F0000C94DD0ACF93DF931F921F92CDB7DEB728
:100300006A838983EFDF89818068E5DF6A81862FD0
:10031000E2DF0F900F90DF91CF91E8CF1F93CF9343
:10032000DF931F921F92CDB7DEB7182F6A837983B0
:10033000D9DF82E390E00E94E409812F8068CBDF5F
:1003400082E390E00E94E4097981872FC4DF82E391
:1003500090E00E94E4096A81862FBDDF82E390E08D
:100360000E94E4090F900F90DF91CF911F91BECFB3
:100370001F93CF93DF9300D0CDB7DEB7182F4B83F9
:100380005A836983AFDF82E390E00E94E409812F02
:100390008068A1DF82E390E00E94E4096981862FF2
:1003A0009ADF82E390E00E94E4095A81852F93DF6F
:1003B00082E390E00E94E4094B81842F8CDF82E38A
:1003C00090E00E94E4090F900F900F90DF91CF9181
:1003D0001F918CCFCF93DF93C82F84DF82E390E00F
:1003E000F3D78C2F78DF82E390E0EED780E073DFE5
:1003F000C82F82E390E0E8D780E06DDFD82F82E35A
:1004000090E0E2D773DF8D2F90E09C2BDF91CF91AE
:1004100008950F931F93CF93182F64DF82E390E02A
:10042000D3D7812F58DF82E390E0CED780E053DF2F
:10043000182F82E390E0C8D780E04DDF082F82E3D9
:1004400090E0C2D780E047DFC82F82E390E0BCD7BE
:100450004DDF6C2F70E080E090E0812B10E0102FDA
:10046000002720E030E0602B712B822B932BCF9163
:100470001F910F9108950F931F93F8948AE1C9DF9C
:1004800080910604813071F58AE0C3DF0091160483
:10049000109117042091180430911904060F171FAA
:1004A000281F391F00931604109317042093180473
:1004B000309319048BE0ADDF009112041091130406
:1004C0002091140430911504060F171F281F391F9F
:1004D0000093120410931304209314043093150412
:1004E0008CE030C0823009F04CC08DE092DF00918A
:1004F0001604109117042091180430911904060F66
:10050000171F281F391F00931604109317042093F8
:100510001804309319048EE07CDF009112041091CE
:1005200013042091140430911504060F171F281F7F
:10053000391F009312041093130420931404309372
:1005400015048FE066DF00910E0410910F042091D6
:10055000100430911104060F171F281F391F009334
:100560000E0410930F042093100430931104809113
:100570000C0490910D04019690930D0480930C044B
:1005800077C0833049F4809108048F3F09F470C02C
:100590008F5F809308046CC0843041F5809107041C
:1005A00081115FC06AEF73E084E294E00E946A0DFB
:1005B00081E010DF4AE050E0BC0184E294E00E9458
:1005C0003C0E6CE284E294E00E94780D82E002DF4F
:1005D0004AE050E0BC0184E294E00E943C0E6CE2F0
:1005E00084E294E00E94780D83E02AC0853009F00F
:1005F0003FC080910704811134C06AEF73E084E248
:1006000094E00E946A0D84E0E5DE4AE050E0BC011F
:1006100084E294E00E943C0E6CE284E294E00E944A
:10062000780D85E0D7DE4AE050E0BC0184E294E03A
:100630000E943C0E6CE284E294E00E94780D86E019
:10064000C9DE4AE050E0BC0184E294E00E943C0E26
:100650006CE284E294E00E94820D10920B041092EE
:100660000A04809107048F3F19F08F5F809307047D
:1006700078941F910F91089561E08DE265D761E054
:100680008BE262D761E089E25FD761E08CE15CD701
:1006900001D48CB583608CBD8DB58E7F8DBD8CB53E
:1006A000837F84608CBD8CB58F7D8CBD26E040E05F
:1006B00052EC61E070E084E294E00E94210C6AE078
:1006C00070E080E090E05BD660E082E03DD760E0E3
:1006D00083E03AD760E085E137D761E08DE26DD7FE
:1006E00061E08BE26AD761E089E267D743E050E0DE
:1006F0006BE372E081E001D443E050E063E471E039
:1007000080E0FBD343E050E067E571E082E0F5C3B1
:1007100060E070E08AE202DE88EC90E055D660E0AE
:1007200070E08BE2FBDD88EC90E04ED660E070E09C
:100730008CE2F4DD88EC90E047D660E070E08DE27A
:10074000EDDD88EC90E040D660E070E08EE2E6DD22
:1007500088EC90E039D660E070E08FE2DFDD88EC75
:1007600090E032D660E070E080E3D8DD88EC90E085
:100770002BD660E070E081E3D1DD88EC90E024D6F8
:1007800060E070E082E3CADD88EC90E01DD66CEF9B
:1007900084E1B0DD88EC90E017D66FE887E1AADD50
:1007A00088EC90E011D660910A0470910B048CE102
:1007B000B5DD88EC90E008D68AE12BDE88EC90E08D
:1007C00003D640E050E160E070E088E1D1DD88ECE4
:1007D00090E0FAD581E0FEDD82E0FCDD83E0FADD29
:1007E00088EC90E0F1C560E070E08AE297DD88EC8B
:1007F00090E0EAD560E070E08BE290DD88EC90E07C
:10080000E3D560E070E08CE289DD88EC90E0DCD537
:1008100060E070E08DE282DD88EC90E0D5D560E0AC
:1008200070E08EE27BDD88EC90E0CED560E070E099
:100830008FE274DD88EC90E0C7D560E070E080E383
:100840006DDD88EC90E0C0D560E070E081E366DDAE
:1008500088EC90E0B9D560E070E082E35FDD88EC81
:1008600090E0B2D56CEF84E145DD88EC90E0ACD54A
:100870006FE887E13FDD88EC90E0A6D560910A043F
:1008800070910B048CE14ADD88EC90E09DD58AE103
:10089000C0DD88EC90E098D540E050E160E070E089
:1008A00088E166DD88EC90E08FD584E093DD85E01B
:1008B00091DD86E08FDD88EC90E086C56CE986E10D
:1008C00019DD84EF91E080D58AE1A3DD84EF91E02A
:1008D0007BD540E052E060E070E088E149DD88ECE3
:1008E00090E072D56EE170E08CE118DD88EC90E06C
:1008F0006BD560E070E086E311DD64E670E080E0D7
:1009000090E03DD560E070E087E308DD64E670E0EC
:1009100080E090E034D560E070E088E3FFDC64E6DE
:1009200070E080E090E02BD588EC90E04DC58AE146
:1009300070DD84EF91E048D540E052E060E070E087
:1009400088E116DD88EC90E03FD56EE170E08CE147
:10095000E5DC88EC90E038D560E070E083E3DEDC35
:1009600064E670E080E090E00AD560E070E084E347
:10097000D5DC64E670E080E090E001D560E070E0F6
:1009800085E3CCDC64E670E080E090E0F8D488ECAD
:1009900090E01AC560E070E08AE2C0DC88EC90E08C
:1009A00013D560E070E08BE2B9DC88EC90E00CD508
:1009B00060E070E08CE2B2DC88EC90E005D560E0AD
:1009C00070E08DE2ABDC88EC90E0FED460E070E09B
:1009D0008EE2A4DC88EC90E0F7D460E070E08FE277
:1009E0009DDC88EC90E0F0D460E070E080E396DC81
:1009F00088EC90E0E9D460E070E081E38FDC88EC83
:100A000090E0E2D460E070E082E388DC88EC90E083
:100A1000DBD46CEF84E16EDC88EC90E0D5D46FE839
:100A200087E168DC88EC90E0CFD468EC70E08CE182
:100A300075DC88EC90E0C8D48AE1EBDC88EC90E0CF
:100A4000C3D440E050E160E070E088E191DC88ECE4
:100A500090E0BAD488EC90E0B7C463EE73E080E035
:100A600094E00E94F80E63EE73E08AEF93E00C943A
:100A7000F80E8AEF93E00E94910E80E094E00C94CF
:100A8000910ECF92DF92EF92FF92CF93DF93CDB78B
:100A9000DEB762970FB6F894DEBF0FBECDBF84E21B
:100AA00094E0C0D5892B09F436C14AE064E274E0D1
:100AB000CE0101960E946D0EBE016F5F7F4F80E0F8
:100AC00094E00E94410FCE0101960E94910EF8948D
:100AD00067E773E080E094E00E94CE0F882349F03E
:100AE000EDDE1092090481E0809306046DE773E067
:100AF00010C063E873E080E094E00E94CE0F88238A
:100B000069F015DF1092090482E08093060469E819
:100B100073E08AEF93E00E944C0FFCC06FE873E033
:100B200080E094E00E94CE0F882349F033DF1092DA
:100B3000080483E08093060466E973E0EACF6EE977
:100B400073E0CE0101960E94F80EBE016F5F7F4FE9
:100B500080E094E00E9422107C01CE0101960E9468
:100B6000910EF7FC5FC06EE973E0CE0107960E941C
:100B7000F80EBE01695F7F4F80E094E00E94221072
:100B8000AC01485F5F4F6CE280E094E00E94EC0FA4
:100B90007C016EE973E0CE010D960E94F80EBE0155
:100BA000635F7F4F80E094E00E942210AC01495FB8
:100BB0005F4F970160E074E0CE0101960E9425101E
:100BC000CE0101960E94681070930B0460930A0492
:100BD000CE0101960E94910ECE010D960E94910EBB
:100BE000CE0107960E94910E80910A0490910B0409
:100BF000181619060CF08EC066EA73E08AEF93E0CF
:100C00000E944C0F60910A0470910B048AEF93E0EC
:100C10000E949F0F6CE28AEF93E00E948C0F78DDB8
:100C200084E071C068EB73E0CE0101960E94F80E7B
:100C3000BE016F5F7F4F80E094E00E9422107C0134
:100C4000CE0101960E94910EF7FC62C068EB73E042
:100C5000CE0107960E94F80EBE01695F7F4F80E0CB
:100C600094E00E942210AC01485F5F4F6CE280E08C
:100C700094E00E94EC0F7C0168EB73E0CE010D96CE
:100C80000E94F80EBE01635F7F4F80E094E00E94F7
:100C90002210AC01495F5F4F970160E074E0CE0124
:100CA00001960E942510CE0101960E946810709353
:100CB0000B0460930A04CE0101960E94910ECE01AE
:100CC0000D960E94910ECE0107960E94910E809182
:100CD0000A0490910B0418161906E4F460EC73E012
:100CE0008AEF93E00E944C0F60910A0470910B040C
:100CF0008AEF93E00E949F0F6CE28AEF93E00E94DC
:100D00008C0F71DD85E0809306041092070402C009
:100D100010920604789480910C0490910D04C2976F
:100D200009F079C0F89410920D0410920C0480918F
:100D30000904813009F04FC06AEF73E084E294E067
:100D4000C9D660911604709117048091180490918F
:100D5000190432E3C32ED12CE12CF12CA70196010A
:100D60000E94A210BA01A9012AE030E084E294E0D6
:100D700030D76CE284E294E0BBD6609112047091AB
:100D800013048091140490911504A70196010E9408
:100D9000A210BA01A9012AE030E084E294E019D758
:100DA0006CE284E294E0A4D660910E0470910F048A
:100DB0008091100490911104A70196010E94A21045
:100DC000BA01A9012AE030E084E294E002D76CE2A3
:100DD00084E294E097D610921604109217041092B1
:100DE0001804109219041092120410921304109215
:100DF00014041092150410920E0410920F04109215
:100E0000100410921104809109048F3F19F08F5F34
:100E100080930904789480910804813071F5F894E6
:100E20006AEF73E084E294E055D681E0D3DA4AE0D9
:100E300050E0BC0184E294E01FD76CE284E294E0CD
:100E400057D682E0C7DA4AE050E0BC0184E294E081
:100E500013D76CE284E294E04BD683E0BBDA4AE03D
:100E600050E0BC0184E294E007D76CE284E294E0B5
:100E700049D683E080930804789462960FB6F8947C
:100E8000DEBF0FBECDBFDF91CF91FF90EF90DF901F
:100E9000CF900895CF93CFB7F89480911A04811121
:100EA00023C0E7EDF1E08491E1E9F1E09491E82FCE
:100EB000F0E0EE0FFF1FEE5FFD4FA591B4918C9116
:100EC000892319F461E085E378D361E085E33CD3BD
:100ED0008CB580618CBD8CB580648CBD61E084E391
:100EE00033D361E083E330D380911A048F5F809322
:100EF0001A04CFBFCF9108950895883008F06DC0CF
:100F0000E82FF0E0EE0FFF1FEA5FFD4F7183608373
:100F100090E0FC013197E730F10590F5EE58FF4F76
:100F20000C94BE10809169008C7F842B80936900A3
:100F3000E89A089580916900440F551F440F551F8A
:100F4000837F842B80936900E99A089580916900DA
:100F500074E0440F551F7A95E1F78F7C842B8093C2
:100F60006900EA9A08958091690066E0440F551F70
:100F70006A95E1F78F73842B80936900EB9A08954B
:100F800080916A008C7F842B80936A00EC9A08958C
:100F900080916A00440F551F440F551F837F842B97
:100FA00080936A00ED9A089580916A0024E0440FCE
:100FB000551F2A95E1F78F7C842B80936A00EE9A67
:100FC000089580916A0096E0440F551F9A95E1F7C5
:100FD0008F73842B80936A00EF9A08951F920F926B
:100FE0000FB60F9211240BB60F922F933F934F938E
:100FF0005F936F937F938F939F93AF93BF93EF9381
:10100000FF93E0910A02F0910B021995FF91EF9185
:10101000BF91AF919F918F917F916F915F914F9110
:101020003F912F910F900BBE0F900FBE0F901F900E
:1010300018951F920F920FB60F9211240BB60F92B4
:101040002F933F934F935F936F937F938F939F93D0
:10105000AF93BF93EF93FF93E0910C02F0910D02D9
:101060001995FF91EF91BF91AF919F918F917F91D2
:101070006F915F914F913F912F910F900BBE0F9009
:101080000FBE0F901F9018951F920F920FB60F92E0
:1010900011240BB60F922F933F934F935F936F934F
:1010A0007F938F939F93AF93BF93EF93FF93E091C1
:1010B0000E02F0910F021995FF91EF91BF91AF9140
:1010C0009F918F917F916F915F914F913F912F9160
:1010D0000F900BBE0F900FBE0F901F9018951F9290
:1010E0000F920FB60F9211240BB60F922F933F93CE
:1010F0004F935F936F937F938F939F93AF93BF9320
:10110000EF93FF93E0911002F09111021995FF9176
:10111000EF91BF91AF919F918F917F916F915F916F
:101120004F913F912F910F900BBE0F900FBE0F90DC
:101130001F9018951F920F920FB60F9211240BB6A5
:101140000F922F933F934F935F936F937F938F9360
:101150009F93AF93BF93EF93FF93E0910602F091BB
:1011600007021995FF91EF91BF91AF919F918F91D8
:101170007F916F915F914F913F912F910F900BBE97
:101180000F900FBE0F901F9018951F920F920FB6E1
:101190000F9211240BB60F922F933F934F935F93AF
:1011A0006F937F938F939F93AF93BF93EF93FF932F
:1011B000E0910802F09109021995FF91EF91BF911A
:1011C000AF919F918F917F916F915F914F913F91DF
:1011D0002F910F900BBE0F900FBE0F901F90189580
:1011E0001F920F920FB60F9211240BB60F922F93EE
:1011F0003F934F935F936F937F938F939F93AF939F
:10120000BF93EF93FF93E0911202F09113021995AF
:10121000FF91EF91BF91AF919F918F917F916F91CE
:101220005F914F913F912F910F900BBE0F900FBE8A
:101230000F901F9018951F920F920FB60F921124C6
:101240000BB60F922F933F934F935F936F937F93C0
:101250008F939F93AF93BF93EF93FF93E09114020B
:10126000F09115021995FF91EF91BF91AF919F9168
:101270008F917F916F915F914F913F912F910F903F
:101280000BBE0F900FBE0F901F9018951F920F92DC
:101290000FB60F9211242F933F938F939F93AF9389
:1012A000BF9380911C0490911D04A0911E04B091E5
:1012B0001F0430911B0423E0230F2D3720F40196E7
:1012C000A11DB11D05C026E8230F0296A11DB11D69
:1012D00020931B0480931C0490931D04A0931E0470
:1012E000B0931F048091200490912104A0912204C6
:1012F000B09123040196A11DB11D80932004909309
:101300002104A0932204B0932304BF91AF919F9135
:101310008F913F912F910F900FBE0F901F901895B6
:101320002FB7F89460911C0470911D0480911E04E5
:1013300090911F042FBF08953FB7F8948091200427
:1013400090912104A0912204B091230426B5A89B7A
:1013500005C02F3F19F00196A11DB11D3FBF6627A3
:10136000782F892F9A2F620F711D811D911D42E0E8
:10137000660F771F881F991F4A95D1F70895CF925E
:10138000DF92EF92FF92CF93DF936B017C01D4DF6A
:10139000EB01C114D104E104F10479F0B0D6CCDF43
:1013A0006C1B7D0B683E7340A0F381E0C81AD10826
:1013B000E108F108C851DC4FECCFDF91CF91FF90ED
:1013C000EF90DF90CF9008958230910538F0880F2C
:1013D000991F880F991F05970197F1F70895789441
:1013E00084B5826084BD84B5816084BD85B582602A
:1013F00085BD85B5816085BDEEE6F0E080818160C8
:101400008083E1E8F0E010828081826080838081C7
:1014100081608083E0E8F0E0808181608083E1EB9F
:10142000F0E0808184608083E0EBF0E08081816087
:101430008083E1E9F0E08081826080838081816047
:101440008083E0E9F0E0808181608083E1EAF0E080
:10145000808182608083808181608083E0EAF0E027
:10146000808181608083E1E2F1E08081826080831D
:10147000808181608083E0E2F1E08081816080830F
:10148000EAE7F0E0808184608083808182608083ED
:101490008081816080838081806880831092C10018
:1014A000089590E0FC013197E231F10508F04BC05E
:1014B000E758FF4F63C6809180008F7703C080910B
:1014C00080008F7D80938000089580918000877FC9
:1014D000F9CF84B58F7702C084B58F7D84BD089520
:1014E0008091B0008F7703C08091B0008F7D809392
:1014F000B0000895809190008F7707C08091900090
:101500008F7D03C080919000877F80939000089525
:101510008091A0008F7707C08091A0008F7D03C0CD
:101520008091A000877F8093A00008958091200182
:101530008F7707C0809120018F7D03C080912001AB
:10154000877F809320010895CF93DF9390E0FC0183
:10155000E45AFE4F2491FC01EE55FE4F84918823FE
:1015600049F190E0880F991FFC01EE5FFD4FA591B6
:10157000B49188519E4FFC01C591D4919FB76111E0
:1015800008C0F8948C91209582238C9388818223C3
:101590000AC0623051F4F8948C91322F3095832335
:1015A0008C938881822B888304C0F8948C91822B41
:1015B0008C939FBFDF91CF9108950F931F93CF938B
:1015C000DF931F92CDB7DEB7282F30E0F901EA5E36
:1015D000FE4F8491F901E45AFE4F1491F901EE5542
:1015E000FE4F04910023C1F0882319F0698359DF6D
:1015F0006981E02FF0E0EE0FFF1FE851FE4FA5914B
:10160000B4919FB7F8948C91611103C01095812318
:1016100001C0812B8C939FBF0F90DF91CF911F91C1
:101620000F910895FC01818D228D90E0805C9F4F89
:10163000821B91098F7399270895FC01918D828DEA
:10164000981731F0828DE80FF11D858D90E0089597
:101650008FEF9FEF0895FC01918D828D981761F0B7
:10166000828DDF01A80FB11D5D968C91928D9F5FD9
:101670009F73928F90E008958FEF9FEF089580EE13
:101680009CE0892B39F080E090E0892B19F098D10B
:10169000811125C080E090E0892B41F080E090E04E
:1016A000892B21F00E94000081111CC080E090E095
:1016B000892B41F080E090E0892B21F00E9400000E
:1016C000811113C080E090E0892BA1F080E090E0D0
:1016D000892B81F00E94000081110AC008950E94A8
:1016E0000000D8CF0E940000E1CF0E940000EACFA6
:1016F0000C9400000895FC01848DDF01A80FB11D3A
:10170000A35ABF4F2C91848D90E001968F73992737
:10171000848FA689B7892C93A089B1898C91806424
:101720008C93938D848D981306C00288F389E02DE5
:1017300080818F7D80830895CF93DF93EC01888D26
:101740008823C1F0EA89FB89808185FD05C0A889CD
:10175000B9898C9186FD0EC00FB607FCF5CF80814C
:1017600085FFF2CFA889B9898C9185FFEDCFCE0195
:10177000C2DFE8CFDF91CF910895CF92DF92FF9241
:101780000F931F93CF93DF931F92CDB7DEB76C01FA
:1017900081E0D60158968C9358975B969C915B9705
:1017A0005C968C915C97981307C05096ED91FC91D4
:1017B0005197808185FD2DC0F601038D10E00F5FEC
:1017C0001F4F0F731127F02EF601848DF81210C0F1
:1017D0000FB607FCF9CFD6015096ED91FC915197C9
:1017E000808185FFF1CFC601698385DF6981ECCFF8
:1017F000838DE80FF11DE35AFF4F6083D6015B969E
:101800000C935B975296ED91FC9153978081806287
:101810000CC0D6015696ED91FC9157976083509677
:10182000ED91FC91519780818064808381E090E00C
:101830000F90DF91CF911F910F91FF90DF90CF908C
:101840000895BF92CF92DF92EF92FF92CF93DF93F2
:10185000EC016A017B01B22EE889F98982E080837C
:10186000411581EE58076105710599F060E079E056
:101870008DE390E0A701960143D42150310941093D
:1018800051095695479537952795211580E13807D9
:1018900090F0E889F989108260E874E88EE190E0C0
:1018A000A70196012DD421503109410951095695BE
:1018B000479537952795EC85FD853083EE85FF8527
:1018C0002083188EEC89FD89B082EA89FB898081AA
:1018D00080618083EA89FB89808188608083EA89CE
:1018E000FB89808180688083EA89FB8980818F7D84
:1018F0008083DF91CF91FF90EF90DF90CF90BF90EA
:1019000008951F920F920FB60F9211240BB60F92EB
:101910002F938F939F93EF93FF93E0913404F09173
:1019200035048081E0913A04F0913B0482FD12C0BD
:10193000908180913D048F5F8F7320913E048217C8
:1019400051F0E0913D04F0E0EC5DFB4F958F80930A
:101950003D0401C08081FF91EF919F918F912F9164
:101960000F900BBE0F900FBE0F901F9018951F92F7
:101970000F920FB60F9211240BB60F922F933F9335
:101980004F935F936F937F938F939F93AF93BF9387
:10199000EF93FF9384E294E0AEDEFF91EF91BF916D
:1019A000AF919F918F917F916F915F914F913F91F7
:1019B0002F910F900BBE0F900FBE0F901F90189598
:1019C00084E294E02FDE21E0892B09F420E0822FCD
:1019D0000895109227041092260488EE93E0A0E068
:1019E000B0E08093280490932904A0932A04B09334
:1019F0002B0485ED93E0909325048093240485ECDB
:101A000090E0909331048093300484EC90E09093C4
:101A100033048093320480EC90E0909335048093FB
:101A2000340481EC90E0909337048093360482EC88
:101A300090E0909339048093380486EC90E0909382
:101A40003B0480933A0410923D0410923E0410929D
:101A50003F04109240040895CF92DF92EF92FF92DC
:101A60000F931F93CF93DF937C016A01EB0100E09A
:101A700010E00C151D0571F06991D701ED91FC91F5
:101A80000190F081E02DC7011995892B19F00F5FA6
:101A90001F4FEFCFC801DF91CF911F910F91FF90A2
:101AA000EF90DF90CF9008956115710581F0DB0113
:101AB0000D900020E9F7AD0141505109461B570B2D
:101AC000DC01ED91FC910280F381E02D199480E01E
:101AD00090E00895DC01ED91FC91DB0114964D91AD
:101AE0005C9115976D917C910280F381E02D1994A2
:101AF000DC01ED91FC910190F081E02D199461EEF3
:101B000073E0D2CF0F931F93CF93DF93EC01F0DFFD
:101B10008C01CE01F4DF800F911FDF91CF911F91D7
:101B20000F9108958F929F92AF92BF92CF92DF92C2
:101B3000EF92FF920F931F93CF93DF93CDB7DEB752
:101B4000A1970FB6F894DEBF0FBECDBF7C01C42EA7
:101B5000E52FCB01D22E19A221E02D1510F02AE09D
:101B6000D22E8E010F5D1F4F8D2C912CA12CB12CEC
:101B70006C2D7E2FA5019401C3D28C2DD29E80198D
:101B80001124015011098A3014F4805D01C0895C70
:101B9000F8018083211531054105510521F0C22E40
:101BA000E32FCA01E5CFB801C7017EDFA1960FB6CA
:101BB000F894DEBF0FBECDBFDF91CF911F910F9183
:101BC000FF90EF90DF90CF90BF90AF909F908F905D
:101BD0000895CF92DF92EF92FF920F931F93CF93CE
:101BE000DF93EC016A017B012115310579F4E8816D
:101BF000F9810190F081E02D642FDF91CF911F9149
:101C00000F91FF90EF90DF90CF9019942A3031051B
:101C1000D9F477FF18C06DE26BDF8C01442755279C
:101C2000BA014C195D096E097F092AE0CE017ADFFD
:101C3000800F911FDF91CF911F910F91FF90EF9037
:101C4000DF90CF9008952AE0B701A601CE01DF9181
:101C5000CF911F910F91FF90EF90DF90CF9062CFC7
:101C60002115310541F4DC01ED91FC910190F081E9
:101C7000E02D642F199456CF9A01AB0160E070E01B
:101C8000EFCF0F931F93CF93DF93EC0149DB68876E
:101C900079878A879B87E881F9810680F781E02D23
:101CA000CE01199597FF14C03BDB088519852A855D
:101CB0003B85601B710B820B930B0C811D812E8168
:101CC0003F81601771078207930728F38FEF9FEF1B
:101CD000DF91CF911F910F910895EF92FF920F9393
:101CE0001F93CF93DF93EC018B01E42E63EE73E03F
:101CF0007FD0C801C6DFFF24E7FCF09497FD09C040
:101D00008E159F0531F0682FCE0106D1C801B9DFCD
:101D1000F5CFCE01DF91CF911F910F91FF90EF9002
:101D20000895FC0180819181CBC2CF93DF93EC01B8
:101D300088819981009709F0C3D2198218821D8287
:101D40001C821B821A82DF91CF9108950F931F93FB
:101D5000CF93DF93EC018B016F5F7F4F8881998177
:101D60003ED3009731F0998388831B830A8381E0F7
:101D700001C080E0DF91CF911F910F910895CF9323
:101D8000DF93EC0188819981892B29F08A819B81DD
:101D90008617970758F4CE01D9DF882341F08C814C
:101DA0009D81892B19F4E881F981108281E0DF910E
:101DB000CF910895EF92FF920F931F93CF93DF93EC
:101DC000EC017B018A01BA01DADF811103C0CE0187
:101DD000ACDF06C01D830C83B7018881998126D4AE
:101DE000CE01DF91CF911F910F91FF90EF90089559
:101DF000FC011182108213821282158214826115F5
:101E0000710551F0FB0101900020E9F7AF0141504D
:101E10005109461B570BCECF08950F931F93CF93B5
:101E2000DF938C01EB01FC0180819181009789F0A7
:101E3000428153812C813D814217530748F06881CC
:101E40007981F4D38C819D81F8019583848312C0BC
:101E500037D288819981F801918380838A819B811F
:101E6000938382838C819D819583848319821882D8
:101E70001B821A821D821C82DF91CF911F910F91CC
:101E80000895CF93DF93EC018617970709F0C5DF1C
:101E9000CE01DF91CF910895CF93DF93EC016115CF
:101EA000710559F0FB0101900020E9F7AF014150A5
:101EB0005109461B570B7EDF01C037DFCE01DF9192
:101EC000CF910895EF92FF920F931F93CF93DF93DB
:101ED000EC017B010C811D816115710511F480E01D
:101EE00014C04115510581F0040F151FB80147DFDB
:101EF0008823A9F3288139818C819D81B701820FC4
:101F0000931F94D31D830C8381E0DF91CF911F91A8
:101F10000F91FF90EF900895CF93DF931F921F9240
:101F2000CDB7DEB769831A8241E050E0BE016F5F32
:101F30007F4FC8DF0F900F90DF91CF910895EF9200
:101F4000FF920F931F93CF93DF93CDB7DEB7289700
:101F50000FB6F894DEBF0FBECDBF7C01CB014AE0C7
:101F60008E010F5F1F4FB80182D3F801019000204E
:101F7000E9F7AF0141505109401B510BB801C701AE
:101F8000A1DF28960FB6F894DEBF0FBECDBFDF915C
:101F9000CF911F910F91FF90EF900895FC01248144
:101FA0003581232B31F421E06115710599F0FB0196
:101FB00008C0FC01808191816115710531F421E037
:101FC000FC018081882331F004C027D321E0892BD4
:101FD00009F020E0822F0895CF93DF93FC018481E4
:101FE00095814817590770F4C081D181772767FD23
:101FF0007095CE01840F951F05D3009719F08C1BA7
:102000009D0B02C08FEF9FEFDF91CF910895CF938B
:10201000DF93FC01848195814817590770F4C081D2
:10202000D181FB0160817181CE01840F951F05D3A1
:10203000009719F08C1B9D0B02C08FEF9FEFDF9173
:10204000CF91089540E050E0E2CFBF92CF92DF926F
:10205000EF92FF920F931F93CF93DF936C017B015D
:10206000EA0189012417350720F48D2FE901042F97
:10207000182F63EE73E0C601BBDED70114968D9175
:102080009C911597C817D907C0F48017910708F4D9
:102090008C01D701ED91FC911197E00FF11FB080F9
:1020A00010826D917C916C0F7D1FC601F5DED7010A
:1020B000ED91FC91E00FF11FB082C601DF91CF914D
:1020C0001F910F91FF90EF90DF90CF90BF900895F8
:1020D000FC0180819181009709F065C260E070E0A9
:1020E000CB01089508957BD9FDDF0E943C03CFE327
:1020F000DBE00E9441052097E1F3C1DAFACF0895B1
:10210000A1E21A2EAA1BBB1BFD010DC0AA1FBB1FFB
:10211000EE1FFF1FA217B307E407F50720F0A21B6D
:10212000B30BE40BF50B661F771F881F991F1A94DA
:1021300069F760957095809590959B01AC01BD0104
:10214000CF010895052E97FB16F400940FD057FD8C
:1021500005D0D6DF07FC02D046F408C05095409564
:10216000309521953F4F4F4F5F4F08959095809543
:10217000709561957F4F8F4F9F4F0895EE0FFF1F12
:102180000590F491E02D19940790F691E02D1994A3
:10219000CF93DF938230910510F482E090E0E091DC
:1021A000C304F091C40420E030E0A0E0B0E0309738
:1021B00039F14081518148175907B8F0481759073C
:1021C00071F482819381109729F013969C938E93DA
:1021D00012972CC09093C4048093C30427C0211588
:1021E000310531F04217530718F0A901DB0101C096
:1021F000EF019A01BD01DF010280F381E02DD7CF0D
:1022000021153105F9F0281B390B2430310580F4F4
:102210008A819B816115710521F0FB019383828383
:1022200004C09093C4048093C304FE01329644C05A
:10223000FE01E20FF31F81939193225031093983FC
:1022400028833AC02091C1043091C204232B41F469
:1022500020910202309103023093C2042093C10402
:1022600020910002309101022115310541F42DB772
:102270003EB74091040250910502241B350BE091BA
:10228000C104F091C204E217F307A0F42E1B3F0B28
:102290002817390778F0AC014E5F5F4F24173507D8
:1022A00048F04E0F5F1F5093C2044093C1048193C6
:1022B000919302C0E0E0F0E0CF01DF91CF9108956B
:1022C000CF93DF93009709F487C0FC013297138204
:1022D0001282C091C304D091C404209781F420815C
:1022E0003181280F391F8091C1049091C204821757
:1022F000930779F5F093C204E093C1046DC0DE0149
:1023000020E030E0AE17BF0750F412964D915C917B
:1023100013979D014115510509F1DA01F3CFB383FC
:10232000A28340815181840F951F8A179B0771F406
:102330008D919C911197840F951F029691838083B4
:1023400012968D919C911397938382832115310569
:1023500029F4F093C404E093C3043EC0D90113965A
:10236000FC93EE9312974D915D91A40FB51FEA1760
:10237000FB0779F480819181840F951F0296D90122
:1023800011969C938E938281938113969C938E9346
:102390001297E0E0F0E08A819B81009719F0FE013E
:1023A000EC01F9CFCE01029628813981820F931F6B
:1023B0002091C1043091C2042817390769F430977D
:1023C00029F41092C4041092C30402C01382128232
:1023D000D093C204C093C104DF91CF9108956F924E
:1023E0007F928F929F92AF92BF92CF92DF92EF92A5
:1023F000FF920F931F93CF93DF93EC01CB012097B4
:1024000079F4DF91CF911F910F91FF90EF90DF90C2
:10241000CF90BF90AF909F908F907F906F90B8CEED
:10242000FE01E60FF71F9E0122503109E217F30764
:1024300008F4A8C0D9010D911C9111970617170730
:10244000B0F00530110508F49BC0A80144505109B3
:102450004617570708F494C002501109061B170BC2
:10246000019311936D937C93CF012ADF89C05B01A7
:10247000A01AB10A4E01800E911EA091C304B09122
:10248000C404612C712C60E070E0109709F449C01D
:10249000A815B905C9F5ED90FC901197670142E0C8
:1024A000C40ED11CCA14DB0478F147018A189B08BA
:1024B000640142E0C40ED11C1296BC901297139690
:1024C000AC91B5E0CB16D10440F0B282A3839182E7
:1024D0008082D9018D939C9309C00E5F1F4F0E0D12
:1024E0001F1DF90111830083EB2DFA2F6115710572
:1024F00031F0DB011396FC93EE93129741C0F093F9
:10250000C404E093C3043CC06D917C91119766169E
:10251000770608F43B01BD0112960D90BC91A02DE9
:10252000B4CF6091C1047091C20468157905E9F4D3
:1025300068167906D0F440910002509101024115CD
:10254000510541F44DB75EB76091040270910502E8
:10255000461B570BE417F507A8F4F093C204E09369
:10256000C104F901918380830BC012DE7C010097C6
:1025700049F0A801BE013DD0CE01A2DEC70104C0D2
:10258000CE0102C080E090E0DF91CF911F910F91CA
:10259000FF90EF90DF90CF90BF90AF909F908F9083
:1025A0007F906F9008951F93FC0199278827BC01A5
:1025B000E89411911032E9F3193010F01E30C8F38D
:1025C0001B3249F01D3241F4689405C05AD0610FA6
:1025D000711D811D911D119110531A30B8F33EF4F5
:1025E00090958095709561957F4F8F4F9F4F1F916C
:1025F0000895FB01DC0102C001900D924150504052
:10260000D8F70895FC018191861721F08823D9F726
:10261000992708953197CF010895FB01DC018D9131
:10262000019080190110D9F3990B0895FB01DC0189
:1026300001900D920020E1F70895FB01519155237F
:10264000A9F0BF01DC014D9145174111E1F759F4A3
:10265000CD010190002049F04D9140154111C9F381
:10266000FB014111EFCF81E090E001970895BB2776
:102670004A3031F4992322F4BDE2909581959F4F21
:1026800016C0592F482F372F262F660F771F881F08
:10269000991F660F771F881F991F620F731F841F72
:1026A000951F660F771F881F991F0895BB27FB0191
:1026B0005527AA27880F991FAA1FA41710F0A41B3B
:1026C00083955051B9F7A05DAA3308F0A95DA19395
:1026D000009779F7B111B1931192CB0100C0DC01E1
:1026E000FC01672F71917723E1F7329704C07C9149
:1026F0006D9370836291AE17BF07C8F3089512E01F
:10270000C0E2D2E000E005C022970109FE010BBF44
:102710003BDDC232D10780E00807B1F7F894FFCF64
:102720000000C50480007C077C077C077C077C07D1
:102730007C077C077C075374617274207265616446
:10274000696E6720616C6C20726567732023232398
:102750002323232323232323232323232320003062
:102760007831373D00307831383D00307831393DAF
:1027700000307831413D00307831423D00307831D1
:10278000433D00307831443D00307831453D0030E4
:102790007831463D00307832303D00307832313D7E
:1027A00000307832323D00307832333D00307832BC
:1027B000343D00307832353D00307832363D0030DF
:1027C0007832373D00307832383D00307832393D4C
:1027D00000307832413D00307832423D003078326E
:1027E000433D00307832443D00307832453D003082
:1027F0007832463D00307833303D00307833313D1B
:1028000000307833323D00307833333D0030783358
:10281000343D00307833353D00307833363D00307C
:102820007833373D00307833383D00307833393DE8
:1028300000307833413D00307833423D003078330A
:10284000433D00307833443D00307833453D00301F
:102850007833463D00307834303D00307834313DB7
:1028600000307834323D00307834333D00307834F5
:10287000343D00307834353D00307834363D00301A
:102880007834373D00307834383D00307837453D76
:1028900000307837463D00435F43414C0049524D7C
:1028A000532C00565F43414C0056524D532C005060
:1028B000685F43414C005741545448522C004150EA
:1028C0005F43414C2C005741545448525F4C696E51
:1028D000654379636C655F0052505F43414C2C0047
:1028E00056415248525F4C696E654379636C655F2F
:1028F0000000000000BD0B2C0D120B2B0B1D0B9CC0
:102900000B0D0A006E616E00696E66006F766600E0
:022910002E0097
:00000001FF
