:100000007EC200000C94E6270C9411280C943C2826
:100010000C9467280C9492280C94BD280C94E82822
:100020000C9413299DC200009BC2000099C20000DD
:1000300097C2000095C2000093C2000091C2000068
:100040008FC200008DC200008BC2000089C2000078
:100050000C94172785C2000083C200000C943E292F
:100060007FC200000C94542C0C948A2C79C200009E
:1000700077C2000075C2000073C2000071C20000A8
:100080006FC200006DC200006BC2000069C20000B8
:1000900067C2000065C2000063C2000061C20000C8
:1000A0005FC200005DC200005BC2000059C20000D8
:1000B00057C2000055C2000053C2000051C20000E8
:1000C0004FC200004DC200004BC2000049C20000F8
:1000D00047C2000045C200000C94FF2C0C94352D43
:1000E0003FC20000C0278A2792279E27AB27CC2734
:1000F000D9273D2A402A2F2A332A392A772A442A07
:10010000482A4E2A522A562A5C2A602A642A772ACA
:100110006A2A6E2A722A000000000000005F0000B8
:100120000007000700147F147F14242A7F2A12235B
:100130001308646236495522500005030000001C74
:100140002241000041221C0014083E081408083E09
:100150000808005030000008080808080060600027
:100160000020100804023E5149453E00427F4000F5
:1001700042615149462141454B311814127F1027E5
:10018000454545393C4A494930017109050336491D
:10019000494936064949291E0036360000005636C0
:1001A00000000814224100141414141400412214F5
:1001B000080201510906324979413E7E1111117E32
:1001C0007F494949363E414141227F4141221C7FBE
:1001D000494949417F090909013E4149497A7F0856
:1001E00008087F00417F41002040413F017F081403
:1001F00022417F404040407F020C027F7F04081074
:100200007F3E4141413E7F090909063E4151215E41
:100210007F09192946464949493101017F01013FBA
:100220004040403F1F2040201F3F4038403F631464
:1002300008146307087008076151494543007F416E
:10024000410002040810200041417F000402010225
:1002500004404040404000010204002054545478BF
:100260007F484444383844444420384444487F3824
:1002700054545418087E0901020C5252523E7F0811
:1002800004047800447D40002040443D007F102855
:10029000440000417F40007C041804787C0804047A
:1002A0007838444444387C14141408081414187C16
:1002B0007C080404084854545420043F4440203C23
:1002C0004040207C1C2040201C3C4030403C4428C6
:1002D0001028440C5050503C4464544C44000836A0
:1002E00041007F4141417F7F7F7F7F7F1008081061
:1002F00008784641467800000A0B02090C0D0E08EA
:1003000007030401000000000000000000000000DE
:1003100000000000000000000000000000000000DD
:10032000000012111000000000000000000000009A
:10033000000000000000000000000000010210208A
:10034000200808102040102040800201020108040B
:10035000020101020408102040808040201008049F
:1003600002018004020180402010080402010804F8
:10037000020101020408102040800102040810203C
:100380004080050505050705080808080202020265
:100390000A0A080804040404010101010101010121
:1003A0000303030303030303040707070C0C0C0CEC
:1003B0000C0C0C0C020202020606060606060606D5
:1003C0000B0B0B0B0B0B0B0B000022002500280066
:1003D0002B002E003100340002010000050108014D
:1003E0000B0100002100240027002A002D0030000E
:1003F000330001010000040107010A0100407A10E6
:10040000F35A00A0724E18090010A5D4E80000E8C5
:100410007648170000E40B54020000CA9A3B000023
:1004200000E1F505000080969800000040420F00B2
:100430000000A08601000000102700000000E80373
:10044000000000006400000000000A00000000003E
:100450000100000000002C76D888DC674F0823DFFD
:10046000C1DFAE59E1B1B796E5E3E453C63AE651D0
:10047000997696E8E6C28426EB898C9B62ED407CF7
:100480006FFCEFBC9C9F40F2BAA56FA5F490055A93
:100490002AF75C936B6CF9676DC11BFCE0E40D47B8
:1004A000FEF520E6B500D0ED902E030094357705DB
:1004B0000080841E080000204E0A000000C80C3393
:1004C0003333330F986E12831141EF8D2114893B22
:1004D000E65516CFFEE6DB18D1844B381BF77C1DA2
:1004E000901DA4BBE424203284725E228100C9F1F5
:1004F00024ECA1E53D276C22BC2C672D8A22112417
:100500001FBECFEFD1E2DEBFCDBF00E00CBF13E0D6
:10051000A0E0B2E0E0EBF2E700E00BBF02C0079022
:100520000D92AC3DB107D9F729E0ACEDB3E001C0C5
:100530001D92AE30B207E1F714E0CCEFD4E000E05A
:1005400006C022970109FE010BBF0E94CC33C63FB3
:10055000D10780E00807A9F70E9473310C9447394E
:100560004FCD0F931F938091470790914807A0911B
:100570004907B0914A074091430750914407609161
:100580004507709146078C019D01041B150B260B36
:10059000370B0B3F110521053105D0F030913507A0
:1005A00020913607321314C0809343079093440779
:1005B000A0934507B093460760E08DE20E94B12A00
:1005C000809135078F5F8093350781E08093060225
:1005D00080913507853010F0109235071F910F91EB
:1005E00008958EE197E00E94692E84E297E00E94D0
:1005F000692E8BE497E00E94692E85EB97E00E94BC
:10060000692E8BEB97E00C94692E0C94CC360C94ED
:10061000D436209132072F5F2093320780912A072A
:1006200090912B07A0912C07B0912D070596A11D45
:10063000B11D80932A0790932B07A0932C07B093AA
:100640002D072C3098F0809133078F5F809333070C
:100650008091510790915207019690935207809391
:10066000510781E0809334071092320708958EBDC0
:1006700000000DB407FEFDCF8EB508959CB5937FA5
:10068000982B9CBD08952CB5982F93702C7F922B9E
:100690009CBD9DB582FB882780F99E7F982B9DBDD0
:1006A0000895E1E8F0E080E180831092800085E029
:1006B0008093C30786E39AE99093C5078093C407A4
:1006C000909387008093860085E1808389E093E0A2
:1006D0009093C2078093C10781E080936F000895D3
:1006E00061E081E30E94782A61E08CE10E94782A2F
:1006F00061E08BE10E94782A61E088E10E94782A1B
:1007000061E08DE20E94782A61E08AE10E94782A05
:1007100060E08EE30E94782A60E088E20E94782AF6
:1007200060E086E30E94782A61E086E20E94782AEF
:1007300061E087E30E94782A60E08BE20E94782AD9
:1007400061E084E30E94782A60E082E30E94782AD4
:1007500061E083E30E94782A61E081E30E94B12A8C
:1007600061E08CE10E94B12A61E08BE10E94B12A34
:1007700061E088E10E94B12A60E08DE20E94B12A26
:1007800060E08AE10C94B12AEF92FF920F931F93DD
:10079000CF93DF93182F042FF52ED62FE72ECAE024
:1007A0008FEF65DFC150E1F760E08BE10E94B12A75
:1007B000812F80645CDF8E2D5ADF8D2F58DF8F2DC7
:1007C00056DF802F54DF85E952DF8FEF50DFD82FBF
:1007D0008F3F11F4C150C9F761E08BE10E94B12A4B
:1007E0008D2FDF91CF911F910F91FF90EF90089582
:1007F000CF93DF930E94422780E040DF8CB58F7D4E
:100800008CBD82E040DFCFEFD0E040E050E0BA01A5
:1008100080E0BADF2197E9F08130B9F7CFEFD0E07F
:1008200040E050E0BA0181E0AFDF2197A1F08111F3
:10083000F7CFCBE0D0E040E052E060E070E080E154
:10084000A3DF219721F08111F6CF80E005C088E079
:1008500003C081E001C082E0DF91CF910895CF9283
:10086000DF92EF92FF920F931F93CF93DF936B0171
:100870007C018A01BDDFC82F80E005DFC11138C0CF
:1008800089E0CC0CDD1CEE1CFF1C8A95D1F7CBE077
:10089000D0E0B701A60181E177DF219759F18111FD
:1008A000F8CF60E08BE10E94B12ACAE5D2E08FEF79
:1008B000DEDE8E3F21F02197D1F784E01CC0E801F5
:1008C000E12CF12C8FEFD3DE89938FEFE81AF80A31
:1008D000E11482E0F806B1F78FEFC9DE8FEFC7DED3
:1008E0008FEFC5DE61E08BE10E94B12A80E003C09A
:1008F0008C2F01C083E0DF91CF911F910F91FF906A
:10090000EF90DF90CF900895CF92DF92EF92FF9219
:100910000F931F93CF93DF936B017C018A0168DFF4
:10092000C82F80E0B0DEC11150C099E0CC0CDD1CB6
:10093000EE1CFF1C9A95D1F7C0E0D0E0B701A601EC
:1009400088E122DF2196CB30D10509F43CC081112A
:10095000F5CF60E08BE10E94B12A8EEF88DE78014E
:10096000C12CD12CF70181917F0181DEFFEFCF1ADD
:10097000DF0AC11422E0D206A9F78FEF78DE8FEFED
:1009800076DE8FEF74DE8F71853061F061E08BE190
:100990000E94B12A86E01AC0CE010196C136DA4E15
:1009A00030F4EC018FEF63DE8823B1F306C061E021
:1009B0008BE10E94B12A87E009C061E08BE10E94CF
:1009C000B12A80E003C085E001C08C2FDF91CF9178
:1009D0001F910F91FF90EF90DF90CF90089584E0EA
:1009E0004DDE60E08CE10E94B12A80E04CDE82E3C3
:1009F00090E00C94B72961E08CE10E94B12A82E377
:100A000090E00E94B72980E039CECF93DF931F9208
:100A10001F92CDB7DEB76A838983E1DF8981806861
:100A200026DE6A81862F23DE0F900F90DF91CF9113
:100A3000E2CF1F93CF93DF931F921F92CDB7DEB704
:100A4000182F6A837983CBDF82E390E00E94B72975
:100A5000812F80680CDE82E390E00E94B7297981C3
:100A6000872F05DE82E390E00E94B7296A81862FF6
:100A7000FEDD82E390E00E94B7290F900F90DF9196
:100A8000CF911F91B8CF1F93CF93DF9300D0CDB7F5
:100A9000DEB7182F4B835A836983A1DF82E390E08E
:100AA0000E94B729812F8068E2DD82E390E00E94F6
:100AB000B7296981862FDBDD82E390E00E94B729A8
:100AC0005A81852FD4DD82E390E00E94B7294B81C3
:100AD000842FCDDD82E390E00E94B7290F900F9024
:100AE0000F90DF91CF911F9186CFCF93DF931F920D
:100AF000CDB7DEB7898373DF8981B9DD8FEFB7DDCD
:100B0000898379DF89810F90DF91CF910895CF9309
:100B1000DF93C82F64DF82E390E00E94B7298C2F17
:100B2000A6DD82E390E00E94B72980E0A0DDC82F17
:100B300082E390E00E94B72980E099DDD82F82E31C
:100B400090E00E94B72957DF8D2F90E09C2BDF911A
:100B5000CF9108950F931F93CF93182F40DF82E317
:100B600090E00E94B729812F82DD82E390E00E940D
:100B7000B72980E07CDD182F82E390E00E94B7293E
:100B800080E075DD082F82E390E00E94B72980E0C5
:100B90006EDDC82F82E390E00E94B7292CDF6C2F16
:100BA00070E080E090E0812B10E0102F002720E023
:100BB00030E0602B712B822B932BCF911F910F91E3
:100BC0000895DF92EF92FF920F931F93CF93DF93DD
:100BD000CDB7DEB76F970FB6F894DEBF0FBECDBFAF
:100BE000CE0101967C0102E81FE0C8010EDDD82E7F
:100BF000C80101960ADDF701D0828183F2E0EF0E91
:100C0000F11C0E5F1F4F003A8FE0180771F7CE01FD
:100C10004F96FE01319640E0219131911216130654
:100C20000CF441E0E817F907B9F7442309F4BDC013
:100C30008E010F5F1F4F93E3F801619171918F0156
:100C4000892F9F8FF6DE9F8D9F5F9234A9F764E016
:100C500083E1DBDE88EC90E00E94B7296CEF84E151
:100C6000D4DE88EC90E00E94B72960E085E1CDDE1B
:100C700088EC90E00E94B7296CE986E1C6DE88EC3A
:100C800090E00E94B72968E787E1BFDE88EC90E03A
:100C90000E94B72940E050E0BA0188E1F4DE88EC18
:100CA00090E00E94B7296FEF7FEF8BE1C2DE88EC06
:100CB00090E00E94B7296FEF7FEF8CE1BADE88ECFD
:100CC00090E00E94B7296FEF8DE19FDE88EC90E005
:100CD0000E94B72960E08EE198DE88EC90E00E94E7
:100CE000B7296FEF8FE191DE88EC90E00E94B72981
:100CF0006FEF80E28ADE88EC90E00E94B72960E026
:100D000078E08AE296DE88EC90E00E94B72960E005
:100D100078E08BE28EDE88EC90E00E94B72960E0FC
:100D200078E08CE286DE88EC90E00E94B72960E0F3
:100D300078E080E37EDE88EC90E00E94B72960E0F6
:100D400078E081E376DE88EC90E00E94B72960E0ED
:100D500078E082E36EDE88EC90E00E94B72960E0E4
:100D600078E08DE266DE88EC90E00E94B72960E0D2
:100D700078E08EE25EDE88EC90E00E94B72960E0C9
:100D800078E08FE256DE88EC90E00E94B7296F96FB
:100D90000FB6F894DEBF0FBECDBFDF91CF911F918C
:100DA0000F91FF90EF90DF900895CE0101967C01A6
:100DB00002E81FE0C80129DCD82EC801019625DC15
:100DC000F701D0828183F2E0EF0EF11C0E5F1F4F1E
:100DD000003A8FE0180771F78E010F5F1F4F93E302
:100DE000F801619171918F01892F9F8F22DE9F8D74
:100DF0009F5F9234A9F72BCF0F931F93CF93DF936D
:100E00008B01D82FC92F20E030E040E85FE30E943B
:100E1000023387FF10C020E030E040E85FEBB8010C
:100E20008D2F9C2F0E94E43118164CF008E411EE2F
:100E3000DAE7CFEB04C008E411EEDAE7CFE3B8015C
:100E40008D2F9C2FDF91CF911F910F910895CF92FD
:100E5000DF92EF92FF920F931F93DC01FB01C080A2
:100E6000D180E280F380A701772757FD7095672F27
:100E70000D911D912D913C911397F7FE14C04F5F7A
:100E80005F4F6F4F7F4F400F511F621F731F4D9376
:100E90005D936D937C93139780819181A281B3813F
:100EA000AF6FBF6F0FC0400F511F621F731F4D9375
:100EB0005D936D937C93139780819181A281B3811F
:100EC000AA27BB2780839183A283B3831F910F91AD
:100ED000FF90EF90DF90CF900895CF93DF93C09174
:100EE0005307D09154071C161D060CF0D5C1209154
:100EF000190630911A0640911B0650911C0660910C
:100F0000FD067091FE068091FF06909100070E94F9
:100F100080316093FD067093FE068093FF069093E8
:100F2000000720911D0630911E0640911F0650912A
:100F3000200660910107709102078091030790914C
:100F400004070E9480316093010770930207809329
:100F500003079093040720912106309122064091C7
:100F60002306509124066091050770910607809131
:100F70000707909108070E948031609305077093DE
:100F80000607809307079093080720910D0630917C
:100F90000E0640910F06509110066091F106709177
:100FA000F2068091F3069091F4060E9480316093DE
:100FB000F1067093F2068093F3069093F406209165
:100FC000110630911206409113065091140660915B
:100FD000F5067091F6068091F7069091F8060E944A
:100FE00080316093F5067093F6068093F706909330
:100FF000F80620911506309116064091170650917B
:1010000018066091F9067091FA068091FB0690919E
:10101000FC060E9480316093F9067093FA06809373
:10102000FB069093FC0620918D0630918E06409130
:101030008F06509190066091B5067091B60680912A
:10104000B7069091B8060E9480316093B506709300
:10105000B6068093B7069093B80620918906309122
:101060008A0640918B0650918C066091B90670916A
:10107000BA068091BB069091BC060E9480316093B5
:10108000B9067093BA068093BB069093BC06209174
:1010900085063091860640918706509188066091BA
:1010A000BD067091BE068091BF069091C0060E9459
:1010B00080316093BD067093BE068093BF06909307
:1010C000C0062091990630919A0640919B06509156
:1010D0009C066091A9067091AA068091AB0690913A
:1010E000AC060E9480316093A9067093AA06809393
:1010F000AB069093AC0620919506309196064091F0
:101100009706509198066091AD067091AE06809159
:10111000AF069091B0060E9480316093AD06709347
:10112000AE068093AF069093B00620919106309161
:10113000920640919306509194066091B106709189
:10114000B2068091B3069091B4060E9480316093FC
:10115000B1067093B2068093B3069093B4062091C3
:1011600081063091820640918306509184066091F9
:10117000C1067091C2068091C3069091C4060E9478
:1011800080316093C1067093C2068093C30690932A
:10119000C40620917D0630917E0640917F065091D5
:1011A00080066091C5067091C6068091C706909131
:1011B000C8060E9480316093C5067093C60680936E
:1011C000C7069093C8062091790630917A0640911F
:1011D0007B0650917C066091C9067091CA06809189
:1011E000CB069091CC060E9480316093C906709323
:1011F000CA068093CB069093CC06209125063091A9
:1012000026064091270650912806609109077091A3
:101210000A0780910B0790910C070E948031609320
:10122000090770930A0780930B0790930C0720918E
:10123000290630912A0640912B0650912C06609188
:101240000D0770910E0780910F07909110070E9473
:10125000803160930D0770930E0780930F07909372
:10126000100720912D0630912E0640912F065091A7
:1012700030066091110770911207809113079091C9
:1012800014070E94803160931107709312078093B6
:1012900013079093140720C18091190690911A06A4
:1012A000A0911B06B0911C068093FD069093FE064C
:1012B000A093FF06B093000780911D0690911E0633
:1012C000A0911F06B091200680930107909302071A
:1012D000A0930307B0930407809121069091220602
:1012E000A0912306B09124068093050790930607EA
:1012F000A0930707B093080780910D0690910E0602
:10130000A0910F06B09110068093F1069093F2061B
:10131000A093F306B093F406809111069091120603
:10132000A0911306B09114068093F5069093F606EB
:10133000A093F706B093F8068091150690911606D3
:10134000A0911706B09118068093F9069093FA06BB
:10135000A093FB06B093FC0680918D0690918E06BB
:10136000A0918F06B09190068093B5069093B60633
:10137000A093B706B093B8068091890690918A062B
:10138000A0918B06B0918C068093B9069093BA0613
:10139000A093BB06B093BC0680918506909186060B
:1013A000A0918706B09188068093BD069093BE06F3
:1013B000A093BF06B093C0068091990690919A06BB
:1013C000A0919B06B0919C068093A9069093AA06D3
:1013D000A093AB06B093AC068091950690919606CB
:1013E000A0919706B09198068093AD069093AE06B3
:1013F000A093AF06B093B0068091910690919206AB
:10140000A0919306B09194068093B1069093B20692
:10141000A093B306B093B4068091810690918206A2
:10142000A0918306B09184068093C1069093C20672
:10143000A093C306B093C40680917D0690917E066A
:10144000A0917F06B09180068093C5069093C60652
:10145000A093C706B093C8068091790690917A064A
:10146000A0917B06B0917C068093C9069093CA0632
:10147000A093CB06B093CC068091250690912606CA
:10148000A0912706B09128068093090790930A0738
:10149000A0930B07B0930C078091290690912A0620
:1014A000A0912B06B0912C0680930D0790930E0708
:1014B000A0930F07B093100780912D0690912E06F0
:1014C000A0912F06B09130068093110790931207D8
:1014D000A0931307B09314072196D0935407C09399
:1014E0005307DF91CF9108954F925F926F927F9251
:1014F0008F929F92AF92BF92CF92DF92EF92FF9224
:10150000CF93DF93CDB7DEB7E0970FB6F894DEBF89
:101510000FBECDBF60914707709148078091490782
:1015200090914A07C0903F07D0904007E090410754
:10153000F09042076C197D098E099F090E94503274
:101540006B017C016091F9057091FA05882777FDA0
:101550008095982F0E94523220E030E040E85DE311
:101560000E94063360931507709316078093170740
:10157000909318076091E7057091E8058091E9055F
:101580009091EA050E9452322091A9073091AA0752
:101590004091AB075091AC070E94E8316093190667
:1015A00070931A0680931B0690931C066091E305C6
:1015B0007091E4058091E5059091E6050E94523214
:1015C0002091AD073091AE074091AF075091B00721
:1015D0000E94E83160931D0670931E0680931F06DB
:1015E000909320066091DF057091E0058091E10500
:1015F0009091E2050E9452322091B1073091B207DA
:101600004091B3075091B4070E94E83160932106DE
:101610007093220680932306909324066091F3052D
:101620007091F4058091F5059091F6050E94523273
:1016300020919D0730919E0740919F075091A007F0
:101640000E94E83160930D0670930E0680930F069A
:10165000909310066091EF057091F0058091F1056F
:101660009091F2050E9452322091A1073091A20779
:101670004091A3075091A4070E94E831609311069E
:101680007093120680931306909314066091EB05F5
:101690007091EC058091ED059091EE050E9452321B
:1016A0002091A5073091A6074091A7075091A80760
:1016B0000E94E83160931506709316068093170612
:1016C0009093180680910B0690910C069C0144277C
:1016D00037FD4095542F29833A834B835C83CA019D
:1016E000B9010E9452322091610730916207409106
:1016F0006307509164070E940633A70196010E9478
:10170000E83120E030E04AE754E40E9406336D837C
:101710007E838F83988760938D0670938E06809367
:101720008F06909390068091090690910A069C017D
:10173000442737FD4095542F29873A874B875C878C
:10174000CA01B9010E9452322091650730916607A3
:1017500040916707509168070E940633A7019601E0
:101760000E94E83120E030E04AE754E40E9406336A
:101770006D877E878F87988B6093890670938A0622
:1017800080938B0690938C068091070690910806B3
:101790009C01442737FD4095542F298B3A8B4B8B66
:1017A0005C8BCA01B9010E945232209169073091C5
:1017B0006A0740916B0750916C070E940633A7019E
:1017C00096010E94E83120E030E04AE754E40E94AC
:1017D00006336D8B7E8B8F8B988F6093850670930D
:1017E00086068093870690938806809105069091DF
:1017F00006069C01442737FD4095542F298F3A8FC8
:101800004B8F5C8FCA01B9010E945232209155075B
:101810003091560740915707509158070E94063360
:10182000A70196010E94E83120E030E04AE754E445
:101830000E9406336093990670939A0680939B06E4
:1018400090939C0680910306909104069C01442786
:1018500037FD4095542F2D8F3E8F4F8F58A3CA01CF
:10186000B9010E9452322091590730915A07409194
:101870005B0750915C070E940633A70196010E9406
:10188000E83120E030E04AE754E40E9406336093F8
:10189000950670939606809397069093980680918C
:1018A0000106909102069C01442737FD4095542F74
:1018B00029A33AA34BA35CA3CA01B9010E945232E7
:1018C00020915D0730915E0740915F07509160075E
:1018D0000E940633A70196010E94E83120E030E023
:1018E0004AE754E40E94063360939106709392068F
:1018F00080939306909394068091FF059091000643
:101900009C01442737FD4095542F2DA33EA34FA3A0
:1019100058A7CA01B9010E94523220916D07309137
:101920006E0740916F07509170070E940633A70120
:1019300096010E94E83120E030E04AE754E40E943A
:1019400006332B013C0160938106709382068093DD
:101950008306909384068091FD059091FE059C017D
:10196000442737FD4095542F29A73AA74BA75CA7DA
:10197000CA01B9010E945232209171073091720759
:1019800040917307509174070E940633A701960196
:101990000E94E83120E030E04AE754E40E94063338
:1019A0004B015C0160937D0670937E0680937F06F9
:1019B000909380068091FB059091FC059C01442743
:1019C00037FD4095542F2DA73EA74FA758ABCA010E
:1019D000B9010E94523220917507309176074091EB
:1019E0007707509178070E940633A70196010E945D
:1019F000E83120E030E04AE754E40E9406336B010E
:101A00007C016093790670937A0680937B069093AD
:101A10007C06A30192016D817E818F8198850E9451
:101A2000E831EAD96093250670932606809327064D
:101A300090932806A50194016D857E858F859889F0
:101A40000E94E831D9D96093290670932A068093C1
:101A50002B0690932C06A70196016D897E898F89AC
:101A6000988D0E94E831C8D960932D0670932E0698
:101A700080932F06909330068091510690915206E4
:101A8000A0915306B091540629813A814B815C8123
:101A9000820F931FA41FB51F809351069093520687
:101AA000A0935306B093540680914D0690914E0634
:101AB000A0914F06B091500629853A854B855C85EB
:101AC000820F931FA41FB51F80934D0690934E065F
:101AD000A0934F06B09350068091490690914A0614
:101AE000A0914B06B0914C0629893A894B895C89B3
:101AF000820F931FA41FB51F8093490690934A0637
:101B0000A0934B06B0934C068091450690914606F3
:101B1000A0914706B0914806298D3A8D4B8D5C8D7A
:101B2000820F931FA41FB51F80934506909346060E
:101B3000A0934706B09348068091410690914206D3
:101B4000A0914306B09144062D8D3E8D4F8D58A136
:101B5000820F931FA41FB51F8093410690934206E6
:101B6000A0934306B093440680913D0690913E06B3
:101B7000A0913F06B091400629A13AA14BA15CA1DA
:101B8000820F931FA41FB51F80933D0690933E06BE
:101B9000A0933F06B09340068091390690913A0693
:101BA000A0913B06B0913C062DA13EA14FA158A5A6
:101BB000820F931FA41FB51F8093390690933A0696
:101BC000A0933B06B0933C06809135069091360673
:101BD000A0913706B091380629A53AA54BA55CA57A
:101BE000820F931FA41FB51F80933506909336066E
:101BF000A0933706B0933806809131069091320653
:101C0000A0913306B09134062DA53EA54FA558A945
:101C1000820F931FA41FB51F809331069093320645
:101C2000A0933306B093340661E576E085E796E04D
:101C30000ED96DE476E081E796E009D969E476E0B3
:101C40008DE696E004D965E476E089E696E0FFD873
:101C500061E476E085E696E0FAD86DE376E081E629
:101C600096E0F5D869E376E08DE596E0F0D865E397
:101C700076E089E596E0EBD861E376E085E596E0ED
:101C8000E6D86091750670917606809177069091FE
:101C900078060E9452322091850730918607409144
:101CA0008707509188070E9406336093D906709386
:101CB000DA068093DB069093DC06609171067091E2
:101CC000720680917306909174060E9452322091A0
:101CD000890730918A0740918B0750918C070E94A9
:101CE00006336093DD067093DE068093DF069093E3
:101CF000E00660916D0670916E0680916F0690917E
:101D000070060E94523220918D0730918E074091CB
:101D10008F07509190070E9406336093E1067093FD
:101D2000E2068093E3069093E40660916906709161
:101D30006A0680916B0690916C060E945232209147
:101D4000790730917A0740917B0750917C070E9478
:101D500006336093CD067093CE068093CF069093A2
:101D6000D006609165067091660680916706909135
:101D700068060E94523220917D0730917E07409183
:101D80007F07509180070E9406336093D1067093BD
:101D9000D2068093D3069093D40660916106709129
:101DA000620680916306909164060E9452322091EF
:101DB00081073091820740918307509184070E94E8
:101DC00006336093D5067093D6068093D70690931A
:101DD000D80660915D0670915E0680915F069091D5
:101DE00060060E94523220919107309192074091F3
:101DF0009307509194070E9406336093E506709311
:101E0000E6068093E7069093E80660915906709184
:101E10005A0680915B0690915C060E945232209196
:101E200095073091960740919707509198070E9427
:101E300006336093E9067093EA068093EB0690936D
:101E4000EC06609155067091560680915706909168
:101E500058060E9452322091990730919A0740917A
:101E60009B0750919C070E9406336093ED06709388
:101E7000EE068093EF069093F0062FD880914707E7
:101E800090914807A0914907B0914A0780933F0776
:101E900090934007A0934107B0934207E0960FB696
:101EA000F894DEBF0FBECDBFDF91CF91FF90EF90D2
:101EB000DF90CF90BF90AF909F908F907F906F906A
:101EC0005F904F9008950E94942960934707709304
:101ED00048078093490790934A0781E00E9487054D
:101EE00090930C0680930B0682E00E9487059093E6
:101EF0000A068093090683E00E94870590930806EE
:101F00008093070684E00E948705909306068093DD
:101F1000050685E00E9487059093040680930306DA
:101F200086E00E948705909302068093010687E071
:101F30000E948705909300068093FF0588E00E9429
:101F400087059093FE058093FD0589E00E94870533
:101F50009093FC058093FB0580E10E948705909398
:101F6000FA058093F90581E10E94750590E0909350
:101F7000F8058093F7058AE00E94AA05683E23E0F1
:101F80007207810591052CF440E030E020E080E00C
:101F900004C0462F372F282F892F4093F305309305
:101FA000F4052093F5058093F6058BE00E94AA05C1
:101FB000683E23E07207810591052CF440E030E093
:101FC00020E080E004C0462F372F282F892F409330
:101FD000EF053093F0052093F1058093F2058CE036
:101FE0000E94AA05683E23E07207810591052CF442
:101FF00040E030E020E080E004C0462F372F282F5B
:10200000892F4093EB053093EC052093ED058093E9
:10201000EE058DE00E94AA0587FF05C040E030E094
:1020200020E080E004C0462F372F282F892F4093CF
:10203000E7053093E8052093E9058093EA058EE0F3
:102040000E94AA0587FF05C040E030E020E080E064
:1020500004C0462F372F282F892F4093E305309354
:10206000E4052093E5058093E6058FE00E94AA052C
:1020700087FF05C040E030E020E080E004C0462F4C
:10208000372F282F892F4093DF053093E0052093C9
:10209000E1058093E20528CACF92DF92EF92FF928A
:1020A000CF93DF936091530770915407882777FD92
:1020B0008095982F0E9452326B017C01CDEFD6E0C3
:1020C0009B01AC01688179818A819B810E94E83102
:1020D000688379838A839B83C1E0D7E0A701960157
:1020E000688179818A819B810E94E8316883798344
:1020F0008A839B83C5E0D7E0A70196016881798137
:102100008A819B810E94E831688379838A839B83DB
:10211000C1EFD6E0A7019601688179818A819B8110
:102120000E94E831688379838A839B83C5EFD6E078
:10213000A7019601688179818A819B810E94E8319B
:10214000688379838A839B83C9EFD6E0A7019601D0
:10215000688179818A819B810E94E83168837983D3
:102160008A839B83C5EBD6E0A701960168817981BC
:102170008A819B810E94E831688379838A839B836B
:10218000C9EBD6E0A7019601688179818A819B819C
:102190000E94E831688379838A839B83CDEBD6E004
:1021A000A7019601688179818A819B810E94E8312B
:1021B000688379838A839B83C9EAD6E0A701960165
:1021C000688179818A819B810E94E8316883798363
:1021D0008A839B83CDEAD6E0A70196016881798145
:1021E0008A819B810E94E831688379838A839B83FB
:1021F000C1EBD6E0A7019601688179818A819B8134
:102200000E94E831688379838A839B83C1ECD6E09E
:10221000A7019601688179818A819B810E94E831BA
:10222000688379838A839B83C5ECD6E0A7019601F6
:10223000688179818A819B810E94E83168837983F2
:102240008A839B83C9ECD6E0A701960168817981D6
:102250008A819B810E94E831688379838A839B838A
:10226000C9E0D7E0A7019601688179818A819B81C5
:102270000E94E831688379838A839B83CDE0D7E02D
:10228000A7019601688179818A819B810E94E8314A
:10229000688379838A839B83C1E1D7E0A701960194
:1022A000688179818A819B810E94E8316883798382
:1022B0008A839B831092540710925307DF91CF912A
:1022C000FF90EF90DF90CF900895CF93DF93D82FBA
:1022D000C62F60E089E10E94B12A60E088E10E9497
:1022E000B12A8D2F80680E9437038C2F80640E9452
:1022F000370361E088E1DF91CF910C94B12ACF934D
:10230000DF9360E070E080E090E0DFDF61E089E192
:102310000E94B12A60E088E10E94B12AC7EED3E0B2
:1023200089910E94370385E0CF3DD807C9F761E066
:1023300088E1DF91CF910C94B12ACF93C82F60E050
:1023400089E10E94B12A60E088E10E94B12A81E21D
:102350000E9437038C2F80680E94370380E20E941E
:10236000370361E088E1CF910C94B12AE7EEF3E006
:102370009FEF882311F0908301C01082319625E0F1
:10238000EF3DF207B1F7BBCF61E088E10E94782A08
:1023900061E087E10E94782A61E089E10E94782A61
:1023A00061E083E30E94782A61E084E30E94782A56
:1023B0000E94422780E00E943E038CB58F7D8CBD39
:1023C00060E087E10E94B12A61E087E10E94B12AC2
:1023D00060E089E10E94B12A60E088E10E94B12AB0
:1023E00081E20E94370380EB0E94370384E00E9461
:1023F000370384E10E94370380E20E9437038CE0B8
:102400000E94370361E088E10E94B12A80E0AECFEC
:102410009C01265031092E34310528F560337105B1
:1024200010F59B012770332753E0759567955A95F2
:10243000E1F734E5369FF001379FF00D1124E80FE6
:10244000F91FE951FC4F81E090E0022E01C0880F96
:102450000A94EAF7442319F09081982B03C08095E1
:1024600090819823908308954F925F926F927F920C
:102470008F929F92AF92BF92CF92DF92EF92FF9294
:102480000F931F93CF93DF93EB01642E552E722E83
:10249000992787FD9095809725E0289F5001299FD7
:1024A000B00C11242696C12CD12CC5018A5E9E4FFA
:1024B0005C01442443944724F501EC0DFD1D8490F8
:1024C000062D152DE12CF12C912CC4010E2C02C0EF
:1024D000959587950A94E2F780FF02C0472D01C0C9
:1024E000442DB801CE0194DF9FEFE91AF90A0F5F7E
:1024F0001F4F88E0E816F10441F79FEFC91AD90A87
:10250000219685E0C816D104B9F6DF91CF911F91CD
:102510000F91FF90EF90DF90CF90BF90AF909F9082
:102520008F907F906F905F904F9008956F927F9201
:102530008F929F92AF92BF92CF92DF92EF92FF92D3
:102540000F931F93CF93DF93C82E992EEB01742E18
:10255000219763E0CC0FDD1F6A95E1F77E015E01F4
:1025600087E0A80EB11CDD24D394D426AE14BF049A
:1025700044F40C2D192DE12CF12C6624639467246E
:1025800012C000E010E04D2DB701C80141DF0F5F20
:102590001F4F04351105B9F7EFEFEE1AFE0AE6CF2B
:1025A000E6E0EE0EF11CF80181918F018823A1F085
:1025B000272DAE01B70158DF4701F5E08F0E911CC2
:1025C0006E01AC14BD0464F3462DB601C40120DFD6
:1025D0008FEFC81AD80AF5CFDF91CF911F910F91D5
:1025E000FF90EF90DF90CF90BF90AF909F908F9033
:1025F0007F906F9084CECF92DF92EF92FF920F93F5
:102600001F93CF93DF93C62E9C0121503109E4E044
:10261000220F331FEA95E1F779014FE0E40EF11C38
:10262000F4E5DF2E08E010E0C1E0D0E02E153F0514
:1026300081F1C90137FD079673E0959587957A95E5
:10264000E1F7D89EF001D99EF00D1124C901B8011F
:102650000E947833AE0102C0440F551F8A95E2F7FD
:10266000CA01642F809540E050E0E951FC4FDF0142
:10267000A40FB51F9C91CC2011F0962B01C098237C
:102680009C934F5F5F4F4530510589F72F5F3F4F58
:10269000CDCFDF91CF911F910F91FF90EF90DF9001
:1026A000CF902DCE2F923F924F925F926F927F925A
:1026B0008F929F92AF92BF92CF92DF92EF92FF9252
:1026C0000F931F93CF93DF93CDB7DEB7A6970FB6C7
:1026D000F894DEBF0FBECDBF6091E3037091E403B9
:1026E0008091E5039091E6032FE430E040E050E074
:1026F0000E948B332AE2269F4001279F900C1124D1
:102700001E0185E2280E311C8E010F5F1F4F9401C0
:10271000201B310B7801C12CD12C2901400E511EF8
:10272000E3E04E0E511CF7011082118212821382D7
:1027300032016C0C7D1C43E0A42EB12CC501860D2A
:10274000971D2DA33EA30E940503F70140815181EF
:1027500062817381762F652F542F4427482B408345
:10276000518362837383F1E0AF1AB1082DA13EA1BA
:102770008FEFA816B80611F7E4E0EE0EF11CF4E0B6
:10278000CF0ED11C8CE0C816D10469F6045F1F4F30
:102790000215130509F0BECF8401075D1F4FF6E255
:1027A0008F0E911C40E050E0BA01CC24D42EE52ECF
:1027B000F62EC8010E940503B701A601482B01505F
:1027C00011090815190589F740939D0650939E0637
:1027D00060939F067093A00689819A81AB81BC812A
:1027E0008093750690937606A0937706B09378064B
:1027F0008D819E81AF81B88580937106909372061A
:10280000A0937306B093740689859A85AB85BC85C1
:1028100080936D0690936E06A0936F06B09370063A
:102820008D859E85AF85B8898093690690936A06E9
:10283000A0936B06B0936C0689899A89AB89BC8991
:102840008093650690936606A0936706B09368062A
:102850008D899E89AF89B88D8093610690936206B9
:10286000A0936306B0936406898D9A8DAB8DBC8D61
:1028700080935D0690935E06A0935F06B09360061A
:102880008D8D9E8DAF8DB8A18093590690935A0679
:10289000A0935B06B0935C0689A19AA1ABA1BCA1F1
:1028A0008093550690935606A0935706B09358060A
:1028B000A6960FB6F894DEBF0FBECDBFDF91CF91C5
:1028C0001F910F91FF90EF90DF90CF90BF90AF904E
:1028D0009F908F907F906F905F904F903F902F9040
:1028E00008952F923F924F925F926F927F928F92B4
:1028F0009F92AF92BF92CF92DF92EF92FF920F938F
:102900001F93CF93DF93CDB7DEB7A9970FB6F89497
:10291000DEBF0FBECDBF8091E3039091E403A09191
:10292000E503B091E6030196A11DB11D8093E30379
:102930009093E403A093E503B093E6038DA39EA3D5
:10294000AFA3B8A7CE0185965C0100E010E0FFE4DC
:10295000CF2ED12CE12CF12CAAE28A2EF5019190F8
:102960005F016091E3037091E4038091E50390912E
:10297000E603A70196010E948B33869E9001879EF5
:10298000300D1124692DC801820F931F0E94D43687
:102990000F5F1F4F0330110509F780917506909165
:1029A0007606A0917706B091780689839A83AB83E7
:1029B000BC838091710690917206A0917306B091CC
:1029C00074068D839E83AF83B88780916D06909146
:1029D0006E06A0916F06B091700689879A87AB87C3
:1029E000BC878091690690916A06A0916B06B091B0
:1029F0006C068D879E87AF87B88B80916506909116
:102A00006606A0916706B0916806898B9A8BAB8B9E
:102A1000BC8B8091610690916206A0916306B09193
:102A200064068D8B9E8BAF8BB88F80915D069091E5
:102A30005E06A0915F06B0916006898F9A8FAB8F7A
:102A4000BC8F8091590690915A06A0915B06B09177
:102A50005C068D8F9E8FAF8FB8A3809155069091A5
:102A60005606A0915706B091580689A39AA3ABA326
:102A7000BCA300E010E0EFE44E2E512C612C712C31
:102A8000E12CF12C22242394312C2C0E3D1E200EFF
:102A9000311EF101EE0DFF1D80819181A281B38174
:102AA0008DA39EA3AFA3B8A74701800E911ECE01B0
:102AB00085965C01C12CD12CF50141915F0149A79C
:102AC0006091E3037091E4038091E5039091E60344
:102AD000A30192010E948B33EAE2E69F9001E79FF7
:102AE000300D11242D5F3F4F280D391D69A5C901F7
:102AF0008C0D9D1D0E940703FFEFCF1ADF0A44E0F3
:102B0000C416D104C9F684E0E80EF11C9CE0E91675
:102B1000F10409F0BECF045F1F4F0432110509F024
:102B2000AFCF80919D0690919E06A0919F06B09197
:102B3000A0068DA39EA3AFA3B8A7FE01B5965F0123
:102B400000E010E05FE4C52ED12CE12CF12C6AE20C
:102B5000862EF50191905F016091E3037091E4038B
:102B60008091E5039091E603A70196010E948B33C3
:102B7000869E9001879E300D1124295D3F4F692D5F
:102B8000C901800F911F0E94D4360F5F1F4F033081
:102B90001105F9F6A9960FB6F894DEBF0FBECDBFAA
:102BA000DF91CF911F910F91FF90EF90DF90CF9029
:102BB000BF90AF909F908F907F906F905F904F905D
:102BC0003F902F9008954F925F926F927F928F92D5
:102BD0009F92AF92BF92CF92DF92EF92FF920F93AC
:102BE0001F93CF93DF9300D01F92CDB7DEB705E5DB
:102BF00017E0CE0101964C015E0195E0A90EB11CD3
:102C0000E12CF12C6801C818D908F601E55BF74FF3
:102C10006F01240136016E0C7F1CC201860D971DC9
:102C20000E940503F20181932F01EA15FB05A9F724
:102C3000F801EE0DFF1D89819A81AB81BC818083F3
:102C40009183A283B383F4E0EF0EF11C8CE0E816CD
:102C5000F104F9F6045F1F4F97E0053B190781F671
:102C60000F900F900F900F90DF91CF911F910F91C8
:102C7000FF90EF90DF90CF90BF90AF909F908F909C
:102C80007F906F905F904F900895EF92FF920F9317
:102C90001F93CF93DF9300D01F92CDB7DEB7CE0145
:102CA00001967C0106E51FE0C8010E940503F701BB
:102CB00081937F010F5F1F4F0A35FFE01F07A1F7C8
:102CC00069817A818B819C810F900F900F900F907A
:102CD000DF91CF911F910F91FF90EF900895BF92D8
:102CE000CF92DF92EF92FF920F931F93CF93DF93D8
:102CF0006ADF05E517E0B12CC0E0D0E0F801EC0F89
:102D0000FD1FC080D180E280F38020E030E0A90187
:102D1000C701B6010E940233181664F420E030E0C7
:102D200040E85FE4C701B6010E94E431882311F056
:102D3000BB24B3942496CC30D10501F7045F1F4F18
:102D400087E0053B1807C1F6B1103DDFDF91CF9159
:102D50001F910F91FF90EF90DF90CF90BF9008955B
:102D60004F925F926F927F928F929F92AF92BF929B
:102D7000CF92DF92EF92FF920F931F93CF93DF9347
:102D800000D01F92CDB7DEB7AADF00E010E0CE0181
:102D900001967C011C82580192E0A90EB11CFE0133
:102DA00034966F01C5010E940503F60182936F01FD
:102DB000F1E0AF1AB108CE14DF04A1F789809A8040
:102DC000AB80BC801C8228012CE2420E511CCE013B
:102DD00004963C0168019AE2C90ED11CC2010E940E
:102DE0000503F30182933F01F1E04F1A51086E147D
:102DF0007F04A1F789819A81AB81BC81B501A401CF
:102E00004F5F5F4F6F4F7F4F481759076A077B0728
:102E1000B9F088169906AA06BB0649F41092E30396
:102E20001092E4031092E5031092E6030AC0809228
:102E3000E3039092E403A092E503B092E60301C09D
:102E400086010C3C2CE0120748F08093E30390933A
:102E5000E403A093E503B093E60306C048175907BF
:102E60006A077B0709F496CF10DF6093A50670937D
:102E7000A6068093A7069093A80614DC0F900F90E7
:102E80000F900F90DF91CF911F910F91FF90EF90D6
:102E9000DF90CF90BF90AF909F908F907F906F907A
:102EA0005F904F9008952F923F924F925F926F9252
:102EB0007F928F929F92AF92BF92CF92DF92EF92CA
:102EC000FF920F931F93CF93DF93CDB7DEB7C0511F
:102ED000D2400FB6F894DEBF0FBECDBFAE014F5F3C
:102EE0005F4F60E070E084E090E00E942F04811169
:102EF0000EC38981CF5FDD4F8883C150D2408A8164
:102F0000CE5FDD4F8883C250D2408B81CD5FDD4FD5
:102F10008883C350D240CC5FDD4F1882C450D2406A
:102F2000CF5FDD4FC880D980EA80FB80C150D2409E
:102F300051E1F694E794D794C7945A95D1F7DD24DC
:102F4000EE24FF240FEFC01AD00AE00AF00A66E070
:102F5000CC0CDD1CEE1CFF1C6A95D1F710E0882418
:102F60008A94982CAA24A394B12CC75FDD4F888241
:102F70009982AA82BB82C950D240CB5FDD4F1882B2
:102F800019821A821B82C550D240CB5FDD4F8880E8
:102F90009980AA80BB80C550D240C75FDD4F288191
:102FA00039814A815B81C950D240820E931EA41E92
:102FB000B51E3FEF831A930AA30AB30AB694A794E7
:102FC000979487942401350144E0640E711CAE018E
:102FD0004F5F5F4FC301B2010E942F04811193C262
:102FE0008981CF5FDD4F8883C150D2408A81CE5F17
:102FF000DD4F8883C250D2408B81CD5FDD4F888307
:10300000C350D240CC5FDD4F1882C450D240CF5F56
:10301000DD4F88819981AA81BB81C150D240C35FB5
:10302000DD4F88839983AA83BB83CD50D240103172
:1030300009F03AC2A7019601C501B4010E946933A3
:10304000C35FDD4F088119812A813B81CD50D24079
:10305000601771078207930709F00DC1AE014F5F3A
:103060005F4FC301B2010E942F04811150C28981B8
:10307000CF5FDD4F8883C150D2408A81CE5FDD4F64
:103080008883C250D2408B81CD5FDD4F8883C3508F
:10309000D240CF5FDD4F288139814A815B81C150A9
:1030A000D240C75FDD4F288339834A835B83C95091
:1030B000D24040912E0750912F07609130077091B8
:1030C0003107CB5FDD4F1882C550D2408FE390E0CF
:1030D000A0E0B0E0C35FDD4F88839983AA83BB8300
:1030E000CD50D240412C512C3201C35FDD4F88813D
:1030F0009981AA81BB81CD50D240840D951DA61D1A
:10310000B71D0196A11DB11DB695A79597958795F9
:103110006C017D0133E0CC0CDD1CEE1CFF1C3A95EC
:10312000D1F7E1E0F0E0EC0FFD1FEC0DFD1D20807C
:10313000CF5FDD4F2882C150D240970186010F5FDB
:103140001F4F2F4F3F4FE1E0F0E0EC0FFD1FE00F6E
:10315000F11F3080CE5FDD4F3882C250D2409701E0
:1031600086010E5F1F4F2F4F3F4FE1E0F0E0EC0F65
:10317000FD1FE00FF11FE081CD5FDD4FE883C350FD
:10318000D240CC5FDD4F1882C450D240CF5FDD4FBC
:10319000088119812A813B81C150D240C75FDD4F30
:1031A00088809980AA80BB80C950D240081919092B
:1031B0002A093B09CB5FDD4FF881C550D240F5307D
:1031C00081F5081719072A073B07F1F0FE01EF5FA9
:1031D000FD4F80E090E008E0C01AD108E108F10856
:1031E00021E030E02C0F3D1FC20ED31ED601A80FE8
:1031F000B91F3C913193019683309105B9F7CC5FAB
:10320000DD4F1882C450D240CF5FDD4F48815981D5
:103210006A817B81C150D2404F5F5F4F6F4F7F4FBC
:103220001BC080179107A207B30741F42C013D0191
:103230003FEF431A530A630A730A0EC08C019D01C3
:103240000150110921093109C35FDD4F088319833A
:103250002A833B83CD50D240CB5FDD4F1881C550D0
:10326000D2401F5FCB5FDD4F1883C550D240163070
:1032700009F03BCF10C1C501B401615071098C4FF9
:103280009F4FAE014F5F5F4F0E942F0481113FC1DE
:103290008981CF5FDD4F8883C150D2408A81CE5F64
:1032A000DD4F8883C250D2408B81CD5FDD4F888354
:1032B000C350D240CF5FDD4F288139814A815B8185
:1032C000C150D240C75FDD4F288339834A835B8377
:1032D000C950D24040912E0750912F07609130077E
:1032E00070913107CB5FDD4F1882C550D2408FE31C
:1032F00090E0A0E0B0E0C35FDD4F88839983AA83AC
:10330000BB83CD50D240412C512C3201C35FDD4FE5
:1033100088819981AA81BB81CD50D240840D951DB1
:10332000A61DB71D0196A11DB11DB695A795979530
:1033300087956C017D0103E0CC0CDD1CEE1CFF1CAD
:103340000A95D1F7E1E0F0E0EC0FFD1FEC0DFD1D5B
:103350002080CF5FDD4F2882C150D2409701860187
:103360000F5F1F4F2F4F3F4FE1E0F0E0EC0FFD1FCD
:10337000E00FF11F3080CE5FDD4F3882C250D24067
:10338000970186010E5F1F4F2F4F3F4FE1E0F0E0A6
:10339000EC0FFD1FE00FF11FE081CD5FDD4FE883F3
:1033A000C350D240CC5FDD4F1882C450D240CF5FB3
:1033B000DD4F088119812A813B81C150D240C75F0E
:1033C000DD4F88809980AA80BB80C950D2400819FF
:1033D00019092A093B09CB5FDD4FF881C550D2405E
:1033E000F53081F5081719072A073B07F1F0FE01B0
:1033F000EF5FFD4F80E090E008E0C01AD108E108DF
:10340000F10821E030E02C0F3D1FC20ED31ED60183
:10341000A80FB91F3C913193019683309105B9F7FC
:10342000CC5FDD4F1882C450D240CF5FDD4F488162
:1034300059816A817B81C150D2404F5F5F4F6F4F8E
:103440007F4F1BC080179107A207B30741F42C01DF
:103450003D013FEF431A530A630A730A0EC08C0101
:103460009D010150110921093109C35FDD4F088316
:1034700019832A833B83CD50D240CB5FDD4F188127
:10348000C550D2401F5FCB5FDD4F1883C550D2407F
:10349000163009F03BCF40932E0750932F076093CF
:1034A00030077093310733C0A5019401C701B601FD
:1034B0000E946933C35FDD4F288139814A815B8176
:1034C000CD50D240621773078407950771F4D50178
:1034D000C4010196A11DB11DCB5FDD4F8883998387
:1034E000AA83BB83C550D2400EC0A50194012150D0
:1034F000310941095109C75FDD4F288339834A8368
:103500005B83C950D2401F5F113109F03ECDC05FCF
:10351000DD4F0FB6F894DEBF0FBECDBFDF91CF9168
:103520001F910F91FF90EF90DF90CF90BF90AF90E1
:103530009F908F907F906F905F904F903F902F90D3
:103540000895CF92DF92EF92FF920F931F93CF9344
:10355000DF93CDB7DEB7E3970FB6F894DEBF0FBEAB
:10356000CDBF7C016CEC73E0CE018E960E94D02E14
:103570008E010B5E1F4F8DE0F80111928A95E9F7DD
:1035800080E28D8B8E8B8F8B888F898F8A8F8B8F2C
:103590008C8F8D8F8E8F8F8F88A38091350780932E
:1035A0003607F2E0EF16F10409F402C30CF095C0FF
:1035B000E114F10409F49DC1EA94EF2809F03DC437
:1035C00060E082E090E017D860E083E090E013D8FC
:1035D00061E081E090E00FD84091D9065091DA0681
:1035E0006091DB067091DC0622E0CE0101960E941C
:1035F000F02FBE016F5F7F4FCE018E960E94192F74
:10360000CE0101960E94692E20E030E044E150E0B6
:10361000BE016F5F7F4FCE018E960E94E83068EE4C
:1036200072E0CE0101960E94183641E061E070E040
:10363000CE0101960E94961260918D0670918E06C1
:1036400080918F06909190068E010F5F1F4F21E0B1
:1036500041E00E94E43365EB72E0C8010E94183635
:1036600041E062E070E0C8010E9496126091190684
:1036700070911A0680911B0690911C0621E041E092
:103680000E94E43367E272E0C8010E94183641E00C
:1036900063E070E0C8010E94961260910D0670917F
:1036A0000E0680910F069091100621E041E00E94E5
:1036B000E43369ED72E0C8010E94183641E064E02D
:1036C00070E0C8010E94961260912506709126064E
:1036D00080912706909128068AC3F3E0EF16F10443
:1036E00009F4F6C284E0E816F10409F0A6C361E02B
:1036F00081E090E00E94FB1261E082E090E00E9495
:10370000FB1261E083E090E00E94FB122091DD0655
:103710003091DE064091DF065091E0066091D906B7
:103720007091DA068091DB069091DC060E94803170
:103730002091E1063091E2064091E3065091E406C3
:103740000E948031AB01BC0122E0CE0101960E94B3
:10375000F02FBE016F5F7F4FCE018E960E94192F12
:10376000CE0101960E94692E20E030E044E150E055
:10377000BE016F5F7F4FCE018E960E94E83068EEEB
:1037800072E0CE0101960E94183641E061E070E0DF
:10379000CE0101960E9496122091890630918A06E8
:1037A00040918B0650918C0660918D0670918E062B
:1037B00080918F06909190060E948031209185061D
:1037C0003091860640918706509188060E9480318C
:1037D0008E010F5F1F4F21E041E00E94E43365EB53
:1037E00072E0C8010E94183641E062E070E0C80152
:1037F0000E94961220911D0630911E0640911F06D0
:10380000509120066091190670911A0680911B064E
:1038100090911C060E948031209121063091220651
:1038200040912306509124060E94803120E030E030
:1038300040E450E40E94E83121E041E00E94E4339A
:1038400067E272E0C8010E94183641E063E070E070
:10385000C8010E94961220911106309112064091E3
:1038600013065091140660910D0670910E0680911A
:103870000F06909110060E9480312091150630911C
:10388000160640911706509118060E94803121E0DB
:1038900041E00E94E43369ED72E0C8010E941836ED
:1038A00041E064E070E0C8010E9496122091290670
:1038B00030912A0640912B0650912C0660912506E6
:1038C0007091260680912706909128060E948031EB
:1038D00020912D0630912E0640912F0650913006F2
:1038E0000E94803120E030E040E450E40E94E83162
:1038F0007EC260E081E090E00E94FB1260E082E026
:1039000090E00E94FB1260E083E090E00E94FB12D6
:1039100065E272E0CE0188960E94D02EBE01685DFD
:103920007F4F8BE497E00E942C317C016E01E2E234
:10393000CE0ED11C6BE973E0C6010E94D02EA70108
:10394000B6018BE497E00E9411319C0140E050E009
:103950006BE477E0CE0101960E942F3120E030E049
:103960004DE050E0B801CE0101960E94E830CE0152
:1039700001960E94692EC6010E94692ECE0188968A
:103980000E94692E41E061E070E0C8010E94961239
:10399000780180E2F70181937F01EC15FD05D1F7F5
:1039A00065E272E0CE0188960E94D02EBE01685D6D
:1039B0007F4F8BE497E00E942C316C016BE973E040
:1039C000C7010E94D02EA6014F5F5F4FB7018BE465
:1039D00097E00E941131AC014F5F5F4F23E130E06F
:1039E0006BE477E0CE0101960E942F3120E030E0B9
:1039F0004DE050E0B801CE0101960E94E830CE01C2
:103A000001960E94692EC7010E94692ECE018896F8
:103A10000E94692E41E062E070E0C8010E949612A7
:103A20002091DD063091DE064091DF065091E006E0
:103A30006091D9067091DA068091DB069091DC06E0
:103A40000E9480312091E1063091E2064091E30628
:103A50005091E4060E948031AB01BC0122E0CE010E
:103A600001960E94F02FBE016F5F7F4FCE018E96B0
:103A70000E94192FCE0101960E94692E20E030E0AD
:103A800044E150E0BE016F5F7F4FCE018E960E94F1
:103A9000E83068EE72E0CE0101960E94183641E0EF
:103AA00063E070E0CE0101960E9496122091890693
:103AB00030918A0640918B0650918C0660918D065C
:103AC00070918E0680918F06909190060E948031B1
:103AD0002091850630918606409187065091880690
:103AE0000E9480318E010F5F1F4F21E041E00E9454
:103AF000E43365EB72E0C8010E94183641E064E0EF
:103B000070E0C8010E94961220911D0630911E0699
:103B100040911F06509120066091190670911A0677
:103B200080911B0690911C060E94803120912106F5
:103B30003091220640912306509124060E94803144
:103B400020E030E040E450E40E94E83121E041E030
:103B50000E94E43367E272E0C8010E94183641E037
:103B600065E070E0C8010E94961220911106309124
:103B7000120640911306509114066091150670913B
:103B8000160680911706909118060E9480312091A8
:103B90000D0630910E0640910F06509110060E94BE
:103BA000803121E041E00E94E43369ED72E03CC1E4
:103BB00060E081E090E00E94FB1261E082E090E032
:103BC0000E94FB1260E083E090E00E94FB124091B3
:103BD000DD065091DE066091DF067091E00622E07E
:103BE000CE0101960E94F02FBE016F5F7F4FCE0184
:103BF0008E960E94192FCE0101960E94692E20E018
:103C000030E044E150E0BE016F5F7F4FCE018E9601
:103C10000E94E83068EE72E0CE0101960E941836EC
:103C200041E061E070E0CE0101960E949612609141
:103C3000890670918A0680918B0690918C068E0180
:103C40000F5F1F4F21E041E00E94E43365EB72E01B
:103C5000C8010E94183641E062E070E0C8010E948D
:103C6000961260911D0670911E0680911F0690911C
:103C7000200621E041E00E94E43367E272E0C801DF
:103C80000E94183641E063E070E0C8010E9496127D
:103C9000609111067091120680911306909114069E
:103CA00021E041E00E94E43369ED72E0C8010E9426
:103CB000183641E064E070E0C8010E9496126091FD
:103CC000290670912A0680912B0690912C068FC0B0
:103CD00060E081E090E00E94FB1260E082E090E012
:103CE0000E94FB1261E083E090E00E94FB12409191
:103CF000E1065091E2066091E3067091E40622E04D
:103D0000CE0101960E94F02FBE016F5F7F4FCE0162
:103D10008E960E94192FCE0101960E94692E20E0F6
:103D200030E044E150E0BE016F5F7F4FCE018E96E0
:103D30000E94E83068EE72E0CE0101960E941836CB
:103D400041E061E070E0CE0101960E949612609120
:103D500085067091860680918706909188068E016F
:103D60000F5F1F4F21E041E00E94E43365EB72E0FA
:103D7000C8010E94183641E062E070E0C8010E946C
:103D800096126091210670912206809123069091EF
:103D9000240621E041E00E94E43367E272E0C801BA
:103DA0000E94183641E063E070E0C8010E9496125C
:103DB000609115067091160680911706909118066D
:103DC00021E041E00E94E43369ED72E0C8010E9405
:103DD000183641E064E070E0C8010E9496126091DC
:103DE0002D0670912E0680912F069091300621E0CD
:103DF00041E00E94E43366EA72E0C8010E9418368E
:103E000041E065E070E0C8010E94961260911507DC
:103E100070911607809117079091180721E041E0F3
:103E20000E94E43369E272E0C8010E94183641E062
:103E300066E070E0C8010E949612CE018E960E9444
:103E4000692EE3960FB6F894DEBF0FBECDBFDF91AB
:103E5000CF911F910F91FF90EF90DF90CF90089539
:103E6000CF93DF9300D000D0CDB7DEB76091E103F0
:103E70007091E2034AE0CE0101960E94702FBE01CC
:103E80006F5F7F4F8BE497E00E94242FCE01019655
:103E90000E94692E8091E0038A3018F065E272E09A
:103EA00002C06CE272E08BE497E00E944E306091B9
:103EB000E0038BE497E00E9470308091DF038A304A
:103EC00018F065E272E002C06CE272E08BE497E009
:103ED0000E944E306091DF038BE497E00E947030C7
:103EE0008091DE038A3018F06BE973E002C06FE264
:103EF00072E08BE497E00E944E306091DE038BE429
:103F000097E00E9470308091DD038A3018F06AE3F8
:103F100072E002C062E372E08BE497E00E944E30F0
:103F20006091DD038BE497E00E9470308091DC03A8
:103F30008A3018F06AE372E002C062E372E08BE458
:103F400097E00E944E306091DC038BE497E00E9482
:103F5000703026960FB6F894DEBF0FBECDBFDF914E
:103F6000CF910895CF92DF92EF92FF92CF93605856
:103F700073448D469843ECE3CE2ED12CE12CF12CEA
:103F8000A70196010E948B336093DC03CA01B9013B
:103F9000A70196010E948B336093DD03CA01B9012A
:103FA00028E130E040E050E00E948B336093DE0374
:103FB00080E090E0E3E9FEEFC1E0AC0143705527FB
:103FC000452B09F0C0E0BC016F5F7F4F4C2F50E0E4
:103FD000DA01A359BE4F2A173B0738F0CF01841BE3
:103FE000950B280F391FCB01E7CF61E0E62FF0E0FA
:103FF000E355FC4F4081CC2319F0623009F44F5F48
:1040000050E071E0760F2417350720F0241B350BA4
:10401000672FECCF6093E0032F5F2093DF03805383
:10402000984F9093E2038093E103CF91FF90EF903C
:10403000DF90CF9015CF0F931F93CF93DF93CDB722
:10404000DEB7C650D2400FB6F894DEBF0FBECDBF6C
:104050006CEC73E0CE018F5F9D4F0E94D02E0E94CA
:104060004C1040919D0650919E0660919F06709164
:10407000A0062AE0CE0101960E94C52FBE016F5F07
:104080007F4FCE018F5F9D4F0E944830CE01019639
:104090000E94692E6EED72E0CE018F5F9D4F0E94EF
:1040A0004E3040912A0750912B0760912C07709158
:1040B0002D078091A1069091A206A091A306B09130
:1040C000A406480F591F6A1F7B1F2AE0CE010196E4
:1040D0000E94C52FBE016F5F7F4FCE018F5F9D4F46
:1040E0000E944830CE0101960E94692E6EED72E06A
:1040F000CE018F5F9D4F0E944E304091A50650919A
:10410000A6066091A7067091A8062AE0CE01019646
:104110000E94C52FBE016F5F7F4FCE018F5F9D4F05
:104120000E944830CE0101960E94692E6EED72E029
:10413000CE018F5F9D4F0E944E3009EA16E0F801D4
:1041400041915191619171918F0122E0CE010196CF
:104150000E94F02FBE016F5F7F4FCE018F5F9D4F9A
:104160000E944830CE0101960E94692E6EED72E0E9
:10417000CE018F5F9D4F0E944E30F7E009311F073F
:10418000F1F64AE060911B07CE0101960E94452F8F
:10419000BE016F5F7F4FCE018F5F9D4F0E94483001
:1041A000CE0101960E94692E6EED72E0CE018F5F06
:1041B0009D4F0E944E306091190770911A074AE096
:1041C000CE0101960E94702FBE016F5F7F4FCE011E
:1041D0008F5F9D4F0E944830CE0101960E94692E4C
:1041E0006EED72E0CE018F5F9D4F0E944E30409188
:1041F000690650916A0660916B0670916C0620E129
:10420000CE0101960E949A2FBE016F5F7F4FCE01B3
:104210008F5F9D4F0E944830CE0101960E94692E0B
:104220006EED72E0CE018F5F9D4F0E944E30409147
:10423000650650916606609167067091680620E1F8
:10424000CE0101960E949A2FBE016F5F7F4FCE0173
:104250008F5F9D4F0E944830CE0101960E94692ECB
:104260006EED72E0CE018F5F9D4F0E944E30409107
:10427000610650916206609163067091640620E1C8
:10428000CE0101960E949A2FBE016F5F7F4FCE0133
:104290008F5F9D4F0E944830CE0101960E94692E8B
:1042A0006EED72E0CE018F5F9D4F0E944E304091C7
:1042B000750650917606609177067091780620E138
:1042C000CE0101960E949A2FBE016F5F7F4FCE01F3
:1042D0008F5F9D4F0E944830CE0101960E94692E4B
:1042E0006EED72E0CE018F5F9D4F0E944E30409187
:1042F000710650917206609173067091740620E108
:10430000CE0101960E949A2FBE016F5F7F4FCE01B2
:104310008F5F9D4F0E944830CE0101960E94692E0A
:104320006EED72E0CE018F5F9D4F0E944E30409146
:104330006D0650916E0660916F067091700620E1D7
:10434000CE0101960E949A2FBE016F5F7F4FCE0172
:104350008F5F9D4F0E944830CE0101960E94692ECA
:104360006EED72E0CE018F5F9D4F0E944E30409106
:104370005D0650915E0660915F067091600620E1D7
:10438000CE0101960E949A2FBE016F5F7F4FCE0132
:104390008F5F9D4F0E944830CE0101960E94692E8A
:1043A0006EED72E0CE018F5F9D4F0E944E304091C6
:1043B000590650915A0660915B0670915C0620E1A7
:1043C000CE0101960E949A2FBE016F5F7F4FCE01F2
:1043D0008F5F9D4F0E944830CE0101960E94692E4A
:1043E0006EED72E0CE018F5F9D4F0E944E30409186
:1043F000550650915606609157067091580620E177
:10440000CE0101960E949A2FBE016F5F7F4FCE01B1
:104410008F5F9D4F0E944830CE0101960E94692E09
:104420006EED72E0CE018F5F9D4F0E944E306AE0CC
:10443000CE018F5F9D4F0E945D30CB5FDD4F888145
:104440009981C550D2408E3F914010F460E2F0CF88
:1044500020E030E040E052E0BE016F5F7F4FCE01D0
:104460008F5F9D4F0E94E83060919D0670919E067F
:1044700080919F069091A006837099270896AE01BF
:104480004F5F5F4F0E948404811115C080919D068B
:1044900090919E06A0919F06B091A0060196A11D45
:1044A000B11D80939D0690939E06A0939F06B093A6
:1044B000A0060E947114CE018F5F9D4F0E94692E4D
:1044C000CA5FDD4F0FB6F894DEBF0FBECDBFDF91E0
:1044D000CF911F910F9108956EE372E08BEB97E0FF
:1044E0000E94D02E6BE472E085EB97E00E94D02E04
:1044F00068E572E08BE497E00E94D02E6CEC73E0EC
:1045000084E297E00E94D02E6CEC73E08EE197E09D
:104510000C94D02E0C94F102CF92DF92EF92FF9286
:104520000F931F93CF93DF9300D000D0CDB7DEB7AA
:10453000A895FAD660934707709348078093490778
:1045400090934A0700913707109138072091390757
:1045500030913A076B017C01C01AD10AE20AF30AD2
:1045600048E8C4164AE8D40641E0E406F10450F0F5
:1045700060933707709338078093390790933A0711
:104580000E94630F8091470790914807A0914907C7
:10459000B0914A0740913B0750913C0760913D071D
:1045A00070913E076C017D01C41AD50AE60AF70A2C
:1045B00008E0C01605EAD00607E0E006F10468F05E
:1045C00080933B0790933C07A0933D07B0933E0731
:1045D0008091350790E00E94A11A809134078823CA
:1045E00029F029DD0E947114109234078091470749
:1045F00090914807A0914907B0914A07409143071D
:104600005091440760914507709146076C017D0108
:10461000C41AD50AE60AF70A08EAC01605EED0065B
:1046200004EEE006F104B8F080934307909344074A
:10463000A0934507B093460780910602882359F05E
:104640001092060261E08DE28CD71092350781E06E
:1046500090E00E94A11A80911D07811109C06CE6AB
:1046600072E080ED97E00E94092E81E080931D07A3
:1046700080ED97E0ABD7892B09F4AEC240E060ED46
:1046800077E0CE0101960E94452EBE016F5F7F4FFD
:1046900084E297E00E94192FCE0101960E94692EB4
:1046A000F89467E772E084E297E00E94CA308823BA
:1046B00089F164E872E08EE197E00E942F2F40912B
:1046C0000D0650910E0660910F06709110068EE156
:1046D00097E00E949A306CE28EE197E00E945D3094
:1046E00040911106509112066091130670911406C4
:1046F0008EE197E00E949A306CE28EE197E00E9492
:104700005D30409115065091160660911706709124
:10471000180639C06AE872E084E297E00E94CA3065
:10472000882309F440C068E972E08EE197E00E94B6
:104730002F2F4091190650911A0660911B06709117
:104740001C068EE197E00E949A306CE28EE197E0C1
:104750000E945D3040911D0650911E0660911F061B
:10476000709120068EE197E00E949A306CE28EE113
:1047700097E00E945D3040912106509122066091A1
:104780002306709124068EE197E00E949A306CE235
:104790008EE197E00E945D306EE177E080ED97E07A
:1047A0000E94F92D18C26EE972E084E297E00E943F
:1047B000CA30882389F169EA72E08EE197E00E94AD
:1047C0002F2F409125065091260660912706709163
:1047D00028068EE197E00E949A306CE28EE197E025
:1047E0000E945D304091290650912A0660912B0667
:1047F00070912C068EE197E00E949A306CE28EE177
:1048000097E00E945D3040912D0650912E066091F8
:104810002F0670913006B7CF6DEA72E084E297E020
:104820000E94CA30882389F168EB72E08EE197E03C
:104830000E942F2F40918D0650918E0660918F0619
:10484000709190068EE197E00E949A306CE28EE1C2
:1048500097E00E945D304091890650918A066091F0
:104860008B0670918C068EE197E00E949A306CE284
:104870008EE197E00E945D3040918506509186065A
:1048800060918706709188067ECF6CEB72E084E2BF
:1048900097E00E94CA30882389F169EC72E08EE1CA
:1048A00097E00E942F2F4091990650919A066091AF
:1048B0009B0670919C068EE197E00E949A306CE214
:1048C0008EE197E00E945D304091950650919606EA
:1048D00060919706709198068EE197E00E949A3059
:1048E0006CE28EE197E00E945D304091910650911C
:1048F0009206609193067091940645CF6FEC72E03A
:1049000084E297E00E94CA30882389F16BED72E05F
:104910008EE197E00E942F2F4091810650918206F0
:1049200060918306709184068EE197E00E949A3030
:104930006CE28EE197E00E945D3040917D065091DF
:104940007E0660917F06709180068EE197E00E945E
:104950009A306CE28EE197E00E945D3040917906DA
:1049600050917A0660917B0670917C060CCF60EEC8
:1049700072E084E297E00E94CA30882389F16CEEED
:1049800072E08EE197E00E942F2F4091D90650915E
:10499000DA066091DB067091DC068EE197E00E94FA
:1049A0009A306CE28EE197E00E945D304091DD0626
:1049B0005091DE066091DF067091E0068EE197E08F
:1049C0000E949A306CE28EE197E00E945D30409147
:1049D000E1065091E2066091E3067091E406D3CEC1
:1049E00061EF72E084E297E00E94CA30882389F187
:1049F0006FEF72E08EE197E00E942F2F4091CD067D
:104A00005091CE066091CF067091D0068EE197E06E
:104A10000E949A306CE28EE197E00E945D304091F6
:104A2000D1065091D2066091D3067091D4068EE1E2
:104A300097E00E949A306CE28EE197E00E945D3030
:104A40004091D5065091D6066091D7067091D80650
:104A50009ACE66E073E084E297E00E94CA30882331
:104A600089F163E173E08EE197E00E942F2F40917E
:104A7000E5065091E6066091E7067091E8068EE142
:104A800097E00E949A306CE28EE197E00E945D30E0
:104A90004091E9065091EA066091EB067091EC06B0
:104AA0008EE197E00E949A306CE28EE197E00E94DE
:104AB0005D304091ED065091EE066091EF067091E9
:104AC000F00661CE69E173E084E297E00E94CA30AB
:104AD000882379F066E273E08EE197E00E942F2F41
:104AE00040911507509116076091170770911807AC
:104AF0004ACE6AE273E0CE0101960E94D02EBE013A
:104B00006F5F7F4F84E297E00E942C318C01CE01D1
:104B100001960E94692E17FD22C088E10FB6F89415
:104B200080936000109260000FBE00E010E060E033
:104B3000C8010E9407030F5F1F4F0C3C2CE01207B7
:104B4000B1F729E288E190E00FB6F894A895809338
:104B500060000FBE209360006EE373E038C064E530
:104B600073E0CE0101960E94D02EBE016F5F7F4F91
:104B700084E297E00E942C318C01CE0101960E94C4
:104B8000692E17FD22C088E10FB6F894809360006B
:104B9000109260000FBE00E010E060E0C8010E94CB
:104BA00007030F5F1F4F011530E11307B1F729E22B
:104BB00088E190E00FB6F894A895809360000FBE4E
:104BC0002093600065E673E002C068E773E080ED63
:104BD00097E00E94092E789426960FB6F894DEBFCF
:104BE0000FBECDBFDF91CF911F910F91FF90EF903E
:104BF000DF90CF9008958F929F92AF92BF92CF9205
:104C0000DF92EF92FF920F931F93CF93DF93CDB775
:104C1000DEB7C650D2400FB6F894DEBF0FBECDBF90
:104C20008E010F5F1D4F6CEC73E0C8010E94D02E07
:104C3000F5E0CF2ED12CE12CF12C6CEC73E0C80107
:104C40000E942F2F60919D0670919E0680919F0675
:104C50009091A0068370992708966C197D098E099A
:104C60009F09AE014F5F5F4F0E942F04811118C052
:104C7000CE0101965C014501F50160818DE698E069
:104C80006A3069F04DD5FFEFAF1ABF0AF4016081B9
:104C900080ED97E045D5A016B10669F701C0A6D70B
:104CA000F1E0CF1AD108E108F10809F0C6CF6CECA9
:104CB00073E0C8010E942F2FC8010E94692ECA5FAD
:104CC000DD4F0FB6F894DEBF0FBECDBFDF91CF91A1
:104CD0001F910F91FF90EF90DF90CF90BF90AF901A
:104CE0009F908F900895CF93DF93CDB7DEB76A97EB
:104CF0000FB6F894DEBF0FBECDBF0E947003C2D0C6
:104D000080E00E943E0380E00E9443038CB58F7DCB
:104D10008CBD26E040E052EC61E070E080ED97E071
:104D200063D526E040E855E260E070E08DE698E06B
:104D30005BD50E94C41187E30E949D1141E062E0AF
:104D400070E087E092E00E94961241E063E070E03C
:104D500085E893E00E94961241E064E070E081E90A
:104D600093E00E94961241E065E070E08DE993E0E7
:104D70000E94961242E050E061EB72E080E0B5D014
:104D800010921B0760E873E48DE698E3EBD80E946D
:104D900053170E94E1050E94B01669EA73E0CE0144
:104DA0004596FED74091A5065091A6066091A706AC
:104DB0007091A8062AE0CE0101960E94C52FBE017F
:104DC0006F5F7F4FCE0145960E944830CE0101961D
:104DD00080D7498D5A8D4F5F5F4F20E030E0BE0194
:104DE0006F5F7F4FCE0145960E94E83041E061E061
:104DF00070E0CE0101960E949612FDDE0E945103E2
:104E000029E288E190E00FB6F894A89580936000BD
:104E10000FBE20936000CE0145965BD76A960FB611
:104E2000F894DEBF0FBECDBFDF91CF9108951F92E2
:104E30000F920FB60F9211240BB60F922F933F9340
:104E40004F935F936F937F938F939F93AF93BF9392
:104E5000EF93FF93E091C107F091C2071995FF917D
:104E6000EF91BF91AF919F918F917F916F915F91E2
:104E70004F913F912F910F900BBE0F900FBE0F904F
:104E80001F901895CF93CFB7F8948091C6078111E2
:104E900023C0E7EBF3E08491E1E7F3E09491E82F9E
:104EA000F0E0EE0FFF1FEE51FC4FA591B4918C91F5
:104EB000892319F461E085E354D361E085E318D3D5
:104EC0008CB580618CBD8CB580648CBD61E084E361
:104ED0000FD361E083E30CD38091C6078F5F80938B
:104EE000C607CFBFCF9108950895883008F06DC0F0
:104EF000E82FF0E0EE0FFF1FEB5EFD4F7183608344
:104F000090E0FC013197E730F10590F5EE58FF4F46
:104F10000C94AD33809169008C7F842B8093690061
:104F2000E89A089580916900440F551F440F551F5A
:104F3000837F842B80936900E99A089580916900AA
:104F400074E0440F551F7A95E1F78F7C842B809392
:104F50006900EA9A08958091690066E0440F551F40
:104F60006A95E1F78F73842B80936900EB9A08951B
:104F700080916A008C7F842B80936A00EC9A08955C
:104F800080916A00440F551F440F551F837F842B67
:104F900080936A00ED9A089580916A0024E0440F9E
:104FA000551F2A95E1F78F7C842B80936A00EE9A37
:104FB000089580916A0096E0440F551F9A95E1F795
:104FC0008F73842B80936A00EF9A08951F920F923B
:104FD0000FB60F9211240BB60F922F933F934F935E
:104FE0005F936F937F938F939F93AF93BF93EF9351
:104FF000FF93E0911902F0911A021995FF91EF9138
:10500000BF91AF919F918F917F916F915F914F91E0
:105010003F912F910F900BBE0F900FBE0F901F90DE
:1050200018951F920F920FB60F9211240BB60F9284
:105030002F933F934F935F936F937F938F939F93A0
:10504000AF93BF93EF93FF93E0911B02F0911C028B
:105050001995FF91EF91BF91AF919F918F917F91A2
:105060006F915F914F913F912F910F900BBE0F90D9
:105070000FBE0F901F9018951F920F920FB60F92B0
:1050800011240BB60F922F933F934F935F936F931F
:105090007F938F939F93AF93BF93EF93FF93E09191
:1050A0001D02F0911E021995FF91EF91BF91AF91F2
:1050B0009F918F917F916F915F914F913F912F9130
:1050C0000F900BBE0F900FBE0F901F9018951F9260
:1050D0000F920FB60F9211240BB60F922F933F939E
:1050E0004F935F936F937F938F939F93AF93BF93F0
:1050F000EF93FF93E0911F02F09120021995FF9129
:10510000EF91BF91AF919F918F917F916F915F913F
:105110004F913F912F910F900BBE0F900FBE0F90AC
:105120001F9018951F920F920FB60F9211240BB675
:105130000F922F933F934F935F936F937F938F9330
:105140009F93AF93BF93EF93FF93E0911502F0917C
:1051500016021995FF91EF91BF91AF919F918F9199
:105160007F916F915F914F913F912F910F900BBE67
:105170000F900FBE0F901F9018951F920F920FB6B1
:105180000F9211240BB60F922F933F934F935F937F
:105190006F937F938F939F93AF93BF93EF93FF93FF
:1051A000E0911702F09118021995FF91EF91BF91CC
:1051B000AF919F918F917F916F915F914F913F91AF
:1051C0002F910F900BBE0F900FBE0F901F90189550
:1051D0001F920F920FB60F9211240BB60F922F93BE
:1051E0003F934F935F936F937F938F939F93AF936F
:1051F000BF93EF93FF93E0912102F0912202199562
:10520000FF91EF91BF91AF919F918F917F916F919E
:105210005F914F913F912F910F900BBE0F900FBE5A
:105220000F901F9018951F920F920FB60F92112496
:105230000BB60F922F933F934F935F936F937F9390
:105240008F939F93AF93BF93EF93FF93E0912302CC
:10525000F09124021995FF91EF91BF91AF919F9129
:105260008F917F916F915F914F913F912F910F900F
:105270000BBE0F900FBE0F901F9018951F920F92AC
:105280000FB60F9211242F933F938F939F93AF9359
:10529000BF938091C8079091C907A091CA07B091A8
:1052A000CB073091C70723E0230F2D3720F4019659
:1052B000A11DB11D05C026E8230F0296A11DB11D39
:1052C0002093C7078093C8079093C907A093CA0784
:1052D000B093CB078091CC079091CD07A091CE07DA
:1052E000B091CF070196A11DB11D8093CC0790937B
:1052F000CD07A093CE07B093CF07BF91AF919F91F9
:105300008F913F912F910F900FBE0F901F90189586
:105310002FB7F8946091C8077091C9078091CA07A8
:105320009091CB072FBF08953FB7F8948091CC0799
:105330009091CD07A091CE07B091CF0726B5A89B3D
:1053400005C02F3F19F00196A11DB11D3FBF662773
:10535000782F892F9A2F620F711D811D911D42E0B8
:10536000660F771F881F991F4A95D1F708958230DD
:10537000910538F0880F991F880F991F059701979D
:10538000F1F70895789484B5826084BD84B5816016
:1053900084BD85B5826085BD85B5816085BDEEE63D
:1053A000F0E0808181608083E1E8F0E0108280811C
:1053B00082608083808181608083E0E8F0E080818A
:1053C00081608083E1EBF0E0808184608083E0EBAA
:1053D000F0E0808181608083E1E9F0E0808182609B
:1053E0008083808181608083E0E9F0E0808181605A
:1053F0008083E1EAF0E08081826080838081816047
:105400008083E0EAF0E0808181608083E1E2F1E086
:10541000808182608083808181608083E0E2F1E02E
:10542000808181608083EAE7F0E08081846080830E
:1054300080818260808380818160808380818068B8
:1054400080831092C100089590E0FC013197E23111
:10545000F10508F04CC0E758FF4F0C94AD33809134
:1054600080008F7703C0809180008F7D80938000C3
:10547000089580918000877FF9CF84B58F7702C02F
:1054800084B58F7D84BD08958091B0008F7703C06F
:105490008091B0008F7D8093B0000895809190003E
:1054A0008F7707C0809190008F7D03C0809190001E
:1054B000877F8093900008958091A0008F7707C028
:1054C0008091A0008F7D03C08091A000877F809392
:1054D000A0000895809120018F7707C0809120015E
:1054E0008F7D03C080912001877F809320010895E4
:1054F000CF93DF9390E0FC01E45CFC4F2491FC012E
:10550000EE57FC4F8491882349F190E0880F991F52
:10551000FC01EE51FC4FA591B49188539C4FFC01C6
:10552000C591D4919FB7611108C0F8948C912095D2
:1055300082238C93888182230AC0623051F4F894CC
:105540008C91322F309583238C938881822B888392
:1055500004C0F8948C91822B8C939FBFDF91CF91E4
:1055600008950F931F93CF93DF931F92CDB7DEB7AC
:10557000282F30E0F901EA50FD4F8491F901E45CF5
:10558000FC4F1491F901EE57FC4F04910023C1F038
:10559000882319F0698358DF6981E02FF0E0EE0F6E
:1055A000FF1FE853FC4FA591B4919FB7F8948C91DD
:1055B000611103C01095812301C0812B8C939FBF83
:1055C0000F90DF91CF911F910F910895FC01818D74
:1055D000228D90E0805C9F4F821B91098F739927E9
:1055E0000895FC01918D828D981731F0828DE80F1E
:1055F000F11D858D90E008958FEF9FEF0895FC01D8
:10560000918D828D981761F0828DDF01A80FB11DF9
:105610005D968C91928D9F5F9F73928F90E008951D
:105620008FEF9FEF089583EB9CE2892B39F080E0A8
:1056300090E0892B19F097D1811124C080E090E08F
:10564000892B41F080E090E0892B21F00E9400003E
:1056500081111BC080E090E0892B41F080E090E058
:10566000892B21F00E940000811112C08EE59DE27D
:10567000892B99F080E090E0892B79F01FD281117D
:105680000AC008950E940000D9CF0E940000E2CF16
:105690000E940000EBCF0C9400000895FC01848D63
:1056A000DF01A80FB11DA35ABF4F2C91848D90E04C
:1056B00001968F739927848FA689B7892C93A08927
:1056C000B1898C9180648C93938D848D981306C0DE
:1056D0000288F389E02D80818F7D80830895CF93A8
:1056E000DF93EC01888D8823C1F0EA89FB898081F2
:1056F00085FD05C0A889B9898C9186FD0EC00FB6BD
:1057000007FCF5CF808185FFF2CFA889B9898C91FC
:1057100085FFEDCFCE01C2DFE8CFDF91CF910895B5
:10572000CF92DF92FF920F931F93CF93DF931F923D
:10573000CDB7DEB76C0181E0D60158968C935897AF
:105740005B969C915B975C968C915C97981307C0D5
:105750005096ED91FC915197808185FD2DC0F60109
:10576000038D10E00F5F1F4F0F731127F02EF6010E
:10577000848DF81210C00FB607FCF9CFD6015096F1
:10578000ED91FC915197808185FFF1CFC60169832E
:1057900085DF6981ECCF838DE80FF11DE35AFF4F60
:1057A0006083D6015B960C935B975296ED91FC91CA
:1057B0005397808180620CC0D6015696ED91FC9182
:1057C000579760835096ED91FC915197808180644A
:1057D000808381E090E00F90DF91CF911F910F9136
:1057E000FF90DF90CF900895BF92CF92DF92EF921B
:1057F000FF92CF93DF93EC016A017B01B22EE8891F
:10580000F98982E08083411581EE580761057105B1
:1058100099F060E079E08DE390E0A70196017BD7F5
:1058200021503109410951095695479537952795DA
:10583000211580E1380790F0E889F989108260E845
:1058400074E88EE190E0A701960165D721503109F7
:10585000410951095695479537952795EC85FD8562
:105860003083EE85FF852083188EEC89FD89B08218
:10587000EA89FB89808180618083EA89FB89808154
:1058800088608083EA89FB89808180688083EA89D7
:10589000FB8980818F7D8083DF91CF91FF90EF9096
:1058A000DF90CF90BF9008951F920F920FB60F9286
:1058B00011240BB60F922F938F939F93EF93FF9327
:1058C000E091E007F091E1078081E091E607F09137
:1058D000E70782FD12C090818091E9078F5F8F7387
:1058E0002091EA07821751F0E091E907F0E0E053D8
:1058F000F84F958F8093E90701C08081FF91EF9168
:105900009F918F912F910F900BBE0F900FBE0F9014
:105910001F9018951F920F920FB60F9211240BB67D
:105920000F922F933F934F935F936F937F938F9338
:105930009F93AF93BF93EF93FF9380ED97E0AEDE1D
:10594000FF91EF91BF91AF919F918F917F916F9157
:105950005F914F913F912F910F900BBE0F900FBE13
:105960000F901F90189580ED97E030DE21E0892B95
:1059700009F420E0822F08951092D3071092D207E5
:1059800088EE93E0A0E0B0E08093D4079093D50731
:10599000A093D607B093D7078EEB93E09093D107EF
:1059A0008093D00785EC90E09093DD078093DC072F
:1059B00084EC90E09093DF078093DE0780EC90E02A
:1059C0009093E1078093E00781EC90E09093E307E8
:1059D0008093E20782EC90E09093E5078093E407E0
:1059E00086EC90E09093E7078093E6071092E90732
:1059F0001092EA071092EB071092EC0708951F929D
:105A00000F920FB60F9211240BB60F922F938F9314
:105A10009F93EF93FF93E0917D08F0917E08808142
:105A2000E0918308F091840882FD12C090818091FA
:105A300086088F5F8F7320918708821751F0E0915D
:105A40008608F0E0E359F74F958F8093860801C0F0
:105A50008081FF91EF919F918F912F910F900BBEBD
:105A60000F900FBE0F901F9018951F920F920FB6B8
:105A70000F9211240BB60F922F933F934F935F9386
:105A80006F937F938F939F93AF93BF93EF93FF9306
:105A90008DE698E003DEFF91EF91BF91AF919F916A
:105AA0008F917F916F915F914F913F912F910F90C7
:105AB0000BBE0F900FBE0F901F9018958DE698E0CB
:105AC00085DD21E0892B09F420E0822F08951092D2
:105AD000700810926F0888EE93E0A0E0B0E0809329
