:100000002EC100000C9426100C9451100C947C10FE
:100010000C94A7100C94D2100C94FD100C94281181
:100020000C9453114DC100004BC1000049C10000A8
:1000300047C1000045C1000043C1000041C10000AC
:100040003FC100003DC100003BC1000039C10000BC
:1000500037C1000035C1000033C100000C947E118F
:100060002FC100000C94BA140C94F01429C10000A4
:1000700027C1000025C1000023C1000021C10000EC
:100080001FC100001DC100001BC1000019C10000FC
:1000900017C1000015C1000013C1000011C100000C
:1000A0000FC100000DC100000BC1000009C100001C
:1000B00007C1000005C1000003C1000001C100002C
:1000C000FFC00000FDC00000FBC00000F9C0000040
:1000D000F7C00000F5C00000F3C00000F1C0000050
:1000E000EFC000000010CA0FD20FDE0FEB0F0C1094
:1000F0001910A212A512941298129E12DC12A912C3
:10010000AD12B312B712BB12C112C512C912DC1262
:10011000CF12D312D71200000A0B02090C0D0E08E1
:1001200007030401000000000000000000000000C0
:1001300000000000000000000000000000000000BF
:10014000000012111000000000000000000000007C
:10015000000000000000000000000000010210206C
:1001600020080810204010204080020102010804ED
:100170000201010204081020408080402010080481
:1001800002018004020180402010080402010804DA
:10019000020101020408102040800102040810201E
:1001A0004080050505050705080808080202020247
:1001B0000A0A080804040404010101010101010103
:1001C0000303030303030303040707070C0C0C0CCE
:1001D0000C0C0C0C020202020606060606060606B7
:1001E0000B0B0B0B0B0B0B0B000022002500280048
:1001F0002B002E003100340002010000050108012F
:100200000B0100002100240027002A002D003000EF
:10021000330001010000040107010A014E414E496B
:100220004E495459494E46CDCCCC3D0AD7233C17B4
:10023000B7D13877CC2B329595E6241FB14F0A0001
:100240000020410000C84200401C4620BCBE4CCAF1
:100250001B0E5AAEC59D740046072215580711247F
:100260001FBECFEFD1E2DEBFCDBF00E00CBF14E078
:10027000A0E0B2E0E4E2F1E400E00BBF02C00790CE
:100280000D92AC3EB107D9F726E0ACEEB4E001C068
:100290001D92A535B207E1F712E0CCE5D2E000E00F
:1002A00006C022970109FE010BBF0E941B1CC83526
:1002B000D10780E00807A9F70E94A1190C948120BA
:1002C0009FCE8091FE049091FF04A0910005B09113
:1002D00001050196A11DB11D8093FE049093FF04BA
:1002E000A0930005B093010508958091FA049091C0
:1002F000FB04A091FC04B091FD040196A11DB11D69
:100300008093FA049093FB04A093FC04B093FD0443
:1003100008958CEE94E00E94B21783E095E00E946D
:10032000B21789E095E00C94B2178EBD00000DB4B1
:1003300007FEFDCF8EB5089560E08CE10C94161396
:1003400061E08CE10C941613CF93DF931F921F9200
:10035000CDB7DEB76A838983EFDF89818068E5DF07
:100360006A81862FE2DF0F900F90DF91CF91E8CF67
:100370001F93CF93DF931F921F92CDB7DEB7182F35
:100380006A837983D9DF82E390E00E941C12812F77
:100390008068CBDF82E390E00E941C127981872F76
:1003A000C4DF82E390E00E941C126A81862FBDDFC9
:1003B00082E390E00E941C120F900F90DF91CF918A
:1003C0001F91BECF1F93CF93DF9300D0CDB7DEB781
:1003D000182F4B835A836983AFDF82E390E00E943A
:1003E0001C12812F8068A1DF82E390E00E941C1222
:1003F0006981862F9ADF82E390E00E941C125A8165
:10040000852F93DF82E390E00E941C124B81842FA2
:100410008CDF82E390E00E941C120F900F900F90EF
:10042000DF91CF911F918CCFCF93DF93C82F84DFC3
:1004300082E390E00E941C128C2F77DF82E390E031
:100440000E941C1280E071DFC82F82E390E00E94BE
:100450001C1280E06ADFD82F82E390E00E941C1219
:100460006FDF8D2F90E09C2BDF91CF9108950F933C
:100470001F93CF93182F60DF82E390E00E941C123D
:10048000812F53DF82E390E00E941C1280E04DDF59
:10049000182F82E390E00E941C1280E046DF082FB4
:1004A00082E390E00E941C1280E03FDFC82F82E3CD
:1004B00090E00E941C1244DF6C2F70E080E090E01E
:1004C000812B10E0102F002720E030E0602B712BF3
:1004D000822B932BCF911F910F9108950F931F9310
:1004E000F89480910205882309F4D3C08AE1BFDF24
:1004F00080910F05813071F58AE0B9DF0091220506
:10050000109123052091240530912505600F711F5E
:10051000821F931F60932205709323058093240507
:10052000909325058BE0A3DF00911E0510911F0518
:100530002091200530912105600F711F821F931FAC
:1005400060931E0570931F058093200590932105ED
:100550008CE032C080910F05823009F04CC08DE0F4
:1005600086DF00912205109123052091240530910A
:100570002505600F711F821F931F609322057093E2
:10058000230580932405909325058EE070DF00916C
:100590001E0510911F052091200530912105600F47
:1005A000711F821F931F60931E0570931F05809318
:1005B0002005909321058FE05ADF00911A051091D4
:1005C0001B0520911C0530911D05600F711F821FB6
:1005D000931F60931A0570931B0580931C059093DD
:1005E0001D058091180590911905019690931905A4
:1005F000809318054EC080910F05833071F48DE013
:1006000036DF672B682B692B09F443C08AE02FDFA4
:10061000672B682B692BA1F53CC080910F058430B6
:1006200069F48DE024DF672B682B692B91F18AE058
:100630001EDF672B682B692B81F52BC080910F057E
:10064000853069F48DE013DF672B682B692B09F186
:100650008AE00DDF672B682B692B49F51AC0809162
:100660000F058630B1F48DE002DF672B682B692B14
:1006700081F08AE0FCDE672B682B692B89F509C0C5
:10068000809114058F3F19F0809114058F5F80933E
:10069000140578941F910F91089580911005811190
:1006A00015C0809113058F5F8093130509C0809159
:1006B000100581110BC0809112058F5F8093120588
:1006C00010921705109216051092020580911005E0
:1006D0008F3F19F0809110058F5F80931005D9CF5F
:1006E000809110058111F2CF809111058F5F809369
:1006F0001105E6CF4F925F926F927F928F929F92F9
:10070000AF92BF92CF92DF92EF92FF920F931F931F
:10071000CF93DF9300D01F92CDB7DEB78091F00466
:100720009091F104892BD1F100E010E04E0185E0B9
:10073000880E911CE12CF12CF801E65DFA4F5F0167
:100740006801F0E6CF1AF0EFDF0AF501EE0DFF1DAC
:1007500080819181A281B38189839A83AB83BC8399
:1007600026014E0C5F1CFE0131963F01F3016191A1
:100770003F01C2010E94E01EFFEF4F1A5F0A68149A
:100780007904A1F784E0E80EF11C9CE0E916F1047D
:10079000E1F6045F1F4F0036110561F60F900F90D0
:1007A0000F900F90DF91CF911F910F91FF90EF90DD
:1007B000DF90CF90BF90AF909F908F907F906F9081
:1007C0005F904F9008954F925F926F927F928F92B9
:1007D0009F92AF92BF92CF92DF92EF92FF920F93D0
:1007E0001F93CF93DF93CDB7DEB7C254D1090FB6B5
:1007F000F894DEBF0FBECDBFCE0101975C01C12CC6
:10080000D12C750100E010E0C8018C0D9D1D892BD5
:1008100041F46CE28CEE94E00E9428199A8389835B
:100820000DC0F701408151814F5F5F4F6CE28CEE4C
:1008300094E00E940D19F701938382830F5F1F4F8D
:10084000F2E0EF0EF11C03301105F1F686E0A80E80
:10085000B11C93E0C90ED11CE8E1CE16D10489F693
:100860003AE2832E35E0932ECE0101975C01E12C14
:10087000F12C6501370100E010E02401400E511E0B
:100880006114710429F429813A8140E050E007C0E5
:10089000F60122813381408151814F5F5F4F6CEEC1
:1008A00074E0CE01CD960E944919CE01CD960E94EA
:1008B0009619F2016083718382839383CE01CD9672
:1008C0000E94B217FFEF6F1A7F0A0C5F1F4F82E082
:1008D000C80ED11C0C30110581F69CE0890E911CCC
:1008E000E3E0EE0EF11CF6E0AF0EB11C88E1E81675
:1008F000F10409F0BECFFEDECE5BDF4F0FB6F894F9
:10090000DEBF0FBECDBFDF91CF911F910F91FF9042
:10091000EF90DF90CF90BF90AF909F908F907F909F
:100920006F905F904F90089561E08DE20E94DD121C
:1009300061E08BE20E94DD1261E089E20E94DD123B
:1009400061E08CE10E94DD120E94820F8CB5836011
:100950008CBD8DB58E7F8DBD8CB5837F84608CBD45
:100960008CB58F7D8CBD26E040E052EC61E070E0FC
:1009700082EB95E00E945A146AE070E080E090E01B
:100980000E94F71160E082E00E94DD1260E083E0E7
:100990000E94DD1260E085E10E94DD1261E08DE2DF
:1009A0000E94161361E08BE20E94161361E089E257
:1009B0000E94161343E050E06EE672E081E00E9470
:1009C000B50F43E050E061E671E080E00E94B50FB2
:1009D00043E050E065E771E082E00E94B50F0C94BF
:1009E000D41160E070E08AE2C3DC88EC90E00E9401
:1009F0001C1260E070E08BE2BBDC88EC90E00E94AF
:100A00001C1260E070E08CE2B3DC88EC90E00E94A5
:100A10001C1260E070E08DE2ABDC88EC90E00E949C
:100A20001C1260E070E08EE2A3DC88EC90E00E9493
:100A30001C1260E070E08FE29BDC88EC90E00E948A
:100A40001C1260E070E080E393DC88EC90E00E9490
:100A50001C1260E070E081E38BDC88EC90E00E9487
:100A60001C1260E070E082E383DC88EC90E00E947E
:100A70001C126CEF84E168DC88EC90E00E941C1290
:100A80006FE887E161DC88EC90E00E941C126091C5
:100A90001605709117058CE16BDC88EC90E00E94E4
:100AA0001C128AE1E4DC88EC90E00E941C1240E019
:100AB00050E160E070E088E185DC88EC90E00E9425
:100AC0001C1281E0B1DC82E0AFDC83E0ADCC60E001
:100AD00070E08AE24DDC88EC90E00E941C1260E03D
:100AE00070E08BE245DC88EC90E00E941C1260E034
:100AF00070E08CE23DDC88EC90E00E941C1260E02B
:100B000070E08DE235DC88EC90E00E941C1260E021
:100B100070E08EE22DDC88EC90E00E941C1260E018
:100B200070E08FE225DC88EC90E00E941C1260E00F
:100B300070E080E31DDC88EC90E00E941C1260E015
:100B400070E081E315DC88EC90E00E941C1260E00C
:100B500070E082E30DDC88EC90E00E941C126CEFE8
:100B600084E1F2DB88EC90E00E941C126FE887E1E0
:100B7000EBDB88EC90E00E941C12609116057091EE
:100B800017058CE1F5DB88EC90E00E941C128AE1ED
:100B90006EDC88EC90E00E941C1240E050E160E0C6
:100BA00070E088E10FDC88EC90E00E941C1287E086
:100BB0003BDC88E039DC89E037CC60E070E08AE239
:100BC000D7DB88EC90E00E941C1260E070E08BE2C2
:100BD000CFDB88EC90E00E941C1260E070E08CE2B9
:100BE000C7DB88EC90E00E941C1260E070E08DE2B0
:100BF000BFDB88EC90E00E941C1260E070E08EE2A7
:100C0000B7DB88EC90E00E941C1260E070E08FE29D
:100C1000AFDB88EC90E00E941C1260E070E080E3A3
:100C2000A7DB88EC90E00E941C1260E070E081E39A
:100C30009FDB88EC90E00E941C1260E070E082E391
:100C400097DB88EC90E00E941C126CEF84E17CDB67
:100C500088EC90E00E941C126FE887E175DB88EC5D
:100C600090E00E941C1260911605709117058CE1AE
:100C70007FDB88EC90E00E941C128AE1F8DB88ECB4
:100C800090E00E941C1240E050E160E070E088E1DA
:100C900099DB88EC90E00E941C1284E0C5DB85E0C3
:100CA000C3DB86E0C1DB88EC90E00C941C126CE99D
:100CB00086E14ADB84EF91E00E941C128AE1D7DBD7
:100CC00084EF91E00E941C1240E052E060E070E08E
:100CD00088E178DB88EC90E00E941C126EE170E005
:100CE0008CE146DB88EC90E00E941C1260E070E032
:100CF00086E33EDB64E670E080E090E00E94F7115E
:100D000060E070E087E334DB64E670E080E090E070
:100D10000E94F71160E070E088E32ADB64E670E08F
:100D200080E090E00E94F71188EC90E00C941C1297
:100D30008AE19DDB84EF91E00E941C1240E052E0CA
:100D400060E070E088E13EDB88EC90E00E941C12DD
:100D50006EE170E08CE10CDB88EC90E00E941C12EC
:100D600060E070E083E304DB64E670E080E090E044
:100D70000E94F71160E070E084E3FADA64E670E064
:100D800080E090E00E94F71160E070E085E3F0DA27
:100D900064E670E080E090E00E94F71188EC90E05B
:100DA0000C941C1260E070E08AE2E2DA88EC90E0D9
:100DB0000E941C1260E070E08BE2DADA88EC90E0CE
:100DC0000E941C1260E070E08CE2D2DA88EC90E0C5
:100DD0000E941C1260E070E08DE2CADA88EC90E0BC
:100DE0000E941C1260E070E08EE2C2DA88EC90E0B3
:100DF0000E941C1260E070E08FE2BADA88EC90E0AA
:100E00000E941C1260E070E080E3B2DA88EC90E0AF
:100E10000E941C1260E070E081E3AADA88EC90E0A6
:100E20000E941C1260E070E082E3A2DA88EC90E09D
:100E30000E941C126CEF84E187DA88EC90E00E943B
:100E40001C126FE887E180DA88EC90E00E941C12A7
:100E500068EC70E08CE18CDA88EC90E00E941C1267
:100E60008AE105DB88EC90E00E941C1240E050E132
:100E700060E070E088E1A6DA88EC90E00E941C1245
:100E800081E0D2DA82E0D0DA83E0CECA6CED74E0A1
:100E900089E095E00E9419186CED74E083E095E01C
:100EA0000E9419186CED74E08CEE94E00C94191803
:100EB00030CACF92DF92EF92FF920F931F93CF939E
:100EC000DF93CDB7DEB762970FB6F894DEBF0FBEE3
:100ED000CDBF82EB95E00E944B13892B09F499C694
:100EE00040E062EB75E0CE0101960E948E17BE01D4
:100EF0006F5F7F4F89E095E00E946218CE010196F6
:100F00000E94B217F89467E773E089E095E00E94C9
:100F1000EF18882359F011E010930205C8DE1092F3
:100F2000150510930F056DE773E013C063E873E0D8
:100F300089E095E00E94EF18882381F081E080939A
:100F40000205F6DE1092150582E080930F0569E830
:100F500073E083E095E00E946D185AC66FE873E075
:100F600089E095E00E94EF18882361F081E080938A
:100F7000020518DF1092140583E080930F0566E9DF
:100F800073E0E7CF66EA73E089E095E00E94EF182E
:100F9000882309F452C06EE973E083E095E00E9473
:100FA0006D1881E041DA82E03FDA83E03DDA78943F
:100FB00064E670E080E090E00E94F711F8948AE126
:100FC00056DA63E075E082EB95E00E94A31581E0BC
:100FD0002BDABC0180E090E00E94B01A2DEC3CECD2
:100FE0004CEC5DE30E94171AAB01BC0120E030E03D
:100FF00082EB95E00E9461176CE282EB95E00E9423
:10100000B11582E011DABC0180E090E00E94B01AD4
:101010002DEC3CEC4CEC5DE30E94171AAB01BC01DB
:1010200020E030E082EB95E00E9461176CE282EBF9
:1010300095E00E94B11583E05AC064EA73E089E04C
:1010400095E00E94EF18882309F46BC063EB73E00E
:1010500083E095E00E946D1884E0E6D985E0E4D94C
:1010600086E0E2D9789464E670E080E090E00E9447
:10107000F711F8948AE1FBD963E075E082EB95E023
:101080000E94A31584E0D0D9BC0180E090E00E94CA
:10109000B01A2DEC3CEC4CEC5DE30E94171AAB014E
:1010A000BC0120E030E082EB95E00E9461176CE229
:1010B00082EB95E00E94B11585E0B6D9BC0180E0D5
:1010C00090E00E94B01A2DEC3CEC4CEC5DE30E94E9
:1010D000171AAB01BC0120E030E082EB95E00E94E2
:1010E00061176CE282EB95E00E94B11586E09CD915
:1010F000BC0180E090E00E94B01A2DEC3CEC4CEC7E
:101100005DE30E94171AAB01BC0120E030E082EBE6
:1011100095E00E9461176CE282EB95E00E94CB158E
:1011200077C568EB73E089E095E00E94EF188823AB
:1011300009F452C067EC73E083E095E00E946D18FB
:1011400087E072D988E070D989E06ED9789464E636
:1011500070E080E090E00E94F711F8948AE187D96E
:1011600063E075E082EB95E00E94A31587E05CD90F
:10117000BC0180E090E00E94B01A2DEC3CEC4CECFD
:101180005DE30E94171AAB01BC0120E030E082EB66
:1011900095E00E9461176CE282EB95E00E94B11528
:1011A00088E042D9BC0180E090E00E94B01A2DECAA
:1011B0003CEC4CEC5DE30E94171AAB01BC0120E053
:1011C00030E082EB95E00E9461176CE282EB95E0E3
:1011D0000E94B11589E08BCF6BEC73E0CE010196D4
:1011E0000E941918BE016F5F7F4F89E095E00E9451
:1011F00046198C01CE0101960E94B21717FD68C0F6
:1012000081E0809302056BEC73E0CE0107960E94AB
:101210001918BE01695F7F4F89E095E00E94461969
:10122000AC01485F5F4F6CE289E095E00E940D19C8
:101230008C016BEC73E0CE010D960E941918BE0173
:10124000635F7F4F89E095E00E944619AC01495FDA
:101250005F4F980169E075E0CE0101960E9449193F
:10126000CE0101960E948C197093170560931605A4
:10127000CE0101960E94B217CE010D960E94B217C0
:10128000CE0107960E94B21780911605909117051E
:10129000181619060CF0BCC463ED73E083E095E00A
:1012A0000E946D18609116057091170583E095E016
:1012B0000E94C0186CE283E095E00E94AD1891DBBB
:1012C00084E080930F051092100510921305A0C4BE
:1012D00065EE73E0CE0101960E941918BE016F5FA2
:1012E0007F4F89E095E00E9446198C01CE0101965E
:1012F0000E94B21717FD68C081E08093020565EE79
:1013000073E0CE0107960E941918BE01695F7F4FF6
:1013100089E095E00E944619AC01485F5F4F6CE29E
:1013200089E095E00E940D198C0165EE73E0CE0115
:101330000D960E941918BE01635F7F4F89E095E00A
:101340000E944619AC01495F5F4F980169E075E062
:10135000CE0101960E944919CE0101960E948C1976
:101360007093170560931605CE0101960E94B2177F
:10137000CE010D960E94B217CE0107960E94B217B9
:101380008091160590911705181619060CF040C4A7
:101390006DEE73E083E095E00E946D186091160594
:1013A0007091170583E095E00E94C0186CE283E01D
:1013B00095E00E94AD1801DC85E080930F05109246
:1013C00010051092120524C46EEF73E0CE01019651
:1013D0000E941918BE016F5F7F4F89E095E00E945F
:1013E00046198C01CE0101960E94B21717FD68C004
:1013F00081E0809302056EEF73E0CE0107960E94B4
:101400001918BE01695F7F4F89E095E00E94461977
:10141000AC01445F5F4F6CE289E095E00E940D19DA
:101420008C016EEF73E0CE010D960E941918BE017B
:10143000635F7F4F89E095E00E944619AC01455FEC
:101440005F4F980169E075E0CE0101960E9449194D
:10145000CE0101960E948C197093170560931605B2
:10146000CE0101960E94B217CE010D960E94B217CE
:10147000CE0107960E94B21780911605909117052C
:10148000181619060CF0C4C36AE074E083E095E016
:101490000E946D18609116057091170583E095E024
:1014A0000E94C0186CE283E095E00E94AD180FDB4B
:1014B00086E080930F051092100510921105A8C3C5
:1014C0006AE174E0CE0101960E941918BE016F5FB7
:1014D0007F4F89E095E00E9446198C01CE0101966C
:1014E0000E94B21717FD80C05FD76093F604709317
:1014F000F7048093F8049093F9046CE289E095E096
:101500000E94281990932905809328050AE815E080
:1015100040912805509129054F5F5F4F6CE289E0AB
:1015200095E00E940D1940912805509129054F5FC3
:101530005F4F9C0169E075E0CE0101960E94491958
:10154000CE0101960E948C197093270560932605A1
:10155000CE0101960E94B217809126059091270531
:10156000F801819391938F014091280550912905AD
:101570004F5F5F4F6CE289E095E00E940D199093F8
:10158000290580932805F5E000391F0709F66091C9
:101590008A0570918B0583E30E94B80160918C05E8
:1015A00070918D0584E30E94B80160918E05709161
:1015B0008F0585E30E94B801F7D6C090F604D0905D
:1015C000F704E090F804F090F9046C197D098E0995
:1015D0009F096093F2047093F3048093F404909352
:1015E000F50464E274E011C364E374E0CE01019693
:1015F0000E941918BE016F5F7F4F89E095E00E943D
:1016000046198C01CE0101960E94B21717FD80C0C9
:10161000CBD66093F6047093F7048093F80490930C
:10162000F9046CE289E095E00E942819909329055D
:10163000809328050AE815E0409128055091290576
:101640004F5F5F4F6CE289E095E00E940D19409179
:101650002805509129054F5F5F4F9C0169E075E0B7
:10166000CE0101960E944919CE0101960E948C1963
:101670007093270560932605CE0101960E94B2174C
:101680008091260590912705F801819391938F0110
:1016900040912805509129054F5F5F4F6CE289E02A
:1016A00095E00E940D199093290580932805F5E097
:1016B00000391F0709F660918A0570918B0586E352
:1016C0000E94B80160918C0570918D0587E30E949E
:1016D000B80160918E0570918F0588E30E94B80172
:1016E00063D6C090F604D090F704E090F804F09030
:1016F000F9046C197D098E099F096093F2047093B7
:10170000F3048093F4049093F5046EE374E07DC2D7
:101710006EE474E0CE0101960E941918BE016F5F5D
:101720007F4F89E095E00E9446198C01CE01019619
:101730000E94B21717FD80C037D66093F6047093ED
:10174000F7048093F8049093F9046CE289E095E043
:101750000E94281990932905809328050AE815E02E
:1017600040912805509129054F5F5F4F6CE289E059
:1017700095E00E940D1940912805509129054F5F71
:101780005F4F9C0169E075E0CE0101960E94491906
:10179000CE0101960E948C1970932705609326054F
:1017A000CE0101960E94B2178091260590912705DF
:1017B000F801819391938F0140912805509129055B
:1017C0004F5F5F4F6CE289E095E00E940D199093A6
:1017D000290580932805F5E000391F0709F6609177
:1017E0008A0570918B0589E30E94B80160918C0590
:1017F00070918D058AE30E94B80160918E05709109
:101800008F058BE30E94B801CFD5C090F604D0902D
:10181000F704E090F804F090F9046C197D098E0942
:101820009F096093F2047093F3048093F4049093FF
:10183000F50469E574E0E9C16AE674E0CE01019659
:101840000E941918BE016F5F7F4F89E095E00E94EA
:1018500046198C01CE0101960E94B21717FD80C077
:10186000A3D56093F6047093F7048093F8049093E3
:10187000F9046CE289E095E00E942819909329050B
:10188000809328050AE815E0409128055091290524
:101890004F5F5F4F6CE289E095E00E940D19409127
:1018A0002805509129054F5F5F4F9C0169E075E065
:1018B000CE0101960E944919CE0101960E948C1911
:1018C0007093270560932605CE0101960E94B217FA
:1018D0008091260590912705F801819391938F01BE
:1018E00040912805509129054F5F5F4F6CE289E0D8
:1018F00095E00E940D199093290580932805F5E045
:1019000000391F0709F660918A0570918B058CE3F9
:101910000E94B80160918C0570918D058DE30E9445
:10192000B80160918E0570918F058EE30E94B80119
:101930003BD5C090F604D090F704E090F804F09006
:10194000F9046C197D098E099F096093F204709364
:10195000F3048093F4049093F50465E774E055C1B3
:1019600066E874E0CE0101960E941918BE016F5F0F
:101970007F4F89E095E00E9446198C01CE010196C7
:101980000E94B21717FD80C00FD56093F6047093C4
:10199000F7048093F8049093F9046CE289E095E0F1
:1019A0000E94281990932905809328050AE815E0DC
:1019B00040912805509129054F5F5F4F6CE289E007
:1019C00095E00E940D1940912805509129054F5F1F
:1019D0005F4F9C0169E075E0CE0101960E944919B4
:1019E000CE0101960E948C197093270560932605FD
:1019F000CE0101960E94B21780912605909127058D
:101A0000F801819391938F01409128055091290508
:101A10004F5F5F4F6CE289E095E00E940D19909353
:101A2000290580932805F5E000391F0709F6609124
:101A30008A0570918B058FE30E94B80160918C0537
:101A400070918D0580E40E94B80160918E057091BF
:101A50008F0581E40E94B801A7D4C090F604D0900D
:101A6000F704E090F804F090F9046C197D098E09F0
:101A70009F096093F2047093F3048093F4049093AD
:101A8000F50461E974E0C1C062EA74E0CE01019638
:101A90000E941918BE016F5F7F4F89E095E00E9498
:101AA00046198C01CE0101960E94B21717FD6DC038
:101AB0007BD46093F6047093F7048093F8049093BA
:101AC000F9046CE289E095E00E94281990932905B9
:101AD000809328050AE815E04091280550912905D2
:101AE0004F5F5F4F6CE289E095E00E940D194091D5
:101AF0002805509129054F5F5F4F9C0169E075E013
:101B0000CE0101960E944919CE0101960E948C19BE
:101B10007093270560932605CE0101960E94B217A7
:101B20008091260590912705F801819391938F016B
:101B300040912805509129054F5F5F4F6CE289E085
:101B400095E00E940D199093290580932805F5E0F2
:101B5000083A1F0709F65AE8C52E55E0D52E02E8C7
:101B60001FE0F601E190F1906F016E2DC8010E9417
:101B7000E01E6F2DC80101960E94E01E0E5F1F4FF0
:101B8000003AFFE01F0769F743C060EB74E0CE0145
:101B900001960E941918BE016F5F7F4F89E095E0A2
:101BA0000E9446198C01CE0101960E94B21717FDC2
:101BB00026C06CED74E08CEE94E00E946D186CE22F
:101BC00089E095E00E94281920910D0530910E05BD
:101BD000AC014F5F5F4F69E075E0CE0101960E9456
:101BE0004919BE016F5F7F4F8CEE94E00E9462182E
:101BF000CE0101960E94B2170E94E30309C0109221
:101C00000F05109202056DEB74E082EB95E0B3D7FF
:101C100078948091180590911905C29709F07BC0BE
:101C2000F8941092190510921805809115058130CD
:101C300009F051C063E075E082EB95E084D76091D4
:101C4000220570912305809124059091250542E39A
:101C5000C42ED12CE12CF12CA70196010E94EF1B80
:101C6000BA01A9012AE030E082EB95E0FBD76CE2F3
:101C700082EB95E076D760911E0570911F058091EB
:101C8000200590912105A70196010E94EF1BBA0142
:101C9000A9012AE030E082EB95E0E4D76CE282EB28
:101CA00095E05FD760911A0570911B0580911C0526
:101CB00090911D05A70196010E94EF1BBA01A90191
:101CC0002AE030E082EB95E0CDD76CE282EB95E044
:101CD00062D71092020510922205109223051092ED
:101CE00024051092250510921E0510921F051092D2
:101CF00020051092210510921A0510921B051092D2
:101D00001C0510921D05809115058F3F19F08F5FFE
:101D100080931505789480911405813099F5F89495
:101D200063E075E082EB95E00ED781E00E9414023B
:101D30004AE050E0BC0182EB95E0E7D76CE282EB31
:101D400095E00FD782E00E9414024AE050E0BC0107
:101D500082EB95E0DAD76CE282EB95E002D783E084
:101D60000E9414024AE050E0BC0182EB95E0CDD71E
:101D70006CE282EB95E00FD783E08093140510921C
:101D80000205789480911305813009F036C0F894EB
:101D90008AE10E94370263E075E082EB95E0D3D6DA
:101DA00081E00E9414024AE050E0BC0182EB95E021
:101DB000ACD76CE282EB95E0D4D682E00E941402AC
:101DC0004AE050E0BC0182EB95E09FD76CE282EBE9
:101DD00095E0C7D683E00E9414024AE050E0BC01BF
:101DE00082EB95E092D76CE282EB95E0D4D683E06B
:101DF000809313051092020578948091120581302A
:101E000009F036C0F8948AE10E94370263E075E079
:101E100082EB95E098D684E00E9414024AE050E0FC
:101E2000BC0182EB95E071D76CE282EB95E099D62C
:101E300085E00E9414024AE050E0BC0182EB95E08C
:101E400064D76CE282EB95E08CD686E00E941402A7
:101E50004AE050E0BC0182EB95E057D76CE282EBA0
:101E600095E099D683E0809312051092020578944C
:101E700080911105813009F036C0F8948AE10E9402
:101E8000370263E075E082EB95E05DD687E00E9463
:101E900014024AE050E0BC0182EB95E036D76CE2D8
:101EA00082EB95E05ED688E00E9414024AE050E0A2
:101EB000BC0182EB95E029D76CE282EB95E051D62C
:101EC00089E00E9414024AE050E0BC0182EB95E0F8
:101ED0001CD76CE282EB95E05ED683E0809311051F
:101EE00010920205789462960FB6F894DEBF0FBE8A
:101EF000CDBFDF91CF911F910F91FF90EF90DF90B9
:101F0000CF900895CF93CFB7F8948091A805811111
:101F100023C0E7EDF1E08491E1E9F1E09491E82F4D
:101F2000F0E0EE0FFF1FEE5FFD4FA591B4918C9195
:101F3000892319F461E085E379D361E085E33DD33A
:101F40008CB580618CBD8CB580648CBD61E084E310
:101F500034D361E083E331D38091A8058F5F809310
:101F6000A805CFBFCF9108950895883008F06DC0BF
:101F7000E82FF0E0EE0FFF1FEA5FFD4F71836083F3
:101F800090E0FC013197E730F10590F5EE58FF4FF6
:101F90000C940B1C809169008C7F842B80936900CA
:101FA000E89A089580916900440F551F440F551F0A
:101FB000837F842B80936900E99A0895809169005A
:101FC00074E0440F551F7A95E1F78F7C842B809342
:101FD0006900EA9A08958091690066E0440F551FF0
:101FE0006A95E1F78F73842B80936900EB9A0895CB
:101FF00080916A008C7F842B80936A00EC9A08950C
:1020000080916A00440F551F440F551F837F842B16
:1020100080936A00ED9A089580916A0024E0440F4D
:10202000551F2A95E1F78F7C842B80936A00EE9AE6
:10203000089580916A0096E0440F551F9A95E1F744
:102040008F73842B80936A00EF9A08951F920F92EA
:102050000FB60F9211240BB60F922F933F934F930D
:102060005F936F937F938F939F93AF93BF93EF9300
:10207000FF93E0910A02F0910B021995FF91EF9105
:10208000BF91AF919F918F917F916F915F914F9190
:102090003F912F910F900BBE0F900FBE0F901F908E
:1020A00018951F920F920FB60F9211240BB60F9234
:1020B0002F933F934F935F936F937F938F939F9350
:1020C000AF93BF93EF93FF93E0910C02F0910D0259
:1020D0001995FF91EF91BF91AF919F918F917F9152
:1020E0006F915F914F913F912F910F900BBE0F9089
:1020F0000FBE0F901F9018951F920F920FB60F9260
:1021000011240BB60F922F933F934F935F936F93CE
:102110007F938F939F93AF93BF93EF93FF93E09140
:102120000E02F0910F021995FF91EF91BF91AF91BF
:102130009F918F917F916F915F914F913F912F91DF
:102140000F900BBE0F900FBE0F901F9018951F920F
:102150000F920FB60F9211240BB60F922F933F934D
:102160004F935F936F937F938F939F93AF93BF939F
:10217000EF93FF93E0911002F09111021995FF91F6
:10218000EF91BF91AF919F918F917F916F915F91EF
:102190004F913F912F910F900BBE0F900FBE0F905C
:1021A0001F9018951F920F920FB60F9211240BB625
:1021B0000F922F933F934F935F936F937F938F93E0
:1021C0009F93AF93BF93EF93FF93E0910602F0913B
:1021D00007021995FF91EF91BF91AF919F918F9158
:1021E0007F916F915F914F913F912F910F900BBE17
:1021F0000F900FBE0F901F9018951F920F920FB661
:102200000F9211240BB60F922F933F934F935F932E
:102210006F937F938F939F93AF93BF93EF93FF93AE
:10222000E0910802F09109021995FF91EF91BF9199
:10223000AF919F918F917F916F915F914F913F915E
:102240002F910F900BBE0F900FBE0F901F901895FF
:102250001F920F920FB60F9211240BB60F922F936D
:102260003F934F935F936F937F938F939F93AF931E
:10227000BF93EF93FF93E0911202F091130219952F
:10228000FF91EF91BF91AF919F918F917F916F914E
:102290005F914F913F912F910F900BBE0F900FBE0A
:1022A0000F901F9018951F920F920FB60F92112446
:1022B0000BB60F922F933F934F935F936F937F9340
:1022C0008F939F93AF93BF93EF93FF93E09114028B
:1022D000F09115021995FF91EF91BF91AF919F91E8
:1022E0008F917F916F915F914F913F912F910F90BF
:1022F0000BBE0F900FBE0F901F9018951F920F925C
:102300000FB60F9211242F933F938F939F93AF9308
:10231000BF938091AA059091AB05A091AC05B091B7
:10232000AD053091A90523E0230F2D3720F4019648
:10233000A11DB11D05C026E8230F0296A11DB11DE8
:102340002093A9058093AA059093AB05A093AC05B3
:10235000B093AD058091AE059091AF05A091B00509
:10236000B091B1050196A11DB11D8093AE0590936A
:10237000AF05A093B005B093B105BF91AF919F9108
:102380008F913F912F910F900FBE0F901F90189536
:102390002FB7F8946091AA057091AB058091AC05B8
:1023A0009091AD052FBF08953FB7F8948091AE0589
:1023B0009091AF05A091B005B091B10526B5A89B4D
:1023C00005C02F3F19F00196A11DB11D3FBF662723
:1023D000782F892F9A2F620F711D811D911D42E068
:1023E000660F771F881F991F4A95D1F70895CF92DE
:1023F000DF92EF92FF92CF93DF936B017C01D4DFEA
:10240000EB01C114D104E104F10479F0A6D7CCDFCB
:102410006C1B7D0B683E7340A0F381E0C81AD108A5
:10242000E108F108C851DC4FECCFDF91CF91FF906C
:10243000EF90DF90CF9008958230910538F0880FAB
:10244000991F880F991F05970197F1F708957894C0
:1024500084B5826084BD84B5816084BD85B58260A9
:1024600085BD85B5816085BDEEE6F0E08081816047
:102470008083E1E8F0E01082808182608083808147
:1024800081608083E0E8F0E0808181608083E1EB1F
:10249000F0E0808184608083E0EBF0E08081816007
:1024A0008083E1E9F0E080818260808380818160C7
:1024B0008083E0E9F0E0808181608083E1EAF0E000
:1024C000808182608083808181608083E0EAF0E0A7
:1024D000808181608083E1E2F1E08081826080839D
:1024E000808181608083E0E2F1E08081816080838F
:1024F000EAE7F0E08081846080838081826080836D
:102500008081816080838081806880831092C10097
:10251000089590E0FC013197E231F10508F04CC0DC
:10252000E758FF4F0C940B1C809180008F7703C0FD
:10253000809180008F7D809380000895809180003D
:10254000877FF9CF84B58F7702C084B58F7D84BD36
:1025500008958091B0008F7703C08091B0008F7D87
:102560008093B0000895809190008F7707C080918C
:1025700090008F7D03C080919000877F80939000B2
:1025800008958091A0008F7707C08091A0008F7D73
:1025900003C08091A000877F8093A0000895809160
:1025A00020018F7707C0809120018F7D03C080912B
:1025B0002001877F809320010895CF93DF9390E0DF
:1025C000FC01E45AFE4F2491FC01EE55FE4F84912C
:1025D000882349F190E0880F991FFC01EE5FFD4FC1
:1025E000A591B49188519E4FFC01C591D4919FB79C
:1025F000611108C0F8948C91209582238C93888176
:1026000082230AC0623051F4F8948C91322F3095B5
:1026100083238C938881822B888304C0F8948C91C7
:10262000822B8C939FBFDF91CF9108950F931F93BF
:10263000CF93DF931F92CDB7DEB7282F30E0F9019B
:10264000EA5EFE4F8491F901E45AFE4F1491F901BC
:10265000EE55FE4F04910023C1F0882319F06983E1
:1026600058DF6981E02FF0E0EE0FFF1FE851FE4FC9
:10267000A591B4919FB7F8948C91611103C0109506
:10268000812301C0812B8C939FBF0F90DF91CF914D
:102690001F910F910895FC01818D228D90E0805C47
:1026A0009F4F821B91098F7399270895FC01918D8B
:1026B000828D981731F0828DE80FF11D858D90E0A5
:1026C00008958FEF9FEF0895FC01918D828D9817EB
:1026D00061F0828DDF01A80FB11D5D968C91928D06
:1026E0009F5F9F73928F90E008958FEF9FEF089503
:1026F00089E195E1892B39F080E090E0892B19F090
:1027000098D1811125C080E090E0892B41F080E0D4
:1027100090E0892B21F00E94000081111CC080E014
:1027200090E0892B41F080E090E0892B21F00E941D
:102730000000811113C080E090E0892BA1F080E0BF
:1027400090E0892B81F00E94000081110AC0089559
:102750000E940000D8CF0E940000E1CF0E9400003C
:10276000EACF0C9400000895FC01848DDF01A80FCE
:10277000B11DA35ABF4F2C91848D90E001968F73A9
:102780009927848FA689B7892C93A089B1898C91C8
:1027900080648C93938D848D981306C00288F3898E
:1027A000E02D80818F7D80830895CF93DF93EC01AE
:1027B000888D8823C1F0EA89FB89808185FD05C069
:1027C000A889B9898C9186FD0EC00FB607FCF5CF9C
:1027D000808185FFF2CFA889B9898C9185FFEDCFE3
:1027E000CE01C2DFE8CFDF91CF910895CF92DF9283
:1027F000FF920F931F93CF93DF931F92CDB7DEB756
:102800006C0181E0D60158968C9358975B969C9109
:102810005B975C968C915C97981307C05096ED91EE
:10282000FC915197808185FD2DC0F601038D10E04C
:102830000F5F1F4F0F731127F02EF601848DF812D2
:1028400010C00FB607FCF9CFD6015096ED91FC9160
:102850005197808185FFF1CFC601698385DF69814A
:10286000ECCF838DE80FF11DE35AFF4F6083D60153
:102870005B960C935B975296ED91FC9153978081F8
:1028800080620CC0D6015696ED91FC9157976083FB
:102890005096ED91FC91519780818064808381E016
:1028A00090E00F90DF91CF911F910F91FF90DF90FB
:1028B000CF900895BF92CF92DF92EF92FF92CF9385
:1028C000DF93EC016A017B01B22EE889F98982E08D
:1028D0008083411581EE58076105710599F060E02C
:1028E00079E08DE390E0A701960157D72150310997
:1028F000410951095695479537952795211580E14E
:10290000380790F0E889F989108260E874E88EE170
:1029100090E0A701960141D72150310941095109A1
:102920005695479537952795EC85FD853083EE853F
:10293000FF852083188EEC89FD89B082EA89FB89A6
:10294000808180618083EA89FB89808188608083BF
:10295000EA89FB89808180688083EA89FB8980819C
:102960008F7D8083DF91CF91FF90EF90DF90CF90AC
:10297000BF9008951F920F920FB60F9211240BB6BD
:102980000F922F938F939F93EF93FF93E091C20544
:10299000F091C3058081E091C805F091C90582FDE1
:1029A00012C090818091CB058F5F8F732091CC05F1
:1029B000821751F0E091CB05F0E0EE54FA4F958F7D
:1029C0008093CB0501C08081FF91EF919F918F9102
:1029D0002F910F900BBE0F900FBE0F901F90189568
:1029E0001F920F920FB60F9211240BB60F922F93D6
:1029F0003F934F935F936F937F938F939F93AF9387
:102A0000BF93EF93FF9382EB95E0AEDEFF91EF91E2
:102A1000BF91AF919F918F917F916F915F914F91F6
:102A20003F912F910F900BBE0F900FBE0F901F90F4
:102A3000189582EB95E02FDE21E0892B09F420E048
:102A4000822F08951092B5051092B40588EE93E098
:102A5000A0E0B0E08093B6059093B705A093B805C9
:102A6000B093B9058EEC94E09093B3058093B205D2
:102A700085EC90E09093BF058093BE0584EC90E0D8
:102A80009093C1058093C00580EC90E09093C305BE
:102A90008093C20581EC90E09093C5058093C405B6
:102AA00082EC90E09093C7058093C60586EC90E099
:102AB0009093C9058093C8051092CB051092CC0560
:102AC0001092CD051092CE050895CF92DF92EF922D
:102AD000FF920F931F93CF93DF937C016A01EB0169
:102AE00000E010E00C151D0571F06991D701ED9122
:102AF000FC910190F081E02DC7011995892B19F007
:102B00000F5F1F4FEFCFC801DF91CF911F910F9142
:102B1000FF90EF90DF90CF9008956115710581F0DF
:102B2000DB010D900020E9F7AD0141505109461B32
:102B3000570BDC01ED91FC910280F381E02D19949B
:102B400080E090E00895DC01ED91FC91DB011496AA
:102B50004D915C9115976D917C910280F381E02DF0
:102B60001994DC01ED91FC910190F081E02D199414
:102B70006AED74E0D2CF0F931F93CF93DF93EC01F4
:102B8000CCDF8C01CE01F4DF800F911FDF91CF915C
:102B90001F910F9108950F931F93CF93DF93EC0133
:102BA000E0DF8C01CE01E4DF800F911FDF91CF9138
:102BB0001F910F9108958F929F92AF92BF92CF92E3
:102BC000DF92EF92FF920F931F93CF93DF93CDB7D6
:102BD000DEB7A1970FB6F894DEBF0FBECDBF7C0164
:102BE000C42EE52FCB01D22E19A221E02D1510F015
:102BF0002AE0D22E8E010F5D1F4F8D2C912CA12C1F
:102C0000B12C6C2D7E2FA5019401C7D58C2DD29EA1
:102C100080191124015011098A3014F4805D01C01B
:102C2000895CF8018083211531054105510521F0AA
:102C3000C22EE32FCA01E5CFB801C7016EDFA1960E
:102C40000FB6F894DEBF0FBECDBFDF91CF911F91BD
:102C50000F91FF90EF90DF90CF90BF90AF909F903B
:102C60008F900895CF92DF92EF92FF920F931F9370
:102C7000CF93DF93EC016A017B012115310579F4D3
:102C8000E881F9810190F081E02D642FDF91CF91EF
:102C90001F910F91FF90EF90DF90CF9019942A3001
:102CA0003105D9F477FF18C06DE25BDF8C01442752
:102CB0005527BA014C195D096E097F092AE0CE013A
:102CC0007ADF800F911FDF91CF911F910F91FF90BD
:102CD000EF90DF90CF9008952AE0B701A601CE01D2
:102CE000DF91CF911F910F91FF90EF90DF90CF90E8
:102CF00062CF2115310541F4DC01ED91FC91019089
:102D0000F081E02D642F199456CF9A01AB0160E059
:102D100070E0EFCF4F925F926F927F928F929F926F
:102D2000AF92BF92CF92DF92EF92FF920F931F93D9
:102D3000CF93DF93EC016A017B01B22E9A01AB01C4
:102D4000C701B60126D5882319F06DED74E024C0C3
:102D500026013701E89477F82FEF3FEF4FE75FE761
:102D6000C301B20116D581110CC02FEF3FEF4FE721
:102D70005FE7C301B20157D318161CF461EE74E08B
:102D80000BC02FEF3FEF4FE75FE4C701B6019AD4C6
:102D90001816A4F465EE74E0CE01DF91CF911F9177
:102DA0000F91FF90EF90DF90CF90BF90AF909F90EA
:102DB0008F907F906F905F904F90AFCE2FEF3FEF4F
:102DC0004FE75FECC701B6012ED387FDE3CF20E0CC
:102DD00030E0A901C701B60126D387FF09C06DE223
:102DE000CE01BFDE8C01F7FAF094F7F8F09402C040
:102DF00000E010E0A12C60E070E080E09FE3AB1405
:102E000039F020E030E040E251E411D3A394F7CF51
:102E10009B01AC01C701B601A2D26B017C0174D346
:102E20002B013C019DD39B01AC01C701B60196D299
:102E30006B017C012AE0B301A201CE01BCDE080FC8
:102E4000191FBB2031F069EE74E0CE0166DE080F79
:102E5000191F7B2C772019F120E030E040E251E48B
:102E6000C701B60133D46B017C0149D34B01AA24BD
:102E700097FCA094BA2C2AE030E0B501A401CE0161
:102E8000F1DE080F191FC501B4016CD39B01AC0121
:102E9000C701B60163D26B017C017A94DBCFC80114
:102EA000DF91CF911F910F91FF90EF90DF90CF9026
:102EB000BF90AF909F908F907F906F905F904F905A
:102EC000089528CF0F931F93CF93DF93EC0160DA1F
:102ED000688779878A879B87E881F9810680F781EF
:102EE000E02DCE01199597FF14C052DA0885198597
:102EF0002A853B85601B710B820B930B0C811D8116
:102F00002E813F81601771078207930728F38FEFA7
:102F10009FEFDF91CF911F910F910895EF92FF9254
:102F20000F931F93CF93DF93EC018B01E42E6CED95
:102F300074E07FD0C801C6DFFF24E7FCF09497FD62
:102F400009C08E159F0531F0682FCE0106D1C8014A
:102F5000B9DFF5CFCE01DF91CF911F910F91FF9097
:102F6000EF900895FC018081918110C5CF93DF938C
:102F7000EC0188819981009709F008D5198218829F
:102F80001D821C821B821A82DF91CF9108950F93BC
:102F90001F93CF93DF93EC018B016F5F7F4F88818D
:102FA000998183D5009731F0998388831B830A83A5
:102FB00081E001C080E0DF91CF911F910F910895D2
:102FC000CF93DF93EC0188819981892B29F08A8145
:102FD0009B818617970758F4CE01D9DF882341F0EB
:102FE0008C819D81892B19F4E881F981108281E01F
:102FF000DF91CF910895EF92FF920F931F93CF939C
:10300000DF93EC017B018A01BA01DADF811103C091
:10301000CE01ACDF06C01D830C83B7018881998186
:1030200076D6CE01DF91CF911F910F91FF90EF9057
:103030000895FC011182108213821282158214827B
:103040006115710551F0FB0101900020E9F7AF0116
:1030500041505109461B570BCECF08950F931F9334
:10306000CF93DF938C01EB01FC018081918100976C
:1030700089F0428153812C813D814217530748F0EA
:103080006881798144D68C819D81F8019583848300
:1030900012C07CD488819981F801918380838A81D0
:1030A0009B81938382838C819D8195838483198204
:1030B00018821B821A821D821C82DF91CF911F9180
:1030C0000F910895CF93DF93EC018617970709F0CE
:1030D000C5DFCE01DF91CF910895CF93DF93EC014F
:1030E0006115710559F0FB0101900020E9F7AF016E
:1030F00041505109461B570B7EDF01C037DFCE011F
:10310000DF91CF910895EF92FF920F931F93CF938A
:10311000DF93EC017B010C811D816115710511F4B8
:1031200080E014C04115510581F0040F151FB8014E
:1031300047DF8823A9F3288139818C819D81B701DC
:10314000820F931FE4D51D830C8381E0DF91CF9123
:103150001F910F91FF90EF900895CF93DF931F92EF
:103160001F92CDB7DEB769831A8241E050E0BE01FD
:103170006F5F7F4FC8DF0F900F90DF91CF91089561
:10318000EF92FF920F931F93CF93DF93CDB7DEB7EC
:1031900028970FB6F894DEBF0FBECDBF7C01CB01E0
:1031A0004AE08E010F5F1F4FB801D2D5F8010190A0
:1031B0000020E9F7AF0141505109401B510BB80104
:1031C000C701A1DF28960FB6F894DEBF0FBECDBFB2
:1031D000DF91CF911F910F91FF90EF900895FC0127
:1031E00024813581232B31F421E06115710599F09B
:1031F000FB0108C0FC01808191816115710531F4EA
:1032000021E0FC018081882331F004C077D521E0E2
:10321000892B09F020E0822F0895CF93DF93FC01E2
:10322000848195814817590770F4C081D18177272F
:1032300067FD7095CE01840F951F55D5009719F045
:103240008C1B9D0B02C08FEF9FEFDF91CF910895F4
:1032500040E050E0E2CFCF93DF93FC018481958181
:103260004817590770F4C081D181FB0160817181D9
:10327000CE01840F951F52D5009719F08C1B9D0B22
:1032800002C08FEF9FEFDF91CF91089540E050E0B3
:10329000E2CFBF92CF92DF92EF92FF920F931F93F4
:1032A000CF93DF936C017B01EA0189012417350775
:1032B00020F48D2FE901042F182F6CED74E0C60166
:1032C000B8DED70114968D919C911597C817D90730
:1032D000C0F48017910708F48C01D701ED91FC919F
:1032E0001197E00FF11FB08010826D917C916C0FEF
:1032F0007D1FC601F2DED701ED91FC91E00FF11FB9
:10330000B082C601DF91CF911F910F91FF90EF9096
:10331000DF90CF90BF900895FC018081918100974C
:1033200009F0AAC460E070E0CB010895FC0180813F
:103330009181009709F09DC460E070E0CB01089591
:10334000089585D8FDDF0E949404C8E7D3E10E9468
:1033500059072097E1F3CCD9FACF08955058BB27ED
:10336000AA270ED075C166D130F06BD120F031F4B0
:103370009F3F11F41EF45BC10EF4E095E7FB51C1D1
:10338000E92F77D180F3BA1762077307840795078F
:1033900018F071F49EF58FC10EF4E0950B2EBA2F44
:1033A000A02D0B01B90190010C01CA01A00111244B
:1033B000FF27591B99F0593F50F4503E68F11A16F7
:1033C000F040A22F232F342F4427585FF3CF469588
:1033D00037952795A795F0405395C9F77EF41F16AA
:1033E000BA0B620B730B840BBAF09150A1F0FF0F74
:1033F000BB1F661F771F881FC2F70EC0BA0F621F60
:10340000731F841F48F4879577956795B795F7954F
:103410009E3F08F0B3CF9395880F08F09927EE0FE1
:10342000979587950895D9D008F481E008950CD038
:103430000FC107D140F0FED030F021F45F3F19F00A
:10344000F0C0511139C1F3C014D198F39923C9F3D5
:103450005523B1F3951B550BBB27AA27621773079A
:10346000840738F09F5F5F4F220F331F441FAA1F4E
:10347000A9F333D00E2E3AF0E0E830D0915050400E
:10348000E695001CCAF729D0FE2F27D0660F771FBC
:10349000881FBB1F261737074807AB07B0E809F09E
:1034A000BB0B802DBF01FF2793585F4F2AF09E3F33
:1034B000510568F0B6C000C15F3FECF3983EDCF305
:1034C000869577956795B795F7959F5FC9F7880FAC
:1034D000911D9695879597F90895E1E0660F771FFE
:1034E000881FBB1F621773078407BA0720F0621B8F
:1034F000730B840BBA0BEE1F88F7E095089504D088
:103500006894B111D9C00895BCD088F09F5790F04D
:10351000B92F9927B751A0F0D1F0660F771F881FF8
:10352000991F1AF0BA95C9F712C0B13081F0C3D013
:10353000B1E00895C0C0672F782F8827B85F39F0B1
:10354000B93FCCF3869577956795B395D9F73EF457
:1035500090958095709561957F4F8F4F9F4F0895FF
:10356000E89409C097FB3EF490958095709561951D
:103570007F4F8F4F9F4F9923A9F0F92F96E9BB27D3
:103580009395F695879577956795B795F111F8CF4F
:10359000FAF4BB0F11F460FF1BC06F5F7F4F8F4FBA
:1035A0009F4F16C0882311F096E911C0772321F0B0
:1035B0009EE8872F762F05C0662371F096E8862F48
:1035C00070E060E02AF09A95660F771F881FDAF79F
:1035D000880F9695879597F90895990F0008550FCC
:1035E000AA0BE0E8FEEF16161706E807F907C0F089
:1035F00012161306E407F50798F0621B730B840B91
:10360000950B39F40A2661F0232B242B252B21F46A
:1036100008950A2609F4A140A6958FEF811D811D0A
:10362000089597F99F6780E870E060E008959FEF44
:1036300080EC089500240A94161617061806090649
:10364000089500240A941216130614060506089518
:10365000092E0394000C11F4882352F0BB0F40F4A0
:10366000BF2B11F460FF04C06F5F7F4F8F4F9F4FE0
:10367000089557FD9058440F551F59F05F3F71F062
:103680004795880F97FB991F61F09F3F79F08795C9
:103690000895121613061406551FF2CF4695F1DF52
:1036A00008C0161617061806991FF1CF86957105E2
:1036B000610508940895E894BB2766277727CB0116
:1036C00097F908958ADF08F48FEF08950BD0C0CFE3
:1036D000B1DF28F0B6DF18F0952309F0A2CFA7CF0D
:1036E0001124EACFC6DFA0F3959FD1F3950F50E0E8
:1036F000551F629FF001729FBB27F00DB11D639FA4
:10370000AA27F00DB11DAA1F649F6627B00DA11D49
:10371000661F829F2227B00DA11D621F739FB00DEF
:10372000A11D621F839FA00D611D221F749F33275F
:10373000A00D611D231F849F600D211D822F762FF8
:103740006A2F11249F5750408AF0E1F088234AF0F5
:10375000EE0FFF1FBB1F661F771F881F9150504041
:10376000A9F79E3F510570F05CCFA6CF5F3FECF309
:10377000983EDCF3869577956795B795F795E7952D
:103780009F5FC1F7FE2B880F911D9695879597F93E
:10379000089523DF880B990B0895A1E21A2EAA1B26
:1037A000BB1BFD010DC0AA1FBB1FEE1FFF1FA217F1
:1037B000B307E407F50720F0A21BB30BE40BF50BEE
:1037C000661F771F881F991F1A9469F76095709577
:1037D000809590959B01AC01BD01CF010895052E08
:1037E00097FB16F400940FD057FD05D0D6DF07FCE9
:1037F00002D046F408C050954095309521953F4F32
:103800004F4F5F4F089590958095709561957F4FCC
:103810008F4F9F4F0895EE0FFF1F0590F491E02DFD
:1038200019940DD0A59F900DB49F900DA49F800D6D
:10383000911D112408950790F691E02D1994A29FEF
:10384000B001B39FC001A39F700D811D1124911D74
:10385000B29F700D811D1124911D0895CF93DF93A8
:103860008230910510F482E090E0E0915106F091F1
:10387000520620E030E0A0E0B0E0309739F140811E
:10388000518148175907B8F04817590771F48281D8
:103890009381109729F013969C938E9312972CC0C6
:1038A000909352068093510627C02115310531F0BF
:1038B0004217530718F0A901DB0101C0EF019A017B
:1038C000BD01DF010280F381E02DD7CF2115310545
:1038D000F9F0281B390B2430310580F48A819B8153
:1038E0006115710521F0FB019383828304C09093DD
:1038F000520680935106FE01329644C0FE01E20F4B
:10390000F31F8193919322503109398328833AC060
:1039100020914F0630915006232B41F42091020252
:10392000309103023093500620934F0620910002FD
:10393000309101022115310541F42DB73EB7409178
:10394000040250910502241B350BE0914F06F091C3
:103950005006E217F307A0F42E1B3F0B2817390778
:1039600078F0AC014E5F5F4F2417350748F04E0FDB
:103970005F1F5093500640934F068193919302C06E
:10398000E0E0F0E0CF01DF91CF910895CF93DF9396
:10399000009709F487C0FC01329713821282C0910C
:1039A0005106D0915206209781F420813181280F51
:1039B000391F80914F06909150068217930779F531
:1039C000F0935006E0934F066DC0DE0120E030E03A
:1039D000AE17BF0750F412964D915C9113979D015D
:1039E0004115510509F1DA01F3CFB383A283408178
:1039F0005181840F951F8A179B0771F48D919C91BB
:103A00001197840F951F02969183808312968D9152
:103A10009C911397938382832115310529F4F093A8
:103A20005206E09351063EC0D9011396FC93EE93E3
:103A300012974D915D91A40FB51FEA17FB0779F41A
:103A400080819181840F951F0296D90111969C93D4
:103A50008E938281938113969C938E931297E0E0CC
:103A6000F0E08A819B81009719F0FE01EC01F9CF0B
:103A7000CE01029628813981820F931F20914F0633
:103A8000309150062817390769F4309729F41092BD
:103A900052061092510602C013821282D093500631
:103AA000C0934F06DF91CF9108956F927F928F92CE
:103AB0009F92AF92BF92CF92DF92EF92FF920F93BD
:103AC0001F93CF93DF93EC01CB01209779F4DF9123
:103AD000CF911F910F91FF90EF90DF90CF90BF900B
:103AE000AF909F908F907F906F90B8CEFE01E60FC1
:103AF000F71F9E0122503109E217F30708F4A8C00E
:103B0000D9010D911C91119706171707B0F00530D8
:103B1000110508F49BC0A8014450510946175707E6
:103B200008F494C002501109061B170B019311935E
:103B30006D937C93CF012ADF89C05B01A01AB10A83
:103B40004E01800E911EA0915106B0915206612C3B
:103B5000712C60E070E0109709F449C0A815B90510
:103B6000C9F5ED90FC901197670142E0C40ED11C9D
:103B7000CA14DB0478F147018A189B08640142E00B
:103B8000C40ED11C1296BC9012971396AC91B5E05E
:103B9000CB16D10440F0B282A38391828082D901F6
:103BA0008D939C9309C00E5F1F4F0E0D1F1DF901D1
:103BB00011830083EB2DFA2F6115710531F0DB01C4
:103BC0001396FC93EE93129741C0F0935206E09344
:103BD00051063CC06D917C9111976616770608F4EA
:103BE0003B01BD0112960D90BC91A02DB4CF609108
:103BF0004F067091500668157905E9F46816790644
:103C0000D0F440910002509101024115510541F458
:103C10004DB75EB76091040270910502461B570BC9
:103C2000E417F507A8F4F0935006E0934F06F90166
:103C3000918380830BC012DE7C01009749F0A801BC
:103C4000BE0148D0CE01A2DEC70104C0CE0102C031
:103C500080E090E0DF91CF911F910F91FF90EF9066
:103C6000DF90CF90BF90AF909F908F907F906F909C
:103C7000089566277727B2C01F93FC0199278827EC
:103C8000BC01E89411911032E9F3193010F01E30A4
:103C9000C8F31B3249F01D3241F4689405C062D06C
:103CA000610F711D811D911D119110531A30B8F3D0
:103CB0003EF490958095709561957F4F8F4F9F4F03
:103CC0001F9108959111F2C1803219F089508550E9
:103CD000D0F70895FB01DC0102C001900D92415024
:103CE0005040D8F70895FC018191861721F0882370
:103CF000D9F7992708953197CF010895FB01DC0189
:103D00008D91019080190110D9F3990B0895FB0151
:103D1000DC0101900D920020E1F70895FB01519123
:103D20005523A9F0BF01DC014D9145174111E1F781
:103D300059F4CD010190002049F04D9140154111F9
:103D4000C9F3FB014111EFCF81E090E001970895A5
:103D5000BB274A3031F4992322F4BDE29095819536
:103D60009F4F16C0592F482F372F262F660F771FCA
:103D7000881F991F660F771F881F991F620F731F77
:103D8000841F951F660F771F881F991F0895BB27F3
:103D9000FB015527AA27880F991FAA1FA41710F007
:103DA000A41B83955051B9F7A05DAA3308F0A95D13
:103DB000A193009779F7B111B1931192CB0191C101
:103DC000262FF999FECF1FBA92BD81BD20BD0FB637
:103DD000F894FA9AF99A0FBE019608958F929F92DD
:103DE000AF92BF92CF92DF92EF92FF920F931F9309
:103DF000CF93DF938B016115710521F0DB018C936B
:103E000011969C93EC015E01BFEFAB1ABB0A7501E2
:103E1000C8808C2D90E056DF892B11F0E501F3CF9F
:103E2000EDE2CE1208C07E01F2E0EF0EF11CC98077
:103E3000DD24D39409C02BE2C21205C07E0142E00A
:103E4000E40EF11CC980D12CE701219743E050E03A
:103E500064E272E0CE012DD1892BB9F4239645E0BE
:103E600050E06FE172E0CE0124D1892B09F4259650
:103E70000115110519F0D801CD93DC93D11000C1C3
:103E800060E070E080E89FE704C143E050E06CE14F
:103E900072E0CE010ED1892B59F40115110509F4F8
:103EA000F4C0B2E0EB0EF11CF801F182E082EDC04B
:103EB000F70160E070E0CB01C0E0D0E07F01A0ED51
:103EC000AA2EAC0C29E02A1528F14D2D4260B42E03
:103ED0002D2D2870D2FE04C0211124C0219622C0AD
:103EE00021112197A5E0B0E09B01AC019ADC660F9F
:103EF000771F881F991F6A0D711D811D911D6839DB
:103F0000A9E97A078A07A9E19A0760F0BD2DB66092
:103F1000BB2E08C02EEFA2120AC0D3FC50C04D2DFC
:103F20004860B42E3196D701CC90DB2CC7CF2C2D16
:103F30002F7D253409F043C0A081AD3241F4BD2D61
:103F4000B061DB2E7F0122E0E20EF11C0CC07F018C
:103F5000AB3231F04FEFE41AF40A21E030E006C052
:103F6000A2E0EA0EF11CA18122E030E0A053AA30C9
:103F700018F0E21AF30A23C0F70120E030E02038FD
:103F8000BCE03B075CF4A901440F551F440F551FCB
:103F9000240F351F220F331F2A0F311DAF014F5F32
:103FA0005F4F7A01A081A053AA3010F4FA01E7CF45
:103FB000D4FE03C0319521953109C20FD31FD1FE24
:103FC00009C00115110531F0E1E0EE1AF108D80140
:103FD000ED92FC92C5DA2D2D2370233019F04B01A0
:103FE0005C0106C04B015C01B7FAB094B7F8B0941D
:103FF00020E030E0A901C501B40115DA882309F4F5
:104000003CC0D7FF06C0D195C195D1090BE312E0A2
:1040100002C003E512E06801B8E1CB1AD10890E2D2
:10402000E92EF12CCE15DF056CF0F80125913591C4
:1040300045915491C501B40149DB4B015C01CE1996
:10404000DF09F0CF04501109F594E7940C151D0514
:1040500049F78A2D880F8B2D881F8F3F41F020E074
:1040600030E0A901C501B401DED9811106C082E2A8
:1040700090E09093540680935306C501B40109C0A3
:1040800060E070E080E89FEF04C060E070E080ECEA
:104090009FE7DF91CF911F910F91FF90EF90DF90FD
:1040A000CF90BF90AF909F908F90089599278827C9
:1040B0000895FB01DC014150504088F08D9181341E
:1040C0001CF08B350CF4805E659161341CF06B350F
:1040D0000CF4605E861B611171F3990B0895881BC7
:1040E000FCCFDC01FC01672F71917723E1F7329758
:1040F00004C07C916D9370836291AE17BF07C8F3C3
:10410000089512E0CCE5D2E000E005C02297010955
:10411000FE010BBF90DBCE35D10780E00807B1F779
:04412000F894FFCF41
:10412400000055068000B40FB40FB40FB40FB40FE1
:10413400B40FB40FB40F5374617274207265616468
:10414400696E6720616C6C2072656773202323237A
:104154002323232323232323232323232320003044
:104164007831373D00307831383D00307831393D91
:1041740000307831413D00307831423D00307831B3
:10418400433D00307831443D00307831453D0030C6
:104194007831463D00307832303D00307832313D60
:1041A40000307832323D00307832333D003078329E
:1041B400343D00307832353D00307832363D0030C1
:1041C4007832373D00307832383D00307832393D2E
:1041D40000307832413D00307832423D0030783250
:1041E400433D00307832443D00307832453D003064
:1041F4007832463D00307833303D00307833313DFD
:1042040000307833323D00307833333D003078333A
:10421400343D00307833353D00307833363D00305E
:104224007833373D00307833383D00307833393DCA
:1042340000307833413D00307833423D00307833EC
:10424400433D00307833443D00307833453D003001
:104254007833463D00307834303D00307834313D99
:1042640000307834323D00307834333D00307834D7
:10427400343D00307834353D00307834363D0030FC
:104284007834373D00307834383D00307837453D58
:1042940000307837463D00435F43414C0049524D5E
:1042A400532C00565F43414C0056524D532C005042
:1042B400685F43414C005741545448522C005741C5
:1042C40054542C0052454143544956455F504F576E
:1042D4004552005641522C004150504552454E54CF
:1042E4005F504F5745520056412C0041505F4341A7
:1042F4004C2C005741545448525F4C696E654379C5
:10430400636C655F0052505F43414C2C0056415230
:1043140048525F4C696E654379636C655F00415038
:10432400505F454E455247592C00564148525F4C08
:10433400696E654379636C655F004F464653455427
:104344005F562C004F46465345545F5620646F6EAB
:1043540065203A004F46465345545F432C004F4670
:10436400465345545F4320646F6E65203A004F46C0
:10437400465345545F41502C004F46465345545FC5
:10438400415020646F6E65203A004F4646534554B1
:104394005F52502C004F46465345545F52502064A0
:1043A4006F6E65203A004F46465345545F50682C63
:1043B400004F46465345545F564320646F6E652054
:1043C4003A004F46465345545F454550524F4D00C1
:1043D4004B504152415F454550524F4D004572721A
:1043E4006F7220696E204D53470000000000F613E1
:1043F40065154B1364135613D5130D0A006E616EC5
:0C44040000696E66006F7666002E0000F6
:00000001FF
