:100000008DC100000C94EB080C9416090C94410966
:100010000C946C090C9497090C94C2090C94ED098A
:100020000C94180AACC10000AAC10000A8C10000CD
:10003000A6C10000A4C10000A2C10000A0C1000030
:100040009EC100009CC100009AC1000098C1000040
:1000500096C1000094C1000092C100000C94430AB4
:100060008EC100000C94900D0C94C60D88C1000048
:1000700086C1000084C1000082C1000080C1000070
:100080007EC100007CC100007AC1000049C70000A9
:1000900076C1000074C1000072C1000070C1000090
:1000A0006EC100006CC100006AC1000068C10000A0
:1000B00066C1000064C1000062C1000060C10000B0
:1000C0005EC100005CC100005AC1000058C10000C0
:1000D00056C1000054C1000052C1000050C10000D0
:1000E0004EC10000C5088F089708A308B008D108C2
:1000F000DE08780B7B0B6A0B6E0B740BB20B7F0B5D
:10010000830B890B8D0B910B970B9B0B9F0BB20BEA
:10011000A50BA90BAD0B00000A0B02090C0D0E0874
:1001200007030401000000000000000000000000C0
:1001300000000000000000000000000000000000BF
:10014000000012111000000000000000000000007C
:10015000000000000000000000000000010210206C
:1001600020080810204010204080020102010804ED
:100170000201010204081020408080402010080481
:1001800002018004020180402010080402010804DA
:10019000020101020408102040800102040810201E
:1001A0004080050505050705080808080202020247
:1001B0000A0A080804040404010101010101010103
:1001C0000303030303030303040707070C0C0C0CCE
:1001D0000C0C0C0C020202020606060606060606B7
:1001E0000B0B0B0B0B0B0B0B000022002500280048
:1001F0002B002E003100340002010000050108012F
:100200000B0100002100240027002A002D003000EF
:10021000330001010000040107010A0100407A10C7
:10022000F35A00A0724E18090010A5D4E80000E8A7
:100230007648170000E40B54020000CA9A3B000005
:1002400000E1F505000080969800000040420F0094
:100250000000A08601000000102700000000E80355
:10026000000000006400000000000A000000000020
:100270000100000000002C76D888DC674F0823DFDF
:10028000C1DFAE59E1B1B796E5E3E453C63AE651B2
:10029000997696E8E6C28426EB898C9B62ED407CD9
:1002A0006FFCEFBC9C9F40F2BAA56FA5F490055A75
:1002B0002AF75C936B6CF9676DC11BFCE0E40D479A
:1002C000FEF520E6B500D0ED902E030094357705BD
:1002D0000080841E080000204E0A000000C80C3375
:1002E0003333330F986E12831141EF8D2114893B04
:1002F000E65516CFFEE6DB18D1844B381BF77C1D84
:10030000901DA4BBE424203284725E228100C9F1D6
:1003100024ECA1E53D276906F80D7B0611241FBEDC
:10032000CFEFD1E2DEBFCDBF00E00CBF12E0A0E016
:10033000B2E0E6E2FDE200E00BBF02C007900D92E2
:10034000A635B107D9F724E0A6E5B2E001C01D92B9
:10035000AF30B207E1F713E0CAE1D3E000E006C036
:1003600022970109FE010BBF0E945B11C631D10724
:1003700080E00807A9F70E94E9100C94821640CE8D
:1003800008958091600290916102A0916202B09103
:1003900063020196A11DB11D8093600290936102DA
:1003A000A0936202B0936302089580915C029091E1
:1003B0005D02A0915E02B0915F020196A11DB11D88
:1003C00080935C0290935D02A0935E02B0935F0203
:1003D000089586E592E00E94FA0E8BE692E00E9474
:1003E000FA0E81E792E00C94FA0E8EBD00000DB477
:1003F00007FEFDCF8EB508952CB5982F93702C7FF6
:10040000922B9CBD9DB582FB882780F99E7F982BFF
:100410009DBD08958CB5837F84608CBD60E08CE1C8
:100420000E94EC0B80E0E8DF82E390E00C94F30A9A
:1004300061E08CE10E94EC0B82E390E00E94F30A01
:100440008CB5837F8CBD0895CF93DF931F921F924D
:10045000CDB7DEB76A838983DDDF89818068C5DF38
:100460006A81862FC2DF0F900F90DF91CF91E0CF8E
:100470001F93CF93DF931F921F92CDB7DEB7182F34
:100480006A837983C7DF82E390E00E94F30A812FB9
:100490008068ABDF82E390E00E94F30A7981872FC6
:1004A000A4DF82E390E00E94F30A6A81862F9DDF39
:1004B00082E390E00E94F30A0F900F90DF91CF91BA
:1004C0001F91B6CF1F93CF93DF9300D0CDB7DEB788
:1004D000182F4B835A8369839DDF82E390E00E944B
:1004E000F30A812F806881DF82E390E00E94F30AA3
:1004F0006981862F7ADF82E390E00E94F30A5A81B5
:10050000852F73DF82E390E00E94F30A4B81842FF2
:100510006CDF82E390E00E94F30A0F900F900F903F
:10052000DF91CF911F9184CFCF93DF93C82F72DFDC
:1005300082E390E00E94F30A8C2F57DF82E390E081
:100540000E94F30A80E051DFC82F82E390E00E940E
:10055000F30A80E04ADFD82F82E390E00E94F30A9A
:1005600067DF8D2F90E09C2BDF91CF91089564E0A1
:1005700083E16ADF88EC90E00E94F30A6CEF84E18B
:1005800063DF88EC90E00E94F30A60E085E15CDFC5
:1005900088EC90E00E94F30A6CE986E155DF88EC74
:1005A00090E00E94F30A68E787E14EDF88EC90E074
:1005B0000E94F30A40E050E0BA0188E183DF88EC52
:1005C00090E00E94F30A6FEF7FEF8BE151DF88EC40
:1005D00090E00E94F30A6FEF7FEF8CE149DF88EC37
:1005E00090E00E94F30A6FEF8DE12EDF88EC90E03F
:1005F000FAD760E08EE128DF88EC90E0F4D76FEF67
:100600008FE122DF88EC90E0EED76FEF80E21CDF15
:1006100088EC90E0E8D760915D0370915E038AE218
:1006200027DF88EC90E0DFD760915D0370915E0377
:100630008BE21EDF88EC90E0D6D760915D0370916D
:100640005E038CE215DF88EC90E0CDD760915D030E
:1006500070915E0380E30CDF88EC90E0C4D760917A
:100660005D0370915E0381E303DF88EC90E0BBD70C
:1006700060915D0370915E0382E3FADE88EC90E0A6
:10068000B2D760915D0370915E038DE2F1DE88EC7C
:1006900090E0A9D760915D0370915E038EE2E8DE81
:1006A00088EC90E0A0D760915D0370915E038FE2CB
:1006B000DFDE88EC90E097D710920D0310920E03C6
:1006C00010920F0310921003109211031092120354
:1006D0001092130310921403109215031092160334
:1006E0001092170310921803109201031092020344
:1006F0001092030310920403109205031092060354
:1007000010920703109208031092090310920A0333
:1007100010920B0310920C031092190310921A03FB
:1007200010921B0310921C0310921D0310921E03C3
:1007300010921F03109220031092210310922203A3
:1007400010922303109224031092590310925A031B
:1007500010925B0310925C031092550310925603A3
:1007600010925703109258031092510310925203A3
:10077000109253031092540381E0D6DE82E0D4DE5F
:1007800083E0D2CECF92DF92EF92FF920F931F932E
:10079000DC01FB01C080D180E280F380A7017727D4
:1007A00057FD7095672F0D911D912D913C911397D9
:1007B000F7FE14C04F5F5F4F6F4F7F4F400F511FC9
:1007C000621F731F4D935D936D937C93139780818C
:1007D0009181A281B381AF6FBF6F0FC0400F511FD6
:1007E000621F731F4D935D936D937C93139780816C
:1007F0009181A281B381AA27BB2780839183A283A1
:10080000B3831F910F91FF90EF90DF90CF900895E9
:100810004091870250918802662757FD6095762F98
:100820008091A9029091AA02A091AB02B091AC0272
:10083000840F951FA61FB71F8093A9029093AA0249
:10084000A093AB02B093AC02409185025091860216
:10085000662757FD6095762F8091A5029091A6029C
:10086000A091A702B091A802840F951FA61FB71FE1
:100870008093A5029093A602A093A702B093A8022A
:100880004091830250918402662757FD6095762F30
:100890008091A1029091A202A091A302B091A40222
:1008A000840F951FA61FB71F8093A1029093A202E9
:1008B000A093A302B093A4024091810250918202BE
:1008C000662757FD6095762F80919D0290919E023C
:1008D000A0919F02B091A002840F951FA61FB71F81
:1008E00080939D0290939E02A0939F02B093A002DA
:1008F00040917F0250918002662757FD6095762FC8
:100900008091990290919A02A0919B02B0919C02D1
:10091000840F951FA61FB71F8093990290939A0288
:10092000A0939B02B0939C0240917D0250917E0265
:10093000662757FD6095762F8091950290919602DB
:10094000A0919702B0919802840F951FA61FB71F20
:100950008093950290939602A0939702B093980289
:1009600040917B0250917C02662757FD6095762F5F
:100970008091910290919202A0919302B091940281
:10098000840F951FA61FB71F809391029093920228
:10099000A0939302B09394024091790250917A020D
:1009A000662757FD6095762F80918D0290918E027B
:1009B000A0918F02B0919002840F951FA61FB71FC0
:1009C00080938D0290938E02A0938F02B093900239
:1009D0004091770250917802662757FD6095762FF7
:1009E0008091890290918A02A0918B02B0918C0231
:1009F000840F951FA61FB71F8093890290938A02C8
:100A0000A0938B02B0938C0269EA72E08DEC92E0C5
:100A1000B9DE65EA72E089EC92E0B4DE61EA72E088
:100A200085EC92E0AFDE6DE972E081EC92E0AADE47
:100A300069E972E08DEB92E0A5DE65E972E089EB91
:100A400092E0A0DE61E972E085EB92E09BDE6DE86A
:100A500072E081EB92E096DE69E872E08DEA92E066
:100A600091DE6091CD027091CE028091CF02909183
:100A7000D0020E94F81060930D0370930E038093D0
:100A80000F03909310036091C9027091CA02809184
:100A9000CB029091CC020E94F810609311037093E6
:100AA000120380931303909314036091C502709115
:100AB000C6028091C7029091C8020E94F81060930C
:100AC0001503709316038093170390931803609196
:100AD000C1027091C2028091C3029091C4020E942F
:100AE000F8106093010370930203809303039093C3
:100AF00004036091BD027091BE028091BF0290918B
:100B0000C0020E94F810609305037093060380935F
:100B10000703909308036091B9027091BA02809123
:100B2000BB029091BC020E94F8106093090370937D
:100B30000A0380930B0390930C036091B5027091AC
:100B4000B6028091B7029091B8020E94F8106093AB
:100B5000190370931A0380931B0390931C036091F5
:100B6000B1027091B2028091B3029091B4020E94DE
:100B7000F81060931D0370931E0380931F039093DE
:100B800020036091AD027091AE028091AF0290910E
:100B9000B0020E94F81060932103709322038093A7
:100BA000230390932403089581E0BEDC9093880290
:100BB0008093870282E0B8DC90938602809385025E
:100BC00083E0B2DC909384028093830284E0ACDC07
:100BD000909382028093810285E0A6DC909380024C
:100BE00080937F0286E0A0DC90937E0280937D025A
:100BF00087E09ADC90937C0280937B0288E094DC0F
:100C000090937A028093790289E08EDC9093780247
:100C100080937702FDCD809169028111C5CF08953F
:100C200061E08DE2A0D561E08BE29DD561E089E2D3
:100C30009AD561E08CE197D52AD283E0DDDB8CB5D3
:100C4000837F84608CBD8CB58F7D8CBD26E040E0B9
:100C500052EC61E070E08EE693E002D76AE070E06B
:100C600080E090E089D460E082E07DD560E083E0C0
:100C70007AD560E085E177D561E08DE2ADD561E0C0
:100C80008BE2AAD561E089E2A7D543E050E060ECB1
:100C900071E081E02FD243E050E061EC71E080E050
:100CA00029D243E050E065ED71E082E023D240E4D8
:100CB00052E46FE070E08FE593E0C0D120EA36E8BF
:100CC00041E050E06BE076E08FE593E0C6D131D4AF
:100CD00024C466E472E081E792E00E94610F66E45A
:100CE00072E08BE692E00E94610F66E472E086E5B6
:100CF00092E00C94610F6DCBFF920F931F93CF93F3
:100D0000DF93CDB7DEB762970FB6F894DEBF0FBEA4
:100D1000CDBF8EE693E095D5892B09F486C040E0DF
:100D20006EE673E0CE0101960E94D60EBE016F5FA3
:100D30007F4F81E792E00E94AA0FCE0101960E94A8
:100D4000FA0EF89466E172E0CE0101960E94610FFE
:100D5000BE016F5F7F4F81E792E00E9498108C0187
:100D6000CE0101960E94FA0E17FD5EC0FF24F39497
:100D7000F0926A0266E172E0CE0107960E94610F6E
:100D8000BE01695F7F4F81E792E00E949810AC013D
:100D9000465F5F4F6CE281E792E00E9462108C0137
:100DA00066E172E0CE010D960E94610FBE01635FA5
:100DB0007F4F81E792E00E949810AC01475F5F4F40
:100DC000980161E772E0CE0101960E949B10CE016E
:100DD00001960E94DE1060936802CE0101960E9487
:100DE000FA0ECE010D960E94FA0ECE0107960E94D1
:100DF000FA0E809168028823B9F080E098E0909321
:100E00005E0380935D03B3DB88D3609364027093C9
:100E10006502809366029093670260E272E08EE65C
:100E200093E088D7F09269027894809169028823D0
:100E300009F46AC072D30091640210916502209196
:100E4000660230916702F0906802601B710B820BA2
:100E5000930B20E63AEE40E050E00E9433118F2DD4
:100E600090E0A0E0B0E0281739074A075B0709F0D7
:100E70004BC01092690265E272E08BE692E00E943C
:100E8000B50F609168028BE692E00E9408106CE258
:100E90008BE692E00E94F50F40910D0350910E03F6
:100EA00060910F03709110038BE692E00E94321064
:100EB0006CE28BE692E00E94F50F40911103509195
:100EC000120360911303709114038BE692E00E9469
:100ED00032106CE28BE692E00E94F50F4091150310
:100EE0005091160360911703709118038BE692E0FE
:100EF0000E9432106CE28BE692E00E94F50F6BE6E6
:100F000072E08EE693E006D762960FB6F894DEBFE5
:100F10000FBECDBFDF91CF911F910F91FF9008952C
:100F20001F920F920FB60F9211240BB60F922F93B0
:100F30003F934F935F936F937F938F939F93AF9361
:100F4000BF93EF93FF93E0916203F09163031995D0
:100F5000FF91EF91BF91AF919F918F917F916F9191
:100F60005F914F913F912F910F900BBE0F900FBE4D
:100F70000F901F901895FC01A3E0440F551F661FAA
:100F8000771FAA95D1F74115510581E068077105D2
:100F900014F481E00EC033E0759567955795479539
:100FA0003A95D1F74115510581E0680771051CF4A8
:100FB00082E0828331C023E0759567955795479508
:100FC0002A95D1F74115510581E06807710514F4A0
:100FD00083E0EFCF92E075956795579547959A9581
:100FE000D1F74115510581E06807710514F484E0DB
:100FF000E0CF82E075956795579547958A95D1F72B
:1010000085E082834115510581E06807710524F070
:101010004FEF5FEF60E070E05183408350939700A3
:101020004093960080919100887F809391008091F9
:1010300091009281892B80939100089510929000E5
:1010400020E12093910097CFE1E9F0E02081DC01DD
:1010500012968C91282B208308950F931F93CF9382
:10106000DF93EC018B01BA01A901141615061606CF
:1010700017060CF480DF1C830B8381E080937100E2
:101080007894CE01DF91CF911F910F91DDCFCF9357
:10109000CFB7F89480916403811123C0E7EDF1E0AC
:1010A0008491E1E9F1E09491E82FF0E0EE0FFF1F69
:1010B000EE5FFD4FA591B4918C91892319F461E005
:1010C00085E38AD361E085E34ED38CB580618CBD26
:1010D0008CB580648CBD61E084E345D361E083E33B
:1010E00042D3809164038F5F80936403CFBFCF911D
:1010F00008950895883008F06DC0E82FF0E0EE0FF5
:10110000FF1FEA5FFD4F7183608390E0FC01319720
:10111000E730F10590F5EE58FF4F0C945511809192
:1011200069008C7F842B80936900E89A08958091F0
:101130006900440F551F440F551F837F842B8093F4
:101140006900E99A08958091690074E0440F551F81
:101150007A95E1F78F7C842B80936900EA9A089551
:101160008091690066E0440F551F6A95E1F78F731F
:10117000842B80936900EB9A089580916A008C7F9C
:10118000842B80936A00EC9A089580916A00440F42
:10119000551F440F551F837F842B80936A00ED9A5F
:1011A000089580916A0024E0440F551F2A95E1F7C5
:1011B0008F7C842B80936A00EE9A089580916A0058
:1011C00096E0440F551F9A95E1F78F73842B809317
:1011D0006A00EF9A08951F920F920FB60F92112492
:1011E0000BB60F922F933F934F935F936F937F9321
:1011F0008F939F93AF93BF93EF93FF93E0910A0276
:10120000F0910B021995FF91EF91BF91AF919F91D2
:101210008F917F916F915F914F913F912F910F909F
:101220000BBE0F900FBE0F901F9018951F920F923C
:101230000FB60F9211240BB60F922F933F934F933B
:101240005F936F937F938F939F93AF93BF93EF932E
:10125000FF93E0910C02F0910D021995FF91EF912F
:10126000BF91AF919F918F917F916F915F914F91BE
:101270003F912F910F900BBE0F900FBE0F901F90BC
:1012800018951F920F920FB60F9211240BB60F9262
:101290002F933F934F935F936F937F938F939F937E
:1012A000AF93BF93EF93FF93E0910E02F0910F0283
:1012B0001995FF91EF91BF91AF919F918F917F9180
:1012C0006F915F914F913F912F910F900BBE0F90B7
:1012D0000FBE0F901F9018951F920F920FB60F928E
:1012E00011240BB60F922F933F934F935F936F93FD
:1012F0007F938F939F93AF93BF93EF93FF93E0916F
:101300001002F09111021995FF91EF91BF91AF91E9
:101310009F918F917F916F915F914F913F912F910D
:101320000F900BBE0F900FBE0F901F9018951F923D
:101330000F920FB60F9211240BB60F922F933F937B
:101340004F935F936F937F938F939F93AF93BF93CD
:10135000EF93FF93E0910602F09107021995FF9138
:10136000EF91BF91AF919F918F917F916F915F911D
:101370004F913F912F910F900BBE0F900FBE0F908A
:101380001F9018951F920F920FB60F9211240BB653
:101390000F922F933F934F935F936F937F938F930E
:1013A0009F93AF93BF93EF93FF93E0910802F09167
:1013B00009021995FF91EF91BF91AF919F918F9184
:1013C0007F916F915F914F913F912F910F900BBE45
:1013D0000F900FBE0F901F9018951F920F920FB68F
:1013E0000F9211240BB60F922F933F934F935F935D
:1013F0006F937F938F939F93AF93BF93EF93FF93DD
:10140000E0911202F09113021995FF91EF91BF91B3
:10141000AF919F918F917F916F915F914F913F918C
:101420002F910F900BBE0F900FBE0F901F9018952D
:101430001F920F920FB60F9211240BB60F922F939B
:101440003F934F935F936F937F938F939F93AF934C
:10145000BF93EF93FF93E0911402F0911502199559
:10146000FF91EF91BF91AF919F918F917F916F917C
:101470005F914F913F912F910F900BBE0F900FBE38
:101480000F901F9018951F920F920FB60F92112474
:101490002F933F938F939F93AF93BF938091660356
:1014A00090916703A0916803B0916903309165033F
:1014B00023E0230F2D3720F40196A11DB11D05C097
:1014C00026E8230F0296A11DB11D2093650380938A
:1014D000660390936703A0936803B09369038091B8
:1014E0006A0390916B03A0916C03B0916D03019618
:1014F000A11DB11D80936A0390936B03A0936C03AD
:10150000B0936D03BF91AF919F918F913F912F91B8
:101510000F900FBE0F901F9018952FB7F894609101
:1015200066037091670380916803909169032FBFF0
:1015300008953FB7F89480916A0390916B03A0914E
:101540006C03B0916D0326B5A89B05C02F3F19F021
:101550000196A11DB11D3FBF6627782F892F9A2FB5
:10156000620F711D811D911D42E0660F771F881F5C
:10157000991F4A95D1F708958F929F92AF92BF928B
:10158000CF92DF92EF92FF926B017C01D2DF4B0191
:101590005C01C114D104E104F104E1F026D6C9DFF5
:1015A000681979098A099B09683E7340810591058C
:1015B00080F321E0C21AD108E108F10888EE880E14
:1015C00083E0981EA11CB11CC114D104E104F104F4
:1015D00031F7DFCFFF90EF90DF90CF90BF90AF90CB
:1015E0009F908F9008958230910538F0880F991F51
:1015F000880F991F05970197F1F70895789484B59E
:10160000826084BD84B5816084BD85B5826085BDFE
:1016100085B5816085BDEEE6F0E0808181608083E4
:10162000E1E8F0E0108280818260808380818160C7
:101630008083E0E8F0E0808181608083E1EBF0E08E
:10164000808184608083E0EBF0E080818160808332
:10165000E1E9F0E080818260808380818160808325
:10166000E0E9F0E0808181608083E1EAF0E0808160
:1016700082608083808181608083E0EAF0E0808105
:1016800081608083E1E2F1E08081826080838081FB
:1016900081608083E0E2F1E0808181608083EAE71D
:1016A000F0E080818460808380818260808380819B
:1016B000816080838081806880831092C10008955A
:1016C00090E0FC013197E231F10508F04BC0E7589A
:1016D000FF4FEBC5809180008F7703C08091800021
:1016E0008F7D80938000089580918000877FF9CF5F
:1016F00084B58F7702C084B58F7D84BD08958091B5
:10170000B0008F7703C08091B0008F7D8093B000D0
:101710000895809190008F7707C0809190008F7D11
:1017200003C080919000877F8093900008958091FE
:10173000A0008F7707C08091A0008F7D03C08091AB
:10174000A000877F8093A0000895809120018F776B
:1017500007C0809120018F7D03C080912001877F89
:10176000809320010895CF93DF9390E0FC01E45A29
:10177000FE4F2491FC01EE55FE4F8491882349F1E0
:1017800090E0880F991FFC01EE5FFD4FA591B49189
:1017900088519E4FFC01C591D4919FB7611108C03B
:1017A000F8948C91209582238C93888182230AC09F
:1017B000623051F4F8948C91322F309583238C93BE
:1017C0008881822B888304C0F8948C91822B8C931F
:1017D0009FBFDF91CF9108950F931F93CF93DF9316
:1017E0001F92CDB7DEB7282F30E0F901EA5EFE4F39
:1017F0008491F901E45AFE4F1491F901EE55FE4F20
:1018000004910023C1F0882319F0698359DF6981AD
:10181000E02FF0E0EE0FFF1FE851FE4FA591B491CD
:101820009FB7F8948C91611103C01095812301C07A
:10183000812B8C939FBF0F90DF91CF911F910F91C0
:101840000895FC01818D228D90E0805C9F4F821B6A
:1018500091098F7399270895FC01918D828D9817B6
:1018600031F0828DE80FF11D858D90E008958FEFA6
:101870009FEF0895FC01918D828D981761F0828D04
:10188000DF01A80FB11D5D968C91928D9F5F9F73B4
:10189000928F90E008958FEF9FEF08958FEE9DE077
:1018A000892B39F080E090E0892B19F098D18111D3
:1018B00025C080E090E0892B41F080E090E0892B0A
:1018C00021F00E94000081111CC080E090E0892B73
:1018D00041F080E090E0892B21F00E94000081110E
:1018E00013C080E090E0892BA1F080E090E0892B8C
:1018F00081F00E94000081110AC008950E9400003A
:10190000D8CF0E940000E1CF0E940000EACF0C94E3
:1019100000000895FC01848DDF01A80FB11DA35ABA
:10192000BF4F2C91848D90E001968F739927848FFF
:10193000A689B7892C93A089B1898C9180648C93F6
:10194000938D848D981306C00288F389E02D8081E1
:101950008F7D80830895CF93DF93EC01888D88235A
:10196000C1F0EA89FB89808185FD05C0A889B98914
:101970008C9186FD0EC00FB607FCF5CF808185FFE8
:10198000F2CFA889B9898C9185FFEDCFCE01C2DF56
:10199000E8CFDF91CF910895CF92DF92FF920F931E
:1019A0001F93CF93DF931F92CDB7DEB76C0181E019
:1019B000D60158968C9358975B969C915B975C9652
:1019C0008C915C97981307C05096ED91FC915197BC
:1019D000808185FD2DC0F601038D10E00F5F1F4F44
:1019E0000F731127F02EF601848DF81210C00FB678
:1019F00007FCF9CFD6015096ED91FC91519780816B
:101A000085FFF1CFC601698385DF6981ECCF838DC6
:101A1000E80FF11DE35AFF4F6083D6015B960C93EC
:101A20005B975296ED91FC915397808180620CC038
:101A3000D6015696ED91FC91579760835096ED91A3
:101A4000FC91519780818064808381E090E00F90C9
:101A5000DF91CF911F910F91FF90DF90CF9008956C
:101A6000BF92CF92DF92EF92FF92CF93DF93EC0180
:101A70006A017B01B22EE889F98982E080834115F1
:101A800081EE58076105710599F060E079E08DE31A
:101A900090E0A7019601E7D321503109410951098E
:101AA0005695479537952795211580E1380790F091
:101AB000E889F989108260E874E88EE190E0A70176
:101AC0009601D1D3215031094109510956954795C5
:101AD00037952795EC85FD853083EE85FF8520833E
:101AE000188EEC89FD89B082EA89FB89808180614A
:101AF0008083EA89FB89808188608083EA89FB8909
:101B0000808180688083EA89FB8980818F7D8083E2
:101B1000DF91CF91FF90EF90DF90CF90BF9008952D
:101B20001F920F920FB60F9211240BB60F922F93A4
:101B30008F939F93EF93FF93E0917E03F0917F0348
:101B40008081E0918403F091850382FD12C0908131
:101B5000809187038F5F8F7320918803821751F0E4
:101B6000E0918703F0E0E259FC4F958F8093870363
:101B700001C08081FF91EF919F918F912F910F90E4
:101B80000BBE0F900FBE0F901F9018951F920F92D3
:101B90000FB60F9211240BB60F922F933F934F93D2
:101BA0005F936F937F938F939F93AF93BF93EF93C5
:101BB000FF938EE693E0AEDEFF91EF91BF91AF9180
:101BC0009F918F917F916F915F914F913F912F9155
:101BD0000F900BBE0F900FBE0F901F9018958EE6C2
:101BE00093E02FDE21E0892B09F420E0822F089575
:101BF000109271031092700388EE93E0A0E0B0E0C1
:101C00008093720390937303A0937403B09375034E
:101C100088E392E090936F0380936E0385EC90E0ED
:101C200090937B0380937A0384EC90E090937D0300
:101C300080937C0380EC90E090937F0380937E03FD
:101C400081EC90E0909381038093800382EC90E09C
:101C5000909383038093820386EC90E090938503B6
:101C60008093840310928703109288031092890353
:101C700010928A030895CF92DF92EF92FF920F9312
:101C80001F93CF93DF937C016A01EB0100E010E02A
:101C90000C151D0571F06991D701ED91FC91019032
:101CA000F081E02DC7011995892B19F00F5F1F4FA7
:101CB000EFCFC801DF91CF911F910F91FF90EF906F
:101CC000DF90CF9008956115710581F0DB010D90D3
:101CD0000020E9F7AD0141505109461B570BDC01CB
:101CE000ED91FC910280F381E02D199480E090E069
:101CF0000895DC01ED91FC91DB0114964D915C910E
:101D000015976D917C910280F381E02D199464E424
:101D100072E0D9CF0F931F93CF93DF93EC01E9DFEC
:101D20008C01CE01F4DF800F911FDF91CF911F91C5
:101D30000F9108950F931F93CF93DF93EC01C3DFAF
:101D40008C01CE01E4DF800F911FDF91CF911F91B5
:101D50000F9108950F931F93CF93DF93EC01DDDB79
:101D6000688779878A879B87E881F9810680F78170
:101D7000E02DCE01199597FF14C0CFDB088519859A
:101D80002A853B85601B710B820B930B0C811D8197
:101D90002E813F81601771078207930728F38FEF29
:101DA0009FEFDF91CF911F910F910895EF92FF92D6
:101DB0000F931F93CF93DF93EC018B01E42E66E426
:101DC00072E07FD0C801C6DFFF24E7FCF09497FDE6
:101DD00009C08E159F0531F0682FCE0106D1C801CC
:101DE000B9DFF5CFCE01DF91CF911F910F91FF9019
:101DF000EF900895FC018081918119C3CF93DF9307
:101E0000EC0188819981009709F011D31982188219
:101E10001D821C821B821A82DF91CF9108950F933D
:101E20001F93CF93DF93EC018B016F5F7F4F88810E
:101E300099818CD3009731F0998388831B830A831F
:101E400081E001C080E0DF91CF911F910F91089553
:101E5000CF93DF93EC0188819981892B29F08A81C6
:101E60009B818617970758F4CE01D9DF882341F06C
:101E70008C819D81892B19F4E881F981108281E0A0
:101E8000DF91CF910895EF92FF920F931F93CF931D
:101E9000DF93EC017B018A01BA01DADF811103C013
:101EA000CE01ACDF06C01D830C83B7018881998108
:101EB0006BD4CE01DF91CF911F910F91FF90EF90E6
:101EC0000895FC01118210821382128215821482FD
:101ED0006115710551F0FB0101900020E9F7AF0198
:101EE00041505109461B570BCECF08950F931F93B6
:101EF000CF93DF938C01EB01FC01808191810097EE
:101F000089F0428153812C813D814217530748F06B
:101F10006881798139D48C819D81F801958384838E
:101F200012C085D288819981F801918380838A814A
:101F30009B81938382838C819D8195838483198285
:101F400018821B821A821D821C82DF91CF911F9101
:101F50000F910895CF93DF93EC018617970709F04F
:101F6000C5DFCE01DF91CF910895CF93DF93EC01D0
:101F70006115710559F0FB0101900020E9F7AF01EF
:101F800041505109461B570B7EDF01C037DFCE01A0
:101F9000DF91CF910895EF92FF920F931F93CF930C
:101FA000DF93EC017B010C811D816115710511F43A
:101FB00080E014C04115510581F0040F151FB801D0
:101FC00047DF8823A9F3288139818C819D81B7015E
:101FD000820F931FD9D31D830C8381E0DF91CF91B2
:101FE0001F910F91FF90EF900895CF93DF931F9271
:101FF0001F92CDB7DEB769831A8241E050E0BE017F
:102000006F5F7F4FC8DF0F900F90DF91CF910895E2
:10201000EF92FF920F931F93CF93DF9300D01F9205
:10202000CDB7DEB77C01862F4AE08E010F5F1F4FD0
:10203000B80190E0CAD3F80101900020E9F7AF01A0
:1020400041505109401B510BB801C701A4DF0F904B
:102050000F900F900F90DF91CF911F910F91FF90F4
:10206000EF900895EF92FF920F931F93CF93DF931A
:10207000CDB7DEB764970FB6F894DEBF0FBECDBF05
:102080007C01CB01BA018E010F5F1F4F22E044E0BB
:1020900016D1FC0101900020E9F7AF014150510930
:1020A000481B590BBC01C70176DF64960FB6F89444
:1020B000DEBF0FBECDBFDF91CF911F910F91FF907B
:1020C000EF900895CF93DF93FC01848195814817A9
:1020D000590770F4C081D181772767FD7095CE01D3
:1020E000840F951F46D3009719F08C1B9D0B02C0DF
:1020F0008FEF9FEFDF91CF910895CF93DF93FC0196
:10210000848195814817590770F4C081D181FB0102
:1021100060817181CE01840F951F3DD3009719F026
:102120008C1B9D0B02C08FEF9FEFDF91CF91089525
:1021300040E050E0E2CFBF92CF92DF92EF92FF9269
:102140000F931F93CF93DF936C017B01EA01890109
:102150002417350720F48D2FE901042F182F66E48A
:1021600072E0C601AEDED70114968D919C91159751
:10217000C817D907C0F48017910708F48C01D7015C
:10218000ED91FC911197E00FF11FB08010826D91DD
:102190007C916C0F7D1FC601E8DED701ED91FC91AB
:1021A000E00FF11FB082C601DF91CF911F910F9117
:1021B000FF90EF90DF90CF90BF900895FC01808159
:1021C0009181009709F0A6C260E070E0CB0108950C
:1021D000089514DAFDDF0E941006CEE4DCE00E94D0
:1021E0007C062097E1F35ADBFACF0895E89409C002
:1021F00097FB3EF490958095709561957F4F8F4F3A
:102200009F4F9923A9F0F92F96E9BB279395F6954F
:10221000879577956795B795F111F8CFFAF4BB0FCD
:1022200011F460FF1BC06F5F7F4F8F4F9F4F16C031
:10223000882311F096E911C0772321F09EE8872FBB
:10224000762F05C0662371F096E8862F70E060E077
:102250002AF09A95660F771F881FDAF7880F9695F0
:10226000879597F90895A1E21A2EAA1BBB1BFD01C1
:102270000DC0AA1FBB1FEE1FFF1FA217B307E40765
:10228000F50720F0A21BB30BE40BF50B661F771FBD
:10229000881F991F1A9469F760957095809590959D
:1022A0009B01AC01BD01CF010895EE0FFF1F05900A
:1022B000F491E02D19940790F691E02D1994EF9286
:1022C0000F931F93CF93DF93E80147FF02C034E1E0
:1022D00001C034E0E42FFF27E7FDF095F7FF03C0CE
:1022E000F195E195F109E32E022F2E2FAE01A5D233
:1022F000CE01DF91CF911F910F91EF900895CF9371
:10230000DF938230910510F482E090E0E0910D04BB
:10231000F0910E0420E030E0A0E0B0E0309739F119
:102320004081518148175907B8F04817590771F48F
:1023300082819381109729F013969C938E93129724
:102340002CC090930E0480930D0427C021153105F5
:1023500031F04217530718F0A901DB0101C0EF016A
:102360009A01BD01DF010280F381E02DD7CF211555
:102370003105F9F0281B390B2430310580F48A81AE
:102380009B816115710521F0FB019383828304C059
:1023900090930E0480930D04FE01329644C0FE011A
:1023A000E20FF31F819391932250310939832883DF
:1023B0003AC020910B0430910C04232B41F420915E
:1023C00002023091030230930C0420930B042091FD
:1023D0000002309101022115310541F42DB73EB7BD
:1023E0004091040250910502241B350BE0910B042F
:1023F000F0910C04E217F307A0F42E1B3F0B2817F3
:10240000390778F0AC014E5F5F4F2417350748F06D
:102410004E0F5F1F50930C0440930B0481939193D4
:1024200002C0E0E0F0E0CF01DF91CF910895CF93BB
:10243000DF93009709F487C0FC0132971382128260
:10244000C0910D04D0910E04209781F42081318138
:10245000280F391F80910B0490910C048217930769
:1024600079F5F0930C04E0930B046DC0DE0120E0DD
:1024700030E0AE17BF0750F412964D915C91139760
:102480009D014115510509F1DA01F3CFB383A28310
:1024900040815181840F951F8A179B0771F48D919C
:1024A0009C911197840F951F0296918380831296B9
:1024B0008D919C911397938382832115310529F483
:1024C000F0930E04E0930D043EC0D9011396FC93E3
:1024D000EE9312974D915D91A40FB51FEA17FB077C
:1024E00079F480819181840F951F0296D90111960C
:1024F0009C938E938281938113969C938E931297D3
:10250000E0E0F0E08A819B81009719F0FE01EC0188
:10251000F9CFCE01029628813981820F931F209135
:102520000B0430910C042817390769F4309729F40B
:1025300010920E0410920D0402C013821282D093E6
:102540000C04C0930B04DF91CF9108956F927F929A
:102550008F929F92AF92BF92CF92DF92EF92FF92B3
:102560000F931F93CF93DF93EC01CB01209779F466
:10257000DF91CF911F910F91FF90EF90DF90CF905F
:10258000BF90AF909F908F907F906F90B8CEFE01DC
:10259000E60FF71F9E0122503109E217F30708F4F6
:1025A000A8C0D9010D911C91119706171707B0F01B
:1025B0000530110508F49BC0A80144505109461785
:1025C000570708F494C002501109061B170B01931A
:1025D00011936D937C93CF012ADF89C05B01A01A10
:1025E000B10A4E01800E911EA0910D04B0910E040F
:1025F000612C712C60E070E0109709F449C0A815B7
:10260000B905C9F5ED90FC901197670142E0C40E41
:10261000D11CCA14DB0478F147018A189B086401B5
:1026200042E0C40ED11C1296BC9012971396AC9146
:10263000B5E0CB16D10440F0B282A38391828082B0
:10264000D9018D939C9309C00E5F1F4F0E0D1F1D66
:10265000F90111830083EB2DFA2F6115710531F01B
:10266000DB011396FC93EE93129741C0F0930E0496
:10267000E0930D043CC06D917C911197661677062E
:1026800008F43B01BD0112960D90BC91A02DB4CF72
:1026900060910B0470910C0468157905E9F46816D3
:1026A0007906D0F440910002509101024115510584
:1026B00041F44DB75EB76091040270910502461B6C
:1026C000570BE417F507A8F4F0930C04E0930B0400
:1026D000F901918380830BC012DE7C01009749F0E1
:1026E000A801BE013DD0CE01A2DEC70104C0CE01CB
:1026F00002C080E090E0DF91CF911F910F91FF9099
:10270000EF90DF90CF90BF90AF909F908F907F9091
:102710006F9008951F93FC0199278827BC01E894C6
:1027200011911032E9F3193010F01E30C8F31B324A
:1027300049F01D3241F4689405C051D0610F711DFC
:10274000811D911D119110531A30B8F33EF49095EC
:102750008095709561957F4F8F4F9F4F1F91089582
:10276000FB01DC0102C001900D9241505040D8F7AE
:102770000895FC018191861721F08823D9F79927C4
:1027800008953197CF010895FB01DC0101900D926E
:102790000020E1F70895FB0151915523A9F0BF01F5
:1027A000DC014D9145174111E1F759F4CD0101903C
:1027B000002049F04D9140154111C9F3FB01411131
:1027C000EFCF81E090E001970895BB274A3031F4C4
:1027D000992322F4BDE2909581959F4F16C0592F01
:1027E000482F372F262F660F771F881F991F660FD8
:1027F000771F881F991F620F731F841F951F660F15
:10280000771F881F991F0895BB27FB015527AA270B
:10281000880F991FAA1FA41710F0A41B839550516D
:10282000B9F7A05DAA3308F0A95DA193009779F7E5
:10283000B111B1931192CB0155C26F927F929F92C9
:10284000AF92BF92CF92DF92EF92FF920F931F93BE
:10285000CF93DF93CDB7DEB729970FB6F894DEBFDD
:102860000FBECDBF6A01B22E102F0C3320F4FF240F
:10287000F394F00E02C04CE3F42E0F2D27E0AE01CE
:102880004F5F5F4F57D17981272F2970213031F069
:10289000E1FC06C0E0FC06C060E005C06DE203C0DC
:1028A0006BE201C060E2AE2DA07173FF36C06623FB
:1028B00011F084E001C083E08B1510F4B81A01C058
:1028C000B12CA1110BC0F6018B2D90E2882319F0D9
:1028D00091938150FBCFCB0CD11CB12C662331F0EE
:1028E000F601608396012F5F3F4F6901C601039691
:1028F000E2FE05C02EE4F601208331E404C02EE69A
:10290000F601208331E631832283FC012B2D30E256
:102910002223F1F131932150FBCF72FF40C0662397
:1029200011F084E001C083E08B1510F4B81A01C0E7
:10293000B12CA1110BC0F6018B2D90E2882319F068
:1029400091938150FBCFCB0CD11CB12C662331F07D
:10295000F601608396012F5F3F4F6901C601039620
:10296000E2FE07C029E4F60120832EE4218326E459
:1029700006C029E6F60120832EE6218326E622837F
:10298000FC012B2D30E2222319F031932150FBCF93
:10299000FC01EB0DF11D10828EEF9FEFB7C0B1E08F
:1029A000611101C0B0E04B2F50E01816190624F455
:1029B0009C012F5F3F4F02C021E030E0240F351F04
:1029C000112329F0412F50E04F5F5F4F02C040E0DC
:1029D00050E0420F531F2B2D30E04217530714F4E1
:1029E000B41A01C0B12C2E2D287159F4F6012B2DEB
:1029F00030E2222319F031932150FBCFCB0CD11CB4
:102A0000B12CBB2331F0F601608396012F5F3F4F5D
:102A10006901A1110BC0F6012B2D30E3222319F01F
:102A200031932150FBCFCB0CD11CB12CF80E0A8175
:102A3000372F3071A32E74FF03C0013309F4FA94C9
:102A40001F142CF42F2D293018F028E001C021E0AC
:102A5000682F392F97FF02C060E030E0462F532FD8
:102A6000612C712C3EE2932EBC01621B71099B010B
:102A7000DC01A41BB50BE1E0F0E0EC0FFD1FAE0F95
:102A8000BF1FE12EF12CF194E194F1084F3FFFEFCD
:102A90005F0731F4F6019082B6016F5F7F4F6B01E3
:102AA000841795074CF02417350734F4BD01660DE3
:102AB000771DFB01118101C010E341505109FFEF67
:102AC0006F1A7F0AB6016F5F7F4F4E155F0524F0C6
:102AD000F60110836B01DACF4817590739F4063332
:102AE00020F4053319F4A11001C011E3F60110839D
:102AF000FB018B2D90E2882319F091938150FBCF3D
:102B0000FB01EB0DF11D108280E090E029960FB6DD
:102B1000F894DEBF0FBECDBFDF91CF911F910F9113
:102B2000FF90EF90DF90CF90BF90AF909F907F90FD
:102B30006F900895283008F027E03327DA01990FC5
:102B4000311D87FD916000966105710539F4326091
:102B50002E5F3D9330E32A95E1F708959F3F30F0D3
:102B600080387105610509F03C5F3C5F3D93913011
:102B700008F08068911DDF93CF931F930F93FF920E
:102B8000EF92192F987F9695E92F96959695E90FD4
:102B9000FF27EA58FD4F99273327EE24FF24A7018A
:102BA000E70105900894079428F4360FE71EF81EF5
:102BB000491F511D660F771F881F991F0694A1F7A3
:102BC0000590079428F4E70EF81E491F561FC11DF3
:102BD000770F881F991F661F0694A1F70590079429
:102BE00028F4F80E491F561FC71FD11D880F991FC3
:102BF000661F771F0694A1F70590079420F4490FEC
:102C0000561FC71FD81F990F661F771F881F06946E
:102C1000A9F784911095177041F0D695C7955795EF
:102C20004795F794E7941A95C1F7ECE1F2E06894C0
:102C30001590159135916591959105907FE2739569
:102C4000E118F10A430B560BC90BD009C0F7E10C90
:102C5000F11E431F561FC91FD01D7EF4703311F49F
:102C60008A95E6CFE894015030F0080F0AF4002767
:102C7000021708F4202F2395022F7A3328F079E3E6
:102C80007D932A95E9F710C07D932A9589F60694DD
:102C900097956795379517951794E118F10A430BA7
:102CA000560BC90BD00998F023957E9173957A3312
:102CB00008F070E37C932013B8F77E9170617D93E8
:102CC00030F0839571E37D9370E32A95E1F7112449
:102CD000EF90FF900F911F91CF91DF91992787FD82
:102CE00090950895DC01FC01672F71917723E1F73E
:102CF000329704C07C916D9370836291AE17BF07C9
:102D0000C8F3089513E0CAE1D3E000E005C02297BC
:102D10000109FE010BBFCFDACC31D10780E00807F3
:062D2000B1F7F894FFCFAB
:102D260000000F0480007908790879087908790885
:102D3600790879087908415F454E455247592C0074
:102D460068657265005741545448525F4D696E7507
:102D560074655F0000000000CC0C3B0E210C3A0CA1
:102D66002C0CAB0C0D0A006E616E00696E66006F6E
:062D76007666002E00004D
:00000001FF
