:1000000010C10000AEC50000D7C5000000C600004A
:1000100029C6000052C600007BC60000A4C600002E
:10002000CDC600002FC100002DC100002BC1000073
:1000300029C1000027C1000025C1000023C1000024
:1000400021C100001FC100001DC100001BC1000034
:1000500019C1000017C1000015C10000DAC6000078
:1000600011C100000C94440A0C947A0A0BC10000E0
:1000700009C1000007C1000005C1000003C1000064
:1000800001C10000FFC00000FDC00000FBC0000077
:10009000F9C00000F7C00000F5C00000F3C0000088
:1000A000F1C00000EFC00000EDC00000EBC0000098
:1000B000E9C00000E7C00000E5C00000E3C00000A8
:1000C000E1C00000DFC00000DDC00000DBC00000B8
:1000D000D9C00000D7C00000D5C00000D3C00000C8
:1000E000D1C000008B0555055D05690576059705AE
:1000F000A4052C082F081E082208280866083308C3
:1001000037083D08410845084B084F085308660862
:1001100059085D08610800000A0B02090C0D0E0861
:1001200007030401000000000000000000000000C0
:1001300000000000000000000000000000000000BF
:10014000000012111000000000000000000000007C
:10015000000000000000000000000000010210206C
:1001600020080810204010204080020102010804ED
:100170000201010204081020408080402010080481
:1001800002018004020180402010080402010804DA
:10019000020101020408102040800102040810201E
:1001A0004080050505050705080808080202020247
:1001B0000A0A080804040404010101010101010103
:1001C0000303030303030303040707070C0C0C0CCE
:1001D0000C0C0C0C020202020606060606060606B7
:1001E0000B0B0B0B0B0B0B0B000022002500280048
:1001F0002B002E003100340002010000050108012F
:100200000B0100002100240027002A002D003000EF
:10021000330001010000040107010A01DD03AC0AFB
:10022000E90311241FBECFEFD1E2DEBFCDBF00E056
:100230000CBF13E0A0E0B2E0E6E1F0E200E00BBFAB
:1002400002C007900D92A03CB107D9F724E0A0ECC2
:10025000B3E001C01D92A039B207E1F712E0C0E29D
:10026000D2E000E006C022970109FE010BBF0E9408
:10027000D20DCC31D10780E00807A9F70E94810D8B
:100280000C94FA0FBDCE8091C4039091C503A09148
:10029000C603B091C7030196A11DB11D8093C4038D
:1002A0009093C503A093C603B093C70308958091AC
:1002B000C0039091C103A091C203B091C303019602
:1002C000A11DB11D8093C0039093C103A093C203ED
:1002D000B093C30308958EBD00000DB407FEFDCF9B
:1002E0008EB5089560E08CE12BC761E08CE128C7F2
:1002F000CF93DF931F921F92CDB7DEB76A838983B6
:10030000F1DF89818068E7DF6A81862FE4DF0F9063
:100310000F90DF91CF91E9CF1F93CF93DF931F927F
:100320001F92CDB7DEB7182F6A837983DBDF82E3B4
:1003300090E00DD6812F8068CEDF82E390E007D673
:100340007981872FC8DF82E390E001D66A81862F0A
:10035000C2DF82E390E0FBD50F900F90DF91CF9149
:100360001F91C3CF1F93CF93DF9300D0CDB7DEB7DC
:10037000182F4B835A836983B5DF82E390E0E7D57A
:10038000812F8068A8DF82E390E0E1D56981862F24
:10039000A2DF82E390E0DBD55A81852F9CDF82E3E8
:1003A00090E0D5D54B81842F96DF82E390E0CFD5C6
:1003B0000F900F900F90DF91CF911F9196CFCF9319
:1003C000DF93C82F8FDF82E390E0C1D58C2F83DFCE
:1003D00082E390E0BCD580E07EDFC82F82E390E02E
:1003E000B6D580E078DFD82F82E390E0B0D57DDF0E
:1003F0008D2F90E09C2BDF91CF9108950F931F9349
:10040000CF93182F6FDF82E390E0A1D5812F63DFB8
:1004100082E390E09CD580E05EDF182F82E390E0DD
:1004200096D580E058DF082F82E390E090D580E0F9
:1004300052DFC82F82E390E08AD557DF6C2F70E03F
:1004400080E090E0812B10E0102F002720E030E0CA
:10045000602B712B822B932BCF911F910F910895BD
:100460000F931F93F8948AE1C9DF8091D403813000
:1004700071F58AE0C3DF0091E1031091E20320915E
:10048000E3033091E403060F171F281F391F009361
:10049000E1031093E2032093E3033093E4038BE042
:1004A000ADDF0091DD031091DE032091DF03309179
:1004B000E003060F171F281F391F0093DD03109359
:1004C000DE032093DF033093E0038CE030C0823002
:1004D00009F04CC08DE092DF0091E1031091E2033E
:1004E0002091E3033091E403060F171F281F391FE3
:1004F0000093E1031093E2032093E3033093E403BA
:100500008EE07CDF0091DD031091DE032091DF039C
:100510003091E003060F171F281F391F0093DD03DA
:100520001093DE032093DF033093E0038FE066DF58
:100530000091D9031091DA032091DB033091DC03A1
:10054000060F171F281F391F0093D9031093DA03D2
:100550002093DB033093DC038091D7039091D80381
:1005600001969093D8038093D70309C0833039F460
:100570008091D5038F3F19F08F5F8093D5037894D6
:100580001F910F91089561E08DE2A1D561E08BE2AA
:100590009ED561E089E29BD561E08CE198D53DD2A2
:1005A0008CB583608CBD8DB58E7F8DBD8CB5837F02
:1005B00084608CBD8CB58F7D8CBD26E040E052EC14
:1005C00061E070E08FEE93E0FFD66AE070E080E0DB
:1005D00090E098D460E082E07AD560E083E077D55F
:1005E00060E085E174D561E08DE2AAD561E08BE23F
:1005F000A7D561E089E2A4D543E050E060E372E072
:1006000081E03ED243E050E063E471E080E038D224
:1006100043E050E067E571E082E032C26CE986E1D8
:1006200067DE84EF91E093D48AE1E8DE84EF91E025
:100630008ED440E052E060E070E088E193DE88EC28
:1006400090E085D46EE170E08CE166DE88EC90E0AD
:100650007ED460E070E086E35FDE64E670E080E018
:1006600090E050D460E070E087E356DE64E670E02E
:1006700080E090E047D460E070E088E34DDE64E61F
:1006800070E080E090E03ED488EC90E060C48AE1C5
:10069000B5DE84EF91E05BD440E052E060E070E0D2
:1006A00088E160DE88EC90E052D46EE170E08CE18D
:1006B00033DE88EC90E04BD460E070E083E32CDE26
:1006C00064E670E080E090E01DD460E070E084E3D8
:1006D00023DE64E670E080E090E014D460E070E037
:1006E00085E31ADE64E670E080E090E00BD488ECED
:1006F00090E02DC460E070E08AE20EDE88EC90E0CD
:1007000026D460E070E08BE207DE88EC90E01FD436
:1007100060E070E08CE200DE88EC90E018D460E0ED
:1007200070E08DE2F9DD88EC90E011D460E070E0DB
:100730008EE2F2DD88EC90E00AD460E070E08FE2B7
:10074000EBDD88EC90E003D460E070E080E3E4DD72
:1007500088EC90E0FCD360E070E081E3DDDD88ECC4
:1007600090E0F5D360E070E082E3D6DD88EC90E0C5
:10077000EED36CEF84E1BCDD88EC90E0E8D36FE869
:1007800087E1B6DD88EC90E0E2D368EC70E08CE1C4
:10079000C3DD88EC90E0DBD38AE130DE88EC90E0CA
:1007A000D6D340E050E160E070E088E1DBDD88EC2A
:1007B00090E0CDD388EC90E0CAC360EB73E08EECA0
:1007C00093E00E94BB0C60EB73E088EC93E00C9428
:1007D000BB0C88EC93E00E94540C8EEC93E00C94DC
:1007E000540CCF92DF92EF92FF92CF93DF9300D021
:1007F00000D0CDB7DEB78FEE93E0D7D4892B09F4C4
:100800004DC04AE06FEE73E0CE0101960E94300CBD
:10081000BE016F5F7F4F8EEC93E00E94040DCE010E
:1008200001960E94540CF89467E773E08EEC93E015
:100830000E94620D882349F0F1DE1092D60381E018
:100840008093D4036DE773E010C063E873E08EEC2F
:1008500093E00E94620D882369F019DF1092D6039D
:1008600082E08093D40369E873E088EC93E00E940F
:100870000F0D13C06FE873E08EEC93E00E94620DE1
:10088000882349F037DF1092D50383E08093D403A7
:1008900066E973E0EACF1092D40378948091D7038D
:1008A0009091D803C29709F079C0F8941092D803B8
:1008B0001092D7038091D603813009F04FC068ECC5
:1008C00073E08FEE93E0C9D66091E1037091E2038B
:1008D0008091E3039091E40332E3C32ED12CE12C09
:1008E000F12CA70196010E94B00DBA01A9012AE0DE
:1008F00030E08FEE93E030D76CE28FEE93E0BBD622
:100900006091DD037091DE038091DF039091E0033D
:10091000A70196010E94B00DBA01A9012AE030E0BA
:100920008FEE93E019D76CE28FEE93E0A4D660913E
:10093000D9037091DA038091DB039091DC03A70166
:1009400096010E94B00DBA01A9012AE030E08FEEB5
:1009500093E002D76CE28FEE93E097D61092E1031A
:100960001092E2031092E3031092E4031092DD036D
:100970001092DE031092DF031092E0031092D9036D
:100980001092DA031092DB031092DC038091D603FD
:100990008F3F19F08F5F8093D60378948091D503B1
:1009A000813071F5F89468EC73E08FEE93E055D6E2
:1009B00081E005DD4AE050E0BC018FEE93E01FD7F7
:1009C0006CE28FEE93E057D682E0F9DC4AE050E02B
:1009D000BC018FEE93E013D76CE28FEE93E04BD621
:1009E00083E0EDDC4AE050E0BC018FEE93E007D7F6
:1009F0006CE28FEE93E049D683E08093D503789440
:100A000026960FB6F894DEBF0FBECDBFDF91CF9113
:100A1000FF90EF90DF90CF900895CF93CFB7F894E9
:100A20008091E503811123C0E7EDF1E08491E1E9D4
:100A3000F1E09491E82FF0E0EE0FFF1FEE5FFD4F25
:100A4000A591B4918C91892319F461E085E378D361
:100A500061E085E33CD38CB580618CBD8CB580644E
:100A60008CBD61E084E333D361E083E330D38091D4
:100A7000E5038F5F8093E503CFBFCF91089508957D
:100A8000883008F06DC0E82FF0E0EE0FFF1FEA5F3E
:100A9000FD4F7183608390E0FC013197E730F105F1
:100AA00090F5EE58FF4F0C94CC0D809169008C7F2F
:100AB000842B80936900E89A089580916900440F1F
:100AC000551F440F551F837F842B80936900E99A3B
:100AD00008958091690074E0440F551F7A95E1F7FD
:100AE0008F7C842B80936900EA9A08958091690035
:100AF00066E0440F551F6A95E1F78F73842B80934E
:100B00006900EB9A089580916A008C7F842B809312
:100B10006A00EC9A089580916A00440F551F440FB3
:100B2000551F837F842B80936A00ED9A08958091EE
:100B30006A0024E0440F551F2A95E1F78F7C842B2F
:100B400080936A00EE9A089580916A0096E0440FBF
:100B5000551F9A95E1F78F73842B80936A00EF9A63
:100B600008951F920F920FB60F9211240BB60F9299
:100B70002F933F934F935F936F937F938F939F93A5
:100B8000AF93BF93EF93FF93E0910A02F0910B02B2
:100B90001995FF91EF91BF91AF919F918F917F91A7
:100BA0006F915F914F913F912F910F900BBE0F90DE
:100BB0000FBE0F901F9018951F920F920FB60F92B5
:100BC00011240BB60F922F933F934F935F936F9324
:100BD0007F938F939F93AF93BF93EF93FF93E09196
:100BE0000C02F0910D021995FF91EF91BF91AF9119
:100BF0009F918F917F916F915F914F913F912F9135
:100C00000F900BBE0F900FBE0F901F9018951F9264
:100C10000F920FB60F9211240BB60F922F933F93A2
:100C20004F935F936F937F938F939F93AF93BF93F4
:100C3000EF93FF93E0910E02F0910F021995FF914F
:100C4000EF91BF91AF919F918F917F916F915F9144
:100C50004F913F912F910F900BBE0F900FBE0F90B1
:100C60001F9018951F920F920FB60F9211240BB67A
:100C70000F922F933F934F935F936F937F938F9335
:100C80009F93AF93BF93EF93FF93E0911002F09186
:100C900011021995FF91EF91BF91AF919F918F91A3
:100CA0007F916F915F914F913F912F910F900BBE6C
:100CB0000F900FBE0F901F9018951F920F920FB6B6
:100CC0000F9211240BB60F922F933F934F935F9384
:100CD0006F937F938F939F93AF93BF93EF93FF9304
:100CE000E0910602F09107021995FF91EF91BF91F3
:100CF000AF919F918F917F916F915F914F913F91B4
:100D00002F910F900BBE0F900FBE0F901F90189554
:100D10001F920F920FB60F9211240BB60F922F93C2
:100D20003F934F935F936F937F938F939F93AF9373
:100D3000BF93EF93FF93E0910802F0910902199598
:100D4000FF91EF91BF91AF919F918F917F916F91A3
:100D50005F914F913F912F910F900BBE0F900FBE5F
:100D60000F901F9018951F920F920FB60F9211249B
:100D70000BB60F922F933F934F935F936F937F9395
:100D80008F939F93AF93BF93EF93FF93E0911202E2
:100D9000F09113021995FF91EF91BF91AF919F913F
:100DA0008F917F916F915F914F913F912F910F9014
:100DB0000BBE0F900FBE0F901F9018951F920F92B1
:100DC0000FB60F9211240BB60F922F933F934F93B0
:100DD0005F936F937F938F939F93AF93BF93EF93A3
:100DE000FF93E0911402F09115021995FF91EF9194
:100DF000BF91AF919F918F917F916F915F914F9133
:100E00003F912F910F900BBE0F900FBE0F901F9030
:100E100018951F920F920FB60F9211242F933F93A4
:100E20008F939F93AF93BF938091E7039091E803D3
:100E3000A091E903B091EA033091E60323E0230F88
:100E40002D3720F40196A11DB11D05C026E8230F02
:100E50000296A11DB11D2093E6038093E7039093B2
:100E6000E803A093E903B093EA038091EB03909128
:100E7000EC03A091ED03B091EE030196A11DB11D0D
:100E80008093EB039093EC03A093ED03B093EE03F8
:100E9000BF91AF919F918F913F912F910F900FBE76
:100EA0000F901F9018952FB7F8946091E7037091F9
:100EB000E8038091E9039091EA032FBF08953FB7BB
:100EC000F8948091EB039091EC03A091ED03B09125
:100ED000EE0326B5A89B05C02F3F19F00196A11D72
:100EE000B11D3FBF6627782F892F9A2F620F711D82
:100EF000811D911D42E0660F771F881F991F4A953B
:100F0000D1F70895CF92DF92EF92FF92CF93DF93C4
:100F10006B017C01D4DFEB01C114D104E104F104C5
:100F200079F0FBD5CCDF6C1B7D0B683E7340A0F3E2
:100F300081E0C81AD108E108F108C851DC4FECCFB4
:100F4000DF91CF91FF90EF90DF90CF9008958230A6
:100F5000910538F0880F991F880F991F0597019701
:100F6000F1F70895789484B5826084BD84B581607A
:100F700084BD85B5826085BD85B5816085BDEEE6A1
:100F8000F0E0808181608083E1E8F0E01082808180
:100F900082608083808181608083E0E8F0E08081EE
:100FA00081608083E1EBF0E0808184608083E0EB0E
:100FB000F0E0808181608083E1E9F0E080818260FF
:100FC0008083808181608083E0E9F0E080818160BE
:100FD0008083E1EAF0E080818260808380818160AB
:100FE0008083E0EAF0E0808181608083E1E2F1E0EB
:100FF000808182608083808181608083E0E2F1E093
:10100000808181608083EAE7F0E080818460808372
:10101000808182608083808181608083808180681C
:1010200080831092C100089590E0FC013197E23175
:10103000F10508F04BC0E758FF4FAEC58091800026
:101040008F7703C0809180008F7D8093800008950A
:1010500080918000877FF9CF84B58F7702C084B5F7
:101060008F7D84BD08958091B0008F7703C08091FB
:10107000B0008F7D8093B0000895809190008F77AD
:1010800007C0809190008F7D03C080919000877F82
:101090008093900008958091A0008F7707C0809181
:1010A000A0008F7D03C08091A000877F8093A00067
:1010B0000895809120018F7707C0809120018F7D56
:1010C00003C080912001877F809320010895CF93F2
:1010D000DF9390E0FC01E45AFE4F2491FC01EE55B1
:1010E000FE4F8491882349F190E0880F991FFC01FD
:1010F000EE5FFD4FA591B49188519E4FFC01C591C3
:10110000D4919FB7611108C0F8948C9120958223E7
:101110008C93888182230AC0623051F4F8948C91B8
:10112000322F309583238C938881822B888304C04F
:10113000F8948C91822B8C939FBFDF91CF9108956F
:101140000F931F93CF93DF931F92CDB7DEB7282F56
:1011500030E0F901EA5EFE4F8491F901E45AFE4F56
:101160001491F901EE55FE4F04910023C1F088233C
:1011700019F0698359DF6981E02FF0E0EE0FFF1F5E
:10118000E851FE4FA591B4919FB7F8948C916111ED
:1011900003C01095812301C0812B8C939FBF0F90BA
:1011A000DF91CF911F910F910895FC01818D228DC8
:1011B00090E0805C9F4F821B91098F73992708955F
:1011C000FC01918D828D981731F0828DE80FF11D11
:1011D000858D90E008958FEF9FEF0895FC01918D2C
:1011E000828D981761F0828DDF01A80FB11D5D9689
:1011F0008C91928D9F5F9F73928F90E008958FEFF7
:101200009FEF089583EA9AE0892B39F080E090E01F
:10121000892B19F098D1811125C080E090E0892BAD
:1012200041F080E090E0892B21F00E9400008111C4
:101230001CC080E090E0892B41F080E090E0892B99
:1012400021F00E940000811113C080E090E0892B02
:10125000A1F080E090E0892B81F00E9400008111D4
:101260000AC008950E940000D8CF0E940000E1CF7C
:101270000E940000EACF0C9400000895FC01848DC8
:10128000DF01A80FB11DA35ABF4F2C91848D90E0B0
:1012900001968F739927848FA689B7892C93A0898B
:1012A000B1898C9180648C93938D848D981306C042
:1012B0000288F389E02D80818F7D80830895CF930C
:1012C000DF93EC01888D8823C1F0EA89FB89808156
:1012D00085FD05C0A889B9898C9186FD0EC00FB621
:1012E00007FCF5CF808185FFF2CFA889B9898C9161
:1012F00085FFEDCFCE01C2DFE8CFDF91CF9108951A
:10130000CF92DF92FF920F931F93CF93DF931F92A1
:10131000CDB7DEB76C0181E0D60158968C93589713
:101320005B969C915B975C968C915C97981307C039
:101330005096ED91FC915197808185FD2DC0F6016D
:10134000038D10E00F5F1F4F0F731127F02EF60172
:10135000848DF81210C00FB607FCF9CFD601509655
:10136000ED91FC915197808185FFF1CFC601698392
:1013700085DF6981ECCF838DE80FF11DE35AFF4FC4
:101380006083D6015B960C935B975296ED91FC912E
:101390005397808180620CC0D6015696ED91FC91E6
:1013A000579760835096ED91FC91519780818064AE
:1013B000808381E090E00F90DF91CF911F910F919A
:1013C000FF90DF90CF900895BF92CF92DF92EF927F
:1013D000FF92CF93DF93EC016A017B01B22EE88983
:1013E000F98982E08083411581EE58076105710516
:1013F00099F060E079E08DE390E0A70196018ED34B
:10140000215031094109510956954795379527953E
:10141000211580E1380790F0E889F989108260E8A9
:1014200074E88EE190E0A701960178D3215031094C
:10143000410951095695479537952795EC85FD85C6
:101440003083EE85FF852083188EEC89FD89B0827C
:10145000EA89FB89808180618083EA89FB898081B8
:1014600088608083EA89FB89808180688083EA893B
:10147000FB8980818F7D8083DF91CF91FF90EF90FA
:10148000DF90CF90BF9008951F920F920FB60F92EA
:1014900011240BB60F922F938F939F93EF93FF938B
:1014A000E091FF03F09100048081E0910504F09148
:1014B000060482FD12C09081809108048F5F8F73B3
:1014C00020910904821751F0E0910804F0E0E15105
:1014D000FC4F958F8093080401C08081FF91EF91AC
:1014E0009F918F912F910F900BBE0F900FBE0F9079
:1014F0001F9018951F920F920FB60F9211240BB6E2
:101500000F922F933F934F935F936F937F938F939C
:101510009F93AF93BF93EF93FF938FEE93E0AEDE75
:10152000FF91EF91BF91AF919F918F917F916F91BB
:101530005F914F913F912F910F900BBE0F900FBE77
:101540000F901F9018958FEE93E02FDE21E0892BEE
:1015500009F420E0822F08951092F2031092F10313
:1015600088EE93E0A0E0B0E08093F3039093F4035F
:10157000A093F503B093F60382EA93E09093F0030F
:101580008093EF0385EC90E09093FC038093FB0342
:1015900084EC90E09093FE038093FD0380EC90E058
:1015A000909300048093FF0381EC90E090930204F9
:1015B0008093010482EC90E09093040480930304F0
:1015C00086EC90E090930604809305041092080442
:1015D0001092090410920A0410920B040895CF92FD
:1015E000DF92EF92FF920F931F93CF93DF937C01D3
:1015F0006A01EB0100E010E00C151D0571F0699126
:10160000D701ED91FC910190F081E02DC701199572
:10161000892B19F00F5F1F4FEFCFC801DF91CF91DA
:101620001F910F91FF90EF90DF90CF90089561157B
:10163000710581F0DB010D900020E9F7AD0141500B
:101640005109461B570BDC01ED91FC910280F3819F
:10165000E02D199480E090E00895DC01ED91FC917B
:10166000DB0114964D915C9115976D917C910280F0
:10167000F381E02D1994DC01ED91FC910190F08152
:10168000E02D19946EEA73E0D2CF0F931F93CF939E
:10169000DF93EC01F0DF8C01CE01F4DF800F911FAE
:1016A000DF91CF911F910F9108958F929F92AF92EA
:1016B000BF92CF92DF92EF92FF920F931F93CF933F
:1016C000DF93CDB7DEB7A1970FB6F894DEBF0FBE9C
:1016D000CDBF7C01C42EE52FCB01D22E19A221E073
:1016E0002D1510F02AE0D22E8E010F5D1F4F8D2C8C
:1016F000912CA12CB12C6C2D7E2FA50194010ED222
:101700008C2DD29E80191124015011098A3014F4B5
:10171000805D01C0895CF801808321153105410598
:10172000510521F0C22EE32FCA01E5CFB801C70150
:101730007EDFA1960FB6F894DEBF0FBECDBFDF915E
:10174000CF911F910F91FF90EF90DF90CF90BF90BE
:10175000AF909F908F900895CF92DF92EF92FF927B
:101760000F931F93CF93DF93EC016A017B01211547
:10177000310579F4E881F9810190F081E02D642F41
:10178000DF91CF911F910F91FF90EF90DF90CF905D
:1017900019942A303105D9F477FF18C06DE26BDF58
:1017A0008C0144275527BA014C195D096E097F0940
:1017B0002AE0CE017ADF800F911FDF91CF911F9138
:1017C0000F91FF90EF90DF90CF9008952AE0B7013E
:1017D000A601CE01DF91CF911F910F91FF90EF9065
:1017E000DF90CF9062CF2115310541F4DC01ED91FE
:1017F000FC910190F081E02D642F199456CF9A014D
:10180000AB0160E070E0EFCF0F931F93CF93DF93B6
:10181000EC0149DB688779878A879B87E881F981B2
:101820000680F781E02DCE01199597FF14C03BDBB0
:10183000088519852A853B85601B710B820B930BEC
:101840000C811D812E813F816017710782079307EC
:1018500028F38FEF9FEFDF91CF911F910F910895A4
:10186000EF92FF920F931F93CF93DF93EC018B01C5
:10187000E42E60EB73E07FD0C801C6DFFF24E7FCF5
:10188000F09497FD09C08E159F0531F0682FCE01A9
:1018900006D1C801B9DFF5CFCE01DF91CF911F91FD
:1018A0000F91FF90EF900895FC018081918116C205
:1018B000CF93DF93EC0188819981009709F00ED2D4
:1018C000198218821D821C821B821A82DF91CF919D
:1018D00008950F931F93CF93DF93EC018B016F5FFC
:1018E0007F4F8881998189D2009731F099838883CD
:1018F0001B830A8381E001C080E0DF91CF911F91BB
:101900000F910895CF93DF93EC0188819981892B02
:1019100029F08A819B818617970758F4CE01D9DF79
:10192000882341F08C819D81892B19F4E881F9810C
:10193000108281E0DF91CF910895EF92FF920F9393
:101940001F93CF93DF93EC017B018A01BA01DADFA9
:10195000811103C0CE01ACDF06C01D830C83B7012B
:101960008881998140D3CE01DF91CF911F910F9152
:10197000FF90EF900895FC01118210821382128271
:10198000158214826115710551F0FB010190002050
:10199000E9F7AF0141505109461B570BCECF0895CF
:1019A0000F931F93CF93DF938C01EB01FC01808198
:1019B0009181009789F0428153812C813D814217AA
:1019C000530748F0688179810ED38C819D81F8019D
:1019D0009583848312C082D188819981F801918393
:1019E00080838A819B81938382838C819D8195836F
:1019F0008483198218821B821A821D821C82DF91C5
:101A0000CF911F910F910895CF93DF93EC0186172B
:101A1000970709F0C5DFCE01DF91CF910895CF93ED
:101A2000DF93EC016115710559F0FB010190002075
:101A3000E9F7AF0141505109461B570B7EDF01C04A
:101A400037DFCE01DF91CF910895EF92FF920F9390
:101A50001F93CF93DF93EC017B010C811D816115F6
:101A6000710511F480E014C04115510581F0040F97
:101A7000151FB80147DF8823A9F3288139818C819C
:101A80009D81B701820F931FAED21D830C8381E02D
:101A9000DF91CF911F910F91FF90EF900895CF9319
:101AA000DF931F921F92CDB7DEB769831A8241E0A0
:101AB00050E0BE016F5F7F4FC8DF0F900F90DF9146
:101AC000CF910895FC0124813581232B31F421E04D
:101AD0006115710599F0FB0108C0FC0180819181BD
:101AE0006115710531F421E0FC018081882331F01A
:101AF00004C070D221E0892B09F020E0822F0895E4
:101B0000089530DAFDDF0E94C302C2E0D9E00E94EE
:101B1000F1032097E1F376DBFACF0895A1E21A2EC4
:101B2000AA1BBB1BFD010DC0AA1FBB1FEE1FFF1F81
:101B3000A217B307E407F50720F0A21BB30BE40BD1
:101B4000F50B661F771F881F991F1A9469F7609518
:101B50007095809590959B01AC01BD01CF010895D2
:101B6000052E97FB16F400940FD057FD05D0D6DF55
:101B700007FC02D046F408C0509540953095219559
:101B80003F4F4F4F5F4F08959095809570956195A9
:101B90007F4F8F4F9F4F0895EE0FFF1F0590F491D9
:101BA000E02D19940790F691E02D1994CF93DF93CF
:101BB0008230910510F482E090E0E0918E04F09183
:101BC0008F0420E030E0A0E0B0E0309739F14081B0
:101BD000518148175907B8F04817590771F48281A5
:101BE0009381109729F013969C938E9312972CC093
:101BF00090938F0480938E0427C02115310531F016
:101C00004217530718F0A901DB0101C0EF019A0147
:101C1000BD01DF010280F381E02DD7CF2115310511
:101C2000F9F0281B390B2430310580F48A819B811F
:101C30006115710521F0FB019383828304C09093A9
:101C40008F0480938E04FE01329644C0FE01E20FA1
:101C5000F31F8193919322503109398328833AC02D
:101C600020918C0430918D04232B41F420910202A9
:101C70003091030230938D0420938C042091000254
:101C8000309101022115310541F42DB73EB7409145
:101C9000040250910502241B350BE0918C04F09155
:101CA0008D04E217F307A0F42E1B3F0B281739070A
:101CB00078F0AC014E5F5F4F2417350748F04E0FA8
:101CC0005F1F50938D0440938C048193919302C0C5
:101CD000E0E0F0E0CF01DF91CF910895CF93DF9363
:101CE000009709F487C0FC01329713821282C091D9
:101CF0008E04D0918F04209781F420813181280FA8
:101D0000391F80918C0490918D048217930779F587
:101D1000F0938D04E0938C046DC0DE0120E030E090
:101D2000AE17BF0750F412964D915C9113979D0129
:101D30004115510509F1DA01F3CFB383A283408144
:101D40005181840F951F8A179B0771F48D919C9187
:101D50001197840F951F02969183808312968D911F
:101D60009C911397938382832115310529F4F09375
:101D70008F04E0938E043EC0D9011396FC93EE933A
:101D800012974D915D91A40FB51FEA17FB0779F4E7
:101D900080819181840F951F0296D90111969C93A1
:101DA0008E938281938113969C938E931297E0E099
:101DB000F0E08A819B81009719F0FE01EC01F9CFD8
:101DC000CE01029628813981820F931F20918C04C5
:101DD00030918D042817390769F4309729F410924F
:101DE0008F0410928E0402C013821282D0938D044D
:101DF000C0938C04DF91CF9108956F927F928F9260
:101E00009F92AF92BF92CF92DF92EF92FF920F9389
:101E10001F93CF93DF93EC01CB01209779F4DF91EF
:101E2000CF911F910F91FF90EF90DF90CF90BF90D7
:101E3000AF909F908F907F906F90B8CEFE01E60F8D
:101E4000F71F9E0122503109E217F30708F4A8C0DA
:101E5000D9010D911C91119706171707B0F00530A5
:101E6000110508F49BC0A8014450510946175707B3
:101E700008F494C002501109061B170B019311932B
:101E80006D937C93CF012ADF89C05B01A01AB10A50
:101E90004E01800E911EA0918E04B0918F04612C92
:101EA000712C60E070E0109709F449C0A815B905DD
:101EB000C9F5ED90FC901197670142E0C40ED11C6A
:101EC000CA14DB0478F147018A189B08640142E0D8
:101ED000C40ED11C1296BC9012971396AC91B5E02B
:101EE000CB16D10440F0B282A38391828082D901C3
:101EF0008D939C9309C00E5F1F4F0E0D1F1DF9019E
:101F000011830083EB2DFA2F6115710531F0DB0190
:101F10001396FC93EE93129741C0F0938F04E093D5
:101F20008E043CC06D917C9111976616770608F47B
:101F30003B01BD0112960D90BC91A02DB4CF6091D4
:101F40008C0470918D0468157905E9F4681679069A
:101F5000D0F440910002509101024115510541F425
:101F60004DB75EB76091040270910502461B570B96
:101F7000E417F507A8F4F0938D04E0938C04F901BD
:101F8000918380830BC012DE7C01009749F0A80189
:101F9000BE0117D0CE01A2DEC70104C0CE0102C02F
:101FA00080E090E0DF91CF911F910F91FF90EF9033
:101FB000DF90CF90BF90AF909F908F907F906F9069
:101FC0000895FB01DC0102C001900D924150504088
:101FD000D8F70895FB01DC018D9101908019011063
:101FE000D9F3990B0895FB01DC0101900D920020BB
:101FF000E1F7089512E0C0E2D2E000E005C02297C8
:102000000109FE010BBFCEDDC232D10780E0080717
:06201000B1F7F894FFCFC8
:102016000000900480003F053F053F053F053F0552
:102026003F053F053F055374617274207265616414
:10203600696E6720616C6C207265677320232323A9
:102046002323232323232323232323232320003073
:102056007831373D00307831383D00307831393DC0
:1020660000307831413D00307831423D00307831E2
:10207600433D00307831443D00307831453D0030F5
:102086007831463D00307832303D00307832313D8F
:1020960000307832323D00307832333D00307832CD
:1020A600343D00307832353D00307832363D0030F0
:1020B6007832373D00307832383D00307832393D5D
:1020C60000307832413D00307832423D003078327F
:1020D600433D00307832443D00307832453D003093
:1020E6007832463D00307833303D00307833313D2C
:1020F60000307833323D00307833333D003078336A
:10210600343D00307833353D00307833363D00308D
:102116007833373D00307833383D00307833393DF9
:1021260000307833413D00307833423D003078331B
:10213600433D00307833443D00307833453D003030
:102146007833463D00307834303D00307834313DC8
:1021560000307834323D00307834333D0030783406
:10216600343D00307834353D00307834363D00302B
:102176007834373D00307834383D00307837453D87
:1021860000307837463D00435F43414C0049524D8D
:10219600532C00565F43414C0056524D532C005071
:1021A600685F43414C005741545448522C0000008C
:1021B60000008009EF0AD508EE08E0085F090D0A5D
:1021C600006E616E00696E66006F7666002E000016
:00000001FF
