:100000007EC200000C9407280C9432280C945D28C2
:100010000C9488280C94B3280C94DE280C9409299D
:100020000C9434299DC200009BC2000099C20000BC
:1000300097C2000095C2000093C2000091C2000068
:100040008FC200008DC200008BC2000089C2000078
:100050000C94382785C2000083C200000C945F29ED
:100060007FC200000C94772C0C94AD2C79C2000058
:1000700077C2000075C2000073C2000071C20000A8
:100080006FC200006DC200006BC2000069C20000B8
:1000900067C2000065C2000063C2000061C20000C8
:1000A0005FC200005DC200005BC2000059C20000D8
:1000B00057C2000055C2000053C2000051C20000E8
:1000C0004FC200004DC200004BC2000049C20000F8
:1000D00047C2000045C200000C94222D0C94582DFC
:1000E0003FC20000E127AB27B327BF27CC27ED276E
:1000F000FA275E2A612A502A542A5A2A982A652AFF
:10010000692A6F2A732A772A7D2A812A852A982AC2
:100110008B2A8F2A932A000000000000005F000055
:100120000007000700147F147F14242A7F2A12235B
:100130001308646236495522500005030000001C74
:100140002241000041221C0014083E081408083E09
:100150000808005030000008080808080060600027
:100160000020100804023E5149453E00427F4000F5
:1001700042615149462141454B311814127F1027E5
:10018000454545393C4A494930017109050336491D
:10019000494936064949291E0036360000005636C0
:1001A00000000814224100141414141400412214F5
:1001B000080201510906324979413E7E1111117E32
:1001C0007F494949363E414141227F4141221C7FBE
:1001D000494949417F090909013E4149497A7F0856
:1001E00008087F00417F41002040413F017F081403
:1001F00022417F404040407F020C027F7F04081074
:100200007F3E4141413E7F090909063E4151215E41
:100210007F09192946464949493101017F01013FBA
:100220004040403F1F2040201F3F4038403F631464
:1002300008146307087008076151494543007F416E
:10024000410002040810200041417F000402010225
:1002500004404040404000010204002054545478BF
:100260007F484444383844444420384444487F3824
:1002700054545418087E0901020C5252523E7F0811
:1002800004047800447D40002040443D007F102855
:10029000440000417F40007C041804787C0804047A
:1002A0007838444444387C14141408081414187C16
:1002B0007C080404084854545420043F4440203C23
:1002C0004040207C1C2040201C3C4030403C4428C6
:1002D0001028440C5050503C4464544C44000836A0
:1002E00041007F4141417F7F7F7F7F7F1008081061
:1002F00008784641467800000A0B02090C0D0E08EA
:1003000007030401000000000000000000000000DE
:1003100000000000000000000000000000000000DD
:10032000000012111000000000000000000000009A
:10033000000000000000000000000000010210208A
:10034000200808102040102040800201020108040B
:10035000020101020408102040808040201008049F
:1003600002018004020180402010080402010804F8
:10037000020101020408102040800102040810203C
:100380004080050505050705080808080202020265
:100390000A0A080804040404010101010101010121
:1003A0000303030303030303040707070C0C0C0CEC
:1003B0000C0C0C0C020202020606060606060606D5
:1003C0000B0B0B0B0B0B0B0B000022002500280066
:1003D0002B002E003100340002010000050108014D
:1003E0000B0100002100240027002A002D0030000E
:1003F000330001010000040107010A0100407A10E6
:10040000F35A00A0724E18090010A5D4E80000E8C5
:100410007648170000E40B54020000CA9A3B000023
:1004200000E1F505000080969800000040420F00B2
:100430000000A08601000000102700000000E80373
:10044000000000006400000000000A00000000003E
:100450000100000000002C76D888DC674F0823DFFD
:10046000C1DFAE59E1B1B796E5E3E453C63AE651D0
:10047000997696E8E6C28426EB898C9B62ED407CF7
:100480006FFCEFBC9C9F40F2BAA56FA5F490055A93
:100490002AF75C936B6CF9676DC11BFCE0E40D47B8
:1004A000FEF520E6B500D0ED902E030094357705DB
:1004B0000080841E080000204E0A000000C80C3393
:1004C0003333330F986E12831141EF8D2114893B22
:1004D000E65516CFFEE6DB18D1844B381BF77C1DA2
:1004E000901DA4BBE424203284725E228100C9F1F5
:1004F00024ECA1E53D278A22DF2C8A2DA822112495
:100500001FBECFEFD1E2DEBFCDBF00E00CBF13E0D6
:10051000A0E0B2E0E6E9F6E700E00BBF02C007901A
:100520000D92AE3EB107D9F729E0AEEEB3E001C0BF
:100530001D92A032B207E1F714E0CCEFD4E000E066
:1005400006C022970109FE010BBF0E94BF35C63FBE
:10055000D10780E00807A9F70E942F330C943A3B9B
:100560004FCD0F931F938091590790915A07A091F7
:100570005B07B0915C074091550750915607609119
:100580005707709158078C019D01041B150B260B12
:10059000370B0B3F110521053105D0F0309147078E
:1005A00020914807321314C0809355079093560743
:1005B000A0935707B093580760E08DE20E94D22ABB
:1005C000809147078F5F8093470781E08093060201
:1005D00080914707853010F0109247071F910F91C7
:1005E000089580E397E00E94253086E397E00E941B
:1005F00025308DE597E00E94253087EC97E00E943A
:1006000025308DEC97E00C9425300C94BF380C9479
:10061000C738209144072F5F2093440780913C07FF
:1006200090913D07A0913E07B0913F070596A11D0F
:10063000B11D80933C0790933D07A0933E07B09374
:100640003F072C3098F0809145078F5F80934507D6
:10065000809163079091640701969093640780935B
:10066000630781E0809346071092440708958EBD8A
:1006700000000DB407FEFDCF8EB508959CB5937FA5
:10068000982B9CBD08952CB5982F93702C7F922B9E
:100690009CBD9DB582FB882780F99E7F982B9DBDD0
:1006A0000895E1E8F0E080E180831092800085E029
:1006B0008093D50786E39AE99093D7078093D6076E
:1006C000909387008093860085E1808389E093E0A2
:1006D0009093D4078093D30781E080936F000895AF
:1006E00061E081E30E94992A61E08CE10E94992AED
:1006F00061E08BE10E94992A61E088E10E94992AD9
:1007000061E08DE20E94992A61E08AE10E94992AC3
:1007100060E08EE30E94992A60E088E20E94992AB4
:1007200060E086E30E94992A61E086E20E94992AAD
:1007300061E087E30E94992A60E08BE20E94992A97
:1007400061E084E30E94992A60E082E30E94992A92
:1007500061E083E30E94992A61E081E30E94D22A4A
:1007600061E08CE10E94D22A61E08BE10E94D22AF2
:1007700061E088E10E94D22A60E08DE20E94D22AE4
:1007800060E08AE10C94D22AEF92FF920F931F93BC
:10079000CF93DF93182F042FF52ED62FE72ECAE024
:1007A0008FEF65DFC150E1F760E08BE10E94D22A54
:1007B000812F80645CDF8E2D5ADF8D2F58DF8F2DC7
:1007C00056DF802F54DF85E952DF8FEF50DFD82FBF
:1007D0008F3F11F4C150C9F761E08BE10E94D22A2A
:1007E0008D2FDF91CF911F910F91FF90EF90089582
:1007F000CF93DF930E94632780E040DF8CB58F7D2D
:100800008CBD82E040DFCFEFD0E040E050E0BA01A5
:1008100080E0BADF2197E9F08130B9F7CFEFD0E07F
:1008200040E050E0BA0181E0AFDF2197A1F08111F3
:10083000F7CFCBE0D0E040E052E060E070E080E154
:10084000A3DF219721F08111F6CF80E005C088E079
:1008500003C081E001C082E0DF91CF910895CF9283
:10086000DF92EF92FF920F931F93CF93DF936B0171
:100870007C018A01BDDFC82F80E005DFC11138C0CF
:1008800089E0CC0CDD1CEE1CFF1C8A95D1F7CBE077
:10089000D0E0B701A60181E177DF219759F18111FD
:1008A000F8CF60E08BE10E94D22ACAE5D2E08FEF58
:1008B000DEDE8E3F21F02197D1F784E01CC0E801F5
:1008C000E12CF12C8FEFD3DE89938FEFE81AF80A31
:1008D000E11482E0F806B1F78FEFC9DE8FEFC7DED3
:1008E0008FEFC5DE61E08BE10E94D22A80E003C079
:1008F0008C2F01C083E0DF91CF911F910F91FF906A
:10090000EF90DF90CF900895CF92DF92EF92FF9219
:100910000F931F93CF93DF936B017C018A0168DFF4
:10092000C82F80E0B0DEC11150C099E0CC0CDD1CB6
:10093000EE1CFF1C9A95D1F7C0E0D0E0B701A601EC
:1009400088E122DF2196CB30D10509F43CC081112A
:10095000F5CF60E08BE10E94D22A8EEF88DE78012D
:10096000C12CD12CF70181917F0181DEFFEFCF1ADD
:10097000DF0AC11422E0D206A9F78FEF78DE8FEFED
:1009800076DE8FEF74DE8F71853061F061E08BE190
:100990000E94D22A86E01AC0CE010196C136DA4EF4
:1009A00030F4EC018FEF63DE8823B1F306C061E021
:1009B0008BE10E94D22A87E009C061E08BE10E94AE
:1009C000D22A80E003C085E001C08C2FDF91CF9157
:1009D0001F910F91FF90EF90DF90CF90089584E0EA
:1009E0004DDE60E08CE10E94D22A80E04CDE82E3A2
:1009F00090E00C94D82961E08CE10E94D22A82E335
:100A000090E00E94D82980E039CECF93DF931F92E7
:100A10001F92CDB7DEB76A838983E1DF8981806861
:100A200026DE6A81862F23DE0F900F90DF91CF9113
:100A3000E2CF1F93CF93DF931F921F92CDB7DEB704
:100A4000182F6A837983CBDF82E390E00E94D82954
:100A5000812F80680CDE82E390E00E94D8297981A2
:100A6000872F05DE82E390E00E94D8296A81862FD5
:100A7000FEDD82E390E00E94D8290F900F90DF9175
:100A8000CF911F91B8CF1F93CF93DF9300D0CDB7F5
:100A9000DEB7182F4B835A836983A1DF82E390E08E
:100AA0000E94D829812F8068E2DD82E390E00E94D5
:100AB000D8296981862FDBDD82E390E00E94D82966
:100AC0005A81852FD4DD82E390E00E94D8294B81A2
:100AD000842FCDDD82E390E00E94D8290F900F9003
:100AE0000F90DF91CF911F9186CFCF93DF931F920D
:100AF000CDB7DEB7898373DF8981B9DD8FEFB7DDCD
:100B0000898379DF89810F90DF91CF910895CF9309
:100B1000DF93C82F64DF82E390E00E94D8298C2FF6
:100B2000A6DD82E390E00E94D82980E0A0DDC82FF6
:100B300082E390E00E94D82980E099DDD82F82E3FB
:100B400090E00E94D82957DF8D2F90E09C2BDF91F9
:100B5000CF9108950F931F93CF93182F40DF82E317
:100B600090E00E94D829812F82DD82E390E00E94EC
:100B7000D82980E07CDD182F82E390E00E94D829FC
:100B800080E075DD082F82E390E00E94D82980E0A4
:100B90006EDDC82F82E390E00E94D8292CDF6C2FF5
:100BA00070E080E090E0812B10E0102F002720E023
:100BB00030E0602B712B822B932BCF911F910F91E3
:100BC0000895DF92EF92FF920F931F93CF93DF93DD
:100BD000CDB7DEB76F970FB6F894DEBF0FBECDBFAF
:100BE000CE0101967C0102E81FE0C8010EDDD82E7F
:100BF000C80101960ADDF701D0828183F2E0EF0E91
:100C0000F11C0E5F1F4F003A8FE0180771F7CE01FD
:100C10004F96FE01319640E0219131911216130654
:100C20000CF441E0E817F907B9F7442309F4BDC013
:100C30008E010F5F1F4F93E3F801619171918F0156
:100C4000892F9F8FF6DE9F8D9F5F9234A9F764E016
:100C500083E1DBDE88EC90E00E94D8296CEF84E130
:100C6000D4DE88EC90E00E94D82960E085E1CDDEFA
:100C700088EC90E00E94D8296CE986E1C6DE88EC19
:100C800090E00E94D82968E787E1BFDE88EC90E019
:100C90000E94D82940E050E0BA0188E1F4DE88ECF7
:100CA00090E00E94D8296FEF7FEF8BE1C2DE88ECE5
:100CB00090E00E94D8296FEF7FEF8CE1BADE88ECDC
:100CC00090E00E94D8296FEF8DE19FDE88EC90E0E4
:100CD0000E94D82960E08EE198DE88EC90E00E94C6
:100CE000D8296FEF8FE191DE88EC90E00E94D8293F
:100CF0006FEF80E28ADE88EC90E00E94D82960E005
:100D000078E08AE296DE88EC90E00E94D82960E0E4
:100D100078E08BE28EDE88EC90E00E94D82960E0DB
:100D200078E08CE286DE88EC90E00E94D82960E0D2
:100D300078E080E37EDE88EC90E00E94D82960E0D5
:100D400078E081E376DE88EC90E00E94D82960E0CC
:100D500078E082E36EDE88EC90E00E94D82960E0C3
:100D600078E08DE266DE88EC90E00E94D82960E0B1
:100D700078E08EE25EDE88EC90E00E94D82960E0A8
:100D800078E08FE256DE88EC90E00E94D8296F96DA
:100D90000FB6F894DEBF0FBECDBFDF91CF911F918C
:100DA0000F91FF90EF90DF900895CE0101967C01A6
:100DB00002E81FE0C80129DCD82EC801019625DC15
:100DC000F701D0828183F2E0EF0EF11C0E5F1F4F1E
:100DD000003A8FE0180771F78E010F5F1F4F93E302
:100DE000F801619171918F01892F9F8F22DE9F8D74
:100DF0009F5F9234A9F72BCF0F931F93CF93DF936D
:100E00008B01D82FC92F20E030E040E85FE30E943B
:100E1000F13487FF10C020E030E040E85FEBB8011C
:100E20008D2F9C2F0E94A23318164CF008E411EE6F
:100E3000DAE7CFEB04C008E411EEDAE7CFE3B8015C
:100E40008D2F9C2FDF91CF911F910F910895CF92FD
:100E5000DF92EF92FF920F931F93DC01FB01C080A2
:100E6000D180E280F380A701772757FD7095672F27
:100E70000D911D912D913C911397F7FE14C04F5F7A
:100E80005F4F6F4F7F4F400F511F621F731F4D9376
:100E90005D936D937C93139780819181A281B3813F
:100EA000AF6FBF6F0FC0400F511F621F731F4D9375
:100EB0005D936D937C93139780819181A281B3811F
:100EC000AA27BB2780839183A283B3831F910F91AD
:100ED000FF90EF90DF90CF900895CF93DF93C09174
:100EE0006507D09166071C161D060CF0D5C1209130
:100EF0002B0630912C0640912D0650912E066091C4
:100F00000F077091100780911107909112070E94AE
:100F10003E3360930F0770931007809311079093EF
:100F2000120720912F0630913006409131065091E2
:100F30003206609113077091140780911507909104
:100F400016070E943E336093130770931407809333
:100F5000150790931607209133063091340640917F
:100F600035065091360660911707709118078091E9
:100F7000190790911A070E943E33609317077093E8
:100F800018078093190790931A0720911F06309134
:100F9000200640912106509122066091030770912E
:100FA000040780910507909106070E943E336093E5
:100FB0000307709304078093050790930607209119
:100FC0002306309124064091250650912606609113
:100FD0000707709108078091090790910A070E94FE
:100FE0003E33609307077093080780930907909337
:100FF0000A07209127063091280640912906509132
:101000002A0660910B0770910C0780910D07909153
:101010000E070E943E3360930B0770930C0780937A
:101020000D0790930E0720919F063091A0064091E6
:10103000A1065091A2066091C7067091C8068091E2
:10104000C9069091CA060E943E336093C70670930A
:10105000C8068093C9069093CA0620919B063091DA
:101060009C0640919D0650919E066091CB06709122
:10107000CC068091CD069091CE060E943E336093BF
:10108000CB067093CC068093CD069093CE0620912C
:101090009706309198064091990650919A06609172
:1010A000CF067091D0068091D1069091D2060E9411
:1010B0003E336093CF067093D0068093D106909311
:1010C000D2062091AB063091AC064091AD0650910E
:1010D000AE066091BB067091BC068091BD069091F2
:1010E000BE060E943E336093BB067093BC0680939D
:1010F000BD069093BE062091A7063091A8064091A8
:10110000A9065091AA066091BF067091C006809111
:10111000C1069091C2060E943E336093BF06709351
:10112000C0068093C1069093C2062091A306309119
:10113000A4064091A5065091A6066091C306709141
:10114000C4068091C5069091C6060E943E33609306
:10115000C3067093C4068093C5069093C60620917B
:1011600093063091940640919506509196066091B1
:10117000D3067091D4068091D5069091D6060E9430
:101180003E336093D3067093D4068093D506909334
:10119000D60620918F06309190064091910650918D
:1011A00092066091D7067091D8068091D9069091E9
:1011B000DA060E943E336093D7067093D806809378
:1011C000D9069093DA0620918B0630918C064091D7
:1011D0008D0650918E066091DB067091DC06809141
:1011E000DD069091DE060E943E336093DB0670932D
:1011F000DC068093DD069093DE0620913706309161
:1012000038064091390650913A0660911B0770915B
:101210001C0780911D0790911E070E943E3360932A
:101220001B0770931C0780931D0790931E07209146
:101230003B0630913C0640913D0650913E06609140
:101240001F077091200780912107909122070E942B
:101250003E3360931F07709320078093210790937C
:10126000220720913F06309140064091410650915F
:101270004206609123077091240780912507909181
:1012800026070E943E3360932307709324078093C0
:1012900025079093260720C180912B0690912C065C
:1012A000A0912D06B0912E0680930F079093100702
:1012B000A0931107B093120780912F0690913006EA
:1012C000A0913106B09132068093130790931407D2
:1012D000A0931507B09316078091330690913406BA
:1012E000A0913506B09136068093170790931807A2
:1012F000A0931907B0931A0780911F0690912006BA
:10130000A0912106B09122068093030790930407D1
:10131000A0930507B09306078091230690912406B9
:10132000A0912506B09126068093070790930807A1
:10133000A0930907B0930A07809127069091280689
:10134000A0912906B0912A0680930B0790930C0771
:10135000A0930D07B0930E0780919F069091A00671
:10136000A091A106B091A2068093C7069093C806EB
:10137000A093C906B093CA0680919B0690919C06E3
:10138000A0919D06B0919E068093CB069093CC06CB
:10139000A093CD06B093CE068091970690919806C3
:1013A000A0919906B0919A068093CF069093D006AB
:1013B000A093D106B093D2068091AB069091AC0673
:1013C000A091AD06B091AE068093BB069093BC068B
:1013D000A093BD06B093BE068091A7069091A80683
:1013E000A091A906B091AA068093BF069093C0066B
:1013F000A093C106B093C2068091A3069091A40663
:10140000A091A506B091A6068093C3069093C4064A
:10141000A093C506B093C60680919306909194065A
:10142000A0919506B09196068093D3069093D4062A
:10143000A093D506B093D60680918F069091900622
:10144000A0919106B09192068093D7069093D8060A
:10145000A093D906B093DA0680918B0690918C0602
:10146000A0918D06B0918E068093DB069093DC06EA
:10147000A093DD06B093DE06809137069091380682
:10148000A0913906B0913A0680931B0790931C07F0
:10149000A0931D07B0931E0780913B0690913C06D8
:1014A000A0913D06B0913E0680931F0790932007C0
:1014B000A0932107B093220780913F0690914006A8
:1014C000A0914106B0914206809323079093240790
:1014D000A0932507B09326072196D0936607C09363
:1014E0006507DF91CF9108954F925F926F927F923F
:1014F0008F929F92AF92BF92CF92DF92EF92FF9224
:10150000CF93DF93CDB7DEB7E0970FB6F894DEBF89
:101510000FBECDBF6091590770915A0780915B074C
:1015200090915C07C0905107D0905207E09053070C
:10153000F09054076C197D098E099F090E943F3471
:101540006B017C0165E272E082EE97E00E94192E49
:1015500022E030E0B701A60182EE97E00E94C52F9D
:1015600060910B0670910C06882777FD8095982F67
:101570000E94413420E030E040E85DE30E94F53411
:1015800060932707709328078093290790932A0771
:101590006091F9057091FA058091FB059091FC0529
:1015A0000E9441342091BB073091BC074091BD0798
:1015B0005091BE070E94A63360932B0670932C06B1
:1015C00080932D0690932E066091F5057091F60597
:1015D0008091F7059091F8050E9441342091BF0752
:1015E0003091C0074091C1075091C2070E94A633B5
:1015F00060932F06709330068093310690933206E5
:101600006091F1057091F2058091F3059091F405D8
:101610000E9441342091C3073091C4074091C5070F
:101620005091C6070E94A633609333067093340628
:1016300080933506909336066091050670910606F4
:1016400080910706909108060E9441342091AF07CF
:101650003091B0074091B1075091B2070E94A63374
:1016600060931F06709320068093210690932206B4
:101670006091010670910206809103069091040624
:101680000E9441342091B3073091B4074091B507CF
:101690005091B6070E94A6336093230670932406E8
:1016A00080932506909326066091FD057091FE05B6
:1016B0008091FF05909100060E9441342091B70768
:1016C0003091B8074091B9075091BA070E94A633EC
:1016D00060932706709328068093290690932A0624
:1016E00080911D0690911E069C01442737FD409570
:1016F000542F29833A834B835C83CA01B9010E942A
:1017000041342091730730917407409175075091CF
:1017100076070E94F534A70196010E94A63320E0C7
:1017200030E04AE754E40E94F5346D837E838F8372
:10173000988760939F067093A0068093A10690936C
:10174000A20680911B0690911C069C01442737FD40
:101750004095542F29873A874B875C87CA01B90186
:101760000E944134209177073091780740917907A2
:1017700050917A070E94F534A70196010E94A63382
:1017800020E030E04AE754E40E94F5346D877E871C
:101790008F87988B60939B0670939C0680939D0621
:1017A00090939E068091190690911A069C014427F9
:1017B00037FD4095542F298B3A8B4B8B5C8BCA019C
:1017C000B9010E94413420917B0730917C07409100
:1017D0007D0750917E070E94F534A70196010E9473
:1017E000A63320E030E04AE754E40E94F5346D8BE4
:1017F0007E8B8F8B988F609397067093980680935B
:10180000990690939A0680911706909118069C016C
:10181000442737FD4095542F298F3A8F4B8F5C8F8B
:10182000CA01B9010E9441342091670730916807CD
:101830004091690750916A070E94F534A70196010B
:101840000E94A63320E030E04AE754E40E94F534D9
:101850006093AB067093AC068093AD069093AE0692
:1018600080911506909116069C01442737FD4095FE
:10187000542F2D8F3E8F4F8F58A3CA01B9010E945C
:10188000413420916B0730916C0740916D07509166
:101890006E070E94F534A70196010E94A63320E04E
:1018A00030E04AE754E40E94F5346093A706709351
:1018B000A8068093A9069093AA068091130690919A
:1018C00014069C01442737FD4095542F29A33AA3C1
:1018D0004BA35CA3CA01B9010E94413420916F0758
:1018E0003091700740917107509172070E94F53452
:1018F000A70196010E94A63320E030E04AE754E4B5
:101900000E94F5346093A3067093A4068093A50605
:101910009093A60680911106909112069C0144278F
:1019200037FD4095542F2DA33EA34FA358A7CA01BE
:10193000B9010E94413420917F0730918007409186
:101940008107509182070E94F534A70196010E94F9
:10195000A63320E030E04AE754E40E94F5342B013E
:101960003C01609393067093940680939506909340
:10197000960680910F06909110069C01442737FD32
:101980004095542F29A73AA74BA75CA7CA01B901D4
:101990000E9441342091830730918407409185074C
:1019A000509186070E94F534A70196010E94A63344
:1019B00020E030E04AE754E40E94F5344B015C013A
:1019C00060938F0670939006809391069093920691
:1019D00080910D0690910E069C01442737FD40959D
:1019E000542F2DA73EA74FA758ABCA01B9010E949B
:1019F00041342091870730918807409189075091A1
:101A00008A070E94F534A70196010E94A63320E0C0
:101A100030E04AE754E40E94F5346B017C016093A6
:101A20008B0670938C0680938D0690938E06A3018F
:101A300092016D817E818F8198850E94A633DCD9C9
:101A400060933706709338068093390690933A0670
:101A5000A50194016D857E858F8598890E94A633A6
:101A6000CBD960933B0670933C0680933D069093E0
:101A70003E06A70196016D897E898F89988D0E9407
:101A8000A633BAD960933F0670934006809341060F
:101A9000909342068091630690916406A09165063A
:101AA000B091660629813A814B815C81820F931F38
:101AB000A41FB51F8093630690936406A0936506E8
:101AC000B093660680915F0690916006A0916106D2
:101AD000B091620629853A854B855C85820F931FFC
:101AE000A41FB51F80935F0690936006A0936106C4
:101AF000B093620680915B0690915C06A0915D06B2
:101B0000B0915E0629893A894B895C89820F931FBF
:101B1000A41FB51F80935B0690935C06A0935D069F
:101B2000B0935E068091570690915806A091590691
:101B3000B0915A06298D3A8D4B8D5C8D820F931F83
:101B4000A41FB51F8093570690935806A09359067B
:101B5000B0935A068091530690915406A091550671
:101B6000B09156062D8D3E8D4F8D58A1820F931F3B
:101B7000A41FB51F8093530690935406A093550657
:101B8000B093560680914F0690915006A091510651
:101B9000B091520629A13AA14BA15CA1820F931FDB
:101BA000A41FB51F80934F0690935006A093510633
:101BB000B093520680914B0690914C06A0914D0631
:101BC000B0914E062DA13EA14FA158A5820F931FA3
:101BD000A41FB51F80934B0690934C06A0934D060F
:101BE000B0934E068091470690914806A091490611
:101BF000B0914A0629A53AA54BA55CA5820F931F73
:101C0000A41FB51F8093470690934806A0934906EA
:101C1000B0934A068091430690914406A0914506F0
:101C2000B09146062DA53EA54FA558A9820F931F3A
:101C3000A41FB51F8093430690934406A0934506C6
:101C4000B093460663E676E087E896E000D96FE554
:101C500076E083E896E0FBD86BE576E08FE796E0E8
:101C6000F6D867E576E08BE796E0F1D863E576E0B5
:101C700087E796E0ECD86FE476E083E796E0E7D874
:101C80006BE476E08FE696E0E2D867E476E08BE6F8
:101C900096E0DDD863E476E087E696E0D8D86091F8
:101CA0008706709188068091890690918A060E9425
:101CB00041342091970730919807409199075091AE
:101CC0009A070E94F5346093EB067093EC068093BC
:101CD000ED069093EE0660918306709184068091E4
:101CE0008506909186060E94413420919B07309191
:101CF0009C0740919D0750919E070E94F534609388
:101D0000EF067093F0068093F1069093F2066091CF
:101D10007F067091800680918106909182060E94D4
:101D2000413420919F073091A0074091A107509125
:101D3000A2070E94F5346093F3067093F406809333
:101D4000F5069093F60660917B0670917C06809173
:101D50007D0690917E060E94413420918B07309140
:101D60008C0740918D0750918E070E94F534609347
:101D7000DF067093E0068093E1069093E20660919F
:101D80007706709178068091790690917A060E9484
:101D9000413420918F0730919007409191075091E5
:101DA00092070E94F5346093E3067093E4068093F3
:101DB000E5069093E6066091730670917406809133
:101DC0007506909176060E944134209193073091D8
:101DD000940740919507509196070E94F5346093BF
:101DE000E7067093E8068093E9069093EA0660910F
:101DF0006F067091700680917106909172060E9434
:101E000041342091A3073091A4074091A507509138
:101E1000A6070E94F5346093F7067093F806809346
:101E2000F9069093FA0660916B0670916C068091AA
:101E30006D0690916E060E9441342091A707309163
:101E4000A8074091A9075091AA070E94F534609312
:101E5000FB067093FC068093FD069093FE0660914E
:101E60006706709168068091690690916A060E94E3
:101E700041342091AB073091AC074091AD075091B0
:101E8000AE070E94F5346093FF06709300078093BD
:101E900001079093020721D88091590790915A0722
:101EA000A0915B07B0915C07809351079093520714
:101EB000A0935307B0935407E0960FB6F894DEBF93
:101EC0000FBECDBFDF91CF91FF90EF90DF90CF900D
:101ED000BF90AF909F908F907F906F905F904F904A
:101EE00008950E94B5296093590770935A0780930B
:101EF0005B0790935C0781E00E94870590931E0624
:101F000080931D066FE272E082EE97E00E94192E28
:101F100060911D0670911E064AE050E082EE97E047
:101F20000E94D82E82E00E94870590931C06809321
:101F30001B0683E00E94870590931A06809319067A
:101F400084E00E948705909318068093170685E029
:101F50000E948705909316068093150686E00E94DE
:101F60008705909314068093130687E00E948705E7
:101F7000909312068093110688E00E948705909343
:101F8000100680930F0689E00E94870590930E0645
:101F900080930D0680E10E94870590930C06809344
:101FA0000B0681E10E94750590E090930A068093EC
:101FB00009068AE00E94AA05683E23E072078105AF
:101FC00091052CF440E030E020E080E004C0462F92
:101FD000372F282F892F409305063093060620932C
:101FE0000706809308068BE00E94AA05683E23E05E
:101FF0007207810591052CF440E030E020E080E09C
:1020000004C0462F372F282F892F40930106309385
:10201000020620930306809304068CE00E94AA0522
:10202000683E23E07207810591052CF440E030E022
:1020300020E080E004C0462F372F282F892F4093BF
:10204000FD053093FE052093FF05809300068DE08B
:102050000E94AA0587FF05C040E030E020E080E054
:1020600004C0462F372F282F892F4093F90530932E
:10207000FA052093FB058093FC058EE00E94AA05DB
:1020800087FF05C040E030E020E080E004C0462F3C
:10209000372F282F892F4093F5053093F60520938D
:1020A000F7058093F8058FE00E94AA0587FF05C019
:1020B00040E030E020E080E004C0462F372F282F9A
:1020C000892F4093F1053093F2052093F305809317
:1020D000F4050ACACF92DF92EF92FF92CF93DF937B
:1020E0006091650770916607882777FD8095982F26
:1020F0000E9441346B017C01CFE0D7E09B01AC0131
:10210000688179818A819B810E94A6336883798363
:102110008A839B83C3E1D7E0A70196016881798117
:102120008A819B810E94A633688379838A839B83FB
:10213000C7E1D7E0A7019601688179818A819B81F7
:102140000E94A633688379838A839B83C3E0D7E0A8
:10215000A7019601688179818A819B810E94A633BB
:10216000688379838A839B83C7E0D7E0A7019601C0
:10217000688179818A819B810E94A63368837983F3
:102180008A839B83CBE0D7E0A701960168817981A0
:102190008A819B810E94A633688379838A839B838B
:1021A000C7ECD6E0A7019601688179818A819B817D
:1021B0000E94A633688379838A839B83CBECD6E025
:1021C000A7019601688179818A819B810E94A6334B
:1021D000688379838A839B83CFECD6E0A70196013D
:1021E000688179818A819B810E94A6336883798383
:1021F0008A839B83CBEBD6E0A70196016881798126
:102200008A819B810E94A633688379838A839B831A
:10221000CFEBD6E0A7019601688179818A819B8105
:102220000E94A633688379838A839B83C3ECD6E0BC
:10223000A7019601688179818A819B810E94A633DA
:10224000688379838A839B83C3EDD6E0A7019601D7
:10225000688179818A819B810E94A6336883798312
:102260008A839B83C7EDD6E0A701960168817981B7
:102270008A819B810E94A633688379838A839B83AA
:10228000CBEDD6E0A7019601688179818A819B8197
:102290000E94A633688379838A839B83CBE1D7E04E
:1022A000A7019601688179818A819B810E94A6336A
:1022B000688379838A839B83CFE1D7E0A701960166
:1022C000688179818A819B810E94A63368837983A2
:1022D0008A839B83C3E2D7E0A70196016881798155
:1022E0008A819B810E94A633688379838A839B833A
:1022F0001092660710926507DF91CF91FF90EF90E3
:10230000DF90CF900895CF93DF93D82FC62F60E052
:1023100089E10E94D22A60E088E10E94D22A8D2FB2
:1023200080680E9437038C2F80640E94370361E02D
:1023300088E1DF91CF910C94D22ACF93DF9360E0B4
:1023400070E080E090E0DFDF61E089E10E94D22A66
:1023500060E088E10E94D22AC9EFD3E089910E940F
:10236000370385E0C13FD807C9F761E088E1DF9115
:10237000CF910C94D22ACF93C82F60E089E10E94BC
:10238000D22A60E088E10E94D22A81E20E943703CB
:102390008C2F80680E94370380E20E94370361E03F
:1023A00088E1CF910C94D22AE9EFF3E09FEF8823E4
:1023B00011F0908301C01082319625E0E13FF207D1
:1023C000B1F7BBCF61E088E10E94992A61E087E123
:1023D0000E94992A61E089E10E94992A61E083E3E1
:1023E0000E94992A61E084E30E94992A0E9463274F
:1023F00080E00E943E038CB58F7D8CBD60E087E15C
:102400000E94D22A61E087E10E94D22A60E089E13D
:102410000E94D22A60E088E10E94D22A81E20E94D2
:10242000370380EB0E94370384E00E94370384E186
:102430000E94370380E20E9437038CE00E9437033A
:1024400061E088E10E94D22A80E0AECF9C01265054
:1024500031092E34310528F56033710510F59B01E3
:102460002770332753E0759567955A95E1F734E562
:10247000369FF001379FF00D1124E80FF91FE75048
:10248000FC4F81E090E0022E01C0880F0A94EAF729
:10249000442319F09081982B03C080959081982354
:1024A000908308954F925F926F927F928F929F9246
:1024B000AF92BF92CF92DF92EF92FF920F931F9352
:1024C000CF93DF93EB01642E552E722E992787FD53
:1024D0009095809725E0289F5001299FB00C1124EA
:1024E0002696C12CD12CC5018A5E9E4F5C014424E6
:1024F00043944724F501EC0DFD1D8490062D152D08
:10250000E12CF12C912CC4010E2C02C095958795DD
:102510000A94E2F780FF02C0472D01C0442DB801A4
:10252000CE0194DF9FEFE91AF90A0F5F1F4F88E091
:10253000E816F10441F79FEFC91AD90A219685E000
:10254000C816D104B9F6DF91CF911F910F91FF907A
:10255000EF90DF90CF90BF90AF909F908F907F9043
:102560006F905F904F9008956F927F928F929F929D
:10257000AF92BF92CF92DF92EF92FF920F931F9391
:10258000CF93DF93C82E992EEB01742E219763E031
:10259000CC0FDD1F6A95E1F77E015E0187E0A80E92
:1025A000B11CDD24D394D426AE14BF0444F40C2D06
:1025B000192DE12CF12C66246394672412C000E0ED
:1025C00010E04D2DB701C80141DF0F5F1F4F0435EB
:1025D0001105B9F7EFEFEE1AFE0AE6CFE6E0EE0ED0
:1025E000F11CF80181918F018823A1F0272DAE0104
:1025F000B70158DF4701F5E08F0E911C6E01AC1456
:10260000BD0464F3462DB601C40120DF8FEFC81A64
:10261000D80AF5CFDF91CF911F910F91FF90EF90E6
:10262000DF90CF90BF90AF909F908F907F906F90F2
:1026300084CECF92DF92EF92FF920F931F93CF93AE
:10264000DF93C62E9C0121503109E4E0220F331F95
:10265000EA95E1F779014FE0E40EF11CF4E5DF2E95
:1026600008E010E0C1E0D0E02E153F0581F1C9017E
:1026700037FD079673E0959587957A95E1F7D89E93
:10268000F001D99EF00D1124C901B8010E946B35EB
:10269000AE0102C0440F551F8A95E2F7CA01642FAC
:1026A000809540E050E0E750FC4FDF01A40FB51FDC
:1026B0009C91CC2011F0962B01C098239C934F5FE6
:1026C0005F4F4530510589F72F5F3F4FCDCFDF91E9
:1026D000CF911F910F91FF90EF90DF90CF902DCE73
:1026E0002F923F924F925F926F927F928F929F9222
:1026F000AF92BF92CF92DF92EF92FF920F931F9310
:10270000CF93DF93CDB7DEB7A6970FB6F894DEBFB1
:102710000FBECDBF6091F5037091F6038091F70372
:102720009091F8032FE430E040E050E00E947E35C5
:102730002AE2269F4001279F900C11241E0185E26A
:10274000280E311C8E010F5F1F4F9401201B310B8F
:102750007801C12CD12C2901400E511EE3E04E0E10
:10276000511CF701108211821282138232016C0C0B
:102770007D1C43E0A42EB12CC501860D971D2DA311
:102780003EA30E940503F70140815181628173815C
:10279000762F652F542F4427482B40835183628323
:1027A0007383F1E0AF1AB1082DA13EA18FEFA816F7
:1027B000B80611F7E4E0EE0EF11CF4E0CF0ED11CE8
:1027C0008CE0C816D10469F6045F1F4F021513058B
:1027D00009F0BECF8401075D1F4FF6E28F0E911CFA
:1027E00040E050E0BA01CC24D42EE52EF62EC801EC
:1027F0000E940503B701A601482B015011090815D5
:10280000190589F74093AF065093B0066093B1065F
:102810007093B20689819A81AB81BC8180938706CF
:1028200090938806A0938906B0938A068D819E8135
:10283000AF81B8858093830690938406A093850624
:10284000B093860689859A85AB85BC8580937F0683
:1028500090938006A0938106B09382068D859E8515
:10286000AF85B88980937B0690937C06A0937D0604
:10287000B0937E0689899A89AB89BC898093770653
:1028800090937806A0937906B0937A068D899E89F5
:10289000AF89B88D8093730690937406A0937506E4
:1028A000B0937606898D9A8DAB8DBC8D80936F0623
:1028B00090937006A0937106B09372068D8D9E8DD5
:1028C000AF8DB8A180936B0690936C06A0936D06B4
:1028D000B0936E0689A19AA1ABA1BCA180936706B3
:1028E00090936806A0936906B0936A06A6960FB601
:1028F000F894DEBF0FBECDBFDF91CF911F910F9136
:10290000FF90EF90DF90CF90BF90AF909F908F900F
:102910007F906F905F904F903F902F9008952F92EF
:102920003F924F925F926F927F928F929F92AF925F
:10293000BF92CF92DF92EF92FF920F931F93CF93AC
:10294000DF93CDB7DEB7A9970FB6F894DEBF0FBE01
:10295000CDBF8091F5039091F603A091F703B0915C
:10296000F8030196A11DB11D8093F5039093F60322
:10297000A093F703B093F8038DA39EA3AFA3B8A7CA
:10298000CE0185965C0100E010E0FFE4CF2ED12C53
:10299000E12CF12CAAE28A2EF50191905F01609161
:1029A000F5037091F6038091F7039091F803A70166
:1029B00096010E947E35869E9001879E300D1124DF
:1029C000692DC801820F931F0E94C7380F5F1F4FE8
:1029D0000330110509F78091870690918806A09130
:1029E0008906B0918A0689839A83AB83BC838091E0
:1029F000830690918406A0918506B09186068D830A
:102A00009E83AF83B88780917F0690918006A091C6
:102A10008106B091820689879A87AB87BC878091AF
:102A20007B0690917C06A0917D06B0917E068D87F5
:102A30009E87AF87B88B8091770690917806A0919A
:102A40007906B0917A06898B9A8BAB8BBC8B80917F
:102A5000730690917406A0917506B09176068D8BE1
:102A60009E8BAF8BB88F80916F0690917006A0916E
:102A70007106B0917206898F9A8FAB8FBC8F80914F
:102A80006B0690916C06A0916D06B0916E068D8FCD
:102A90009E8FAF8FB8A38091670690916806A09132
:102AA0006906B0916A0689A39AA3ABA3BCA300E010
:102AB00010E0EFE44E2E512C612C712CE12CF12C06
:102AC00022242394312C2C0E3D1E200E311EF101A8
:102AD000EE0DFF1D80819181A281B3818DA39EA304
:102AE000AFA3B8A74701800E911ECE0185965C0169
:102AF000C12CD12CF50141915F0149A76091F503EB
:102B00007091F6038091F7039091F803A30192016D
:102B10000E947E35EAE2E69F9001E79F300D112486
:102B20002D5F3F4F280D391D69A5C9018C0D9D1DD5
:102B30000E940703FFEFCF1ADF0A44E0C416D10456
:102B4000C9F684E0E80EF11C9CE0E916F10409F0F6
:102B5000BECF045F1F4F0432110509F0AFCF809143
:102B6000AF069091B006A091B106B091B2068DA3C8
:102B70009EA3AFA3B8A7FE01B5965F0100E010E0E9
:102B80005FE4C52ED12CE12CF12C6AE2862EF501F2
:102B900091905F016091F5037091F6038091F703C6
:102BA0009091F803A70196010E947E35869E9001C0
:102BB000879E300D1124295D3F4F692DC901800F7B
:102BC000911F0E94C7380F5F1F4F03301105F9F6A0
:102BD000A9960FB6F894DEBF0FBECDBFDF91CF919F
:102BE0001F910F91FF90EF90DF90CF90BF90AF902B
:102BF0009F908F907F906F905F904F903F902F901D
:102C000008954F925F926F927F928F929F92AF92B0
:102C1000BF92CF92DF92EF92FF920F931F93CF93C9
:102C2000DF9300D01F92CDB7DEB707E617E0CE01E5
:102C300001964C015E0195E0A90EB11CE12CF12C2E
:102C40006801C818D908F601E75CF74F6F01240145
:102C500036016E0C7F1CC201860D971D0E94050374
:102C6000F20181932F01EA15FB05A9F7F801EE0D9A
:102C7000FF1D89819A81AB81BC8180839183A2836E
:102C8000B383F4E0EF0EF11C8CE0E816F104F9F6E2
:102C9000045F1F4F97E0073C190781F60F900F90D4
:102CA0000F900F90DF91CF911F910F91FF90EF90B8
:102CB000DF90CF90BF90AF909F908F907F906F905C
:102CC0005F904F900895EF92FF920F931F93CF93D1
:102CD000DF9300D01F92CDB7DEB7CE0101967C0105
:102CE00006E51FE0C8010E940503F70181937F01FB
:102CF0000F5F1F4F0A35FFE01F07A1F769817A8137
:102D00008B819C810F900F900F900F90DF91CF914E
:102D10001F910F91FF90EF900895BF92CF92DF9295
:102D2000EF92FF920F931F93CF93DF936ADF07E633
:102D300017E0B12CC0E0D0E0F801EC0FFD1FC0801F
:102D4000D180E280F38020E030E0A901C701B60124
:102D50000E94F134181664F420E030E040E85FE4AB
:102D6000C701B6010E94A233882311F0BB24B3949B
:102D70002496CC30D10501F7045F1F4F87E0073C54
:102D80001807C1F6B1103DDFDF91CF911F910F9170
:102D9000FF90EF90DF90CF90BF9008954F925F9299
:102DA0006F927F928F929F92AF92BF92CF92DF925B
:102DB000EF92FF920F931F93CF93DF9300D01F9258
:102DC000CDB7DEB7AADF00E010E0CE0101967C01AE
:102DD0001C82580192E0A90EB11CFE0134966F01CD
:102DE000C5010E940503F60182936F01F1E0AF1A5D
:102DF000B108CE14DF04A1F789809A80AB80BC8033
:102E00001C8228012CE2420E511CCE0104963C018A
:102E100068019AE2C90ED11CC2010E940503F301A8
:102E200082933F01F1E04F1A51086E147F04A1F71D
:102E300089819A81AB81BC81B501A4014F5F5F4F4D
:102E40006F4F7F4F481759076A077B07B9F08816FD
:102E50009906AA06BB0649F41092F5031092F603F0
:102E60001092F7031092F8030AC08092F503909233
:102E7000F603A092F703B092F80301C086010C3C60
:102E80002CE0120748F08093F5039093F603A0938B
:102E9000F703B093F80306C0481759076A077B0782
:102EA00009F496CF10DF6093B7067093B80680934D
:102EB000B9069093BA0614DC0F900F900F900F9004
:102EC000DF91CF911F910F91FF90EF90DF90CF9006
:102ED000BF90AF909F908F907F906F905F904F903A
:102EE00008952F923F924F925F926F927F928F92AE
:102EF0009F92AF92BF92CF92DF92EF92FF920F9389
:102F00001F93CF93DF93CDB7DEB7C051D2400FB63A
:102F1000F894DEBF0FBECDBFAE014F5F5F4F60E0E4
:102F200070E084E090E00E942F0481110EC389813B
:102F3000CF5FDD4F8883C150D2408A81CE5FDD4FA5
:102F40008883C250D2408B81CD5FDD4F8883C350D0
:102F5000D240CC5FDD4F1882C450D240CF5FDD4FEE
:102F6000C880D980EA80FB80C150D24051E1F694FC
:102F7000E794D794C7945A95D1F7DD24EE24FF2423
:102F80000FEFC01AD00AE00AF00A66E0CC0CDD1C94
:102F9000EE1CFF1C6A95D1F710E088248A94982CC7
:102FA000AA24A394B12CC75FDD4F88829982AA829C
:102FB000BB82C950D240CB5FDD4F188219821A8282
:102FC0001B82C550D240CB5FDD4F88809980AA809C
:102FD000BB80C550D240C75FDD4F288139814A810F
:102FE0005B81C950D240820E931EA41EB51E3FEFD6
:102FF000831A930AA30AB30AB694A7949794879462
:103000002401350144E0640E711CAE014F5F5F4F37
:10301000C301B2010E942F04811193C28981CF5F45
:10302000DD4F8883C150D2408A81CE5FDD4F8883D7
:10303000C250D2408B81CD5FDD4F8883C350D240D8
:10304000CC5FDD4F1882C450D240CF5FDD4F888106
:103050009981AA81BB81C150D240C35FDD4F888373
:103060009983AA83BB83CD50D240103109F03AC274
:10307000A7019601C501B4010E945C35C35FDD4F15
:10308000088119812A813B81CD50D2406017710798
:103090008207930709F00DC1AE014F5F5F4FC30177
:1030A000B2010E942F04811150C28981CF5FDD4F90
:1030B0008883C150D2408A81CE5FDD4F8883C25061
:1030C000D2408B81CD5FDD4F8883C350D240CF5F2C
:1030D000DD4F288139814A815B81C150D240C75F71
:1030E000DD4F288339834A835B83C950D2404091A6
:1030F0004007509141076091420770914307CB5FB1
:10310000DD4F1882C550D2408FE390E0A0E0B0E0E0
:10311000C35FDD4F88839983AA83BB83CD50D240A0
:10312000412C512C3201C35FDD4F88819981AA81E6
:10313000BB81CD50D240840D951DA61DB71D0196B3
:10314000A11DB11DB695A795979587956C017D0139
:1031500033E0CC0CDD1CEE1CFF1C3A95D1F7E1E00E
:10316000F0E0EC0FFD1FEC0DFD1D2080CF5FDD4F6B
:103170002882C150D240970186010F5F1F4F2F4F09
:103180003F4FE1E0F0E0EC0FFD1FE00FF11F30805A
:10319000CE5FDD4F3882C250D240970186010E5F6C
:1031A0001F4F2F4F3F4FE1E0F0E0EC0FFD1FE00F0E
:1031B000F11FE081CD5FDD4FE883C350D240CC5F8B
:1031C000DD4F1882C450D240CF5FDD4F0881198196
:1031D0002A813B81C150D240C75FDD4F88809980F2
:1031E000AA80BB80C950D240081919092A093B0995
:1031F000CB5FDD4FF881C550D240F53081F508171F
:1032000019072A073B07F1F0FE01EF5FFD4F80E051
:1032100090E008E0C01AD108E108F10821E030E0B0
:103220002C0F3D1FC20ED31ED601A80FB91F3C9113
:103230003193019683309105B9F7CC5FDD4F188249
:10324000C450D240CF5FDD4F488159816A817B8174
:10325000C150D2404F5F5F4F6F4F7F4F1BC08017F1
:103260009107A207B30741F42C013D013FEF431A38
:10327000530A630A730A0EC08C019D0101501109A3
:1032800021093109C35FDD4F088319832A833B83FA
:10329000CD50D240CB5FDD4F1881C550D2401F5F6B
:1032A000CB5FDD4F1883C550D240163009F03BCFBD
:1032B00010C1C501B401615071098C4F9F4FAE011F
:1032C0004F5F5F4F0E942F0481113FC18981CF5F03
:1032D000DD4F8883C150D2408A81CE5FDD4F888325
:1032E000C250D2408B81CD5FDD4F8883C350D24026
:1032F000CF5FDD4F288139814A815B81C150D24047
:10330000C75FDD4F288339834A835B83C950D2402E
:1033100040914007509141076091420770914307E7
:10332000CB5FDD4F1882C550D2408FE390E0A0E024
:10333000B0E0C35FDD4F88839983AA83BB83CD5000
:10334000D240412C512C3201C35FDD4F88819981DD
:10335000AA81BB81CD50D240840D951DA61DB71DFD
:103360000196A11DB11DB695A795979587956C01FE
:103370007D0103E0CC0CDD1CEE1CFF1C0A95D1F78F
:10338000E1E0F0E0EC0FFD1FEC0DFD1D2080CF5FB4
:10339000DD4F2882C150D240970186010F5F1F4F39
:1033A0002F4F3F4FE1E0F0E0EC0FFD1FE00FF11F6A
:1033B0003080CE5FDD4F3882C250D2409701860107
:1033C0000E5F1F4F2F4F3F4FE1E0F0E0EC0FFD1F6E
:1033D000E00FF11FE081CD5FDD4FE883C350D240A5
:1033E000CC5FDD4F1882C450D240CF5FDD4F0881E3
:1033F00019812A813B81C150D240C75FDD4F88804F
:103400009980AA80BB80C950D240081919092A099D
:103410003B09CB5FDD4FF881C550D240F53081F5D7
:10342000081719072A073B07F1F0FE01EF5FFD4F70
:1034300080E090E008E0C01AD108E108F10821E03E
:1034400030E02C0F3D1FC20ED31ED601A80FB91FAE
:103450003C913193019683309105B9F7CC5FDD4FF4
:103460001882C450D240CF5FDD4F488159816A81B4
:103470007B81C150D2404F5F5F4F6F4F7F4F1BC06A
:1034800080179107A207B30741F42C013D013FEFDC
:10349000431A530A630A730A0EC08C019D0101503E
:1034A000110921093109C35FDD4F088319832A837C
:1034B0003B83CD50D240CB5FDD4F1881C550D24009
:1034C0001F5FCB5FDD4F1883C550D240163009F027
:1034D0003BCF40934007509341076093420770935E
:1034E000430733C0A5019401C701B6010E945C35B2
:1034F000C35FDD4F288139814A815B81CD50D24045
:10350000621773078407950771F4D501C40101960A
:10351000A11DB11DCB5FDD4F88839983AA83BB8337
:10352000C550D2400EC0A501940121503109410976
:103530005109C75FDD4F288339834A835B83C950B4
:10354000D2401F5F113109F03ECDC05FDD4F0FB695
:10355000F894DEBF0FBECDBFDF91CF911F910F91C9
:10356000FF90EF90DF90CF90BF90AF909F908F90A3
:103570007F906F905F904F903F902F900895CF92E3
:10358000DF92EF92FF920F931F93CF93DF93CDB70C
:10359000DEB7E3970FB6F894DEBF0FBECDBF7C0158
:1035A0006EED73E0CE018E960E948C308E010B5E24
:1035B0001F4F8DE0F80111928A95E9F780E28D8B1B
:1035C0008E8B8F8B888F898F8A8F8B8F8C8F8D8F2F
:1035D0008E8F8F8F88A38091470780934807F2E0F2
:1035E000EF16F10409F402C30CF095C0E114F104E4
:1035F00009F49DC1EA94EF2809F03DC460E082E03F
:1036000090E017D860E083E090E013D861E081E0BB
:1036100090E00FD84091EB065091EC066091ED06DA
:103620007091EE0622E0CE0101960E94AC31BE01FF
:103630006F5F7F4FCE018E960E94D530CE010196EE
:103640000E94253020E030E044E150E0BE016F5F91
:103650007F4FCE018E960E94A4326AEF72E0CE01B7
:1036600001960E940B3841E061E070E0CE010196C6
:103670000E94B41260919F067091A0068091A106ED
:103680009091A2068E010F5F1F4F21E041E00E9442
:10369000D73567EC72E0C8010E940B3841E062E068
:1036A00070E0C8010E94B41260912B0670912C0644
:1036B00080912D0690912E0621E041E00E94D735A1
:1036C00069E372E0C8010E940B3841E063E070E0FA
:1036D000C8010E94B41260911F067091200680916B
:1036E00021069091220621E041E00E94D7356BEE41
:1036F00072E0C8010E940B3841E064E070E0C8014C
:103700000E94B41260913706709138068091390694
:1037100090913A068AC3F3E0EF16F10409F4F6C279
:1037200084E0E816F10409F0A6C361E081E090E0CE
:103730000E94191361E082E090E00E94191361E099
:1037400083E090E00E9419132091EF063091F0067B
:103750004091F1065091F2066091EB067091EC06F3
:103760008091ED069091EE060E943E332091F30683
:103770003091F4064091F5065091F6060E943E33D2
:10378000AB01BC0122E0CE0101960E94AC31BE012A
:103790006F5F7F4FCE018E960E94D530CE0101968D
:1037A0000E94253020E030E044E150E0BE016F5F30
:1037B0007F4FCE018E960E94A4326AEF72E0CE0156
:1037C00001960E940B3841E061E070E0CE01019665
:1037D0000E94B41220919B0630919C0640919D0658
:1037E00050919E0660919F067091A0068091A1065F
:1037F0009091A2060E943E33209197063091980640
:103800004091990650919A060E943E338E010F5FB7
:103810001F4F21E041E00E94D73567EC72E0C801FC
:103820000E940B3841E062E070E0C8010E94B412CF
:1038300020912F063091300640913106509132068A
:1038400060912B0670912C0680912D0690912E068A
:103850000E943E3320913306309134064091350664
:10386000509136060E943E3320E030E040E450E4C0
:103870000E94A63321E041E00E94D73569E372E05F
:10388000C8010E940B3841E063E070E0C8010E946B
:10389000B4122091230630912406409125065091C0
:1038A000260660911F067091200680912106909156
:1038B00022060E943E33209127063091280640912F
:1038C000290650912A060E943E3321E041E00E94E1
:1038D000D7356BEE72E0C8010E940B3841E064E01E
:1038E00070E0C8010E94B41220913B0630913C0662
:1038F00040913D0650913E06609137067091380622
:103900008091390690913A060E943E3320913F06FD
:103910003091400640914106509142060E943E334C
:1039200020E030E040E450E40E94A6337EC260E034
:1039300081E090E00E94191360E082E090E00E9434
:10394000191360E083E090E00E94191367E372E0CE
:10395000CE0188960E948C30BE01685D7F4F8DE558
:1039600097E00E94E8327C016E01E2E2CE0ED11CAB
:103970006DEA73E0C6010E948C30A701B6018DE5A7
:1039800097E00E94CD329C0140E050E06DE577E089
:10399000CE0101960E94EB3220E030E04DE050E095
:1039A000B801CE0101960E94A432CE0101960E9478
:1039B0002530C6010E942530CE0188960E94253010
:1039C00041E061E070E0C8010E94B412780180E239
:1039D000F70181937F01EC15FD05D1F767E372E0F4
:1039E000CE0188960E948C30BE01685D7F4F8DE5C8
:1039F00097E00E94E8326C016DEA73E0C7010E9413
:103A00008C30A6014F5F5F4FB7018DE597E00E94B4
:103A1000CD32AC014F5F5F4F23E130E06DE577E0E1
:103A2000CE0101960E94EB3220E030E04DE050E004
:103A3000B801CE0101960E94A432CE0101960E94E7
:103A40002530C7010E942530CE0188960E9425307E
:103A500041E062E070E0C8010E94B4122091EF06DC
:103A60003091F0064091F1065091F2066091EB061C
:103A70007091EC068091ED069091EE060E943E3327
:103A80002091F3063091F4064091F5065091F60628
:103A90000E943E33AB01BC0122E0CE0101960E94A0
:103AA000AC31BE016F5F7F4FCE018E960E94D53044
:103AB000CE0101960E94253020E030E044E150E044
:103AC000BE016F5F7F4FCE018E960E94A4326AEFD7
:103AD00072E0CE0101960E940B3841E063E070E095
:103AE000CE0101960E94B41220919B0630919C0653
:103AF00040919D0650919E0660919F067091A00690
:103B00008091A1069091A2060E943E3320919706D3
:103B1000309198064091990650919A060E943E3342
:103B20008E010F5F1F4F21E041E00E94D73567EC07
:103B300072E0C8010E940B3841E064E070E0C80107
:103B40000E94B41220912F06309130064091310628
:103B50005091320660912B0670912C0680912D06B3
:103B600090912E060E943E33209133063091340608
:103B700040913506509136060E943E3320E030E0F9
:103B800040E450E40E94A63321E041E00E94D73592
:103B900069E372E0C8010E940B3841E065E070E023
:103BA000C8010E94B412209123063091240640914E
:103BB000250650912606609127067091280680916F
:103BC000290690912A060E943E3320911F063091CB
:103BD000200640912106509122060E943E3321E0AA
:103BE00041E00E94D7356BEE72E03CC160E081E0BD
:103BF00090E00E94191361E082E090E00E941913A6
:103C000060E083E090E00E9419134091EF0650912C
:103C1000F0066091F1067091F20622E0CE01019665
:103C20000E94AC31BE016F5F7F4FCE018E960E9425
:103C3000D530CE0101960E94253020E030E044E1ED
:103C400050E0BE016F5F7F4FCE018E960E94A4327E
:103C50006AEF72E0CE0101960E940B3841E061E00C
:103C600070E0CE0101960E94B41260919B067091A3
:103C70009C0680919D0690919E068E010F5F1F4FBE
:103C800021E041E00E94D73567EC72E0C8010E9454
:103C90000B3841E062E070E0C8010E94B41260910C
:103CA0002F0670913006809131069091320621E006
:103CB00041E00E94D73569E372E0C8010E940B38E9
:103CC00041E063E070E0C8010E94B41260912306F5
:103CD00070912406809125069091260621E041E00E
:103CE0000E94D7356BEE72E0C8010E940B3841E0AC
:103CF00064E070E0C8010E94B41260913B067091CC
:103D00003C0680913D0690913E068FC060E081E0C8
:103D100090E00E94191360E082E090E00E94191385
:103D200061E083E090E00E9419134091F306509106
:103D3000F4066091F5067091F60622E0CE01019638
:103D40000E94AC31BE016F5F7F4FCE018E960E9404
:103D5000D530CE0101960E94253020E030E044E1CC
:103D600050E0BE016F5F7F4FCE018E960E94A4325D
:103D70006AEF72E0CE0101960E940B3841E061E0EB
:103D800070E0CE0101960E94B41260919706709186
:103D900098068091990690919A068E010F5F1F4FA9
:103DA00021E041E00E94D73567EC72E0C8010E9433
:103DB0000B3841E062E070E0C8010E94B4126091EB
:103DC000330670913406809135069091360621E0D5
:103DD00041E00E94D73569E372E0C8010E940B38C8
:103DE00041E063E070E0C8010E94B41260912706D0
:103DF000709128068091290690912A0621E041E0E1
:103E00000E94D7356BEE72E0C8010E940B3841E08A
:103E100064E070E0C8010E94B41260913F067091A6
:103E20004006809141069091420621E041E00E94C7
:103E3000D73568EB72E0C8010E940B3841E065E0BD
:103E400070E0C8010E94B4126091270770912807A2
:103E50008091290790912A0721E041E00E94D735FF
:103E60006BE372E0C8010E940B3841E066E070E04D
:103E7000C8010E94B412CE018E960E942530E396AE
:103E80000FB6F894DEBF0FBECDBFDF91CF911F916B
:103E90000F91FF90EF90DF90CF900895CF93DF9335
:103EA00000D000D0CDB7DEB76091F3037091F4037A
:103EB0004AE0CE0101960E942C31BE016F5F7F4F18
:103EC0008DE597E00E94E030CE0101960E942530FA
:103ED0008091F2038A3018F067E372E002C06EE36B
:103EE00072E08DE597E00E940A326091F2038DE561
:103EF00097E00E942C328091F1038A3018F067E33A
:103F000072E002C06EE372E08DE597E00E940A3233
:103F10006091F1038DE597E00E942C328091F003CF
:103F20008A3018F06DEA73E002C061E472E08DE55A
:103F300097E00E940A326091F0038DE597E00E94BD
:103F40002C328091EF038A3018F06CE472E002C0EA
:103F500064E472E08DE597E00E940A326091EF031D
:103F60008DE597E00E942C328091EE038A3018F0A4
:103F70006CE472E002C064E472E08DE597E00E94B8
:103F80000A326091EE038DE597E00E942C3226966E
:103F90000FB6F894DEBF0FBECDBFDF91CF9108956D
:103FA000CF92DF92EF92FF92CF93605873448D4689
:103FB0009843ECE3CE2ED12CE12CF12CA7019601F5
:103FC0000E947E356093EE03CA01B901A7019601F4
:103FD0000E947E356093EF03CA01B90128E130E009
:103FE00040E050E00E947E356093F00380E090E076
:103FF000E3E9FEEFC1E0AC0143705527452B09F022
:10400000C0E0BC016F5F7F4F4C2F50E0DA01A35935
:10401000BE4F2A173B0738F0CF01841B950B280FA2
:10402000391FCB01E7CF61E0E62FF0E0E154FC4F10
:104030004081CC2319F0623009F44F5F50E071E009
:10404000760F2417350720F0241B350B672FECCF94
:104050006093F2032F5F2093F1038053984F909366
:10406000F4038093F303CF91FF90EF90DF90CF9014
:1040700015CF0F931F93CF93DF93CDB7DEB7C65005
:10408000D2400FB6F894DEBF0FBECDBF6EED73E029
:10409000CE018F5F9D4F0E948C300E946A1040912C
:1040A000AF065091B0066091B1067091B2062AE059
:1040B000CE0101960E948131BE016F5F7F4FCE011C
:1040C0008F5F9D4F0E940432CE0101960E942530E1
:1040D00060EF72E0CE018F5F9D4F0E940A324091E7
:1040E0003C0750913D0760913E0770913F078091DA
:1040F000B3069091B406A091B506B091B606480FEC
:10410000591F6A1F7B1F2AE0CE0101960E94813150
:10411000BE016F5F7F4FCE018F5F9D4F0E940432C3
:10412000CE0101960E94253060EF72E0CE018F5FD4
:104130009D4F0E940A324091B7065091B806609197
:10414000B9067091BA062AE0CE0101960E9481312B
:10415000BE016F5F7F4FCE018F5F9D4F0E94043283
:10416000CE0101960E94253060EF72E0CE018F5F94
:104170009D4F0E940A320BEB16E0F80141915191DC
:10418000619171918F0122E0CE0101960E94AC31C4
:10419000BE016F5F7F4FCE018F5F9D4F0E94043243
:1041A000CE0101960E94253060EF72E0CE018F5F54
:1041B0009D4F0E940A32F7E00B321F07F1F64AE0EA
:1041C00060912D07CE0101960E940131BE016F5F03
:1041D0007F4FCE018F5F9D4F0E940432CE0101962A
:1041E0000E94253060EF72E0CE018F5F9D4F0E94EC
:1041F0000A3260912B0770912C074AE0CE0101969C
:104200000E942C31BE016F5F7F4FCE018F5F9D4FAB
:104210000E940432CE0101960E94253060EF72E0C8
:10422000CE018F5F9D4F0E940A3240917B065091D4
:104230007C0660917D0670917E0620E1CE0101969C
:104240000E945631BE016F5F7F4FCE018F5F9D4F41
:104250000E940432CE0101960E94253060EF72E088
:10426000CE018F5F9D4F0E940A3240917706509198
:1042700078066091790670917A0620E1CE01019668
:104280000E945631BE016F5F7F4FCE018F5F9D4F01
:104290000E940432CE0101960E94253060EF72E048
:1042A000CE018F5F9D4F0E940A324091730650915C
:1042B0007406609175067091760620E1CE01019634
:1042C0000E945631BE016F5F7F4FCE018F5F9D4FC1
:1042D0000E940432CE0101960E94253060EF72E008
:1042E000CE018F5F9D4F0E940A3240918706509108
:1042F00088066091890670918A0620E1CE010196B8
:104300000E945631BE016F5F7F4FCE018F5F9D4F80
:104310000E940432CE0101960E94253060EF72E0C7
:10432000CE018F5F9D4F0E940A32409183065091CB
:104330008406609185067091860620E1CE01019683
:104340000E945631BE016F5F7F4FCE018F5F9D4F40
:104350000E940432CE0101960E94253060EF72E087
:10436000CE018F5F9D4F0E940A3240917F0650918F
:104370008006609181067091820620E1CE0101964F
:104380000E945631BE016F5F7F4FCE018F5F9D4F00
:104390000E940432CE0101960E94253060EF72E047
:1043A000CE018F5F9D4F0E940A3240916F0650915F
:1043B0007006609171067091720620E1CE0101963F
:1043C0000E945631BE016F5F7F4FCE018F5F9D4FC0
:1043D0000E940432CE0101960E94253060EF72E007
:1043E000CE018F5F9D4F0E940A3240916B06509123
:1043F0006C0660916D0670916E0620E1CE0101960B
:104400000E945631BE016F5F7F4FCE018F5F9D4F7F
:104410000E940432CE0101960E94253060EF72E0C6
:10442000CE018F5F9D4F0E940A32409167065091E6
:1044300068066091690670916A0620E1CE010196D6
:104440000E945631BE016F5F7F4FCE018F5F9D4F3F
:104450000E940432CE0101960E94253060EF72E086
:10446000CE018F5F9D4F0E940A326AE0CE018F5FBE
:104470009D4F0E941932CB5FDD4F88819981C550D5
:10448000D2408E3F914010F460E2F0CF20E030E067
:1044900040E052E0BE016F5F7F4FCE018F5F9D4FC6
:1044A0000E94A4326091AF067091B0068091B1066F
:1044B0009091B206837099270896AE014F5F5F4FC7
:1044C0000E948404811115C08091AF069091B006BE
:1044D000A091B106B091B2060196A11DB11D8093C5
:1044E000AF069093B006A093B106B093B2060E94B7
:1044F0008F14CE018F5F9D4F0E942530CA5FDD4F24
:104500000FB6F894DEBF0FBECDBFDF91CF911F91E4
:104510000F91089560E572E08DEC97E00E948C3079
:104520006DE572E087EC97E00E948C306AE672E0FD
:104530008DE597E00E948C306EED73E086E397E0A6
:104540000E948C306EED73E080E397E00C948C3029
:104550000C94F102CF92DF92EF92FF920F931F9390
:10456000CF93DF9300D000D0CDB7DEB7A895FDD6AE
:104570006093590770935A0780935B0790935C0789
:104580000091490710914A0720914B0730914C0741
:104590006B017C01C01AD10AE20AF30A48E8C4168A
:1045A0004AE8D40641E0E406F10450F0609349077C
:1045B00070934A0780934B0790934C070E94710FAA
:1045C0008091590790915A07A0915B07B0915C07C1
:1045D00040914D0750914E0760914F0770915007E1
:1045E0006C017D01C41AD50AE60AF70A08E0C01674
:1045F00005EAD00607E0E006F10468F080934D0775
:1046000090934E07A0934F07B093500780914707B0
:1046100090E00E94BF1A80914607882329F029DD87
:104620000E948F14109246078091590790915A0763
:10463000A0915B07B0915C074091550750915607D8
:1046400060915707709158076C017D01C41AD50A13
:10465000E60AF70A08EAC01605EED00604EEE00600
:10466000F104B8F08093550790935607A09357072D
:10467000B093580780910602882359F010920602E1
:1046800061E08DE28FD71092470781E090E00E94B1
:10469000BF1A80912F07811109C06EE772E082EE88
:1046A00097E00E94342E81E080932F0782EE97E0FE
:1046B000AED7892B09F4AEC240E062EE77E0CE01BE
:1046C00001960E940130BE016F5F7F4F86E397E045
:1046D0000E94D530CE0101960E942530F89469E8F9
:1046E00072E086E397E00E948632882389F166E9CA
:1046F00072E080E397E00E94EB3040911F065091FA
:104700002006609121067091220680E397E00E94C6
:1047100056326CE280E397E00E9419324091230602
:1047200050912406609125067091260680E397E05B
:104730000E9456326CE280E397E00E941932409169
:104740002706509128066091290670912A0639C0E3
:104750006CE972E086E397E00E948632882309F4D0
:1047600040C06AEA72E080E397E00E94EB3040913B
:104770002B0650912C0660912D0670912E0680E339
:1047800097E00E9456326CE280E397E00E94193273
:1047900040912F065091300660913106709132069B
:1047A00080E397E00E9456326CE280E397E00E943B
:1047B000193240913306509134066091350670915C
:1047C000360680E397E00E9456326CE280E397E081
:1047D0000E94193260E377E082EE97E00E94242E77
:1047E00018C260EB72E086E397E00E94863288236D
:1047F00089F16BEB72E080E397E00E94EB3040912F
:104800003706509138066091390670913A0680E378
:1048100097E00E9456326CE280E397E00E941932E2
:1048200040913B0650913C0660913D0670913E06DA
:1048300080E397E00E9456326CE280E397E00E94AA
:10484000193240913F0650914006609141067091A7
:104850004206B7CF6FEB72E086E397E00E948632A4
:10486000882389F16AEC72E080E397E00E94EB30E4
:1048700040919F065091A0066091A1067091A206FA
:1048800080E397E00E9456326CE280E397E00E945A
:10489000193240919B0650919C0660919D06709143
:1048A0009E0680E397E00E9456326CE280E397E038
:1048B0000E9419324091970650919806609199068E
:1048C00070919A067ECF6EEC72E086E397E00E94CC
:1048D0008632882389F16BED72E080E397E00E94D5
:1048E000EB304091AB065091AC066091AD067091F3
:1048F000AE0680E397E00E9456326CE280E397E0D8
:104900000E9419324091A7065091A8066091A9060D
:104910007091AA0680E397E00E9456326CE280E331
:1049200097E00E9419324091A3065091A40660912D
:10493000A5067091A60645CF61EE72E086E397E08A
:104940000E948632882389F16DEE72E080E397E061
:104950000E94EB3040919306509194066091950629
:104960007091960680E397E00E9456326CE280E3F5
:1049700097E00E94193240918F0650919006609105
:1049800091067091920680E397E00E9456326CE2A5
:1049900080E397E00E94193240918B0650918C067B
:1049A00060918D0670918E060CCF62EF72E086E307
:1049B00097E00E948632882389F16EEF72E080E3EF
:1049C00097E00E94EB304091EB065091EC0660912D
:1049D000ED067091EE0680E397E00E9456326CE29D
:1049E00080E397E00E9419324091EF065091F00663
:1049F0006091F1067091F20680E397E00E945632D2
:104A00006CE280E397E00E9419324091F3065091E6
:104A1000F4066091F5067091F606D3CE63E073E07C
:104A200086E397E00E948632882389F161E173E092
:104A300080E397E00E94EB304091DF065091E00662
:104A40006091E1067091E20680E397E00E945632A1
:104A50006CE280E397E00E9419324091E3065091A6
:104A6000E4066091E5067091E60680E397E00E9417
:104A700056326CE280E397E00E9419324091E706DB
:104A80005091E8066091E9067091EA069ACE68E1D5
:104A900073E086E397E00E948632882389F165E21D
:104AA00073E080E397E00E94EB304091F70650916D
:104AB000F8066091F9067091FA0680E397E00E948B
:104AC00056326CE280E397E00E9419324091FB0677
:104AD0005091FC066091FD067091FE0680E397E020
:104AE0000E9456326CE280E397E00E9419324091B6
:104AF000FF0650910007609101077091020761CE97
:104B00006BE273E086E397E00E948632882379F0B7
:104B100068E373E080E397E00E94EB304091270761
:104B2000509128076091290770912A074ACE6CE3BB
:104B300073E0CE0101960E948C30BE016F5F7F4F03
:104B400086E397E00E94E8328C01CE0101960E9434
:104B5000253017FD22C088E10FB6F89480936000DD
:104B6000109260000FBE00E010E060E0C8010E94FB
:104B700007030F5F1F4F0C3C2CE01207B1F729E22F
:104B800088E190E00FB6F894A895809360000FBE7E
:104B90002093600060E573E038C066E673E0CE0104
:104BA00001960E948C30BE016F5F7F4F86E397E0D5
:104BB0000E94E8328C01CE0101960E94253017FD3B
:104BC00022C088E10FB6F8948093600010926000D4
:104BD0000FBE00E010E060E0C8010E9407030F5F15
:104BE0001F4F011530E11307B1F729E288E190E08A
:104BF0000FB6F894A895809360000FBE20936000D4
:104C000067E773E002C06AE873E082EE97E00E9413
:104C1000342E789426960FB6F894DEBF0FBECDBF23
:104C2000DF91CF911F910F91FF90EF90DF90CF9088
:104C300008958F929F92AF92BF92CF92DF92EF92A0
:104C4000FF920F931F93CF93DF93CDB7DEB7C6507C
:104C5000D2400FB6F894DEBF0FBECDBF8E010F5FFE
:104C60001D4F6EED73E0C8010E948C30F5E0CF2E31
:104C7000D12CE12CF12C6EED73E0C8010E94EB30D9
:104C80006091AF067091B0068091B1069091B20626
:104C90008370992708966C197D098E099F09AE01CA
:104CA0004F5F5F4F0E942F04811118C0CE01019603
:104CB0005C014501F50160818FE798E06A3069F099
:104CC00050D5FFEFAF1ABF0AF401608182EE97E082
:104CD00048D5A016B10669F701C0B3D7F1E0CF1AE5
:104CE000D108E108F10809F0C6CF6EED73E0C80104
:104CF0000E94EB30C8010E942530CA5FDD4F0FB61D
:104D0000F894DEBF0FBECDBFDF91CF911F910F9101
:104D1000FF90EF90DF90CF90BF90AF909F908F90DB
:104D20000895CF93DF93CDB7DEB76A970FB6F894A7
:104D3000DEBF0FBECDBF0E947003C5D080E00E94D1
:104D40003E0380E00E9443038CB58F7D8CBD26E03E
:104D500040E052EC61E070E082EE97E066D526E03C
:104D600040E855E260E070E08FE798E05ED50E9491
:104D7000E21187E30E94BB1141E062E070E087E04E
:104D800092E00E94B41241E063E070E087E993E0B2
:104D90000E94B41241E064E070E083EA93E00E9474
:104DA000B41241E065E070E08FEA93E00E94B41233
:104DB00042E050E061EB72E080E0B8D010922D0745
:104DC00060E873E48DE698E3EBD80E9471170E94C7
:104DD000E1050E94CE166BEB73E0CE0145960E9472
:104DE0008C304091B7065091B8066091B906709129
:104DF000BA062AE0CE0101960E948131BE016F5FA2
:104E00007F4FCE0145960E940432CE0101960E944A
:104E10002530498D5A8D4F5F5F4F20E030E0BE0155
:104E20006F5F7F4FCE0145960E94A43241E061E062
:104E300070E0CE0101960E94B412FBDE0E94510385
:104E400029E288E190E00FB6F894A895809360007D
:104E50000FBE20936000CE0145960E9425306A96D1
:104E60000FB6F894DEBF0FBECDBFDF91CF9108958E
:104E70001F920F920FB60F9211240BB60F922F9321
:104E80003F934F935F936F937F938F939F93AF93D2
:104E9000BF93EF93FF93E091D307F091D407199557
:104EA000FF91EF91BF91AF919F918F917F916F9102
:104EB0005F914F913F912F910F900BBE0F900FBEBE
:104EC0000F901F901895CF93CFB7F8948091D80783
:104ED000811123C0E7EBF3E08491E1E7F3E09491E3
:104EE000E82FF0E0EE0FFF1FEE51FC4FA591B491BB
:104EF0008C91892319F461E085E354D361E085E363
:104F000018D38CB580618CBD8CB580648CBD61E09C
:104F100084E30FD361E083E30CD38091D8078F5FE4
:104F20008093D807CFBFCF9108950895883008F0B7
:104F30006DC0E82FF0E0EE0FFF1FEB5EFD4F7183B9
:104F4000608390E0FC013197E730F10590F5EE5871
:104F5000FF4F0C94A035809169008C7F842B809347
:104F60006900E89A089580916900440F551F440F25
:104F7000551F837F842B80936900E99A089580915F
:104F8000690074E0440F551F7A95E1F78F7C842BFC
:104F900080936900EA9A08958091690066E0440F61
:104FA000551F6A95E1F78F73842B80936900EB9A04
:104FB000089580916A008C7F842B80936A00EC9A1C
:104FC000089580916A00440F551F440F551F837F39
:104FD000842B80936A00ED9A089580916A0024E002
:104FE000440F551F2A95E1F78F7C842B80936A002C
:104FF000EE9A089580916A0096E0440F551F9A95A5
:10500000E1F78F73842B80936A00EF9A08951F92C3
:105010000F920FB60F9211240BB60F922F933F935E
:105020004F935F936F937F938F939F93AF93BF93B0
:10503000EF93FF93E0911902F0911A021995FF91F5
:10504000EF91BF91AF919F918F917F916F915F9100
:105050004F913F912F910F900BBE0F900FBE0F906D
:105060001F9018951F920F920FB60F9211240BB636
:105070000F922F933F934F935F936F937F938F93F1
:105080009F93AF93BF93EF93FF93E0911B02F09137
:105090001C021995FF91EF91BF91AF919F918F9154
:1050A0007F916F915F914F913F912F910F900BBE28
:1050B0000F900FBE0F901F9018951F920F920FB672
:1050C0000F9211240BB60F922F933F934F935F9340
:1050D0006F937F938F939F93AF93BF93EF93FF93C0
:1050E000E0911D02F0911E021995FF91EF91BF9181
:1050F000AF919F918F917F916F915F914F913F9170
:105100002F910F900BBE0F900FBE0F901F90189510
:105110001F920F920FB60F9211240BB60F922F937E
:105120003F934F935F936F937F938F939F93AF932F
:10513000BF93EF93FF93E0911F02F0912002199526
:10514000FF91EF91BF91AF919F918F917F916F915F
:105150005F914F913F912F910F900BBE0F900FBE1B
:105160000F901F9018951F920F920FB60F92112457
:105170000BB60F922F933F934F935F936F937F9351
:105180008F939F93AF93BF93EF93FF93E09115029B
:10519000F09116021995FF91EF91BF91AF919F91F8
:1051A0008F917F916F915F914F913F912F910F90D0
:1051B0000BBE0F900FBE0F901F9018951F920F926D
:1051C0000FB60F9211240BB60F922F933F934F936C
:1051D0005F936F937F938F939F93AF93BF93EF935F
:1051E000FF93E0911702F09118021995FF91EF914A
:1051F000BF91AF919F918F917F916F915F914F91EF
:105200003F912F910F900BBE0F900FBE0F901F90EC
:1052100018951F920F920FB60F9211240BB60F9292
:105220002F933F934F935F936F937F938F939F93AE
:10523000AF93BF93EF93FF93E0912102F09122028D
:105240001995FF91EF91BF91AF919F918F917F91B0
:105250006F915F914F913F912F910F900BBE0F90E7
:105260000FBE0F901F9018951F920F920FB60F92BE
:1052700011240BB60F922F933F934F935F936F932D
:105280007F938F939F93AF93BF93EF93FF93E0919F
:105290002302F09124021995FF91EF91BF91AF91F4
:1052A0009F918F917F916F915F914F913F912F913E
:1052B0000F900BBE0F900FBE0F901F9018951F926E
:1052C0000F920FB60F9211242F933F938F939F93BA
:1052D000AF93BF938091DA079091DB07A091DC0731
:1052E000B091DD073091D90723E0230F2D3720F44B
:1052F0000196A11DB11D05C026E8230F0296A11D30
:10530000B11D2093D9078093DA079093DB07A09310
:10531000DC07B093DD078091DE079091DF07A09155
:10532000E007B091E1070196A11DB11D8093DE0752
:105330009093DF07A093E007B093E107BF91AF918F
:105340009F918F913F912F910F900FBE0F901F90C3
:1053500018952FB7F8946091DA077091DB07809168
:10536000DC079091DD072FBF08953FB7F894809137
:10537000DE079091DF07A091E007B091E10726B525
:10538000A89B05C02F3F19F00196A11DB11D3FBF7D
:105390006627782F892F9A2F620F711D811D911D0D
:1053A00042E0660F771F881F991F4A95D1F708952D
:1053B0008230910538F0880F991F880F991F059743
:1053C0000197F1F70895789484B5826084BD84B51F
:1053D000816084BD85B5826085BD85B5816085BDF0
:1053E000EEE6F0E0808181608083E1E8F0E0108209
:1053F000808182608083808181608083E0E8F0E04A
:10540000808181608083E1EBF0E080818460808333
:10541000E0EBF0E0808181608083E1E9F0E0808171
:1054200082608083808181608083E0E9F0E0808118
:1054300081608083E1EAF0E0808182608083808106
:1054400081608083E0EAF0E0808181608083E1E236
:10545000F1E0808182608083808181608083E0E2EE
:10546000F1E0808181608083EAE7F0E08081846000
:10547000808380818260808380818160808380815D
:10548000806880831092C100089590E0FC013197FC
:10549000E231F10508F04CC0E758FF4F0C94A035FD
:1054A000809180008F7703C0809180008F7D8093F2
:1054B0008000089580918000877FF9CF84B58F7731
:1054C00002C084B58F7D84BD08958091B0008F7730
:1054D00003C08091B0008F7D8093B00008958091CB
:1054E00090008F7707C0809190008F7D03C08091DE
:1054F0009000877F8093900008958091A0008F771F
:1055000007C08091A0008F7D03C08091A000877F9D
:105510008093A0000895809120018F7707C080912B
:1055200020018F7D03C080912001877F809320011F
:105530000895CF93DF9390E0FC01E45CFC4F24914D
:10554000FC01EE57FC4F8491882349F190E0880FCD
:10555000991FFC01EE51FC4FA591B49188539C4FCB
:10556000FC01C591D4919FB7611108C0F8948C914A
:10557000209582238C93888182230AC0623051F463
:10558000F8948C91322F309583238C938881822BD1
:10559000888304C0F8948C91822B8C939FBFDF91F9
:1055A000CF9108950F931F93CF93DF931F92CDB7A1
:1055B000DEB7282F30E0F901EA50FD4F8491F90160
:1055C000E45CFC4F1491F901EE57FC4F0491002369
:1055D000C1F0882319F0698358DF6981E02FF0E07A
:1055E000EE0FFF1FE853FC4FA591B4919FB7F894BD
:1055F0008C91611103C01095812301C0812B8C9384
:105600009FBF0F90DF91CF911F910F910895FC01E3
:10561000818D228D90E0805C9F4F821B91098F735A
:1056200099270895FC01918D828D981731F0828D14
:10563000E80FF11D858D90E008958FEF9FEF08959D
:10564000FC01918D828D981761F0828DDF01A80F8A
:10565000B11D5D968C91928D9F5F9F73928F90E0AC
:1056600008958FEF9FEF089586ED9CE2892B39F026
:1056700080E090E0892B19F099D1811124C080E05D
:1056800090E0892B41F080E090E0892B21F00E948E
:10569000000081111BC080E090E0892B41F080E088
:1056A00090E0892B21F00E940000811112C081E856
:1056B0009DE2892B99F080E090E0892B79F021D24E
:1056C00081110AC008950E940000D9CF0E940000F5
:1056D000E2CF0E940000EBCF0C9400000895FC0183
:1056E000848DDF01A80FB11DA35ABF4F2C91848D6B
:1056F00090E001968F739927848FA689B7892C93A0
:10570000A089B1898C9180648C93938D848D98133A
:1057100006C00288F389E02D80818F7D8083089503
:10572000CF93DF93EC01888D8823C1F0EA89FB8950
:10573000808185FD05C0A889B9898C9186FD0EC040
:105740000FB607FCF5CF808185FFF2CFA889B98914
:105750008C9185FFEDCFCE01C2DFE8CFDF91CF91F5
:105760000895CF92DF92FF920F931F93CF93DF9311
:105770001F92CDB7DEB76C0181E0D60158968C93AD
:1057800058975B969C915B975C968C915C9798136D
:1057900007C05096ED91FC915197808185FD2DC0F9
:1057A000F601038D10E00F5F1F4F0F731127F02ECE
:1057B000F601848DF81210C00FB607FCF9CFD601A0
:1057C0005096ED91FC915197808185FFF1CFC601F4
:1057D000698385DF6981ECCF838DE80FF11DE35A82
:1057E000FF4F6083D6015B960C935B975296ED91C9
:1057F000FC915397808180620CC0D6015696ED9142
:10580000FC91579760835096ED91FC915197808160
:105810008064808381E090E00F90DF91CF911F91B1
:105820000F91FF90DF90CF900895BF92CF92DF92BB
:10583000EF92FF92CF93DF93EC016A017B01B22ECE
:10584000E889F98982E08083411581EE5807610576
:105850007105A1F060E079E08DE390E0A701960189
:105860000E947E35215031094109510956954795CD
:1058700037952795211580E1380798F0E889F9894F
:10588000108260E874E88EE190E0A70196010E9422
:105890007E35215031094109510956954795379573
:1058A0002795EC85FD853083EE85FF852083188E56
:1058B000EC89FD89B082EA89FB89808180618083DF
:1058C000EA89FB89808188608083EA89FB898081FD
:1058D00080688083EA89FB8980818F7D8083DF9166
:1058E000CF91FF90EF90DF90CF90BF9008951F92DF
:1058F0000F920FB60F9211240BB60F922F938F9326
:105900009F93EF93FF93E091F207F091F30780816B
:10591000E091F807F091F90782FD12C09081809123
:10592000FB078F5F8F732091FC07821751F0E09186
:10593000FB07F0E0EE51F84F958F8093FB0701C015
:105940008081FF91EF919F918F912F910F900BBECE
:105950000F900FBE0F901F9018951F920F920FB6C9
:105960000F9211240BB60F922F933F934F935F9397
:105970006F937F938F939F93AF93BF93EF93FF9317
:1059800082EE97E0ACDEFF91EF91BF91AF919F91D6
:105990008F917F916F915F914F913F912F910F90D8
:1059A0000BBE0F900FBE0F901F90189582EE97E0E0
:1059B0002EDE21E0892B09F420E0822F0895109239
:1059C000E5071092E40788EE93E0A0E0B0E0809352
:1059D000E6079093E707A093E807B093E90780ED07
:1059E00093E09093E3078093E20785EC90E0909337
:1059F000EF078093EE0784EC90E09093F10780939B
:105A0000F00780EC90E09093F3078093F20781EC2D
:105A100090E09093F5078093F40782EC90E09093E8
:105A2000F7078093F60786EC90E09093F907809350
:105A3000F8071092FB071092FC071092FD071092D6
:105A4000FE0708951F920F920FB60F9211240BB606
:105A50000F922F938F939F93EF93FF93E0918F0873
:105A6000F09190088081E0919508F091960882FD70
:105A700012C09081809198088F5F8F732091990850
:105A8000821751F0E0919808F0E0E158F74F958FB8
:105A90008093980801C08081FF91EF919F918F9131
:105AA0002F910F900BBE0F900FBE0F901F90189567
:105AB0001F920F920FB60F9211240BB60F922F93D5
:105AC0003F934F935F936F937F938F939F93AF9386
:105AD000BF93EF93FF938FE798E001DEFF91EF9183
