:1000000010C100000C9443080C946E080C949908DD
:100010000C94C4080C94EF080C941A090C9445092C
:100020000C9470092FC100002DC100002BC10000ED
:1000300029C1000027C1000025C1000023C1000024
:1000400021C100001FC100001DC100001BC1000034
:1000500019C1000017C1000015C100000C949B09D4
:1000600011C100000C94D60C0C940C0D0BC10000B7
:1000700009C1000007C1000005C1000003C1000064
:1000800001C10000FFC00000FDC00000FBC0000077
:10009000F9C00000F7C00000F5C00000F3C0000088
:1000A000F1C00000EFC00000EDC00000EBC0000098
:1000B000E9C00000E7C00000E5C00000E3C00000A8
:1000C000E1C00000DFC00000DDC00000DBC00000B8
:1000D000D9C00000D7C00000D5C00000D3C00000C8
:1000E000D1C000001D08E707EF07FB070808290833
:1000F0003608BE0AC10AB00AB40ABA0AF80AC50A22
:10010000C90ACF0AD30AD70ADD0AE10AE50AF80AC2
:10011000EB0AEF0AF30A00000A0B02090C0D0E08A5
:1001200007030401000000000000000000000000C0
:1001300000000000000000000000000000000000BF
:10014000000012111000000000000000000000007C
:10015000000000000000000000000000010210206C
:1001600020080810204010204080020102010804ED
:100170000201010204081020408080402010080481
:1001800002018004020180402010080402010804DA
:10019000020101020408102040800102040810201E
:1001A0004080050505050705080808080202020247
:1001B0000A0A080804040404010101010101010103
:1001C0000303030303030303040707070C0C0C0CCE
:1001D0000C0C0C0C020202020606060606060606B7
:1001E0000B0B0B0B0B0B0B0B000022002500280048
:1001F0002B002E003100340002010000050108012F
:100200000B0100002100240027002A002D003000EF
:10021000330001010000040107010A0167053E0DDA
:10022000730511241FBECFEFD1E2DEBFCDBF00E0CA
:100230000CBF14E0A0E0B2E0EAEEF7E200E00BBF92
:1002400002C007900D92A030B107D9F724E0A0E0DA
:10025000B4E001C01D92A43DB207E1F712E0C0E294
:10026000D2E000E006C022970109FE010BBF0E9408
:100270002911CC31D10780E00807A9F70E94D810D6
:100280000C94E413BDCE8091040490910504A091D8
:100290000604B09107040196A11DB11D80930404CA
:1002A00090930504A0930604B093070408958091E9
:1002B000000490910104A0910204B09103040196FE
:1002C000A11DB11D8093000490930104A09302042A
:1002D000B093030408958EBD00000DB407FEFDCF5A
:1002E0008EB5089560E08CE10C94320B61E08CE1F6
:1002F0000C94320BCF93DF931F921F92CDB7DEB7D2
:100300006A838983EFDF89818068E5DF6A81862FD0
:10031000E2DF0F900F90DF91CF91E8CF1F93CF9343
:10032000DF931F921F92CDB7DEB7182F6A837983B0
:10033000D9DF82E390E00E94390A812F8068CBDF09
:1003400082E390E00E94390A7981872FC4DF82E33B
:1003500090E00E94390A6A81862FBDDF82E390E037
:100360000E94390A0F900F90DF91CF911F91BECF5D
:100370001F93CF93DF9300D0CDB7DEB7182F4B83F9
:100380005A836983AFDF82E390E00E94390A812FAC
:100390008068A1DF82E390E00E94390A6981862F9C
:1003A0009ADF82E390E00E94390A5A81852F93DF19
:1003B00082E390E00E94390A4B81842F8CDF82E334
:1003C00090E00E94390A0F900F900F90DF91CF912B
:1003D0001F918CCFCF93DF93C82F84DF82E390E00F
:1003E0000E94390A8C2F77DF82E390E00E94390A5D
:1003F00080E071DFC82F82E390E00E94390A80E03C
:100400006ADFD82F82E390E00E94390A6FDF8D2FD8
:1004100090E09C2BDF91CF9108950F931F93CF9382
:10042000182F60DF82E390E00E94390A812F53DFAA
:1004300082E390E00E94390A80E04DDF182F82E3CA
:1004400090E00E94390A80E046DF082F82E390E0C6
:100450000E94390A80E03FDFC82F82E390E00E94CB
:10046000390A44DF6C2F70E080E090E0812B10E0CF
:10047000102F002720E030E0602B712B822B932B74
:10048000CF911F910F9108950F931F93F89480912E
:100490000804882309F4B7C08AE1BFDF80911504FE
:1004A000813071F58AE0B9DF0091250410912604AE
:1004B0002091270430912804060F171F281F391F89
:1004C00000932504109326042093270430932804D6
:1004D0008BE0A3DF009121041091220420912304DA
:1004E00030912404060F171F281F391F0093210481
:1004F0001093220420932304309324048CE030C012
:10050000823009F04CC08DE088DF00912504109105
:1005100026042091270430912804060F171F281F56
:10052000391F009325041093260420932704309349
:1005300028048EE072DF00912104109122042091A2
:10054000230430912404060F171F281F391F00931E
:1005500021041093220420932304309324048FE079
:100560005CDF00911D0410911E0420911F04309146
:100570002004060F171F281F391F00931D04109316
:100580001E0420931F043093200480911B0490913B
:100590001C04019690931C0480931B0434C0833088
:1005A00069F48DE03ADF672B682B692B61F18AE0F3
:1005B00034DF672B682B692BF9F425C0843069F48C
:1005C0008DE02BDF672B682B692BE9F08AE025DFB4
:1005D000672B682B692BD9F416C08530A1F48DE008
:1005E0001CDF672B682B692B71F08AE016DF672B05
:1005F000682B692BB1F507C0809117048F3F09F074
:100600008F5F8093170478941F910F9108958091C4
:100610001604811162C08AE100DF69E074E083E3BF
:1006200094E00E94BF0D81E0D5DE4AE050E0BC01BD
:1006300083E394E00E94A10E6CE283E394E00E94C5
:10064000CD0D82E0C7DE4AE050E0BC0183E394E0D8
:100650000E94A10E6CE283E394E00E94CD0D83E042
:1006600029C080911604811138C08AE1D6DE69E084
:1006700074E083E394E00E94BF0D84E0ABDE4AE0C7
:1006800050E0BC0183E394E00E94A10E6CE283E39E
:1006900094E00E94CD0D85E09DDE4AE050E0BC0173
:1006A00083E394E00E94A10E6CE283E394E00E9455
:1006B000CD0D86E08FDE4AE050E0BC0183E394E09C
:1006C0000E94A10E6CE283E394E00E94E70D109279
:1006D0001A041092190410920804809116048F3F96
:1006E00009F491CF8F5F809316048DCF61E08DE286
:1006F00080D761E08BE27DD761E089E27AD761E063
:100700008CE177D71CD48CB583608CBD8DB58E7F82
:100710008DBD8CB5837F84608CBD8CB58F7D8CBD89
:1007200026E040E052EC61E070E083E394E00E9458
:10073000760C6AE070E080E090E076D660E082E0DF
:1007400058D760E083E055D760E085E152D761E09B
:100750008DE288D761E08BE285D761E089E282D7BC
:1007600043E050E064E472E081E01CD443E050E0F8
:1007700063E471E080E016D443E050E067E571E0A7
:1007800082E010C460E070E08AE2C8DD88EC90E0AE
:1007900070D660E070E08BE2C1DD88EC90E069D655
:1007A00060E070E08CE2BADD88EC90E062D660E058
:1007B00070E08DE2B3DD88EC90E05BD660E070E045
:1007C0008EE2ACDD88EC90E054D660E070E08FE221
:1007D000A5DD88EC90E04DD660E070E080E39EDD22
:1007E00088EC90E046D660E070E081E397DD88EC2D
:1007F00090E03FD660E070E082E390DD88EC90E02E
:1008000038D66CEF84E176DD88EC90E032D66FE884
:1008100087E170DD88EC90E02CD66091190470912E
:100820001A048CE17BDD88EC90E023D68AE1F5DDCB
:1008300088EC90E01ED640E050E160E070E088E196
:1008400097DD88EC90E015D681E0C4DD82E0C2DD62
:1008500083E0C0CD60E070E08AE260DD88EC90E08B
:1008600008D660E070E08BE259DD88EC90E001D6BC
:1008700060E070E08CE252DD88EC90E0FAD560E058
:1008800070E08DE24BDD88EC90E0F3D560E070E045
:100890008EE244DD88EC90E0ECD560E070E08FE221
:1008A0003DDD88EC90E0E5D560E070E080E336DD8A
:1008B00088EC90E0DED560E070E081E32FDD88EC2D
:1008C00090E0D7D560E070E082E328DD88EC90E02E
:1008D000D0D56CEF84E10EDD88EC90E0CAD56FE8EE
:1008E00087E108DD88EC90E0C4D56091190470912F
:1008F0001A048CE113DD88EC90E0BBD58AE18DDD34
:1009000088EC90E0B6D540E050E160E070E088E12E
:100910002FDD88EC90E0ADD584E05CDD85E05ADD2C
:1009200086E058DD88EC90E0A4C56CE986E1E2DC65
:1009300084EF91E09ED58AE170DD84EF91E099D556
:1009400040E052E060E070E088E112DD88EC90E089
:1009500090D56EE170E08CE1E1DC88EC90E089D527
:1009600060E070E086E3DADC64E670E080E090E06E
:100970005BD560E070E087E3D1DC64E670E080E0A6
:1009800090E052D560E070E088E3C8DC64E670E097
:1009900080E090E049D588EC90E06BC58AE13DDDD0
:1009A00084EF91E066D540E052E060E070E088E1DD
:1009B000DFDC88EC90E05DD56EE170E08CE1AEDCD0
:1009C00088EC90E056D560E070E083E3A7DC64E655
:1009D00070E080E090E028D560E070E084E39EDC89
:1009E00064E670E080E090E01FD560E070E085E3B1
:1009F00095DC64E670E080E090E016D588EC90E04D
:100A000038C560E070E08AE289DC88EC90E031D59E
:100A100060E070E08BE282DC88EC90E02AD560E058
:100A200070E08CE27BDC88EC90E023D560E070E045
:100A30008DE274DC88EC90E01CD560E070E08EE222
:100A40006DDC88EC90E015D560E070E08FE266DC4C
:100A500088EC90E00ED560E070E080E35FDC88EC2D
:100A600090E007D560E070E081E358DC88EC90E02E
:100A700000D560E070E082E351DC88EC90E0F9D4CE
:100A80006CEF84E137DC88EC90E0F3D46FE887E129
:100A900031DC88EC90E0EDD468EC70E08CE13EDC79
:100AA00088EC90E0E6D48AE1B8DC88EC90E0E1D410
:100AB00040E050E160E070E088E15ADC88EC90E0D2
:100AC000D8D481E087DC82E085DC83E083CC60EFF2
:100AD00073E08FE094E00E945D0F60EF73E089E0C7
:100AE00094E00C945D0F89E094E00E94F60E8FE094
:100AF00094E00C94F60ECF92DF92EF92FF921F9348
:100B0000CF93DF93CDB7DEB762970FB6F894DEBF11
:100B10000FBECDBF83E394E0DAD5892B09F44BC136
:100B200040E063E374E0CE0101960E94D20EBE0164
:100B30006F5F7F4F8FE094E00E94A60FCE01019679
:100B40000E94F60EF89467E773E08FE094E00E944D
:100B50003310882359F011E010930804E6DE109258
:100B60001804109315046DE773E013C063E873E095
:100B70008FE094E00E943310882381F081E080931D
:100B800008040CDF1092180482E08093150469E8D1
:100B900073E089E094E00E94B10F0CC16FE873E04C
:100BA0008FE094E00E943310882361F081E080930D
:100BB000080427DF1092170483E08093150466E988
:100BC00073E0E7CF6EE973E0CE0101960E945D0FFE
:100BD000BE016F5F7F4F8FE094E00E9487107C0121
:100BE000CE0101960E94F60EF7FC62C081E0809370
:100BF00008046EE973E0CE0107960E945D0FBE0106
:100C0000695F7F4F8FE094E00E948710AC01485FDE
:100C10005F4F6CE28FE094E00E9451107C016EE91E
:100C200073E0CE010D960E945D0FBE01635F7F4FA2
:100C30008FE094E00E948710AC01495F5F4F9701FD
:100C40006FE074E0CE0101960E948A10CE010196F9
:100C50000E94CD1070931A0460931904CE0101967E
:100C60000E94F60ECE010D960E94F60ECE0107965A
:100C70000E94F60E8091190490911A041816190614
:100C80000CF098C066EA73E089E094E00E94B10F2E
:100C90006091190470911A0489E094E00E94041094
:100CA0006CE289E094E00E94F10F6CDD84E074C096
:100CB00068EB73E0CE0101960E945D0FBE016F5F8D
:100CC0007F4F8FE094E00E9487107C01CE01019657
:100CD0000E94F60EF7FC65C081E08093080468EB83
:100CE00073E0CE0107960E945D0FBE01695F7F4FE2
:100CF0008FE094E00E948710AC01485F5F4F6CE288
:100D00008FE094E00E9451107C0168EB73E0CE010B
:100D10000D960E945D0FBE01635F7F4F8FE094E0F0
:100D20000E948710AC01495F5F4F97016FE074E04C
:100D3000CE0101960E948A10CE0101960E94CD102C
:100D400070931A0460931904CE0101960E94F60E66
:100D5000CE010D960E94F60ECE0107960E94F60E69
:100D60008091190490911A04181619061CF560EC6C
:100D700073E089E094E00E94B10F609119047091D2
:100D80001A0489E094E00E9404106CE289E094E087
:100D90000E94F10F5FDD85E0809315041092160428
:100DA00009C0109215041092080461ED73E083E30A
:100DB00094E0FDD6789480911B0490911C04C29716
:100DC00009F07BC0F89410921C0410921B048091CF
:100DD0001804813009F051C069E074E083E394E0C5
:100DE000CED66091250470912604809127049091BD
:100DF000280432E3C32ED12CE12CF12CA70196015B
:100E00000E940711BA01A9012AE030E083E394E0CF
:100E100045D76CE283E394E0C0D6609121047091E1
:100E200022048091230490912404A70196010E943A
:100E30000711BA01A9012AE030E083E394E02ED73C
:100E40006CE283E394E0A9D660911D0470911E04C6
:100E500080911F0490912004A70196010E94071120
:100E6000BA01A9012AE030E083E394E017D76CE2ED
:100E700083E394E0ACD610920804109225041092FB
:100E80002604109227041092280410922104109234
:100E90002204109223041092240410921D04109234
:100EA0001E0410921F0410922004809118048F3F9A
:100EB00019F08F5F80931804789480911704813023
:100EC00081F5F89469E074E083E394E058D681E01A
:100ED00081DA4AE050E0BC0183E394E032D76CE26F
:100EE00083E394E05AD682E075DA4AE050E0BC0130
:100EF00083E394E026D76CE283E394E04ED683E06C
:100F000069DA4AE050E0BC0183E394E01AD76CE26E
:100F100083E394E05CD683E0809317041092080486
:100F2000789462960FB6F894DEBF0FBECDBFDF9106
:100F3000CF911F91FF90EF90DF90CF900895CF93C6
:100F4000CFB7F89480912904811123C0E7EDF1E037
:100F50008491E1E9F1E09491E82FF0E0EE0FFF1FBA
:100F6000EE5FFD4FA591B4918C91892319F461E056
:100F700085E378D361E085E33CD38CB580618CBD9B
:100F80008CB580648CBD61E084E333D361E083E39E
:100F900030D3809129048F5F80932904CFBFCF91F4
:100FA00008950895883008F06DC0E82FF0E0EE0F46
:100FB000FF1FEA5FFD4F7183608390E0FC01319772
:100FC000E730F10590F5EE58FF4F0C942311809116
:100FD00069008C7F842B80936900E89A0895809142
:100FE0006900440F551F440F551F837F842B809346
:100FF0006900E99A08958091690074E0440F551FD3
:101000007A95E1F78F7C842B80936900EA9A0895A2
:101010008091690066E0440F551F6A95E1F78F7370
:10102000842B80936900EB9A089580916A008C7FED
:10103000842B80936A00EC9A089580916A00440F93
:10104000551F440F551F837F842B80936A00ED9AB0
:10105000089580916A0024E0440F551F2A95E1F716
:101060008F7C842B80936A00EE9A089580916A00A9
:1010700096E0440F551F9A95E1F78F73842B809368
:101080006A00EF9A08951F920F920FB60F921124E3
:101090000BB60F922F933F934F935F936F937F9372
:1010A0008F939F93AF93BF93EF93FF93E0910A02C7
:1010B000F0910B021995FF91EF91BF91AF919F9124
:1010C0008F917F916F915F914F913F912F910F90F1
:1010D0000BBE0F900FBE0F901F9018951F920F928E
:1010E0000FB60F9211240BB60F922F933F934F938D
:1010F0005F936F937F938F939F93AF93BF93EF9380
:10110000FF93E0910C02F0910D021995FF91EF9180
:10111000BF91AF919F918F917F916F915F914F910F
:101120003F912F910F900BBE0F900FBE0F901F900D
:1011300018951F920F920FB60F9211240BB60F92B3
:101140002F933F934F935F936F937F938F939F93CF
:10115000AF93BF93EF93FF93E0910E02F0910F02D4
:101160001995FF91EF91BF91AF919F918F917F91D1
:101170006F915F914F913F912F910F900BBE0F9008
:101180000FBE0F901F9018951F920F920FB60F92DF
:1011900011240BB60F922F933F934F935F936F934E
:1011A0007F938F939F93AF93BF93EF93FF93E091C0
:1011B0001002F09111021995FF91EF91BF91AF913B
:1011C0009F918F917F916F915F914F913F912F915F
:1011D0000F900BBE0F900FBE0F901F9018951F928F
:1011E0000F920FB60F9211240BB60F922F933F93CD
:1011F0004F935F936F937F938F939F93AF93BF931F
:10120000EF93FF93E0910602F09107021995FF9189
:10121000EF91BF91AF919F918F917F916F915F916E
:101220004F913F912F910F900BBE0F900FBE0F90DB
:101230001F9018951F920F920FB60F9211240BB6A4
:101240000F922F933F934F935F936F937F938F935F
:101250009F93AF93BF93EF93FF93E0910802F091B8
:1012600009021995FF91EF91BF91AF919F918F91D5
:101270007F916F915F914F913F912F910F900BBE96
:101280000F900FBE0F901F9018951F920F920FB6E0
:101290000F9211240BB60F922F933F934F935F93AE
:1012A0006F937F938F939F93AF93BF93EF93FF932E
:1012B000E0911202F09113021995FF91EF91BF9105
:1012C000AF919F918F917F916F915F914F913F91DE
:1012D0002F910F900BBE0F900FBE0F901F9018957F
:1012E0001F920F920FB60F9211240BB60F922F93ED
:1012F0003F934F935F936F937F938F939F93AF939E
:10130000BF93EF93FF93E0911402F09115021995AA
:10131000FF91EF91BF91AF919F918F917F916F91CD
:101320005F914F913F912F910F900BBE0F900FBE89
:101330000F901F9018951F920F920FB60F921124C5
:101340002F933F938F939F93AF93BF9380912B04E1
:1013500090912C04A0912D04B0912E0430912A0478
:1013600023E0230F2D3720F40196A11DB11D05C0E8
:1013700026E8230F0296A11DB11D20932A04809315
:101380002B0490932C04A0932D04B0932E048091F1
:101390002F0490913004A0913104B0913204019651
:1013A000A11DB11D80932F0490933004A0933104AC
:1013B000B0933204BF91AF919F918F913F912F9144
:1013C0000F900FBE0F901F9018952FB7F894609153
:1013D0002B0470912C0480912D0490912E042FBF2A
:1013E00008953FB7F89480912F0490913004A09114
:1013F0003104B091320426B5A89B05C02F3F19F0E7
:101400000196A11DB11D3FBF6627782F892F9A2F06
:10141000620F711D811D911D42E0660F771F881FAD
:10142000991F4A95D1F70895CF92DF92EF92FF92DC
:10143000CF93DF936B017C01D4DFEB01C114D104A6
:10144000E104F10479F0C0D6CCDF6C1B7D0B683E63
:101450007340A0F381E0C81AD108E108F108C8512F
:10146000DC4FECCFDF91CF91FF90EF90DF90CF90EA
:1014700008958230910538F0880F991F880F991FC1
:1014800005970197F1F70895789484B5826084BD3B
:1014900084B5816084BD85B5826085BD85B5816078
:1014A00085BDEEE6F0E0808181608083E1E8F0E0D8
:1014B0001082808182608083808181608083E0E807
:1014C000F0E0808181608083E1EBF0E080818460E6
:1014D0008083E0EBF0E0808181608083E1E9F0E0EF
:1014E000808182608083808181608083E0E9F0E098
:1014F000808181608083E1EAF0E080818260808386
:10150000808181608083E0EAF0E080818160808377
:10151000E1E2F1E08081826080838081816080836C
:10152000E0E2F1E0808181608083EAE7F0E08081A1
:1015300084608083808182608083808181608083F9
:101540008081806880831092C100089590E0FC0142
:101550003197E231F10508F04BC0E758FF4F73C6F1
:10156000809180008F7703C0809180008F7D809371
:101570008000089580918000877FF9CF84B58F77B0
:1015800002C084B58F7D84BD08958091B0008F77AF
:1015900003C08091B0008F7D8093B000089580914A
:1015A00090008F7707C0809190008F7D03C080915D
:1015B0009000877F8093900008958091A0008F779E
:1015C00007C08091A0008F7D03C08091A000877F1D
:1015D0008093A0000895809120018F7707C08091AB
:1015E00020018F7D03C080912001877F809320019F
:1015F0000895CF93DF9390E0FC01E45AFE4F2491CD
:10160000FC01EE55FE4F8491882349F190E0880F4C
:10161000991FFC01EE5FFD4FA591B49188519E4F3B
:10162000FC01C591D4919FB7611108C0F8948C91C9
:10163000209582238C93888182230AC0623051F4E2
:10164000F8948C91322F309583238C938881822B50
:10165000888304C0F8948C91822B8C939FBFDF9178
:10166000CF9108950F931F93CF93DF931F92CDB720
:10167000DEB7282F30E0F901EA5EFE4F8491F901D0
:10168000E45AFE4F1491F901EE55FE4F04910023E8
:10169000C1F0882319F0698359DF6981E02FF0E0F8
:1016A000EE0FFF1FE851FE4FA591B4919FB7F8943C
:1016B0008C91611103C01095812301C0812B8C9303
:1016C0009FBF0F90DF91CF911F910F910895FC0163
:1016D000818D228D90E0805C9F4F821B91098F73DA
:1016E00099270895FC01918D828D981731F0828D94
:1016F000E80FF11D858D90E008958FEF9FEF08951D
:10170000FC01918D828D981761F0828DDF01A80F09
:10171000B11D5D968C91928D9F5F9F73928F90E02B
:1017200008958FEF9FEF089585E39DE0892B39F0B1
:1017300080E090E0892B19F098D1811125C080E0DC
:1017400090E0892B41F080E090E0892B21F00E940D
:10175000000081111CC080E090E0892B41F080E006
:1017600090E0892B21F00E940000811113C080E0DD
:1017700090E0892BA1F080E090E0892B81F00E941D
:10178000000081110AC008950E940000D8CF0E9475
:101790000000E1CF0E940000EACF0C940000089501
:1017A000FC01848DDF01A80FB11DA35ABF4F2C91FE
:1017B000848D90E001968F739927848FA689B789CD
:1017C0002C93A089B1898C9180648C93938D848DA6
:1017D000981306C00288F389E02D80818F7D808375
:1017E0000895CF93DF93EC01888D8823C1F0EA89B7
:1017F000FB89808185FD05C0A889B9898C9186FD0A
:101800000EC00FB607FCF5CF808185FFF2CFA88907
:10181000B9898C9185FFEDCFCE01C2DFE8CFDF9192
:10182000CF910895CF92DF92FF920F931F93CF93A2
:10183000DF931F92CDB7DEB76C0181E0D6015896D9
:101840008C9358975B969C915B975C968C915C9778
:10185000981307C05096ED91FC915197808185FDBA
:101860002DC0F601038D10E00F5F1F4F0F7311277E
:10187000F02EF601848DF81210C00FB607FCF9CFD8
:10188000D6015096ED91FC915197808185FFF1CF63
:10189000C601698385DF6981ECCF838DE80FF11D77
:1018A000E35AFF4F6083D6015B960C935B97529689
:1018B000ED91FC915397808180620CC0D6015696C1
:1018C000ED91FC91579760835096ED91FC91519763
:1018D00080818064808381E090E00F90DF91CF91E0
:1018E0001F910F91FF90DF90CF900895BF92CF92FC
:1018F000DF92EF92FF92CF93DF93EC016A017B01BD
:10190000B22EE889F98982E08083411581EE58077B
:101910006105710599F060E079E08DE390E0A70141
:10192000960153D4215031094109510956954795E3
:1019300037952795211580E1380790F0E889F989D6
:10194000108260E874E88EE190E0A70196013DD432
:1019500021503109410951095695479537952795E9
:10196000EC85FD853083EE85FF852083188EEC891C
:10197000FD89B082EA89FB89808180618083EA8960
:10198000FB89808188608083EA89FB898081806807
:101990008083EA89FB8980818F7D8083DF91CF916D
:1019A000FF90EF90DF90CF90BF9008951F920F921D
:1019B0000FB60F9211240BB60F922F938F939F9314
:1019C000EF93FF93E0914304F09144048081E09110
:1019D0004904F0914A0482FD12C0908180914C0428
:1019E0008F5F8F7320914D04821751F0E0914C046A
:1019F000F0E0ED5CFB4F958F80934C0401C080813B
:101A0000FF91EF919F918F912F910F900BBE0F90AF
:101A10000FBE0F901F9018951F920F920FB60F9246
:101A200011240BB60F922F933F934F935F936F93B5
:101A30007F938F939F93AF93BF93EF93FF9383E332
:101A400094E0AEDEFF91EF91BF91AF919F918F91A6
:101A50007F916F915F914F913F912F910F900BBEAE
:101A60000F900FBE0F901F90189583E394E02FDE28
:101A700021E0892B09F420E0822F0895109236048A
:101A80001092350488EE93E0A0E0B0E08093370434
:101A900090933804A0933904B0933A0482EE93E013
:101AA000909334048093330485EC90E09093400449
:101AB00080933F0484EC90E090934204809341042F
:101AC00080EC90E0909344048093430481EC90E098
:101AD000909346048093450482EC90E090934804F0
:101AE0008093470486EC90E090934A0480934904E5
:101AF00010924C0410924D0410924E0410924F0418
:101B00000895CF92DF92EF92FF920F931F93CF939E
:101B1000DF937C016A01EB0100E010E00C151D056C
:101B200071F06991D701ED91FC910190F081E02D68
:101B3000C7011995892B19F00F5F1F4FEFCFC8010F
:101B4000DF91CF911F910F91FF90EF90DF90CF9099
:101B500008956115710581F0DB010D900020E9F712
:101B6000AD0141505109461B570BDC01ED91FC9131
:101B70000280F381E02D199480E090E00895DC016B
:101B8000ED91FC91DB0114964D915C9115976D914F
:101B90007C910280F381E02D1994DC01ED91FC91A0
:101BA0000190F081E02D19946EEE73E0D2CF0F9387
:101BB0001F93CF93DF93EC01CCDF8C01CE01F4DFD8
:101BC000800F911FDF91CF911F910F9108950F9377
:101BD0001F93CF93DF93EC01E0DF8C01CE01E4DFB4
:101BE000800F911FDF91CF911F910F9108958F92D8
:101BF0009F92AF92BF92CF92DF92EF92FF920F939C
:101C00001F93CF93DF93CDB7DEB7A1970FB6F894AC
:101C1000DEBF0FBECDBF7C01C42EE52FCB01D22E7F
:101C200019A221E02D1510F02AE0D22E8E010F5DB1
:101C30001F4F8D2C912CA12CB12C6C2D7E2FA5012A
:101C40009401C3D28C2DD29E801911240150110908
:101C50008A3014F4805D01C0895CF801808321150D
:101C600031054105510521F0C22EE32FCA01E5CF10
:101C7000B801C7016EDFA1960FB6F894DEBF0FBEA4
:101C8000CDBFDF91CF911F910F91FF90EF90DF902B
:101C9000CF90BF90AF909F908F900895CF92DF929A
:101CA000EF92FF920F931F93CF93DF93EC016A01A2
:101CB0007B012115310579F4E881F9810190F081EA
:101CC000E02D642FDF91CF911F910F91FF90EF9046
:101CD000DF90CF9019942A303105D9F477FF18C0DE
:101CE0006DE25BDF8C0144275527BA014C195D0971
:101CF0006E097F092AE0CE017ADF800F911FDF9104
:101D0000CF911F910F91FF90EF90DF90CF900895AA
:101D10002AE0B701A601CE01DF91CF911F910F916B
:101D2000FF90EF90DF90CF9062CF2115310541F405
:101D3000DC01ED91FC910190F081E02D642F19946C
:101D400056CF9A01AB0160E070E0EFCF0F931F9385
:101D5000CF93DF93EC0139DB688779878A879B878C
:101D6000E881F9810680F781E02DCE01199597FF72
:101D700014C02BDB088519852A853B85601B710BF8
:101D8000820B930B0C811D812E813F81601771079F
:101D90008207930728F38FEF9FEFDF91CF911F9179
:101DA0000F910895EF92FF920F931F93CF93DF93BC
:101DB000EC018B01E42E60EF73E07FD0C801C6DF39
:101DC000FF24E7FCF09497FD09C08E159F0531F0C4
:101DD000682FCE0106D1C801B9DFF5CFCE01DF9162
:101DE000CF911F910F91FF90EF900895FC0180819A
:101DF0009181CBC2CF93DF93EC01888199810097C9
:101E000009F0C3D2198218821D821C821B821A8299
:101E1000DF91CF9108950F931F93CF93DF93EC0140
:101E20008B016F5F7F4F888199813ED3009731F09E
:101E3000998388831B830A8381E001C080E0DF915E
:101E4000CF911F910F910895CF93DF93EC0188817B
:101E50009981892B29F08A819B818617970758F4ED
:101E6000CE01D9DF882341F08C819D81892B19F423
:101E7000E881F981108281E0DF91CF910895EF929E
:101E8000FF920F931F93CF93DF93EC017B018A01A5
:101E9000BA01DADF811103C0CE01ACDF06C01D83B9
:101EA0000C83B7018881998126D4CE01DF91CF912F
:101EB0001F910F91FF90EF900895FC011182108205
:101EC00013821282158214826115710551F0FB0193
:101ED00001900020E9F7AF0141505109461B570B13
:101EE000CECF08950F931F93CF93DF938C01EB0117
:101EF000FC0180819181009789F0428153812C817E
:101F00003D814217530748F068817981F4D38C8171
:101F10009D81F8019583848312C037D2888199818D
:101F2000F801918380838A819B81938382838C8152
:101F30009D8195838483198218821B821A821D8257
:101F40001C82DF91CF911F910F910895CF93DF9362
:101F5000EC018617970709F0C5DFCE01DF91CF911D
:101F60000895CF93DF93EC016115710559F0FB01E2
:101F700001900020E9F7AF0141505109461B570B72
:101F80007EDF01C037DFCE01DF91CF910895EF9260
:101F9000FF920F931F93CF93DF93EC017B010C8192
:101FA0001D816115710511F480E014C041155105C2
:101FB00081F0040F151FB80147DF8823A9F328819A
:101FC00039818C819D81B701820F931F94D31D832A
:101FD0000C8381E0DF91CF911F910F91FF90EF90E3
:101FE0000895CF93DF931F921F92CDB7DEB7698319
:101FF0001A8241E050E0BE016F5F7F4FC8DF0F9053
:102000000F90DF91CF910895EF92FF920F931F935E
:10201000CF93DF93CDB7DEB728970FB6F894DEBF26
:102020000FBECDBF7C01CB014AE08E010F5F1F4F79
:10203000B80182D3F80101900020E9F7AF014150C7
:102040005109401B510BB801C701A1DF28960FB6FB
:10205000F894DEBF0FBECDBFDF91CF911F910F91DE
:10206000FF90EF900895FC0124813581232B31F4FA
:1020700021E06115710599F0FB0108C0FC01808128
:1020800091816115710531F421E0FC018081882383
:1020900031F004C027D321E0892B09F020E0822F02
:1020A0000895CF93DF93FC018481958148175907E8
:1020B00070F4C081D181772767FD7095CE01840FC0
:1020C000951F05D3009719F08C1B9D0B02C08FEF55
:1020D0009FEFDF91CF910895CF93DF93FC0184812F
:1020E00095814817590770F4C081D181FB01608147
:1020F0007181CE01840F951F05D3009719F08C1BB9
:102100009D0B02C08FEF9FEFDF91CF91089540E0CC
:1021100050E0E2CFBF92CF92DF92EF92FF920F9307
:102120001F93CF93DF936C017B01EA018901241790
:10213000350720F48D2FE901042F182F60EF73E08D
:10214000C601BBDED70114968D919C911597C817D7
:10215000D907C0F48017910708F48C01D701ED91DD
:10216000FC911197E00FF11FB08010826D917C916E
:102170006C0F7D1FC601F5DED701ED91FC91E00FDC
:10218000F11FB082C601DF91CF911F910F91FF9097
:10219000EF90DF90CF90BF900895FC0180819181F6
:1021A000009709F065C260E070E0CB0108950895E2
:1021B0006BD9FDDF0E947603C4E9DBE00E947B055A
:1021C0002097E1F3B1DAFACF0895A1E21A2EAA1B03
:1021D000BB1BFD010DC0AA1FBB1FEE1FFF1FA217D7
:1021E000B307E407F50720F0A21BB30BE40BF50BD4
:1021F000661F771F881F991F1A9469F7609570955D
:10220000809590959B01AC01BD01CF010895052EED
:1022100097FB16F400940FD057FD05D0D6DF07FCCE
:1022200002D046F408C050954095309521953F4F17
:102230004F4F5F4F089590958095709561957F4FB2
:102240008F4F9F4F0895EE0FFF1F0590F491E02DE3
:1022500019940790F691E02D1994CF93DF93823073
:10226000910510F482E090E0E091D204F091D30463
:1022700020E030E0A0E0B0E0309739F140815181BA
:1022800048175907B8F04817590771F482819381AC
:10229000109729F013969C938E9312972CC09093CD
:1022A000D3048093D20427C02115310531F04217A1
:1022B000530718F0A901DB0101C0EF019A01BD012C
:1022C000DF010280F381E02DD7CF21153105F9F030
:1022D000281B390B2430310580F48A819B816115DC
:1022E000710521F0FB019383828304C09093D30492
:1022F0008093D204FE01329644C0FE01E20FF31F28
:102300008193919322503109398328833AC02091D7
:10231000D0043091D104232B41F42091020230915A
:1023200003023093D1042093D00420910002309115
:1023300001022115310541F42DB73EB74091040249
:1023400050910502241B350BE091D004F091D1048B
:10235000E217F307A0F42E1B3F0B2817390778F07C
:10236000AC014E5F5F4F2417350748F04E0F5F1FDB
:102370005093D1044093D0048193919302C0E0E044
:10238000F0E0CF01DF91CF910895CF93DF930097D5
:1023900009F487C0FC01329713821282C091D204E3
:1023A000D091D304209781F420813181280F391FE7
:1023B0008091D0049091D1048217930779F5F0931E
:1023C000D104E093D0046DC0DE0120E030E0AE1710
:1023D000BF0750F412964D915C9113979D014115E2
:1023E000510509F1DA01F3CFB383A2834081518112
:1023F000840F951F8A179B0771F48D919C911197FB
:10240000840F951F02969183808312968D919C91E3
:102410001397938382832115310529F4F093D30414
:10242000E093D2043EC0D9011396FC93EE93129729
:102430004D915D91A40FB51FEA17FB0779F48081D8
:102440009181840F951F0296D90111969C938E93CA
:102450008281938113969C938E931297E0E0F0E033
:102460008A819B81009719F0FE01EC01F9CFCE0122
:10247000029628813981820F931F2091D0043091D8
:10248000D1042817390769F4309729F41092D3043E
:102490001092D20402C013821282D093D104C0934E
:1024A000D004DF91CF9108956F927F928F929F9287
:1024B000AF92BF92CF92DF92EF92FF920F931F9352
:1024C000CF93DF93EC01CB01209779F4DF91CF918B
:1024D0001F910F91FF90EF90DF90CF90BF90AF9042
:1024E0009F908F907F906F90B8CEFE01E60FF71F00
:1024F0009E0122503109E217F30708F4A8C0D90160
:102500000D911C91119706171707B0F005301105B2
:1025100008F49BC0A801445051094617570708F416
:1025200094C002501109061B170B019311936D9370
:102530007C93CF012ADF89C05B01A01AB10A4E014A
:10254000800E911EA091D204B091D304612C712C05
:1025500060E070E0109709F449C0A815B905C9F505
:10256000ED90FC901197670142E0C40ED11CCA1493
:10257000DB0478F147018A189B08640142E0C40E2D
:10258000D11C1296BC9012971396AC91B5E0CB1665
:10259000D10440F0B282A38391828082D9018D93CD
:1025A0009C9309C00E5F1F4F0E0D1F1DF901118373
:1025B0000083EB2DFA2F6115710531F0DB011396C5
:1025C000FC93EE93129741C0F093D304E093D204AE
:1025D0003CC06D917C9111976616770608F43B011B
:1025E000BD0112960D90BC91A02DB4CF6091D00486
:1025F0007091D10468157905E9F468167906D0F46C
:1026000040910002509101024115510541F44DB72E
:102610005EB76091040270910502461B570BE417E8
:10262000F507A8F4F093D104E093D004F901918365
:1026300080830BC012DE7C01009749F0A801BE0127
:102640003DD0CE01A2DEC70104C0CE0102C080E0B1
:1026500090E0DF91CF911F910F91FF90EF90DF906D
:10266000CF90BF90AF909F908F907F906F90089584
:102670001F93FC0199278827BC01E894119110321F
:10268000E9F3193010F01E30C8F31B3249F01D3247
:1026900041F4689405C05AD0610F711D811D911DD0
:1026A000119110531A30B8F33EF4909580957095BF
:1026B00061957F4F8F4F9F4F1F910895FB01DC0164
:1026C00002C001900D9241505040D8F70895FC018E
:1026D0008191861721F08823D9F79927089531979A
:1026E000CF010895FB01DC018D910190801901104B
:1026F000D9F3990B0895FB01DC0101900D920020A4
:10270000E1F70895FB0151915523A9F0BF01DC01C8
:102710004D9145174111E1F759F4CD010190002089
:1027200049F04D9140154111C9F3FB014111EFCF23
:1027300081E090E001970895BB274A3031F4992356
:1027400022F4BDE2909581959F4F16C0592F482FD6
:10275000372F262F660F771F881F991F660F771F49
:10276000881F991F620F731F841F951F660F771FA5
:10277000881F991F0895BB27FB015527AA27880F9B
:10278000991FAA1FA41710F0A41B83955051B9F7E5
:10279000A05DAA3308F0A95DA193009779F7B11164
:1027A000B1931192CB0100C0DC01FC01672F719144
:1027B0007723E1F7329704C07C916D937083629127
:1027C000AE17BF07C8F3089512E0C0E2D2E000E000
:1027D00005C022970109FE010BBF3BDDC232D107C4
:0A27E00080E00807B1F7F894FFCF7E
:1027EA000000D4048000D107D107D107D107D1074F
:1027FA00D107D107D107537461727420726561647D
:10280A00696E6720616C6C207265677320232323CD
:10281A002323232323232323232323232320003097
:10282A007831373D00307831383D00307831393DE4
:10283A0000307831413D00307831423D0030783106
:10284A00433D00307831443D00307831453D003019
:10285A007831463D00307832303D00307832313DB3
:10286A0000307832323D00307832333D00307832F1
:10287A00343D00307832353D00307832363D003014
:10288A007832373D00307832383D00307832393D81
:10289A0000307832413D00307832423D00307832A3
:1028AA00433D00307832443D00307832453D0030B7
:1028BA007832463D00307833303D00307833313D50
:1028CA0000307833323D00307833333D003078338E
:1028DA00343D00307833353D00307833363D0030B2
:1028EA007833373D00307833383D00307833393D1E
:1028FA0000307833413D00307833423D0030783340
:10290A00433D00307833443D00307833453D003054
:10291A007833463D00307834303D00307834313DEC
:10292A0000307834323D00307834333D003078342A
:10293A00343D00307834353D00307834363D00304F
:10294A007834373D00307834383D00307837453DAB
:10295A0000307837463D00435F43414C0049524DB1
:10296A00532C00565F43414C0056524D532C005095
:10297A00685F43414C005741545448522C0041501F
:10298A005F43414C2C005741545448525F4C696E86
:10299A00654379636C655F0052505F43414C2C007C
:1029AA0056415248525F4C696E654379636C655F64
:1029BA00004572726F7220696E204D534700000005
:1029CA000000120C810D670B800B720BF10B0D0AC4
:1029DA00006E616E00696E66006F7666002E0000FA
:00000001FF
