:1000000004C1000035C5000064C5000093C50000B0
:10001000C2C50000F1C5000020C600004FC60000A8
:100020007EC600001FC100001DC100001BC10000F2
:1000300019C1000017C1000015C1000013C1000064
:1000400011C100000FC100000DC100000BC1000074
:1000500009C1000007C1000005C1000091C60000F1
:1000600001C100000C94C1080C94050AFBC00000FB
:10007000F9C00000F7C00000F5C00000F3C00000A8
:10008000F1C00000EFC00000EDC00000EBC00000B8
:100090000C9401090C94440AE5C00000E3C0000080
:1000A000E1C00000DFC00000DDC00000DBC00000D8
:1000B000D9C00000D7C00000D5C00000D3C00000E8
:1000C000D1C00000CFC00000CDC000000C94410999
:1000D0000C94830AC7C000000C9481090C94C20AD6
:1000E000C1C0000000002100240027002A002D00CC
:1000F0003000330001010000040107010A01000083
:100100002200250028002B002E00310034000201BF
:100110000000050108010B0100002000230026005B
:1001200029002C002F00320000010000030106010D
:10013000090105050505070508080808020202026D
:100140000A0A080804040404010101010101010173
:100150000303030303030303040707070C0C0C0C3E
:100160000C0C0C0C02020202060606060606060627
:100170000B0B0B0B0B0B0B0B0102102020080810B4
:100180002040102040800201020108040201010207
:1001900004081020408080402010080402018004E0
:1001A000020180402010080402010804020101023B
:1001B0000408102040800102040810204080000044
:1001C000090A02080B0C0D070603040100000000D9
:1001D000000000000000000000000000000000001F
:1001E0000000000000000000000011100F000000DF
:1001F00000000000000000000000000000000000FF
:10020000000000009901310C940111241FBECFEFB2
:10021000D1E2DEBFCDBF00E00CBF13E0A0E0B2E052
:10022000EEE7F5E200E00BBF02C007900D92A239A5
:10023000B107D9F71BBE16E0A2E9B3E001C01D92D9
:10024000AD37B107E1F712E0C8E0D2E004C0229771
:10025000FE010E94AF12C430D107C9F70E94670D9A
:100260000C94B312CDCEFB01DC0102C001900D92C3
:1002700041505040D8F70895FB01DC018D91019069
:1002800080190110D9F3990B0895FB01DC0101904D
:100290000D920020E1F708958091B0039091B10391
:1002A000A091B203B091B3030196A11DB11D80933B
:1002B000B0039093B103A093B203B093B303089536
:1002C0008091B4039091B503A091B603B091B703A8
:1002D0000196A11DB11D8093B4039093B503A09323
:1002E000B603B093B70308958130910579F46F5F39
:1002F0007F4FC9F482EA93E060E072E00E94F60F5B
:1003000089EA93E060E072E00C94F60F892B59F4CF
:100310006F5F7F4F41F489EA93E00E943B1082EACD
:1003200093E00C943B10089580E090E06FEF7FEF36
:10033000DBCF81E090E06FEF7FEFD6CF8CE161E023
:10034000EDC68CE160E0EAC6DF92EF92FF920F9378
:100350001F93182FF6DF82E390E0C1D51EBD0DB4C8
:1003600007FEFDCF8EB582E390E0B9D51EBC0DB47B
:1003700007FEFDCF1EB582E390E0B1D51EBC0DB4E3
:1003800007FEFDCFDEB482E390E0A9D51EBC0DB41C
:1003900007FEFDCFEEB482E390E0A1D5CFDF212FA1
:1003A00030E040E050E0A90133272227FF2400E09D
:1003B00010E02E293F29402B512B9D2D80E0A0E0FD
:1003C000B0E0282B392B4A2B5B2BB901CA011F91B6
:1003D0000F91FF90EF90DF900895EF92FF920F93AF
:1003E0001F93F8948AE1B0DF8091A1038130B1F5C9
:1003F000E0909203F0909303009194031091950381
:100400008AE0A2DFE60EF71E081F191FE092920392
:10041000F09293030093940310939503E090960356
:10042000F090970300919803109199038BE08CDF73
:10043000E60EF71E081F191FE0929603F09297032D
:100440000093980310939903E0909A03F0909B0314
:1004500000919C0310919D038CE038C0823009F01C
:100460004BC0E0909203F09093030091940310919D
:1004700095038DE069DFE60EF71E081F191FE09255
:100480009203F09293030093940310939503E090EA
:100490009603F090970300919803109199038EE0D2
:1004A00053DFE60EF71E081F191FE0929603F09225
:1004B00097030093980310939903E0909A03F090A8
:1004C0009B0300919C0310919D038FE03DDFE60E9E
:1004D000F71E081F191FE0929A03F0929B030093E6
:1004E0009C0310939D0380919E0390919F0301961E
:1004F00090939F0380939E0378941F910F91FF9098
:10050000EF900895CF92DF92EF92FF921F93182FF2
:100510006A017B0116DF82E390E0E1D410681EBD22
:100520000DB407FEFDCF8EB582E390E0D8D4C701AD
:10053000AA27BB278EBD0DB407FEFDCF8EB582E383
:1005400090E0CDD4BB27AF2D9E2D8D2D8EBD0DB44B
:1005500007FEFDCF8EB582E390E0C1D4CEBC0DB4D2
:1005600007FEFDCF8EB582E390E0B9D4E7DE1F91A0
:10057000FF90EF90DF90CF900895FF920F931F931D
:10058000182FF62E072FDDDE82E390E0A8D4106846
:100590001EBD0DB407FEFDCF8EB582E390E09FD463
:1005A0000EBD0DB407FEFDCF8EB582E390E097D46B
:1005B000FEBC0DB407FEFDCF8EB582E390E08FD474
:1005C000BDDE1F910F91FF9008958AE1BDDE84EF9B
:1005D00091E085D488E140E052E060E070E092DF95
:1005E00088EC90E07CD48CE16EE170E0C6DF88ECB2
:1005F00090E075D483E360E070E0BFDF64E670E014
:1006000080E090E013D484E360E070E0B6DF64E65D
:1006100070E080E090E00AD485E360E070E0ADDF58
:1006200064E670E080E090E001D488EC90E057C48C
:100630000F931F93182F062F84DE10681EBD0DB474
:1006400007FEFDCF8EB50EBD0DB407FEFDCF8EB5F6
:1006500075DE1F910F91089586E16CE9E9DF84EF63
:1006600091E03DD48AE170DE84EF91E038D488E1F6
:1006700040E052E060E070E045DF88EC90E02FD48D
:100680008CE16EE170E079DF88EC90E028D486E3BD
:1006900060E070E072DF64E670E080E090E0C6D376
:1006A00087E360E070E069DF64E670E080E090E09E
:1006B000BDD388E360E070E060DF64E670E080E076
:1006C00090E0B4D388EC90E00AC40F931F93DF93BB
:1006D000CF93CDB7DEB727970FB6F894DEBF0FBE26
:1006E000CDBF81EF95E00E94870B892B09F43DC0B7
:1006F0008E010F5F1F4FC80161EF75E04AE00E9455
:10070000F40E82EA93E0B8010E942610C8010E940C
:100710003B10F89482EA93E061E072E00E94300FAF
:10072000882359F099DF1092A00381E08093A10300
:1007300089EA93E067E072E012C082EA93E06DE03C
:1007400072E00E94300F882369F03FDF1092A0030F
:1007500082E08093A10389EA93E063E172E00E9462
:100760000F1002C01092A103789480919E03909183
:100770009F03C29709F081C0F89410929F031092D2
:100780009E038091A003813009F057C081EF95E06E
:1007900069EA73E00E94980E60919203709193034E
:1007A000809194039091950322E330E040E050E083
:1007B0000E94921281EF95E0BA01A9012AE030E08F
:1007C0000E945A0E81EF95E06CE20E949E0D6091AE
:1007D000960370919703809198039091990322E377
:1007E00030E040E050E00E94921281EF95E0BA01C3
:1007F000A9012AE030E00E945A0E81EF95E06CE2F8
:100800000E949E0D60919A0370919B0380919C03BE
:1008100090919D0322E330E040E050E00E9492126C
:1008200081EF95E0BA01A9012AE030E00E945A0E5A
:1008300081EF95E06CE20E94C60D10929203109237
:1008400093031092940310929503109296031092C2
:100850009703109298031092990310929A031092A2
:100860009B0310929C0310929D038091A0038F3FE5
:1008700019F08F5F8093A003789427960FB6F894B1
:10088000DEBF0FBECDBFCF91DF911F910F910895B5
:100890008DE261E090D38BE261E08DD389E261E08B
:1008A0008AD38CE161E087D355D083E042D084E0E5
:1008B0003BD081E030D081EF95E040E052EC61E048
:1008C00070E09FD66AE070E080E090E0AFD282E016
:1008D00060E071D383E060E06ED385E160E06BD3CC
:1008E0008DE261E01BD48BE261E018D489E261E023
:1008F00015D481E06DEE71E043E050E03DD080E042
:100900006CE471E043E050E037D082E060E671E0F3
:1009100043E050E031C0882319F48CB5806202C0F6
:100920008CB58F7D8CBD08959CB5937F982B9CBD15
:1009300008952CB5382F33702C7F322B3CBD2DB54C
:1009400090E0959587959595879581702E7F822B60
:100950008DBD089585E361E0E1D385E361E02BD3AC
:100960008CB580618CBD8CB580648CBD84E361E006
:1009700022D383E361E01FC3883008F078C0E82FFA
:10098000F0E0EE0FFF1FE854FC4F7183608383306B
:10099000D9F0843030F4813009F444C0823060F4FE
:1009A00039C0853051F18530D8F0863009F446C021
:1009B000873009F05CC04FC0809169008C7F842B28
:1009C00080936900E89A089580916900440F551F4B
:1009D000440F551F837F842B80936900E99A089503
:1009E0008091690074E0440F551F7A95E1F78F7C80
:1009F000842B80936900EA9A08958091690066E0EB
:100A0000440F551F6A95E1F78F73842B809369001B
:100A1000EB9A089580916A008C7F842B80936A0002
:100A2000EC9A089580916A00440F551F440F551F9A
:100A3000837F842B80936A00ED9A089580916A00E9
:100A400024E0440F551F2A95E1F78F7C842B809377
:100A50006A00EE9A089580916A0096E0440F551F4F
:100A60009A95E1F78F73842B80936A00EF9A08952B
:100A70001F920F920FB60F920BB60F9211242F9365
:100A80003F934F935F936F937F938F939F93AF9316
:100A9000BF93EF93FF938091BC039091BD03892B8B
:100AA00029F0E091BC03F091BD031995FF91EF91FE
:100AB000BF91AF919F918F917F916F915F914F9176
:100AC0003F912F910F900BBE0F900FBE0F901F9074
:100AD00018951F920F920FB60F920BB60F9211241A
:100AE0002F933F934F935F936F937F938F939F9336
:100AF000AF93BF93EF93FF938091BE039091BF0399
:100B0000892B29F0E091BE03F091BF031995FF9165
:100B1000EF91BF91AF919F918F917F916F915F9175
:100B20004F913F912F910F900BBE0F900FBE0F90E2
:100B30001F9018951F920F920FB60F920BB60F923F
:100B400011242F933F934F935F936F937F938F93D2
:100B50009F93AF93BF93EF93FF938091C0039091C6
:100B6000C103892B29F0E091C003F091C1031995CD
:100B7000FF91EF91BF91AF919F918F917F916F9175
:100B80005F914F913F912F910F900BBE0F900FBE31
:100B90000F901F9018951F920F920FB60F920BB6E1
:100BA0000F9211242F933F934F935F936F937F93F3
:100BB0008F939F93AF93BF93EF93FF938091C20363
:100BC0009091C303892B29F0E091C203F091C303F4
:100BD0001995FF91EF91BF91AF919F918F917F9167
:100BE0006F915F914F913F912F910F900BBE0F909E
:100BF0000FBE0F901F9018951F920F920FB60F9275
:100C00000BB60F9211242F933F934F935F936F93E3
:100C10007F938F939F93AF93BF93EF93FF938091B5
:100C2000B8039091B903892B29F0E091B803F091B2
:100C3000B9031995FF91EF91BF91AF919F918F915A
:100C40007F916F915F914F913F912F910F900BBECC
:100C50000F900FBE0F901F9018951F920F920FB616
:100C60000F920BB60F9211242F933F934F935F93E4
:100C70006F937F938F939F93AF93BF93EF93FF9364
:100C80008091BA039091BB03892B29F0E091BA03BC
:100C9000F091BB031995FF91EF91BF91AF919F9197
:100CA0008F917F916F915F914F913F912F910F9015
:100CB0000BBE0F900FBE0F901F9018951F920F92B2
:100CC0000FB60F920BB60F9211242F933F934F93B1
:100CD0005F936F937F938F939F93AF93BF93EF93A4
:100CE000FF938091C4039091C503892B29F0E09173
:100CF000C403F091C5031995FF91EF91BF91AF9196
:100D00009F918F917F916F915F914F913F912F9123
:100D10000F900BBE0F900FBE0F901F9018951F9253
:100D20000F920FB60F920BB60F9211242F933F9391
:100D30004F935F936F937F938F939F93AF93BF93E3
:100D4000EF93FF938091C6039091C703892B29F0FD
:100D5000E091C603F091C7031995FF91EF91BF9100
:100D6000AF919F918F917F916F915F914F913F9143
:100D70002F910F900BBE0F900FBE0F901F901895E4
:100D80001F920F920FB60F9211242F933F938F93C0
:100D90009F93AF93BF938091CC039091CD03A0918B
:100DA000CE03B091CF033091D0030196A11DB11DA8
:100DB000232F2D5F2D3720F02D570196A11DB11D3A
:100DC0002093D0038093CC039093CD03A093CE03C4
:100DD000B093CF038091C8039091C903A091CA0337
:100DE000B091CB030196A11DB11D8093C8039093D0
:100DF000C903A093CA03B093CB03BF91AF919F9156
:100E00008F913F912F910F900FBE0F901F901895CB
:100E10008FB7F8942091CC033091CD034091CE034D
:100E20005091CF038FBFB901CA0108959B01AC0156
:100E30007FB7F8948091C8039091C903A091CA0329
:100E4000B091CB0366B5A89B05C06F3F19F0019622
:100E5000A11DB11D7FBFBA2FA92F982F8827860FFC
:100E6000911DA11DB11D62E0880F991FAA1FBB1F14
:100E70006A95D1F7BC012DC0FFB7F8948091C803E3
:100E80009091C903A091CA03B091CB03E6B5A89B8A
:100E900005C0EF3F19F00196A11DB11DFFBFBA2F8C
:100EA000A92F982F88278E0F911DA11DB11DE2E05B
:100EB000880F991FAA1FBB1FEA95D1F7861B970BB6
:100EC000885E9340C8F22150304040405040685105
:100ED0007C4F211531054105510571F608950197A3
:100EE00039F0880F991F880F991F02970197F1F722
:100EF0000895789484B5826084BD84B5816084BD92
:100F000085B5826085BD85B5816085BDEEE6F0E082
:100F1000808181608083E1E8F0E0108280818260DE
:100F20008083808181608083E0E8F0E0808181605F
:100F30008083E1EBF0E0808184608083E0EBF0E08F
:100F4000808181608083E1E9F0E08081826080833C
:100F5000808181608083E0E9F0E08081816080832E
:100F6000E1EAF0E08081826080838081816080831B
:100F7000E0EAF0E0808181608083E1E2F1E080815D
:100F800082608083808181608083E0E2F1E0808103
:100F900081608083EAE7F0E08081846080838081E3
:100FA000826080838081816080838081806880838B
:100FB0001092C1000895CF93DF93482F50E0CA01EB
:100FC00088589E4FFC0134914E5C5E4FFA0184912B
:100FD000882369F190E0880F991FFC01EC51FF4FC5
:100FE000A591B491FC01E250FF4FC591D4916623C5
:100FF00051F42FB7F8948C91932F909589238C936B
:10100000888189230BC0623061F42FB7F8948C91EA
:10101000932F909589238C938881832B88832FBF6E
:1010200006C09FB7F8948C91832B8C939FBFDF9160
:10103000CF910895893009F449C08A30A0F48430F2
:1010400051F1853040F4823079F1833000F5813000
:1010500009F063C026C0873079F1883098F5863072
:1010600009F05BC025C08D3009F442C08E3028F4F1
:101070008B30B1F18C30C0F52DC0803109F442C005
:10108000813109F445C08F3009F047C037C08091E5
:1010900080008F7703C0809180008F7D80938000D7
:1010A000089584B58F7702C084B58F7D84BD08957F
:1010B0008091B0008F7703C08091B0008F7D8093C6
:1010C000B0000895809190008F7707C080919000C4
:1010D0008F7D03C080919000877F8093900008955A
:1010E0008091A0008F7707C08091A0008F7D03C002
:1010F0008091A000877F8093A000089580912001B7
:101100008F7703C0809120018F7D80932001089507
:1011100080912001877F809320010895FF920F9393
:101120001F93F62E482F50E0CA0182549E4FFC01B7
:101130002491CA0188589E4FFC0114914E5C5E4F69
:10114000FA0104910023C1F0222311F0822F72DFF3
:10115000E02FF0E0EE0FFF1FE250FF4FA591B4919A
:101160009FB7F894FF2021F48C911095812302C041
:101170008C91812B8C939FBF1F910F91FF900895AD
:1011800008951F920F920FB60F920BB60F92112473
:101190002F933F934F938F939F93EF93FF93809160
:1011A000C00082FD1DC04091C60020911104309105
:1011B00012042F5F3F4F2F73307080911304909172
:1011C00014042817390771F0E0911104F09112040A
:1011D000EF52FC4F4083309312042093110402C05D
:1011E0008091C600FF91EF919F918F914F913F9118
:1011F0002F910F900BBE0F900FBE0F901F90189560
:1012000008951F920F920FB60F920BB60F921124F2
:101210002F933F934F938F939F93EF93FF938091DF
:10122000C80082FD1DC04091CE00209199043091EC
:101230009A042F5F3F4F2F73307080919B049091E1
:101240009C042817390771F0E0919904F0919A04F1
:10125000E75AFB4F408330939A042093990402C0CD
:101260008091CE00FF91EF919F918F914F913F918F
:101270002F910F900BBE0F900FBE0F901F901895DF
:1012800008951F920F920FB60F920BB60F92112472
:101290002F933F934F938F939F93EF93FF9380915F
:1012A000D00082FD1DC04091D600209121053091D3
:1012B00022052F5F3F4F2F7330708091230590914F
:1012C00024052817390771F0E0912105F0912205D6
:1012D000EF51FB4F4083309322052093210502C03C
:1012E0008091D600FF91EF919F918F914F913F9107
:1012F0002F910F900BBE0F900FBE0F901F9018955F
:1013000008951F920F920FB60F920BB60F921124F1
:101310002F933F934F938F939F93EF93FF938091DE
:10132000300182FD1DC0409136012091A905309108
:10133000AA052F5F3F4F2F7330708091AB059091BE
:10134000AC052817390771F0E091A905F091AA05BD
:10135000E759FA4F40833093AA052093A90502C0AC
:1013600080913601FF91EF919F918F914F913F9125
:101370002F910F900BBE0F900FBE0F901F901895DE
:10138000E091FD05F091FE05E05CFF4F81919191A8
:1013900020813181821B930B8F739070892B09F010
:1013A000EFDEE0911F06F0912006E05CFF4F819197
:1013B000919120813181821B930B8F739070892BC7
:1013C00009F01EDFE0914106F0914206E05CFF4F1C
:1013D0008191919120813181821B930B8F73907049
:1013E000892B09F04DDFE0916306F0916406E05C23
:1013F000FF4F8191919120813181821B930B8F73DB
:101400009070892B09F07CCF08951F920F920FB630
:101410000F920BB60F9211242F933F938F939F93AC
:10142000EF93FF9320915504309156048091570417
:10143000909158042817390731F48091C1008F7DAD
:101440008093C10014C0E0915704F0915804EB5E02
:10145000FB4F2081809157049091580401968F731F
:10146000907090935804809357042093C600FF9186
:10147000EF919F918F913F912F910F900BBE0F9005
:101480000FBE0F901F9018951F920F920FB60F92DC
:101490000BB60F9211242F933F938F939F93EF934B
:1014A000FF932091DD043091DE048091DF04909160
:1014B000E0042817390731F48091C9008F7D8093AB
:1014C000C90014C0E091DF04F091E004E356FB4F43
:1014D00020818091DF049091E00401968F739070D9
:1014E0009093E0048093DF042093CE00FF91EF916E
:1014F0009F918F913F912F910F900BBE0F900FBE38
:101500000F901F9018951F920F920FB60F920BB667
:101510000F9211242F933F938F939F93EF93FF93F9
:101520002091650530916605809167059091680569
:101530002817390731F48091D1008F7D8093D10035
:1015400014C0E0916705F0916805EB5DFA4F2081CA
:10155000809167059091680501968F7390709093C4
:101560006805809367052093D600FF91EF919F91C6
:101570008F913F912F910F900BBE0F900FBE0F9048
:101580001F9018951F920F920FB60F920BB60F92E5
:1015900011242F933F938F939F93EF93FF93209169
:1015A000ED053091EE058091EF059091F00528173B
:1015B000390731F4809131018F7D8093310114C05E
:1015C000E091EF05F091F005E355FA4F208180910D
:1015D000EF059091F00501968F7390709093F00550
:1015E0008093EF0520933601FF91EF919F918F91AA
:1015F0003F912F910F900BBE0F900FBE0F901F9039
:101600001895AF92BF92DF92EF92FF920F931F93C4
:10161000CF93DF93EC017A018B01DD24403081EE22
:10162000580780E0680780E0780711F0DD24D39444
:1016300091E0A92EB12CEC89FD89DD2069F0C5016E
:1016400008A002C0880F991F0A94E2F7808360E027
:1016500079E08DE390E005C0108260E874E88EE1E7
:1016600090E0A80197013CD72150304040405040C5
:10167000569547953795279580E12030380720F01B
:10168000DD2011F0DD24D7CFE889F9893083EA899C
:10169000FB89208319A2EE89FF89408121E030E097
:1016A000C9010C8C02C0880F991F0A94E2F7482BDD
:1016B0004083EE89FF894081C9010D8C02C0880FEB
:1016C000991F0A94E2F7482B4083EE89FF894081F5
:1016D000C9010E8C02C0880F991F0A94E2F7482BAB
:1016E0004083EE89FF8980810F8C02C0220F331F57
:1016F0000A94E2F7209528232083DF91CF911F9150
:101700000F91FF90EF90DF90BF90AF900895DC01B4
:101710001C96ED91FC911D97E05CFF4F219131915A
:1017200080819181281B390B2F733070C901089576
:10173000DC011C96ED91FC911D97E05CFF4F208130
:101740003181E054F040DF01AE5BBF4F8D919C9141
:1017500011972817390719F42FEF3FEF07C08D9124
:101760009C91E80FF91F8081282F30E0C90108956E
:10177000DC011C96ED91FC911D97E05CFF4F2081F0
:101780003181E054F040DF01AE5BBF4F8D919C9101
:1017900011972817390719F42FEF3FEF10C08D91DB
:1017A0009C911197E80FF91F20818D919C911197C1
:1017B00001968F73907011969C938E9330E0C901BF
:1017C0000895DC0191968C919197882339F0549675
:1017D000ED91FC915597808186FFF9CF91961C92EF
:1017E0000895CF93DF93EC01EE85FF85E05CFF4F1A
:1017F00020813181E054F0402F5F3F4F2F733070D4
:10180000DF01AE5BBF4F8D919C911197281739076F
:10181000D1F3E05CFF4F80819181E054F040E80F0C
:10182000F91F6083EE85FF85E05CFF4F31832083E5
:10183000EE89FF89208181E090E00F8C02C0880F43
:10184000991F0A94E2F7282B208381E089A3EC8971
:10185000FD8980818064808381E090E0DF91CF9179
:1018600008951F931092F4051092F30528EE33E0CB
:1018700040E050E02093F5053093F6054093F705DE
:101880005093F80565E873E07093F2056093F105F5
:1018900081ED93E09093FE058093FD0585E194E052
:1018A000909300068093FF0585EC90E090930206EC
:1018B0008093010684EC90E09093040680930306E5
:1018C00080EC90E0909306068093050681EC90E012
:1018D000909308068093070682EC90E090930A06A6
:1018E0008093090686EC90E090930C0680930B069B
:1018F00014E010930D06B3E0B0930E06A7E0A0939A
:101900000F06F5E0F0931006E1E0E0931106109267
:10191000160610921506209317063093180640936A
:10192000190650931A06709314066093130689E5FE
:1019300094E09093200680931F068DE994E09093A5
:101940002206809321068DEC90E0909324068093EC
:1019500023068CEC90E0909326068093250688EC75
:1019600090E0909328068093270689EC90E090936E
:101970002A06809329068AEC90E090932C068093A7
:101980002B068EEC90E090932E0680932D061093FC
:101990002F06B0933006A0933106F0933206E09301
:1019A000330610923806109237062093390630938A
:1019B0003A0640933B0650933C067093360660937C
:1019C000350681EE94E0909342068093410685E2CD
:1019D00095E0909344068093430685ED90E09093C4
:1019E00046068093450684ED90E0909348068093E8
:1019F000470680ED90E090934A068093490681ED7A
:101A000090E090934C0680934B0682ED90E090938B
:101A10004E0680934D0686ED90E09093500680939D
:101A20004F0610935106B0935206A0935306F093BD
:101A30005406E093550610925A06109259062093C8
:101A40005B0630935C0640935D0650935E06709390
:101A500058066093570689E695E090936406809354
:101A600063068DEA95E0909366068093650685E3AC
:101A700091E0909368068093670684E391E09093E9
:101A80006A068093690680E391E090936C068093E8
:101A90006B0681E391E090936E0680936D0682E37E
:101AA00091E09093700680936F0686E391E09093A7
:101AB00072068093710610937306B0937406A09318
:101AC0007506F0937606E09377061F910895CF93FD
:101AD000DF930FDA0E944804C0ECD9E00E9465034E
:101AE0002097E1F34DDCFACFCF92DF92EF92FF9295
:101AF0000F931F93CF93DF937C016B018A01C0E0AA
:101B0000D0E00FC0D6016D916D01D701ED91FC9130
:101B10000190F081E02DC7011995C80FD91F015020
:101B200010400115110571F7CE01DF91CF911F9182
:101B30000F91FF90EF90DF90CF900895DC01ED9131
:101B4000FC910190F081E02D19950895EF92FF929C
:101B50000F931F938C01DC01ED91FC910190F081BA
:101B6000E02D6DE019957C01D801ED91FC9101907B
:101B7000F081E02DC8016AE019959C012E0D3F1DF2
:101B8000C9011F910F91FF90EF900895EF92FF927E
:101B90000F931F937C01DC01ED91FC910190F0818A
:101BA000E02D19958C01C701D1DF080F191FC8015D
:101BB0001F910F91FF90EF900895CF93DF93EC0169
:101BC0006115710519F420E030E00FC0DB010D90C4
:101BD0000020E9F71197A61BB70BE881F981028075
:101BE000F381E02DAD0119959C01C901DF91CF91E1
:101BF00008954F925F927F928F929F92AF92BF9281
:101C0000CF92DF92EF92FF920F931F93DF93CF93C8
:101C1000CDB7DEB7A1970FB6F894DEBF0FBECDBF2C
:101C20002C01742ECB01223008F42AE019A231E2F3
:101C3000C32ED12CCC0EDD1E822E9924AA24BB24C7
:101C4000672D752FA50194014BD479018A01C80134
:101C5000B701A501940125D4472D461B0894C1085E
:101C6000D1084A3014F4405D01C0495CF60140835C
:101C7000E114F1040105110521F07E2C5F2DC8014E
:101C8000DFCFC201B60199DFA1960FB6F894DEBF8F
:101C90000FBECDBFCF91DF911F910F91FF90EF90BD
:101CA000DF90CF90BF90AF909F908F907F905F908C
:101CB0004F900895CF92DF92EF92FF920F931F9370
:101CC000CF93DF93EC016A017B012115310541F4CB
:101CD000E881F9810190F081E02D642F19951DC0F4
:101CE0002A303105C9F477FF16C0E881F9810190E7
:101CF000F081E02D6DE219958C0144275527BA013A
:101D00004C195D096E097F09CE012AE072DF980146
:101D1000280F391F03C02AE06CDF9C01C901DF9145
:101D2000CF911F910F91FF90EF90DF90CF9008958A
:101D3000AF92BF92CF92DF92EF92FF920F931F93D9
:101D4000CF93DF935C016B01EE24FF24C0E0D0E071
:101D50000FC0D501ED91FC9100811181C601BE013A
:101D60006ED0682FC501F8011995E80EF91E21966D
:101D7000F60184819581C817D90758F3C701DF910F
:101D8000CF911F910F91FF90EF90DF90CF90BF9078
:101D9000AF900895CF93DF93EC013AD868877987A5
:101DA0008A879B87E881F9810680F781E02DCE0143
:101DB00019959C0197FF14C02BD8288539854A8531
:101DC0005B85621B730B840B950B2C813D814E81CF
:101DD0005F81621773078407950720F32FEF3FEFAA
:101DE000C901DF91CF910895CF92DF92FF920F93B7
:101DF0001F93CF93DF93082FF92E6B01142F6AE7FF
:101E000073E0F4D0C601C6DFBC01C12FDD27C7FDDA
:101E1000D09506C0802F9F2DA6D0C601BBDFBC0188
:101E200077FD03C06C177D07A9F7802F9F2DDF91E9
:101E3000CF911F910F91FF90DF90CF900895FC01FB
:101E4000848195816817790748F40190F081E02D2D
:101E5000309721F0E60FF71F8081089580E0089504
:101E6000DC01FB0114968D919C911597892B31F41F
:101E700061157105A9F090E0808108C00D90BC91BA
:101E8000A02D6115710529F490E08C91882349F407
:101E900007C0CD010E943C019C0190E0232B09F476
:101EA00091E0892F08950F931F93CF93DF93EC0157
:101EB0008B016F5F7F4F8881998116D2009711F453
:101EC00080E005C0998388831B830A8381E0DF91CA
:101ED000CF911F910F910895CF93DF93EC018881EB
:101EE0009981892B29F08A819B818617970758F45D
:101EF000CE01D9DF882341F08C819D81892B19F493
:101F0000E881F981108281E0DF91CF910895EF920D
:101F1000FF920F931F93CF93DF93EC017B016C81B2
:101F20007D81E114F104B9F04115510591F08A0168
:101F3000060F171FB801D0DF882369F088819981C7
:101F40002C813D81820F931FB7010E9445011D83A3
:101F50000C8381E001C080E0DF91CF911F910F9150
:101F6000FF90EF900895DF93CF930F920F92CDB72C
:101F7000DEB769831A82BE016F5F7F4F41E050E098
:101F8000C6DF0F900F90CF91DF910895CF93DF932D
:101F9000EC0188819981009709F00ED1198218828D
:101FA0001D821C821B821A82DF91CF910895EF92CD
:101FB000FF920F931F93CF93DF93EC017B018A0174
:101FC000BA018ADF882319F4CE01E0DF07C01D8340
:101FD0000C8388819981B7010E944501CE01DF9170
:101FE000CF911F910F91FF90EF900895CF93DF93C2
:101FF000EC01198218821B821A821D821C821E82A9
:102000006115710549F0DB010D900020E9F711978A
:10201000A61BB70BAD01CBDFDF91CF9108950F93D6
:102020001F93182F092F6115710551F0DB010D90D9
:102030000020E9F71197A61BB70BAD01B8DF01C06F
:10204000A5DF812F902F1F910F910895CF93DF93DC
:10205000EC01FB018617970751F0608171816115D2
:10206000710521F044815581A2DF01C08FDFCE01CF
:10207000DF91CF910895FC01808191819DC00F93E4
:102080001F93CF93DF93BC018230910510F462E07F
:1020900070E0E0917B06F0917C0640E050E0A0E02B
:1020A000B0E024C08081918186179707D0F0861711
:1020B000970771F482819381109729F013969C936E
:1020C0008E9312972CC090937C0680937B0627C03A
:1020D0004115510519F08417950718F48D01AC01CD
:1020E000EF01DF01828193819C01F9013097D1F6E4
:1020F00041155105F9F0CA01861B970B84309105F3
:1021000080F48A819B810115110521F0F8019383E8
:10211000828304C090937C0680937B06FE013296F6
:1021200045C0FE01E80FF91F6193719302979983EF
:1021300088833CC08091790690917A06892B41F47E
:1021400080917D0390917E0390937A068093790627
:1021500040917F03509180034115510541F44DB7E3
:102160005EB780917B0390917C03481B590B2091B3
:10217000790630917A0624173507B0F4CA01821B1C
:10218000930B8617970780F0AB014E5F5F4F841764
:10219000950750F0420F531F50937A0640937906EB
:1021A000F9016193719302C0E0E0F0E0CF01DF91AB
:1021B000CF911F910F910895CF93DF939C010097CA
:1021C00009F48FC0EC0122971B821A8260917B0672
:1021D00070917C066115710581F488819981820F67
:1021E000931F2091790630917A062817390739F51F
:1021F000D0937A06C093790674C0DB0140E050E0CA
:10220000AC17BD0708F1BB83AA83FE012191319170
:10221000E20FF31FAE17BF0779F48D919C911197D0
:10222000280F391F2E5F3F4F3983288312968D91D7
:102230009C9113979B838A834115510571F4D09328
:102240007C06C0937B064DC012968D919C9113978E
:10225000AD01009711F0DC01D3CFDA011396DC93C6
:10226000CE931297FA0121913191E20FF31FCE170D
:10227000DF0769F488819981280F391F2E5F3F4F4E
:10228000FA01318320838A819B8193838283E0E0FA
:10229000F0E0DB0112968D919C911397009719F055
:1022A000BC01FD01F6CFAB014E5F5F4FDB018D91AD
:1022B0009C91840F951F2091790630917A062817FA
:1022C000390779F4309729F410927C0610927B0636
:1022D00002C0138212824250504050937A064093BB
:1022E0007906DF91CF9108956F927F928F929F929E
:1022F000AF92BF92CF92DF92EF92FF920F931F9314
:10230000CF93DF938C01009721F4CB01B8DE8C01D1
:10231000B8C08EEFE82E8FEFF82EE00EF11E4801C8
:10232000860E971E8E149F0408F4A9C0D7014D9104
:102330005C91119746175707B0F04530510508F4E6
:10234000A0C0CA0104978617970708F49AC04250A4
:102350005040461B570BF401419351936D937C936E
:10236000CF012ADF8EC05B01A41AB50A3801640EC2
:10237000751EA0917B06B0917C06E0E0F0E0CC24D5
:10238000DD2447C0A615B705A9F5CD91DC911197BD
:10239000CE0102968A159B0568F1CE018A199B0928
:1023A000029612962C91129713963C91059758F02D
:1023B000F40122833383CA19DB09D183C083D70197
:1023C0006D937C9309C04E5F5F4F4C0F5D1FF7010B
:1023D00051834083C901FC01C114D10431F0D601FD
:1023E0001396FC93EE9312974CC0F0937C06E09307
:1023F0007B0647C08D919C911197E817F90708F467
:10240000FC016D0112968C91129713969C919C0180
:10241000D901109709F0B6CF8091790690917A068C
:1024200086159705E9F4E617F707D0F420917F03A6
:10243000309180032115310541F42DB73EB78091CD
:102440007B0390917C03281B390B82169306B8F40A
:1024500090927A0680927906F7017183608311C0A9
:10246000CB010DDEEC01009751F0D7014D915C914D
:10247000B8010E943301C8019FDE8E0102C000E056
:1024800010E0C801DF91CF911F910F91FF90EF9065
:10249000DF90CF90BF90AF909F908F907F906F9084
:1024A0000895629FD001739FF001829FE00DF11D9E
:1024B000649FE00DF11D929FF00D839FF00D749FBE
:1024C000F00D659FF00D9927729FB00DE11DF91F6A
:1024D000639FB00DE11DF91FBD01CF0111240895C7
:1024E000A1E21A2EAA1BBB1BFD010DC0AA1FBB1F18
:1024F000EE1FFF1FA217B307E407F50720F0A21B8A
:10250000B30BE40BF50B661F771F881F991F1A94F6
:1025100069F760957095809590959B01AC01BD0120
:10252000CF01089597FB092E05260ED057FD04D044
:10253000D7DF0AD0001C38F450954095309521958E
:102540003F4F4F4F5F4F0895F6F7909580957095E8
:1025500061957F4F8F4F9F4F0895EE0FFF1F05909E
:10256000F491E02D199412E0C8E0D2E003C0FE011E
:0E257000F6DF2296CA30D107D1F7F894FFCFDC
:10257E0000435F43414C0049524D532C00565F437C
:10258E00414C0056524D532C00537461727420729C
:10259E00656164696E6720616C6C2072656773207B
:1025AE0023232323232323232323232323232323ED
:1025BE002000307831373D00307831383D003078AA
:1025CE0031393D00307831413D00307831423D00A7
:1025DE00307831433D00307831443D00307831451C
:1025EE003D00307831463D00307832303D00307855
:1025FE0032313D00307832323D00307832333D009A
:10260E00307832343D00307832353D003078323615
:10261E003D00307832373D00307832383D0030782A
:10262E0032393D00307832413D00307832423D0043
:10263E00307832433D00307832443D0030783245B8
:10264E003D00307832463D00307833303D003078F2
:10265E0033313D00307833323D00307833333D0036
:10266E00307833343D00307833353D0030783336B2
:10267E003D00307833373D00307833383D003078C8
:10268E0033393D00307833413D00307833423D00E0
:10269E00307833433D00307833443D003078334555
:1026AE003D00307833463D00307834303D00307890
:1026BE0034313D00307834323D00307834333D00D3
:1026CE00307834343D00307834353D00307834364F
:1026DE003D00307834373D00307834383D00307866
:1026EE0037453D00307837463D000080007D0600BE
:1026FE000000000000F10B740D870BB80B980BE176
:02270E000B00BE
:00000001FF
