:1000000009C1000036C1000034C1000032C1000047
:1000100030C100002EC100002CC100002AC1000028
:1000200028C1000026C1000024C1000022C1000038
:1000300020C100001EC100001CC100001AC1000048
:1000400018C1000016C1000014C1000012C1000058
:1000500010C100000EC100000CC10000B5C70000B7
:1000600008C100004BC400007FC4000002C10000B2
:1000700000C10000FEC00000FCC00000FAC000008B
:10008000F8C00000F6C00000F4C00000F2C000009C
:10009000F0C00000EEC00000ECC00000EAC00000AC
:1000A000E8C00000E6C00000E4C00000E2C00000BC
:1000B000E0C00000DEC00000DCC00000DAC00000CC
:1000C000D8C00000D6C00000D4C00000D2C00000DC
:1000D000D0C00000CEC00000CCC00000CAC00000EC
:1000E000C8C000006602690258025C026202A002F7
:1000F0006D02710277027B027F02850289028D0206
:10010000A002930297029B0200000A0B02090C0D49
:100110000E080703040100000000000000000000BA
:1001200000000000000000000000000000000000CF
:10013000000000001211100000000000000000008C
:1001400000000000000000000000000000000102AC
:1001500010202008081020401020408002010201D9
:100160000804020101020408102040808040201091
:1001700008040201800402018040201008040201EA
:100180000804020101020408102040800102040852
:10019000102040800505050507050808080802022B
:1001A00002020A0A08080404040401010101010111
:1001B00001010303030303030303040707070C0CF4
:1001C0000C0C0C0C0C0C02020202060606060606BB
:1001D00006060B0B0B0B0B0B0B0B00002200250074
:1001E00028002B002E003100340002010000050120
:1001F00008010B0100002100240027002A002D0027
:100200003000330001010000040107010A0152011E
:10021000E604570111241FBECFEFD1E2DEBFCDBFF0
:1002200000E00CBF12E0A0E0B2E0E8EAF6E100E096
:100230000BBF02C007900D92A234B107D9F722E09C
:10024000A2E4B2E001C01D92A33FB207E1F712E0C1
:10025000C2E1D2E000E005C022970109FE010BBF18
:1002600093D7CE30D10780E00807B1F7A3D60C941E
:10027000430BC6CE26E040E052EC61E070E089E43A
:1002800092E0DCD261E0809106025BD160E0809177
:10029000060290D18FEF81B984B987B982B985B947
:1002A00088B9089562E372E083E492E052C583E482
:1002B00092E0E8C42F923F924F925F926F927F92AA
:1002C0008F929F92AF92BF92CF92DF92EF92FF9266
:1002D0000F931F93CF93DF93CDB7DEB728970FB659
:1002E000F894DEBF0FBECDBF89E492E098D1892B90
:1002F00009F4BBC04AE069E472E0CE0101969ED4E5
:10030000BE016F5F7F4F83E492E06CD5CE01019612
:10031000B9D467E072E0CE0101961BD5BE016F5FD4
:100320007F4F83E492E0F5D58C01CE010196AAD4EB
:1003300017FD9BC06CE283E492E0CDD59C013C01AB
:100340008FEF681A780AA3016CE283E492E02F83AE
:100350003887A6D57C014C018FEF881A980AA40132
:100360006CE283E492E09CD58C015C018FEFA81ACB
:10037000B80AA5016CE283E492E092D56C012C01ED
:100380008FEF481A580AA2016CE283E492E088D504
:100390001C012F8138852E153F05A4F49701A30178
:1003A00063E472E0CE010196B7D5CE010196F7D590
:1003B00062B9CE01019666D462B142E050E089E4B0
:1003C00092E0FBD3E016F106A4F49801A40163E4E3
:1003D00072E0CE010196A0D5CE010196E0D565B9B7
:1003E000CE0101964FD465B142E050E089E492E03D
:1003F000E4D30C151D050CF038C018B89601A50102
:1004000063E472E0CE01019687D5CE010196C7D58F
:1004100068B9CE01019636D468B142E050E089E473
:1004200092E0CBD39101A20163E472E0CE01019688
:1004300073D5CE010196B3D560934202CE010196E9
:1004400021D480914202811107C060E080910602B0
:10045000B1D06DE072E006C061E080910602AAD0E2
:1004600067E172E089E492E035D328960FB6F894FC
:10047000DEBF0FBECDBFDF91CF911F910F91FF90D7
:10048000EF90DF90CF90BF90AF909F908F907F9034
:100490006F905F904F903F902F90089590E0FC01F7
:1004A0003197E231F10508F04BC0EE58FF4F66C6B8
:1004B000809180008F7703C0809180008F7D809332
:1004C0008000089580918000877FF9CF84B58F7771
:1004D00002C084B58F7D84BD08958091B0008F7770
:1004E00003C08091B0008F7D8093B000089580910B
:1004F00090008F7707C0809190008F7D03C080911E
:100500009000877F8093900008958091A0008F775E
:1005100007C08091A0008F7D03C08091A000877FDD
:100520008093A0000895809120018F7707C080916B
:1005300020018F7D03C080912001877F809320015F
:100540000895CF93DF9390E0FC01E25BFE4F24918E
:10055000FC01EC56FE4F8491882349F190E0880F0E
:10056000991FFC01EC50FE4FA591B49186529E4F0D
:10057000FC01C591D4919FB7611108C0F8948C918A
:10058000209582238C93888182230AC0623051F4A3
:10059000F8948C91322F309583238C938881822B11
:1005A000888304C0F8948C91822B8C939FBFDF9139
:1005B000CF9108950F931F93CF93DF931F92CDB7E1
:1005C000DEB7282F30E0F901E85FFE4F8491F90192
:1005D000E25BFE4F1491F901EC56FE4F04910023AB
:1005E000C1F0882319F0698359DF6981E02FF0E0B9
:1005F000EE0FFF1FE652FE4FA591B4919FB7F894FE
:100600008C91611103C01095812301C0812B8C93C3
:100610009FBF0F90DF91CF911F910F910895FC0123
:10062000818D228D90E0805C9F4F821B91098F739A
:1006300099270895FC01918D828D981731F0828D54
:10064000E80FF11D858D90E008958FEF9FEF0895DD
:10065000FC01918D828D981761F0828DDF01A80FCA
:10066000B11D5D968C91928D9F5F9F73928F90E0EC
:1006700008958FEF9FEF08958DED94E0892B39F069
:1006800080E090E0892B19F098D1811125C080E09D
:1006900090E0892B41F080E090E0892B21F00E94CE
:1006A000000081111CC080E090E0892B41F080E0C7
:1006B00090E0892B21F00E940000811113C080E09E
:1006C00090E0892BA1F080E090E0892B81F00E94DE
:1006D000000081110AC008950E940000D8CF0E9436
:1006E0000000E1CF0E940000EACF0C9400000895C2
:1006F000FC01848DDF01A80FB11DA35ABF4F2C91BF
:10070000848D90E001968F739927848FA689B7898D
:100710002C93A089B1898C9180648C93938D848D66
:10072000981306C00288F389E02D80818F7D808335
:100730000895CF93DF93EC01888D8823C1F0EA8977
:10074000FB89808185FD05C0A889B9898C9186FDCA
:100750000EC00FB607FCF5CF808185FFF2CFA889C8
:10076000B9898C9185FFEDCFCE01C2DFE8CFDF9153
:10077000CF910895CF92DF92FF920F931F93CF9363
:10078000DF931F92CDB7DEB76C0181E0D60158969A
:100790008C9358975B969C915B975C968C915C9739
:1007A000981307C05096ED91FC915197808185FD7B
:1007B0002DC0F601038D10E00F5F1F4F0F7311273F
:1007C000F02EF601848DF81210C00FB607FCF9CF99
:1007D000D6015096ED91FC915197808185FFF1CF24
:1007E000C601698385DF6981ECCF838DE80FF11D38
:1007F000E35AFF4F6083D6015B960C935B9752964A
:10080000ED91FC915397808180620CC0D601569681
:10081000ED91FC91579760835096ED91FC91519723
:1008200080818064808381E090E00F90DF91CF91A0
:100830001F910F91FF90DF90CF900895BF92CF92BC
:10084000DF92EF92FF92CF93DF93EC016A017B017D
:10085000B22EE889F98982E08083411581EE58073C
:100860006105710599F060E079E08DE390E0A70102
:10087000960162D421503109410951095695479595
:1008800037952795211580E1380790F0E889F98997
:10089000108260E874E88EE190E0A70196014CD4E4
:1008A00021503109410951095695479537952795AA
:1008B000EC85FD853083EE85FF852083188EEC89DD
:1008C000FD89B082EA89FB89808180618083EA8921
:1008D000FB89808188608083EA89FB8980818068C8
:1008E0008083EA89FB8980818F7D8083DF91CF912E
:1008F000FF90EF90DF90CF90BF9008951F920F92DE
:100900000FB60F9211240BB60F922F938F939F93D4
:10091000EF93FF93E0915902F0915A028081E091A8
:100920005F02F091600282FD12C0908180916202AC
:100930008F5F8F7320916302821751F0E091620202
:10094000F0E0E75BFD4F958F8093620201C08081EC
:10095000FF91EF919F918F912F910F900BBE0F9070
:100960000FBE0F901F9018951F920F920FB60F9207
:1009700011240BB60F922F933F934F935F936F9376
:100980007F938F939F93AF93BF93EF93FF9389E4EC
:1009900092E0AEDEFF91EF91BF91AF919F918F9169
:1009A0007F916F915F914F913F912F910F900BBE6F
:1009B0000F900FBE0F901F90189589E492E02FDEE4
:1009C00021E0892B09F420E0822F089510924C0237
:1009D00010924B0288EE93E0A0E0B0E080934D02CD
:1009E00090934E02A0934F02B093500284E292E0A3
:1009F00090934A028093490285EC90E090935602CE
:100A00008093550284EC90E09093580280935702B3
:100A100080EC90E090935A028093590281EC90E030
:100A200090935C0280935B0282EC90E090935E0274
:100A300080935D0286EC90E09093600280935F0269
:100A40001092620210926302109264021092650288
:100A50000895CF92DF92EF92FF920F931F93CF935F
:100A6000DF937C016A01EB0100E010E00C151D052D
:100A700071F06991D701ED91FC910190F081E02D29
:100A8000C7011995892B19F00F5F1F4FEFCFC801D0
:100A9000DF91CF911F910F91FF90EF90DF90CF905A
:100AA00008956115710581F0DB010D900020E9F7D3
:100AB000AD0141505109461B570BDC01ED91FC91F2
:100AC0000280F381E02D199480E090E0089560E3C6
:100AD00072E0E7CF0F931F93CF93DF93EC01E1DF39
:100AE0008C01CE01F4DF800F911FDF91CF911F9118
:100AF0000F9108958F929F92AF92BF92CF92DF9203
:100B0000EF92FF920F931F93CF93DF93CDB7DEB792
:100B1000A1970FB6F894DEBF0FBECDBF7C01C42EE7
:100B2000E52FCB01D22E19A221E02D1510F02AE0DD
:100B3000D22E8E010F5D1F4F8D2C912CA12CB12C2C
:100B40006C2D7E2FA5019401F7D28C2DD29E801999
:100B50001124015011098A3014F4805D01C0895CB0
:100B6000F8018083211531054105510521F0C22E80
:100B7000E32FCA01E5CFB801C70193DFA1960FB6F5
:100B8000F894DEBF0FBECDBFDF91CF911F910F91C3
:100B9000FF90EF90DF90CF90BF90AF909F908F909D
:100BA00008952115310541F4DC01ED91FC9101908E
:100BB000F081E02D642F19949DCF0F931F93CF9355
:100BC000DF93EC019A01462F50E060E070E0E9DF2E
:100BD0008C01CE017CDF800F911FDF91CF911F919F
:100BE0000F9108950F931F93CF93DF93EC0136D2AB
:100BF000688779878A879B87E881F9810680F781F2
:100C0000E02DCE01199597FF14C028D208851985CB
:100C10002A853B85601B710B820B930B0C811D8118
:100C20002E813F81601771078207930728F38FEFAA
:100C30009FEFDF91CF911F910F910895EF92FF9257
:100C40000F931F93CF93DF93EC018B01E42E62E3AC
:100C500072E07FD0C801C6DFFF24E7FCF09497FD67
:100C600009C08E159F0531F0682FCE0106D1C8014D
:100C7000B9DFF5CFCE01DF91CF911F910F91FF909A
:100C8000EF900895FC01808191811AC3CF93DF9387
:100C9000EC0188819981009709F012D3198218829A
:100CA0001D821C821B821A82DF91CF9108950F93BF
:100CB0001F93CF93DF93EC018B016F5F7F4F888190
:100CC00099818DD3009731F0998388831B830A83A0
:100CD00081E001C080E0DF91CF911F910F910895D5
:100CE000CF93DF93EC0188819981892B29F08A8148
:100CF0009B818617970758F4CE01D9DF882341F0EE
:100D00008C819D81892B19F4E881F981108281E021
:100D1000DF91CF910895EF92FF920F931F93CF939E
:100D2000DF93EC017B018A01BA01DADF811103C094
:100D3000CE01ACDF06C01D830C83B7018881998189
:100D40006CD4CE01DF91CF911F910F91FF90EF9066
:100D50000895FC011182108213821282158214827E
:100D60006115710551F0FB0101900020E9F7AF0119
:100D700041505109461B570BCECF08950F931F9337
:100D8000CF93DF938C01EB01FC018081918100976F
:100D900089F0428153812C813D814217530748F0ED
:100DA000688179813AD48C819D81F801958384830F
:100DB00012C086D288819981F801918380838A81CB
:100DC0009B81938382838C819D8195838483198207
:100DD00018821B821A821D821C82DF91CF911F9183
:100DE0000F910895CF93DF93EC018617970709F0D1
:100DF000C5DFCE01DF91CF910895CF93DF93EC0152
:100E00006115710559F0FB0101900020E9F7AF0170
:100E100041505109461B570B7EDF01C037DFCE0121
:100E2000DF91CF910895EF92FF920F931F93CF938D
:100E3000DF93EC017B010C811D816115710511F4BB
:100E400080E014C04115510581F0040F151FB80151
:100E500047DF8823A9F3288139818C819D81B701DF
:100E6000820F931FDAD31D830C8381E0DF91CF9132
:100E70001F910F91FF90EF900895CF93DF931F92F2
:100E80001F92CDB7DEB769831A8241E050E0BE0100
:100E90006F5F7F4FC8DF0F900F90DF91CF91089564
:100EA000CF93DF93FC01848195814817590770F433
:100EB000C081D181772767FD7095CE01840F951F82
:100EC000A1D3009719F08C1B9D0B02C08FEF9FEFF1
:100ED000DF91CF91089540E050E0E2CFCF93DF93D0
:100EE000FC01848195814817590770F4C081D18134
:100EF000FB0160817181CE01840F951F95D300970E
:100F000019F08C1B9D0B02C08FEF9FEFDF91CF91EB
:100F1000089540E050E0E2CFBF92CF92DF92EF928F
:100F2000FF920F931F93CF93DF936C017B01EA0134
:100F300089012417350720F48D2FE901042F182F7C
:100F400062E372E0C60105DFD70114968D919C9192
:100F50001597C817D907C0F48017910708F48C01BA
:100F6000D701ED91FC911197E00FF11FB080108235
:100F70006D917C916C0F7D1FC6013FDFD701ED9114
:100F8000FC91E00FF11FB082C601DF91CF911F915C
:100F90000F91FF90EF90DF90CF90BF900895FC01EC
:100FA00080819181009709F0FEC260E070E0CB0182
:100FB000089508955FD0FDDF5DD9CCE3D3E07AD901
:100FC0002097E9F359DBFBCF1F920F920FB60F92D8
:100FD00011242F933F938F939F93AF93BF9380914F
:100FE000E7029091E802A091E902B091EA02309103
:100FF000E60223E0230F2D3720F40196A11DB11D39
:1010000005C026E8230F0296A11DB11D2093E6021C
:101010008093E7029093E802A093E902B093EA027A
:101020008091EB029091EC02A091ED02B091EE0262
:101030000196A11DB11D8093EB029093EC02A09349
:10104000ED02B093EE02BF91AF919F918F913F91CE
:101050002F910F900FBE0F901F9018952FB7F894F7
:101060006091E7027091E8028091E9029091EA02B2
:101070002FBF0895789484B5826084BD84B5816063
:1010800084BD85B5826085BD85B5816085BDEEE690
:10109000F0E0808181608083E1E8F0E0108280816F
:1010A00082608083808181608083E0E8F0E08081DD
:1010B00081608083E1EBF0E0808184608083E0EBFD
:1010C000F0E0808181608083E1E9F0E080818260EE
:1010D0008083808181608083E0E9F0E080818160AD
:1010E0008083E1EAF0E0808182608083808181609A
:1010F0008083E0EAF0E0808181608083E1E2F1E0DA
:10110000808182608083808181608083E0E2F1E081
:10111000808181608083EAE7F0E080818460808361
:10112000808182608083808181608083808180680B
:1011300080831092C1000895A1E21A2EAA1BBB1B46
:10114000FD010DC0AA1FBB1FEE1FFF1FA217B30793
:10115000E407F50720F0A21BB30BE40BF50B661FA9
:10116000771F881F991F1A9469F76095709580956D
:1011700090959B01AC01BD01CF010895EE0FFF1FBB
:101180000590F491E02D19940790F691E02D1994B3
:10119000CF93DF938230910510F482E090E0E091EC
:1011A000F102F091F20220E030E0A0E0B0E03097F0
:1011B00039F14081518148175907B8F0481759074C
:1011C00071F482819381109729F013969C938E93EA
:1011D00012972CC09093F2028093F10227C0211540
:1011E000310531F04217530718F0A901DB0101C0A6
:1011F000EF019A01BD01DF010280F381E02DD7CF1D
:1012000021153105F9F0281B390B2430310580F404
:101210008A819B816115710521F0FB019383828393
:1012200004C09093F2028093F102FE01329644C012
:10123000FE01E20FF31F819391932250310939830C
:1012400028833AC02091EF023091F002232B41F421
:1012500020910202309103023093F0022093EF02BA
:1012600020910002309101022115310541F42DB782
:101270003EB74091040250910502241B350BE091CA
:10128000EF02F091F002E217F307A0F42E1B3F0BE0
:101290002817390778F0AC014E5F5F4F24173507E8
:1012A00048F04E0F5F1F5093F0024093EF0281937E
:1012B000919302C0E0E0F0E0CF01DF91CF9108957B
:1012C000CF93DF93009709F487C0FC013297138214
:1012D0001282C091F102D091F202209781F4208114
:1012E0003181280F391F8091EF029091F00282170F
:1012F000930779F5F093F002E093EF026DC0DE0101
:1013000020E030E0AE17BF0750F412964D915C918B
:1013100013979D014115510509F1DA01F3CFB3830C
:10132000A28340815181840F951F8A179B0771F416
:101330008D919C911197840F951F029691838083C4
:1013400012968D919C911397938382832115310579
:1013500029F4F093F202E093F1023EC0D901139612
:10136000FC93EE9312974D915D91A40FB51FEA1770
:10137000FB0779F480819181840F951F0296D90132
:1013800011969C938E938281938113969C938E9356
:101390001297E0E0F0E08A819B81009719F0FE014E
:1013A000EC01F9CFCE01029628813981820F931F7B
:1013B0002091EF023091F0022817390769F4309735
:1013C00029F41092F2021092F10202C013821282EA
:1013D000D093F002C093EF02DF91CF9108956F9206
:1013E0007F928F929F92AF92BF92CF92DF92EF92B5
:1013F000FF920F931F93CF93DF93EC01CB012097C4
:1014000079F4DF91CF911F910F91FF90EF90DF90D2
:10141000CF90BF90AF909F908F907F906F90B8CEFD
:10142000FE01E60FF71F9E0122503109E217F30774
:1014300008F4A8C0D9010D911C9111970617170740
:10144000B0F00530110508F49BC0A80144505109C3
:101450004617570708F494C002501109061B170BD2
:10146000019311936D937C93CF012ADF89C05B01B7
:10147000A01AB10A4E01800E911EA091F102B09106
:10148000F202612C712C60E070E0109709F449C001
:10149000A815B905C9F5ED90FC901197670142E0D8
:1014A000C40ED11CCA14DB0478F147018A189B08CA
:1014B000640142E0C40ED11C1296BC9012971396A0
:1014C000AC91B5E0CB16D10440F0B282A3839182F7
:1014D0008082D9018D939C9309C00E5F1F4F0E0D22
:1014E0001F1DF90111830083EB2DFA2F6115710582
:1014F00031F0DB011396FC93EE93129741C0F09309
:10150000F202E093F1023CC06D917C911197661656
:10151000770608F43B01BD0112960D90BC91A02DF9
:10152000B4CF6091EF027091F00268157905E9F48B
:1015300068167906D0F440910002509101024115DD
:10154000510541F44DB75EB76091040270910502F8
:10155000461B570BE417F507A8F4F093F002E0934D
:10156000EF02F901918380830BC012DE7C010097AA
:1015700049F0A801BE013DD0CE01A2DEC70104C0E2
:10158000CE0102C080E090E0DF91CF911F910F91DA
:10159000FF90EF90DF90CF90BF90AF909F908F9093
:1015A0007F906F9008951F93FC0199278827BC01B5
:1015B000E89411911032E9F3193010F01E30C8F39D
:1015C0001B3249F01D3241F4689405C047D0610FC9
:1015D000711D811D911D119110531A30B8F33EF405
:1015E00090958095709561957F4F8F4F9F4F1F917C
:1015F0000895FB01DC0102C001900D924150504062
:10160000D8F70895FC018191861721F08823D9F736
:10161000992708953197CF010895FB01DC010190CE
:101620000D920020E1F70895FB0151915523A9F097
:10163000BF01DC014D9145174111E1F759F4CD018E
:101640000190002049F04D9140154111C9F3FB0173
:101650004111EFCF81E090E001970895592F482F75
:10166000372F262F660F771F881F991F660F771F4A
:10167000881F991F620F731F841F951F660F771FA6
:10168000881F991F089512E0C2E1D2E000E005C072
:1016900022970109FE010BBF77DDC431D10780E03D
:0816A0000807B1F7F894FFCF31
:1016A8000000F302800008434F4E312C0054726949
:1016B8006163204F4646005472696163204F4E00B3
:1016C80000000000BA0329050F0328031A03990331
:1016D8000D0A006E616E00696E66006F7666002EF8
:0216E800000000
:00000001FF
