:1000000074C000009EC000009CC000009AC00000A8
:1000100098C0000096C0000094C0000092C000008C
:1000200090C000008EC000008CC000008AC000009C
:1000300088C0000086C0000084C0000082C00000AC
:1000400080C000007EC000007CC000007AC00000BC
:1000500078C0000076C0000074C000000C94890BCA
:1000600070C00000CEC1000010C300006AC00000D4
:1000700068C0000066C0000064C0000062C00000EC
:1000800060C000005EC000005CC000005AC00000FC
:10009000F8C1000039C3000054C0000052C0000085
:1000A00050C000004EC000004CC000004AC000001C
:1000B00048C0000046C0000044C0000042C000002C
:1000C00040C000003EC000003CC000001AC200005A
:1000D0005AC3000036C0000054C2000093C30000A1
:1000E00030C000002C017105270111241FBECFEF85
:1000F000D1E2DEBFCDBF00E00CBF12E0A0E0B2E075
:10010000E8E2F9E100E00BBF02C007900D92A032D7
:10011000B107D9F71BBE14E0A0E2B2E001C01D9206
:10012000AC3DB107E1F710E0C8EED0E004C0229783
:10013000FE010E94840CC43ED107C9F708D60C9476
:10014000880C5ECF1F93FC0199278827BC01E89497
:1001500011911032E9F3193010F01E30C8F31B3240
:1001600049F01D3241F4689405C047D0610F711DFC
:10017000811D911D119110531A30B8F33EF49095E2
:100180008095709561957F4F8F4F9F4F1F91089578
:10019000FB01DC0102C001900D9241505040D8F7A4
:1001A0000895FC018191861721F08823D9F79927BA
:1001B00008953197CF010895FB01DC0101900D9264
:1001C0000020E1F70895FB0151915523A9F0BF01EB
:1001D000DC014D9145174111E1F759F4CD01019032
:1001E000002049F04D9140154111C9F3FB01411127
:1001F000EFCF81E090E001970895592F482F372FD6
:10020000262F660F771F881F991F660F771F881F7D
:10021000991F620F731F841F951F660F771F881F1A
:10022000991F08958130910541F46F5F7F4F71F4FC
:1002300080E292E060E072E0CCC7892B39F46F5F16
:100240007F4F21F480E292E00C947309089580E0DE
:1002500090E06FEF7FEFE6CF81E090E06FEF7FEF10
:10026000E1CF4F925F926F927F928F929F92AF9267
:10027000BF92CF92DF92EF92FF920F931F93DF9383
:10028000CF93CDB7DEB7A3970FB6F894DEBF0FBEFE
:10029000CDBF87E494E07BD3892B09F48BC08E011A
:1002A0000F5F1F4FC80167E474E04AE075D680E233
:1002B00092E0B8010E945E09C8010E9473098E0194
:1002C000085F1F4FC80161E072E083D780E292E0CF
:1002D000B801BAD67C01C8010E947309F7FC6AC054
:1002E00080E292E06CE2D0D68C015C010894A11C03
:1002F000B11C80E292E06CE2A501A9D67C014C0120
:100300000894811C911C80E292E06CE2A4019FD6CB
:100310006C012C010894411C511C80E292E06CE2BB
:10032000A20195D63C010E151F05A4F48E01015FB4
:100330001F4FC80160E272E0A50197017AD7C8019A
:1003400056D662B9C801CFD762B187E494E042E0E3
:1003500050E0DCD5EC14FD04A4F48E010A5E1F4FBE
:10036000C80160E272E0A401960163D7C8013FD6DC
:1003700065B9C801B8D765B187E494E042E050E0C0
:10038000C5D5C614D704B4F48FEF88B98E01035EC7
:100390001F4FC80160E272E0A20193014AD7C80171
:1003A00026D668B9C8019FD768B187E494E042E0D7
:1003B00050E0ACD5A3960FB6F894DEBF0FBECDBF0C
:1003C000CF91DF911F910F91FF90EF90DF90CF9031
:1003D000BF90AF909F908F907F906F905F904F9065
:1003E000089587E494E040E052EC61E070E049D287
:1003F0008FEF81B984B987B912B815B818B80895C4
:1004000008951F920F920FB60F920BB60F92112400
:100410002F933F934F938F939F93EF93FF938091ED
:10042000C00082FD1DC04091C6002091670230913E
:1004300068022F5F3F4F2F73307080916902909157
:100440006A022817390771F0E0916702F09168029B
:10045000E95DFD4F4083309368022093670202C03C
:100460008091C600FF91EF919F918F914F913F91A5
:100470002F910F900BBE0F900FBE0F901F901895ED
:1004800008951F920F920FB60F920BB60F92112480
:100490002F933F934F938F939F93EF93FF9380916D
:1004A000C80082FD1DC04091CE002091EF02309126
:1004B000F0022F5F3F4F2F7330708091F1029091C7
:1004C000F2022817390771F0E091EF02F091F00283
:1004D000E155FD4F40833093F0022093EF0202C0BC
:1004E0008091CE00FF91EF919F918F914F913F911D
:1004F0002F910F900BBE0F900FBE0F901F9018956D
:1005000008951F920F920FB60F920BB60F921124FF
:100510002F933F934F938F939F93EF93FF938091EC
:10052000D00082FD1DC04091D6002091770330910C
:1005300078032F5F3F4F2F73307080917903909134
:100540007A032817390771F0E0917703F091780367
:10055000E95CFC4F4083309378032093770302C01B
:100560008091D600FF91EF919F918F914F913F9194
:100570002F910F900BBE0F900FBE0F901F901895EC
:1005800008951F920F920FB60F920BB60F9211247F
:100590002F933F934F938F939F93EF93FF9380916C
:1005A000300182FD1DC0409136012091FF03309142
:1005B00000042F5F3F4F2F733070809101049091A2
:1005C00002042817390771F0E091FF03F09100044D
:1005D000E154FC4F4083309300042093FF0302C09A
:1005E00080913601FF91EF919F918F914F913F91B3
:1005F0002F910F900BBE0F900FBE0F901F9018956C
:10060000E0915304F0915404E05CFF4F819191918B
:1006100020813181821B930B8F739070892B09F09D
:10062000EFDEE0917504F0917604E05CFF4F81917C
:10063000919120813181821B930B8F739070892B54
:1006400009F01EDFE0919704F0919804E05CFF4F01
:100650008191919120813181821B930B8F739070D6
:10066000892B09F04DDFE091B904F091BA04E05C08
:10067000FF4F8191919120813181821B930B8F7368
:100680009070892B09F07CCF08951F920F920FB6BE
:100690000F920BB60F9211242F933F938F939F933A
:1006A000EF93FF932091AB023091AC028091AD02A9
:1006B0009091AE022817390731F48091C1008F7DE7
:1006C0008093C10014C0E091AD02F091AE02E559F3
:1006D000FD4F20818091AD029091AE0201968F7303
:1006E00090709093AE028093AD022093C600FF916C
:1006F000EF919F918F913F912F910F900BBE0F9093
:100700000FBE0F901F9018951F920F920FB60F9269
:100710000BB60F9211242F933F938F939F93EF93D8
:10072000FF932091330330913403809135039091EE
:1007300036032817390731F48091C9008F7D8093E3
:10074000C90014C0E0913503F0913603ED50FD4F20
:100750002081809135039091360301968F739070BC
:1007600090933603809335032093CE00FF91EF9151
:100770009F918F913F912F910F900BBE0F900FBEC5
:100780000F901F9018951F920F920FB60F920BB6F5
:100790000F9211242F933F938F939F93EF93FF9387
:1007A0002091BB033091BC038091BD039091BE03A7
:1007B0002817390731F48091D1008F7D8093D100C3
:1007C00014C0E091BD03F091BE03E558FC4F2081B9
:1007D0008091BD039091BE0301968F7390709093AA
:1007E000BE038093BD032093D600FF91EF919F91AC
:1007F0008F913F912F910F900BBE0F900FBE0F90D6
:100800001F9018951F920F920FB60F920BB60F9272
:1008100011242F933F938F939F93EF93FF932091F6
:100820004304309144048091450490914604281774
:10083000390731F4809131018F7D8093310114C0EB
:10084000E0914504F0914604ED5FFB4F20818091DB
:1008500045049091460401968F73907090934604DE
:100860008093450420933601FF91EF919F918F91E2
:100870003F912F910F900BBE0F900FBE0F901F90C6
:100880001895AF92BF92DF92EF92FF920F931F9352
:10089000CF93DF93EC017A018B01DD24403081EEB0
:1008A000580780E0680780E0780711F0DD24D394D2
:1008B00091E0A92EB12CEC89FD89DD2069F0C501FC
:1008C00008A002C0880F991F0A94E2F7808360E0B5
:1008D00079E08DE390E005C0108260E874E88EE175
:1008E00090E0A8019701ECD72150304040405040A3
:1008F000569547953795279580E12030380720F0A9
:10090000DD2011F0DD24D7CFE889F9893083EA8929
:10091000FB89208319A2EE89FF89408121E030E024
:10092000C9010C8C02C0880F991F0A94E2F7482B6A
:100930004083EE89FF894081C9010D8C02C0880F78
:10094000991F0A94E2F7482B4083EE89FF89408182
:10095000C9010E8C02C0880F991F0A94E2F7482B38
:100960004083EE89FF8980810F8C02C0220F331FE4
:100970000A94E2F7209528232083DF91CF911F91DD
:100980000F91FF90EF90DF90BF90AF900895DC0142
:100990001C96ED91FC911D97E05CFF4F21913191E8
:1009A00080819181281B390B2F733070C901089504
:1009B000DC011C96ED91FC911D97E05CFF4F2081BE
:1009C0003181E054F040DF01AE5BBF4F8D919C91CF
:1009D00011972817390719F42FEF3FEF07C08D91B2
:1009E0009C91E80FF91F8081282F30E0C9010895FC
:1009F000DC011C96ED91FC911D97E05CFF4F20817E
:100A00003181E054F040DF01AE5BBF4F8D919C918E
:100A100011972817390719F42FEF3FEF10C08D9168
:100A20009C911197E80FF91F20818D919C9111974E
:100A300001968F73907011969C938E9330E0C9014C
:100A40000895DC0191968C919197882339F0549602
:100A5000ED91FC915597808186FFF9CF91961C927C
:100A60000895CF93DF93EC01EE85FF85E05CFF4FA7
:100A700020813181E054F0402F5F3F4F2F73307061
:100A8000DF01AE5BBF4F8D919C91119728173907FD
:100A9000D1F3E05CFF4F80819181E054F040E80F9A
:100AA000F91F6083EE85FF85E05CFF4F3183208373
:100AB000EE89FF89208181E090E00F8C02C0880FD1
:100AC000991F0A94E2F7282B208381E089A3EC89FF
:100AD000FD8980818064808381E090E0DF91CF9107
:100AE00008951F9310924A041092490428EE33E0AF
:100AF00040E050E020934B0430934C0440934D046D
:100B000050934E0463E172E070934804609347048D
:100B100087E292E090935404809353048BE692E032
:100B2000909356048093550485EC90E0909358047C
:100B30008093570484EC90E090935A048093590476
:100B400080EC90E090935C0480935B0481EC90E0F7
:100B500090935E0480935D0482EC90E09093600437
:100B600080935F0486EC90E090936204809361042C
:100B700014E010936304B3E0B0936404A7E0A0937F
:100B80006504F5E0F0936604E1E0E09367041092F9
:100B90006C0410926B0420936D0430936E044093A8
:100BA0006F045093700470936A04609369048FEA31
:100BB00092E0909376048093750483EF92E0909393
:100BC0007804809377048DEC90E090937A0480937E
:100BD00079048CEC90E090937C0480937B0488EC07
:100BE00090E090937E0480937D0489EC90E0909354
:100BF000800480937F048AEC90E090938204809339
:100C000081048EEC90E0909384048093830410938D
:100C10008504B0938604A0938704F0938804E0933E
:100C2000890410928E0410928D0420938F043093C7
:100C30009004409391045093920470938C046093B9
:100C40008B0487E393E090939804809397048BE759
:100C500093E090939A048093990485ED90E09093AB
:100C60009C0480939B0484ED90E090939E04809379
:100C70009D0480ED90E09093A00480939F0481ED0B
:100C800090E09093A2048093A10482ED90E0909371
:100C9000A4048093A30486ED90E09093A60480932F
:100CA000A5041093A704B093A804A093A904F093FB
:100CB000AA04E093AB041092B0041092AF04209306
:100CC000B1043093B2044093B3045093B4047093CE
:100CD000AE046093AD048FEB93E09093BA048093DD
:100CE000B90483E094E09093BC048093BB0485E353
:100CF00091E09093BE048093BD0484E391E09093CF
:100D0000C0048093BF0480E391E09093C204809379
:100D1000C10481E391E09093C4048093C30482E30F
:100D200091E09093C6048093C50486E391E090938C
:100D3000C8048093C7041093C904B093CA04A09355
:100D4000CB04F093CC04E093CD041F910895CF938E
:100D5000DF9335D546DBC0E0D3E083DA2097E9F3B3
:100D60004FDCFBCFCF92DF92EF92FF920F931F9356
:100D7000CF93DF937C016B018A01C0E0D0E00FC00C
:100D8000D6016D916D01D701ED91FC910190F0813B
:100D9000E02DC7011995C80FD91F0150104001154A
:100DA000110571F7CE01DF91CF911F910F91FF9047
:100DB000EF90DF90CF900895EF92FF920F931F93E3
:100DC0008C01DC01ED91FC910190F081E02D6DE052
:100DD00019957C01D801ED91FC910190F081E02DF5
:100DE000C8016AE019959C012E0D3F1DC9011F9194
:100DF0000F91FF90EF900895CF93DF93EC01611571
:100E0000710519F420E030E00FC0DB010D900020E7
:100E1000E9F71197A61BB70BE881F9810280F381EE
:100E2000E02DAD0119959C01C901DF91CF91089585
:100E30004F925F927F928F929F92AF92BF92CF928A
:100E4000DF92EF92FF920F931F93DF93CF93CDB773
:100E5000DEB7A1970FB6F894DEBF0FBECDBF2C0151
:100E6000742ECB01223008F42AE019A231E2C32EFD
:100E7000D12CCC0EDD1E822E9924AA24BB24672DF2
:100E8000752FA50194011CD579018A01C801B7010C
:100E9000A5019401F6D4472D461B0894C108D1083A
:100EA0004A3014F4405D01C0495CF6014083E1140E
:100EB000F1040105110521F07E2C5F2DC801DFCF63
:100EC000C201B60199DFA1960FB6F894DEBF0FBE3E
:100ED000CDBFCF91DF911F910F91FF90EF90DF90E9
:100EE000CF90BF90AF909F908F907F905F904F90EA
:100EF0000895DC012115310541F4ED91FC9101903B
:100F0000F081E02D642F1995089592CFCF92DF9252
:100F1000EF92FF920F931F936C01E62E9A01FF242C
:100F200000E010E0B801A701E4DF8C01C60144DF56
:100F3000080F191FC8011F910F91FF90EF90DF90CC
:100F4000CF900895CF93DF93EC012BD468877987F6
:100F50008A879B87E881F9810680F781E02DCE01A1
:100F600019959C0197FF14C01CD4288539854A85A2
:100F70005B85621B730B840B950B2C813D814E812D
:100F80005F81621773078407950720F32FEF3FEF08
:100F9000C901DF91CF910895CF92DF92FF920F9315
:100FA0001F93CF93DF93082FF92E6B01142F67E067
:100FB00072E00FD1C601C6DFBC01C12FDD27C7FD1E
:100FC000D09506C0802F9F2DC1D0C601BBDFBC01CC
:100FD00077FD03C06C177D07A9F7802F9F2DDF9148
:100FE000CF911F910F91FF90DF90CF900895FC015A
:100FF00080819181009729F420E030E040E050E0CA
:1010000003C0A0D89B01AC01B901CA010895CF93D8
:10101000DF93FC01DB01848195814817590758F45F
:10102000C081D1816D917C91CE01840F951FCBD869
:101030009C01009719F42FEF3FEF02C02C1B3D0BD2
:10104000C901DF91CF91089540E050E0E0CFCF9308
:10105000DF93FC01848195814817590760F4C081B2
:10106000D181772767FD7095CE01840F951F99D8A0
:101070009C01009719F42FEF3FEF02C02C1B3D0B92
:10108000C901DF91CF91089540E050E0E0CF0F9388
:101090001F93CF93DF93EC018B016F5F7F4F8881AC
:1010A00099815AD2009711F480E005C09983888312
:1010B0001B830A8381E0DF91CF911F910F910895E7
:1010C000CF93DF93EC0188819981892B29F08A8164
:1010D0009B818617970758F4CE01D9DF882341F00A
:1010E0008C819D81892B19F4E881F981108281E03E
:1010F000DF91CF910895EF92FF920F931F93CF93BB
:10110000DF93EC017B016C817D81E114F104B1F08E
:101110004115510589F08A01060F171FB801D0DF6C
:10112000882361F0888199812C813D81820F931FF2
:10113000B70142D81D830C8381E001C080E0DF91BC
:10114000CF911F910F91FF90EF900895DF93CF9370
:101150000F920F92CDB7DEB769831A82BE016F5F1F
:101160007F4F41E050E0C7DF0F900F90CF91DF91AC
:101170000895CF93DF93EC0188819981009709F05E
:1011800053D1198218821D821C821B821A82DF9120
:10119000CF910895EF92FF920F931F93CF93DF9318
:1011A000EC017B018A01BA018BDF882319F4CE019F
:1011B000E0DF07C01D830C8388819981B7010E94FD
:1011C000DC00CE01DF91CF911F910F91FF90EF9046
:1011D0000895CF93DF93EC01198218821B821A8243
:1011E0001D821C821E826115710549F0DB010D9084
:1011F0000020E9F71197A61BB70BAD01CBDFDF91FC
:10120000CF9108950F931F93182F092F6115710522
:1012100051F0DB010D900020E9F71197A61BB70BE9
:10122000AD01B8DF01C0A5DF812F902F1F910F9175
:101230000895BF92CF92DF92EF92FF920F931F9388
:10124000CF93DF93082FB92E6B017A01E9012417A0
:10125000350710F4EA017901802F9B2D68E072E0D8
:10126000B8DFD60114968D919C9115978E159F0528
:10127000C8F08C179D0708F4EC01D601ED91FC91A4
:101280001197EC0FFD1F108110826D917C916E0DF6
:101290007F1D802F9B2DB6DFD601ED91FC91EC0FC9
:1012A000FD1F1083802F9B2DDF91CF911F910F91F8
:1012B000FF90EF90DF90CF90BF900895CF93DF9392
:1012C000EC01FB018617970751F060817181611570
:1012D000710521F0448155815DDF01C04ADFCE01F7
:1012E000DF91CF910895FC01808191819DC00F9382
:1012F0001F93CF93DF93BC018230910510F462E01D
:1013000070E0E091DA04F091DB0440E050E0A0E00E
:10131000B0E024C08081918186179707D0F08617AE
:10132000970771F482819381109729F013969C930B
:101330008E9312972CC09093DB048093DA0427C01D
:101340004115510519F08417950718F48D01AC016A
:10135000EF01DF01828193819C01F9013097D1F681
:1013600041155105F9F0CA01861B970B8430910590
:1013700080F48A819B810115110521F0F801938386
:10138000828304C09093DB048093DA04FE013296DA
:1013900045C0FE01E80FF91F61937193029799838D
:1013A00088833CC08091D8049091D904892B41F462
:1013B00080910B0290910C029093D9048093D804F1
:1013C00040910D0250910E024115510541F44DB767
:1013D0005EB78091090290910A02481B590B209137
:1013E000D8043091D90424173507B0F4CA01821B00
:1013F000930B8617970780F0AB014E5F5F4F841702
:10140000950750F0420F531F5093D9044093D804CE
:10141000F9016193719302C0E0E0F0E0CF01DF9148
:10142000CF911F910F910895CF93DF939C01009767
:1014300009F48FC0EC0122971B821A826091DA04B2
:101440007091DB046115710581F488819981820FA7
:10145000931F2091D8043091D9042817390739F502
:10146000D093D904C093D80474C0DB0140E050E0AD
:10147000AC17BD0708F1BB83AA83FE01219131910E
:10148000E20FF31FAE17BF0779F48D919C9111976E
:10149000280F391F2E5F3F4F3983288312968D9175
:1014A0009C9113979B838A834115510571F4D093C6
:1014B000DB04C093DA044DC012968D919C91139772
:1014C000AD01009711F0DC01D3CFDA011396DC9364
:1014D000CE931297FA0121913191E20FF31FCE17AB
:1014E000DF0769F488819981280F391F2E5F3F4FEC
:1014F000FA01318320838A819B8193838283E0E098
:10150000F0E0DB0112968D919C911397009719F0F2
:10151000BC01FD01F6CFAB014E5F5F4FDB018D914A
:101520009C91840F951F2091D8043091D9042817DD
:10153000390779F4309729F41092DB041092DA0419
:1015400002C013821282425050405093D9044093FB
:10155000D804DF91CF9108956F927F928F929F92DE
:10156000AF92BF92CF92DF92EF92FF920F931F93B1
:10157000CF93DF938C01009721F4CB01B8DE8C016F
:10158000B8C08EEFE82E8FEFF82EE00EF11E480166
:10159000860E971E8E149F0408F4A9C0D7014D91A2
:1015A0005C91119746175707B0F04530510508F484
:1015B000A0C0CA0104978617970708F49AC0425042
:1015C0005040461B570BF401419351936D937C930C
:1015D000CF012ADF8EC05B01A41AB50A3801640E60
:1015E000751EA091DA04B091DB04E0E0F0E0CC24B9
:1015F000DD2447C0A615B705A9F5CD91DC9111975B
:10160000CE0102968A159B0568F1CE018A199B09C5
:10161000029612962C91129713963C91059758F0CA
:10162000F40122833383CA19DB09D183C083D70134
:101630006D937C9309C04E5F5F4F4C0F5D1FF701A8
:1016400051834083C901FC01C114D10431F0D6019A
:101650001396FC93EE9312974CC0F093DB04E09347
:10166000DA0447C08D919C911197E817F90708F4A7
:10167000FC016D0112968C91129713969C919C011E
:10168000D901109709F0B6CF8091D8049091D90470
:1016900086159705E9F4E617F707D0F420910D02B7
:1016A00030910E022115310541F42DB73EB78091DE
:1016B000090290910A02281B390B82169306B8F48E
:1016C0009092D9048092D804F7017183608311C08D
:1016D000CB010DDEEC01009751F0D7014D915C91EB
:1016E000B8010E94C800C8019FDE8E0102C000E060
:1016F00010E0C801DF91CF911F910F91FF90EF9003
:10170000DF90CF90BF90AF909F908F907F906F9021
:1017100008951F920F920FB60F9211242F933F93AB
:101720008F939F93AF93BF938091D3049091D404F0
:10173000A091D504B091D6043091D7040196A11D93
:10174000B11D232F2D5F2D3720F02D570196A11DA0
:10175000B11D2093D7048093D3049093D404A09315
:10176000D504B093D6048091CF049091D004A09179
:10177000D104B091D2040196A11DB11D8093CF0474
:101780009093D004A093D104B093D204BF91AF91B1
:101790009F918F913F912F910F900FBE0F901F90AF
:1017A00018958FB7F8942091D3043091D4044091C8
:1017B000D5045091D6048FBFB901CA010895789419
:1017C00084B5826084BD84B5816084BD85B5826046
:1017D00085BD85B5816085BDEEE6F0E080818160E4
:1017E0008083E1E8F0E010828081826080838081E4
:1017F00081608083E0E8F0E0808181608083E1EBBC
:10180000F0E0808184608083E0EBF0E080818160A3
:101810008083E1E9F0E08081826080838081816063
:101820008083E0E9F0E0808181608083E1EAF0E09C
:10183000808182608083808181608083E0EAF0E043
:10184000808181608083E1E2F1E080818260808339
:10185000808181608083E0E2F1E08081816080832B
:10186000EAE7F0E080818460808380818260808309
:101870008081816080838081806880831092C10034
:101880000895629FD001739FF001829FE00DF11DCA
:10189000649FE00DF11D929FF00D839FF00D749FEA
:1018A000F00D659FF00D9927729FB00DE11DF91F96
:1018B000639FB00DE11DF91FBD01CF0111240895F3
:1018C000A1E21A2EAA1BBB1BFD010DC0AA1FBB1F44
:1018D000EE1FFF1FA217B307E407F50720F0A21BB6
:1018E000B30BE40BF50B661F771F881F991F1A9423
:1018F00069F760957095809590959B01AC01BD014D
:10190000CF010895EE0FFF1F0590F491E02D19947B
:1019100010E0C8EED0E003C0FE01F6DF2296CA3E1A
:08192000D107D1F7F894FFCFC5
:1019280000434F4E312C0000008000DC0400000012
:101938000000003105B206C704F804D804210500E8
:00000001FF
