:100000000C94A1080C9449420C9474420C949F42A5
:100010000C94CA420C94F5420C9420430C944B432C
:100020000C9476430C94D2080C94D2080C94D20809
:100030000C94D2080C94D2080C94D2080C94D208D8
:100040000C94D2080C94D2080C94D2080C94D208C8
:100050000C94EA400C94D2080C94D2080C94A1435E
:100060000C94D2080C9407470C943D470C94D2088A
:100070000C94D2080C94D2080C94D2080C94D20898
:100080000C94D2080C94D2080C94D2080C94D20888
:100090000C94D2080C94D2080C94D2080C94D20878
:1000A0000C94D2080C94D2080C94D2080C94D20868
:1000B0000C94D2080C94D2080C94D2080C94D20858
:1000C0000C94D2080C94D2080C94D2080C94D20848
:1000D0000C94D2080C94D2080C94B2470C94E847C4
:1000E0000C94D2082342ED41F54101420E422F42C9
:1000F0003C42C644C944B844BC44C2440045CD4413
:10010000D144D744DB44DF44E544E944ED440045B1
:10011000F344F744FB44434F4E4E454354494F4E3E
:1001200020434C4F53454400526561647920666F0B
:100130007220726561642066726F6D2073657276DD
:100140006572004C617374206572726F72436F75D3
:100150006E74657220004A6C616E6B6120506F771F
:100160006572204C6F67005374617274696E67200A
:100170007468652050726F67000000000000000086
:100180005F00000007000700147F147F14242A7FFB
:100190002A122313086462364955225000050300D1
:1001A00000001C2241000041221C0014083E0814DB
:1001B00008083E0808005030000008080808080039
:1001C0006060000020100804023E5149453E004294
:1001D0007F400042615149462141454B311814127C
:1001E0007F1027454545393C4A4949300171090589
:1001F000033649494936064949291E00363600006A
:10020000005636000008142241001414141414007F
:10021000412214080201510906324979413E7E11FA
:1002200011117E7F494949363E414141227F41417A
:10023000221C7F494949417F090909013E41494939
:100240007A7F0808087F00417F41002040413F013C
:100250007F081422417F404040407F020C027F7F94
:100260000408107F3E4141413E7F090909063E4195
:1002700051215E7F09192946464949493101017FCB
:1002800001013F4040403F1F2040201F3F40384079
:100290003F63140814630708700807615149454318
:1002A000007F41410002040810200041417F00040A
:1002B000020102044040404040000102040020547A
:1002C0005454787F484444383844444420384444A3
:1002D000487F3854545418087E0901020C52525277
:1002E0003E7F0804047800447D40002040443D00E7
:1002F0007F1028440000417F40007C041804787C73
:100300000804047838444444387C1414140808144D
:1003100014187C7C080404084854545420043F44B6
:1003200040203C4040207C1C2040201C3C40304071
:100330003C44281028440C5050503C4464544C44D5
:1003400000083641007F4141417F7F7F7F7F7F10E2
:10035000080810087846414678510A380A200A0BE6
:100360000AF809DA09C209C009BE09AA099A098D61
:10037000097909630945092D091509F108D708C04C
:1003800008A6087E085C084B0827081608F307CD66
:1003900007A707830769075207400732071C0702B0
:1003A00007EE06DA06CB06B7069C068706860685A4
:1003B0000684068306820681068006750666065652
:1003C0000645063606250614060306F205E105D0A5
:1003D00005BF05AE059D058B0578056A0558054BDB
:1003E000053A0520051E050A05F904E904DA04D9D1
:1003F00004D804D704D604D504D404D304D204D139
:1004000004D004CF04CE04CD04CC04CB04CA04C968
:1004100004C804C704C604C504C404C304C204C198
:1004200004C004BF04BE04BD04BC04BB04BA04B9C8
:1004300004B804B704B604B504B404B304B204B1F8
:1004400004B004AF04AE04AD04AC04AB04AA04A928
:1004500004A804A704A604A504A404A304A204A158
:1004600004A0049F049E049D049C049B049A049988
:1004700004980497049604950494049304920491B8
:10048000048B048504494E464F3200494E464F3195
:10049000000000000000000000000000000000005C
:1004A000000000000000000000000000000000004C
:1004B000000000000000000000000000000000003C
:1004C000000000000000000000000000000000002C
:1004D00000000000000000000000204552524F5272
:1004E000205365727665722000204552524F52208B
:1004F000434950534855542000204552524F5220F2
:100500004347415454203D203100204552524F5220
:1005100020434950434C4F5345203D20310020009B
:10052000204552524F522043495053544152542077
:100530003D2049502C504F525400204552524F52AA
:100540002043494653522020495000204552524FE3
:100550005220434949524300204552524F522043B2
:10056000535454203D2041504E00204552524F528A
:100570002043474143543F00204552524F522043AD
:1005800049504D4F4445203D203100204552524FA7
:1005900052204349504D5558203D203000204552AF
:1005A000524F522043495053544154555300204513
:1005B00052524F52204349505354415455530020F6
:1005C0004552524F522043495053544154555300C1
:1005D000204552524F522043495053544154555391
:1005E00000204552524F52204349505354415455D4
:1005F0005300204552524F522043495053544154C6
:10060000555300204552524F5220434950535441B4
:1006100054555300204552524F5220434950535491
:100620004154555300204552524F52204349505394
:10063000544154555300204552524F522043524585
:10064000473F202000204552524F522043524547F9
:10065000203D20312000204552524F522041542B42
:1006600043434C4B2000204552524F522041542BC3
:100670004353512000204552524F522041542000F4
:1006800000000000000000204552524F522043500D
:100690004253203D20534D20204F4B0020455252C5
:1006A0004F522043504D53203D20534D2C534D2C41
:1006B000534D20204F4B00204552524F5220434E65
:1006C0004D49203D203120204F4B00204552524FB4
:1006D000522043535120204F4B00204552524F523D
:1006E00020434D4746203D203120204F4B002045E0
:1006F00052524F5220434C5453203D203120204F22
:100700004B00204552524F52204350494E3F20202B
:100710004350494E3A2052454144590020455252D7
:100720004F5220495052203D203936303020204F42
:100730004B00204552524F52205A20204F4B200050
:10074000204552524F522043495053454E44202099
:100750003E00204552524F5220434950535052546C
:10076000203D203120204F4B00204552524F522037
:1007700043495053454E443F202043495020534560
:100780004E4400204552524F522043495053544149
:10079000545553202053544154453A20434F4E4E14
:1007A000454354204F4B00204552524F522043495D
:1007B000505354415254203D2049502C504F5254D4
:1007C0002020434F4E4E454354204F4B002045526E
:1007D000524F522043444E53434647203D20382E2B
:1007E000382E382E382E2C382E382E342E34202009
:1007F0004F4B00204552524F5220434950535441D1
:10080000545553202053544154453A2049502053C5
:10081000544154555300204552524F5220434946AB
:1008200053522020495000204552524F52204349F4
:1008300050535441545553202053544154453A2069
:100840004950204750525341435400204552524F83
:100850005220434949524320204F4B0020455252D9
:100860004F52204349505354415455532020535420
:100870004154453A20495020535441525400204598
:1008800052524F522043535454203D2041504E2C3D
:10089000555345524E414D452C50415353574F529D
:1008A0004420204F4B00204552524F522043474195
:1008B00043543F202043474143543A20313B3100C9
:1008C000204552524F52204347414354203D20314E
:1008D0002C3220204F4B00204552524F522043478C
:1008E0004143543F202043474143543A20312C3068
:1008F00000204552524F52204349505354415455C1
:1009000053202053544154453A20495020494E49E0
:100910005449414C00204552524F522043495053B4
:10092000485554202053485554204F4B00204552E1
:10093000524F5220435245473F2020435245473AA9
:1009400020312C3100204552524F5220434744431E
:100950004F4E54203D20322C49502C41504E2020E7
:100960004F4B00204552524F52204349504D55584D
:10097000203D203020204F4B00204552524F522026
:1009800043524547203D203120204F4B0020455207
:10099000524F52204154204F4B00204552524F524B
:1009A0002047534D2054494D4500204552524F5247
:1009B0002044454C4554494E4720534D5300200098
:1009C000200020494E464F2047534D20504F574559
:1009D00052204F4E20444F4E4500204552524F5218
:1009E0002047534D204552524F52204F56455220DA
:1009F000434F554E54454400204552524F522047D4
:100A0000534D205354415455532000204552524FCA
:100A1000522052454144204B20454550524F4D00F5
:100A2000204552524F522057524954452044415478
:100A300041204F4E20534400204552524F52204CEB
:100A40004F4144494E4720434F4E462046494C456E
:100A50000020494E464F20506F776572204F6E0040
:100A6000E20ED00EBE0EAD0E9B0E8B0E7A0E6A0EEF
:100A7000580E470E310E280E1B0E100E040EF80DE8
:100A8000F60DEC0DE40DDE0DD60DCF0DC70DBF0D2F
:100A9000B70DB30DB00DAD0DAB0D960D8F0D8C0DCB
:100AA000830D7A0D710D680D5F0D560D4D0D440DC2
:100AB0003B0D320D290D200D170D0E0D050DFC0CF3
:100AC000F30CEA0CE10CD80CCF0CC60CBD0CB40C2A
:100AD000AB0CA20C990C900C870C7E0C750C6C0C5A
:100AE000630C5A0C510C480C3F0C360C2D0C240C8A
:100AF0001B0C120C090C000CF70BEE0BE50BDC0BBE
:100B0000D30BCA0BC10BB80BAF0BA60B9D0B940BF1
:100B10008B0B820B790B700B670B5E0B550B4C0B21
:100B2000430B3A0B310B280B537472696E672035F7
:100B300000537472696E67203500537472696E6772
:100B4000203500537472696E6720350053747269E2
:100B50006E67203500537472696E672035005374D8
:100B600072696E67203500537472696E67203500B4
:100B7000537472696E67203500537472696E672012
:100B80003500537472696E67203500537472696E54
:100B900067203500537472696E6720350053747294
:100BA000696E67203500537472696E672035005393
:100BB0007472696E67203500537472696E672035F0
:100BC00000537472696E67203500537472696E67E2
:100BD000203500537472696E672035005374726952
:100BE0006E67203500537472696E67203500537448
:100BF00072696E67203500537472696E6720350024
:100C0000537472696E67203500537472696E672081
:100C10003500537472696E67203500537472696EC3
:100C200067203500537472696E6720350053747203
:100C3000696E67203500537472696E672035005302
:100C40007472696E67203500537472696E6720355F
:100C500000537472696E67203500537472696E6751
:100C6000203500537472696E6720350053747269C1
:100C70006E67203500537472696E672035005374B7
:100C800072696E67203500537472696E6720350093
:100C9000537472696E67203500537472696E6720F1
:100CA0003500537472696E67203500537472696E33
:100CB00067203500537472696E6720350053747273
:100CC000696E67203500537472696E672035005372
:100CD0007472696E67203500537472696E672035CF
:100CE00000537472696E67203500537472696E67C1
:100CF000203500537472696E672035005374726931
:100D00006E67203500537472696E67203500537426
:100D100072696E67203500537472696E6720350002
:100D2000537472696E67203500537472696E672060
:100D30003500537472696E67203500537472696EA2
:100D400067203500537472696E67203500537472E2
:100D5000696E67203500537472696E6720350053E1
:100D60007472696E67203500537472696E6720353E
:100D700000537472696E67203500537472696E6730
:100D8000203500537472696E672035004F4B002B7D
:100D9000434D47523A00484156452052455354412D
:100DA0005254204D455353414745003E004F4B00A0
:100DB0004F4B002B2B2B005345525645523A0053B4
:100DC000485554204F4B00434F4E4E454354002B43
:100DD0004353513A20002B43434C4B3A2000455299
:100DE000524F520053454E44204F4B002B43495025
:100DF00053454E443A002E002B43474143543A207A
:100E0000312C31002B43474143543A20312C3000E0
:100E10002B435245473A20312C31002B4350494E49
:100E20003A20524541445900434C4F5345204F4BC3
:100E30000053544154453A2054435020434F4E4EA2
:100E4000454354494E470053544154453A20495074
:100E500020434F4E4649470053544154453A20548D
:100E6000435020434C4F53454400414C524541446C
:100E70005920434F4E4E4543540053544154453A34
:100E8000205044502044454143540053544154455C
:100E90003A20495020535441525400535441544530
:100EA0003A20495020475052534143540053544133
:100EB00054453A20495020535441545553005354FB
:100EC0004154453A20434F4E4E454354204F4B002A
:100ED00053544154453A20495020494E49544941C0
:100EE0004C004F4B0000000A0B02090C0D0E0807C6
:100EF00003040100000000000000000000000000EA
:100F000000000000000000000000000000000000E1
:100F1000001211100000000000000000000000009E
:100F2000000000000000000000000001021020206E
:100F3000080810204010204080020102010804022D
:100F400001010204081020408080402010080402A3
:100F500001800402018040201008040201080402FC
:100F60000101020408102040800102040810204002
:100F70008005050505070508080808020202020A9F
:100F80000A0808040404040101010101010101032C
:100F900003030303030303040707070C0C0C0C0CE7
:100FA0000C0C0C0202020206060606060606060BDA
:100FB0000B0B0B0B0B0B0B00002000230026002952
:100FC000002C002F0032000001000003010601097F
:100FD0000100002200250028002B002E00310034E3
:100FE0000002010000050108010B0100002100249E
:100FF0000027002A002D003000330001010000040A
:101000000107010A014E414E494E495459494E4685
:10101000CDCCCC3D0AD7233C17B7D13877CC2B3277
:101020009595E6241FB14F0A000020410000C842F8
:1010300000401C4620BCBE4CCA1B0E5AAEC59D7457
:1010400000407A10F35A00A0724E18090010A5D47F
:10105000E80000E87648170000E40B54020000CADC
:101060009A3B000000E1F505000080969800000022
:1010700040420F000000A086010000001027000081
:101080000000E803000000006400000000000A0007
:10109000000000000100000000002C76D888DC670A
:1010A0004F0823DFC1DFAE59E1B1B796E5E3E45362
:1010B000C63AE651997696E8E6C28426EB898C9B7F
:1010C00062ED407C6FFCEFBC9C9F40F2BAA56FA51F
:1010D000F490055A2AF75C936B6CF9676DC11BFCA1
:1010E000E0E40D47FEF520E6B500D0ED902E0300BC
:1010F000943577050080841E080000204E0A000009
:1011000000C80C333333330F986E12831141EF8DC7
:101110002114893BE65516CFFEE6DB18D1844B3807
:101120001BF77C1D901DA4BBE424203284725E2238
:101130008100C9F124ECA1E53D270A336F471A4825
:101140003E3311241FBECFEFD1E2DEBFCDBF00E0A2
:101150000CBF18E0A0E0B2E0ECE1F7EB00E00BBF61
:1011600002C007900D92A034B107D9F72EE0A0E499
:10117000B8E001C01D92A43DB207E1F711E1C0E45F
:10118000D1E100E006C022970109FE010BBF0E94D9
:101190003D51CA33D10780E00807A9F70E94A64E47
:1011A0000C947C5B0C9400000F931F938091070DAF
:1011B0009091080DA091090DB0910A0D4091030D79
:1011C0005091040D6091050D7091060D8C019D01EB
:1011D000041B150B260B370B0B3F110521053105A1
:1011E000D0F03091F50C2091F60C321314C080939E
:1011F000030D9093040DA093050DB093060D60E0D0
:101200008DE20E943A458091F50C8F5F8093F50C3A
:1012100081E0809306028091F50C853010F01092E9
:10122000F50C1F910F91089589EE9BE00E94DF4A13
:101230008FEE9BE00E94DF4A8BEC9CE00E94DF4A2D
:1012400085EC9CE00E94DF4A8FEB9CE00E94DF4A25
:101250008FEE9CE00E94DF4A8BE09DE00E94DF4A17
:1012600088E19DE00E94DF4A8EE19DE00C94DF4A18
:101270000C94D4568EBD00000DB407FEFDCF8EB584
:1012800008959CB5937F982B9CBD08952CB5982FFD
:1012900093702C7F922B9CBD9DB582FB882780F993
:1012A0009E7F982B9DBD089546E75BE16DE470E05D
:1012B00084E89DE00E947D412FEF3FEFA90166E7A2
:1012C00079E084E89DE00C948C41ECE5FCE08FEF44
:1012D00081939CE0EB38F907D9F781E08093D70C34
:1012E0008091120D8F5F8093120D08952091D10C83
:1012F0002F5F2093D10C8091DB0C9091DC0CA0919E
:10130000DD0CB091DE0C0596A11DB11D8093DB0CA8
:101310009093DC0CA093DD0CB093DE0C2C3098F095
:101320008091D20C8F5F8093D20C8091140D90919C
:10133000150D01969093150D8093140D81E0809307
:10134000D80C1092D10C8091D20C853018F0BDDFF2
:101350001092D20C089561E081E30E94014561E0A2
:101360008CE10E94014561E08BE10E94014561E052
:1013700088E10E94014561E08DE20E94014561E043
:101380008AE10E94014560E08EE30E94014560E031
:1013900088E20E94014560E086E30E94014561E029
:1013A00086E20E94014561E087E30E94014560E01A
:1013B0008BE20E94014561E084E30E94014560E008
:1013C00082E30E94014561E083E30E94014561E000
:1013D00081E30E943A4561E08CE10E943A4561E078
:1013E0008BE10E943A4561E088E10E943A4560E065
:1013F0008DE20E943A4560E08AE10C943A45EF9212
:10140000FF920F931F93CF93DF93182F042FF52E86
:10141000D62FE72ECAE08FEF2DDFC150E1F760E055
:101420008BE10E943A45812F806424DF8E2D22DFDC
:101430008D2F20DF8F2D1EDF802F1CDF85E91ADF27
:101440008FEF18DFD82F8F3F11F4C150C9F761E03B
:101450008BE10E943A458D2FDF91CF911F910F9123
:10146000FF90EF900895CF93DF930E94A54180E015
:1014700008DF8CB58F7D8CBD82E008DFCFEFD0E038
:1014800040E050E0BA0180E0BADF2197E9F0813016
:10149000B9F7CFEFD0E040E050E0BA0181E0AFDF34
:1014A0002197A1F08111F7CFCBE0D0E040E052E0EE
:1014B00060E070E080E1A3DF219721F08111F6CF99
:1014C00080E005C088E003C081E001C082E0DF91D8
:1014D000CF910895CF92DF92EF92FF920F931F93D7
:1014E000CF93DF936B017C018A01BDDFC82F80E0C1
:1014F000CDDEC11138C089E0CC0CDD1CEE1CFF1C18
:101500008A95D1F7CBE0D0E0B701A60181E177DF82
:10151000219759F18111F8CF60E08BE10E943A45A3
:10152000CAE5D2E08FEFA6DE8E3F21F02197D1F7FA
:1015300084E01CC0E801E12CF12C8FEF9BDE899345
:101540008FEFE81AF80AE11482E0F806B1F78FEF9E
:1015500091DE8FEF8FDE8FEF8DDE61E08BE10E94F9
:101560003A4580E003C08C2F01C083E0DF91CF912A
:101570001F910F91FF90EF90DF90CF900895CF9241
:10158000DF92EF92FF920F931F93CF93DF936B0144
:101590007C018A0168DFC82F80E078DEC11150C06D
:1015A00099E0CC0CDD1CEE1CFF1C9A95D1F7C0E035
:1015B000D0E0B701A60188E122DF2196CB30D1052A
:1015C00009F43CC08111F5CF60E08BE10E943A45FF
:1015D0008EEF50DE7801C12CD12CF70181917F0173
:1015E00049DEFFEFCF1ADF0AC11422E0D206A9F7C5
:1015F0008FEF40DE8FEF3EDE8FEF3CDE8F71853068
:1016000061F061E08BE10E943A4586E01AC0CE01AC
:101610000196C136DA4E30F4EC018FEF2BDE8823D1
:10162000B1F306C061E08BE10E943A4587E009C052
:1016300061E08BE10E943A4580E003C085E001C093
:101640008C2FDF91CF911F910F91FF90EF90DF9042
:10165000CF90089584E015DE60E08CE10E943A4569
:1016600080E014DE82E390E00C94404461E08CE181
:101670000E943A4582E390E00E94404480E001CE1F
:10168000CF93DF931F921F92CDB7DEB76A83898312
:10169000E1DF89818068EEDD6A81862FEBDD0F90C6
:1016A0000F90DF91CF91E2CF1F93CF93DF931F92E3
:1016B0001F92CDB7DEB7182F6A837983CBDF82E321
:1016C00090E00E944044812F8068D4DD82E390E066
:1016D0000E9440447981872FCDDD82E390E00E9413
:1016E00040446A81862FC6DD82E390E00E94404438
:1016F0000F900F90DF91CF911F91B8CF1F93CF9391
:10170000DF9300D0CDB7DEB7182F4B835A836983A0
:10171000A1DF82E390E00E944044812F8068AADD2F
:1017200082E390E00E9440446981862FA3DD82E33A
:1017300090E00E9440445A81852F9CDD82E390E036
:101740000E9440444B81842F95DD82E390E00E940B
:1017500040440F900F900F90DF91CF911F9186CF53
:10176000CF93DF931F92CDB7DEB7898373DF898173
:1017700081DD8FEF7FDD898379DF89810F90DF91B4
:10178000CF910895CF93DF93C82F64DF82E390E079
:101790000E9440448C2F6EDD82E390E00E94404422
:1017A00080E068DDC82F82E390E00E94404480E042
:1017B00061DDD82F82E390E00E94404457DF8D2FF7
:1017C00090E09C2BDF91CF9108950F931F93CF93BF
:1017D000182F40DF82E390E00E944044812F4ADDD1
:1017E00082E390E00E94404480E044DD182F82E3D1
:1017F00090E00E94404480E03DDD082F82E390E0CD
:101800000E94404480E036DDC82F82E390E00E94D1
:1018100040442CDF6C2F70E080E090E0812B10E0E2
:10182000102F002720E030E0602B712B822B932BB0
:10183000CF911F910F910895EF92FF920F931F93F5
:10184000CF93DF93CDB7DEB76F970FB6F894DEBFB7
:101850000FBECDBFCE0101967C0102E81FE0C8019A
:1018600007DD682FC80101966F8F02DD6F8DF701CC
:1018700060838183F2E0EF0EF11C4AE050E0782FA4
:1018800084E99DE00E94AC490E5F1F4F003A8FE053
:10189000180729F7CE014F96FE01319640E02191BD
:1018A0003191121613060CF441E0E817F907B9F765
:1018B000442309F4BCC08E010F5F1F4F93E3F8016E
:1018C000619171918F01892F9F8FEEDE9F8D9F5FB8
:1018D0009234A9F764E083E1D3DE88EC90E00E94C3
:1018E00040446CEF84E1CCDE88EC90E00E94404400
:1018F00060E085E1C5DE88EC90E00E9440446CE940
:1019000086E1BEDE88EC90E00E94404468E787E113
:10191000B7DE88EC90E00E94404440E050E0BA011D
:1019200088E1ECDE88EC90E00E9440446FEF7FEFAE
:101930008BE1BADE88EC90E00E9440446FEF7FEFCD
:101940008CE1B2DE88EC90E00E9440446FEF8DE1C4
:1019500097DE88EC90E00E94404460E08EE190DEEB
:1019600088EC90E00E9440446FEF8FE189DE88ECC4
:1019700090E00E9440446FEF80E282DE88EC90E0CD
:101980000E94404460E078E08AE28EDE88EC90E0DD
:101990000E94404460E078E08BE286DE88EC90E0D4
:1019A0000E94404460E078E08CE27EDE88EC90E0CB
:1019B0000E94404460E078E080E376DE88EC90E0CE
:1019C0000E94404460E078E081E36EDE88EC90E0C5
:1019D0000E94404460E078E082E366DE88EC90E0BC
:1019E0000E94404460E078E08DE25EDE88EC90E0AA
:1019F0000E94404460E078E08EE256DE88EC90E0A1
:101A00000E94404460E078E08FE24EDE88EC90E097
:101A10000E9440446F960FB6F894DEBF0FBECDBF54
:101A2000DF91CF911F910F91FF90EF900895CE011C
:101A300001967C0102E81FE0C8011ADC682FC8018A
:101A400001966F8F15DC6F8DF70160838183F2E063
:101A5000EF0EF11C4AE050E0782F84E99DE00E94EF
:101A6000AC490E5F1F4F003A8FE0180729F78E012F
:101A70000F5F1F4F93E3F801619171918F01892FDF
:101A80009F8F12DE9F8D9F5F9234A9F723CF0F9314
:101A90001F93CF93DF938B01D82FC92F20E030E025
:101AA00040E85FE30E94695087FF10C020E030E00B
:101AB00040E85FEBB8018D2F9C2F0E941A4F18163B
:101AC0004CF008E411EEDAE7CFEB04C008E411EEC5
:101AD000DAE7CFE3B8018D2F9C2FDF91CF911F91D3
:101AE0000F910895CF92DF92EF92FF920F931F9381
:101AF000DC01FB01C080D180E280F380A701772761
:101B000057FD7095672F0D911D912D913C91139765
:101B1000F7FE14C04F5F5F4F6F4F7F4F400F511F55
:101B2000621F731F4D935D936D937C931397808118
:101B30009181A281B381AF6FBF6F0FC0400F511F62
:101B4000621F731F4D935D936D937C9313978081F8
:101B50009181A281B381AA27BB2780839183A2832D
:101B6000B3831F910F91FF90EF90DF90CF90089576
:101B7000CF93DF93C091160DD091170D1C161D0643
:101B80000CF0D5C12091E30A3091E40A4091E50AB6
:101B90005091E60A6091C70B7091C80B8091C90BF8
:101BA0009091CA0B0E94B64E6093C70B7093C80BFE
:101BB0008093C90B9093CA0B2091E70A3091E80AF1
:101BC0004091E90A5091EA0A6091CB0B7091CC0BDD
:101BD0008091CD0B9091CE0B0E94B64E6093CB0BB3
:101BE0007093CC0B8093CD0B9093CE0B2091EB0A8E
:101BF0003091EC0A4091ED0A5091EE0A6091CF0BC2
:101C00007091D00B8091D10B9091D20B0E94B64E67
:101C10006093CF0B7093D00B8093D10B9093D20B2A
:101C20002091D70A3091D80A4091D90A5091DA0A06
:101C30006091BB0B7091BC0B8091BD0B9091BE0B62
:101C40000E94B64E6093BB0B7093BC0B8093BD0B90
:101C50009093BE0B2091DB0A3091DC0A4091DD0AA3
:101C60005091DE0A6091BF0B7091C00B8091C10B47
:101C70009091C20B0E94B64E6093BF0B7093C00B45
:101C80008093C10B9093C20B2091DF0A3091E00A40
:101C90004091E10A5091E20A6091C30B7091C40B2C
:101CA0008091C50B9091C60B0E94B64E6093C30BFA
:101CB0007093C40B8093C50B9093C60B2091570B68
:101CC0003091580B4091590B50915A0B60917F0BFA
:101CD0007091800B8091810B9091820B0E94B64E87
:101CE00060937F0B7093800B8093810B9093820B9A
:101CF0002091530B3091540B4091550B5091560B42
:101D00006091830B7091840B8091850B9091860B71
:101D10000E94B64E6093830B7093840B8093850B67
:101D20009093860B20914F0B3091500B4091510BAB
:101D30005091520B6091870B7091880B8091890BA9
:101D400090918A0B0E94B64E6093870B7093880B1C
:101D50008093890B90938A0B2091630B3091640BD5
:101D60004091650B5091660B6091730B7091740BF1
:101D70008091750B9091760B0E94B64E6093730B19
:101D80007093740B8093750B9093760B20915F0B7F
:101D90003091600B4091610B5091620B6091770B19
:101DA0007091780B8091790B90917A0B0E94B64ECE
:101DB0006093770B7093780B8093790B90937A0BE9
:101DC00020915B0B30915C0B40915D0B50915E0B51
:101DD00060917B0B70917C0B80917D0B90917E0BC1
:101DE0000E94B64E60937B0B70937C0B80937D0BAF
:101DF00090937E0B20914B0B30914C0B40914D0BEF
:101E000050914E0B60918B0B70918C0B80918D0BD0
:101E100090918E0B0E94B64E60938B0B70938C0B3F
:101E200080938D0B90938E0B2091470B3091480B34
:101E30004091490B50914A0B60918F0B7091900B20
:101E40008091910B9091920B0E94B64E60938F0BF4
:101E50007093900B8093910B9093920B2091430B76
:101E60003091440B4091450B5091460B6091930B80
:101E70007091940B8091950B9091960B0E94B64EA9
:101E80006093930B7093940B8093950B9093960BA8
:101E90002091EF0A3091F00A4091F10A5091F20A34
:101EA0006091D30B7091D40B8091D50B9091D60B90
:101EB0000E94B64E6093D30B7093D40B8093D50BD6
:101EC0009093D60B2091F30A3091F40A4091F50AD1
:101ED0005091F60A6091D70B7091D80B8091D90B75
:101EE0009091DA0B0E94B64E6093D70B7093D80B8B
:101EF0008093D90B9093DA0B2091F70A3091F80A6E
:101F00004091F90A5091FA0A6091DB0B7091DC0B59
:101F10008091DD0B9091DE0B0E94B64E6093DB0B3F
:101F20007093DC0B8093DD0B9093DE0B20C18091CE
:101F3000E30A9091E40AA091E50AB091E60A809341
:101F4000C70B9093C80BA093C90BB093CA0B809199
:101F5000E70A9091E80AA091E90AB091EA0A809311
:101F6000CB0B9093CC0BA093CD0BB093CE0B809169
:101F7000EB0A9091EC0AA091ED0AB091EE0A8093E1
:101F8000CF0B9093D00BA093D10BB093D20B809139
:101F9000D70A9091D80AA091D90AB091DA0A809311
:101FA000BB0B9093BC0BA093BD0BB093BE0B809169
:101FB000DB0A9091DC0AA091DD0AB091DE0A8093E1
:101FC000BF0B9093C00BA093C10BB093C20B809139
:101FD000DF0A9091E00AA091E10AB091E20A8093B1
:101FE000C30B9093C40BA093C50BB093C60B809109
:101FF000570B9091580BA091590BB0915A0B8093AD
:102000007F0B9093800BA093810BB093820B8091F8
:10201000530B9091540BA091550BB091560B80939C
:10202000830B9093840BA093850BB093860B8091C8
:102030004F0B9091500BA091510BB091520B80938C
:10204000870B9093880BA093890BB0938A0B809198
:10205000630B9091640BA091650BB091660B80931C
:10206000730B9093740BA093750BB093760B8091C8
:102070005F0B9091600BA091610BB091620B80930C
:10208000770B9093780BA093790BB0937A0B809198
:102090005B0B90915C0BA0915D0BB0915E0B8093FC
:1020A0007B0B90937C0BA0937D0BB0937E0B809168
:1020B0004B0B90914C0BA0914D0BB0914E0B80931C
:1020C0008B0B90938C0BA0938D0BB0938E0B809108
:1020D000470B9091480BA091490BB0914A0B80930C
:1020E0008F0B9093900BA093910BB093920B8091D8
:1020F000430B9091440BA091450BB091460B8093FC
:10210000930B9093940BA093950BB093960B8091A7
:10211000EF0A9091F00AA091F10AB091F20A80932F
:10212000D30B9093D40BA093D50BB093D60B809187
:10213000F30A9091F40AA091F50AB091F60A8093FF
:10214000D70B9093D80BA093D90BB093DA0B809157
:10215000F70A9091F80AA091F90AB091FA0A8093CF
:10216000DB0B9093DC0BA093DD0BB093DE0B219681
:10217000D093170DC093160DDF91CF9108954F9214
:102180005F926F927F928F929F92AF92BF92CF9207
:10219000DF92EF92FF92CF93DF93CDB7DEB7E09758
:1021A0000FB6F894DEBF0FBECDBF6091070D7091E2
:1021B000080D8091090D90910A0DC090FF0CD090F0
:1021C000000DE090010DF090020D6C197D098E0953
:1021D0009F090E94B74F6B017C016091C30A709107
:1021E000C40A882777FD8095982F0E94B94F20E078
:1021F00030E040E85DE30E946D506093DF0B709328
:10220000E00B8093E10B9093E20B6091B10A709127
:10221000B20A8091B30A9091B40A0E94B94F2091FA
:10222000780D3091790D40917A0D50917B0D0E947F
:102230001E4F6093E30A7093E40A8093E50A90933B
:10224000E60A6091AD0A7091AE0A8091AF0A909152
:10225000B00A0E94B94F20917C0D30917D0D4091C4
:102260007E0D50917F0D0E941E4F6093E70A709380
:10227000E80A8093E90A9093EA0A6091A90A7091AA
:10228000AA0A8091AB0A9091AC0A0E94B94F2091A2
:10229000800D3091810D4091820D5091830D0E94EF
:1022A0001E4F6093EB0A7093EC0A8093ED0A9093B3
:1022B000EE0A6091BD0A7091BE0A8091BF0A9091AA
:1022C000C00A0E94B94F20916C0D30916D0D409164
:1022D0006E0D50916F0D0E941E4F6093D70A709340
:1022E000D80A8093D90A9093DA0A6091B90A70915A
:1022F000BA0A8091BB0A9091BC0A0E94B94F209102
:10230000700D3091710D4091720D5091730D0E94BE
:102310001E4F6093DB0A7093DC0A8093DD0A909372
:10232000DE0A6091B50A7091B60A8091B70A909161
:10233000B80A0E94B94F2091740D3091750D4091EB
:10234000760D5091770D0E941E4F6093DF0A7093B7
:10235000E00A8093E10A9093E20A8091D50A909175
:10236000D60A9C01442737FD4095542F29833A8390
:102370004B835C83CA01B9010E94B94F2091300D93
:102380003091310D4091320D5091330D0E946D50BE
:10239000A70196010E941E4F20E030E04AE754E476
:1023A0000E946D506D837E838F8398876093570B57
:1023B0007093580B8093590B90935A0B8091D30ACA
:1023C0009091D40A9C01442737FD4095542F2987CA
:1023D0003A874B875C87CA01B9010E94B94F2091A7
:1023E000340D3091350D4091360D5091370D0E94CE
:1023F0006D50A70196010E941E4F20E030E04AE791
:1024000054E40E946D506D877E878F87988B609310
:10241000530B7093540B8093550B9093560B8091F4
:10242000D10A9091D20A9C01442737FD4095542F40
:10243000298B3A8B4B8B5C8BCA01B9010E94B94F37
:102440002091380D3091390D40913A0D50913B0D4E
:102450000E946D50A70196010E941E4F20E030E0BF
:102460004AE754E40E946D506D8B7E8B8F8B988F62
:1024700060934F0B7093500B8093510B9093520BC2
:102480008091CF0A9091D00A9C01442737FD409556
:10249000542F298F3A8F4B8F5C8FCA01B9010E944C
:1024A000B94F2091240D3091250D4091260D50916A
:1024B000270D0E946D50A70196010E941E4F20E03B
:1024C00030E04AE754E40E946D506093630B7093D0
:1024D000640B8093650B9093660B8091CD0A90916D
:1024E000CE0A9C01442737FD4095542F2D8F3E8FF7
:1024F0004F8F58A3CA01B9010E94B94F2091280DEE
:102500003091290D40912A0D50912B0D0E946D5054
:10251000A70196010E941E4F20E030E04AE754E4F4
:102520000E946D5060935F0B7093600B8093610B02
:102530009093620B8091CB0A9091CC0A9C01442726
:1025400037FD4095542F29A33AA34BA35CA3CA019E
:10255000B9010E94B94F20912C0D30912D0D409161
:102560002E0D50912F0D0E946D50A70196010E94D3
:102570001E4F20E030E04AE754E40E946D50609323
:102580005B0B70935C0B80935D0B90935E0B809163
:10259000C90A9091CA0A9C01442737FD4095542FDF
:1025A0002DA33EA34FA358A7CA01B9010E94B94F5A
:1025B00020913C0D30913D0D40913E0D50913F0DCD
:1025C0000E946D50A70196010E941E4F20E030E04E
:1025D0004AE754E40E946D502B013C0160934B0B81
:1025E00070934C0B80934D0B90934E0B8091C70AC8
:1025F0009091C80A9C01442737FD4095542F29A784
:102600003AA74BA75CA7CA01B9010E94B94F209114
:10261000400D3091410D4091420D5091430D0E946B
:102620006D50A70196010E941E4F20E030E04AE75E
:1026300054E40E946D504B015C016093470B709312
:10264000480B8093490B90934A0B8091C50A909157
:10265000C60A9C01442737FD4095542F2DA73EA75D
:102660004FA758ABCA01B9010E94B94F2091440D40
:102670003091450D4091460D5091470D0E946D508F
:10268000A70196010E941E4F20E030E04AE754E483
:102690000E946D506B017C016093430B7093440B5F
:1026A0008093450B9093460BA30192016D817E812F
:1026B0008F8198850E941E4FEAD96093EF0A70932C
:1026C000F00A8093F10A9093F20AA50194016D85B6
:1026D0007E858F8598890E941E4FD9D96093F30A11
:1026E0007093F40A8093F50A9093F60AA701960175
:1026F0006D897E898F89988D0E941E4FC8D96093FD
:10270000F70A7093F80A8093F90A9093FA0A809175
:102710001B0B90911C0BA0911D0BB0911E0B2981DE
:102720003A814B815C81820F931FA41FB51F809358
:102730001B0B90931C0BA0931D0BB0931E0B809151
:10274000170B9091180BA091190BB0911A0B2985BA
:102750003A854B855C85820F931FA41FB51F80931C
:10276000170B9093180BA093190BB0931A0B809131
:10277000130B9091140BA091150BB091160B298996
:102780003A894B895C89820F931FA41FB51F8093E0
:10279000130B9093140BA093150BB093160B809111
:1027A0000F0B9091100BA091110BB091120B298D72
:1027B0003A8D4B8D5C8D820F931FA41FB51F8093A4
:1027C0000F0B9093100BA093110BB093120B8091F1
:1027D0000B0B90910C0BA0910D0BB0910E0B2D8D4E
:1027E0003E8D4F8D58A1820F931FA41FB51F80935C
:1027F0000B0B90930C0BA0930D0BB0930E0B8091D1
:10280000070B9091080BA091090BB0910A0B29A11D
:102810003AA14BA15CA1820F931FA41FB51F809307
:10282000070B9093080BA093090BB0930A0B8091B0
:10283000030B9091040BA091050BB091060B2DA1F9
:102840003EA14FA158A5820F931FA41FB51F8093CF
:10285000030B9093040BA093050BB093060B809190
:10286000FF0A9091000BA091010BB091020B29A5DA
:102870003AA54BA55CA5820F931FA41FB51F80939B
:10288000FF0A9093000BA093010BB093020B809171
:10289000FB0A9091FC0AA091FD0AB091FE0A2DA5B9
:1028A0003EA54FA558A9820F931FA41FB51F809363
:1028B000FB0A9093FC0AA093FD0AB093FE0A6BE119
:1028C0007BE08FE39BE00ED967E17BE08BE39BE04D
:1028D00009D963E17BE087E39BE004D96FE07BE00B
:1028E00083E39BE0FFD86BE07BE08FE29BE0FAD8CC
:1028F00067E07BE08BE29BE0F5D863E07BE087E27A
:102900009BE0F0D86FEF7AE083E29BE0EBD86BEFCF
:102910007AE08FE19BE0E6D860913F0B7091400B2D
:102920008091410B9091420B0E94B94F2091540D20
:102930003091550D4091560D5091570D0E946D509C
:102940006093A30B7093A40B8093A50B9093A60B9D
:1029500060913B0B70913C0B80913D0B90913E0B35
:102960000E94B94F2091580D3091590D40915A0D48
:1029700050915B0D0E946D506093A70B7093A80B54
:102980008093A90B9093AA0B6091370B7091380B31
:102990008091390B90913A0B0E94B94F20915C0DB8
:1029A00030915D0D40915E0D50915F0D0E946D5014
:1029B0006093AB0B7093AC0B8093AD0B9093AE0B0D
:1029C0006091330B7091340B8091350B9091360BE5
:1029D0000E94B94F2091480D3091490D40914A0D08
:1029E00050914B0D0E946D506093970B7093980B14
:1029F0008093990B90939A0B60912F0B7091300BF1
:102A00008091310B9091320B0E94B94F20914C0D67
:102A100030914D0D40914E0D50914F0D0E946D50D3
:102A200060939B0B70939C0B80939D0B90939E0BDC
:102A300060912B0B70912C0B80912D0B90912E0B94
:102A40000E94B94F2091500D3091510D4091520D7F
:102A50005091530D0E946D5060939F0B7093A00B8B
:102A60008093A10B9093A20B6091270B7091280B80
:102A70008091290B90912A0B0E94B94F2091600DF3
:102A80003091610D4091620D5091630D0E946D5027
:102A90006093AF0B7093B00B8093B10B9093B20B1C
:102AA0006091230B7091240B8091250B9091260B44
:102AB0000E94B94F2091640D3091650D4091660DD3
:102AC0005091670D0E946D506093B30B7093B40BDF
:102AD0008093B50B9093B60B60911F0B7091200BF8
:102AE0008091210B9091220B0E94B94F2091680D8B
:102AF0003091690D40916A0D50916B0D0E946D509F
:102B00006093B70B7093B80B8093B90B9093BA0B8B
:102B10002FD88091070D9091080DA091090DB091CB
:102B20000A0D8093FF0C9093000DA093010DB093BC
:102B3000020DE0960FB6F894DEBF0FBECDBFDF9159
:102B4000CF91FF90EF90DF90CF90BF90AF909F908C
:102B50008F907F906F905F904F9008950E94F74301
:102B60006093070D7093080D8093090D90930A0DE3
:102B700081E00E94C20B9093D60A8093D50A82E02E
:102B80000E94C20B9093D40A8093D30A83E00E94E0
:102B9000C20B9093D20A8093D10A84E00E94C20BA8
:102BA0009093D00A8093CF0A85E00E94C20B909345
:102BB000CE0A8093CD0A86E00E94C20B9093CC0A85
:102BC0008093CB0A87E00E94C20B9093CA0A80933D
:102BD000C90A88E00E94C20B9093C80A8093C70A72
:102BE00089E00E94C20B9093C60A8093C50A80E1D7
:102BF0000E94C20B9093C40A8093C30A81E10E9491
:102C0000B00B90E09093C20A8093C10A8AE00E94C0
:102C1000E50B683E23E07207810591052CF440E046
:102C200030E020E080E004C0462F372F282F892F86
:102C30004093BD0A3093BE0A2093BF0A8093C00A16
:102C40008BE00E94E50B683E23E072078105910549
:102C50002CF440E030E020E080E004C0462F372F25
:102C6000282F892F4093B90A3093BA0A2093BB0AC0
:102C70008093BC0A8CE00E94E50B683E23E072075B
:102C8000810591052CF440E030E020E080E004C0B4
:102C9000462F372F282F892F4093B50A3093B60A35
:102CA0002093B70A8093B80A8DE00E94E50B87FF56
:102CB00005C040E030E020E080E004C0462F372F20
:102CC000282F892F4093B10A3093B20A2093B30A78
:102CD0008093B40A8EE00E94E50B87FF05C040E0B8
:102CE00030E020E080E004C0462F372F282F892FC6
:102CF0004093AD0A3093AE0A2093AF0A8093B00A96
:102D00008FE00E94E50B87FF05C040E030E020E047
:102D100080E004C0462F372F282F892F4093A90A1F
:102D20003093AA0A2093AB0A8093AC0A28CACF92A8
:102D3000DF92EF92FF92CF93DF936091160D709127
:102D4000170D882777FD8095982F0E94B94F6B014A
:102D50007C01C7ECDBE09B01AC01688179818A8151
:102D60009B810E941E4F688379838A839B83CBEC6F
:102D7000DBE0A7019601688179818A819B810E94AD
:102D80001E4F688379838A839B83CFECDBE0A701A6
:102D90009601688179818A819B810E941E4F688398
:102DA00079838A839B83CBEBDBE0A7019601688163
:102DB00079818A819B810E941E4F688379838A83EF
:102DC0009B83CFEBDBE0A7019601688179818A8143
:102DD0009B810E941E4F688379838A839B83C3EC07
:102DE000DBE0A7019601688179818A819B810E943D
:102DF0001E4F688379838A839B83CFE7DBE0A7013B
:102E00009601688179818A819B810E941E4F688327
:102E100079838A839B83C3E8DBE0A70196016881FD
:102E200079818A819B810E941E4F688379838A837E
:102E30009B83C7E8DBE0A7019601688179818A81DD
:102E40009B810E941E4F688379838A839B83C3E79B
:102E5000DBE0A7019601688179818A819B810E94CC
:102E60001E4F688379838A839B83C7E7DBE0A701D2
:102E70009601688179818A819B810E941E4F6883B7
:102E800079838A839B83CBE7DBE0A7019601688186
:102E900079818A819B810E941E4F688379838A830E
:102EA0009B83CBE8DBE0A7019601688179818A8169
:102EB0009B810E941E4F688379838A839B83CFE81E
:102EC000DBE0A7019601688179818A819B810E945C
:102ED0001E4F688379838A839B83C3E9DBE0A70164
:102EE0009601688179818A819B810E941E4F688347
:102EF00079838A839B83C3EDDBE0A7019601688118
:102F000079818A819B810E941E4F688379838A839D
:102F10009B83C7EDDBE0A7019601688179818A81F7
:102F20009B810E941E4F688379838A839B83CBEDAC
:102F3000DBE0A7019601688179818A819B810E94EB
:102F40001E4F688379838A839B831092170D10929A
:102F5000160DDF91CF91FF90EF90DF90CF90089505
:102F60008EE30E946F45892BC9F566E274E084E91F
:102F70009DE00E94F74860E08AE10E943A456FE3D5
:102F800074E084E99DE00E94F74868EE73E080E019
:102F900090E00E941A44A89568E474E084E99DE0FA
:102FA0000E94F74861E08AE10E943A4568EB7BE0C5
:102FB00080E090E00E941A44A89563E574E084E9FB
:102FC0009DE00E94F74860E08AE10E943A4568EB84
:102FD0007BE080E090E00E941A44A89564E774E0EA
:102FE00084E99DE00E94F74868EE73E080E090E09D
:102FF0000E941A44A8958EE30E946F45019719F428
:103000006DEA74E016C060E081E30E943A4568EE24
:1030100073E080E090E00E941A4461E081E30E9446
:103020003A456CE874E084E99DE00E94F74867EA5D
:1030300074E084E99DE00E94F74860E08AE10E9424
:103040003A4564EF71E080E090E00E941A44A89550
:1030500061E08AE10E943A456CED75E080E090E025
:103060000E941A44A895A89560E08AE10E943A451A
:1030700064EC79E080E090E00C941A444F925F9207
:103080006F927F928F929F92AF92BF92CF92DF9278
:10309000EF92FF921F93CF93DF93CDB7DEB7C4506B
:1030A000D2400FB6F894DEBF0FBECDBF182F60918F
:1030B000DF0C7091E00C8091E10C9091E20CE6E065
:1030C0009695879577956795EA95D1F70496AE0121
:1030D0004F5F5F4F0E946A0A8111A7C0C090DF0C4A
:1030E000D090E00CE090E10CF090E20CCF5FDD4F6F
:1030F000C882D982EA82FB82C150D24026013701C0
:103100008FE3482255246624772453E0440C551C51
:10311000661C771C5A95D1F7E1E0F0E0EC0FFD1F3B
:10312000E40DF51DC082530142018FEF881A980A01
:10313000A80AB80AE1E0F0E0EC0FFD1FE80DF91D68
:10314000CE5FDD4F2881C250D2402083530142011F
:1031500082E0880E911CA11CB11CE1E0F0E0EC0FB4
:10316000FD1FE80DF91DCD5FDD4F2881C350D24012
:10317000208380906B0B90906C0BA0906D0BB090A7
:103180006E0BCF5FDD4F88829982AA82BB82C150CD
:10319000D240FE01EF5FFD4F20E030E053014201DD
:1031A00083E0880E911CA11CB11C41E050E04C0F43
:1031B0005D1F480D591DB190DA01A20FB31FBC92DB
:1031C0002F5F3F4F24303105B1F7D301C20107967D
:1031D000A11DB11DE1E0F0E0EC0FFD1FE80FF91FAC
:1031E0001083C701B60146E0969587957795679558
:1031F0004A95D1F70496AE014F5F5F4F0E94BF0A18
:10320000811113C08091DF0C9091E00CA091E10C32
:10321000B091E20C0196A11DB11D8093DF0C90933B
:10322000E00CA093E10CB093E20CCC5FDD4F0FB645
:10323000F894DEBF0FBECDBFDF91CF911F91FF90FD
:10324000EF90DF90CF90BF90AF909F908F907F9046
:103250006F905F904F9008951F93CF93DF93CDB7FA
:10326000DEB72C970FB6F894DEBF0FBECDBF182F78
:103270008091130D8F5F8093130D6BE07DE0CE0185
:1032800007960E94A64B68E877E0CE0107960E9459
:10329000054D4AE0612FCE0101960E94CF4BBE0141
:1032A0006F5F7F4FCE0107960E94FF4CCE010196C3
:1032B0000E94DF4A68E877E0CE0107960E94054D3C
:1032C00040916F0B5091700B6091710B7091720B6C
:1032D0002AE0CE0101960E947C4CBE016F5F7F4FB9
:1032E000CE0107960E94FF4CCE0101960E94DF4A54
:1032F000E12FF0E0EE0FFF1FED5BFC4F6591749145
:1033000085E49AE00E94B15365E47AE0CE0101962B
:103310000E94474BBE016F5F7F4FCE0107960E9410
:10332000FF4CCE0101960E94DF4A68E877E0CE01AB
:1033300007960E94054D4AE06091130DCE0101965B
:103340000E94CF4BBE016F5F7F4FCE0107960E9458
:10335000FF4CCE0101960E94DF4ABE01695F7F4F9C
:1033600084E99DE00E94E748812F88DECE01079620
:103370000E94DF4A2C960FB6F894DEBF0FBECDBF79
:10338000DF91CF911F910895EF92FF920F931F93BA
:10339000CF93DF93CDB7DEB7C057D1090FB6F894FE
:1033A000DEBF0FBECDBFF82EE62EFE01319684E6BD
:1033B000DF011D928A95E9F76BE07DE0CE0185592A
:1033C0009F4F0E94A64B68E877E0CE0185599F4F3A
:1033D0000E94054D0F2D112707FD1095B8016F5C58
:1033E0007F4F4AE0CE018B599F4F0E94FB4BBE019D
:1033F0006B597F4FCE0185599F4F0E94FF4CCE01E4
:103400008B599F4F0E94DF4A68E877E0CE018559CB
:103410009F4F0E94054D40916F0B5091700B609132
:10342000710B7091720B2AE0CE018B599F4F0E9455
:103430007C4CBE016B597F4FCE0185599F4F0E9436
:10344000FF4CCE018B599F4F0E94DF4AF801EE0FCF
:10345000FF1FE754FC4F65917491CE0101960E94C5
:10346000B153BE016F5F7F4FCE018B599F4F0E94BA
:10347000474BBE016B597F4FCE0185599F4F0E942C
:10348000FF4CCE018B599F4F0E94DF4A68E877E0DE
:10349000CE0185599F4F0E94054DEE2DEE0FFF0B7B
:1034A000E05AF54F65917491CE0101960E94B15397
:1034B000BE016F5F7F4FCE018B599F4F0E94474BDC
:1034C000BE016B597F4FCE0185599F4F0E94FF4C23
:1034D000CE018B599F4F0E94DF4A68E877E0CE010A
:1034E00085599F4F0E94054D4AE06091130DCE0112
:1034F0008B599F4F0E94CF4BBE016B597F4FCE011E
:1035000085599F4F0E94FF4CCE018B599F4F0E94BF
:10351000DF4ABE0165597F4F84E99DE00E94E7487C
:1035200081E38F0DABDD8091130D8F5F8093130DC1
:10353000CE0185599F4F0E94DF4AC059DF4F0FB619
:10354000F894DEBF0FBECDBFDF91CF911F910F91D9
:10355000FF90EF900895DF92EF92FF920F931F93E9
:10356000CF93DF93D82E7B01C3EDDCE00FEB1CE0A3
:103570008991D81208C020E030E044E650E0B7015D
:10358000C8010E94B74D0A5F1F4F8CE0C63DD807A7
:1035900079F7DF91CF911F910F91FF90EF90DF901E
:1035A0000895E82FF0E0E75AF34F80819091DA0C0C
:1035B000911108C08E5F823028F48091BD0C91E09B
:1035C0008927089580E00895282F8091BD0C8111EE
:1035D00032C09091DA0C40E050E070E030E0D90168
:1035E000A75AB34FFA01E20FF31F6E177F076CF073
:1035F000FD01E40FF51FE081911104C0EE5FE230A0
:1036000008F481E04F5F5F4FEDCF40E050E0D9011B
:10361000A75AB34FFA01E20FF31F6E177F0754F05A
:10362000FD01E40FF51F90819D3F09F480E04F5F9D
:103630005F4FF0CF089580E00895E82FF0E0E75A5B
:10364000F34F80818D3F29F48091D90C91E0892737
:10365000089580E00895AF92BF92CF92DF92EF92EB
:10366000FF920F93CF93DF93C82FD62F59016A0192
:10367000E12CF12CC092E70CD092E80CE092E90C1E
:10368000F092EA0C0E94EB436093E30C7093E40C1D
:103690008093E50C9093E60CA50160E070E0409308
:1036A000EB0C5093EC0C6093ED0C7093EE0C81E0FE
:1036B0008093DA0CED2FFF27E7FDF095E75AF34FE3
:1036C000C0830093D90CDF91CF910F91FF90EF90C1
:1036D000DF90CF90BF90AF9008952F923F924F927E
:1036E0005F926F927F928F929F92AF92BF92CF9292
:1036F000DF92EF92FF920F931F93CF93DF93CDB79B
:10370000DEB7C057D2400FB6F894DEBF0FBECDBFB4
:1037100061E777E0CE0185599D4F0E94474B6E01CE
:103720008FEFC81A8DEFD80AB6018AE114DFB6010F
:103730008E010F5F1F4FC8010E94474BB801CE0199
:1037400085599D4F0E94AE4BC8010E94DF4A68EC2C
:1037500074E0C8010E94474BB801CE0185599D4FC6
:103760000E94194E7C01C8010E94DF4AF7FE26C064
:1037700061E777E0CE0185599D4F0E94B94BCE019C
:1037800085599D4F0E94DF4AC059DD4F0FB6F8940E
:10379000DEBF0FBECDBFDF91CF911F910F91FF9084
:1037A000EF90DF90CF90BF90AF909F908F907F90E1
:1037B0006F905F904F903F902F900895BE01655994
:1037C0007D4F84E99DE00E94E7486CE2CE01855977
:1037D0009D4F0E94FB4D7C0168EC74E0CE018B593B
:1037E0009D4F0E94474BBE016B597D4FCE018559BD
:1037F0009D4F0E94194EAC01495F5F4F9701BE017A
:1038000065597D4FC8010E944E4EC8010E94914EDD
:103810002B013C01C8010E94DF4ACE018B599D4F0C
:103820000E94DF4A2AE030E0B301A20184E99DE072
:103830000E94F7496CE2CE0185599D4F0E94FB4DD5
:10384000C159DD4F28813981CF56D240AC014F5F3D
:103850005F4FBE0165597D4FC8010E944E4EC801A1
:103860000E94914E4B015C01C8010E94DF4A740125
:103870009FE18916910418F09EE1E92EF12C4AE0AF
:1038800050E0B70184E99DE00E94E349912CA12C0E
:1038900082E0B82EE3E06E227724F8E06F0E711C10
:1038A000892D90E08E159F0508F062CFA895F8014C
:1038B000C50111920197E9F7A801C301B201690D91
:1038C000711D811D911D0E946A0A81114AC061E724
:1038D00077E0CE0185599D4F0E94B94B1801F10147
:1038E00061911F016A3049F0CE0185599D4F0E94B8
:1038F000144D2C143D0499F706C06AE0CE01855999
:103900009D4F0E94144D6AE0CE0185599D4F0E9443
:10391000FB4D9C012F5F3F4F40E050E0BE016559D9
:103920007D4FCE018B599D4F0E944E4EBE016B596B
:103930007D4FCE0185599D4F0E94AE4BCE018B59D4
:103940009D4F0E94DF4ABE0165597D4F81E39EE095
:103950000E94BE48BE0165597D4F84E99DE00E94EA
:10396000BE4881E39EE00E94D44884E99DE00E9425
:10397000D448939495CFCF93DF93D82FC62F60E090
:1039800089E10E943A4560E088E10E943A458D2F26
:1039900080680E943A098C2F80640E943A0961E095
:1039A00088E1DF91CF910C943A45CF93DF9360E0AB
:1039B00070E080E090E0DFDF61E089E10E943A455D
:1039C00060E088E10E943A45CBE4D8E089910E940A
:1039D0003A098AE0C334D807C9F761E088E1DF918A
:1039E000CF910C943A45CF93C82F60E089E10E94B3
:1039F0003A4560E088E10E943A4581E20E943A0936
:103A00008C2F80680E943A0980E20E943A0961E0A6
:103A100088E1CF910C943A45EBE4F8E09FEF8823DE
:103A200011F0908301C0108231962AE0E334F2074E
:103A3000B1F7BBCF61E088E10E94014561E087E119
:103A40000E94014561E089E10E94014561E083E354
:103A50000E94014561E084E30E9401450E94A54166
:103A600080E00E9441098CB58F7D8CBD60E087E1CC
:103A70000E943A4561E087E10E943A4560E089E1B1
:103A80000E943A4560E088E10E943A4581E20E9446
:103A90003A0980EB0E943A0984E00E943A0984E1E5
:103AA0000E943A0980E20E943A098CE00E943A0999
:103AB00061E088E10E943A4580E0AECF9C0126504B
:103AC00031092E34310528F56033710510F59B015D
:103AD0002770332733E0759567953A95E1F734E51C
:103AE000369FF001379FF00D1124E80FF91FE55BB9
:103AF000F74F81E090E0022E01C0880F0A94EAF7A8
:103B0000442319F09081982B03C0809590819823CD
:103B1000908308954F925F926F927F928F929F92BF
:103B2000AF92BF92CF92DF92EF92FF920F931F93CB
:103B3000CF93DF93EB01642E552E722E992787FDCC
:103B40009095809725E0289F5001299FB00C112463
:103B50002696C12CD12CC50187589E4F5C01442468
:103B600043944724F501EC0DFD1D8490062D152D81
:103B7000E12CF12C912CC4010E2C02C09595879557
:103B80000A94E2F780FF02C0472D01C0442DB8011E
:103B9000CE0194DF9FEFE91AF90A0F5F1F4F88E00B
:103BA000E816F10441F79FEFC91AD90A219685E07A
:103BB000C816D104B9F6DF91CF911F910F91FF90F4
:103BC000EF90DF90CF90BF90AF909F908F907F90BD
:103BD0006F905F904F9008956F927F928F929F9217
:103BE000AF92BF92CF92DF92EF92FF920F931F930B
:103BF000CF93DF93C82E992EEB01742E219743E0CB
:103C0000CC0FDD1F4A95E1F77E015E0187E0A80E2B
:103C1000B11CDD24D394D724AE14BF0444F40C2D7E
:103C2000192DE12CF12C66246394672412C000E066
:103C300010E04D2DB701C80141DF0F5F1F4F043564
:103C40001105B9F7EFEFEE1AFE0AE6CFE6E0EE0E49
:103C5000F11CF80181918F018823A1F0272DAE017D
:103C6000B70158DF4701F5E08F0E911C6E01AC14CF
:103C7000BD0464F3462DB601C40120DF8FEFC81ADE
:103C8000D80AF5CFDF91CF911F910F91FF90EF9060
:103C9000DF90CF90BF90AF909F908F907F906F906C
:103CA00084CECF92DF92EF92FF920F931F93CF9328
:103CB000DF93C62E9C012150310964E0220F331F8F
:103CC0006A95E1F779014FE0E40EF11C74E5D72E17
:103CD00008E010E0C1E0D0E02E153F0581F1C901F8
:103CE00037FD079653E0959587955A95E1F7D89E4D
:103CF000F001D99EF00D1124C901B8010E94E350D2
:103D0000AE0102C0440F551F8A95E2F7CA01642F25
:103D1000809540E050E0E55BF74FDF01A40FB51F51
:103D20009C91CC2011F0962B01C098239C934F5F5F
:103D30005F4F4530510589F72F5F3F4FCDCFDF9162
:103D4000CF911F910F91FF90EF90DF90CF902DCEEC
:103D50002F923F924F925F926F927F928F929F929B
:103D6000AF92BF92CF92DF92EF92FF920F931F9389
:103D7000CF93DF93CDB7DEB7A6970FB6F894DEBF2B
:103D80000FBECDBF609147087091480880914908E7
:103D900090914A082FE430E040E050E00E94F65055
:103DA0002AE2269F4001279F900C11241E0185E2E4
:103DB000280E311C8E010F5F1F4F9401201B310B09
:103DC0007801C12CD12C2901400E511EE3E04E0E8A
:103DD000511CF701108211821282138232016C0C85
:103DE0007D1CB3E0AB2EB12CC501860D971D2DA314
:103DF0003EA30E943809F70140815181628173819D
:103E0000762F652F542F4427482B4083518362839C
:103E10007383F1E0AF1AB1082DA13EA18FEFA81670
:103E2000B80611F7E4E0EE0EF11CF4E0CF0ED11C61
:103E30008CE0C816D10469F6045F1F4F0215130504
:103E400009F0BECF8401075D1F4FF6E28F0E911C73
:103E500040E050E0BA01CC24D42EE52EF62EC80165
:103E60000E943809B701A601482B01501109081515
:103E7000190589F74093670B5093680B6093690BA2
:103E800070936A0B89819A81AB81BC8180933F0BCF
:103E90009093400BA093410BB093420B8D819E8178
:103EA000AF81B88580933B0B90933C0BA0933D0B67
:103EB000B0933E0B89859A85AB85BC858093370B83
:103EC0009093380BA093390BB0933A0B8D859E8558
:103ED000AF85B8898093330B9093340BA093350B47
:103EE000B093360B89899A89AB89BC8980932F0B53
:103EF0009093300BA093310BB093320B8D899E8938
:103F0000AF89B88D80932B0B90932C0BA0932D0B26
:103F1000B0932E0B898D9A8DAB8DBC8D8093270B22
:103F20009093280BA093290BB0932A0B8D8D9E8D17
:103F3000AF8DB8A18093230B9093240BA093250BF6
:103F4000B093260B89A19AA1ABA1BCA180931F0BB2
:103F50009093200BA093210BB093220BA6960FB643
:103F6000F894DEBF0FBECDBFDF91CF911F910F91AF
:103F7000FF90EF90DF90CF90BF90AF909F908F9089
:103F80007F906F905F904F903F902F9008952F9269
:103F90003F924F925F926F927F928F929F92AF92D9
:103FA000BF92CF92DF92EF92FF920F931F93CF9326
:103FB000DF93CDB7DEB7A9970FB6F894DEBF0FBE7B
:103FC000CDBF8091470890914808A0914908B091D1
:103FD0004A080196A11DB11D809347089093480897
:103FE000A0934908B0934A088DA39EA3AFA3B8A796
:103FF000CE0185965C0100E010E04FE4C42ED12C88
:10400000E12CF12C5AE2852EF50191905F0160912F
:104010004708709148088091490890914A08A70183
:1040200096010E94F650869E9001879E300D1124C5
:10403000692DC801820F931F0E94DC560F5F1F4F2E
:104040000330110509F780913F0B9091400BA0912F
:10405000410BB091420B89839A83AB83BC838091DF
:104060003B0B90913C0BA0913D0BB0913E0B8D838F
:104070009E83AF83B8878091370B9091380BA091C6
:10408000390BB0913A0B89879A87AB87BC878091AF
:10409000330B9091340BA091350BB091360B8D877B
:1040A0009E87AF87B88B80912F0B9091300BA0919A
:1040B000310BB091320B898B9A8BAB8BBC8B80917F
:1040C0002B0B90912C0BA0912D0BB0912E0B8D8B67
:1040D0009E8BAF8BB88F8091270B9091280BA0916E
:1040E000290BB0912A0B898F9A8FAB8FBC8F80914F
:1040F000230B9091240BA091250BB091260B8D8F53
:104100009E8FAF8FB8A380911F0B9091200BA09131
:10411000210BB091220B89A39AA3ABA3BCA300E00F
:1041200010E03FE4432E512C612C712CE12CF12C3A
:1041300022242394312C2C0E3D1E200E311EF10121
:10414000EE0DFF1D80819181A281B3818DA39EA37D
:10415000AFA3B8A74701800E911ECE0185965C01E2
:10416000C12CD12CF50141915F0149A7609147080D
:10417000709148088091490890914A08A3019201E2
:104180000E94F650EAE2E69F9001E79F300D11246D
:104190002D5F3F4F280D391D69A5C9018C0D9D1D4F
:1041A0000E94DC56FFEFCF1ADF0A44E0C416D104A8
:1041B000C9F684E0E80EF11C9CE0E916F10409F070
:1041C000BECF045F1F4F0432110509F0AFCF8091BD
:1041D000670B9091680BA091690BB0916A0B8DA34E
:1041E0009EA3AFA3B8A7FE01B5965F0100E010E063
:1041F0008FE4C82ED12CE12CF12C9AE2892EF50106
:1042000091905F016091470870914808809149083A
:1042100090914A08A70196010E94F650869E90014F
:10422000879E300D1124295D3F4F692DC901800FF4
:10423000911F0E94DC560F5F1F4F03301105F9F6E6
:1042400060ED74E084E99DE00E94CC48409147080D
:10425000509148086091490870914A082AE030E07E
:1042600084E99DE00E94F74969ED74E084E99DE0EE
:104270000E94CC4860914708709148088091490895
:1042800090914A082FE430E040E050E00E94F65060
:104290009B01AC01AAE2B0E00E942D51AB01BC0130
:1042A0002AE030E084E99DE00E94F749A9960FB624
:1042B000F894DEBF0FBECDBFDF91CF911F910F915C
:1042C000FF90EF90DF90CF90BF90AF909F908F9036
:1042D0007F906F905F904F903F902F9008952F9216
:1042E0003F924F925F926F927F928F929F92AF9286
:1042F000BF92CF92DF92EF92FF920F931F93CF93D3
:10430000DF9300D01F92CDB7DEB764E2A62E6DE03A
:10431000B62EE12CF12C2E0185E0480E511C00E058
:1043200010E01701E0E62E1AE0EF3E0A3501600EBC
:10433000711EF30180819181A281B38189839A8367
:10434000AB83BC836101C00ED11ECE0101964C012E
:10435000F40161914F01C6010E94DC564AE050E031
:10436000B60184E99DE00E94A54965EE74E084E908
:104370009DE00E94CC48FFEFCF1ADF0A8414950419
:1043800039F7F301408151816281738122E030E08D
:1043900084E99DE00E94DE4A84E99DE00E94D448C1
:1043A0000C5F1F4F0C30110509F6FCE0AF0EB11C7D
:1043B0008CE0E80EF11C90E6E916F10409F0AFCFAD
:1043C0000F900F900F900F90DF91CF911F910F9151
:1043D000FF90EF90DF90CF90BF90AF909F908F9025
:1043E0007F906F905F904F903F902F9008954F92E5
:1043F0005F926F927F928F929F92AF92BF92CF9275
:10440000DF92EF92FF920F931F93CF93DF9300D031
:104410001F92CDB7DEB704E21DE0CE0101965C012C
:104420004E0195E0890E911CE12CF12C6801CA180F
:10443000DB08F601E458FD4F6F01250136016E0CD3
:104440007F1CC201860D971D0E943809F2018193DD
:104450002F01E815F905A9F749815A816B817C8103
:10446000F801EE0DFF1D408351836283738322E0C8
:1044700030E084E99DE00E94DE4A65EE74E084E964
:104480009DE00E94CC48F4E0EF0EF11C8CE0E816B1
:10449000F10499F684E99DE00E94D448045F1F4F1F
:1044A0009DE00438190709F0BFCF0F900F900F90CF
:1044B0000F90DF91CF911F910F91FF90EF90DF90C0
:1044C000CF90BF90AF909F908F907F906F905F90B4
:1044D0004F900895EF92FF920F931F93CF93DF9326
:1044E00000D01F92CDB7DEB769837A838B839C831C
:1044F000CE0101967C0106E51FE0F70161917F0185
:10450000C8010E94DC560F5F1F4F0A35FFE01F07EE
:10451000A1F70F900F900F900F90DF91CF911F9107
:104520000F91FF90EF900895EF92FF920F931F93DA
:10453000CF93DF9300D01F92CDB7DEB7CE010196A7
:104540007C0106E51FE0C8010E943809F70181934C
:104550007F010F5F1F4F0A35FFE01F07A1F7698139
:104560007A818B819C810F900F900F900F90DF913B
:10457000CF911F910F91FF90EF900895BF92CF922E
:10458000DF92EF92FF920F931F93CF93DF9367EE2B
:1045900074E084E99DE00E94F74829DF60EF74E051
:1045A00084E99DE00E94F74804E21DE0B12CC0E0E0
:1045B000D0E0F801EC0FFD1FC080D180E280F380D5
:1045C00020E030E0A901C701B6010E946950181629
:1045D00064F420E030E040E85FE4C701B6010E94E7
:1045E0001A4F882311F0BB24B3942496CC30D10504
:1045F00001F7045F1F4F8DE004381807C1F6B110B2
:10460000F6DEDF91CF911F910F91FF90EF90DF9039
:10461000CF90BF9008954F925F926F927F928F924A
:104620009F92AF92BF92CF92DF92EF92FF920F9341
:104630001F93CF93DF9300D01F92CDB7DEB79EDFDD
:1046400000E010E0CE0101967C011C82580192E04E
:10465000A90EB11CFE0134966F01C5010E943809F4
:10466000F60182936F01F1E0AF1AB108CE14DF04B6
:10467000A1F789809A80AB80BC801C8228012CE243
:10468000420E511CCE0104963C0168019AE2C90E0B
:10469000D11CC2010E943809F30182933F01F1E06D
:1046A0004F1A51086E147F04A1F789819A81AB815A
:1046B000BC81B501A4014F5F5F4F6F4F7F4F48171B
:1046C00059076A077B07B9F088169906AA06BB0640
:1046D00049F4109247081092480810924908109225
:1046E0004A080AC08092470890924808A092490858
:1046F000B0924A0801C086010C3C2CE0120748F039
:104700008093470890934808A0934908B0934A08BB
:1047100006C0481759076A077B0709F496CF04DFDC
:1047200060936F0B7093700B8093710B9093720B6F
:104730000FDB0F900F900F900F90DF91CF911F9193
:104740000F91FF90EF90DF90CF90BF90AF909F9030
:104750008F907F906F905F904F9008952F923F922F
:104760004F925F926F927F928F929F92AF92BF9281
:10477000CF92DF92EF92FF920F931F93CF93DF932D
:10478000CDB7DEB7C051D2400FB6F894DEBF0FBE32
:10479000CDBFAE014F5F5F4F60E070E084E090E01E
:1047A0000E946A0A81110EC38981CF5FDD4F888321
:1047B000C150D2408A81CE5FDD4F8883C250D24043
:1047C0008B81CD5FDD4F8883C350D240CC5FDD4FFE
:1047D0001882C450D240CF5FDD4FC880D980EA80B4
:1047E000FB80C150D24091E1F694E794D794C794EE
:1047F0009A95D1F7DD24EE24FF240FEFC01AD00ADA
:10480000E00AF00A26E0CC0CDD1CEE1CFF1C2A9509
:10481000D1F710E088248A94982CAA24A394B12C70
:10482000C75FDD4F88829982AA82BB82C950D2407D
:10483000CB5FDD4F188219821A821B82C550D2408D
:10484000CB5FDD4F88809980AA80BB80C550D24065
:10485000C75FDD4F288139814A815B81C950D240D1
:10486000820E931EA41EB51E3FEF831A930AA30A5D
:10487000B30AB694A794979487942401350144E031
:10488000640E711CAE014F5F5F4FC301B2010E9405
:104890006A0A811193C28981CF5FDD4F8883C1503D
:1048A000D2408A81CE5FDD4F8883C250D2408B8157
:1048B000CD5FDD4F8883C350D240CC5FDD4F18827F
:1048C000C450D240CF5FDD4F88819981AA81BB81DE
:1048D000C150D240C35FDD4F88839983AA83BB83D5
:1048E000CD50D240103109F03AC2A7019601C5015E
:1048F000B4010E94D450C35FDD4F088119812A8121
:104900003B81CD50D240601771078207930709F0B1
:104910000DC1AE014F5F5F4FC301B2010E946A0A31
:10492000811150C28981CF5FDD4F8883C150D24051
:104930008A81CE5FDD4F8883C250D2408B81CD5FAC
:10494000DD4F8883C350D240CF5FDD4F288139814E
:104950004A815B81C150D240C75FDD4F28833983D4
:104960004A835B83C950D2404091DF0C5091E00CE8
:104970006091E10C7091E20CCB5FDD4F1882C55065
:10498000D2408FE390E0A0E0B0E0C35FDD4F8883CA
:104990009983AA83BB83CD50D240412C512C320144
:1049A000C35FDD4F88819981AA81BB81CD50D24000
:1049B000840D951DA61DB71D0196A11DB11DB695AF
:1049C000A795979587956C017D0103E0CC0CDD1CC4
:1049D000EE1CFF1C0A95D1F7E1E0F0E0EC0FFD1FA3
:1049E000EC0DFD1D2080CF5FDD4F2882C150D240ED
:1049F000970186010F5F1F4F2F4F3F4FE1E0F0E01F
:104A0000EC0FFD1FE00FF11F3080CE5FDD4F3882CD
:104A1000C250D240970186010E5F1F4F2F4F3F4F6C
:104A2000E1E0F0E0EC0FFD1FE00FF11FE081CD5F52
:104A3000DD4FE883C350D240CC5FDD4F1882C450B5
:104A4000D240CF5FDD4F088119812A813B81C1505F
:104A5000D240C75FDD4F88809980AA80BB80C95053
:104A6000D240081919092A093B09CB5FDD4FF881AB
:104A7000C550D240F53081F5081719072A073B07C2
:104A8000F1F0FE01EF5FFD4F80E090E008E0C01A1A
:104A9000D108E108F10821E030E02C0F3D1FC20EE3
:104AA000D31ED601A80FB91F3C91319301968330D4
:104AB0009105B9F7CC5FDD4F1882C450D240CF5F6B
:104AC000DD4F488159816A817B81C150D2404F5F5F
:104AD0005F4F6F4F7F4F1BC080179107A207B3072F
:104AE00041F42C013D013FEF431A530A630A730A54
:104AF0000EC08C019D010150110921093109C35FCC
:104B0000DD4F088319832A833B83CD50D240CB5F8E
:104B1000DD4F1881C550D2401F5FCB5FDD4F18833A
:104B2000C550D240163009F03BCF10C1C501B401C9
:104B3000615071098C4F9F4FAE014F5F5F4F0E94D4
:104B40006A0A81113FC18981CF5FDD4F8883C150DF
:104B5000D2408A81CE5FDD4F8883C250D2408B81A4
:104B6000CD5FDD4F8883C350D240CF5FDD4F2881BA
:104B700039814A815B81C150D240C75FDD4F2883B4
:104B800039834A835B83C950D2404091DF0C5091F6
:104B9000E00C6091E10C7091E20CCB5FDD4F18826C
:104BA000C550D2408FE390E0A0E0B0E0C35FDD4F9E
:104BB00088839983AA83BB83CD50D240412C512C4A
:104BC0003201C35FDD4F88819981AA81BB81CD50BD
:104BD000D240840D951DA61DB71D0196A11DB11DC6
:104BE000B695A795979587956C017D01F3E0CC0C60
:104BF000DD1CEE1CFF1CFA95D1F7E1E0F0E0EC0FB4
:104C0000FD1FEC0DFD1D2080CF5FDD4F2882C150C0
:104C1000D240970186010F5F1F4F2F4F3F4FE1E0BA
:104C2000F0E0EC0FFD1FE00FF11F3080CE5FDD4F95
:104C30003882C250D240970186010E5F1F4F2F4F1E
:104C40003F4FE1E0F0E0EC0FFD1FE00FF11FE081CE
:104C5000CD5FDD4FE883C350D240CC5FDD4F18827B
:104C6000C450D240CF5FDD4F088119812A813B813A
:104C7000C150D240C75FDD4F88809980AA80BB8039
:104C8000C950D240081919092A093B09CB5FDD4FE9
:104C9000F881C550D240F53081F5081719072A0769
:104CA0003B07F1F0FE01EF5FFD4F80E090E008E090
:104CB000C01AD108E108F10821E030E02C0F3D1FB7
:104CC000C20ED31ED601A80FB91F3C913193019695
:104CD00083309105B9F7CC5FDD4F1882C450D240C4
:104CE000CF5FDD4F488159816A817B81C150D240BD
:104CF0004F5F5F4F6F4F7F4F1BC080179107A20719
:104D0000B30741F42C013D013FEF431A530A630AF4
:104D1000730A0EC08C019D0101501109210931094E
:104D2000C35FDD4F088319832A833B83CD50D24074
:104D3000CB5FDD4F1881C550D2401F5FCB5FDD4F89
:104D40001883C550D240163009F03BCF4093DF0C9A
:104D50005093E00C6093E10C7093E20C33C0A5011A
:104D60009401C701B6010E94D450C35FDD4F288172
:104D700039814A815B81CD50D24062177307840725
:104D8000950771F4D501C4010196A11DB11DCB5F3A
:104D9000DD4F88839983AA83BB83C550D2400EC060
:104DA000A50194012150310941095109C75FDD4F27
:104DB000288339834A835B83C950D2401F5F1131F6
:104DC00009F03ECDC05FDD4F0FB6F894DEBF0FBED9
:104DD000CDBFDF91CF911F910F91FF90EF90DF90AA
:104DE000CF90BF90AF909F908F907F906F905F908B
:104DF0004F903F902F900895DF92EF92FF920F9384
:104E00001F93CF93DF93CDB7DEB7A7970FB6F89474
:104E1000DEBF0FBECDBF8C017E0182E2E80EF11C29
:104E200061E777E0C7010E94474B8091F50C8093C2
:104E3000F60CD090E30B0230110509F4FAC20CF025
:104E400096C00115110509F49AC10130110509F048
:104E50002EC460E082E090E00E94511E60E083E09A
:104E600090E00E94511E61E081E090E00E94511E9E
:104E70004091A30B5091A40B6091A50B7091A60BD0
:104E800022E0CE0101960E94A74CBE016F5F7F4FCA
:104E9000C7010E94AE4BCE0101960E94DF4A20E07E
:104EA00030E044E150E0BE016F5F7F4FC7010E94D8
:104EB000B74D69EF74E0CE0101960E94C15341E005
:104EC00061E070E0CE0101960E94EC1D6091570BED
:104ED0007091580B8091590B90915A0B8E010F5F76
:104EE0001F4F21E041E00E9455516DEF74E0C80171
:104EF0000E94C15341E062E070E0C8010E94EC1DD5
:104F00006091E30A7091E40A8091E50A9091E60AC3
:104F100021E041E00E94555160E075E0C8010E9427
:104F2000C15341E063E070E0C8010E94EC1D609154
:104F3000D70A7091D80A8091D90A9091DA0A21E0B3
:104F400041E00E94555162E075E0C8010E94C153E2
:104F500041E064E070E0C8010E94EC1D6091EF0A3E
:104F60007091F00A8091F10A9091F20A7DC30330AA
:104F7000110509F4ECC20430110509F098C361E091
:104F800081E090E00E94511E61E082E090E00E948A
:104F9000511E61E083E090E00E94511E2091A70B1A
:104FA0003091A80B4091A90B5091AA0B6091A30BD3
:104FB0007091A40B8091A50B9091A60B0E94B64E08
:104FC0002091AB0B3091AC0B4091AD0B5091AE0BDF
:104FD0000E94B64EAB01BC0122E0CE0101960E94B8
:104FE000A74CBE016F5F7F4FC7010E94AE4BCE0141
:104FF00001960E94DF4A20E030E044E150E0BE012B
:105000006F5F7F4FC7010E94B74D69EF74E0CE011B
:1050100001960E94C15341E061E070E0CE0101962B
:105020000E94EC1D2091530B3091540B4091550B75
:105030005091560B6091570B7091580B8091590B02
:1050400090915A0B0E94B64E20914F0B3091500B0D
:105050004091510B5091520B0E94B64E8E010F5F42
:105060001F4F21E041E00E9455516DEF74E0C801EF
:105070000E94C15341E062E070E0C8010E94EC1D53
:105080002091E70A3091E80A4091E90A5091EA0A32
:105090006091E30A7091E40A8091E50A9091E60A32
:1050A0000E94B64E2091EB0A3091EC0A4091ED0A35
:1050B0005091EE0A0E94B64E20E030E040E450E409
:1050C0000E941E4F21E041E00E94555160E075E0D2
:1050D000C8010E94C15341E063E070E0C8010E9432
:1050E000EC1D2091DB0A3091DC0A4091DD0A5091E1
:1050F000DE0A6091D70A7091D80A8091D90A9091FE
:10510000DA0A0E94B64E2091DF0A3091E00A4091FF
:10511000E10A5091E20A0E94B64E21E041E00E946D
:10512000555162E075E0C8010E94C15341E064E05E
:1051300070E0C8010E94EC1D2091F30A3091F40A3E
:105140004091F50A5091F60A6091EF0A7091F00AC9
:105150008091F10A9091F20A0E94B64E2091F70ACE
:105160003091F80A4091F90A5091FA0A0E94B64E1D
:1051700020E030E040E450E40E941E4F75C260E041
:1051800081E090E00E94511E60E082E090E00E9489
:10519000511E60E083E090E00E94511E2AE030E062
:1051A00040E050E06BE07DE0CE0101960E944E4E63
:1051B00020E030E04DE050E0BE016B5E7F4FCE015D
:1051C00001960E94B74DCE0101960E94DF4A80E20F
:1051D0008F8F8FEF8D0D8F3010F48CE704C08FE030
:1051E0008D1510F48DE788A38CEF8D0D803110F4B0
:1051F0008CE704C083E18D1510F48DE789A341E0AD
:1052000061E070E0CE0145960E94EC1DFE017596AE
:1052100080E28193EE15FF05E1F723E130E04BE0FA
:1052200050E06BE07DE0CE0101960E944E4E20E002
:1052300030E04DE050E0BE016B5E7F4FCE01019645
:105240000E94B74DCE0101960E94DF4A80E28D8F09
:1052500088EF8D0D803110F48CE704C087E18D1547
:1052600010F48DE788A384EF8D0D803110F48CE766
:1052700004C08BE18D1510F48DE789A341E062E055
:1052800070E0CE0145960E94EC1D2091A70B309155
:10529000A80B4091A90B5091AA0B6091A30B7091A0
:1052A000A40B8091A50B9091A60B0E94B64E209165
:1052B000AB0B3091AC0B4091AD0B5091AE0B0E94FB
:1052C000B64EAB01BC0122E0CE0101960E94A74C74
:1052D000BE016F5F7F4FC7010E94AE4BCE010196AA
:1052E0000E94DF4A20E030E044E150E0BE016F5F01
:1052F0007F4FC7010E94B74D69EF74E0CE01019660
:105300000E94C15341E063E070E0CE0101960E942B
:10531000EC1D2091530B3091540B4091550B509143
:10532000560B6091570B7091580B8091590B9091CF
:105330005A0B0E94B64E20914F0B3091500B40916A
:10534000510B5091520B0E94B64E8E010F5F1F4FB2
:1053500021E041E00E9455516DEF74E0C8010E94C8
:10536000C15341E064E070E0C8010E94EC1D20914F
:10537000E70A3091E80A4091E90A5091EA0A6091FF
:10538000E30A7091E40A8091E50A9091E60A0E948E
:10539000B64E2091EB0A3091EC0A4091ED0A509103
:1053A000EE0A0E94B64E20E030E040E450E40E9455
:1053B0001E4F21E041E00E94555160E075E0C801B8
:1053C0000E94C15341E065E070E0C8010E94EC1DFD
:1053D0002091DB0A3091DC0A4091DD0A5091DE0A0F
:1053E0006091DF0A7091E00A8091E10A9091E20AEF
:1053F0000E94B64E2091D70A3091D80A4091D90A1E
:105400005091DA0A0E94B64E21E041E00E945551C7
:1054100062E075E0C8010E94C1538091BD0C81110A
:1054200041C141E066E070E0CE0101960E94EC1DB2
:105430003EC160E081E090E00E94511E61E082E0A8
:1054400090E00E94511E60E083E090E00E94511EB7
:105450004091A70B5091A80B6091A90B7091AA0BDA
:1054600022E0CE0101960E94A74CBE016F5F7F4FE4
:10547000C7010E94AE4BCE0101960E94DF4A20E098
:1054800030E044E150E0BE016F5F7F4FC7010E94F2
:10549000B74D69EF74E0CE0101960E94C15341E01F
:1054A00061E070E0CE0101960E94EC1D6091530B0B
:1054B0007091540B8091550B9091560B8E010F5F9C
:1054C0001F4F21E041E00E9455516DEF74E0C8018B
:1054D0000E94C15341E062E070E0C8010E94EC1DEF
:1054E0006091E70A7091E80A8091E90A9091EA0ACE
:1054F00021E041E00E94555160E075E0C8010E9442
:10550000C15341E063E070E0C8010E94EC1D60916E
:10551000DB0A7091DC0A8091DD0A9091DE0A21E0BD
:1055200041E00E94555162E075E0C8010E94C153FC
:1055300041E064E070E0C8010E94EC1D6091F30A54
:105540007091F40A8091F50A9091F60A8DC060E09E
:1055500081E090E00E94511E60E082E090E00E94B5
:10556000511E61E083E090E00E94511E4091AB0B20
:105570005091AC0B6091AD0B7091AE0B22E0CE015F
:1055800001960E94A74CBE016F5F7F4FC7010E942A
:10559000AE4BCE0101960E94DF4A20E030E044E1AC
:1055A00050E0BE016F5F7F4FC7010E94B74D69EFAA
:1055B00074E0CE0101960E94C15341E061E070E0C9
:1055C000CE0101960E94EC1D60914F0B7091500B23
:1055D0008091510B9091520B8E010F5F1F4F21E074
:1055E00041E00E9455516DEF74E0C8010E94C15323
:1055F00041E062E070E0C8010E94EC1D6091EB0A9E
:105600007091EC0A8091ED0A9091EE0A21E041E060
:105610000E94555160E075E0C8010E94C15341E00D
:1056200063E070E0C8010E94EC1D6091DF0A709198
:10563000E00A8091E10A9091E20A21E041E00E94B3
:10564000555162E075E0C8010E94C15341E064E039
:1056500070E0C8010E94EC1D6091F70A7091F80A91
:105660008091F90A9091FA0A21E041E00E94555197
:1056700064E075E0C8010E94C15341E065E070E05C
:10568000C8010E94EC1D6091DF0B7091E00B8091CE
:10569000E10B9091E20B21E041E00E94555167E05F
:1056A00075E0B8CE8091D70C882309F4BACEC70133
:1056B0000E94DF4AA7960FB6F894DEBF0FBECDBF9B
:1056C000DF91CF911F910F91FF90EF90DF900895A0
:1056D0001F93CF93DF93CDB7DEB7C657D1090FB66F
:1056E000F894DEBF0FBECDBF61E777E0CE018F58E3
:1056F0009F4F0E94474BBE016F5F7F4F81E00E942A
:10570000AB1ABE016F5F7F4FCE018B599F4F0E9436
:10571000474BBE016B597F4FCE018F589F4F0E9460
:10572000AE4BCE018B599F4F0E94DF4ABE016F588E
:105730007F4F84E99DE00E94E74865EE74E0CE016A
:1057400085599F4F0E94474BBE0165597F4FCE013F
:105750008F589F4F0E94194E9C0145E050E0BE01BA
:105760006F587F4FCE018B599F4F0E944E4ECE01F6
:105770008B599F4F0E94914E162FCE018B599F4FF0
:105780000E94DF4ACE0185599F4F0E94DF4A4AE0BE
:1057900050E0612F84E99DE00E94CE4961E777E007
:1057A000CE018F589F4F0E94B94BCE018F589F4F0B
:1057B0000E94DF4A812FCA58DF4F0FB6F894DEBF30
:1057C0000FBECDBFDF91CF911F9108958F929F9211
:1057D000AF92BF92CF92DF92EF92FF92C0904508B6
:1057E000D0904608D601A25BB74020E833E341EEF3
:1057F00051E00E942D514B015C0182EB97E08C152A
:105800009D0570F49C0123703327232B39F420E885
:10581000820E21E5921E21E0A21EB11C0196EFCF5F
:10582000E0904408F12CE1E0F0E083E0C822DD24C0
:10583000EE15FF05FCF4E230F10559F4C114D10472
:1058400041F420E8820E2BE3921E26E2A21EB11C38
:105850000FC0DF01A95EB74FAC91B0E020E831E5A1
:1058600041E050E00E942D51860E971EA81EB91EE1
:105870003196DECF40914108C0904008D12CE12CF8
:10588000F12C88E5C81A8DE4D80AE108F1082091C6
:10589000420830E0A0E1BEE00E941E51C60ED71EB5
:1058A000E81EF91E242F30E0ACE3B0E00E941E5148
:1058B000C60ED71EE81EF91EA0914308B0E011974E
:1058C00020E831E541E050E00E943751C60ED71E76
:1058D000E81EF91EC80CD91CEA1CFB1CC701B60146
:1058E000FF90EF90DF90CF90BF90AF909F908F9000
:1058F00008951F93CF93DF93CDB7DEB7C657D10975
:105900000FB6F894DEBF0FBECDBF61E777E0CE01E2
:105910008F589F4F0E94474BBE016F5F7F4F82E0C1
:105920000E94AB1ABE016F5F7F4FCE018B599F4F14
:105930000E94474BBE016B597F4FCE018F589F4F3E
:105940000E94AE4BCE018B599F4F0E94DF4A6AE006
:1059500075E0CE0185599F4F0E94474BBE016559A6
:105960007F4FCE018F589F4F0E94194E892BE9F42B
:105970002AE130E049E150E0BE016F587F4FCE018F
:105980008B599F4F0E944E4E67E975E0CE018B59AF
:105990009F4F0E94684D11E0811101C010E0CE01BF
:1059A0008B599F4F0E94DF4A01C010E0CE018559FC
:1059B0009F4F0E94DF4A112309F45BC11092DB0C58
:1059C0001092DC0C1092DD0C1092DE0C61E777E097
:1059D0008BE09DE00E94B94B21E130E040E150E0D6
:1059E000BE016F587F4FCE018B599F4F0E944E4E84
:1059F00065EE74E0CE018B599F4F0E94684D182FC1
:105A0000CE018B599F4F0E94DF4A112309F46BC0CE
:105A100061E175E08BE09DE00E94B94B20E130E050
:105A200048E050E0BE016F587F4FCE018B599F4F29
:105A30000E944E4EBE016B597F4F8BE09DE00E944D
:105A4000FF4CCE018B599F4F0E94DF4A2AE030E085
:105A500048E050E0BE016F587F4FCE018B599F4FF9
:105A60000E944E4ECE018B599F4F0E94914E605323
:105A7000784F7093460860934508CE018B599F4F2D
:105A80000E94DF4A2DE030E04BE050E0BE016F584D
:105A90007F4FCE018B599F4F0E944E4ECE018B59A6
:105AA0009F4F0E94914E60934408CE018B599F4FA7
:105AB0000E94DF4A20E130E04EE050E0BE016F5826
:105AC0007F4FCE018B599F4F0E944E4ECE018B5976
:105AD0009F4F0E94914E60934308CE018B599F4F78
