:100000000C94A1080C9470430C949B430C94C6432D
:100010000C94F1430C941C440C9447440C9472448B
:100020000C949D440C94D2080C94D2080C94D208E1
:100030000C94D2080C94D2080C94D2080C94D208D8
:100040000C94D2080C94D2080C94D2080C94D208C8
:100050000C9411420C94D2080C94D2080C94C8440D
:100060000C94D2080C942E480C9464480C94D2083A
:100070000C94D2080C94D2080C94D2080C94D20898
:100080000C94D2080C94D2080C94D2080C94D20888
:100090000C94D2080C94D2080C94D2080C94D20878
:1000A0000C94D2080C94D2080C94D2080C94D20868
:1000B0000C94D2080C94D2080C94D2080C94D20858
:1000C0000C94D2080C94D2080C94D2080C94D20848
:1000D0000C94D2080C94D2080C94D9480C940F4973
:1000E0000C94D2084A4314431C43284335435643D7
:1000F0006343ED45F045DF45E345E9452746F445D3
:10010000F845FE45024606460C461046144627466C
:100110001A461E4622464C617374206572726F72D5
:10012000436F756E74657220004A6C616E6B61205E
:10013000506F776572204C6F6700537461727469F9
:100140006E67207468652050726F6700434F4E4E93
:10015000454354494F4E20434C4F5345440052654C
:1001600061647920666F7220726561642066726FC7
:100170006D2073657276657200000000000000005B
:100180005F00000007000700147F147F14242A7FFB
:100190002A122313086462364955225000050300D1
:1001A00000001C2241000041221C0014083E0814DB
:1001B00008083E0808005030000008080808080039
:1001C0006060000020100804023E5149453E004294
:1001D0007F400042615149462141454B311814127C
:1001E0007F1027454545393C4A4949300171090589
:1001F000033649494936064949291E00363600006A
:10020000005636000008142241001414141414007F
:10021000412214080201510906324979413E7E11FA
:1002200011117E7F494949363E414141227F41417A
:10023000221C7F494949417F090909013E41494939
:100240007A7F0808087F00417F41002040413F013C
:100250007F081422417F404040407F020C027F7F94
:100260000408107F3E4141413E7F090909063E4195
:1002700051215E7F09192946464949493101017FCB
:1002800001013F4040403F1F2040201F3F40384079
:100290003F63140814630708700807615149454318
:1002A000007F41410002040810200041417F00040A
:1002B000020102044040404040000102040020547A
:1002C0005454787F484444383844444420384444A3
:1002D000487F3854545418087E0901020C52525277
:1002E0003E7F0804047800447D40002040443D00E7
:1002F0007F1028440000417F40007C041804787C73
:100300000804047838444444387C1414140808144D
:1003100014187C7C080404084854545420043F44B6
:1003200040203C4040207C1C2040201C3C40304071
:100330003C44281028440C5050503C4464544C44D5
:1003400000083641007F4141417F7F7F7F7F7F10E2
:10035000080810087846414678510A380A200A0BE6
:100360000AF809DA09C209C009BE09AA099A098D61
:10037000097909630945092D091509F108D708C04C
:1003800008A6087E085C084B0827081608F307CD66
:1003900007A707830769075207400732071C0702B0
:1003A00007EE06DA06CB06B7069C068706860685A4
:1003B0000684068306820681068006750666065652
:1003C0000645063606250614060306F205E105D0A5
:1003D00005BF05AE059D058B0578056A0558054BDB
:1003E000053A0520051E050A05F904E904DA04D9D1
:1003F00004D804D704D604D504D404D304D204D139
:1004000004D004CF04CE04CD04CC04CB04CA04C968
:1004100004C804C704C604C504C404C304C204C198
:1004200004C004BF04BE04BD04BC04BB04BA04B9C8
:1004300004B804B704B604B504B404B304B204B1F8
:1004400004B004AF04AE04AD04AC04AB04AA04A928
:1004500004A804A704A604A504A404A304A204A158
:1004600004A0049F049E049D049C049B049A049988
:1004700004980497049604950494049304920491B8
:10048000048B048504494E464F3200494E464F3195
:10049000000000000000000000000000000000005C
:1004A000000000000000000000000000000000004C
:1004B000000000000000000000000000000000003C
:1004C000000000000000000000000000000000002C
:1004D00000000000000000000000204552524F5272
:1004E000205365727665722000204552524F52208B
:1004F000434950534855542000204552524F5220F2
:100500004347415454203D203100204552524F5220
:1005100020434950434C4F5345203D20310020009B
:10052000204552524F522043495053544152542077
:100530003D2049502C504F525400204552524F52AA
:100540002043494653522020495000204552524FE3
:100550005220434949524300204552524F522043B2
:10056000535454203D2041504E00204552524F528A
:100570002043474143543F00204552524F522043AD
:1005800049504D4F4445203D203100204552524FA7
:1005900052204349504D5558203D203000204552AF
:1005A000524F522043495053544154555300204513
:1005B00052524F52204349505354415455530020F6
:1005C0004552524F522043495053544154555300C1
:1005D000204552524F522043495053544154555391
:1005E00000204552524F52204349505354415455D4
:1005F0005300204552524F522043495053544154C6
:10060000555300204552524F5220434950535441B4
:1006100054555300204552524F5220434950535491
:100620004154555300204552524F52204349505394
:10063000544154555300204552524F522043524585
:10064000473F202000204552524F522043524547F9
:10065000203D20312000204552524F522041542B42
:1006600043434C4B2000204552524F522041542BC3
:100670004353512000204552524F522041542000F4
:1006800000000000000000204552524F522043500D
:100690004253203D20534D20204F4B0020455252C5
:1006A0004F522043504D53203D20534D2C534D2C41
:1006B000534D20204F4B00204552524F5220434E65
:1006C0004D49203D203120204F4B00204552524FB4
:1006D000522043535120204F4B00204552524F523D
:1006E00020434D4746203D203120204F4B002045E0
:1006F00052524F5220434C5453203D203120204F22
:100700004B00204552524F52204350494E3F20202B
:100710004350494E3A2052454144590020455252D7
:100720004F5220495052203D203936303020204F42
:100730004B00204552524F52205A20204F4B200050
:10074000204552524F522043495053454E44202099
:100750003E00204552524F5220434950535052546C
:10076000203D203120204F4B00204552524F522037
:1007700043495053454E443F202043495020534560
:100780004E4400204552524F522043495053544149
:10079000545553202053544154453A20434F4E4E14
:1007A000454354204F4B00204552524F522043495D
:1007B000505354415254203D2049502C504F5254D4
:1007C0002020434F4E4E454354204F4B002045526E
:1007D000524F522043444E53434647203D20382E2B
:1007E000382E382E382E2C382E382E342E34202009
:1007F0004F4B00204552524F5220434950535441D1
:10080000545553202053544154453A2049502053C5
:10081000544154555300204552524F5220434946AB
:1008200053522020495000204552524F52204349F4
:1008300050535441545553202053544154453A2069
:100840004950204750525341435400204552524F83
:100850005220434949524320204F4B0020455252D9
:100860004F52204349505354415455532020535420
:100870004154453A20495020535441525400204598
:1008800052524F522043535454203D2041504E2C3D
:10089000555345524E414D452C50415353574F529D
:1008A0004420204F4B00204552524F522043474195
:1008B00043543F202043474143543A20313B3100C9
:1008C000204552524F52204347414354203D20314E
:1008D0002C3220204F4B00204552524F522043478C
:1008E0004143543F202043474143543A20312C3068
:1008F00000204552524F52204349505354415455C1
:1009000053202053544154453A20495020494E49E0
:100910005449414C00204552524F522043495053B4
:10092000485554202053485554204F4B00204552E1
:10093000524F5220435245473F2020435245473AA9
:1009400020312C3100204552524F5220434744431E
:100950004F4E54203D20322C49502C41504E2020E7
:100960004F4B00204552524F52204349504D55584D
:10097000203D203020204F4B00204552524F522026
:1009800043524547203D203120204F4B0020455207
:10099000524F52204154204F4B00204552524F524B
:1009A0002047534D2054494D4500204552524F5247
:1009B0002044454C4554494E4720534D5300200098
:1009C000200020494E464F2047534D20504F574559
:1009D00052204F4E20444F4E4500204552524F5218
:1009E0002047534D204552524F52204F56455220DA
:1009F000434F554E54454400204552524F522047D4
:100A0000534D205354415455532000204552524FCA
:100A1000522052454144204B20454550524F4D00F5
:100A2000204552524F522057524954452044415478
:100A300041204F4E20534400204552524F52204CEB
:100A40004F4144494E4720434F4E462046494C456E
:100A50000020494E464F20506F776572204F6E0040
:100A6000E20ED00EBE0EAD0E9B0E8B0E7A0E6A0EEF
:100A7000580E470E310E280E1B0E100E040EF80DE8
:100A8000F60DEC0DE40DDE0DD60DCF0DC70DBF0D2F
:100A9000B70DB30DB00DAD0DAB0D960D8F0D8C0DCB
:100AA000830D7A0D710D680D5F0D560D4D0D440DC2
:100AB0003B0D320D290D200D170D0E0D050DFC0CF3
:100AC000F30CEA0CE10CD80CCF0CC60CBD0CB40C2A
:100AD000AB0CA20C990C900C870C7E0C750C6C0C5A
:100AE000630C5A0C510C480C3F0C360C2D0C240C8A
:100AF0001B0C120C090C000CF70BEE0BE50BDC0BBE
:100B0000D30BCA0BC10BB80BAF0BA60B9D0B940BF1
:100B10008B0B820B790B700B670B5E0B550B4C0B21
:100B2000430B3A0B310B280B537472696E672035F7
:100B300000537472696E67203500537472696E6772
:100B4000203500537472696E6720350053747269E2
:100B50006E67203500537472696E672035005374D8
:100B600072696E67203500537472696E67203500B4
:100B7000537472696E67203500537472696E672012
:100B80003500537472696E67203500537472696E54
:100B900067203500537472696E6720350053747294
:100BA000696E67203500537472696E672035005393
:100BB0007472696E67203500537472696E672035F0
:100BC00000537472696E67203500537472696E67E2
:100BD000203500537472696E672035005374726952
:100BE0006E67203500537472696E67203500537448
:100BF00072696E67203500537472696E6720350024
:100C0000537472696E67203500537472696E672081
:100C10003500537472696E67203500537472696EC3
:100C200067203500537472696E6720350053747203
:100C3000696E67203500537472696E672035005302
:100C40007472696E67203500537472696E6720355F
:100C500000537472696E67203500537472696E6751
:100C6000203500537472696E6720350053747269C1
:100C70006E67203500537472696E672035005374B7
:100C800072696E67203500537472696E6720350093
:100C9000537472696E67203500537472696E6720F1
:100CA0003500537472696E67203500537472696E33
:100CB00067203500537472696E6720350053747273
:100CC000696E67203500537472696E672035005372
:100CD0007472696E67203500537472696E672035CF
:100CE00000537472696E67203500537472696E67C1
:100CF000203500537472696E672035005374726931
:100D00006E67203500537472696E67203500537426
:100D100072696E67203500537472696E6720350002
:100D2000537472696E67203500537472696E672060
:100D30003500537472696E67203500537472696EA2
:100D400067203500537472696E67203500537472E2
:100D5000696E67203500537472696E6720350053E1
:100D60007472696E67203500537472696E6720353E
:100D700000537472696E67203500537472696E6730
:100D8000203500537472696E672035004F4B002B7D
:100D9000434D47523A00484156452052455354412D
:100DA0005254204D455353414745003E004F4B00A0
:100DB0004F4B002B2B2B005345525645523A0053B4
:100DC000485554204F4B00434F4E4E454354002B43
:100DD0004353513A20002B43434C4B3A2000455299
:100DE000524F520053454E44204F4B002B43495025
:100DF00053454E443A002E002B43474143543A207A
:100E0000312C31002B43474143543A20312C3000E0
:100E10002B435245473A20312C31002B4350494E49
:100E20003A20524541445900434C4F5345204F4BC3
:100E30000053544154453A2054435020434F4E4EA2
:100E4000454354494E470053544154453A20495074
:100E500020434F4E4649470053544154453A20548D
:100E6000435020434C4F53454400414C524541446C
:100E70005920434F4E4E4543540053544154453A34
:100E8000205044502044454143540053544154455C
:100E90003A20495020535441525400535441544530
:100EA0003A20495020475052534143540053544133
:100EB00054453A20495020535441545553005354FB
:100EC0004154453A20434F4E4E454354204F4B002A
:100ED00053544154453A20495020494E49544941C0
:100EE0004C004F4B0000000A0B02090C0D0E0807C6
:100EF00003040100000000000000000000000000EA
:100F000000000000000000000000000000000000E1
:100F1000001211100000000000000000000000009E
:100F2000000000000000000000000001021020206E
:100F3000080810204010204080020102010804022D
:100F400001010204081020408080402010080402A3
:100F500001800402018040201008040201080402FC
:100F60000101020408102040800102040810204002
:100F70008005050505070508080808020202020A9F
:100F80000A0808040404040101010101010101032C
:100F900003030303030303040707070C0C0C0C0CE7
:100FA0000C0C0C0202020206060606060606060BDA
:100FB0000B0B0B0B0B0B0B00002000230026002952
:100FC000002C002F0032000001000003010601097F
:100FD0000100002200250028002B002E00310034E3
:100FE0000002010000050108010B0100002100249E
:100FF0000027002A002D003000330001010000040A
:101000000107010A014E414E494E495459494E4685
:10101000CDCCCC3D0AD7233C17B7D13877CC2B3277
:101020009595E6241FB14F0A000020410000C842F8
:1010300000401C4620BCBE4CCA1B0E5AAEC59D7457
:1010400000407A10F35A00A0724E18090010A5D47F
:10105000E80000E87648170000E40B54020000CADC
:101060009A3B000000E1F505000080969800000022
:1010700040420F000000A086010000001027000081
:101080000000E803000000006400000000000A0007
:10109000000000000100000000002C76D888DC670A
:1010A0004F0823DFC1DFAE59E1B1B796E5E3E45362
:1010B000C63AE651997696E8E6C28426EB898C9B7F
:1010C00062ED407C6FFCEFBC9C9F40F2BAA56FA51F
:1010D000F490055A2AF75C936B6CF9676DC11BFCA1
:1010E000E0E40D47FEF520E6B500D0ED902E0300BC
:1010F000943577050080841E080000204E0A000009
:1011000000C80C333333330F986E12831141EF8DC7
:101110002114893BE65516CFFEE6DB18D1844B3807
:101120001BF77C1D901DA4BBE424203284725E2238
:101130008100C9F124ECA1E53D27E93396484149F6
:101140001D3411241FBECFEFD1E2DEBFCDBF00E0C2
:101150000CBF18E0A0E0B2E0E4EDF9EB00E00BBF5B
:1011600002C007900D92AE33B107D9F72EE0AEE37F
:10117000B8E001C01D92A63DB207E1F711E1C0E45D
:10118000D1E100E006C022970109FE010BBF0E94D9
:101190009952CA33D10780E00807A9F70E9402508C
:1011A0000C94D85C0C9400000F931F938091090D50
:1011B00090910A0DA0910B0DB0910C0D4091050D71
:1011C0005091060D6091070D7091080D8C019D01E5
:1011D000041B150B260B370B0B3F110521053105A1
:1011E000D0F03091F30C2091F40C321314C08093A2
:1011F000050D9093060DA093070DB093080D60E0C8
:101200008DE20E9461468091F30C8F5F8093F30C16
:1012100081E0809306028091F30C853010F01092EB
:10122000F30C1F910F91089587EE9BE00E94064CEE
:101230008DEE9BE00E94064C89EC9CE00E94064CDF
:1012400083EC9CE00E94064C8DEB9CE00E94064CD7
:1012500082EE9CE00E94064C8DE09DE00E94064CD0
:101260008AE79DE00E94064C80E89DE00C94064CC5
:101270000C9430588EBD00000DB407FEFDCF8EB526
:1012800008959CB5937F982B9CBD08952CB5982FFD
:1012900093702C7F922B9CBD9DB582FB882780F993
:1012A0009E7F982B9DBD089544EF5BE66FE070E054
:1012B00086E89DE00E94A4422FEF3FEFA90163E77B
:1012C00079E086E89DE00C94B342EAE5FCE08FEF1C
:1012D00081939CE0E938F907D9F78091140D8F5F6D
:1012E0008093140D08952091F00C2F5F2093F00C43
:1012F0008091E80C9091E90CA091EA0CB091EB0C74
:101300000196A11DB11D8093E80C9093E90CA09368
:10131000EA0CB093EB0C2C3398F08091F10C8F5FBA
:101320008093F10C8091160D9091170D019690937A
:10133000170D8093160D81E08093F20C1092F00C43
:101340008091F10C853018F0C0DF1092F10C0895F7
:1013500061E081E30E94284661E08CE10E9428461A
:1013600061E08BE10E94284661E088E10E94284606
:1013700061E08DE20E94284661E08AE10E942846F1
:1013800060E08EE30E94284660E088E20E942846E2
:1013900060E086E30E94284661E086E20E942846DB
:1013A00061E087E30E94284660E08BE20E942846C5
:1013B00061E084E30E94284660E082E30E942846C0
:1013C00061E083E30E94284661E081E30E94614678
:1013D00061E08CE10E94614661E08BE10E94614620
:1013E00061E088E10E94614660E08DE20E94614612
:1013F00060E08AE10C946146EF92FF920F931F9395
:10140000CF93DF93182F042FF52ED62FE72ECAE0A7
:101410008FEF30DFC150E1F760E08BE10E94614661
:10142000812F806427DF8E2D25DF8D2F23DF8F2DE9
:1014300021DF802F1FDF85E91DDF8FEF1BDFD82F16
:101440008F3F11F4C150C9F761E08BE10E94614602
:101450008D2FDF91CF911F910F91FF90EF90089505
:10146000CF93DF930E94CC4280E00BDF8CB58F7D61
:101470008CBD82E00BDFCFEFD0E040E050E0BA015E
:1014800080E0BADF2197E9F08130B9F7CFEFD0E003
:1014900040E050E0BA0181E0AFDF2197A1F0811177
:1014A000F7CFCBE0D0E040E052E060E070E080E1D8
:1014B000A3DF219721F08111F6CF80E005C088E0FD
:1014C00003C081E001C082E0DF91CF910895CF9207
:1014D000DF92EF92FF920F931F93CF93DF936B01F5
:1014E0007C018A01BDDFC82F80E0D0DEC11138C089
:1014F00089E0CC0CDD1CEE1CFF1C8A95D1F7CBE0FB
:10150000D0E0B701A60181E177DF219759F1811180
:10151000F8CF60E08BE10E946146CAE5D2E08FEF30
:10152000A9DE8E3F21F02197D1F784E01CC0E801AD
:10153000E12CF12C8FEF9EDE89938FEFE81AF80AE9
:10154000E11482E0F806B1F78FEF94DE8FEF92DEC0
:101550008FEF90DE61E08BE10E94614680E003C086
:101560008C2F01C083E0DF91CF911F910F91FF90ED
:10157000EF90DF90CF900895CF92DF92EF92FF929D
:101580000F931F93CF93DF936B017C018A0168DF78
:10159000C82F80E07BDEC11150C099E0CC0CDD1C6F
:1015A000EE1CFF1C9A95D1F7C0E0D0E0B701A60170
:1015B00088E122DF2196CB30D10509F43CC08111AE
:1015C000F5CF60E08BE10E9461468EEF53DE78013B
:1015D000C12CD12CF70181917F014CDEFFEFCF1A96
:1015E000DF0AC11422E0D206A9F78FEF43DE8FEFA6
:1015F00041DE8FEF3FDE8F71853061F061E08BE17E
:101600000E94614686E01AC0CE010196C136DA4ECC
:1016100030F4EC018FEF2EDE8823B1F306C061E0D9
:101620008BE10E94614687E009C061E08BE10E9486
:10163000614680E003C085E001C08C2FDF91CF912F
:101640001F910F91FF90EF90DF90CF90089584E06D
:1016500018DE60E08CE10E94614680E017DE82E3E4
:1016600090E00C94674561E08CE10E94614682E362
:1016700090E00E94674580E004CECF93DF931F92F5
:101680001F92CDB7DEB76A838983E1DF89818068E5
:10169000F1DD6A81862FEEDD0F900F90DF91CF9103
:1016A000E2CF1F93CF93DF931F921F92CDB7DEB788
:1016B000182F6A837983CBDF82E390E00E9467452D
:1016C000812F8068D7DD82E390E00E9467457981B1
:1016D000872FD0DD82E390E00E9467456A81862FE4
:1016E000C9DD82E390E00E9467450F900F90DF9183
:1016F000CF911F91B8CF1F93CF93DF9300D0CDB779
:10170000DEB7182F4B835A836983A1DF82E390E011
:101710000E946745812F8068ADDD82E390E00E94E2
:1017200067456981862FA6DD82E390E00E946745C8
:101730005A81852F9FDD82E390E00E9467454B81AF
:10174000842F98DD82E390E00E9467450F900F9010
:101750000F90DF91CF911F9186CFCF93DF931F9290
:10176000CDB7DEB7898373DF898184DD8FEF82DDBA
:10177000898379DF89810F90DF91CF910895CF938D
:10178000DF93C82F64DF82E390E00E9467458C2FCF
:1017900071DD82E390E00E94674580E06BDDC82F39
:1017A00082E390E00E94674580E064DDD82F82E309
:1017B00090E00E94674557DF8D2F90E09C2BDF91D2
:1017C000CF9108950F931F93CF93182F40DF82E39B
:1017D00090E00E946745812F4DDD82E390E00E94FA
:1017E000674580E047DD182F82E390E00E9467455F
:1017F00080E040DD082F82E390E00E94674580E0B2
:1018000039DDC82F82E390E00E9467452CDF6C2F02
:1018100070E080E090E0812B10E0102F002720E0A6
:1018200030E0602B712B822B932BCF911F910F9166
:101830000895EF92FF920F931F93CF93DF93CDB74D
:10184000DEB76F970FB6F894DEBF0FBECDBFCE01E7
:1018500001967C0102E81FE0C8010ADD682FC8017B
:1018600001966F8F05DD6F8DF70160838183F2E054
:10187000EF0EF11C4AE050E0782F86E99DE00E94CF
:10188000D34A0E5F1F4F003A8FE0180729F7CE01A9
:101890004F96FE01319640E02191319112161306C8
:1018A0000CF441E0E817F907B9F7442309F4BCC088
:1018B0008E010F5F1F4F93E3F801619171918F01CA
:1018C000892F9F8FEEDE9F8D9F5F9234A9F764E092
:1018D00083E1D3DE88EC90E00E9467456CEF84E101
:1018E000CCDE88EC90E00E94674560E085E1C5DED3
:1018F00088EC90E00E9467456CE986E1BEDE88ECEA
:1019000090E00E94674568E787E1B7DE88EC90E0E9
:101910000E94674540E050E0BA0188E1ECDE88ECC7
:1019200090E00E9467456FEF7FEF8BE1BADE88ECB5
:1019300090E00E9467456FEF7FEF8CE1B2DE88ECAC
:1019400090E00E9467456FEF8DE197DE88EC90E0B4
:101950000E94674560E08EE190DE88EC90E00E9496
:1019600067456FEF8FE189DE88EC90E00E94674564
:101970006FEF80E282DE88EC90E00E94674560E0D5
:1019800078E08AE28EDE88EC90E00E94674560E0B5
:1019900078E08BE286DE88EC90E00E94674560E0AC
:1019A00078E08CE27EDE88EC90E00E94674560E0A3
:1019B00078E080E376DE88EC90E00E94674560E0A6
:1019C00078E081E36EDE88EC90E00E94674560E09D
:1019D00078E082E366DE88EC90E00E94674560E094
:1019E00078E08DE25EDE88EC90E00E94674560E082
:1019F00078E08EE256DE88EC90E00E94674560E079
:101A000078E08FE24EDE88EC90E00E9467456F96AA
:101A10000FB6F894DEBF0FBECDBFDF91CF911F91FF
:101A20000F91FF90EF900895CE0101967C0102E89E
:101A30001FE0C8011DDC682FC80101966F8F18DCFC
:101A40006F8DF70160838183F2E0EF0EF11C4AE0B5
:101A500050E0782F86E99DE00E94D34A0E5F1F4F29
:101A6000003A8FE0180729F78E010F5F1F4F93E3AD
:101A7000F801619171918F01892F9F8F12DE9F8DE7
:101A80009F5F9234A9F723CF0F931F93CF93DF93D8
:101A90008B01D82FC92F20E030E040E85FE30E949F
:101AA000C55187FF10C020E030E040E85FEBB8018F
:101AB0008D2F9C2F0E94765018164CF008E411EEE2
:101AC000DAE7CFEB04C008E411EEDAE7CFE3B801C0
:101AD0008D2F9C2FDF91CF911F910F910895CF9261
:101AE000DF92EF92FF920F931F93DC01FB01C08006
:101AF000D180E280F380A701772757FD7095672F8B
:101B00000D911D912D913C911397F7FE14C04F5FDD
:101B10005F4F6F4F7F4F400F511F621F731F4D93D9
:101B20005D936D937C93139780819181A281B381A2
:101B3000AF6FBF6F0FC0400F511F621F731F4D93D8
:101B40005D936D937C93139780819181A281B38182
:101B5000AA27BB2780839183A283B3831F910F9110
:101B6000FF90EF90DF90CF900895CF93DF93C091D7
:101B7000180DD091190D1C161D060CF0D5C1209121
:101B8000E10A3091E20A4091E30A5091E40A60913F
:101B9000C50B7091C60B8091C70B9091C80B0E942A
:101BA00012506093C50B7093C60B8093C70B909334
:101BB000C80B2091E50A3091E60A4091E70A50915E
:101BC000E80A6091C90B7091CA0B8091CB0B909180
:101BD000CC0B0E9412506093C90B7093CA0B809378
:101BE000CB0B9093CC0B2091E90A3091EA0A4091FB
:101BF000EB0A5091EC0A6091CD0B7091CE0B809165
:101C0000CF0B9091D00B0E9412506093CD0B70932C
:101C1000CE0B8093CF0B9093D00B2091D50A3091AF
:101C2000D60A4091D70A5091D80A6091B90B7091A9
:101C3000BA0B8091BB0B9091BC0B0E941250609329
:101C4000B90B7093BA0B8093BB0B9093BC0B209194
:101C5000D90A3091DA0A4091DB0A5091DC0A60918E
:101C6000BD0B7091BE0B8091BF0B9091C00B0E9479
:101C700012506093BD0B7093BE0B8093BF0B90937B
:101C8000C00B2091DD0A3091DE0A4091DF0A5091AD
:101C9000E00A6091C10B7091C20B8091C30B9091CF
:101CA000C40B0E9412506093C10B7093C20B8093BF
:101CB000C30B9093C40B2091550B3091560B409160
:101CC000570B5091580B60917D0B70917E0B80915A
:101CD0007F0B9091800B0E94125060937D0B70934C
:101CE0007E0B80937F0B9093800B2091510B309152
:101CF000520B4091530B5091540B6091810B70919A
:101D0000820B8091830B9091840B0E941250609300
:101D1000810B7093820B8093830B9093840B2091A3
:101D20004D0B30914E0B40914F0B5091500B6091E9
:101D3000850B7091860B8091870B9091880B0E9488
:101D400012506093850B7093860B8093870B909352
:101D5000880B2091610B3091620B4091630B509185
:101D6000640B6091710B7091720B8091730B909169
:101D7000740B0E9412506093710B7093720B8093DE
:101D8000730B9093740B20915D0B30915E0B40911F
:101D90005F0B5091600B6091750B7091760B809189
:101DA000770B9091780B0E9412506093750B709393
:101DB000760B8093770B9093780B2091590B309191
:101DC0005A0B40915B0B50915C0B6091790B7091B9
:101DD0007A0B80917B0B90917C0B0E941250609348
:101DE000790B70937A0B80937B0B90937C0B2091F3
:101DF000490B30914A0B40914B0B50914C0B609129
:101E0000890B70918A0B80918B0B90918C0B0E94A7
:101E100012506093890B70938A0B80938B0B909375
:101E20008C0B2091450B3091460B4091470B509104
:101E3000480B60918D0B70918E0B80918F0B909160
:101E4000900B0E94125060938D0B70938E0B8093B9
:101E50008F0B9093900B2091410B3091420B40914E
:101E6000430B5091440B6091910B7091920B8091B8
:101E7000930B9091940B0E9412506093910B70936E
:101E8000920B8093930B9093940B2091ED0A3091D9
:101E9000EE0A4091EF0A5091F00A6091D10B7091D7
:101EA000D20B8091D30B9091D40B0E94125060936F
:101EB000D10B7093D20B8093D30B9093D40B2091C2
:101EC000F10A3091F20A4091F30A5091F40A6091BC
:101ED000D50B7091D60B8091D70B9091D80B0E94A7
:101EE00012506093D50B7093D60B8093D70B9093C1
:101EF000D80B2091F50A3091F60A4091F70A5091DB
:101F0000F80A6091D90B7091DA0B8091DB0B9091FC
:101F1000DC0B0E9412506093D90B7093DA0B809304
:101F2000DB0B9093DC0B20C18091E10A9091E20AD7
:101F3000A091E30AB091E40A8093C50B9093C60B7D
:101F4000A093C70BB093C80B8091E50A9091E60A65
:101F5000A091E70AB091E80A8093C90B9093CA0B4D
:101F6000A093CB0BB093CC0B8091E90A9091EA0A35
:101F7000A091EB0AB091EC0A8093CD0B9093CE0B1D
:101F8000A093CF0BB093D00B8091D50A9091D60A35
:101F9000A091D70AB091D80A8093B90B9093BA0B4D
:101FA000A093BB0BB093BC0B8091D90A9091DA0A35
:101FB000A091DB0AB091DC0A8093BD0B9093BE0B1D
:101FC000A093BF0BB093C00B8091DD0A9091DE0A05
:101FD000A091DF0AB091E00A8093C10B9093C20BED
:101FE000A093C30BB093C40B8091550B9091560BEB
:101FF000A091570BB091580B80937D0B90937E0B63
:10200000A0937F0BB093800B8091510B9091520B5A
:10201000A091530BB091540B8093810B9093820B42
:10202000A093830BB093840B80914D0B90914E0B3A
:10203000A0914F0BB091500B8093850B9093860B22
:10204000A093870BB093880B8091610B9091620BEA
:10205000A091630BB091640B8093710B9093720B02
:10206000A093730BB093740B80915D0B90915E0BFA
:10207000A0915F0BB091600B8093750B9093760BE2
:10208000A093770BB093780B8091590B90915A0BDA
:10209000A0915B0BB0915C0B8093790B90937A0BC2
:1020A000A0937B0BB0937C0B8091490B90914A0BD2
:1020B000A0914B0BB0914C0B8093890B90938A0BA2
:1020C000A0938B0BB0938C0B8091450B9091460B9A
:1020D000A091470BB091480B80938D0B90938E0B82
:1020E000A0938F0BB093900B8091410B9091420B7A
:1020F000A091430BB091440B8093910B9093920B62
:10210000A093930BB093940B8091ED0A9091EE0AFB
:10211000A091EF0AB091F00A8093D10B9093D20B6B
:10212000A093D30BB093D40B8091F10A9091F20A53
:10213000A091F30AB091F40A8093D50B9093D60B3B
:10214000A093D70BB093D80B8091F50A9091F60A23
:10215000A091F70AB091F80A8093D90B9093DA0B0B
:10216000A093DB0BB093DC0B2196D093190DC09399
:10217000180DDF91CF9108954F925F926F927F92E9
:102180008F929F92AF92BF92CF92DF92EF92FF9287
:10219000CF93DF93CDB7DEB7E0970FB6F894DEBFED
:1021A0000FBECDBF6091090D70910A0D80910B0D8E
:1021B00090910C0DC090010DD090020DE090030D98
:1021C000F090040D6C197D098E099F090E9413512E
:1021D0006B017C016091C10A7091C20A882777FD6A
:1021E0008095982F0E94155120E030E040E85DE393
:1021F0000E94C9516093DD0B7093DE0B8093DF0B5F
:102200009093E00B6091AF0A7091B00A8091B10A8F
:102210009091B20A0E94155120916E0D30916F0D70
:102220004091700D5091710D0E947A506093E10AB7
:102230007093E20A8093E30A9093E40A6091AB0AF8
:102240007091AC0A8091AD0A9091AE0A0E9415512E
:102250002091720D3091730D4091740D5091750D58
:102260000E947A506093E50A7093E60A8093E70A29
:102270009093E80A6091A70A7091A80A8091A90A30
:102280009091AA0A0E9415512091760D3091770DF8
:102290004091780D5091790D0E947A506093E90A2F
:1022A0007093EA0A8093EB0A9093EC0A6091BB0A60
:1022B0007091BC0A8091BD0A9091BE0A0E9415518E
:1022C0002091620D3091630D4091640D5091650D28
:1022D0000E947A506093D50A7093D60A8093D70AE9
:1022E0009093D80A6091B70A7091B80A8091B90AA0
:1022F0009091BA0A0E9415512091660D3091670D98
:102300004091680D5091690D0E947A506093D90AEE
:102310007093DA0A8093DB0A9093DC0A6091B30A27
:102320007091B40A8091B50A9091B60A0E94155135
:1023300020916A0D30916B0D40916C0D50916D0D97
:102340000E947A506093DD0A7093DE0A8093DF0A60
:102350009093E00A8091D30A9091D40A9C0144277B
:1023600037FD4095542F29833A834B835C83CA0100
:10237000B9010E9415512091260D3091270D4091F1
:10238000280D5091290D0E94C951A70196010E9464
:102390007A5020E030E04AE754E40E94C9516D834E
:1023A0007E838F8398876093550B7093560B809331
:1023B000570B9093580B8091D10A9091D20A9C01AF
:1023C000442737FD4095542F29873A874B875C87F0
:1023D000CA01B9010E94155120912A0D30912B0D8F
:1023E00040912C0D50912D0D0E94C951A7019601CD
:1023F0000E947A5020E030E04AE754E40E94C9513C
:102400006D877E878F87988B6093510B7093520BEB
:102410008093530B9093540B8091CF0A9091D00AE4
:102420009C01442737FD4095542F298B3A8B4B8BC9
:102430005C8BCA01B9010E94155120912E0D30917B
:102440002F0D4091300D5091310D0E94C951A701BF
:1024500096010E947A5020E030E04AE754E40E945E
:10246000C9516D8B7E8B8F8B988F60934D0B7093C2
:102470004E0B80934F0B9093500B8091CD0A90910F
:10248000CE0A9C01442737FD4095542F298F3A8F5F
:102490004B8F5C8FCA01B9010E94155120911A0D12
:1024A00030911B0D40911C0D50911D0D0E94C95182
:1024B000A70196010E947A5020E030E04AE754E4F8
:1024C0000E94C9516093610B7093620B8093630B00
:1024D0009093640B8091CB0A9091CC0A9C01442785
:1024E00037FD4095542F2D8F3E8F4F8F58A3CA0133
:1024F000B9010E94155120911E0D30911F0D409180
:10250000200D5091210D0E94C951A70196010E94F2
:102510007A5020E030E04AE754E40E94C9516093C9
:102520005D0B70935E0B80935F0B9093600B8091BB
:10253000C90A9091CA0A9C01442737FD4095542F3F
:1025400029A33AA34BA35CA3CA01B9010E94155168
:102550002091220D3091230D4091240D5091250D95
:102560000E94C951A70196010E947A5020E030E0F4
:102570004AE754E40E94C9516093590B70935A0B77
:1025800080935B0B90935C0B8091C70A9091C80A73
:102590009C01442737FD4095542F2DA33EA34FA304
:1025A00058A7CA01B9010E9415512091320D3091EE
:1025B000330D4091340D5091350D0E94C951A70142
:1025C00096010E947A5020E030E04AE754E40E94ED
:1025D000C9512B013C016093490B70934A0B8093C6
:1025E0004B0B90934C0B8091C50A9091C60A9C01AD
:1025F000442737FD4095542F29A73AA74BA75CA73E
:10260000CA01B9010E9415512091360D3091370D44
:102610004091380D5091390D0E94C951A701960182
:102620000E947A5020E030E04AE754E40E94C95109
:102630004B015C016093450B7093460B8093470BF5
:102640009093480B8091C30A9091C40A9C0144273F
:1026500037FD4095542F2DA73EA74FA758ABCA0171
:10266000B9010E94155120913A0D30913B0D4091D6
:102670003C0D50913D0D0E94C951A70196010E9449
:102680007A5020E030E04AE754E40E94C9516B01DF
:102690007C016093410B7093420B8093430B9093AA
:1026A000440BA30192016D817E818F8198850E94E8
:1026B0007A50EAD96093ED0A7093EE0A8093EF0A9C
:1026C0009093F00AA50194016D857E858F85988988
:1026D0000E947A50D9D96093F10A7093F20A8093DC
:1026E000F30A9093F40AA70196016D897E898F8978
:1026F000988D0E947A50C8D96093F50A7093F60AB3
:102700008093F70A9093F80A8091190B90911A0B15
:10271000A0911B0BB0911C0B29813A814B815C81EC
:10272000820F931FA41FB51F8093190B90931A0B50
:10273000A0931B0BB0931C0B8091150B9091160B63
:10274000A091170BB091180B29853A854B855C85B4
:10275000820F931FA41FB51F8093150B9093160B28
:10276000A093170BB093180B8091110B9091120B43
:10277000A091130BB091140B29893A894B895C897C
:10278000820F931FA41FB51F8093110B9093120B00
:10279000A093130BB093140B80910D0B90910E0B23
:1027A000A0910F0BB091100B298D3A8D4B8D5C8D44
:1027B000820F931FA41FB51F80930D0B90930E0BD8
:1027C000A0930F0BB093100B8091090B90910A0B03
:1027D000A0910B0BB0910C0B2D8D3E8D4F8D58A100
:1027E000820F931FA41FB51F8093090B90930A0BB0
:1027F000A0930B0BB0930C0B8091050B9091060BE3
:10280000A091070BB091080B29A13AA14BA15CA1A3
:10281000820F931FA41FB51F8093050B9093060B87
:10282000A093070BB093080B8091010B9091020BC2
:10283000A091030BB091040B2DA13EA14FA158A56F
:10284000820F931FA41FB51F8093010B9093020B5F
:10285000A093030BB093040B8091FD0A9091FE0AA4
:10286000A091FF0AB091000B29A53AA54BA55CA544
:10287000820F931FA41FB51F8093FD0A9093FE0A39
:10288000A093FF0AB093000B8091F90A9091FA0A85
:10289000A091FB0AB091FC0A2DA53EA54FA558A911
:1028A000820F931FA41FB51F8093F90A9093FA0A11
:1028B000A093FB0AB093FC0A69E17BE08DE39BE007
:1028C0000ED965E17BE089E39BE009D961E17BE01A
:1028D00085E39BE004D96DE07BE081E39BE0FFD8DA
:1028E00069E07BE08DE29BE0FAD865E07BE089E27D
:1028F0009BE0F5D861E07BE085E29BE0F0D86DEFEE
:102900007AE081E29BE0EBD869EF7AE08DE19BE031
:10291000E6D860913D0B70913E0B80913F0B9091FA
:10292000400B0E94155120914A0D30914B0D409162
:102930004C0D50914D0D0E94C9516093A10B7093A5
:10294000A20B8093A30B9093A40B6091390B709111
:102950003A0B80913B0B90913C0B0E9415512091BA
:102960004E0D30914F0D4091500D5091510D0E94E0
:10297000C9516093A50B7093A60B8093A70B9093FE
:10298000A80B6091350B7091360B8091370B9091AD
:10299000380B0E9415512091520D3091530D4091EA
:1029A000540D5091550D0E94C9516093A90B70931D
:1029B000AA0B8093AB0B9093AC0B6091310B709191
:1029C000320B8091330B9091340B0E941551209162
:1029D0003E0D30913F0D4091400D5091410D0E94B0
:1029E000C9516093950B7093960B8093970B9093BE
:1029F000980B60912D0B70912E0B80912F0B909165
:102A0000300B0E9415512091420D3091430D4091A1
:102A1000440D5091450D0E94C9516093990B7093DC
:102A20009A0B80939B0B90939C0B6091290B709158
:102A30002A0B80912B0B90912C0B0E941551209109
:102A4000460D3091470D4091480D5091490D0E941F
:102A5000C95160939D0B70939E0B80939F0B909335
:102A6000A00B6091250B7091260B8091270B909104
:102A7000280B0E9415512091560D3091570D409111
:102A8000580D5091590D0E94C9516093AD0B709330
:102A9000AE0B8093AF0B9093B00B6091210B7091B4
:102AA000220B8091230B9091240B0E9415512091B1
:102AB0005A0D30915B0D40915C0D50915D0D0E945F
:102AC000C9516093B10B7093B20B8093B30B909389
:102AD000B40B60911D0B70911E0B80911F0B909198
:102AE000200B0E94155120915E0D30915F0D409199
:102AF000600D5091610D0E94C9516093B50B7093A8
:102B0000B60B8093B70B9093B80B2FD88091090D1B
:102B100090910A0DA0910B0DB0910C0D8093010DB9
:102B20009093020DA093030DB093040DE0960FB6A1
:102B3000F894DEBF0FBECDBFDF91CF91FF90EF9035
:102B4000DF90CF90BF90AF909F908F907F906F90CD
:102B50005F904F9008950E941E456093090D7093F9
:102B60000A0D80930B0D90930C0D81E00E94BF0B1A
:102B70009093D40A8093D30A82E00E94BF0B909373
:102B8000D20A8093D10A83E00E94BF0B9093D00AAF
:102B90008093CF0A84E00E94BF0B9093CE0A80936B
:102BA000CD0A85E00E94BF0B9093CC0A8093CB0A9C
:102BB00086E00E94BF0B9093CA0A8093C90A87E0FF
:102BC0000E94BF0B9093C80A8093C70A88E00E94B6
:102BD000BF0B9093C60A8093C50A89E00E94BF0B81
:102BE0009093C40A8093C30A80E10E94BF0B909324
:102BF000C20A8093C10A81E10E94AD0B90E09093DC
:102C0000C00A8093BF0A8AE00E94E20B683E23E07C
:102C10007207810591052CF440E030E020E080E06F
:102C200004C0462F372F282F892F4093BB0A30939B
:102C3000BC0A2093BD0A8093BE0A8BE00E94E20B7F
:102C4000683E23E07207810591052CF440E030E0F6
:102C500020E080E004C0462F372F282F892F409393
:102C6000B70A3093B80A2093B90A8093BA0A8CE065
:102C70000E94E20B683E23E07207810591052CF467
:102C800040E030E020E080E004C0462F372F282FBE
:102C9000892F4093B30A3093B40A2093B50A8093E6
:102CA000B60A8DE00E94E20B87FF05C040E030E0ED
:102CB00020E080E004C0462F372F282F892F409333
:102CC000AF0A3093B00A2093B10A8093B20A8EE023
:102CD0000E94E20B87FF05C040E030E020E080E08A
:102CE00004C0462F372F282F892F4093AB0A3093EB
:102CF000AC0A2093AD0A8093AE0A8FE00E94E20BEB
:102D000087FF05C040E030E020E080E004C0462FAF
:102D1000372F282F892F4093A70A3093A80A209392
:102D2000A90A8093AA0A28CACF92DF92EF92FF9253
:102D3000CF93DF936091180D7091190D882777FD5F
:102D40008095982F0E9415516B017C01C5ECDBE04A
:102D50009B01AC01688179818A819B810E947A50B4
:102D6000688379838A839B83C9ECDBE0A7019601A2
:102D7000688179818A819B810E947A5068837983F6
:102D80008A839B83CDECDBE0A70196016881798182
:102D90008A819B810E947A50688379838A839B838E
:102DA000C9EBDBE0A7019601688179818A819B816B
:102DB0000E947A50688379838A839B83CDEBDBE022
:102DC000A7019601688179818A819B810E947A504E
:102DD000688379838A839B83C1ECDBE0A70196013A
:102DE000688179818A819B810E947A506883798386
:102DF0008A839B83CDE7DBE0A70196016881798117
:102E00008A819B810E947A50688379838A839B831D
:102E1000C1E8DBE0A7019601688179818A819B8105
:102E20000E947A50688379838A839B83C5E8DBE0BC
:102E3000A7019601688179818A819B810E947A50DD
:102E4000688379838A839B83C1E7DBE0A7019601CE
:102E5000688179818A819B810E947A506883798315
:102E60008A839B83C5E7DBE0A701960168817981AE
:102E70008A819B810E947A50688379838A839B83AD
:102E8000C9E7DBE0A7019601688179818A819B818E
:102E90000E947A50688379838A839B83C9E8DBE048
:102EA000A7019601688179818A819B810E947A506D
:102EB000688379838A839B83CDE8DBE0A701960151
:102EC000688179818A819B810E947A5068837983A5
:102ED0008A839B83C1E9DBE0A70196016881798140
:102EE0008A819B810E947A50688379838A839B833D
:102EF000C1EDDBE0A7019601688179818A819B8120
:102F00000E947A50688379838A839B83C5EDDBE0D6
:102F1000A7019601688179818A819B810E947A50FC
:102F2000688379838A839B83C9EDDBE0A7019601DF
:102F3000688179818A819B810E947A506883798334
:102F40008A839B831092190D1092180DDF91CF91F7
:102F5000FF90EF90DF90CF900895CF93DF93D82F1D
:102F6000C62F60E089E10E94614660E088E10E942E
:102F700061468D2F80680E943A098C2F80640E94E0
:102F80003A0961E088E1DF91CF910C946146CF93DB
:102F9000DF9360E070E080E090E0DFDF61E089E1F6
:102FA0000E94614660E088E10E946146CBE4D8E07F
:102FB00089910E943A098AE0C334D807C9F761E0D1
:102FC00088E1DF91CF910C946146CF93C82F60E0E8
:102FD00089E10E94614660E088E10E94614681E2E9
:102FE0000E943A098C2F80680E943A0980E20E9470
:102FF0003A0961E088E1CF910C946146EBE4F8E096
:103000009FEF882311F0908301C0108231962AE04F
:10301000E334F207B1F7BBCF61E088E10E942846B4
:1030200061E087E10E94284661E089E10E9428462C
:1030300061E083E30E94284661E084E30E94284621
:103040000E94CC4280E00E9441098CB58F7D8CBDEE
:1030500060E087E10E94614661E087E10E9461468D
:1030600060E089E10E94614660E088E10E9461467B
:1030700081E20E943A0980EB0E943A0984E00E94B2
:103080003A0984E10E943A0980E20E943A098CE000
:103090000E943A0961E088E10E94614680E0AECF7B
:1030A0009C01265031092E34310528F56033710515
:1030B00010F59B012770332753E0759567955A9556
:1030C000E1F734E5369FF001379FF00D1124E80F4A
:1030D000F91FE55BF74F81E090E0022E01C0880FF9
:1030E0000A94EAF7442319F09081982B03C0809545
:1030F00090819823908308954F925F926F927F9270
:103100008F929F92AF92BF92CF92DF92EF92FF92F7
:103110000F931F93CF93DF93EB01642E552E722EE6
:10312000992787FD9095809725E0289F5001299F3A
:10313000B00C11242696C12CD12CC50187589E4F66
:103140005C01442443944724F501EC0DFD1D84905B
:10315000062D152DE12CF12C912CC4010E2C02C052
:10316000959587950A94E2F780FF02C0472D01C02C
:10317000442DB801CE0194DF9FEFE91AF90A0F5FE1
:103180001F4F88E0E816F10441F79FEFC91AD90AEA
:10319000219685E0C816D104B9F6DF91CF911F9131
:1031A0000F91FF90EF90DF90CF90BF90AF909F90E6
:1031B0008F907F906F905F904F9008956F927F9265
:1031C0008F929F92AF92BF92CF92DF92EF92FF9237
:1031D0000F931F93CF93DF93C82E992EEB01742E7C
:1031E000219763E0CC0FDD1F6A95E1F77E015E0158
:1031F00087E0A80EB11CDD24D394D426AE14BF04FE
:1032000044F40C2D192DE12CF12C662463946724D1
:1032100012C000E010E04D2DB701C80141DF0F5F83
:103220001F4F04351105B9F7EFEFEE1AFE0AE6CF8E
:10323000E6E0EE0EF11CF80181918F018823A1F0E8
:10324000272DAE01B70158DF4701F5E08F0E911C25
:103250006E01AC14BD0464F3462DB601C40120DF39
:103260008FEFC81AD80AF5CFDF91CF911F910F9138
:10327000FF90EF90DF90CF90BF90AF909F908F9096
:103280007F906F9084CECF92DF92EF92FF920F9358
:103290001F93CF93DF93C62E9C0121503109E4E0A8
:1032A000220F331FEA95E1F779014FE0E40EF11C9C
:1032B000F4E5DF2E08E010E0C1E0D0E02E153F0578
:1032C00081F1C90137FD079673E0959587957A9549
:1032D000E1F7D89EF001D99EF00D1124C901B80183
:1032E0000E943F52AE0102C0440F551F8A95E2F77B
:1032F000CA01642F809540E050E0E55BF74FDF01A5
:10330000A40FB51F9C91CC2011F0962B01C09823DF
:103310009C934F5F5F4F4530510589F72F5F3F4FBB
:10332000CDCFDF91CF911F910F91FF90EF90DF9064
:10333000CF902DCE2F923F924F925F926F927F92BD
:103340008F929F92AF92BF92CF92DF92EF92FF92B5
:103350000F931F93CF93DF93CDB7DEB7A6970FB62A
:10336000F894DEBF0FBECDBF60914708709148084A
:103370008091490890914A082FE430E040E050E005
:103380000E9452522AE2269F4001279F900C11244E
:103390001E0185E2280E311C8E010F5F1F4F940124
:1033A000201B310B7801C12CD12C2901400E511E5C
:1033B000E3E04E0E511CF70110821182128213823B
:1033C00032016C0C7D1C43E0A42EB12CC501860D8E
:1033D000971D2DA33EA30E943809F701408151811A
:1033E00062817381762F652F542F4427482B4083A9
:1033F000518362837383F1E0AF1AB1082DA13EA11E
:103400008FEFA816B80611F7E4E0EE0EF11CF4E019
:10341000CF0ED11C8CE0C816D10469F6045F1F4F93
:103420000215130509F0BECF8401075D1F4FF6E2B8
:103430008F0E911C40E050E0BA01CC24D42EE52E32
:10344000F62EC8010E943809B701A601482B015089
:1034500011090815190589F74093650B5093660B00
:103460006093670B7093680B89819A81AB81BC81F3
:1034700080933D0B90933E0BA0933F0BB093400B7A
:103480008D819E81AF81B8858093390B90933A0BE3
:10349000A0933B0BB0933C0B89859A85AB85BC858B
:1034A0008093350B9093360BA093370BB093380B6A
:1034B0008D859E85AF85B8898093310B9093320BB3
:1034C000A093330BB093340B89899A89AB89BC895B
:1034D00080932D0B90932E0BA0932F0BB093300B5A
:1034E0008D899E89AF89B88D8093290B90932A0B83
:1034F000A0932B0BB0932C0B898D9A8DAB8DBC8D2B
:103500008093250B9093260BA093270BB093280B49
:103510008D8D9E8DAF8DB8A18093210B9093220B42
:10352000A093230BB093240B89A19AA1ABA1BCA1BA
:1035300080931D0B90931E0BA0931F0BB093200B39
:10354000A6960FB6F894DEBF0FBECDBFDF91CF9128
:103550001F910F91FF90EF90DF90CF90BF90AF90B1
:103560009F908F907F906F905F904F903F902F90A3
:1035700008952F923F924F925F926F927F928F9217
:103580009F92AF92BF92CF92DF92EF92FF920F93F2
:103590001F93CF93DF93CDB7DEB7A9970FB6F894FB
:1035A000DEBF0FBECDBF8091470890914808A09123
:1035B0004908B0914A080196A11DB11D80934708A2
:1035C00090934808A0934908B0934A088DA39EA3FE
:1035D000AFA3B8A7CE0185965C0100E010E0FFE440
:1035E000CF2ED12CE12CF12CAAE28A2EF50191905C
:1035F0005F01609147087091480880914908909157
:103600004A08A70196010E945252869E9001879E09
:10361000300D1124692DC801820F931F0E94385864
:103620000F5F1F4F0330110509F780913D0B9091FB
:103630003E0BA0913F0BB091400B89839A83AB83E3
:10364000BC838091390B90913A0BA0913B0BB091C8
:103650003C0B8D839E83AF83B8878091350B90910F
:10366000360BA091370BB091380B89879A87AB87BF
:10367000BC878091310B9091320BA091330BB091AC
:10368000340B8D879E87AF87B88B80912D0B9091DF
:103690002E0BA0912F0BB091300B898B9A8BAB8B9B
:1036A000BC8B8091290B90912A0BA0912B0BB09190
:1036B0002C0B8D8B9E8BAF8BB88F8091250B9091AF
:1036C000260BA091270BB091280B898F9A8FAB8F77
:1036D000BC8F8091210B9091220BA091230BB09174
:1036E000240B8D8F9E8FAF8FB8A380911D0B90916F
:1036F0001E0BA0911F0BB091200B89A39AA3ABA323
:10370000BCA300E010E0EFE44E2E512C612C712C94
:10371000E12CF12C22242394312C2C0E3D1E200E62
:10372000311EF101EE0DFF1D80819181A281B381D7
:103730008DA39EA3AFA3B8A74701800E911ECE0113
:1037400085965C01C12CD12CF50141915F0149A7FF
:1037500060914708709148088091490890914A0803
:10376000A30192010E945252EAE2E69F9001E79F74
:10377000300D11242D5F3F4F280D391D69A5C9015A
:103780008C0D9D1D0E943858FFEFCF1ADF0A44E0D0
:10379000C416D104C9F684E0E80EF11C9CE0E916D9
:1037A000F10409F0BECF045F1F4F0432110509F088
:1037B000AFCF8091650B9091660BA091670BB09194
:1037C000680B8DA39EA3AFA3B8A7FE01B5965F01BA
:1037D00000E010E05FE4C52ED12CE12CF12C6AE270
:1037E000862EF50191905F0160914708709148081D
:1037F0008091490890914A08A70196010E9452526F
:10380000869E9001879E300D1124295D3F4F692DC2
:10381000C901800F911F0E9438580F5F1F4F03305E
:103820001105F9F667E274E086E99DE00E94F3492C
:1038300040914708509148086091490870914A08A2
:103840002AE030E086E99DE00E941E4B60E374E0D0
:1038500086E99DE00E94F34960914708709148080D
:103860008091490890914A082FE430E040E050E010
:103870000E9452529B01AC01AAE2B0E00E94895220
:10388000AB01BC012AE030E086E99DE00E941E4BBE
:10389000A9960FB6F894DEBF0FBECDBFDF91CF91D2
:1038A0001F910F91FF90EF90DF90CF90BF90AF905E
:1038B0009F908F907F906F905F904F903F902F9050
:1038C00008952F923F924F925F926F927F928F92C4
:1038D0009F92AF92BF92CF92DF92EF92FF920F939F
:1038E0001F93CF93DF9300D01F92CDB7DEB7BAE11D
:1038F000AB2EBDE0BB2EE12CF12C2E0185E0480E55
:10390000511C00E010E01701E0E62E1AE0EF3E0A3D
:103910003501600E711EF30180819181A281B38116
:1039200089839A83AB83BC836101C00ED11ECE0113
:1039300001964C01F40161914F01C6010E94385873
:103940004AE050E0B60186E99DE00E94CC4A6CE373
:1039500074E086E99DE00E94F349FFEFCF1ADF0A89
:103960008414950439F7F301408151816281738198
:1039700022E030E086E99DE00E94054C86E99DE06A
:103980000E94FB490C5F1F4F0C30110509F6FCE04B
:10399000AF0EB11C8CE0E80EF11C90E6E916F104C4
:1039A00009F0AFCF0F900F900F900F90DF91CF9154
:1039B0001F910F91FF90EF90DF90CF90BF90AF904D
:1039C0009F908F907F906F905F904F903F902F903F
:1039D00008954F925F926F927F928F929F92AF92D3
:1039E000BF92CF92DF92EF92FF920F931F93CF93EC
:1039F000DF9300D01F92CDB7DEB70AE11DE0CE0104
:103A000001965C014E0195E0890E911CE12CF12C90
:103A10006801CA18DB08F601EA57FD4F6F0125015E
:103A200036016E0C7F1CC201860D971D0E9438095D
:103A3000F20181932F01E815F905A9F749815A810F
:103A40006B817C81F801EE0DFF1D40835183628301
:103A5000738322E030E086E99DE00E94054C6CE330
:103A600074E086E99DE00E94F349F4E0EF0EF11C5A
:103A70008CE0E816F10499F686E99DE00E94FB4986
:103A8000045F1F4F9DE00A37190709F0BFCF0F9061
:103A90000F900F900F90DF91CF911F910F91FF909A
:103AA000EF90DF90CF90BF90AF909F908F907F90DE
:103AB0006F905F904F900895EF92FF920F931F9336
:103AC000CF93DF9300D01F92CDB7DEB769837A839F
:103AD0008B839C83CE0101967C0106E51FE0F701F4
:103AE00061917F01C8010E9438580F5F1F4F0A354E
:103AF000FFE01F07A1F70F900F900F900F90DF913D
:103B0000CF911F910F91FF90EF900895EF92FF9248
:103B10000F931F93CF93DF9300D01F92CDB7DEB7E3
:103B2000CE0101967C0106E51FE0C8010E9438091C
:103B3000F70181937F010F5F1F4F0A35FFE01F07D9
:103B4000A1F769817A818B819C810F900F900F90F2
:103B50000F90DF91CF911F910F91FF90EF900895FB
:103B6000BF92CF92DF92EF92FF920F931F93CF936A
:103B7000DF936EE374E086E99DE00E941E4A29DF30
:103B800067E474E086E99DE00E941E4A0AE11DE0B8
:103B9000B12CC0E0D0E0F801EC0FFD1FC080D18057
:103BA000E280F38020E030E0A901C701B6010E9465
:103BB000C551181664F420E030E040E85FE4C70126
:103BC000B6010E947650882311F0BB24B39424964A
:103BD000CC30D10501F7045F1F4F8DE00A3718077D
:103BE000C1F6B110F6DEDF91CF911F910F91FF90DA
:103BF000EF90DF90CF90BF9008954F925F926F92B9
:103C00007F928F929F92AF92BF92CF92DF92EF926C
:103C1000FF920F931F93CF93DF9300D01F92CDB7E6
:103C2000DEB79EDF00E010E0CE0101967C011C8231
:103C3000580192E0A90EB11CFE0134966F01C50136
:103C40000E943809F60182936F01F1E0AF1AB108C2
:103C5000CE14DF04A1F789809A80AB80BC801C82DF
:103C600028012CE2420E511CCE0104963C01680151
:103C70009AE2C90ED11CC2010E943809F301829355
:103C80003F01F1E04F1A51086E147F04A1F78981BA
:103C90009A81AB81BC81B501A4014F5F5F4F6F4F2B
:103CA0007F4F481759076A077B07B9F088169906AE
:103CB000AA06BB0649F410924708109248081092D1
:103CC000490810924A080AC0809247089092480812
:103CD000A0924908B0924A0801C086010C3C2CE031
:103CE000120748F08093470890934808A09349082A
:103CF000B0934A0806C0481759076A077B0709F4BA
:103D000096CF04DF60936D0B70936E0B80936F0BF7
:103D10009093700B0FDB0F900F900F900F90DF912F
:103D2000CF911F910F91FF90EF90DF90CF90BF90B8
:103D3000AF909F908F907F906F905F904F9008957D
:103D40002F923F924F925F926F927F928F929F92AB
:103D5000AF92BF92CF92DF92EF92FF920F931F9399
:103D6000CF93DF93CDB7DEB7C051D2400FB6F894F2
:103D7000DEBF0FBECDBFAE014F5F5F4F60E070E0B2
:103D800084E090E00E94670A81110EC38981CF5FB1
:103D9000DD4F8883C150D2408A81CE5FDD4F88835A
:103DA000C250D2408B81CD5FDD4F8883C350D2405B
:103DB000CC5FDD4F1882C450D240CF5FDD4FC8804A
:103DC000D980EA80FB80C150D24051E1F694E7945B
:103DD000D794C7945A95D1F7DD24EE24FF240FEF32
:103DE000C01AD00AE00AF00A66E0CC0CDD1CEE1C1A
:103DF000FF1C6A95D1F710E088248A94982CAA2495
:103E0000A394B12CC75FDD4F88829982AA82BB82BE
:103E1000C950D240CB5FDD4F188219821A821B82B3
:103E2000C550D240CB5FDD4F88809980AA80BB808F
:103E3000C550D240C75FDD4F288139814A815B81FF
:103E4000C950D240820E931EA41EB51E3FEF831AA6
:103E5000930AA30AB30AB694A7949794879424016B
:103E6000350144E0640E711CAE014F5F5F4FC3012A
:103E7000B2010E94670A811193C28981CF5FDD4F31
:103E80008883C150D2408A81CE5FDD4F8883C25083
:103E9000D2408B81CD5FDD4F8883C350D240CC5F51
:103EA000DD4F1882C450D240CF5FDD4F88819981A9
:103EB000AA81BB81C150D240C35FDD4F8883998303
:103EC000AA83BB83CD50D240103109F03AC2A7017A
:103ED0009601C501B4010E943052C35FDD4F0881D5
:103EE00019812A813B81CD50D2406017710782072A
:103EF000930709F00DC1AE014F5F5F4FC301B201DF
:103F00000E94670A811150C28981CF5FDD4F88838B
:103F1000C150D2408A81CE5FDD4F8883C250D240EB
:103F20008B81CD5FDD4F8883C350D240CF5FDD4FA3
:103F3000288139814A815B81C150D240C75FDD4F02
:103F4000288339834A835B83C950D2404091EC0C6B
:103F50005091ED0C6091EE0C7091EF0CCB5FDD4F4A
:103F60001882C550D2408FE390E0A0E0B0E0C35F7C
:103F7000DD4F88839983AA83BB83CD50D240412CE7
:103F8000512C3201C35FDD4F88819981AA81BB81A9
:103F9000CD50D240840D951DA61DB71D0196A11DC3
:103FA000B11DB695A795979587956C017D0133E076
:103FB000CC0CDD1CEE1CFF1C3A95D1F7E1E0F0E0E3
:103FC000EC0FFD1FEC0DFD1D2080CF5FDD4F288223
:103FD000C150D240970186010F5F1F4F2F4F3F4FB7
:103FE000E1E0F0E0EC0FFD1FE00FF11F3080CE5F4D
:103FF000DD4F3882C250D240970186010E5F1F4FBD
:104000002F4F3F4FE1E0F0E0EC0FFD1FE00FF11FFD
:10401000E081CD5FDD4FE883C350D240CC5FDD4F00
:104020001882C450D240CF5FDD4F088119812A81A8
:104030003B81C150D240C75FDD4F88809980AA8004
:10404000BB80C950D240081919092A093B09CB5F26
:10405000DD4FF881C550D240F53081F508171907BA
:104060002A073B07F1F0FE01EF5FFD4F80E090E093
:1040700008E0C01AD108E108F10821E030E02C0F77
:104080003D1FC20ED31ED601A80FB91F3C9131931C
:10409000019683309105B9F7CC5FDD4F1882C4508B
:1040A000D240CF5FDD4F488159816A817B81C15009
:1040B000D2404F5F5F4F6F4F7F4F1BC080179107FC
:1040C000A207B30741F42C013D013FEF431A530A05
:1040D000630A730A0EC08C019D0101501109210968
:1040E0003109C35FDD4F088319832A833B83CD5099
:1040F000D240CB5FDD4F1881C550D2401F5FCB5FF0
:10410000DD4F1883C550D240163009F03BCF10C1A7
:10411000C501B401615071098C4F9F4FAE014F5FD3
:104120005F4F0E94670A81113FC18981CF5FDD4FD8
:104130008883C150D2408A81CE5FDD4F8883C250D0
:10414000D2408B81CD5FDD4F8883C350D240CF5F9B
:10415000DD4F288139814A815B81C150D240C75FE0
:10416000DD4F288339834A835B83C950D240409115
:10417000EC0C5091ED0C6091EE0C7091EF0CCB5F5C
:10418000DD4F1882C550D2408FE390E0A0E0B0E050
:10419000C35FDD4F88839983AA83BB83CD50D24010
:1041A000412C512C3201C35FDD4F88819981AA8156
:1041B000BB81CD50D240840D951DA61DB71D019623
:1041C000A11DB11DB695A795979587956C017D01A9
:1041D00003E0CC0CDD1CEE1CFF1C0A95D1F7E1E0DE
:1041E000F0E0EC0FFD1FEC0DFD1D2080CF5FDD4FDB
:1041F0002882C150D240970186010F5F1F4F2F4F79
:104200003F4FE1E0F0E0EC0FFD1FE00FF11F3080C9
:10421000CE5FDD4F3882C250D240970186010E5FDB
:104220001F4F2F4F3F4FE1E0F0E0EC0FFD1FE00F7D
:10423000F11FE081CD5FDD4FE883C350D240CC5FFA
:10424000DD4F1882C450D240CF5FDD4F0881198105
:104250002A813B81C150D240C75FDD4F8880998061
:10426000AA80BB80C950D240081919092A093B0904
:10427000CB5FDD4FF881C550D240F53081F508178E
:1042800019072A073B07F1F0FE01EF5FFD4F80E0C1
:1042900090E008E0C01AD108E108F10821E030E020
:1042A0002C0F3D1FC20ED31ED601A80FB91F3C9183
:1042B0003193019683309105B9F7CC5FDD4F1882B9
:1042C000C450D240CF5FDD4F488159816A817B81E4
:1042D000C150D2404F5F5F4F6F4F7F4F1BC0801761
:1042E0009107A207B30741F42C013D013FEF431AA8
:1042F000530A630A730A0EC08C019D010150110913
:1043000021093109C35FDD4F088319832A833B8369
:10431000CD50D240CB5FDD4F1881C550D2401F5FDA
:10432000CB5FDD4F1883C550D240163009F03BCF2C
:104330004093EC0C5093ED0C6093EE0C7093EF0CEB
:1043400033C0A5019401C701B6010E943052C35F7A
:10435000DD4F288139814A815B81CD50D24062177F
:1043600073078407950771F4D501C4010196A11D57
:10437000B11DCB5FDD4F88839983AA83BB83C55072
:10438000D2400EC0A50194012150310941095109C3
:10439000C75FDD4F288339834A835B83C950D2408E
:1043A0001F5F113109F03ECDC05FDD4F0FB6F894AD
:1043B000DEBF0FBECDBFDF91CF911F910F91FF9058
:1043C000EF90DF90CF90BF90AF909F908F907F90B5
:1043D0006F905F904F903F902F900895BF92CF9233
:1043E000DF92EF92FF920F931F93CF93DF93CDB79E
:1043F000DEB7E3970FB6F894DEBF0FBECDBF8C01DA
:1044000060ED77E0CE018E960E946E4C7E0185E1D4
:10441000E80EF11C8DE0F70111928A95E9F780E230
:104420008D8B8E8B8F8B888F898F8A8F8B8F8C8FC4
:104430008D8F8E8F8F8F88A38091F30C8093F40CD7
:10444000B090E10B0230110509F44EC30CF098C096
:104450000115110509F49EC10130110509F086C44A
:1044600060E082E090E00E94431960E083E090E029
:104470000E94431961E081E090E00E94431940915D
:10448000A10B5091A20B6091A30B7091A40B22E0A1
:10449000CE0101960E94D94DBE016F5F7F4FCE01C4
:1044A0008E960E94D54CCE0101960E94064C20E0CB
:1044B00030E044E150E0BE016F5F7F4FCE018E9649
:1044C0000E94134F62E574E0CE0101960E941D55D3
:1044D00041E061E070E0CE0101960E94DE1860913B
:1044E000550B7091560B8091570B9091580B8E0184
:1044F0000F5F1F4F21E041E00E94B15266E574E07A
:10450000C8010E941D5541E062E070E0C8010E94B0
:10451000DE186091E10A7091E20A8091E30A9091BD
:10452000E40A21E041E00E94B15269E574E0C8016B
:104530000E941D5541E063E070E0C8010E94DE1852
:104540006091D50A7091D60A8091D70A9091D80AC5
:1045500021E041E00E94B1526BE574E0C8010E9485
:104560001D5541E064E070E0C8010E94DE186091D2
:10457000ED0A7091EE0A8091EF0A9091F00AD3C390
:104580000330110509F440C30430110509F0EEC3EE
:1045900061E081E090E00E94431961E082E090E0F8
:1045A0000E94431961E083E090E00E94431920914A
:1045B000A50B3091A60B4091A70B5091A80B6091D1
:1045C000A10B7091A20B8091A30B9091A40B0E9460
:1045D00012502091A90B3091AA0B4091AB0B509136
:1045E000AC0B0E941250AB01BC0122E0CE0101963F
:1045F0000E94D94DBE016F5F7F4FCE018E960E9403
:10460000D54CCE0101960E94064C20E030E044E1FA
:1046100050E0BE016F5F7F4FCE018E960E94134F18
:1046200062E574E0CE0101960E941D5541E061E013
:1046300070E0CE0101960E94DE182091510B30915E
:10464000520B4091530B5091540B6091550B70914C
:10465000560B8091570B9091580B0E94125020914D
:104660004D0B30914E0B40914F0B5091500B0E94CF
:1046700012508E010F5F1F4F21E041E00E94B152A6
:1046800066E574E0C8010E941D5541E062E070E0FB
:10469000C8010E94DE182091E50A3091E60A409197
:1046A000E70A5091E80A6091E10A7091E20A80916C
:1046B000E30A9091E40A0E9412502091E90A309195
:1046C000EA0A4091EB0A5091EC0A0E94125020E055
:1046D00030E040E450E40E947A5021E041E00E9442
:1046E000B15269E574E0C8010E941D5541E063E0E4
:1046F00070E0C8010E94DE182091D90A3091DA0AD0
:104700004091DB0A5091DC0A6091D50A7091D60A7B
:104710008091D70A9091D80A0E9412502091DD0A08
:104720003091DE0A4091DF0A5091E00A0E94125057
:1047300021E041E00E94B1526BE574E0C8010E94A3
:104740001D5541E064E070E0C8010E94DE18209130
:10475000F10A3091F20A4091F30A5091F40A609103
:10476000ED0A7091EE0A8091EF0A9091F00A0E9492
:1047700012502091F50A3091F60A4091F70A5091B3
:10478000F80A0E94125020E030E040E450E40E9419
:104790007A50C9C260E081E090E00E94431960E075
:1047A00082E090E00E94431960E083E090E00E9484
:1047B000431960E574E0CE0188960E946E4CBE01FC
:1047C000685D7F4F8DE09DE00E94754F6C018E010A
:1047D0000E5D1F4F6CEB76E0C8010E946E4CA60187
:1047E000B8018DE09DE00E945A4F9C0140E050E0EE
:1047F0006DE07DE0CE0101960E94AA4F20E030E0FE
:104800004DE050E0B701CE0101960E94134FCE015A
:1048100001960E94064CC8010E94064CCE01889663
:104820000E94064CF70180E29081911101C08083C3
:104830003196E017F107C1F78FEF8B0D8F3010F431
:104840008CE704C0FFE0FB1510F48DE788A38CEF24
:104850008B0D803110F48CE704C083E18B1510F4CC
:104860008DE789A341E061E070E0C7010E94DE1896
:10487000F70180E28193E017F107E1F760E574E06A
:10488000CE0188960E946E4CBE01685D7F4F8DE020
:104890009DE00E94754F6C016CEB76E0C8010E94B0
:1048A0006E4CA6014F5F5F4FB8018DE09DE00E9406
:1048B0005A4FAC014F5F5F4F23E130E06DE07DE088
:1048C000CE0101960E94AA4F20E030E04DE050E07A
:1048D000B701CE0101960E94134FCE0101960E94AE
:1048E000064CC8010E94064CCE0188960E94064CD8
:1048F000F70180E29081911101C080833196E01729
:10490000F107C1F788EF8B0D803110F48CE704C0FC
:10491000E7E1EB1510F48DE788A384EF8B0D803170
:1049200010F48CE704C0FBE1FB1510F48DE789A3BC
:1049300041E062E070E0C7010E94DE182091A50B03
:104940003091A60B4091A70B5091A80B6091A10B41
:104950007091A20B8091A30B9091A40B0E94125016
:104960002091A90B3091AA0B4091AB0B5091AC0B4D
:104970000E941250AB01BC0122E0CE0101960E94C0
:10498000D94DBE016F5F7F4FCE018E960E94D54CF0
:10499000CE0101960E94064C20E030E044E150E058
:1049A000BE016F5F7F4FCE018E960E94134F62E56E
:1049B00074E0CE0101960E941D5541E063E070E075
:1049C000CE0101960E94DE182091510B3091520BBE
:1049D0004091530B5091540B6091550B7091560BB5
:1049E0008091570B9091580B0E94125020914D0BC3
:1049F00030914E0B40914F0B5091500B0E94125032
:104A00008E010F5F1F4F21E041E00E94B15266E529
:104A100074E0C8010E941D5541E064E070E0C801E7
:104A20000E94DE182091E50A3091E60A4091E70ADB
:104A30005091E80A6091E10A7091E20A8091E30ADC
:104A40009091E40A0E9412502091E90A3091EA0AFA
:104A50004091EB0A5091EC0A0E94125020E030E0A5
:104A600040E450E40E947A5021E041E00E94B152BB
:104A700069E574E0C8010E941D5541E065E070E001
:104A8000C8010E94DE182091D90A3091DA0A4091BB
:104A9000DB0A5091DC0A6091DD0A7091DE0A809198
:104AA000DF0A9091E00A0E9412502091D50A3091BD
:104AB000D60A4091D70A5091D80A0E94125021E09C
:104AC00041E00E94B1526BE574E0C8010E941D559F
:104AD0008091BB0C811145C141E066E070E0CE01E0
:104AE00001960E94DE1842C160E081E090E00E94E1
:104AF000431961E082E090E00E94431960E083E0A6
:104B000090E00E9443194091A50B5091A60B609133
:104B1000A70B7091A80B22E0CE0101960E94D94DFF
:104B2000BE016F5F7F4FCE018E960E94D54CCE01A5
:104B300001960E94064C20E030E044E150E0BE01C6
:104B40006F5F7F4FCE018E960E94134F62E574E037
:104B5000CE0101960E941D5541E061E070E0CE015A
:104B600001960E94DE186091510B7091520B80915A
:104B7000530B9091540B8E010F5F1F4F21E041E0CA
:104B80000E94B15266E574E0C8010E941D5541E0E3
:104B900062E070E0C8010E94DE186091E50A709141
:104BA000E60A8091E70A9091E80A21E041E00E943C
:104BB000B15269E574E0C8010E941D5541E063E00F
:104BC00070E0C8010E94DE186091D90A7091DA0A7B
:104BD0008091DB0A9091DC0A21E041E00E94B15211
:104BE0006BE574E0C8010E941D5541E064E070E08F
:104BF000C8010E94DE186091F10A7091F20A80915A
:104C0000F30A9091F40A8FC060E081E090E00E9486
:104C1000431960E082E090E00E94431961E083E084
:104C200090E00E9443194091A90B5091AA0B60910A
:104C3000AB0B7091AC0B22E0CE0101960E94D94DD6
:104C4000BE016F5F7F4FCE018E960E94D54CCE0184
:104C500001960E94064C20E030E044E150E0BE01A5
:104C60006F5F7F4FCE018E960E94134F62E574E016
:104C7000CE0101960E941D5541E061E070E0CE0139
:104C800001960E94DE1860914D0B70914E0B809141
:104C90004F0B9091500B8E010F5F1F4F21E041E0B1
:104CA0000E94B15266E574E0C8010E941D5541E0C2
:104CB00062E070E0C8010E94DE186091E90A70911C
:104CC000EA0A8091EB0A9091EC0A21E041E00E940F
:104CD000B15269E574E0C8010E941D5541E063E0EE
:104CE00070E0C8010E94DE186091DD0A7091DE0A52
:104CF0008091DF0A9091E00A21E041E00E94B152E8
:104D00006BE574E0C8010E941D5541E064E070E06D
:104D1000C8010E94DE186091F50A7091F60A809130
:104D2000F70A9091F80A21E041E00E94B1526DE546
:104D300074E0C8010E941D5541E065E070E0C801C3
:104D40000E94DE186091DD0B7091DE0B8091DF0B0D
:104D50009091E00B21E041E00E94B15260E674E0E6
:104D6000B4CE8091D30C882309F4B6CECE018E96B2
:104D70000E94064CE3960FB6F894DEBF0FBECDBF7F
:104D8000DF91CF911F910F91FF90EF90DF90CF9027
:104D9000BF900895CF92DF92EF92FF920F931F93EF
:104DA000CF93DF93CDB7DEB7A0970FB6F894DEBFF1
:104DB0000FBECDBF6DEE7BE0CE014B960E94CD4C79
:104DC00060E87DE087EE9BE00E94754F97FF0AC088
:104DD0006AE77DE087EE9BE00E94754F97FF02C077
:104DE00010E02DC265E874E086E99DE00E941E4A4D
:104DF0006DE674E0CE0101960E946E4CBE016F5FBD
:104E00007F4FCE014B960E94054F182FCE01019681
:104E10000E94064C112349F16AE3CE014B960E9491
:104E2000574F2F8D38A1AC014F5F5F4FBE01655EBC
:104E30007F4FCE0101960E94AA4FCE0101960E949B
:104E4000ED4F6B017C01CE0101960E94064CC7011B
:104E5000B6010E945C1DC0926D0BD0926E0BE09269
:104E60006F0BF092700B12E0EAC163E674E0CE01C2
:104E700001960E946E4CBE016F5F7F4FCE014B9634
:104E80000E94054F182FCE0101960E94064C112357
:104E900069F028E288E190E00FB6F894A895809335
:104EA00060000FBE2093600013E0C9C16BE674E0A0
:104EB000CE0101960E946E4CBE016F5F7F4FCE0106
:104EC0004B960E94054F182FCE0101960E94064C6A
:104ED000112309F47EC010923D0B10923E0B1092EC
:104EE0003F0B1092400B1092390B10923A0B10921C
:104EF0003B0B10923C0B1092350B1092360B10921C
:104F0000370B1092380B1092310B1092320B10921B
:104F1000330B1092340B10922D0B10922E0B10921B
:104F20002F0B1092300B1092290B10922A0B10921B
:104F30002B0B10922C0B1092250B1092260B10921B
:104F4000270B1092280B1092210B1092220B10921B
:104F5000230B1092240B10921D0B10921E0B10921B
:104F60001F0B1092200B6AE3CE014B960E94574F05
:104F70002F8D38A1AC014F5F5F4FBE01655E7F4F43
:104F8000CE0101960E94AA4FCE0101960E94ED4FDC
:104F90006B017C01CE0101960E94064CC701B6014F
:104FA0000E945C1DC0926D0BD0926E0BE0926F0B55
:104FB000F092700B0E94B91A28E288E190E00FB6D7
:104FC000F894A895809360000FBE2093600014E0D1
:104FD00036C165E774E0CE0101960E946E4CBE01B9
:104FE0006F5F7F4FCE014B960E94054F182FCE0169
:104FF00001960E94064C112309F452C07E0181E003
:10500000E81AF10810E0111108C06CE2CE014B96CD
:105010000E94574F9A8389830DC0F70140815181C7
:105020004F5F5F4F6CE2CE014B960E943C4FF70101
:10503000938382831F5FF2E0EF0EF11C193019F7A2
:10504000CE0101967C010AE11DE06E0193E1C90EDB
:10505000D11CF70182E0E80EF11C228133814081EE
:1050600051814F5F5F4FBE01655E7F4FCE01459618
:105070000E94AA4FCE0145960E94F74FF801608327
:10508000718382839383CE0145960E94064C045F10
:105090001F4FEC14FD04E9F60E94611C15E0CFC01F
:1050A00069E774E0CE0101960E946E4CBE016F5F0D
:1050B0007F4FCE014B960E94054F182FCE010196CF
:1050C0000E94064C112309F452C07E01F1E0EF1A50
:1050D000F10810E0111108C06CE2CE014B960E945D
:1050E000574F9A8389830DC0F701408151814F5FEB
:1050F0005F4F6CE2CE014B960E943C4FF7019383C9
:1051000082831F5FF2E0EF0EF11C183019F7CE0119
:1051100001967C010AE11DE06E0193E1C90ED11CEC
:10512000F70182E0E80EF11C228133814081518138
:105130004F5F5F4FBE01655E7F4FCE0145960E9477
:10514000AA4FCE0145960E94F74FF8016083718304
:1051500082839383CE0145960E94064C045F1F4FC5
:10516000EC14FD04E9F60E94611C16E068C060E8DA
:1051700074E0CE0101960E946E4CBE016F5F7F4FBE
:10518000CE014B960E94054F182FCE0101960E942A
:10519000064C112309F452C07E01F1E0EF1AF10828
:1051A00010E0111108C06CE2CE014B960E94574FDF
:1051B0009A8389830DC0F701408151814F5F5F4F12
:1051C0006CE2CE014B960E943C4FF70193838283A1
:1051D0001F5FF2E0EF0EF11C183019F7CE010196B7
:1051E0007C010AE11DE06E0193E1C90ED11CF701BB
:1051F00082E0E80EF11C22813381408151814F5FB2
:105200005F4FBE01655E7F4FCE0145960E94AA4F5B
:10521000CE0145960E94F74FF80160837183828327
:105220009383CE0145960E94064C045F1F4FEC14F9
:10523000FD04E9F60E94611C17E001C011E0CE01F7
:105240004B960E94064C812FA0960FB6F894DEBFB5
:105250000FBECDBFDF91CF911F910F91FF90EF90C7
:10526000DF90CF9008958EE30E949646892BC9F572
:1052700066E974E086E99DE00E941E4A60E08AE1EA
:105280000E9461466FEA74E086E99DE00E941E4A32
:1052900068EE73E080E090E00E944145A89568EBDD
:1052A00074E086E99DE00E941E4A61E08AE10E9466
:1052B000614668EB7BE080E090E00E944145A89564
:1052C00063EC74E086E99DE00E941E4A60E08AE19A
:1052D0000E94614668EB7BE080E090E00E944145DF
:1052E000A89564EE74E086E99DE00E941E4A68EE8F
:1052F00073E080E090E00E944145A8958EE30E9413
:105300009646019719F46DE175E016C060E081E3FF
:105310000E94614668EE73E080E090E00E944145A3
:1053200061E081E30E9461466CEF74E086E99DE0F4
:105330000E941E4A67E175E086E99DE00E941E4AD0
:1053400060E08AE10E94614664EF71E080E090E0F5
:105350000E944145A89561E08AE10E9461466CED9A
:1053600075E080E090E00E944145A895A89560E036
:105370008AE10E94614664EC79E080E090E00C9460
:1053800041454F925F926F927F928F929F92AF9220
:10539000BF92CF92DF92EF92FF921F93CF93DF9352
:1053A000CDB7DEB7C450D2400FB6F894DEBF0FBE03
:1053B000CDBF182F6091EC0C7091ED0C8091EE0C2C
:1053C0009091EF0CA6E09695879577956795AA95AD
:1053D000D1F70496AE014F5F5F4F0E94670A8111BB
:1053E000A7C0C090EC0CD090ED0CE090EE0CF090CB
:1053F000EF0CCF5FDD4FC882D982EA82FB82C150B9
:10540000D240260137018FE34822552466247724B1
:10541000F3E0440C551C661C771CFA95D1F7E1E0CB
:10542000F0E0EC0FFD1FE40DF51DC08253014201B9
:105430008FEF881A980AA80AB80AE1E0F0E0EC0FAA
:10544000FD1FE80DF91DCE5FDD4F2881C250D2400F
:1054500020835301420182E0880E911CA11CB11CE3
:10546000E1E0F0E0EC0FFD1FE80DF91DCD5FDD4F31
:105470002881C350D24020838090690B90906A0BA2
:10548000A0906B0BB0906C0BCF5FDD4F8882998240
:10549000AA82BB82C150D240FE01EF5FFD4F20E0E7
:1054A00030E05301420183E0880E911CA11CB11C25
:1054B00041E050E04C0F5D1F480D591DB190DA01DD
:1054C000A20FB31FBC922F5F3F4F24303105B1F7BD
:1054D000D301C2010796A11DB11DE1E0F0E0EC0F80
:1054E000FD1FE80FF91F1083C701B601E6E096958E
:1054F000879577956795EA95D1F70496AE014F5F4A
:105500005F4F0E94BC0A811113C08091EC0C9091F6
:10551000ED0CA091EE0CB091EF0C0196A11DB11D08
:105520008093EC0C9093ED0CA093EE0CB093EF0CE9
:10553000CC5FDD4F0FB6F894DEBF0FBECDBFDF915D
:10554000CF911F91FF90EF90DF90CF90BF90AF90E1
:105550009F908F907F906F905F904F9008951F93D2
:10556000CF93DF93CDB7DEB72C970FB6F894DEBF9D
:105570000FBECDBF182F8091150D8F5F8093150D35
:105580006DE07DE0CE0107960E94CD4C6CEB76E09D
:10559000CE0107960E94374E4AE0612FCE01019658
:1055A0000E94014DBE016F5F7F4FCE0107960E94A2
:1055B000314ECE0101960E94064C6CEB76E0CE0196
:1055C00007960E94374E40916D0B50916E0B609183
:1055D0006F0B7091700B2AE0CE0101960E94AE4DC8
:1055E000BE016F5F7F4FCE0107960E94314ECE0104
:1055F00001960E94064CE12FF0E0EE0FFF1FED5BDD
:10560000FC4F6591749183E49AE00E940D5563E428
:105610007AE0CE0101960E946E4CBE016F5F7F4F13
:10562000CE0107960E94314ECE0101960E94064C93
:105630006CEB76E0CE0107960E94374E4AE060910F
:10564000150DCE0101960E94014DBE016F5F7F4F87
:10565000CE0107960E94314ECE0101960E94064C63
:10566000BE01695F7F4F86E99DE00E940E4A812F4F
:1056700088DECE0107960E94064C2C960FB6F89451
:10568000DEBF0FBECDBFDF91CF911F910895EF9286
:10569000FF920F931F93CF93DF93CDB7DEB7C05721
:1056A000D1090FB6F894DEBF0FBECDBFF82EE62E9F
:1056B000FE01319684E6DF011D928A95E9F76DE0DF
:1056C0007DE0CE0185599F4F0E94CD4C6CEB76E07A
:1056D000CE0185599F4F0E94374E0F2D112707FD90
:1056E0001095B8016F5C7F4F4AE0CE018B599F4FF8
:1056F0000E942D4DBE016B597F4FCE0185599F4FA2
:105700000E94314ECE018B599F4F0E94064C6CEB8C
:1057100076E0CE0185599F4F0E94374E40916D0B28
:1057200050916E0B60916F0B7091700B2AE0CE015F
:105730008B599F4F0E94AE4DBE016B597F4FCE01DA
:1057400085599F4F0E94314ECE018B599F4F0E9429
:10575000064CF801EE0FFF1FE754FC4F6591749162
:10576000CE0101960E940D55BE016F5F7F4FCE01A5
:105770008B599F4F0E946E4CBE016B597F4FCE01DB
:1057800085599F4F0E94314ECE018B599F4F0E94E9
:10579000064C6CEB76E0CE0185599F4F0E94374E48
:1057A000EE2DEE0FFF0BE05AF54F65917491CE018F
:1057B00001960E940D55BE016F5F7F4FCE018B5940
:1057C0009F4F0E946E4CBE016B597F4FCE01855991
:1057D0009F4F0E94314ECE018B599F4F0E94064C25
:1057E0006CEB76E0CE0185599F4F0E94374E4AE020
:1057F0006091150DCE018B599F4F0E94014DBE0146
:105800006B597F4FCE0185599F4F0E94314ECE017B
:105810008B599F4F0E94064CBE0165597F4F86E908
:105820009DE00E940E4A81E38F0DABDD8091150D46
:105830008F5F8093150DCE0185599F4F0E94064CB6
:10584000C059DF4F0FB6F894DEBF0FBECDBFDF915A
:10585000CF911F910F91FF90EF900895DF92EF92FB
:10586000FF920F931F93CF93DF93D82E7B01CFEC42
:10587000DCE00DEB1CE08991D81208C020E030E09C
:1058800044E650E0B701C8010E94134F0A5F1F4F62
:105890008CE0C23DD80779F7DF91CF911F910F912E
:1058A000FF90EF90DF900895E82FF0E0E95AF34F72
:1058B00080819091D50C911108C08E5F823028F4C0
:1058C0008091BB0C91E08927089580E00895282FEE
:1058D0008091BB0C811132C09091D50C40E050E01A
:1058E00070E030E0D901A95AB34FFA01E20FF31F7B
:1058F0006E177F076CF0FD01E40FF51FE081911139
:1059000004C0EE5FE23008F481E04F5F5F4FEDCFFF
:1059100040E050E0D901A95AB34FFA01E20FF31F5A
:105920006E177F0754F0FD01E40FF51F90819D3F36
:1059300009F480E04F5F5F4FF0CF089580E0089555
:10594000E82FF0E0E95AF34F80818D3F29F48091F0
:10595000D40C91E08927089580E00895AF92BF921A
:10596000CF92DF92EF92FF920F93CF93DF93C82FE6
:10597000D62F59016A01E12CF12CC092DA0CD09299
:10598000DB0CE092DC0CF092DD0C0E94124560937F
:10599000D60C7093D70C8093D80C9093D90CA5019A
:1059A00060E070E04093DE0C5093DF0C6093E00CFD
:1059B0007093E10C81E08093D50CED2FFF27E7FD7C
:1059C000F095E95AF34FC0830093D40CDF91CF9147
:1059D0000F91FF90EF90DF90CF90BF90AF90089520
:1059E0002F923F924F925F926F927F928F929F92EF
:1059F000AF92BF92CF92DF92EF92FF920F931F93DD
:105A0000CF93DF93CDB7DEB7C057D2400FB6F8942F
:105A1000DEBF0FBECDBF60ED77E0CE0185599D4F53
:105A20000E946E4C6E018FEFC81A8DEFD80AB60136
:105A30008AE114DFB6018E010F5F1F4FC8010E947B
:105A40006E4CB801CE0185599D4F0E94D54CC801BE
:105A50000E94064C68E375E0C8010E946E4CB801D4
:105A6000CE0185599D4F0E94754F7C01C8010E944F
:105A7000064CF7FE26C060ED77E0CE0185599D4FBC
:105A80000E94EB4CCE0185599D4F0E94064CC05997
:105A9000DD4F0FB6F894DEBF0FBECDBFDF91CF91C3
:105AA0001F910F91FF90EF90DF90CF90BF90AF903C
:105AB0009F908F907F906F905F904F903F902F902E
:105AC0000895BE0165597D4F86E99DE00E940E4A0A
:105AD0006CE2CE0185599D4F0E94574F7C0168E3CF
